{"contracts/AssetTokenFactory.sol":{"AssetTokenFactory":{"abi":[{"inputs":[{"internalType":"address","name":"admin","type":"address"}],"stateMutability":"nonpayable","type":"constructor"},{"anonymous":false,"inputs":[{"indexed":true,"internalType":"address","name":"contractAddress","type":"address"},{"indexed":true,"internalType":"string","name":"assetType","type":"string"},{"indexed":false,"internalType":"string","name":"name","type":"string"},{"indexed":false,"internalType":"string","name":"symbol","type":"string"},{"indexed":true,"internalType":"address","name":"deployer","type":"address"}],"name":"ContractDeployed","type":"event"},{"anonymous":false,"inputs":[{"indexed":true,"internalType":"address","name":"contractAddress","type":"address"},{"indexed":false,"internalType":"bool","name":"isActive","type":"bool"}],"name":"ContractStatusChanged","type":"event"},{"anonymous":false,"inputs":[{"indexed":true,"internalType":"bytes32","name":"role","type":"bytes32"},{"indexed":true,"internalType":"bytes32","name":"previousAdminRole","type":"bytes32"},{"indexed":true,"internalType":"bytes32","name":"newAdminRole","type":"bytes32"}],"name":"RoleAdminChanged","type":"event"},{"anonymous":false,"inputs":[{"indexed":true,"internalType":"bytes32","name":"role","type":"bytes32"},{"indexed":true,"internalType":"address","name":"account","type":"address"},{"indexed":true,"internalType":"address","name":"sender","type":"address"}],"name":"RoleGranted","type":"event"},{"anonymous":false,"inputs":[{"indexed":true,"internalType":"bytes32","name":"role","type":"bytes32"},{"indexed":true,"internalType":"address","name":"account","type":"address"},{"indexed":true,"internalType":"address","name":"sender","type":"address"}],"name":"RoleRevoked","type":"event"},{"inputs":[],"name":"DEFAULT_ADMIN_ROLE","outputs":[{"internalType":"bytes32","name":"","type":"bytes32"}],"stateMutability":"view","type":"function"},{"inputs":[],"name":"DEPLOYER_ROLE","outputs":[{"internalType":"bytes32","name":"","type":"bytes32"}],"stateMutability":"view","type":"function"},{"inputs":[{"internalType":"uint256","name":"","type":"uint256"}],"name":"allContracts","outputs":[{"internalType":"address","name":"","type":"address"}],"stateMutability":"view","type":"function"},{"inputs":[{"internalType":"string","name":"","type":"string"},{"internalType":"uint256","name":"","type":"uint256"}],"name":"assetTypeContracts","outputs":[{"internalType":"address","name":"","type":"address"}],"stateMutability":"view","type":"function"},{"inputs":[{"internalType":"bytes","name":"bytecode","type":"bytes"},{"internalType":"bytes32","name":"salt","type":"bytes32"},{"internalType":"string","name":"assetType","type":"string"},{"internalType":"string","name":"name","type":"string"},{"internalType":"string","name":"symbol","type":"string"}],"name":"deployContract","outputs":[{"internalType":"address","name":"","type":"address"}],"stateMutability":"nonpayable","type":"function"},{"inputs":[{"internalType":"address","name":"","type":"address"}],"name":"deployedContracts","outputs":[{"internalType":"address","name":"contractAddress","type":"address"},{"internalType":"string","name":"assetType","type":"string"},{"internalType":"string","name":"name","type":"string"},{"internalType":"string","name":"symbol","type":"string"},{"internalType":"uint256","name":"deployedAt","type":"uint256"},{"internalType":"address","name":"deployer","type":"address"},{"internalType":"bool","name":"isActive","type":"bool"}],"stateMutability":"view","type":"function"},{"inputs":[{"internalType":"string","name":"assetType","type":"string"}],"name":"getActiveContractsByAssetType","outputs":[{"internalType":"address[]","name":"","type":"address[]"}],"stateMutability":"view","type":"function"},{"inputs":[],"name":"getAllContracts","outputs":[{"internalType":"address[]","name":"","type":"address[]"}],"stateMutability":"view","type":"function"},{"inputs":[{"internalType":"address","name":"contractAddress","type":"address"}],"name":"getContractInfo","outputs":[{"components":[{"internalType":"address","name":"contractAddress","type":"address"},{"internalType":"string","name":"assetType","type":"string"},{"internalType":"string","name":"name","type":"string"},{"internalType":"string","name":"symbol","type":"string"},{"internalType":"uint256","name":"deployedAt","type":"uint256"},{"internalType":"address","name":"deployer","type":"address"},{"internalType":"bool","name":"isActive","type":"bool"}],"internalType":"struct AssetTokenFactory.DeployedContract","name":"","type":"tuple"}],"stateMutability":"view","type":"function"},{"inputs":[{"internalType":"string","name":"assetType","type":"string"}],"name":"getContractsByAssetType","outputs":[{"internalType":"address[]","name":"","type":"address[]"}],"stateMutability":"view","type":"function"},{"inputs":[{"internalType":"bytes32","name":"role","type":"bytes32"}],"name":"getRoleAdmin","outputs":[{"internalType":"bytes32","name":"","type":"bytes32"}],"stateMutability":"view","type":"function"},{"inputs":[],"name":"getTotalContracts","outputs":[{"internalType":"uint256","name":"","type":"uint256"}],"stateMutability":"view","type":"function"},{"inputs":[{"internalType":"string","name":"assetType","type":"string"}],"name":"getTotalContractsByAssetType","outputs":[{"internalType":"uint256","name":"","type":"uint256"}],"stateMutability":"view","type":"function"},{"inputs":[{"internalType":"bytes32","name":"role","type":"bytes32"},{"internalType":"address","name":"account","type":"address"}],"name":"grantRole","outputs":[],"stateMutability":"nonpayable","type":"function"},{"inputs":[{"internalType":"bytes32","name":"role","type":"bytes32"},{"internalType":"address","name":"account","type":"address"}],"name":"hasRole","outputs":[{"internalType":"bool","name":"","type":"bool"}],"stateMutability":"view","type":"function"},{"inputs":[{"internalType":"bytes32","name":"salt","type":"bytes32"},{"internalType":"bytes32","name":"bytecodeHash","type":"bytes32"}],"name":"predictAddress","outputs":[{"internalType":"address","name":"","type":"address"}],"stateMutability":"view","type":"function"},{"inputs":[{"internalType":"address","name":"contractAddress","type":"address"},{"internalType":"string","name":"assetType","type":"string"},{"internalType":"string","name":"name","type":"string"},{"internalType":"string","name":"symbol","type":"string"}],"name":"registerContract","outputs":[],"stateMutability":"nonpayable","type":"function"},{"inputs":[{"internalType":"bytes32","name":"role","type":"bytes32"},{"internalType":"address","name":"account","type":"address"}],"name":"renounceRole","outputs":[],"stateMutability":"nonpayable","type":"function"},{"inputs":[{"internalType":"bytes32","name":"role","type":"bytes32"},{"internalType":"address","name":"account","type":"address"}],"name":"revokeRole","outputs":[],"stateMutability":"nonpayable","type":"function"},{"inputs":[{"internalType":"address","name":"contractAddress","type":"address"},{"internalType":"bool","name":"isActive","type":"bool"}],"name":"setContractStatus","outputs":[],"stateMutability":"nonpayable","type":"function"},{"inputs":[{"internalType":"bytes4","name":"interfaceId","type":"bytes4"}],"name":"supportsInterface","outputs":[{"internalType":"bool","name":"","type":"bool"}],"stateMutability":"view","type":"function"}],"evm":{"bytecode":{"linkReferences":{},"object":"6080346200018757601f62001c9138819003918201601f1916830192916001600160401b038411838510176200018c57808392604095865283396020928391810103126200018757516001600160a01b0381169081900362000187576001805580156200014457600091828052828152838320828452815260ff8484205416156200010c575b7ffc425f2263d0df187444b70e47283d622c70181c5baebb1306a01edba1ce184c90818452838152848420838552815260ff858520541615620000d2575b8451611ace9081620001a38239f35b8184528381528484209083855252838320600160ff1982541617905560008051602062001c71833981519152339380a438808080620000c3565b8280528281528383208284528152838320805460ff1916600117905533828460008051602062001c718339815191528180a462000085565b50606491519062461bcd60e51b82526004820152601560248201527f496e76616c69642061646d696e206164647265737300000000000000000000006044820152fd5b600080fd5b634e487b7160e01b600052604160045260246000fdfe6080604052600436101561001257600080fd5b60003560e01c806301ffc9a71461016757806310a9352814610162578063123aa2fd1461015d578063153044991461015857806318d3ce9614610153578063248a9ca31461014e5780632f2ff15d1461014957806336568abe146101445780634eb7a5121461013f578063534860cc1461013a578063536eafbb1461013557806381c81cdc146101305780638a893df81461012b57806391d1485414610126578063974e85f814610121578063a217fddf1461011c578063c70242ad14610117578063cd481e5114610112578063d547741f1461010d578063e54e26b9146101085763ecd002611461010357600080fd5b610eb6565b610e5b565b610e1c565b610d90565b610c44565b610b23565b610a6c565b610a1a565b6109b7565b610908565b6107f7565b6107d9565b6106b8565b610624565b610560565b610505565b610471565b61040c565b610378565b6101c2565b346101bd5760203660031901126101bd5760043563ffffffff60e01b81168091036101bd57602090637965db0b60e01b81149081156101ac575b506040519015158152f35b6301ffc9a760e01b149050386101a1565b600080fd5b346101bd5760403660031901126101bd57604051602081019060ff60f81b82523060601b6021820152600435603582015260243560558201526055815260808101908082106001600160401b0383111761022f576040829052519091206001600160a01b03168152602090f35b634e487b7160e01b600052604160045260246000fd5b60e081019081106001600160401b0382111761022f57604052565b90601f801991011681019081106001600160401b0382111761022f57604052565b9291926001600160401b03821161022f57604051916102aa601f8201601f191660200184610260565b8294818452818301116101bd578281602093846000960137010152565b9080601f830112156101bd578160206102e293359101610281565b90565b60005b8381106102f85750506000910152565b81810151838201526020016102e8565b9061031b602092828151948592016102e5565b0190565b60206103389181604051938285809451938492016102e5565b8101600281520301902090565b634e487b7160e01b600052603260045260246000fd5b80548210156103735760005260206000200190600090565b610345565b346101bd5760403660031901126101bd576004356001600160401b0381116101bd576103a89036906004016102c7565b6103b46024359161031f565b80548210156101bd576020916103c99161035b565b905460405160039290921b1c6001600160a01b03168152f35b60206003198201126101bd57600435906001600160401b0382116101bd576102e2916004016102c7565b346101bd57602061042461041f366103e2565b61031f565b54604051908152f35b6020908160408183019282815285518094520193019160005b828110610454575050505090565b83516001600160a01b031685529381019392810192600101610446565b346101bd5760003660031901126101bd57604051806004549182815260208091019260046000527f8a35acfbc15ff81a39ae7d344fd709f28e8600b4aa8c65c6b64bfe7fe36bd19b916000905b8282106104e5576104e1856104d581890382610260565b6040519182918261042d565b0390f35b83546001600160a01b0316865294850194600193840193909101906104be565b346101bd5760203660031901126101bd5760043560005260006020526020600160406000200154604051908152f35b602435906001600160a01b03821682036101bd57565b600435906001600160a01b03821682036101bd57565b346101bd5760403660031901126101bd5760043561057c610534565b600091808352826020526105966001604085200154611128565b808352602083815260408085206001600160a01b0385166000908152925290205460ff16156105c3578280f35b808352602083815260408085206001600160a01b038516600090815292529020805460ff1916600117905533916001600160a01b0316907f2f8788117e7eff1d82e926ec794901d17c78024a50270940304540a733656f0d8480a438808280f35b346101bd5760403660031901126101bd5761063d610534565b336001600160a01b0382160361065b57610659906004356111e0565b005b60405162461bcd60e51b815260206004820152602f60248201527f416363657373436f6e74726f6c3a2063616e206f6e6c792072656e6f756e636560448201526e103937b632b9903337b91039b2b63360891b6064820152608490fd5b346101bd576106d16106cc61041f366103e2565b61195f565b6000805b825181101561074d57610725600561071a6107006106f385886119c6565b516001600160a01b031690565b6001600160a01b0316600090815260036020526040902090565b015460a01c60ff1690565b610738575b610733906119b7565b6106d5565b90610745610733916119b7565b91905061072a565b50610757906119f1565b906000805b82518110156107cb5761077a600561071a6107006106f385886119c6565b61078d575b610788906119b7565b61075c565b906107c3610788916107be6107a56106f386886119c6565b6107af83896119c6565b6001600160a01b039091169052565b6119b7565b91905061077f565b604051806104e1868261042d565b346101bd5760003660031901126101bd576020600454604051908152f35b346101bd5760803660031901126101bd5761081061054a565b6001600160401b03906024358281116101bd576108319036906004016102c7565b916044358181116101bd5761084a9036906004016102c7565b906064359081116101bd576108639036906004016102c7565b9061086c611048565b6001600160a01b038316156108c357823b1561088d5761065993339361168f565b60405162461bcd60e51b815260206004820152600e60248201526d139bdd08184818dbdb9d1c9858dd60921b6044820152606490fd5b60405162461bcd60e51b815260206004820152601860248201527f496e76616c696420636f6e7472616374206164647265737300000000000000006044820152606490fd5b346101bd5760403660031901126101bd5761092161054a565b6024358015158082036101bd5760207fd1cd265923267e7363c8fd778538639a7688684e9bb228979fd0177f0cbb23ad9161095a610ef1565b6109ad60018060a01b038096169461098260009787895260038652604089205416151561191e565b8587526003845260408720600501805460ff60a01b191691151560a01b60ff60a01b16919091179055565b604051908152a280f35b346101bd576109c861041f366103e2565b60405180825480825260208092019360005281600020916000905b8282106109fa576104e1856104d581890382610260565b83546001600160a01b0316865294850194600193840193909101906109e3565b346101bd5760403660031901126101bd57602060ff610a60610a3a610534565b6004356000526000845260406000209060018060a01b0316600052602052604060002090565b54166040519015158152f35b346101bd5760a03660031901126101bd576001600160401b036004358181116101bd57366023820112156101bd57610aae903690602481600401359101610281565b906044358181116101bd57610ac79036906004016102c7565b916064358281116101bd57610ae09036906004016102c7565b6084359283116101bd576104e193610aff610b099436906004016102c7565b92602435906113c6565b6040516001600160a01b0390911681529081906020820190565b346101bd5760003660031901126101bd57602060405160008152f35b90600182811c92168015610b6f575b6020831014610b5957565b634e487b7160e01b600052602260045260246000fd5b91607f1691610b4e565b9060405191826000825492610b8d84610b3f565b908184526001948581169081600014610bfc5750600114610bb9575b5050610bb792500383610260565b565b9093915060005260209081600020936000915b818310610be4575050610bb793508201013880610ba9565b85548884018501529485019487945091830191610bcc565b915050610bb794506020925060ff191682840152151560051b8201013880610ba9565b90602091610c38815180928185528580860191016102e5565b601f01601f1916010190565b346101bd5760203660031901126101bd576001600160a01b0380610c6661054a565b1660005260036020526040600020818154169060ff610c8760018301610b79565b93610c9460028401610b79565b90610cea610ca460038601610b79565b610cdc6005600488015497015494610cce6040519a8b9a8b5260e060208c015260e08b0190610c1f565b9089820360408b0152610c1f565b908782036060890152610c1f565b936080860152811660a085015260a01c16151560c08301520390f35b6102e2906020815260e060c060018060a01b0394858151166020850152610d70610d3f6020830151856040880152610100870190610c1f565b610d5b604084015191601f1992838983030160608a0152610c1f565b90606084015190878303016080880152610c1f565b95608082015160a086015260a08201511682850152015191019015159052565b346101bd5760203660031901126101bd576104e1610e10610e0b610db261054a565b61070060c0604051610dc381610245565b600091818380935260606020820152606060408201526060808201528260808201528260a08201520152604060018060a01b039182851681526003602052205416151561191e565b611a23565b60405191829182610d06565b346101bd5760403660031901126101bd57610659600435610e3b610534565b90806000526000602052610e56600160406000200154611128565b6111e0565b346101bd5760203660031901126101bd576004356004548110156101bd5760046000527f8a35acfbc15ff81a39ae7d344fd709f28e8600b4aa8c65c6b64bfe7fe36bd19b01546040516001600160a01b039091168152602090f35b346101bd5760003660031901126101bd5760206040517ffc425f2263d0df187444b70e47283d622c70181c5baebb1306a01edba1ce184c8152f35b3360009081527fad3228b676f7d3cd4284a5443f17f1962b36e491b30a40b2405849e597ba5fb5602052604090205460ff1615610f2a57565b610f3333611336565b600090610f3e611280565b916030610f4a846112ab565b536078610f56846112b8565b5360415b60018111611006576110026048610fea85610fdc88610f7988156112eb565b6040519485937f416363657373436f6e74726f6c3a206163636f756e74200000000000000000006020860152610fb98151809260206037890191016102e5565b84017001034b99036b4b9b9b4b733903937b6329607d1b60378201520190610308565b03601f198101835282610260565b60405162461bcd60e51b8152918291600483016111cf565b0390fd5b90600f811690601082101561037357611043916f181899199a1a9b1b9c1cb0b131b232b360811b901a61103984876112c8565b5360041c916112d9565b610f5a565b3360009081527f740c5e3e456bed56f053f960110118ba9b95a1f5359a82283516fb2e81b6e37e60205260409020547ffc425f2263d0df187444b70e47283d622c70181c5baebb1306a01edba1ce184c9060ff16156110a45750565b6110ad33611336565b6110b5611280565b9160306110c1846112ab565b5360786110cd846112b8565b5360415b600181116110f0576110026048610fea85610fdc88610f7988156112eb565b90600f811690601082101561037357611123916f181899199a1a9b1b9c1cb0b131b232b360811b901a61103984876112c8565b6110d1565b60008181526020818152604080832033845290915290205460ff161561114b5750565b61115433611336565b61115c611280565b916030611168846112ab565b536078611174846112b8565b5360415b60018111611197576110026048610fea85610fdc88610f7988156112eb565b90600f8116906010821015610373576111ca916f181899199a1a9b1b9c1cb0b131b232b360811b901a61103984876112c8565b611178565b9060206102e2928181520190610c1f565b6000818152602081815260408083206001600160a01b038616845290915281205490919060ff1661121057505050565b808252602082815260408084206001600160a01b038616600090815292529020805460ff1916905533926001600160a01b0316917ff6391f5c32d9c69d2a47ea670b442974b53935d1edc7fd64eb21e047a839171b9080a4565b634e487b7160e01b600052601160045260246000fd5b60405190608082018281106001600160401b0382111761022f57604052604282526060366020840137565b8051156103735760200190565b8051600110156103735760210190565b908151811015610373570160200190565b80156112e6576000190190565b61126a565b156112f257565b606460405162461bcd60e51b815260206004820152602060248201527f537472696e67733a20686578206c656e67746820696e73756666696369656e746044820152fd5b60405190606082018281106001600160401b0382111761022f57604052602a82526040366020840137603061136a836112ab565b536078611376836112b8565b536029905b6001821161138e576102e29150156112eb565b600f8116906010821015610373576113c0916f181899199a1a9b1b9c1cb0b131b232b360811b901a61103984866112c8565b9061137b565b6113ce611048565b6002600154146114445760026001556020815191016000f5926001600160a01b0384161561140b576114029233928561168f565b6102e260018055565b60405162461bcd60e51b815260206004820152601160248201527011195c1b1bde5b595b9d0819985a5b1959607a1b6044820152606490fd5b60405162461bcd60e51b815260206004820152601f60248201527f5265656e7472616e637947756172643a207265656e7472616e742063616c6c006044820152606490fd5b90601f811161149757505050565b600091825260208220906020601f850160051c830194106114d3575b601f0160051c01915b8281106114c857505050565b8181556001016114bc565b90925082906114b3565b91909182516001600160401b03811161022f57611504816114fe8454610b3f565b84611489565b602080601f8311600114611540575081929394600092611535575b50508160011b916000199060031b1c1916179055565b01519050388061151f565b90601f1983169561155685600052602060002090565b926000905b8882106115935750508360019596971061157a575b505050811b019055565b015160001960f88460031b161c19169055388080611570565b8060018596829496860151815501950193019061155b565b600454600160401b81101561022f5760018101806004558110156103735760046000527f8a35acfbc15ff81a39ae7d344fd709f28e8600b4aa8c65c6b64bfe7fe36bd19b0180546001600160a01b0319166001600160a01b03909216919091179055565b8054600160401b81101561022f5761162c9160018201815561035b565b819291549060031b9160018060a01b03809116831b921b1916179055565b611662906020604051928284809451938492016102e5565b810103902090565b90916116816102e293604084526040840190610c1f565b916020818403910152610c1f565b93919290604051946116a086610245565b60018060a01b03938482169485885260209788810185815260408201898152606083019088825260808401924284528560a0860197169c8d885260c0860196611724600191828a526117048c60018060a01b03166000526003602052604060002090565b9851895491166001600160a01b03166001600160a01b0319909116178855565b8087019251918251926001600160401b03841161022f5761174f846117498754610b3f565b87611489565b81601f851160011461186657509761182a976117d77fc762cb6becbe2b4ae74b5d4895bb3e8964ceac656797680a6a319de30f7da9809f9e9c986117cd6118469f9c996118419e99898061180a9b6117ee9b6118109f9b60059c60009461185b575b50501b916000199060031b1c19161790555b51600286016114dd565b51600384016114dd565b51600482015595519501946001600160a01b031690565b84546001600160a01b0319166001600160a01b03909116178455565b51151590565b815460ff60a01b191690151560a01b60ff60a01b16179055565b61183c816118378561031f565b61160f565b6115ab565b61164a565b936118566040519283928361166a565b0390a4565b0151925038806117b1565b9190601f94939419841661187f87600052602060002090565b936000905b8282106119075750507fc762cb6becbe2b4ae74b5d4895bb3e8964ceac656797680a6a319de30f7da9809f9e9c986117cd6118469f9c94996118419e9961180a998961182a9f97996118109e60059b6117ee9d6117d79a106118ee575b505050811b0190556117c3565b015160001960f88460031b161c191690553880806118e1565b808886978294978701518155019601940190611884565b1561192557565b60405162461bcd60e51b815260206004820152601260248201527110dbdb9d1c9858dd081b9bdd08199bdd5b9960721b6044820152606490fd5b9060405191828154918282526020928383019160005283600020936000905b82821061199457505050610bb792500383610260565b85546001600160a01b03168452600195860195889550938101939091019061197e565b60001981146112e65760010190565b80518210156103735760209160051b010190565b6001600160401b03811161022f5760051b60200190565b906119fb826119da565b611a086040519182610260565b8281528092611a19601f19916119da565b0190602036910137565b90604051611a3081610245565b60c060ff8294600560018060a01b0391828154168652611a5260018201610b79565b6020870152611a6360028201610b79565b6040870152611a7460038201610b79565b606087015260048101546080870152015490811660a085015260a01c16151591015256fea264697066735822122025f9950dda64eb539831a9492aae8c615b047fc9fd4fc1f3aad94d9fee459bef64736f6c634300081400332f8788117e7eff1d82e926ec794901d17c78024a50270940304540a733656f0d","opcodes":"PUSH1 0x80 CALLVALUE PUSH3 0x187 JUMPI PUSH1 0x1F PUSH3 0x1C91 CODESIZE DUP2 SWAP1 SUB SWAP2 DUP3 ADD PUSH1 0x1F NOT AND DUP4 ADD SWAP3 SWAP2 PUSH1 0x1 PUSH1 0x1 PUSH1 0x40 SHL SUB DUP5 GT DUP4 DUP6 LT OR PUSH3 0x18C JUMPI DUP1 DUP4 SWAP3 PUSH1 0x40 SWAP6 DUP7 MSTORE DUP4 CODECOPY PUSH1 0x20 SWAP3 DUP4 SWAP2 DUP2 ADD SUB SLT PUSH3 0x187 JUMPI MLOAD PUSH1 0x1 PUSH1 0x1 PUSH1 0xA0 SHL SUB DUP2 AND SWAP1 DUP2 SWAP1 SUB PUSH3 0x187 JUMPI PUSH1 0x1 DUP1 SSTORE DUP1 ISZERO PUSH3 0x144 JUMPI PUSH1 0x0 SWAP2 DUP3 DUP1 MSTORE DUP3 DUP2 MSTORE DUP4 DUP4 KECCAK256 DUP3 DUP5 MSTORE DUP2 MSTORE PUSH1 0xFF DUP5 DUP5 KECCAK256 SLOAD AND ISZERO PUSH3 0x10C JUMPI JUMPDEST PUSH32 0xFC425F2263D0DF187444B70E47283D622C70181C5BAEBB1306A01EDBA1CE184C SWAP1 DUP2 DUP5 MSTORE DUP4 DUP2 MSTORE DUP5 DUP5 KECCAK256 DUP4 DUP6 MSTORE DUP2 MSTORE PUSH1 0xFF DUP6 DUP6 KECCAK256 SLOAD AND ISZERO PUSH3 0xD2 JUMPI JUMPDEST DUP5 MLOAD PUSH2 0x1ACE SWAP1 DUP2 PUSH3 0x1A3 DUP3 CODECOPY RETURN JUMPDEST DUP2 DUP5 MSTORE DUP4 DUP2 MSTORE DUP5 DUP5 KECCAK256 SWAP1 DUP4 DUP6 MSTORE MSTORE DUP4 DUP4 KECCAK256 PUSH1 0x1 PUSH1 0xFF NOT DUP3 SLOAD AND OR SWAP1 SSTORE PUSH1 0x0 DUP1 MLOAD PUSH1 0x20 PUSH3 0x1C71 DUP4 CODECOPY DUP2 MLOAD SWAP2 MSTORE CALLER SWAP4 DUP1 LOG4 CODESIZE DUP1 DUP1 DUP1 PUSH3 0xC3 JUMP JUMPDEST DUP3 DUP1 MSTORE DUP3 DUP2 MSTORE DUP4 DUP4 KECCAK256 DUP3 DUP5 MSTORE DUP2 MSTORE DUP4 DUP4 KECCAK256 DUP1 SLOAD PUSH1 0xFF NOT AND PUSH1 0x1 OR SWAP1 SSTORE CALLER DUP3 DUP5 PUSH1 0x0 DUP1 MLOAD PUSH1 0x20 PUSH3 0x1C71 DUP4 CODECOPY DUP2 MLOAD SWAP2 MSTORE DUP2 DUP1 LOG4 PUSH3 0x85 JUMP JUMPDEST POP PUSH1 0x64 SWAP2 MLOAD SWAP1 PUSH3 0x461BCD PUSH1 0xE5 SHL DUP3 MSTORE PUSH1 0x4 DUP3 ADD MSTORE PUSH1 0x15 PUSH1 0x24 DUP3 ADD MSTORE PUSH32 0x496E76616C69642061646D696E20616464726573730000000000000000000000 PUSH1 0x44 DUP3 ADD MSTORE REVERT JUMPDEST PUSH1 0x0 DUP1 REVERT JUMPDEST PUSH4 0x4E487B71 PUSH1 0xE0 SHL PUSH1 0x0 MSTORE PUSH1 0x41 PUSH1 0x4 MSTORE PUSH1 0x24 PUSH1 0x0 REVERT INVALID PUSH1 0x80 PUSH1 0x40 MSTORE PUSH1 0x4 CALLDATASIZE LT ISZERO PUSH2 0x12 JUMPI PUSH1 0x0 DUP1 REVERT JUMPDEST PUSH1 0x0 CALLDATALOAD PUSH1 0xE0 SHR DUP1 PUSH4 0x1FFC9A7 EQ PUSH2 0x167 JUMPI DUP1 PUSH4 0x10A93528 EQ PUSH2 0x162 JUMPI DUP1 PUSH4 0x123AA2FD EQ PUSH2 0x15D JUMPI DUP1 PUSH4 0x15304499 EQ PUSH2 0x158 JUMPI DUP1 PUSH4 0x18D3CE96 EQ PUSH2 0x153 JUMPI DUP1 PUSH4 0x248A9CA3 EQ PUSH2 0x14E JUMPI DUP1 PUSH4 0x2F2FF15D EQ PUSH2 0x149 JUMPI DUP1 PUSH4 0x36568ABE EQ PUSH2 0x144 JUMPI DUP1 PUSH4 0x4EB7A512 EQ PUSH2 0x13F JUMPI DUP1 PUSH4 0x534860CC EQ PUSH2 0x13A JUMPI DUP1 PUSH4 0x536EAFBB EQ PUSH2 0x135 JUMPI DUP1 PUSH4 0x81C81CDC EQ PUSH2 0x130 JUMPI DUP1 PUSH4 0x8A893DF8 EQ PUSH2 0x12B JUMPI DUP1 PUSH4 0x91D14854 EQ PUSH2 0x126 JUMPI DUP1 PUSH4 0x974E85F8 EQ PUSH2 0x121 JUMPI DUP1 PUSH4 0xA217FDDF EQ PUSH2 0x11C JUMPI DUP1 PUSH4 0xC70242AD EQ PUSH2 0x117 JUMPI DUP1 PUSH4 0xCD481E51 EQ PUSH2 0x112 JUMPI DUP1 PUSH4 0xD547741F EQ PUSH2 0x10D JUMPI DUP1 PUSH4 0xE54E26B9 EQ PUSH2 0x108 JUMPI PUSH4 0xECD00261 EQ PUSH2 0x103 JUMPI PUSH1 0x0 DUP1 REVERT JUMPDEST PUSH2 0xEB6 JUMP JUMPDEST PUSH2 0xE5B JUMP JUMPDEST PUSH2 0xE1C JUMP JUMPDEST PUSH2 0xD90 JUMP JUMPDEST PUSH2 0xC44 JUMP JUMPDEST PUSH2 0xB23 JUMP JUMPDEST PUSH2 0xA6C JUMP JUMPDEST PUSH2 0xA1A JUMP JUMPDEST PUSH2 0x9B7 JUMP JUMPDEST PUSH2 0x908 JUMP JUMPDEST PUSH2 0x7F7 JUMP JUMPDEST PUSH2 0x7D9 JUMP JUMPDEST PUSH2 0x6B8 JUMP JUMPDEST PUSH2 0x624 JUMP JUMPDEST PUSH2 0x560 JUMP JUMPDEST PUSH2 0x505 JUMP JUMPDEST PUSH2 0x471 JUMP JUMPDEST PUSH2 0x40C JUMP JUMPDEST PUSH2 0x378 JUMP JUMPDEST PUSH2 0x1C2 JUMP JUMPDEST CALLVALUE PUSH2 0x1BD JUMPI PUSH1 0x20 CALLDATASIZE PUSH1 0x3 NOT ADD SLT PUSH2 0x1BD JUMPI PUSH1 0x4 CALLDATALOAD PUSH4 0xFFFFFFFF PUSH1 0xE0 SHL DUP2 AND DUP1 SWAP2 SUB PUSH2 0x1BD JUMPI PUSH1 0x20 SWAP1 PUSH4 0x7965DB0B PUSH1 0xE0 SHL DUP2 EQ SWAP1 DUP2 ISZERO PUSH2 0x1AC JUMPI JUMPDEST POP PUSH1 0x40 MLOAD SWAP1 ISZERO ISZERO DUP2 MSTORE RETURN JUMPDEST PUSH4 0x1FFC9A7 PUSH1 0xE0 SHL EQ SWAP1 POP CODESIZE PUSH2 0x1A1 JUMP JUMPDEST PUSH1 0x0 DUP1 REVERT JUMPDEST CALLVALUE PUSH2 0x1BD JUMPI PUSH1 0x40 CALLDATASIZE PUSH1 0x3 NOT ADD SLT PUSH2 0x1BD JUMPI PUSH1 0x40 MLOAD PUSH1 0x20 DUP2 ADD SWAP1 PUSH1 0xFF PUSH1 0xF8 SHL DUP3 MSTORE ADDRESS PUSH1 0x60 SHL PUSH1 0x21 DUP3 ADD MSTORE PUSH1 0x4 CALLDATALOAD PUSH1 0x35 DUP3 ADD MSTORE PUSH1 0x24 CALLDATALOAD PUSH1 0x55 DUP3 ADD MSTORE PUSH1 0x55 DUP2 MSTORE PUSH1 0x80 DUP2 ADD SWAP1 DUP1 DUP3 LT PUSH1 0x1 PUSH1 0x1 PUSH1 0x40 SHL SUB DUP4 GT OR PUSH2 0x22F JUMPI PUSH1 0x40 DUP3 SWAP1 MSTORE MLOAD SWAP1 SWAP2 KECCAK256 PUSH1 0x1 PUSH1 0x1 PUSH1 0xA0 SHL SUB AND DUP2 MSTORE PUSH1 0x20 SWAP1 RETURN JUMPDEST PUSH4 0x4E487B71 PUSH1 0xE0 SHL PUSH1 0x0 MSTORE PUSH1 0x41 PUSH1 0x4 MSTORE PUSH1 0x24 PUSH1 0x0 REVERT JUMPDEST PUSH1 0xE0 DUP2 ADD SWAP1 DUP2 LT PUSH1 0x1 PUSH1 0x1 PUSH1 0x40 SHL SUB DUP3 GT OR PUSH2 0x22F JUMPI PUSH1 0x40 MSTORE JUMP JUMPDEST SWAP1 PUSH1 0x1F DUP1 NOT SWAP2 ADD AND DUP2 ADD SWAP1 DUP2 LT PUSH1 0x1 PUSH1 0x1 PUSH1 0x40 SHL SUB DUP3 GT OR PUSH2 0x22F JUMPI PUSH1 0x40 MSTORE JUMP JUMPDEST SWAP3 SWAP2 SWAP3 PUSH1 0x1 PUSH1 0x1 PUSH1 0x40 SHL SUB DUP3 GT PUSH2 0x22F JUMPI PUSH1 0x40 MLOAD SWAP2 PUSH2 0x2AA PUSH1 0x1F DUP3 ADD PUSH1 0x1F NOT AND PUSH1 0x20 ADD DUP5 PUSH2 0x260 JUMP JUMPDEST DUP3 SWAP5 DUP2 DUP5 MSTORE DUP2 DUP4 ADD GT PUSH2 0x1BD JUMPI DUP3 DUP2 PUSH1 0x20 SWAP4 DUP5 PUSH1 0x0 SWAP7 ADD CALLDATACOPY ADD ADD MSTORE JUMP JUMPDEST SWAP1 DUP1 PUSH1 0x1F DUP4 ADD SLT ISZERO PUSH2 0x1BD JUMPI DUP2 PUSH1 0x20 PUSH2 0x2E2 SWAP4 CALLDATALOAD SWAP2 ADD PUSH2 0x281 JUMP JUMPDEST SWAP1 JUMP JUMPDEST PUSH1 0x0 JUMPDEST DUP4 DUP2 LT PUSH2 0x2F8 JUMPI POP POP PUSH1 0x0 SWAP2 ADD MSTORE JUMP JUMPDEST DUP2 DUP2 ADD MLOAD DUP4 DUP3 ADD MSTORE PUSH1 0x20 ADD PUSH2 0x2E8 JUMP JUMPDEST SWAP1 PUSH2 0x31B PUSH1 0x20 SWAP3 DUP3 DUP2 MLOAD SWAP5 DUP6 SWAP3 ADD PUSH2 0x2E5 JUMP JUMPDEST ADD SWAP1 JUMP JUMPDEST PUSH1 0x20 PUSH2 0x338 SWAP2 DUP2 PUSH1 0x40 MLOAD SWAP4 DUP3 DUP6 DUP1 SWAP5 MLOAD SWAP4 DUP5 SWAP3 ADD PUSH2 0x2E5 JUMP JUMPDEST DUP2 ADD PUSH1 0x2 DUP2 MSTORE SUB ADD SWAP1 KECCAK256 SWAP1 JUMP JUMPDEST PUSH4 0x4E487B71 PUSH1 0xE0 SHL PUSH1 0x0 MSTORE PUSH1 0x32 PUSH1 0x4 MSTORE PUSH1 0x24 PUSH1 0x0 REVERT JUMPDEST DUP1 SLOAD DUP3 LT ISZERO PUSH2 0x373 JUMPI PUSH1 0x0 MSTORE PUSH1 0x20 PUSH1 0x0 KECCAK256 ADD SWAP1 PUSH1 0x0 SWAP1 JUMP JUMPDEST PUSH2 0x345 JUMP JUMPDEST CALLVALUE PUSH2 0x1BD JUMPI PUSH1 0x40 CALLDATASIZE PUSH1 0x3 NOT ADD SLT PUSH2 0x1BD JUMPI PUSH1 0x4 CALLDATALOAD PUSH1 0x1 PUSH1 0x1 PUSH1 0x40 SHL SUB DUP2 GT PUSH2 0x1BD JUMPI PUSH2 0x3A8 SWAP1 CALLDATASIZE SWAP1 PUSH1 0x4 ADD PUSH2 0x2C7 JUMP JUMPDEST PUSH2 0x3B4 PUSH1 0x24 CALLDATALOAD SWAP2 PUSH2 0x31F JUMP JUMPDEST DUP1 SLOAD DUP3 LT ISZERO PUSH2 0x1BD JUMPI PUSH1 0x20 SWAP2 PUSH2 0x3C9 SWAP2 PUSH2 0x35B JUMP JUMPDEST SWAP1 SLOAD PUSH1 0x40 MLOAD PUSH1 0x3 SWAP3 SWAP1 SWAP3 SHL SHR PUSH1 0x1 PUSH1 0x1 PUSH1 0xA0 SHL SUB AND DUP2 MSTORE RETURN JUMPDEST PUSH1 0x20 PUSH1 0x3 NOT DUP3 ADD SLT PUSH2 0x1BD JUMPI PUSH1 0x4 CALLDATALOAD SWAP1 PUSH1 0x1 PUSH1 0x1 PUSH1 0x40 SHL SUB DUP3 GT PUSH2 0x1BD JUMPI PUSH2 0x2E2 SWAP2 PUSH1 0x4 ADD PUSH2 0x2C7 JUMP JUMPDEST CALLVALUE PUSH2 0x1BD JUMPI PUSH1 0x20 PUSH2 0x424 PUSH2 0x41F CALLDATASIZE PUSH2 0x3E2 JUMP JUMPDEST PUSH2 0x31F JUMP JUMPDEST SLOAD PUSH1 0x40 MLOAD SWAP1 DUP2 MSTORE RETURN JUMPDEST PUSH1 0x20 SWAP1 DUP2 PUSH1 0x40 DUP2 DUP4 ADD SWAP3 DUP3 DUP2 MSTORE DUP6 MLOAD DUP1 SWAP5 MSTORE ADD SWAP4 ADD SWAP2 PUSH1 0x0 JUMPDEST DUP3 DUP2 LT PUSH2 0x454 JUMPI POP POP POP POP SWAP1 JUMP JUMPDEST DUP4 MLOAD PUSH1 0x1 PUSH1 0x1 PUSH1 0xA0 SHL SUB AND DUP6 MSTORE SWAP4 DUP2 ADD SWAP4 SWAP3 DUP2 ADD SWAP3 PUSH1 0x1 ADD PUSH2 0x446 JUMP JUMPDEST CALLVALUE PUSH2 0x1BD JUMPI PUSH1 0x0 CALLDATASIZE PUSH1 0x3 NOT ADD SLT PUSH2 0x1BD JUMPI PUSH1 0x40 MLOAD DUP1 PUSH1 0x4 SLOAD SWAP2 DUP3 DUP2 MSTORE PUSH1 0x20 DUP1 SWAP2 ADD SWAP3 PUSH1 0x4 PUSH1 0x0 MSTORE PUSH32 0x8A35ACFBC15FF81A39AE7D344FD709F28E8600B4AA8C65C6B64BFE7FE36BD19B SWAP2 PUSH1 0x0 SWAP1 JUMPDEST DUP3 DUP3 LT PUSH2 0x4E5 JUMPI PUSH2 0x4E1 DUP6 PUSH2 0x4D5 DUP2 DUP10 SUB DUP3 PUSH2 0x260 JUMP JUMPDEST PUSH1 0x40 MLOAD SWAP2 DUP3 SWAP2 DUP3 PUSH2 0x42D JUMP JUMPDEST SUB SWAP1 RETURN JUMPDEST DUP4 SLOAD PUSH1 0x1 PUSH1 0x1 PUSH1 0xA0 SHL SUB AND DUP7 MSTORE SWAP5 DUP6 ADD SWAP5 PUSH1 0x1 SWAP4 DUP5 ADD SWAP4 SWAP1 SWAP2 ADD SWAP1 PUSH2 0x4BE JUMP JUMPDEST CALLVALUE PUSH2 0x1BD JUMPI PUSH1 0x20 CALLDATASIZE PUSH1 0x3 NOT ADD SLT PUSH2 0x1BD JUMPI PUSH1 0x4 CALLDATALOAD PUSH1 0x0 MSTORE PUSH1 0x0 PUSH1 0x20 MSTORE PUSH1 0x20 PUSH1 0x1 PUSH1 0x40 PUSH1 0x0 KECCAK256 ADD SLOAD PUSH1 0x40 MLOAD SWAP1 DUP2 MSTORE RETURN JUMPDEST PUSH1 0x24 CALLDATALOAD SWAP1 PUSH1 0x1 PUSH1 0x1 PUSH1 0xA0 SHL SUB DUP3 AND DUP3 SUB PUSH2 0x1BD JUMPI JUMP JUMPDEST PUSH1 0x4 CALLDATALOAD SWAP1 PUSH1 0x1 PUSH1 0x1 PUSH1 0xA0 SHL SUB DUP3 AND DUP3 SUB PUSH2 0x1BD JUMPI JUMP JUMPDEST CALLVALUE PUSH2 0x1BD JUMPI PUSH1 0x40 CALLDATASIZE PUSH1 0x3 NOT ADD SLT PUSH2 0x1BD JUMPI PUSH1 0x4 CALLDATALOAD PUSH2 0x57C PUSH2 0x534 JUMP JUMPDEST PUSH1 0x0 SWAP2 DUP1 DUP4 MSTORE DUP3 PUSH1 0x20 MSTORE PUSH2 0x596 PUSH1 0x1 PUSH1 0x40 DUP6 KECCAK256 ADD SLOAD PUSH2 0x1128 JUMP JUMPDEST DUP1 DUP4 MSTORE PUSH1 0x20 DUP4 DUP2 MSTORE PUSH1 0x40 DUP1 DUP6 KECCAK256 PUSH1 0x1 PUSH1 0x1 PUSH1 0xA0 SHL SUB DUP6 AND PUSH1 0x0 SWAP1 DUP2 MSTORE SWAP3 MSTORE SWAP1 KECCAK256 SLOAD PUSH1 0xFF AND ISZERO PUSH2 0x5C3 JUMPI DUP3 DUP1 RETURN JUMPDEST DUP1 DUP4 MSTORE PUSH1 0x20 DUP4 DUP2 MSTORE PUSH1 0x40 DUP1 DUP6 KECCAK256 PUSH1 0x1 PUSH1 0x1 PUSH1 0xA0 SHL SUB DUP6 AND PUSH1 0x0 SWAP1 DUP2 MSTORE SWAP3 MSTORE SWAP1 KECCAK256 DUP1 SLOAD PUSH1 0xFF NOT AND PUSH1 0x1 OR SWAP1 SSTORE CALLER SWAP2 PUSH1 0x1 PUSH1 0x1 PUSH1 0xA0 SHL SUB AND SWAP1 PUSH32 0x2F8788117E7EFF1D82E926EC794901D17C78024A50270940304540A733656F0D DUP5 DUP1 LOG4 CODESIZE DUP1 DUP3 DUP1 RETURN JUMPDEST CALLVALUE PUSH2 0x1BD JUMPI PUSH1 0x40 CALLDATASIZE PUSH1 0x3 NOT ADD SLT PUSH2 0x1BD JUMPI PUSH2 0x63D PUSH2 0x534 JUMP JUMPDEST CALLER PUSH1 0x1 PUSH1 0x1 PUSH1 0xA0 SHL SUB DUP3 AND SUB PUSH2 0x65B JUMPI PUSH2 0x659 SWAP1 PUSH1 0x4 CALLDATALOAD PUSH2 0x11E0 JUMP JUMPDEST STOP JUMPDEST PUSH1 0x40 MLOAD PUSH3 0x461BCD PUSH1 0xE5 SHL DUP2 MSTORE PUSH1 0x20 PUSH1 0x4 DUP3 ADD MSTORE PUSH1 0x2F PUSH1 0x24 DUP3 ADD MSTORE PUSH32 0x416363657373436F6E74726F6C3A2063616E206F6E6C792072656E6F756E6365 PUSH1 0x44 DUP3 ADD MSTORE PUSH15 0x103937B632B9903337B91039B2B633 PUSH1 0x89 SHL PUSH1 0x64 DUP3 ADD MSTORE PUSH1 0x84 SWAP1 REVERT JUMPDEST CALLVALUE PUSH2 0x1BD JUMPI PUSH2 0x6D1 PUSH2 0x6CC PUSH2 0x41F CALLDATASIZE PUSH2 0x3E2 JUMP JUMPDEST PUSH2 0x195F JUMP JUMPDEST PUSH1 0x0 DUP1 JUMPDEST DUP3 MLOAD DUP2 LT ISZERO PUSH2 0x74D JUMPI PUSH2 0x725 PUSH1 0x5 PUSH2 0x71A PUSH2 0x700 PUSH2 0x6F3 DUP6 DUP9 PUSH2 0x19C6 JUMP JUMPDEST MLOAD PUSH1 0x1 PUSH1 0x1 PUSH1 0xA0 SHL SUB AND SWAP1 JUMP JUMPDEST PUSH1 0x1 PUSH1 0x1 PUSH1 0xA0 SHL SUB AND PUSH1 0x0 SWAP1 DUP2 MSTORE PUSH1 0x3 PUSH1 0x20 MSTORE PUSH1 0x40 SWAP1 KECCAK256 SWAP1 JUMP JUMPDEST ADD SLOAD PUSH1 0xA0 SHR PUSH1 0xFF AND SWAP1 JUMP JUMPDEST PUSH2 0x738 JUMPI JUMPDEST PUSH2 0x733 SWAP1 PUSH2 0x19B7 JUMP JUMPDEST PUSH2 0x6D5 JUMP JUMPDEST SWAP1 PUSH2 0x745 PUSH2 0x733 SWAP2 PUSH2 0x19B7 JUMP JUMPDEST SWAP2 SWAP1 POP PUSH2 0x72A JUMP JUMPDEST POP PUSH2 0x757 SWAP1 PUSH2 0x19F1 JUMP JUMPDEST SWAP1 PUSH1 0x0 DUP1 JUMPDEST DUP3 MLOAD DUP2 LT ISZERO PUSH2 0x7CB JUMPI PUSH2 0x77A PUSH1 0x5 PUSH2 0x71A PUSH2 0x700 PUSH2 0x6F3 DUP6 DUP9 PUSH2 0x19C6 JUMP JUMPDEST PUSH2 0x78D JUMPI JUMPDEST PUSH2 0x788 SWAP1 PUSH2 0x19B7 JUMP JUMPDEST PUSH2 0x75C JUMP JUMPDEST SWAP1 PUSH2 0x7C3 PUSH2 0x788 SWAP2 PUSH2 0x7BE PUSH2 0x7A5 PUSH2 0x6F3 DUP7 DUP9 PUSH2 0x19C6 JUMP JUMPDEST PUSH2 0x7AF DUP4 DUP10 PUSH2 0x19C6 JUMP JUMPDEST PUSH1 0x1 PUSH1 0x1 PUSH1 0xA0 SHL SUB SWAP1 SWAP2 AND SWAP1 MSTORE JUMP JUMPDEST PUSH2 0x19B7 JUMP JUMPDEST SWAP2 SWAP1 POP PUSH2 0x77F JUMP JUMPDEST PUSH1 0x40 MLOAD DUP1 PUSH2 0x4E1 DUP7 DUP3 PUSH2 0x42D JUMP JUMPDEST CALLVALUE PUSH2 0x1BD JUMPI PUSH1 0x0 CALLDATASIZE PUSH1 0x3 NOT ADD SLT PUSH2 0x1BD JUMPI PUSH1 0x20 PUSH1 0x4 SLOAD PUSH1 0x40 MLOAD SWAP1 DUP2 MSTORE RETURN JUMPDEST CALLVALUE PUSH2 0x1BD JUMPI PUSH1 0x80 CALLDATASIZE PUSH1 0x3 NOT ADD SLT PUSH2 0x1BD JUMPI PUSH2 0x810 PUSH2 0x54A JUMP JUMPDEST PUSH1 0x1 PUSH1 0x1 PUSH1 0x40 SHL SUB SWAP1 PUSH1 0x24 CALLDATALOAD DUP3 DUP2 GT PUSH2 0x1BD JUMPI PUSH2 0x831 SWAP1 CALLDATASIZE SWAP1 PUSH1 0x4 ADD PUSH2 0x2C7 JUMP JUMPDEST SWAP2 PUSH1 0x44 CALLDATALOAD DUP2 DUP2 GT PUSH2 0x1BD JUMPI PUSH2 0x84A SWAP1 CALLDATASIZE SWAP1 PUSH1 0x4 ADD PUSH2 0x2C7 JUMP JUMPDEST SWAP1 PUSH1 0x64 CALLDATALOAD SWAP1 DUP2 GT PUSH2 0x1BD JUMPI PUSH2 0x863 SWAP1 CALLDATASIZE SWAP1 PUSH1 0x4 ADD PUSH2 0x2C7 JUMP JUMPDEST SWAP1 PUSH2 0x86C PUSH2 0x1048 JUMP JUMPDEST PUSH1 0x1 PUSH1 0x1 PUSH1 0xA0 SHL SUB DUP4 AND ISZERO PUSH2 0x8C3 JUMPI DUP3 EXTCODESIZE ISZERO PUSH2 0x88D JUMPI PUSH2 0x659 SWAP4 CALLER SWAP4 PUSH2 0x168F JUMP JUMPDEST PUSH1 0x40 MLOAD PUSH3 0x461BCD PUSH1 0xE5 SHL DUP2 MSTORE PUSH1 0x20 PUSH1 0x4 DUP3 ADD MSTORE PUSH1 0xE PUSH1 0x24 DUP3 ADD MSTORE PUSH14 0x139BDD08184818DBDB9D1C9858DD PUSH1 0x92 SHL PUSH1 0x44 DUP3 ADD MSTORE PUSH1 0x64 SWAP1 REVERT JUMPDEST PUSH1 0x40 MLOAD PUSH3 0x461BCD PUSH1 0xE5 SHL DUP2 MSTORE PUSH1 0x20 PUSH1 0x4 DUP3 ADD MSTORE PUSH1 0x18 PUSH1 0x24 DUP3 ADD MSTORE PUSH32 0x496E76616C696420636F6E747261637420616464726573730000000000000000 PUSH1 0x44 DUP3 ADD MSTORE PUSH1 0x64 SWAP1 REVERT JUMPDEST CALLVALUE PUSH2 0x1BD JUMPI PUSH1 0x40 CALLDATASIZE PUSH1 0x3 NOT ADD SLT PUSH2 0x1BD JUMPI PUSH2 0x921 PUSH2 0x54A JUMP JUMPDEST PUSH1 0x24 CALLDATALOAD DUP1 ISZERO ISZERO DUP1 DUP3 SUB PUSH2 0x1BD JUMPI PUSH1 0x20 PUSH32 0xD1CD265923267E7363C8FD778538639A7688684E9BB228979FD0177F0CBB23AD SWAP2 PUSH2 0x95A PUSH2 0xEF1 JUMP JUMPDEST PUSH2 0x9AD PUSH1 0x1 DUP1 PUSH1 0xA0 SHL SUB DUP1 SWAP7 AND SWAP5 PUSH2 0x982 PUSH1 0x0 SWAP8 DUP8 DUP10 MSTORE PUSH1 0x3 DUP7 MSTORE PUSH1 0x40 DUP10 KECCAK256 SLOAD AND ISZERO ISZERO PUSH2 0x191E JUMP JUMPDEST DUP6 DUP8 MSTORE PUSH1 0x3 DUP5 MSTORE PUSH1 0x40 DUP8 KECCAK256 PUSH1 0x5 ADD DUP1 SLOAD PUSH1 0xFF PUSH1 0xA0 SHL NOT AND SWAP2 ISZERO ISZERO PUSH1 0xA0 SHL PUSH1 0xFF PUSH1 0xA0 SHL AND SWAP2 SWAP1 SWAP2 OR SWAP1 SSTORE JUMP JUMPDEST PUSH1 0x40 MLOAD SWAP1 DUP2 MSTORE LOG2 DUP1 RETURN JUMPDEST CALLVALUE PUSH2 0x1BD JUMPI PUSH2 0x9C8 PUSH2 0x41F CALLDATASIZE PUSH2 0x3E2 JUMP JUMPDEST PUSH1 0x40 MLOAD DUP1 DUP3 SLOAD DUP1 DUP3 MSTORE PUSH1 0x20 DUP1 SWAP3 ADD SWAP4 PUSH1 0x0 MSTORE DUP2 PUSH1 0x0 KECCAK256 SWAP2 PUSH1 0x0 SWAP1 JUMPDEST DUP3 DUP3 LT PUSH2 0x9FA JUMPI PUSH2 0x4E1 DUP6 PUSH2 0x4D5 DUP2 DUP10 SUB DUP3 PUSH2 0x260 JUMP JUMPDEST DUP4 SLOAD PUSH1 0x1 PUSH1 0x1 PUSH1 0xA0 SHL SUB AND DUP7 MSTORE SWAP5 DUP6 ADD SWAP5 PUSH1 0x1 SWAP4 DUP5 ADD SWAP4 SWAP1 SWAP2 ADD SWAP1 PUSH2 0x9E3 JUMP JUMPDEST CALLVALUE PUSH2 0x1BD JUMPI PUSH1 0x40 CALLDATASIZE PUSH1 0x3 NOT ADD SLT PUSH2 0x1BD JUMPI PUSH1 0x20 PUSH1 0xFF PUSH2 0xA60 PUSH2 0xA3A PUSH2 0x534 JUMP JUMPDEST PUSH1 0x4 CALLDATALOAD PUSH1 0x0 MSTORE PUSH1 0x0 DUP5 MSTORE PUSH1 0x40 PUSH1 0x0 KECCAK256 SWAP1 PUSH1 0x1 DUP1 PUSH1 0xA0 SHL SUB AND PUSH1 0x0 MSTORE PUSH1 0x20 MSTORE PUSH1 0x40 PUSH1 0x0 KECCAK256 SWAP1 JUMP JUMPDEST SLOAD AND PUSH1 0x40 MLOAD SWAP1 ISZERO ISZERO DUP2 MSTORE RETURN JUMPDEST CALLVALUE PUSH2 0x1BD JUMPI PUSH1 0xA0 CALLDATASIZE PUSH1 0x3 NOT ADD SLT PUSH2 0x1BD JUMPI PUSH1 0x1 PUSH1 0x1 PUSH1 0x40 SHL SUB PUSH1 0x4 CALLDATALOAD DUP2 DUP2 GT PUSH2 0x1BD JUMPI CALLDATASIZE PUSH1 0x23 DUP3 ADD SLT ISZERO PUSH2 0x1BD JUMPI PUSH2 0xAAE SWAP1 CALLDATASIZE SWAP1 PUSH1 0x24 DUP2 PUSH1 0x4 ADD CALLDATALOAD SWAP2 ADD PUSH2 0x281 JUMP JUMPDEST SWAP1 PUSH1 0x44 CALLDATALOAD DUP2 DUP2 GT PUSH2 0x1BD JUMPI PUSH2 0xAC7 SWAP1 CALLDATASIZE SWAP1 PUSH1 0x4 ADD PUSH2 0x2C7 JUMP JUMPDEST SWAP2 PUSH1 0x64 CALLDATALOAD DUP3 DUP2 GT PUSH2 0x1BD JUMPI PUSH2 0xAE0 SWAP1 CALLDATASIZE SWAP1 PUSH1 0x4 ADD PUSH2 0x2C7 JUMP JUMPDEST PUSH1 0x84 CALLDATALOAD SWAP3 DUP4 GT PUSH2 0x1BD JUMPI PUSH2 0x4E1 SWAP4 PUSH2 0xAFF PUSH2 0xB09 SWAP5 CALLDATASIZE SWAP1 PUSH1 0x4 ADD PUSH2 0x2C7 JUMP JUMPDEST SWAP3 PUSH1 0x24 CALLDATALOAD SWAP1 PUSH2 0x13C6 JUMP JUMPDEST PUSH1 0x40 MLOAD PUSH1 0x1 PUSH1 0x1 PUSH1 0xA0 SHL SUB SWAP1 SWAP2 AND DUP2 MSTORE SWAP1 DUP2 SWAP1 PUSH1 0x20 DUP3 ADD SWAP1 JUMP JUMPDEST CALLVALUE PUSH2 0x1BD JUMPI PUSH1 0x0 CALLDATASIZE PUSH1 0x3 NOT ADD SLT PUSH2 0x1BD JUMPI PUSH1 0x20 PUSH1 0x40 MLOAD PUSH1 0x0 DUP2 MSTORE RETURN JUMPDEST SWAP1 PUSH1 0x1 DUP3 DUP2 SHR SWAP3 AND DUP1 ISZERO PUSH2 0xB6F JUMPI JUMPDEST PUSH1 0x20 DUP4 LT EQ PUSH2 0xB59 JUMPI JUMP JUMPDEST PUSH4 0x4E487B71 PUSH1 0xE0 SHL PUSH1 0x0 MSTORE PUSH1 0x22 PUSH1 0x4 MSTORE PUSH1 0x24 PUSH1 0x0 REVERT JUMPDEST SWAP2 PUSH1 0x7F AND SWAP2 PUSH2 0xB4E JUMP JUMPDEST SWAP1 PUSH1 0x40 MLOAD SWAP2 DUP3 PUSH1 0x0 DUP3 SLOAD SWAP3 PUSH2 0xB8D DUP5 PUSH2 0xB3F JUMP JUMPDEST SWAP1 DUP2 DUP5 MSTORE PUSH1 0x1 SWAP5 DUP6 DUP2 AND SWAP1 DUP2 PUSH1 0x0 EQ PUSH2 0xBFC JUMPI POP PUSH1 0x1 EQ PUSH2 0xBB9 JUMPI JUMPDEST POP POP PUSH2 0xBB7 SWAP3 POP SUB DUP4 PUSH2 0x260 JUMP JUMPDEST JUMP JUMPDEST SWAP1 SWAP4 SWAP2 POP PUSH1 0x0 MSTORE PUSH1 0x20 SWAP1 DUP2 PUSH1 0x0 KECCAK256 SWAP4 PUSH1 0x0 SWAP2 JUMPDEST DUP2 DUP4 LT PUSH2 0xBE4 JUMPI POP POP PUSH2 0xBB7 SWAP4 POP DUP3 ADD ADD CODESIZE DUP1 PUSH2 0xBA9 JUMP JUMPDEST DUP6 SLOAD DUP9 DUP5 ADD DUP6 ADD MSTORE SWAP5 DUP6 ADD SWAP5 DUP8 SWAP5 POP SWAP2 DUP4 ADD SWAP2 PUSH2 0xBCC JUMP JUMPDEST SWAP2 POP POP PUSH2 0xBB7 SWAP5 POP PUSH1 0x20 SWAP3 POP PUSH1 0xFF NOT AND DUP3 DUP5 ADD MSTORE ISZERO ISZERO PUSH1 0x5 SHL DUP3 ADD ADD CODESIZE DUP1 PUSH2 0xBA9 JUMP JUMPDEST SWAP1 PUSH1 0x20 SWAP2 PUSH2 0xC38 DUP2 MLOAD DUP1 SWAP3 DUP2 DUP6 MSTORE DUP6 DUP1 DUP7 ADD SWAP2 ADD PUSH2 0x2E5 JUMP JUMPDEST PUSH1 0x1F ADD PUSH1 0x1F NOT AND ADD ADD SWAP1 JUMP JUMPDEST CALLVALUE PUSH2 0x1BD JUMPI PUSH1 0x20 CALLDATASIZE PUSH1 0x3 NOT ADD SLT PUSH2 0x1BD JUMPI PUSH1 0x1 PUSH1 0x1 PUSH1 0xA0 SHL SUB DUP1 PUSH2 0xC66 PUSH2 0x54A JUMP JUMPDEST AND PUSH1 0x0 MSTORE PUSH1 0x3 PUSH1 0x20 MSTORE PUSH1 0x40 PUSH1 0x0 KECCAK256 DUP2 DUP2 SLOAD AND SWAP1 PUSH1 0xFF PUSH2 0xC87 PUSH1 0x1 DUP4 ADD PUSH2 0xB79 JUMP JUMPDEST SWAP4 PUSH2 0xC94 PUSH1 0x2 DUP5 ADD PUSH2 0xB79 JUMP JUMPDEST SWAP1 PUSH2 0xCEA PUSH2 0xCA4 PUSH1 0x3 DUP7 ADD PUSH2 0xB79 JUMP JUMPDEST PUSH2 0xCDC PUSH1 0x5 PUSH1 0x4 DUP9 ADD SLOAD SWAP8 ADD SLOAD SWAP5 PUSH2 0xCCE PUSH1 0x40 MLOAD SWAP11 DUP12 SWAP11 DUP12 MSTORE PUSH1 0xE0 PUSH1 0x20 DUP13 ADD MSTORE PUSH1 0xE0 DUP12 ADD SWAP1 PUSH2 0xC1F JUMP JUMPDEST SWAP1 DUP10 DUP3 SUB PUSH1 0x40 DUP12 ADD MSTORE PUSH2 0xC1F JUMP JUMPDEST SWAP1 DUP8 DUP3 SUB PUSH1 0x60 DUP10 ADD MSTORE PUSH2 0xC1F JUMP JUMPDEST SWAP4 PUSH1 0x80 DUP7 ADD MSTORE DUP2 AND PUSH1 0xA0 DUP6 ADD MSTORE PUSH1 0xA0 SHR AND ISZERO ISZERO PUSH1 0xC0 DUP4 ADD MSTORE SUB SWAP1 RETURN JUMPDEST PUSH2 0x2E2 SWAP1 PUSH1 0x20 DUP2 MSTORE PUSH1 0xE0 PUSH1 0xC0 PUSH1 0x1 DUP1 PUSH1 0xA0 SHL SUB SWAP5 DUP6 DUP2 MLOAD AND PUSH1 0x20 DUP6 ADD MSTORE PUSH2 0xD70 PUSH2 0xD3F PUSH1 0x20 DUP4 ADD MLOAD DUP6 PUSH1 0x40 DUP9 ADD MSTORE PUSH2 0x100 DUP8 ADD SWAP1 PUSH2 0xC1F JUMP JUMPDEST PUSH2 0xD5B PUSH1 0x40 DUP5 ADD MLOAD SWAP2 PUSH1 0x1F NOT SWAP3 DUP4 DUP10 DUP4 SUB ADD PUSH1 0x60 DUP11 ADD MSTORE PUSH2 0xC1F JUMP JUMPDEST SWAP1 PUSH1 0x60 DUP5 ADD MLOAD SWAP1 DUP8 DUP4 SUB ADD PUSH1 0x80 DUP9 ADD MSTORE PUSH2 0xC1F JUMP JUMPDEST SWAP6 PUSH1 0x80 DUP3 ADD MLOAD PUSH1 0xA0 DUP7 ADD MSTORE PUSH1 0xA0 DUP3 ADD MLOAD AND DUP3 DUP6 ADD MSTORE ADD MLOAD SWAP2 ADD SWAP1 ISZERO ISZERO SWAP1 MSTORE JUMP JUMPDEST CALLVALUE PUSH2 0x1BD JUMPI PUSH1 0x20 CALLDATASIZE PUSH1 0x3 NOT ADD SLT PUSH2 0x1BD JUMPI PUSH2 0x4E1 PUSH2 0xE10 PUSH2 0xE0B PUSH2 0xDB2 PUSH2 0x54A JUMP JUMPDEST PUSH2 0x700 PUSH1 0xC0 PUSH1 0x40 MLOAD PUSH2 0xDC3 DUP2 PUSH2 0x245 JUMP JUMPDEST PUSH1 0x0 SWAP2 DUP2 DUP4 DUP1 SWAP4 MSTORE PUSH1 0x60 PUSH1 0x20 DUP3 ADD MSTORE PUSH1 0x60 PUSH1 0x40 DUP3 ADD MSTORE PUSH1 0x60 DUP1 DUP3 ADD MSTORE DUP3 PUSH1 0x80 DUP3 ADD MSTORE DUP3 PUSH1 0xA0 DUP3 ADD MSTORE ADD MSTORE PUSH1 0x40 PUSH1 0x1 DUP1 PUSH1 0xA0 SHL SUB SWAP2 DUP3 DUP6 AND DUP2 MSTORE PUSH1 0x3 PUSH1 0x20 MSTORE KECCAK256 SLOAD AND ISZERO ISZERO PUSH2 0x191E JUMP JUMPDEST PUSH2 0x1A23 JUMP JUMPDEST PUSH1 0x40 MLOAD SWAP2 DUP3 SWAP2 DUP3 PUSH2 0xD06 JUMP JUMPDEST CALLVALUE PUSH2 0x1BD JUMPI PUSH1 0x40 CALLDATASIZE PUSH1 0x3 NOT ADD SLT PUSH2 0x1BD JUMPI PUSH2 0x659 PUSH1 0x4 CALLDATALOAD PUSH2 0xE3B PUSH2 0x534 JUMP JUMPDEST SWAP1 DUP1 PUSH1 0x0 MSTORE PUSH1 0x0 PUSH1 0x20 MSTORE PUSH2 0xE56 PUSH1 0x1 PUSH1 0x40 PUSH1 0x0 KECCAK256 ADD SLOAD PUSH2 0x1128 JUMP JUMPDEST PUSH2 0x11E0 JUMP JUMPDEST CALLVALUE PUSH2 0x1BD JUMPI PUSH1 0x20 CALLDATASIZE PUSH1 0x3 NOT ADD SLT PUSH2 0x1BD JUMPI PUSH1 0x4 CALLDATALOAD PUSH1 0x4 SLOAD DUP2 LT ISZERO PUSH2 0x1BD JUMPI PUSH1 0x4 PUSH1 0x0 MSTORE PUSH32 0x8A35ACFBC15FF81A39AE7D344FD709F28E8600B4AA8C65C6B64BFE7FE36BD19B ADD SLOAD PUSH1 0x40 MLOAD PUSH1 0x1 PUSH1 0x1 PUSH1 0xA0 SHL SUB SWAP1 SWAP2 AND DUP2 MSTORE PUSH1 0x20 SWAP1 RETURN JUMPDEST CALLVALUE PUSH2 0x1BD JUMPI PUSH1 0x0 CALLDATASIZE PUSH1 0x3 NOT ADD SLT PUSH2 0x1BD JUMPI PUSH1 0x20 PUSH1 0x40 MLOAD PUSH32 0xFC425F2263D0DF187444B70E47283D622C70181C5BAEBB1306A01EDBA1CE184C DUP2 MSTORE RETURN JUMPDEST CALLER PUSH1 0x0 SWAP1 DUP2 MSTORE PUSH32 0xAD3228B676F7D3CD4284A5443F17F1962B36E491B30A40B2405849E597BA5FB5 PUSH1 0x20 MSTORE PUSH1 0x40 SWAP1 KECCAK256 SLOAD PUSH1 0xFF AND ISZERO PUSH2 0xF2A JUMPI JUMP JUMPDEST PUSH2 0xF33 CALLER PUSH2 0x1336 JUMP JUMPDEST PUSH1 0x0 SWAP1 PUSH2 0xF3E PUSH2 0x1280 JUMP JUMPDEST SWAP2 PUSH1 0x30 PUSH2 0xF4A DUP5 PUSH2 0x12AB JUMP JUMPDEST MSTORE8 PUSH1 0x78 PUSH2 0xF56 DUP5 PUSH2 0x12B8 JUMP JUMPDEST MSTORE8 PUSH1 0x41 JUMPDEST PUSH1 0x1 DUP2 GT PUSH2 0x1006 JUMPI PUSH2 0x1002 PUSH1 0x48 PUSH2 0xFEA DUP6 PUSH2 0xFDC DUP9 PUSH2 0xF79 DUP9 ISZERO PUSH2 0x12EB JUMP JUMPDEST PUSH1 0x40 MLOAD SWAP5 DUP6 SWAP4 PUSH32 0x416363657373436F6E74726F6C3A206163636F756E7420000000000000000000 PUSH1 0x20 DUP7 ADD MSTORE PUSH2 0xFB9 DUP2 MLOAD DUP1 SWAP3 PUSH1 0x20 PUSH1 0x37 DUP10 ADD SWAP2 ADD PUSH2 0x2E5 JUMP JUMPDEST DUP5 ADD PUSH17 0x1034B99036B4B9B9B4B733903937B6329 PUSH1 0x7D SHL PUSH1 0x37 DUP3 ADD MSTORE ADD SWAP1 PUSH2 0x308 JUMP JUMPDEST SUB PUSH1 0x1F NOT DUP2 ADD DUP4 MSTORE DUP3 PUSH2 0x260 JUMP JUMPDEST PUSH1 0x40 MLOAD PUSH3 0x461BCD PUSH1 0xE5 SHL DUP2 MSTORE SWAP2 DUP3 SWAP2 PUSH1 0x4 DUP4 ADD PUSH2 0x11CF JUMP JUMPDEST SUB SWAP1 REVERT JUMPDEST SWAP1 PUSH1 0xF DUP2 AND SWAP1 PUSH1 0x10 DUP3 LT ISZERO PUSH2 0x373 JUMPI PUSH2 0x1043 SWAP2 PUSH16 0x181899199A1A9B1B9C1CB0B131B232B3 PUSH1 0x81 SHL SWAP1 BYTE PUSH2 0x1039 DUP5 DUP8 PUSH2 0x12C8 JUMP JUMPDEST MSTORE8 PUSH1 0x4 SHR SWAP2 PUSH2 0x12D9 JUMP JUMPDEST PUSH2 0xF5A JUMP JUMPDEST CALLER PUSH1 0x0 SWAP1 DUP2 MSTORE PUSH32 0x740C5E3E456BED56F053F960110118BA9B95A1F5359A82283516FB2E81B6E37E PUSH1 0x20 MSTORE PUSH1 0x40 SWAP1 KECCAK256 SLOAD PUSH32 0xFC425F2263D0DF187444B70E47283D622C70181C5BAEBB1306A01EDBA1CE184C SWAP1 PUSH1 0xFF AND ISZERO PUSH2 0x10A4 JUMPI POP JUMP JUMPDEST PUSH2 0x10AD CALLER PUSH2 0x1336 JUMP JUMPDEST PUSH2 0x10B5 PUSH2 0x1280 JUMP JUMPDEST SWAP2 PUSH1 0x30 PUSH2 0x10C1 DUP5 PUSH2 0x12AB JUMP JUMPDEST MSTORE8 PUSH1 0x78 PUSH2 0x10CD DUP5 PUSH2 0x12B8 JUMP JUMPDEST MSTORE8 PUSH1 0x41 JUMPDEST PUSH1 0x1 DUP2 GT PUSH2 0x10F0 JUMPI PUSH2 0x1002 PUSH1 0x48 PUSH2 0xFEA DUP6 PUSH2 0xFDC DUP9 PUSH2 0xF79 DUP9 ISZERO PUSH2 0x12EB JUMP JUMPDEST SWAP1 PUSH1 0xF DUP2 AND SWAP1 PUSH1 0x10 DUP3 LT ISZERO PUSH2 0x373 JUMPI PUSH2 0x1123 SWAP2 PUSH16 0x181899199A1A9B1B9C1CB0B131B232B3 PUSH1 0x81 SHL SWAP1 BYTE PUSH2 0x1039 DUP5 DUP8 PUSH2 0x12C8 JUMP JUMPDEST PUSH2 0x10D1 JUMP JUMPDEST PUSH1 0x0 DUP2 DUP2 MSTORE PUSH1 0x20 DUP2 DUP2 MSTORE PUSH1 0x40 DUP1 DUP4 KECCAK256 CALLER DUP5 MSTORE SWAP1 SWAP2 MSTORE SWAP1 KECCAK256 SLOAD PUSH1 0xFF AND ISZERO PUSH2 0x114B JUMPI POP JUMP JUMPDEST PUSH2 0x1154 CALLER PUSH2 0x1336 JUMP JUMPDEST PUSH2 0x115C PUSH2 0x1280 JUMP JUMPDEST SWAP2 PUSH1 0x30 PUSH2 0x1168 DUP5 PUSH2 0x12AB JUMP JUMPDEST MSTORE8 PUSH1 0x78 PUSH2 0x1174 DUP5 PUSH2 0x12B8 JUMP JUMPDEST MSTORE8 PUSH1 0x41 JUMPDEST PUSH1 0x1 DUP2 GT PUSH2 0x1197 JUMPI PUSH2 0x1002 PUSH1 0x48 PUSH2 0xFEA DUP6 PUSH2 0xFDC DUP9 PUSH2 0xF79 DUP9 ISZERO PUSH2 0x12EB JUMP JUMPDEST SWAP1 PUSH1 0xF DUP2 AND SWAP1 PUSH1 0x10 DUP3 LT ISZERO PUSH2 0x373 JUMPI PUSH2 0x11CA SWAP2 PUSH16 0x181899199A1A9B1B9C1CB0B131B232B3 PUSH1 0x81 SHL SWAP1 BYTE PUSH2 0x1039 DUP5 DUP8 PUSH2 0x12C8 JUMP JUMPDEST PUSH2 0x1178 JUMP JUMPDEST SWAP1 PUSH1 0x20 PUSH2 0x2E2 SWAP3 DUP2 DUP2 MSTORE ADD SWAP1 PUSH2 0xC1F JUMP JUMPDEST PUSH1 0x0 DUP2 DUP2 MSTORE PUSH1 0x20 DUP2 DUP2 MSTORE PUSH1 0x40 DUP1 DUP4 KECCAK256 PUSH1 0x1 PUSH1 0x1 PUSH1 0xA0 SHL SUB DUP7 AND DUP5 MSTORE SWAP1 SWAP2 MSTORE DUP2 KECCAK256 SLOAD SWAP1 SWAP2 SWAP1 PUSH1 0xFF AND PUSH2 0x1210 JUMPI POP POP POP JUMP JUMPDEST DUP1 DUP3 MSTORE PUSH1 0x20 DUP3 DUP2 MSTORE PUSH1 0x40 DUP1 DUP5 KECCAK256 PUSH1 0x1 PUSH1 0x1 PUSH1 0xA0 SHL SUB DUP7 AND PUSH1 0x0 SWAP1 DUP2 MSTORE SWAP3 MSTORE SWAP1 KECCAK256 DUP1 SLOAD PUSH1 0xFF NOT AND SWAP1 SSTORE CALLER SWAP3 PUSH1 0x1 PUSH1 0x1 PUSH1 0xA0 SHL SUB AND SWAP2 PUSH32 0xF6391F5C32D9C69D2A47EA670B442974B53935D1EDC7FD64EB21E047A839171B SWAP1 DUP1 LOG4 JUMP JUMPDEST PUSH4 0x4E487B71 PUSH1 0xE0 SHL PUSH1 0x0 MSTORE PUSH1 0x11 PUSH1 0x4 MSTORE PUSH1 0x24 PUSH1 0x0 REVERT JUMPDEST PUSH1 0x40 MLOAD SWAP1 PUSH1 0x80 DUP3 ADD DUP3 DUP2 LT PUSH1 0x1 PUSH1 0x1 PUSH1 0x40 SHL SUB DUP3 GT OR PUSH2 0x22F JUMPI PUSH1 0x40 MSTORE PUSH1 0x42 DUP3 MSTORE PUSH1 0x60 CALLDATASIZE PUSH1 0x20 DUP5 ADD CALLDATACOPY JUMP JUMPDEST DUP1 MLOAD ISZERO PUSH2 0x373 JUMPI PUSH1 0x20 ADD SWAP1 JUMP JUMPDEST DUP1 MLOAD PUSH1 0x1 LT ISZERO PUSH2 0x373 JUMPI PUSH1 0x21 ADD SWAP1 JUMP JUMPDEST SWAP1 DUP2 MLOAD DUP2 LT ISZERO PUSH2 0x373 JUMPI ADD PUSH1 0x20 ADD SWAP1 JUMP JUMPDEST DUP1 ISZERO PUSH2 0x12E6 JUMPI PUSH1 0x0 NOT ADD SWAP1 JUMP JUMPDEST PUSH2 0x126A JUMP JUMPDEST ISZERO PUSH2 0x12F2 JUMPI JUMP JUMPDEST PUSH1 0x64 PUSH1 0x40 MLOAD PUSH3 0x461BCD PUSH1 0xE5 SHL DUP2 MSTORE PUSH1 0x20 PUSH1 0x4 DUP3 ADD MSTORE PUSH1 0x20 PUSH1 0x24 DUP3 ADD MSTORE PUSH32 0x537472696E67733A20686578206C656E67746820696E73756666696369656E74 PUSH1 0x44 DUP3 ADD MSTORE REVERT JUMPDEST PUSH1 0x40 MLOAD SWAP1 PUSH1 0x60 DUP3 ADD DUP3 DUP2 LT PUSH1 0x1 PUSH1 0x1 PUSH1 0x40 SHL SUB DUP3 GT OR PUSH2 0x22F JUMPI PUSH1 0x40 MSTORE PUSH1 0x2A DUP3 MSTORE PUSH1 0x40 CALLDATASIZE PUSH1 0x20 DUP5 ADD CALLDATACOPY PUSH1 0x30 PUSH2 0x136A DUP4 PUSH2 0x12AB JUMP JUMPDEST MSTORE8 PUSH1 0x78 PUSH2 0x1376 DUP4 PUSH2 0x12B8 JUMP JUMPDEST MSTORE8 PUSH1 0x29 SWAP1 JUMPDEST PUSH1 0x1 DUP3 GT PUSH2 0x138E JUMPI PUSH2 0x2E2 SWAP2 POP ISZERO PUSH2 0x12EB JUMP JUMPDEST PUSH1 0xF DUP2 AND SWAP1 PUSH1 0x10 DUP3 LT ISZERO PUSH2 0x373 JUMPI PUSH2 0x13C0 SWAP2 PUSH16 0x181899199A1A9B1B9C1CB0B131B232B3 PUSH1 0x81 SHL SWAP1 BYTE PUSH2 0x1039 DUP5 DUP7 PUSH2 0x12C8 JUMP JUMPDEST SWAP1 PUSH2 0x137B JUMP JUMPDEST PUSH2 0x13CE PUSH2 0x1048 JUMP JUMPDEST PUSH1 0x2 PUSH1 0x1 SLOAD EQ PUSH2 0x1444 JUMPI PUSH1 0x2 PUSH1 0x1 SSTORE PUSH1 0x20 DUP2 MLOAD SWAP2 ADD PUSH1 0x0 CREATE2 SWAP3 PUSH1 0x1 PUSH1 0x1 PUSH1 0xA0 SHL SUB DUP5 AND ISZERO PUSH2 0x140B JUMPI PUSH2 0x1402 SWAP3 CALLER SWAP3 DUP6 PUSH2 0x168F JUMP JUMPDEST PUSH2 0x2E2 PUSH1 0x1 DUP1 SSTORE JUMP JUMPDEST PUSH1 0x40 MLOAD PUSH3 0x461BCD PUSH1 0xE5 SHL DUP2 MSTORE PUSH1 0x20 PUSH1 0x4 DUP3 ADD MSTORE PUSH1 0x11 PUSH1 0x24 DUP3 ADD MSTORE PUSH17 0x11195C1B1BDE5B595B9D0819985A5B1959 PUSH1 0x7A SHL PUSH1 0x44 DUP3 ADD MSTORE PUSH1 0x64 SWAP1 REVERT JUMPDEST PUSH1 0x40 MLOAD PUSH3 0x461BCD PUSH1 0xE5 SHL DUP2 MSTORE PUSH1 0x20 PUSH1 0x4 DUP3 ADD MSTORE PUSH1 0x1F PUSH1 0x24 DUP3 ADD MSTORE PUSH32 0x5265656E7472616E637947756172643A207265656E7472616E742063616C6C00 PUSH1 0x44 DUP3 ADD MSTORE PUSH1 0x64 SWAP1 REVERT JUMPDEST SWAP1 PUSH1 0x1F DUP2 GT PUSH2 0x1497 JUMPI POP POP POP JUMP JUMPDEST PUSH1 0x0 SWAP2 DUP3 MSTORE PUSH1 0x20 DUP3 KECCAK256 SWAP1 PUSH1 0x20 PUSH1 0x1F DUP6 ADD PUSH1 0x5 SHR DUP4 ADD SWAP5 LT PUSH2 0x14D3 JUMPI JUMPDEST PUSH1 0x1F ADD PUSH1 0x5 SHR ADD SWAP2 JUMPDEST DUP3 DUP2 LT PUSH2 0x14C8 JUMPI POP POP POP JUMP JUMPDEST DUP2 DUP2 SSTORE PUSH1 0x1 ADD PUSH2 0x14BC JUMP JUMPDEST SWAP1 SWAP3 POP DUP3 SWAP1 PUSH2 0x14B3 JUMP JUMPDEST SWAP2 SWAP1 SWAP2 DUP3 MLOAD PUSH1 0x1 PUSH1 0x1 PUSH1 0x40 SHL SUB DUP2 GT PUSH2 0x22F JUMPI PUSH2 0x1504 DUP2 PUSH2 0x14FE DUP5 SLOAD PUSH2 0xB3F JUMP JUMPDEST DUP5 PUSH2 0x1489 JUMP JUMPDEST PUSH1 0x20 DUP1 PUSH1 0x1F DUP4 GT PUSH1 0x1 EQ PUSH2 0x1540 JUMPI POP DUP2 SWAP3 SWAP4 SWAP5 PUSH1 0x0 SWAP3 PUSH2 0x1535 JUMPI JUMPDEST POP POP DUP2 PUSH1 0x1 SHL SWAP2 PUSH1 0x0 NOT SWAP1 PUSH1 0x3 SHL SHR NOT AND OR SWAP1 SSTORE JUMP JUMPDEST ADD MLOAD SWAP1 POP CODESIZE DUP1 PUSH2 0x151F JUMP JUMPDEST SWAP1 PUSH1 0x1F NOT DUP4 AND SWAP6 PUSH2 0x1556 DUP6 PUSH1 0x0 MSTORE PUSH1 0x20 PUSH1 0x0 KECCAK256 SWAP1 JUMP JUMPDEST SWAP3 PUSH1 0x0 SWAP1 JUMPDEST DUP9 DUP3 LT PUSH2 0x1593 JUMPI POP POP DUP4 PUSH1 0x1 SWAP6 SWAP7 SWAP8 LT PUSH2 0x157A JUMPI JUMPDEST POP POP POP DUP2 SHL ADD SWAP1 SSTORE JUMP JUMPDEST ADD MLOAD PUSH1 0x0 NOT PUSH1 0xF8 DUP5 PUSH1 0x3 SHL AND SHR NOT AND SWAP1 SSTORE CODESIZE DUP1 DUP1 PUSH2 0x1570 JUMP JUMPDEST DUP1 PUSH1 0x1 DUP6 SWAP7 DUP3 SWAP5 SWAP7 DUP7 ADD MLOAD DUP2 SSTORE ADD SWAP6 ADD SWAP4 ADD SWAP1 PUSH2 0x155B JUMP JUMPDEST PUSH1 0x4 SLOAD PUSH1 0x1 PUSH1 0x40 SHL DUP2 LT ISZERO PUSH2 0x22F JUMPI PUSH1 0x1 DUP2 ADD DUP1 PUSH1 0x4 SSTORE DUP2 LT ISZERO PUSH2 0x373 JUMPI PUSH1 0x4 PUSH1 0x0 MSTORE PUSH32 0x8A35ACFBC15FF81A39AE7D344FD709F28E8600B4AA8C65C6B64BFE7FE36BD19B ADD DUP1 SLOAD PUSH1 0x1 PUSH1 0x1 PUSH1 0xA0 SHL SUB NOT AND PUSH1 0x1 PUSH1 0x1 PUSH1 0xA0 SHL SUB SWAP1 SWAP3 AND SWAP2 SWAP1 SWAP2 OR SWAP1 SSTORE JUMP JUMPDEST DUP1 SLOAD PUSH1 0x1 PUSH1 0x40 SHL DUP2 LT ISZERO PUSH2 0x22F JUMPI PUSH2 0x162C SWAP2 PUSH1 0x1 DUP3 ADD DUP2 SSTORE PUSH2 0x35B JUMP JUMPDEST DUP2 SWAP3 SWAP2 SLOAD SWAP1 PUSH1 0x3 SHL SWAP2 PUSH1 0x1 DUP1 PUSH1 0xA0 SHL SUB DUP1 SWAP2 AND DUP4 SHL SWAP3 SHL NOT AND OR SWAP1 SSTORE JUMP JUMPDEST PUSH2 0x1662 SWAP1 PUSH1 0x20 PUSH1 0x40 MLOAD SWAP3 DUP3 DUP5 DUP1 SWAP5 MLOAD SWAP4 DUP5 SWAP3 ADD PUSH2 0x2E5 JUMP JUMPDEST DUP2 ADD SUB SWAP1 KECCAK256 SWAP1 JUMP JUMPDEST SWAP1 SWAP2 PUSH2 0x1681 PUSH2 0x2E2 SWAP4 PUSH1 0x40 DUP5 MSTORE PUSH1 0x40 DUP5 ADD SWAP1 PUSH2 0xC1F JUMP JUMPDEST SWAP2 PUSH1 0x20 DUP2 DUP5 SUB SWAP2 ADD MSTORE PUSH2 0xC1F JUMP JUMPDEST SWAP4 SWAP2 SWAP3 SWAP1 PUSH1 0x40 MLOAD SWAP5 PUSH2 0x16A0 DUP7 PUSH2 0x245 JUMP JUMPDEST PUSH1 0x1 DUP1 PUSH1 0xA0 SHL SUB SWAP4 DUP5 DUP3 AND SWAP5 DUP6 DUP9 MSTORE PUSH1 0x20 SWAP8 DUP9 DUP2 ADD DUP6 DUP2 MSTORE PUSH1 0x40 DUP3 ADD DUP10 DUP2 MSTORE PUSH1 0x60 DUP4 ADD SWAP1 DUP9 DUP3 MSTORE PUSH1 0x80 DUP5 ADD SWAP3 TIMESTAMP DUP5 MSTORE DUP6 PUSH1 0xA0 DUP7 ADD SWAP8 AND SWAP13 DUP14 DUP9 MSTORE PUSH1 0xC0 DUP7 ADD SWAP7 PUSH2 0x1724 PUSH1 0x1 SWAP2 DUP3 DUP11 MSTORE PUSH2 0x1704 DUP13 PUSH1 0x1 DUP1 PUSH1 0xA0 SHL SUB AND PUSH1 0x0 MSTORE PUSH1 0x3 PUSH1 0x20 MSTORE PUSH1 0x40 PUSH1 0x0 KECCAK256 SWAP1 JUMP JUMPDEST SWAP9 MLOAD DUP10 SLOAD SWAP2 AND PUSH1 0x1 PUSH1 0x1 PUSH1 0xA0 SHL SUB AND PUSH1 0x1 PUSH1 0x1 PUSH1 0xA0 SHL SUB NOT SWAP1 SWAP2 AND OR DUP9 SSTORE JUMP JUMPDEST DUP1 DUP8 ADD SWAP3 MLOAD SWAP2 DUP3 MLOAD SWAP3 PUSH1 0x1 PUSH1 0x1 PUSH1 0x40 SHL SUB DUP5 GT PUSH2 0x22F JUMPI PUSH2 0x174F DUP5 PUSH2 0x1749 DUP8 SLOAD PUSH2 0xB3F JUMP JUMPDEST DUP8 PUSH2 0x1489 JUMP JUMPDEST DUP2 PUSH1 0x1F DUP6 GT PUSH1 0x1 EQ PUSH2 0x1866 JUMPI POP SWAP8 PUSH2 0x182A SWAP8 PUSH2 0x17D7 PUSH32 0xC762CB6BECBE2B4AE74B5D4895BB3E8964CEAC656797680A6A319DE30F7DA980 SWAP16 SWAP15 SWAP13 SWAP9 PUSH2 0x17CD PUSH2 0x1846 SWAP16 SWAP13 SWAP10 PUSH2 0x1841 SWAP15 SWAP10 DUP10 DUP1 PUSH2 0x180A SWAP12 PUSH2 0x17EE SWAP12 PUSH2 0x1810 SWAP16 SWAP12 PUSH1 0x5 SWAP13 PUSH1 0x0 SWAP5 PUSH2 0x185B JUMPI JUMPDEST POP POP SHL SWAP2 PUSH1 0x0 NOT SWAP1 PUSH1 0x3 SHL SHR NOT AND OR SWAP1 SSTORE JUMPDEST MLOAD PUSH1 0x2 DUP7 ADD PUSH2 0x14DD JUMP JUMPDEST MLOAD PUSH1 0x3 DUP5 ADD PUSH2 0x14DD JUMP JUMPDEST MLOAD PUSH1 0x4 DUP3 ADD SSTORE SWAP6 MLOAD SWAP6 ADD SWAP5 PUSH1 0x1 PUSH1 0x1 PUSH1 0xA0 SHL SUB AND SWAP1 JUMP JUMPDEST DUP5 SLOAD PUSH1 0x1 PUSH1 0x1 PUSH1 0xA0 SHL SUB NOT AND PUSH1 0x1 PUSH1 0x1 PUSH1 0xA0 SHL SUB SWAP1 SWAP2 AND OR DUP5 SSTORE JUMP JUMPDEST MLOAD ISZERO ISZERO SWAP1 JUMP JUMPDEST DUP2 SLOAD PUSH1 0xFF PUSH1 0xA0 SHL NOT AND SWAP1 ISZERO ISZERO PUSH1 0xA0 SHL PUSH1 0xFF PUSH1 0xA0 SHL AND OR SWAP1 SSTORE JUMP JUMPDEST PUSH2 0x183C DUP2 PUSH2 0x1837 DUP6 PUSH2 0x31F JUMP JUMPDEST PUSH2 0x160F JUMP JUMPDEST PUSH2 0x15AB JUMP JUMPDEST PUSH2 0x164A JUMP JUMPDEST SWAP4 PUSH2 0x1856 PUSH1 0x40 MLOAD SWAP3 DUP4 SWAP3 DUP4 PUSH2 0x166A JUMP JUMPDEST SUB SWAP1 LOG4 JUMP JUMPDEST ADD MLOAD SWAP3 POP CODESIZE DUP1 PUSH2 0x17B1 JUMP JUMPDEST SWAP2 SWAP1 PUSH1 0x1F SWAP5 SWAP4 SWAP5 NOT DUP5 AND PUSH2 0x187F DUP8 PUSH1 0x0 MSTORE PUSH1 0x20 PUSH1 0x0 KECCAK256 SWAP1 JUMP JUMPDEST SWAP4 PUSH1 0x0 SWAP1 JUMPDEST DUP3 DUP3 LT PUSH2 0x1907 JUMPI POP POP PUSH32 0xC762CB6BECBE2B4AE74B5D4895BB3E8964CEAC656797680A6A319DE30F7DA980 SWAP16 SWAP15 SWAP13 SWAP9 PUSH2 0x17CD PUSH2 0x1846 SWAP16 SWAP13 SWAP5 SWAP10 PUSH2 0x1841 SWAP15 SWAP10 PUSH2 0x180A SWAP10 DUP10 PUSH2 0x182A SWAP16 SWAP8 SWAP10 PUSH2 0x1810 SWAP15 PUSH1 0x5 SWAP12 PUSH2 0x17EE SWAP14 PUSH2 0x17D7 SWAP11 LT PUSH2 0x18EE JUMPI JUMPDEST POP POP POP DUP2 SHL ADD SWAP1 SSTORE PUSH2 0x17C3 JUMP JUMPDEST ADD MLOAD PUSH1 0x0 NOT PUSH1 0xF8 DUP5 PUSH1 0x3 SHL AND SHR NOT AND SWAP1 SSTORE CODESIZE DUP1 DUP1 PUSH2 0x18E1 JUMP JUMPDEST DUP1 DUP9 DUP7 SWAP8 DUP3 SWAP5 SWAP8 DUP8 ADD MLOAD DUP2 SSTORE ADD SWAP7 ADD SWAP5 ADD SWAP1 PUSH2 0x1884 JUMP JUMPDEST ISZERO PUSH2 0x1925 JUMPI JUMP JUMPDEST PUSH1 0x40 MLOAD PUSH3 0x461BCD PUSH1 0xE5 SHL DUP2 MSTORE PUSH1 0x20 PUSH1 0x4 DUP3 ADD MSTORE PUSH1 0x12 PUSH1 0x24 DUP3 ADD MSTORE PUSH18 0x10DBDB9D1C9858DD081B9BDD08199BDD5B99 PUSH1 0x72 SHL PUSH1 0x44 DUP3 ADD MSTORE PUSH1 0x64 SWAP1 REVERT JUMPDEST SWAP1 PUSH1 0x40 MLOAD SWAP2 DUP3 DUP2 SLOAD SWAP2 DUP3 DUP3 MSTORE PUSH1 0x20 SWAP3 DUP4 DUP4 ADD SWAP2 PUSH1 0x0 MSTORE DUP4 PUSH1 0x0 KECCAK256 SWAP4 PUSH1 0x0 SWAP1 JUMPDEST DUP3 DUP3 LT PUSH2 0x1994 JUMPI POP POP POP PUSH2 0xBB7 SWAP3 POP SUB DUP4 PUSH2 0x260 JUMP JUMPDEST DUP6 SLOAD PUSH1 0x1 PUSH1 0x1 PUSH1 0xA0 SHL SUB AND DUP5 MSTORE PUSH1 0x1 SWAP6 DUP7 ADD SWAP6 DUP9 SWAP6 POP SWAP4 DUP2 ADD SWAP4 SWAP1 SWAP2 ADD SWAP1 PUSH2 0x197E JUMP JUMPDEST PUSH1 0x0 NOT DUP2 EQ PUSH2 0x12E6 JUMPI PUSH1 0x1 ADD SWAP1 JUMP JUMPDEST DUP1 MLOAD DUP3 LT ISZERO PUSH2 0x373 JUMPI PUSH1 0x20 SWAP2 PUSH1 0x5 SHL ADD ADD SWAP1 JUMP JUMPDEST PUSH1 0x1 PUSH1 0x1 PUSH1 0x40 SHL SUB DUP2 GT PUSH2 0x22F JUMPI PUSH1 0x5 SHL PUSH1 0x20 ADD SWAP1 JUMP JUMPDEST SWAP1 PUSH2 0x19FB DUP3 PUSH2 0x19DA JUMP JUMPDEST PUSH2 0x1A08 PUSH1 0x40 MLOAD SWAP2 DUP3 PUSH2 0x260 JUMP JUMPDEST DUP3 DUP2 MSTORE DUP1 SWAP3 PUSH2 0x1A19 PUSH1 0x1F NOT SWAP2 PUSH2 0x19DA JUMP JUMPDEST ADD SWAP1 PUSH1 0x20 CALLDATASIZE SWAP2 ADD CALLDATACOPY JUMP JUMPDEST SWAP1 PUSH1 0x40 MLOAD PUSH2 0x1A30 DUP2 PUSH2 0x245 JUMP JUMPDEST PUSH1 0xC0 PUSH1 0xFF DUP3 SWAP5 PUSH1 0x5 PUSH1 0x1 DUP1 PUSH1 0xA0 SHL SUB SWAP2 DUP3 DUP2 SLOAD AND DUP7 MSTORE PUSH2 0x1A52 PUSH1 0x1 DUP3 ADD PUSH2 0xB79 JUMP JUMPDEST PUSH1 0x20 DUP8 ADD MSTORE PUSH2 0x1A63 PUSH1 0x2 DUP3 ADD PUSH2 0xB79 JUMP JUMPDEST PUSH1 0x40 DUP8 ADD MSTORE PUSH2 0x1A74 PUSH1 0x3 DUP3 ADD PUSH2 0xB79 JUMP JUMPDEST PUSH1 0x60 DUP8 ADD MSTORE PUSH1 0x4 DUP2 ADD SLOAD PUSH1 0x80 DUP8 ADD MSTORE ADD SLOAD SWAP1 DUP2 AND PUSH1 0xA0 DUP6 ADD MSTORE PUSH1 0xA0 SHR AND ISZERO ISZERO SWAP2 ADD MSTORE JUMP INVALID LOG2 PUSH5 0x6970667358 0x22 SLT KECCAK256 0x25 0xF9 SWAP6 0xD 0xDA PUSH5 0xEB539831A9 0x49 0x2A 0xAE DUP13 PUSH2 0x5B04 PUSH32 0xC9FD4FC1F3AAD94D9FEE459BEF64736F6C634300081400332F8788117E7EFF1D DUP3 0xE9 0x26 0xEC PUSH26 0x4901D17C78024A50270940304540A733656F0D00000000000000 "},"methodIdentifiers":{"DEFAULT_ADMIN_ROLE()":"a217fddf","DEPLOYER_ROLE()":"ecd00261","allContracts(uint256)":"e54e26b9","assetTypeContracts(string,uint256)":"123aa2fd","deployContract(bytes,bytes32,string,string,string)":"974e85f8","deployedContracts(address)":"c70242ad","getActiveContractsByAssetType(string)":"4eb7a512","getAllContracts()":"18d3ce96","getContractInfo(address)":"cd481e51","getContractsByAssetType(string)":"8a893df8","getRoleAdmin(bytes32)":"248a9ca3","getTotalContracts()":"534860cc","getTotalContractsByAssetType(string)":"15304499","grantRole(bytes32,address)":"2f2ff15d","hasRole(bytes32,address)":"91d14854","predictAddress(bytes32,bytes32)":"10a93528","registerContract(address,string,string,string)":"536eafbb","renounceRole(bytes32,address)":"36568abe","revokeRole(bytes32,address)":"d547741f","setContractStatus(address,bool)":"81c81cdc","supportsInterface(bytes4)":"01ffc9a7"}},"storageLayout":{"storage":[{"astId":24,"contract":"contracts/AssetTokenFactory.sol:AssetTokenFactory","label":"_roles","offset":0,"slot":"0","type":"t_mapping(t_bytes32,t_struct(RoleData)19_storage)"},{"astId":399,"contract":"contracts/AssetTokenFactory.sol:AssetTokenFactory","label":"_status","offset":0,"slot":"1","type":"t_uint256"},{"astId":1745,"contract":"contracts/AssetTokenFactory.sol:AssetTokenFactory","label":"assetTypeContracts","offset":0,"slot":"2","type":"t_mapping(t_string_memory_ptr,t_array(t_address)dyn_storage)"},{"astId":1750,"contract":"contracts/AssetTokenFactory.sol:AssetTokenFactory","label":"deployedContracts","offset":0,"slot":"3","type":"t_mapping(t_address,t_struct(DeployedContract)1740_storage)"},{"astId":1753,"contract":"contracts/AssetTokenFactory.sol:AssetTokenFactory","label":"allContracts","offset":0,"slot":"4","type":"t_array(t_address)dyn_storage"}],"types":{"t_address":{"encoding":"inplace","label":"address","numberOfBytes":"20"},"t_array(t_address)dyn_storage":{"base":"t_address","encoding":"dynamic_array","label":"address[]","numberOfBytes":"32"},"t_bool":{"encoding":"inplace","label":"bool","numberOfBytes":"1"},"t_bytes32":{"encoding":"inplace","label":"bytes32","numberOfBytes":"32"},"t_mapping(t_address,t_bool)":{"encoding":"mapping","key":"t_address","label":"mapping(address => bool)","numberOfBytes":"32","value":"t_bool"},"t_mapping(t_address,t_struct(DeployedContract)1740_storage)":{"encoding":"mapping","key":"t_address","label":"mapping(address => struct AssetTokenFactory.DeployedContract)","numberOfBytes":"32","value":"t_struct(DeployedContract)1740_storage"},"t_mapping(t_bytes32,t_struct(RoleData)19_storage)":{"encoding":"mapping","key":"t_bytes32","label":"mapping(bytes32 => struct AccessControl.RoleData)","numberOfBytes":"32","value":"t_struct(RoleData)19_storage"},"t_mapping(t_string_memory_ptr,t_array(t_address)dyn_storage)":{"encoding":"mapping","key":"t_string_memory_ptr","label":"mapping(string => address[])","numberOfBytes":"32","value":"t_array(t_address)dyn_storage"},"t_string_memory_ptr":{"encoding":"bytes","label":"string","numberOfBytes":"32"},"t_string_storage":{"encoding":"bytes","label":"string","numberOfBytes":"32"},"t_struct(DeployedContract)1740_storage":{"encoding":"inplace","label":"struct AssetTokenFactory.DeployedContract","members":[{"astId":1727,"contract":"contracts/AssetTokenFactory.sol:AssetTokenFactory","label":"contractAddress","offset":0,"slot":"0","type":"t_address"},{"astId":1729,"contract":"contracts/AssetTokenFactory.sol:AssetTokenFactory","label":"assetType","offset":0,"slot":"1","type":"t_string_storage"},{"astId":1731,"contract":"contracts/AssetTokenFactory.sol:AssetTokenFactory","label":"name","offset":0,"slot":"2","type":"t_string_storage"},{"astId":1733,"contract":"contracts/AssetTokenFactory.sol:AssetTokenFactory","label":"symbol","offset":0,"slot":"3","type":"t_string_storage"},{"astId":1735,"contract":"contracts/AssetTokenFactory.sol:AssetTokenFactory","label":"deployedAt","offset":0,"slot":"4","type":"t_uint256"},{"astId":1737,"contract":"contracts/AssetTokenFactory.sol:AssetTokenFactory","label":"deployer","offset":0,"slot":"5","type":"t_address"},{"astId":1739,"contract":"contracts/AssetTokenFactory.sol:AssetTokenFactory","label":"isActive","offset":20,"slot":"5","type":"t_bool"}],"numberOfBytes":"192"},"t_struct(RoleData)19_storage":{"encoding":"inplace","label":"struct AccessControl.RoleData","members":[{"astId":16,"contract":"contracts/AssetTokenFactory.sol:AssetTokenFactory","label":"members","offset":0,"slot":"0","type":"t_mapping(t_address,t_bool)"},{"astId":18,"contract":"contracts/AssetTokenFactory.sol:AssetTokenFactory","label":"adminRole","offset":0,"slot":"1","type":"t_bytes32"}],"numberOfBytes":"64"},"t_uint256":{"encoding":"inplace","label":"uint256","numberOfBytes":"32"}}}}}}