{
  "_format": "hh-sol-artifact-1",
  "contractName": "AssetTokenFactory",
  "sourceName": "contracts/AssetTokenFactory.sol",
  "abi": [
    {
      "inputs": [
        {
          "internalType": "address",
          "name": "admin",
          "type": "address"
        }
      ],
      "stateMutability": "nonpayable",
      "type": "constructor"
    },
    {
      "anonymous": false,
      "inputs": [
        {
          "indexed": true,
          "internalType": "address",
          "name": "contractAddress",
          "type": "address"
        },
        {
          "indexed": true,
          "internalType": "string",
          "name": "assetType",
          "type": "string"
        },
        {
          "indexed": false,
          "internalType": "string",
          "name": "name",
          "type": "string"
        },
        {
          "indexed": false,
          "internalType": "string",
          "name": "symbol",
          "type": "string"
        },
        {
          "indexed": true,
          "internalType": "address",
          "name": "deployer",
          "type": "address"
        }
      ],
      "name": "ContractDeployed",
      "type": "event"
    },
    {
      "anonymous": false,
      "inputs": [
        {
          "indexed": true,
          "internalType": "address",
          "name": "contractAddress",
          "type": "address"
        },
        {
          "indexed": false,
          "internalType": "bool",
          "name": "isActive",
          "type": "bool"
        }
      ],
      "name": "ContractStatusChanged",
      "type": "event"
    },
    {
      "anonymous": false,
      "inputs": [
        {
          "indexed": true,
          "internalType": "bytes32",
          "name": "role",
          "type": "bytes32"
        },
        {
          "indexed": true,
          "internalType": "bytes32",
          "name": "previousAdminRole",
          "type": "bytes32"
        },
        {
          "indexed": true,
          "internalType": "bytes32",
          "name": "newAdminRole",
          "type": "bytes32"
        }
      ],
      "name": "RoleAdminChanged",
      "type": "event"
    },
    {
      "anonymous": false,
      "inputs": [
        {
          "indexed": true,
          "internalType": "bytes32",
          "name": "role",
          "type": "bytes32"
        },
        {
          "indexed": true,
          "internalType": "address",
          "name": "account",
          "type": "address"
        },
        {
          "indexed": true,
          "internalType": "address",
          "name": "sender",
          "type": "address"
        }
      ],
      "name": "RoleGranted",
      "type": "event"
    },
    {
      "anonymous": false,
      "inputs": [
        {
          "indexed": true,
          "internalType": "bytes32",
          "name": "role",
          "type": "bytes32"
        },
        {
          "indexed": true,
          "internalType": "address",
          "name": "account",
          "type": "address"
        },
        {
          "indexed": true,
          "internalType": "address",
          "name": "sender",
          "type": "address"
        }
      ],
      "name": "RoleRevoked",
      "type": "event"
    },
    {
      "inputs": [],
      "name": "DEFAULT_ADMIN_ROLE",
      "outputs": [
        {
          "internalType": "bytes32",
          "name": "",
          "type": "bytes32"
        }
      ],
      "stateMutability": "view",
      "type": "function"
    },
    {
      "inputs": [],
      "name": "DEPLOYER_ROLE",
      "outputs": [
        {
          "internalType": "bytes32",
          "name": "",
          "type": "bytes32"
        }
      ],
      "stateMutability": "view",
      "type": "function"
    },
    {
      "inputs": [
        {
          "internalType": "uint256",
          "name": "",
          "type": "uint256"
        }
      ],
      "name": "allContracts",
      "outputs": [
        {
          "internalType": "address",
          "name": "",
          "type": "address"
        }
      ],
      "stateMutability": "view",
      "type": "function"
    },
    {
      "inputs": [
        {
          "internalType": "string",
          "name": "",
          "type": "string"
        },
        {
          "internalType": "uint256",
          "name": "",
          "type": "uint256"
        }
      ],
      "name": "assetTypeContracts",
      "outputs": [
        {
          "internalType": "address",
          "name": "",
          "type": "address"
        }
      ],
      "stateMutability": "view",
      "type": "function"
    },
    {
      "inputs": [
        {
          "internalType": "bytes",
          "name": "bytecode",
          "type": "bytes"
        },
        {
          "internalType": "bytes32",
          "name": "salt",
          "type": "bytes32"
        },
        {
          "internalType": "string",
          "name": "assetType",
          "type": "string"
        },
        {
          "internalType": "string",
          "name": "name",
          "type": "string"
        },
        {
          "internalType": "string",
          "name": "symbol",
          "type": "string"
        }
      ],
      "name": "deployContract",
      "outputs": [
        {
          "internalType": "address",
          "name": "",
          "type": "address"
        }
      ],
      "stateMutability": "nonpayable",
      "type": "function"
    },
    {
      "inputs": [
        {
          "internalType": "address",
          "name": "",
          "type": "address"
        }
      ],
      "name": "deployedContracts",
      "outputs": [
        {
          "internalType": "address",
          "name": "contractAddress",
          "type": "address"
        },
        {
          "internalType": "string",
          "name": "assetType",
          "type": "string"
        },
        {
          "internalType": "string",
          "name": "name",
          "type": "string"
        },
        {
          "internalType": "string",
          "name": "symbol",
          "type": "string"
        },
        {
          "internalType": "uint256",
          "name": "deployedAt",
          "type": "uint256"
        },
        {
          "internalType": "address",
          "name": "deployer",
          "type": "address"
        },
        {
          "internalType": "bool",
          "name": "isActive",
          "type": "bool"
        }
      ],
      "stateMutability": "view",
      "type": "function"
    },
    {
      "inputs": [
        {
          "internalType": "string",
          "name": "assetType",
          "type": "string"
        }
      ],
      "name": "getActiveContractsByAssetType",
      "outputs": [
        {
          "internalType": "address[]",
          "name": "",
          "type": "address[]"
        }
      ],
      "stateMutability": "view",
      "type": "function"
    },
    {
      "inputs": [],
      "name": "getAllContracts",
      "outputs": [
        {
          "internalType": "address[]",
          "name": "",
          "type": "address[]"
        }
      ],
      "stateMutability": "view",
      "type": "function"
    },
    {
      "inputs": [
        {
          "internalType": "address",
          "name": "contractAddress",
          "type": "address"
        }
      ],
      "name": "getContractInfo",
      "outputs": [
        {
          "components": [
            {
              "internalType": "address",
              "name": "contractAddress",
              "type": "address"
            },
            {
              "internalType": "string",
              "name": "assetType",
              "type": "string"
            },
            {
              "internalType": "string",
              "name": "name",
              "type": "string"
            },
            {
              "internalType": "string",
              "name": "symbol",
              "type": "string"
            },
            {
              "internalType": "uint256",
              "name": "deployedAt",
              "type": "uint256"
            },
            {
              "internalType": "address",
              "name": "deployer",
              "type": "address"
            },
            {
              "internalType": "bool",
              "name": "isActive",
              "type": "bool"
            }
          ],
          "internalType": "struct AssetTokenFactory.DeployedContract",
          "name": "",
          "type": "tuple"
        }
      ],
      "stateMutability": "view",
      "type": "function"
    },
    {
      "inputs": [
        {
          "internalType": "string",
          "name": "assetType",
          "type": "string"
        }
      ],
      "name": "getContractsByAssetType",
      "outputs": [
        {
          "internalType": "address[]",
          "name": "",
          "type": "address[]"
        }
      ],
      "stateMutability": "view",
      "type": "function"
    },
    {
      "inputs": [
        {
          "internalType": "bytes32",
          "name": "role",
          "type": "bytes32"
        }
      ],
      "name": "getRoleAdmin",
      "outputs": [
        {
          "internalType": "bytes32",
          "name": "",
          "type": "bytes32"
        }
      ],
      "stateMutability": "view",
      "type": "function"
    },
    {
      "inputs": [],
      "name": "getTotalContracts",
      "outputs": [
        {
          "internalType": "uint256",
          "name": "",
          "type": "uint256"
        }
      ],
      "stateMutability": "view",
      "type": "function"
    },
    {
      "inputs": [
        {
          "internalType": "string",
          "name": "assetType",
          "type": "string"
        }
      ],
      "name": "getTotalContractsByAssetType",
      "outputs": [
        {
          "internalType": "uint256",
          "name": "",
          "type": "uint256"
        }
      ],
      "stateMutability": "view",
      "type": "function"
    },
    {
      "inputs": [
        {
          "internalType": "bytes32",
          "name": "role",
          "type": "bytes32"
        },
        {
          "internalType": "address",
          "name": "account",
          "type": "address"
        }
      ],
      "name": "grantRole",
      "outputs": [],
      "stateMutability": "nonpayable",
      "type": "function"
    },
    {
      "inputs": [
        {
          "internalType": "bytes32",
          "name": "role",
          "type": "bytes32"
        },
        {
          "internalType": "address",
          "name": "account",
          "type": "address"
        }
      ],
      "name": "hasRole",
      "outputs": [
        {
          "internalType": "bool",
          "name": "",
          "type": "bool"
        }
      ],
      "stateMutability": "view",
      "type": "function"
    },
    {
      "inputs": [
        {
          "internalType": "bytes32",
          "name": "salt",
          "type": "bytes32"
        },
        {
          "internalType": "bytes32",
          "name": "bytecodeHash",
          "type": "bytes32"
        }
      ],
      "name": "predictAddress",
      "outputs": [
        {
          "internalType": "address",
          "name": "",
          "type": "address"
        }
      ],
      "stateMutability": "view",
      "type": "function"
    },
    {
      "inputs": [
        {
          "internalType": "address",
          "name": "contractAddress",
          "type": "address"
        },
        {
          "internalType": "string",
          "name": "assetType",
          "type": "string"
        },
        {
          "internalType": "string",
          "name": "name",
          "type": "string"
        },
        {
          "internalType": "string",
          "name": "symbol",
          "type": "string"
        }
      ],
      "name": "registerContract",
      "outputs": [],
      "stateMutability": "nonpayable",
      "type": "function"
    },
    {
      "inputs": [
        {
          "internalType": "bytes32",
          "name": "role",
          "type": "bytes32"
        },
        {
          "internalType": "address",
          "name": "account",
          "type": "address"
        }
      ],
      "name": "renounceRole",
      "outputs": [],
      "stateMutability": "nonpayable",
      "type": "function"
    },
    {
      "inputs": [
        {
          "internalType": "bytes32",
          "name": "role",
          "type": "bytes32"
        },
        {
          "internalType": "address",
          "name": "account",
          "type": "address"
        }
      ],
      "name": "revokeRole",
      "outputs": [],
      "stateMutability": "nonpayable",
      "type": "function"
    },
    {
      "inputs": [
        {
          "internalType": "address",
          "name": "contractAddress",
          "type": "address"
        },
        {
          "internalType": "bool",
          "name": "isActive",
          "type": "bool"
        }
      ],
      "name": "setContractStatus",
      "outputs": [],
      "stateMutability": "nonpayable",
      "type": "function"
    },
    {
      "inputs": [
        {
          "internalType": "bytes4",
          "name": "interfaceId",
          "type": "bytes4"
        }
      ],
      "name": "supportsInterface",
      "outputs": [
        {
          "internalType": "bool",
          "name": "",
          "type": "bool"
        }
      ],
      "stateMutability": "view",
      "type": "function"
    }
  ],
  "bytecode": "0x6080346200018757601f62001c9138819003918201601f1916830192916001600160401b038411838510176200018c57808392604095865283396020928391810103126200018757516001600160a01b0381169081900362000187576001805580156200014457600091828052828152838320828452815260ff8484205416156200010c575b7ffc425f2263d0df187444b70e47283d622c70181c5baebb1306a01edba1ce184c90818452838152848420838552815260ff858520541615620000d2575b8451611ace9081620001a38239f35b8184528381528484209083855252838320600160ff1982541617905560008051602062001c71833981519152339380a438808080620000c3565b8280528281528383208284528152838320805460ff1916600117905533828460008051602062001c718339815191528180a462000085565b50606491519062461bcd60e51b82526004820152601560248201527f496e76616c69642061646d696e206164647265737300000000000000000000006044820152fd5b600080fd5b634e487b7160e01b600052604160045260246000fdfe6080604052600436101561001257600080fd5b60003560e01c806301ffc9a71461016757806310a9352814610162578063123aa2fd1461015d578063153044991461015857806318d3ce9614610153578063248a9ca31461014e5780632f2ff15d1461014957806336568abe146101445780634eb7a5121461013f578063534860cc1461013a578063536eafbb1461013557806381c81cdc146101305780638a893df81461012b57806391d1485414610126578063974e85f814610121578063a217fddf1461011c578063c70242ad14610117578063cd481e5114610112578063d547741f1461010d578063e54e26b9146101085763ecd002611461010357600080fd5b610eb6565b610e5b565b610e1c565b610d90565b610c44565b610b23565b610a6c565b610a1a565b6109b7565b610908565b6107f7565b6107d9565b6106b8565b610624565b610560565b610505565b610471565b61040c565b610378565b6101c2565b346101bd5760203660031901126101bd5760043563ffffffff60e01b81168091036101bd57602090637965db0b60e01b81149081156101ac575b506040519015158152f35b6301ffc9a760e01b149050386101a1565b600080fd5b346101bd5760403660031901126101bd57604051602081019060ff60f81b82523060601b6021820152600435603582015260243560558201526055815260808101908082106001600160401b0383111761022f576040829052519091206001600160a01b03168152602090f35b634e487b7160e01b600052604160045260246000fd5b60e081019081106001600160401b0382111761022f57604052565b90601f801991011681019081106001600160401b0382111761022f57604052565b9291926001600160401b03821161022f57604051916102aa601f8201601f191660200184610260565b8294818452818301116101bd578281602093846000960137010152565b9080601f830112156101bd578160206102e293359101610281565b90565b60005b8381106102f85750506000910152565b81810151838201526020016102e8565b9061031b602092828151948592016102e5565b0190565b60206103389181604051938285809451938492016102e5565b8101600281520301902090565b634e487b7160e01b600052603260045260246000fd5b80548210156103735760005260206000200190600090565b610345565b346101bd5760403660031901126101bd576004356001600160401b0381116101bd576103a89036906004016102c7565b6103b46024359161031f565b80548210156101bd576020916103c99161035b565b905460405160039290921b1c6001600160a01b03168152f35b60206003198201126101bd57600435906001600160401b0382116101bd576102e2916004016102c7565b346101bd57602061042461041f366103e2565b61031f565b54604051908152f35b6020908160408183019282815285518094520193019160005b828110610454575050505090565b83516001600160a01b031685529381019392810192600101610446565b346101bd5760003660031901126101bd57604051806004549182815260208091019260046000527f8a35acfbc15ff81a39ae7d344fd709f28e8600b4aa8c65c6b64bfe7fe36bd19b916000905b8282106104e5576104e1856104d581890382610260565b6040519182918261042d565b0390f35b83546001600160a01b0316865294850194600193840193909101906104be565b346101bd5760203660031901126101bd5760043560005260006020526020600160406000200154604051908152f35b602435906001600160a01b03821682036101bd57565b600435906001600160a01b03821682036101bd57565b346101bd5760403660031901126101bd5760043561057c610534565b600091808352826020526105966001604085200154611128565b808352602083815260408085206001600160a01b0385166000908152925290205460ff16156105c3578280f35b808352602083815260408085206001600160a01b038516600090815292529020805460ff1916600117905533916001600160a01b0316907f2f8788117e7eff1d82e926ec794901d17c78024a50270940304540a733656f0d8480a438808280f35b346101bd5760403660031901126101bd5761063d610534565b336001600160a01b0382160361065b57610659906004356111e0565b005b60405162461bcd60e51b815260206004820152602f60248201527f416363657373436f6e74726f6c3a2063616e206f6e6c792072656e6f756e636560448201526e103937b632b9903337b91039b2b63360891b6064820152608490fd5b346101bd576106d16106cc61041f366103e2565b61195f565b6000805b825181101561074d57610725600561071a6107006106f385886119c6565b516001600160a01b031690565b6001600160a01b0316600090815260036020526040902090565b015460a01c60ff1690565b610738575b610733906119b7565b6106d5565b90610745610733916119b7565b91905061072a565b50610757906119f1565b906000805b82518110156107cb5761077a600561071a6107006106f385886119c6565b61078d575b610788906119b7565b61075c565b906107c3610788916107be6107a56106f386886119c6565b6107af83896119c6565b6001600160a01b039091169052565b6119b7565b91905061077f565b604051806104e1868261042d565b346101bd5760003660031901126101bd576020600454604051908152f35b346101bd5760803660031901126101bd5761081061054a565b6001600160401b03906024358281116101bd576108319036906004016102c7565b916044358181116101bd5761084a9036906004016102c7565b906064359081116101bd576108639036906004016102c7565b9061086c611048565b6001600160a01b038316156108c357823b1561088d5761065993339361168f565b60405162461bcd60e51b815260206004820152600e60248201526d139bdd08184818dbdb9d1c9858dd60921b6044820152606490fd5b60405162461bcd60e51b815260206004820152601860248201527f496e76616c696420636f6e7472616374206164647265737300000000000000006044820152606490fd5b346101bd5760403660031901126101bd5761092161054a565b6024358015158082036101bd5760207fd1cd265923267e7363c8fd778538639a7688684e9bb228979fd0177f0cbb23ad9161095a610ef1565b6109ad60018060a01b038096169461098260009787895260038652604089205416151561191e565b8587526003845260408720600501805460ff60a01b191691151560a01b60ff60a01b16919091179055565b604051908152a280f35b346101bd576109c861041f366103e2565b60405180825480825260208092019360005281600020916000905b8282106109fa576104e1856104d581890382610260565b83546001600160a01b0316865294850194600193840193909101906109e3565b346101bd5760403660031901126101bd57602060ff610a60610a3a610534565b6004356000526000845260406000209060018060a01b0316600052602052604060002090565b54166040519015158152f35b346101bd5760a03660031901126101bd576001600160401b036004358181116101bd57366023820112156101bd57610aae903690602481600401359101610281565b906044358181116101bd57610ac79036906004016102c7565b916064358281116101bd57610ae09036906004016102c7565b6084359283116101bd576104e193610aff610b099436906004016102c7565b92602435906113c6565b6040516001600160a01b0390911681529081906020820190565b346101bd5760003660031901126101bd57602060405160008152f35b90600182811c92168015610b6f575b6020831014610b5957565b634e487b7160e01b600052602260045260246000fd5b91607f1691610b4e565b9060405191826000825492610b8d84610b3f565b908184526001948581169081600014610bfc5750600114610bb9575b5050610bb792500383610260565b565b9093915060005260209081600020936000915b818310610be4575050610bb793508201013880610ba9565b85548884018501529485019487945091830191610bcc565b915050610bb794506020925060ff191682840152151560051b8201013880610ba9565b90602091610c38815180928185528580860191016102e5565b601f01601f1916010190565b346101bd5760203660031901126101bd576001600160a01b0380610c6661054a565b1660005260036020526040600020818154169060ff610c8760018301610b79565b93610c9460028401610b79565b90610cea610ca460038601610b79565b610cdc6005600488015497015494610cce6040519a8b9a8b5260e060208c015260e08b0190610c1f565b9089820360408b0152610c1f565b908782036060890152610c1f565b936080860152811660a085015260a01c16151560c08301520390f35b6102e2906020815260e060c060018060a01b0394858151166020850152610d70610d3f6020830151856040880152610100870190610c1f565b610d5b604084015191601f1992838983030160608a0152610c1f565b90606084015190878303016080880152610c1f565b95608082015160a086015260a08201511682850152015191019015159052565b346101bd5760203660031901126101bd576104e1610e10610e0b610db261054a565b61070060c0604051610dc381610245565b600091818380935260606020820152606060408201526060808201528260808201528260a08201520152604060018060a01b039182851681526003602052205416151561191e565b611a23565b60405191829182610d06565b346101bd5760403660031901126101bd57610659600435610e3b610534565b90806000526000602052610e56600160406000200154611128565b6111e0565b346101bd5760203660031901126101bd576004356004548110156101bd5760046000527f8a35acfbc15ff81a39ae7d344fd709f28e8600b4aa8c65c6b64bfe7fe36bd19b01546040516001600160a01b039091168152602090f35b346101bd5760003660031901126101bd5760206040517ffc425f2263d0df187444b70e47283d622c70181c5baebb1306a01edba1ce184c8152f35b3360009081527fad3228b676f7d3cd4284a5443f17f1962b36e491b30a40b2405849e597ba5fb5602052604090205460ff1615610f2a57565b610f3333611336565b600090610f3e611280565b916030610f4a846112ab565b536078610f56846112b8565b5360415b60018111611006576110026048610fea85610fdc88610f7988156112eb565b6040519485937f416363657373436f6e74726f6c3a206163636f756e74200000000000000000006020860152610fb98151809260206037890191016102e5565b84017001034b99036b4b9b9b4b733903937b6329607d1b60378201520190610308565b03601f198101835282610260565b60405162461bcd60e51b8152918291600483016111cf565b0390fd5b90600f811690601082101561037357611043916f181899199a1a9b1b9c1cb0b131b232b360811b901a61103984876112c8565b5360041c916112d9565b610f5a565b3360009081527f740c5e3e456bed56f053f960110118ba9b95a1f5359a82283516fb2e81b6e37e60205260409020547ffc425f2263d0df187444b70e47283d622c70181c5baebb1306a01edba1ce184c9060ff16156110a45750565b6110ad33611336565b6110b5611280565b9160306110c1846112ab565b5360786110cd846112b8565b5360415b600181116110f0576110026048610fea85610fdc88610f7988156112eb565b90600f811690601082101561037357611123916f181899199a1a9b1b9c1cb0b131b232b360811b901a61103984876112c8565b6110d1565b60008181526020818152604080832033845290915290205460ff161561114b5750565b61115433611336565b61115c611280565b916030611168846112ab565b536078611174846112b8565b5360415b60018111611197576110026048610fea85610fdc88610f7988156112eb565b90600f8116906010821015610373576111ca916f181899199a1a9b1b9c1cb0b131b232b360811b901a61103984876112c8565b611178565b9060206102e2928181520190610c1f565b6000818152602081815260408083206001600160a01b038616845290915281205490919060ff1661121057505050565b808252602082815260408084206001600160a01b038616600090815292529020805460ff1916905533926001600160a01b0316917ff6391f5c32d9c69d2a47ea670b442974b53935d1edc7fd64eb21e047a839171b9080a4565b634e487b7160e01b600052601160045260246000fd5b60405190608082018281106001600160401b0382111761022f57604052604282526060366020840137565b8051156103735760200190565b8051600110156103735760210190565b908151811015610373570160200190565b80156112e6576000190190565b61126a565b156112f257565b606460405162461bcd60e51b815260206004820152602060248201527f537472696e67733a20686578206c656e67746820696e73756666696369656e746044820152fd5b60405190606082018281106001600160401b0382111761022f57604052602a82526040366020840137603061136a836112ab565b536078611376836112b8565b536029905b6001821161138e576102e29150156112eb565b600f8116906010821015610373576113c0916f181899199a1a9b1b9c1cb0b131b232b360811b901a61103984866112c8565b9061137b565b6113ce611048565b6002600154146114445760026001556020815191016000f5926001600160a01b0384161561140b576114029233928561168f565b6102e260018055565b60405162461bcd60e51b815260206004820152601160248201527011195c1b1bde5b595b9d0819985a5b1959607a1b6044820152606490fd5b60405162461bcd60e51b815260206004820152601f60248201527f5265656e7472616e637947756172643a207265656e7472616e742063616c6c006044820152606490fd5b90601f811161149757505050565b600091825260208220906020601f850160051c830194106114d3575b601f0160051c01915b8281106114c857505050565b8181556001016114bc565b90925082906114b3565b91909182516001600160401b03811161022f57611504816114fe8454610b3f565b84611489565b602080601f8311600114611540575081929394600092611535575b50508160011b916000199060031b1c1916179055565b01519050388061151f565b90601f1983169561155685600052602060002090565b926000905b8882106115935750508360019596971061157a575b505050811b019055565b015160001960f88460031b161c19169055388080611570565b8060018596829496860151815501950193019061155b565b600454600160401b81101561022f5760018101806004558110156103735760046000527f8a35acfbc15ff81a39ae7d344fd709f28e8600b4aa8c65c6b64bfe7fe36bd19b0180546001600160a01b0319166001600160a01b03909216919091179055565b8054600160401b81101561022f5761162c9160018201815561035b565b819291549060031b9160018060a01b03809116831b921b1916179055565b611662906020604051928284809451938492016102e5565b810103902090565b90916116816102e293604084526040840190610c1f565b916020818403910152610c1f565b93919290604051946116a086610245565b60018060a01b03938482169485885260209788810185815260408201898152606083019088825260808401924284528560a0860197169c8d885260c0860196611724600191828a526117048c60018060a01b03166000526003602052604060002090565b9851895491166001600160a01b03166001600160a01b0319909116178855565b8087019251918251926001600160401b03841161022f5761174f846117498754610b3f565b87611489565b81601f851160011461186657509761182a976117d77fc762cb6becbe2b4ae74b5d4895bb3e8964ceac656797680a6a319de30f7da9809f9e9c986117cd6118469f9c996118419e99898061180a9b6117ee9b6118109f9b60059c60009461185b575b50501b916000199060031b1c19161790555b51600286016114dd565b51600384016114dd565b51600482015595519501946001600160a01b031690565b84546001600160a01b0319166001600160a01b03909116178455565b51151590565b815460ff60a01b191690151560a01b60ff60a01b16179055565b61183c816118378561031f565b61160f565b6115ab565b61164a565b936118566040519283928361166a565b0390a4565b0151925038806117b1565b9190601f94939419841661187f87600052602060002090565b936000905b8282106119075750507fc762cb6becbe2b4ae74b5d4895bb3e8964ceac656797680a6a319de30f7da9809f9e9c986117cd6118469f9c94996118419e9961180a998961182a9f97996118109e60059b6117ee9d6117d79a106118ee575b505050811b0190556117c3565b015160001960f88460031b161c191690553880806118e1565b808886978294978701518155019601940190611884565b1561192557565b60405162461bcd60e51b815260206004820152601260248201527110dbdb9d1c9858dd081b9bdd08199bdd5b9960721b6044820152606490fd5b9060405191828154918282526020928383019160005283600020936000905b82821061199457505050610bb792500383610260565b85546001600160a01b03168452600195860195889550938101939091019061197e565b60001981146112e65760010190565b80518210156103735760209160051b010190565b6001600160401b03811161022f5760051b60200190565b906119fb826119da565b611a086040519182610260565b8281528092611a19601f19916119da565b0190602036910137565b90604051611a3081610245565b60c060ff8294600560018060a01b0391828154168652611a5260018201610b79565b6020870152611a6360028201610b79565b6040870152611a7460038201610b79565b606087015260048101546080870152015490811660a085015260a01c16151591015256fea264697066735822122025f9950dda64eb539831a9492aae8c615b047fc9fd4fc1f3aad94d9fee459bef64736f6c634300081400332f8788117e7eff1d82e926ec794901d17c78024a50270940304540a733656f0d",
  "linkReferences": {},
  "deployedLinkReferences": {}
}