{
  "_format": "hh-sol-artifact-1",
  "contractName": "GoldToken",
  "sourceName": "contracts/GoldToken.sol",
  "abi": [
    {
      "inputs": [
        {
          "internalType": "address",
          "name": "admin",
          "type": "address"
        }
      ],
      "stateMutability": "nonpayable",
      "type": "constructor"
    },
    {
      "inputs": [
        {
          "internalType": "uint256",
          "name": "assetId",
          "type": "uint256"
        }
      ],
      "name": "AssetNotExists",
      "type": "error"
    },
    {
      "inputs": [
        {
          "internalType": "address",
          "name": "account",
          "type": "address"
        }
      ],
      "name": "BlacklistedAddress",
      "type": "error"
    },
    {
      "inputs": [
        {
          "internalType": "uint256",
          "name": "requested",
          "type": "uint256"
        },
        {
          "internalType": "uint256",
          "name": "maxSupply",
          "type": "uint256"
        }
      ],
      "name": "ExceedsMaxSupply",
      "type": "error"
    },
    {
      "inputs": [
        {
          "internalType": "uint256",
          "name": "requested",
          "type": "uint256"
        },
        {
          "internalType": "uint256",
          "name": "available",
          "type": "uint256"
        }
      ],
      "name": "InsufficientAllowance",
      "type": "error"
    },
    {
      "inputs": [
        {
          "internalType": "uint256",
          "name": "value",
          "type": "uint256"
        }
      ],
      "name": "InvalidAppraisalValue",
      "type": "error"
    },
    {
      "inputs": [],
      "name": "InvalidShortString",
      "type": "error"
    },
    {
      "inputs": [
        {
          "internalType": "string",
          "name": "str",
          "type": "string"
        }
      ],
      "name": "StringTooLong",
      "type": "error"
    },
    {
      "inputs": [
        {
          "internalType": "address",
          "name": "from",
          "type": "address"
        },
        {
          "internalType": "address",
          "name": "to",
          "type": "address"
        }
      ],
      "name": "UnauthorizedTransfer",
      "type": "error"
    },
    {
      "anonymous": false,
      "inputs": [
        {
          "indexed": true,
          "internalType": "address",
          "name": "owner",
          "type": "address"
        },
        {
          "indexed": true,
          "internalType": "address",
          "name": "spender",
          "type": "address"
        },
        {
          "indexed": false,
          "internalType": "uint256",
          "name": "value",
          "type": "uint256"
        }
      ],
      "name": "Approval",
      "type": "event"
    },
    {
      "anonymous": false,
      "inputs": [
        {
          "indexed": true,
          "internalType": "uint256",
          "name": "assetId",
          "type": "uint256"
        },
        {
          "indexed": false,
          "internalType": "string",
          "name": "field",
          "type": "string"
        },
        {
          "indexed": false,
          "internalType": "string",
          "name": "newValue",
          "type": "string"
        }
      ],
      "name": "AssetMetadataUpdated",
      "type": "event"
    },
    {
      "anonymous": false,
      "inputs": [
        {
          "indexed": true,
          "internalType": "uint256",
          "name": "assetId",
          "type": "uint256"
        },
        {
          "indexed": true,
          "internalType": "address",
          "name": "owner",
          "type": "address"
        },
        {
          "indexed": false,
          "internalType": "uint256",
          "name": "amount",
          "type": "uint256"
        },
        {
          "indexed": false,
          "internalType": "string",
          "name": "assetType",
          "type": "string"
        },
        {
          "indexed": false,
          "internalType": "uint256",
          "name": "appraisedValue",
          "type": "uint256"
        }
      ],
      "name": "AssetTokenized",
      "type": "event"
    },
    {
      "anonymous": false,
      "inputs": [
        {
          "indexed": true,
          "internalType": "address",
          "name": "account",
          "type": "address"
        },
        {
          "indexed": false,
          "internalType": "bool",
          "name": "blacklisted",
          "type": "bool"
        }
      ],
      "name": "ComplianceStatusChanged",
      "type": "event"
    },
    {
      "anonymous": false,
      "inputs": [],
      "name": "EIP712DomainChanged",
      "type": "event"
    },
    {
      "anonymous": false,
      "inputs": [
        {
          "indexed": true,
          "internalType": "uint256",
          "name": "assetId",
          "type": "uint256"
        },
        {
          "indexed": false,
          "internalType": "uint256",
          "name": "purity",
          "type": "uint256"
        },
        {
          "indexed": false,
          "internalType": "uint256",
          "name": "weight",
          "type": "uint256"
        },
        {
          "indexed": false,
          "internalType": "string",
          "name": "form",
          "type": "string"
        },
        {
          "indexed": false,
          "internalType": "string",
          "name": "mint",
          "type": "string"
        }
      ],
      "name": "GoldTokenized",
      "type": "event"
    },
    {
      "anonymous": false,
      "inputs": [
        {
          "indexed": false,
          "internalType": "address",
          "name": "account",
          "type": "address"
        }
      ],
      "name": "Paused",
      "type": "event"
    },
    {
      "anonymous": false,
      "inputs": [
        {
          "indexed": true,
          "internalType": "bytes32",
          "name": "role",
          "type": "bytes32"
        },
        {
          "indexed": true,
          "internalType": "bytes32",
          "name": "previousAdminRole",
          "type": "bytes32"
        },
        {
          "indexed": true,
          "internalType": "bytes32",
          "name": "newAdminRole",
          "type": "bytes32"
        }
      ],
      "name": "RoleAdminChanged",
      "type": "event"
    },
    {
      "anonymous": false,
      "inputs": [
        {
          "indexed": true,
          "internalType": "bytes32",
          "name": "role",
          "type": "bytes32"
        },
        {
          "indexed": true,
          "internalType": "address",
          "name": "account",
          "type": "address"
        },
        {
          "indexed": true,
          "internalType": "address",
          "name": "sender",
          "type": "address"
        }
      ],
      "name": "RoleGranted",
      "type": "event"
    },
    {
      "anonymous": false,
      "inputs": [
        {
          "indexed": true,
          "internalType": "bytes32",
          "name": "role",
          "type": "bytes32"
        },
        {
          "indexed": true,
          "internalType": "address",
          "name": "account",
          "type": "address"
        },
        {
          "indexed": true,
          "internalType": "address",
          "name": "sender",
          "type": "address"
        }
      ],
      "name": "RoleRevoked",
      "type": "event"
    },
    {
      "anonymous": false,
      "inputs": [
        {
          "indexed": false,
          "internalType": "uint256",
          "name": "oldCap",
          "type": "uint256"
        },
        {
          "indexed": false,
          "internalType": "uint256",
          "name": "newCap",
          "type": "uint256"
        }
      ],
      "name": "SupplyCapUpdated",
      "type": "event"
    },
    {
      "anonymous": false,
      "inputs": [
        {
          "indexed": true,
          "internalType": "address",
          "name": "from",
          "type": "address"
        },
        {
          "indexed": true,
          "internalType": "address",
          "name": "to",
          "type": "address"
        },
        {
          "indexed": false,
          "internalType": "uint256",
          "name": "value",
          "type": "uint256"
        }
      ],
      "name": "Transfer",
      "type": "event"
    },
    {
      "anonymous": false,
      "inputs": [
        {
          "indexed": false,
          "internalType": "address",
          "name": "account",
          "type": "address"
        }
      ],
      "name": "Unpaused",
      "type": "event"
    },
    {
      "inputs": [],
      "name": "COMPLIANCE_ROLE",
      "outputs": [
        {
          "internalType": "bytes32",
          "name": "",
          "type": "bytes32"
        }
      ],
      "stateMutability": "view",
      "type": "function"
    },
    {
      "inputs": [],
      "name": "DEFAULT_ADMIN_ROLE",
      "outputs": [
        {
          "internalType": "bytes32",
          "name": "",
          "type": "bytes32"
        }
      ],
      "stateMutability": "view",
      "type": "function"
    },
    {
      "inputs": [],
      "name": "DOMAIN_SEPARATOR",
      "outputs": [
        {
          "internalType": "bytes32",
          "name": "",
          "type": "bytes32"
        }
      ],
      "stateMutability": "view",
      "type": "function"
    },
    {
      "inputs": [],
      "name": "MINTER_ROLE",
      "outputs": [
        {
          "internalType": "bytes32",
          "name": "",
          "type": "bytes32"
        }
      ],
      "stateMutability": "view",
      "type": "function"
    },
    {
      "inputs": [],
      "name": "PAUSER_ROLE",
      "outputs": [
        {
          "internalType": "bytes32",
          "name": "",
          "type": "bytes32"
        }
      ],
      "stateMutability": "view",
      "type": "function"
    },
    {
      "inputs": [
        {
          "internalType": "address",
          "name": "owner",
          "type": "address"
        },
        {
          "internalType": "address",
          "name": "spender",
          "type": "address"
        }
      ],
      "name": "allowance",
      "outputs": [
        {
          "internalType": "uint256",
          "name": "",
          "type": "uint256"
        }
      ],
      "stateMutability": "view",
      "type": "function"
    },
    {
      "inputs": [
        {
          "internalType": "address",
          "name": "spender",
          "type": "address"
        },
        {
          "internalType": "uint256",
          "name": "amount",
          "type": "uint256"
        }
      ],
      "name": "approve",
      "outputs": [
        {
          "internalType": "bool",
          "name": "",
          "type": "bool"
        }
      ],
      "stateMutability": "nonpayable",
      "type": "function"
    },
    {
      "inputs": [
        {
          "internalType": "uint256",
          "name": "",
          "type": "uint256"
        }
      ],
      "name": "assets",
      "outputs": [
        {
          "internalType": "string",
          "name": "assetType",
          "type": "string"
        },
        {
          "internalType": "string",
          "name": "description",
          "type": "string"
        },
        {
          "internalType": "string",
          "name": "location",
          "type": "string"
        },
        {
          "internalType": "uint256",
          "name": "appraisedValue",
          "type": "uint256"
        },
        {
          "internalType": "uint256",
          "name": "appraisalDate",
          "type": "uint256"
        },
        {
          "internalType": "string",
          "name": "appraisalCompany",
          "type": "string"
        },
        {
          "internalType": "string",
          "name": "documentHash",
          "type": "string"
        },
        {
          "internalType": "bool",
          "name": "isVerified",
          "type": "bool"
        },
        {
          "internalType": "uint256",
          "name": "createdAt",
          "type": "uint256"
        }
      ],
      "stateMutability": "view",
      "type": "function"
    },
    {
      "inputs": [
        {
          "internalType": "address",
          "name": "account",
          "type": "address"
        }
      ],
      "name": "balanceOf",
      "outputs": [
        {
          "internalType": "uint256",
          "name": "",
          "type": "uint256"
        }
      ],
      "stateMutability": "view",
      "type": "function"
    },
    {
      "inputs": [
        {
          "internalType": "address",
          "name": "",
          "type": "address"
        }
      ],
      "name": "blacklistedAddresses",
      "outputs": [
        {
          "internalType": "bool",
          "name": "",
          "type": "bool"
        }
      ],
      "stateMutability": "view",
      "type": "function"
    },
    {
      "inputs": [
        {
          "internalType": "address",
          "name": "from",
          "type": "address"
        },
        {
          "internalType": "uint256",
          "name": "amount",
          "type": "uint256"
        }
      ],
      "name": "burnFrom",
      "outputs": [],
      "stateMutability": "nonpayable",
      "type": "function"
    },
    {
      "inputs": [
        {
          "internalType": "uint256",
          "name": "assetId",
          "type": "uint256"
        },
        {
          "internalType": "uint256",
          "name": "goldPricePerOunce",
          "type": "uint256"
        }
      ],
      "name": "calculateGoldValue",
      "outputs": [
        {
          "internalType": "uint256",
          "name": "",
          "type": "uint256"
        }
      ],
      "stateMutability": "view",
      "type": "function"
    },
    {
      "inputs": [],
      "name": "complianceEnabled",
      "outputs": [
        {
          "internalType": "bool",
          "name": "",
          "type": "bool"
        }
      ],
      "stateMutability": "view",
      "type": "function"
    },
    {
      "inputs": [],
      "name": "decimals",
      "outputs": [
        {
          "internalType": "uint8",
          "name": "",
          "type": "uint8"
        }
      ],
      "stateMutability": "view",
      "type": "function"
    },
    {
      "inputs": [
        {
          "internalType": "address",
          "name": "spender",
          "type": "address"
        },
        {
          "internalType": "uint256",
          "name": "subtractedValue",
          "type": "uint256"
        }
      ],
      "name": "decreaseAllowance",
      "outputs": [
        {
          "internalType": "bool",
          "name": "",
          "type": "bool"
        }
      ],
      "stateMutability": "nonpayable",
      "type": "function"
    },
    {
      "inputs": [],
      "name": "eip712Domain",
      "outputs": [
        {
          "internalType": "bytes1",
          "name": "fields",
          "type": "bytes1"
        },
        {
          "internalType": "string",
          "name": "name",
          "type": "string"
        },
        {
          "internalType": "string",
          "name": "version",
          "type": "string"
        },
        {
          "internalType": "uint256",
          "name": "chainId",
          "type": "uint256"
        },
        {
          "internalType": "address",
          "name": "verifyingContract",
          "type": "address"
        },
        {
          "internalType": "bytes32",
          "name": "salt",
          "type": "bytes32"
        },
        {
          "internalType": "uint256[]",
          "name": "extensions",
          "type": "uint256[]"
        }
      ],
      "stateMutability": "view",
      "type": "function"
    },
    {
      "inputs": [
        {
          "internalType": "uint256",
          "name": "assetId",
          "type": "uint256"
        }
      ],
      "name": "getAssetMetadata",
      "outputs": [
        {
          "components": [
            {
              "internalType": "string",
              "name": "assetType",
              "type": "string"
            },
            {
              "internalType": "string",
              "name": "description",
              "type": "string"
            },
            {
              "internalType": "string",
              "name": "location",
              "type": "string"
            },
            {
              "internalType": "uint256",
              "name": "appraisedValue",
              "type": "uint256"
            },
            {
              "internalType": "uint256",
              "name": "appraisalDate",
              "type": "uint256"
            },
            {
              "internalType": "string",
              "name": "appraisalCompany",
              "type": "string"
            },
            {
              "internalType": "string",
              "name": "documentHash",
              "type": "string"
            },
            {
              "internalType": "bool",
              "name": "isVerified",
              "type": "bool"
            },
            {
              "internalType": "uint256",
              "name": "createdAt",
              "type": "uint256"
            }
          ],
          "internalType": "struct IAssetMetadata.AssetMetadata",
          "name": "",
          "type": "tuple"
        }
      ],
      "stateMutability": "view",
      "type": "function"
    },
    {
      "inputs": [],
      "name": "getCurrentAssetId",
      "outputs": [
        {
          "internalType": "uint256",
          "name": "",
          "type": "uint256"
        }
      ],
      "stateMutability": "view",
      "type": "function"
    },
    {
      "inputs": [
        {
          "internalType": "uint256",
          "name": "assetId",
          "type": "uint256"
        }
      ],
      "name": "getGoldData",
      "outputs": [
        {
          "components": [
            {
              "internalType": "uint256",
              "name": "purity",
              "type": "uint256"
            },
            {
              "internalType": "uint256",
              "name": "weight",
              "type": "uint256"
            },
            {
              "internalType": "string",
              "name": "form",
              "type": "string"
            },
            {
              "internalType": "string",
              "name": "mint",
              "type": "string"
            },
            {
              "internalType": "string",
              "name": "serialNumber",
              "type": "string"
            },
            {
              "internalType": "string",
              "name": "certificationHash",
              "type": "string"
            },
            {
              "internalType": "bool",
              "name": "isAllocated",
              "type": "bool"
            },
            {
              "internalType": "string",
              "name": "storageLocation",
              "type": "string"
            }
          ],
          "internalType": "struct GoldToken.GoldData",
          "name": "",
          "type": "tuple"
        }
      ],
      "stateMutability": "view",
      "type": "function"
    },
    {
      "inputs": [
        {
          "internalType": "address",
          "name": "owner",
          "type": "address"
        }
      ],
      "name": "getOwnerAssets",
      "outputs": [
        {
          "internalType": "uint256[]",
          "name": "",
          "type": "uint256[]"
        }
      ],
      "stateMutability": "view",
      "type": "function"
    },
    {
      "inputs": [
        {
          "internalType": "bytes32",
          "name": "role",
          "type": "bytes32"
        }
      ],
      "name": "getRoleAdmin",
      "outputs": [
        {
          "internalType": "bytes32",
          "name": "",
          "type": "bytes32"
        }
      ],
      "stateMutability": "view",
      "type": "function"
    },
    {
      "inputs": [
        {
          "internalType": "uint256",
          "name": "",
          "type": "uint256"
        }
      ],
      "name": "goldData",
      "outputs": [
        {
          "internalType": "uint256",
          "name": "purity",
          "type": "uint256"
        },
        {
          "internalType": "uint256",
          "name": "weight",
          "type": "uint256"
        },
        {
          "internalType": "string",
          "name": "form",
          "type": "string"
        },
        {
          "internalType": "string",
          "name": "mint",
          "type": "string"
        },
        {
          "internalType": "string",
          "name": "serialNumber",
          "type": "string"
        },
        {
          "internalType": "string",
          "name": "certificationHash",
          "type": "string"
        },
        {
          "internalType": "bool",
          "name": "isAllocated",
          "type": "bool"
        },
        {
          "internalType": "string",
          "name": "storageLocation",
          "type": "string"
        }
      ],
      "stateMutability": "view",
      "type": "function"
    },
    {
      "inputs": [
        {
          "internalType": "bytes32",
          "name": "role",
          "type": "bytes32"
        },
        {
          "internalType": "address",
          "name": "account",
          "type": "address"
        }
      ],
      "name": "grantRole",
      "outputs": [],
      "stateMutability": "nonpayable",
      "type": "function"
    },
    {
      "inputs": [
        {
          "internalType": "bytes32",
          "name": "role",
          "type": "bytes32"
        },
        {
          "internalType": "address",
          "name": "account",
          "type": "address"
        }
      ],
      "name": "hasRole",
      "outputs": [
        {
          "internalType": "bool",
          "name": "",
          "type": "bool"
        }
      ],
      "stateMutability": "view",
      "type": "function"
    },
    {
      "inputs": [
        {
          "internalType": "address",
          "name": "spender",
          "type": "address"
        },
        {
          "internalType": "uint256",
          "name": "addedValue",
          "type": "uint256"
        }
      ],
      "name": "increaseAllowance",
      "outputs": [
        {
          "internalType": "bool",
          "name": "",
          "type": "bool"
        }
      ],
      "stateMutability": "nonpayable",
      "type": "function"
    },
    {
      "inputs": [],
      "name": "maxSupply",
      "outputs": [
        {
          "internalType": "uint256",
          "name": "",
          "type": "uint256"
        }
      ],
      "stateMutability": "view",
      "type": "function"
    },
    {
      "inputs": [
        {
          "internalType": "address",
          "name": "to",
          "type": "address"
        },
        {
          "internalType": "uint256",
          "name": "amount",
          "type": "uint256"
        }
      ],
      "name": "mint",
      "outputs": [],
      "stateMutability": "nonpayable",
      "type": "function"
    },
    {
      "inputs": [
        {
          "internalType": "address",
          "name": "to",
          "type": "address"
        },
        {
          "internalType": "uint256",
          "name": "amount",
          "type": "uint256"
        },
        {
          "internalType": "string",
          "name": "assetType",
          "type": "string"
        },
        {
          "internalType": "string",
          "name": "description",
          "type": "string"
        },
        {
          "internalType": "string",
          "name": "location",
          "type": "string"
        },
        {
          "internalType": "uint256",
          "name": "appraisedValue",
          "type": "uint256"
        },
        {
          "internalType": "string",
          "name": "appraisalCompany",
          "type": "string"
        },
        {
          "internalType": "string",
          "name": "documentHash",
          "type": "string"
        }
      ],
      "name": "mintAsset",
      "outputs": [
        {
          "internalType": "uint256",
          "name": "",
          "type": "uint256"
        }
      ],
      "stateMutability": "nonpayable",
      "type": "function"
    },
    {
      "inputs": [
        {
          "internalType": "address",
          "name": "to",
          "type": "address"
        },
        {
          "internalType": "uint256",
          "name": "amount",
          "type": "uint256"
        },
        {
          "internalType": "string",
          "name": "description",
          "type": "string"
        },
        {
          "internalType": "string",
          "name": "location",
          "type": "string"
        },
        {
          "internalType": "uint256",
          "name": "appraisedValue",
          "type": "uint256"
        },
        {
          "internalType": "string",
          "name": "appraisalCompany",
          "type": "string"
        },
        {
          "internalType": "string",
          "name": "documentHash",
          "type": "string"
        },
        {
          "internalType": "uint256",
          "name": "purity",
          "type": "uint256"
        },
        {
          "internalType": "uint256",
          "name": "weight",
          "type": "uint256"
        },
        {
          "internalType": "string",
          "name": "form",
          "type": "string"
        },
        {
          "internalType": "string",
          "name": "mint",
          "type": "string"
        },
        {
          "internalType": "string",
          "name": "serialNumber",
          "type": "string"
        },
        {
          "internalType": "string",
          "name": "certificationHash",
          "type": "string"
        },
        {
          "internalType": "bool",
          "name": "isAllocated",
          "type": "bool"
        },
        {
          "internalType": "string",
          "name": "storageLocation",
          "type": "string"
        }
      ],
      "name": "mintGold",
      "outputs": [
        {
          "internalType": "uint256",
          "name": "",
          "type": "uint256"
        }
      ],
      "stateMutability": "nonpayable",
      "type": "function"
    },
    {
      "inputs": [],
      "name": "name",
      "outputs": [
        {
          "internalType": "string",
          "name": "",
          "type": "string"
        }
      ],
      "stateMutability": "view",
      "type": "function"
    },
    {
      "inputs": [
        {
          "internalType": "address",
          "name": "owner",
          "type": "address"
        }
      ],
      "name": "nonces",
      "outputs": [
        {
          "internalType": "uint256",
          "name": "",
          "type": "uint256"
        }
      ],
      "stateMutability": "view",
      "type": "function"
    },
    {
      "inputs": [
        {
          "internalType": "address",
          "name": "",
          "type": "address"
        },
        {
          "internalType": "uint256",
          "name": "",
          "type": "uint256"
        }
      ],
      "name": "ownerAssets",
      "outputs": [
        {
          "internalType": "uint256",
          "name": "",
          "type": "uint256"
        }
      ],
      "stateMutability": "view",
      "type": "function"
    },
    {
      "inputs": [],
      "name": "pause",
      "outputs": [],
      "stateMutability": "nonpayable",
      "type": "function"
    },
    {
      "inputs": [],
      "name": "paused",
      "outputs": [
        {
          "internalType": "bool",
          "name": "",
          "type": "bool"
        }
      ],
      "stateMutability": "view",
      "type": "function"
    },
    {
      "inputs": [
        {
          "internalType": "address",
          "name": "owner",
          "type": "address"
        },
        {
          "internalType": "address",
          "name": "spender",
          "type": "address"
        },
        {
          "internalType": "uint256",
          "name": "value",
          "type": "uint256"
        },
        {
          "internalType": "uint256",
          "name": "deadline",
          "type": "uint256"
        },
        {
          "internalType": "uint8",
          "name": "v",
          "type": "uint8"
        },
        {
          "internalType": "bytes32",
          "name": "r",
          "type": "bytes32"
        },
        {
          "internalType": "bytes32",
          "name": "s",
          "type": "bytes32"
        }
      ],
      "name": "permit",
      "outputs": [],
      "stateMutability": "nonpayable",
      "type": "function"
    },
    {
      "inputs": [
        {
          "internalType": "bytes32",
          "name": "role",
          "type": "bytes32"
        },
        {
          "internalType": "address",
          "name": "account",
          "type": "address"
        }
      ],
      "name": "renounceRole",
      "outputs": [],
      "stateMutability": "nonpayable",
      "type": "function"
    },
    {
      "inputs": [
        {
          "internalType": "bytes32",
          "name": "role",
          "type": "bytes32"
        },
        {
          "internalType": "address",
          "name": "account",
          "type": "address"
        }
      ],
      "name": "revokeRole",
      "outputs": [],
      "stateMutability": "nonpayable",
      "type": "function"
    },
    {
      "inputs": [
        {
          "internalType": "address",
          "name": "account",
          "type": "address"
        },
        {
          "internalType": "bool",
          "name": "blacklisted",
          "type": "bool"
        }
      ],
      "name": "setBlacklisted",
      "outputs": [],
      "stateMutability": "nonpayable",
      "type": "function"
    },
    {
      "inputs": [
        {
          "internalType": "bool",
          "name": "enabled",
          "type": "bool"
        }
      ],
      "name": "setComplianceEnabled",
      "outputs": [],
      "stateMutability": "nonpayable",
      "type": "function"
    },
    {
      "inputs": [
        {
          "internalType": "address",
          "name": "account",
          "type": "address"
        },
        {
          "internalType": "bool",
          "name": "whitelisted",
          "type": "bool"
        }
      ],
      "name": "setWhitelisted",
      "outputs": [],
      "stateMutability": "nonpayable",
      "type": "function"
    },
    {
      "inputs": [
        {
          "internalType": "bytes4",
          "name": "interfaceId",
          "type": "bytes4"
        }
      ],
      "name": "supportsInterface",
      "outputs": [
        {
          "internalType": "bool",
          "name": "",
          "type": "bool"
        }
      ],
      "stateMutability": "view",
      "type": "function"
    },
    {
      "inputs": [],
      "name": "symbol",
      "outputs": [
        {
          "internalType": "string",
          "name": "",
          "type": "string"
        }
      ],
      "stateMutability": "view",
      "type": "function"
    },
    {
      "inputs": [],
      "name": "totalSupply",
      "outputs": [
        {
          "internalType": "uint256",
          "name": "",
          "type": "uint256"
        }
      ],
      "stateMutability": "view",
      "type": "function"
    },
    {
      "inputs": [
        {
          "internalType": "address",
          "name": "to",
          "type": "address"
        },
        {
          "internalType": "uint256",
          "name": "amount",
          "type": "uint256"
        }
      ],
      "name": "transfer",
      "outputs": [
        {
          "internalType": "bool",
          "name": "",
          "type": "bool"
        }
      ],
      "stateMutability": "nonpayable",
      "type": "function"
    },
    {
      "inputs": [
        {
          "internalType": "address",
          "name": "from",
          "type": "address"
        },
        {
          "internalType": "address",
          "name": "to",
          "type": "address"
        },
        {
          "internalType": "uint256",
          "name": "amount",
          "type": "uint256"
        }
      ],
      "name": "transferFrom",
      "outputs": [
        {
          "internalType": "bool",
          "name": "",
          "type": "bool"
        }
      ],
      "stateMutability": "nonpayable",
      "type": "function"
    },
    {
      "inputs": [],
      "name": "unpause",
      "outputs": [],
      "stateMutability": "nonpayable",
      "type": "function"
    },
    {
      "inputs": [
        {
          "internalType": "uint256",
          "name": "assetId",
          "type": "uint256"
        },
        {
          "internalType": "uint256",
          "name": "newValue",
          "type": "uint256"
        },
        {
          "internalType": "string",
          "name": "newAppraisalCompany",
          "type": "string"
        }
      ],
      "name": "updateAppraisedValue",
      "outputs": [],
      "stateMutability": "nonpayable",
      "type": "function"
    },
    {
      "inputs": [
        {
          "internalType": "uint256",
          "name": "assetId",
          "type": "uint256"
        },
        {
          "internalType": "string",
          "name": "field",
          "type": "string"
        },
        {
          "internalType": "string",
          "name": "newValue",
          "type": "string"
        }
      ],
      "name": "updateAssetMetadata",
      "outputs": [],
      "stateMutability": "nonpayable",
      "type": "function"
    },
    {
      "inputs": [
        {
          "internalType": "uint256",
          "name": "newMaxSupply",
          "type": "uint256"
        }
      ],
      "name": "updateMaxSupply",
      "outputs": [],
      "stateMutability": "nonpayable",
      "type": "function"
    },
    {
      "inputs": [
        {
          "internalType": "uint256",
          "name": "assetId",
          "type": "uint256"
        }
      ],
      "name": "verifyAsset",
      "outputs": [],
      "stateMutability": "nonpayable",
      "type": "function"
    },
    {
      "inputs": [
        {
          "internalType": "address",
          "name": "",
          "type": "address"
        }
      ],
      "name": "whitelistedAddresses",
      "outputs": [
        {
          "internalType": "bool",
          "name": "",
          "type": "bool"
        }
      ],
      "stateMutability": "view",
      "type": "function"
    }
  ],
  "bytecode": "0x61016034620007d557601f620061fd38819003918201601f19168301916001600160401b03831184841017620005b857808492602094604052833981010312620007d557516001600160a01b0381168103620007d5576040516200006381620007da565b600a81526923b7b632102a37b5b2b760b11b6020820152604051916200008983620007da565b600383526211d31160ea1b602084015260405191620000a883620007da565b60018352603160f81b602084015280516001600160401b038111620005b857600354600181811c91168015620007ca575b6020821014620006ad57601f811162000764575b50806020601f8211600114620006da57600091620006ce575b508160011b916000199060031b1c1916176003555b83516001600160401b038111620005b857600454600181811c91168015620006c3575b6020821014620006ad57601f811162000647575b50602094601f8211600114620005da57948192939495600092620005ce575b50508160011b916000199060031b1c1916176004555b6200019281620007f6565b91610120928352620001a484620009ba565b9161014092835260208151910120938460e05260208151910120610100948186524660a0526040519160208301917f8b73c3c69bb8fe3d512ecc4cf759cc79239f7b179b0ffacaa9a75d522b39400f8352604084015260608301524660808301523060a083015260a0825260c082019082821060018060401b03831117620005b85781604052825190206080523060c05260ff199182600954166009556001600b55600183601054161760105560018060a01b03841615620005745750506001600160a01b03821660009081527f13da86008ba1c6922daee3e07db95305ef49ebced9f5467a0b8613fcc6b343e3602052604090205460ff161562000518575b6001600160a01b03821660009081527faa1d7351356c4ddc11907b1ee0660f579cfdf507235af2ae01ecd22a4b7ceaae60205260409020547f9f2df0fed2c77648de5860a4cc508cd0818c85b8b8a1ab4ceeef8d981c8956a69060ff1615620004cf575b506001600160a01b03821660009081527f6c4ab3a3cc4fea3ac566afdaa38e0e471d1bdfd1aa59eb20affdabfa5e893fed60205260409020547f65d7a28e3265b37a6474929f336521b332c1681b933f6cb9f3376673440d862a9060ff161562000486575b506001600160a01b03821660009081527f81aa20521b1f8377105c149ab3e891a614f1dc1af7e3227dafa44b3aa3f87adc60205260409020547f442a94f1a1fac79af32856af2a64f63648cfa2ef3b98610a5bb7cbec4cee6985919060ff161562000433575b50505069152d02c7e14af680000060125560016011556040519161566a938462000b73853960805184614f5c015260a05184615027015260c05184614f26015260e05184614fab01525183614fd101525182612d9801525181612dc10152f35b81600052600a602052604060002060018060a01b0384166000526020526001604060002091825416179055339160018060a01b031690600080516020620061dd833981519152600080a4388080620003d3565b6000818152600a602090815260408083206001600160a01b0387168085529252822080548516600117905533929091600080516020620061dd8339815191529080a4386200036d565b6000818152600a602090815260408083206001600160a01b0387168085529252822080548516600117905533929091600080516020620061dd8339815191529080a43862000308565b6001600160a01b03821660008181527f13da86008ba1c6922daee3e07db95305ef49ebced9f5467a0b8613fcc6b343e360205260408120805484166001179055339190600080516020620061dd8339815191528180a4620002a4565b62461bcd60e51b8252602060c4820152601560e48201527f496e76616c69642061646d696e2061646472657373000000000000000000000061010490910152606490fd5b634e487b7160e01b600052604160045260246000fd5b01519050388062000171565b601f19821695600460005260206000209160005b8881106200062e5750836001959697981062000614575b505050811b0160045562000187565b015160001960f88460031b161c1916905538808062000605565b91926020600181928685015181550194019201620005ee565b60046000527f8a35acfbc15ff81a39ae7d344fd709f28e8600b4aa8c65c6b64bfe7fe36bd19b601f830160051c810160208410620006a5575b601f830160051c820181106200069857505062000152565b6000815560010162000680565b508062000680565b634e487b7160e01b600052602260045260246000fd5b90607f16906200013e565b90508201513862000106565b6003600090815292507fc2575a0e9e593c00f959f8c92f12db2869c3395a3b0502d05e2516446f71f85b905b601f19831684106200074b576001935082601f1981161062000731575b5050811b016003556200011b565b84015160001960f88460031b161c19169055388062000723565b8481015182556020938401936001909201910162000706565b60036000527fc2575a0e9e593c00f959f8c92f12db2869c3395a3b0502d05e2516446f71f85b601f830160051c810160208410620007c2575b601f830160051c82018110620007b5575050620000ed565b600081556001016200079d565b50806200079d565b90607f1690620000d9565b600080fd5b604081019081106001600160401b03821117620005b857604052565b8051602091908281101562000895575090601f8251116200083457808251920151908083106200082557501790565b82600019910360031b1b161790565b90604051809263305a27a960e01b82528060048301528251908160248401526000935b8285106200087b575050604492506000838284010152601f80199101168101030190fd5b848101820151868601604401529381019385935062000857565b6001600160401b038111620005b8576005928354926001938481811c91168015620009af575b83821014620006ad57601f811162000978575b5081601f84116001146200090e575092829391839260009462000902575b50501b916000199060031b1c191617905560ff90565b015192503880620008ec565b919083601f1981168760005284600020946000905b888383106200095d575050501062000943575b505050811b01905560ff90565b015160001960f88460031b161c1916905538808062000936565b85870151885590960195948501948793509081019062000923565b8560005284601f846000209201871c820191601f8601881c015b828110620009a2575050620008ce565b6000815501859062000992565b90607f1690620008bb565b80516020908181101562000a485750601f825111620009e757808251920151908083106200082557501790565b90604051809263305a27a960e01b82528060048301528251908160248401526000935b82851062000a2e575050604492506000838284010152601f80199101168101030190fd5b848101820151868601604401529381019385935062000a0a565b906001600160401b038211620005b857600654926001938481811c9116801562000b67575b83821014620006ad57601f811162000b2d575b5081601f841160011462000ac1575092829391839260009462000ab5575b50501b916000199060031b1c19161760065560ff90565b01519250388062000a9e565b919083601f198116600660005284600020946000905b8883831062000b12575050501062000af8575b505050811b0160065560ff90565b015160001960f88460031b161c1916905538808062000aea565b85870151885590960195948501948793509081019062000ad7565b600660005284601f84600020920160051c820191601f860160051c015b82811062000b5a57505062000a80565b6000815501859062000b4a565b90607f169062000a6d56fe608080604052600436101561001357600080fd5b60003560e01c90816301ffc9a7146140e257508063041199e114613ec6578063062d3bd714613e8b57806306c933d814613e4c57806306fdde0314613da6578063095ea7b314613d8057806318160ddd14613d6257806323b872dd14613ca4578063248a9ca314613c755780632d38f89b14613bea5780632f2ff15d14613b37578063313ce56714613b1b5780633644e51514613af857806336568abe14613a665780633950935114613a155780633c2fd950146133295780633f4ba83a1461329557806340c10f19146131de578063455bd9511461318657806359fd285c146130e95780635c975abb146130c657806370a082311461308c57806379cc679014612ef45780637ecebe0014612eba5780638456cb5914612e6057806384b0196e14612d8257806391d1485414612d355780639281aa0b14612ce257806394c5b2fc14612cc457806395d89b4114612be2578063a217fddf14612bc6578063a457c2d714612b1f578063a9059cbb14612aee578063aabae7a314612268578063c1cf90661461213f578063cda82fd614611f55578063cf2acf8414611d3d578063cf35bdd014611c17578063d01dd6d214611b99578063d505accf146119f6578063d5391393146119bb578063d547741f1461197a578063d5749d421461193b578063d5abeb011461191d578063d83c8270146118fa578063dd62ed3e146118a9578063e04e77f714611870578063e63ab1e914611835578063eb2c9832146105e6578063f103b433146103895763f3b057ce1461025057600080fd5b3461038457602036600319011261038457600435600052601360205260406000208054610380600183015492600761036b600561035d600461034f600361034160026102ad8a6102a6604051809481930161432f565b03826141a3565b6102c88a6102c1604051809681930161432f565b03846141a3565b6102e38a6102dc604051809881930161432f565b03866141a3565b6102fe8a6102f7604051809a81930161432f565b03886141a3565b61032160ff60068c0154169a61031a604051809c81930161432f565b038a6141a3565b6040519c8d9c8d5260208d015260408c61010091829101528c0190614275565b908a820360608c0152614275565b9088820360808a0152614275565b9086820360a0880152614275565b91151560c085015283820360e0850152614275565b0390f35b600080fd5b34610384576020806003193601126103845760043560008052600a8252604060002033600052825260ff604060002054161561043e576002548110610400577fb4d96b3a6638191d0f6aefa0fdc4d99af3592f4c97480e31feeb977723c63b539160409160125491816012558351928352820152a1005b60405162461bcd60e51b81526004810183905260166024820152754e6577206d617820737570706c7920746f6f206c6f7760501b6044820152606490fd5b5061044833614c6c565b90600060405161045781614188565b604281528281019160603684378151156105d0576030835381516001908110156105d057607860218401536041905b808211610576575050610533576104ff9361050e9260489260405196879376020b1b1b2b9b9a1b7b73a3937b61d1030b1b1b7bab73a1604d1b888601526104d6815180928a603789019101614252565b8401917001034b99036b4b9b9b4b733903937b6329607d1b603784015251809386840190614252565b010360288101855201836141a3565b61052f60405192839262461bcd60e51b845260048401526024830190614275565b0390fd5b6064836040519062461bcd60e51b825280600483015260248201527f537472696e67733a20686578206c656e67746820696e73756666696369656e746044820152fd5b9091600f811660108110156105d0576f181899199a1a9b1b9c1cb0b131b232b360811b901a6105a58486614c5b565b5360041c9180156105ba576000190190610486565b634e487b7160e01b600052601160045260246000fd5b634e487b7160e01b600052603260045260246000fd5b34610384576101e036600319011261038457610600614226565b6044356001600160401b0381116103845761061f9036906004016141df565b906064356001600160401b0381116103845761063f9036906004016141df565b9060a4356001600160401b0381116103845761065f9036906004016141df565b9060c4356001600160401b0381116103845761067f9036906004016141df565b610124356001600160401b0381116103845761069f9036906004016141df565b94610144356001600160401b038111610384576106c09036906004016141df565b93610164356001600160401b038111610384576106e19036906004016141df565b93610184356001600160401b038111610384576107029036906004016141df565b916101a435938415158503610384576101c4356001600160401b038111610384576107319036906004016141df565b9561073a6146f8565b61138860e435101580611827575b156117d4576101043515611790578a5115611754576040519261076a8461416d565b600484526319dbdb1960e21b60208501526107836146f8565b6002600b541461170f576002600b5561079a6152a9565b6107ae6001600160a01b0386161515615203565b6107bb602435151561524f565b608435156116b857835115611673576002546107d9602435826149be565b9060125480921161164857505060ff6010541680611626575b611605576011549a6108038c61529a565b6011556040519361081385614151565b85855260208501526040840152608435606084015242608084015260a083015260c0820152600060e08201524261010082015288600052600c60205260406000209080518051906001600160401b038211610eb957819061087485546142f5565b601f81116115b5575b50602090601f83116001146115495760009261153e575b50508160011b916000199060031b1c19161782555b60208101518051906001600160401b038211610eb95781906108ce60018601546142f5565b601f81116114eb575b50602090601f83116001146114795760009261146e575b50508160011b916000199060031b1c19161760018301555b60408101518051906001600160401b038211610eb957819061092b60028601546142f5565b601f811161141b575b50602090601f83116001146113a95760009261139e575b50508160011b916000199060031b1c19161760028301555b606081015160038301556080810151600483015560a08101518051906001600160401b038211610eb957819061099c60058601546142f5565b601f811161134b575b50602090601f83116001146112d9576000926112ce575b50508160011b916000199060031b1c19161760058301555b60c08101518051906001600160401b038211610eb9576109f760068501546142f5565b601f8111611287575b50602090601f83116001146112115791806008949261010094600092611206575b50508160011b916000199060031b1c19161760068501555b610a5860e08201511515600786019060ff801983541691151516179055565b01519101556001600160a01b0382166000908152600d602052604090208054600160401b811015610eb9578992610ad684610abd847ff7e1a46c126ab69342d6c64d69054268e5521a7b4128ea9a7ef358e83e00b611966001610afe970181556142ce565b90919082549060031b91821b91600019901b1916179055565b610ae2602435866152ed565b6040519182916024358352606060208401526060830190614275565b60843560408301526001600160a01b03909516940390a36001600b5560405193610b2785614135565b60e4358552610104356020860152876040860152856060860152608085015260a0840152151560c083015260e08201528260005260136020526040600020815181556020820151600182015560408201518051906001600160401b038211610eb9578190610b9860028501546142f5565b601f81116111b3575b50602090601f831160011461114157600092611136575b50508160011b916000199060031b1c19161760028201555b60608201518051906001600160401b038211610eb9578190610bf560038501546142f5565b601f81116110e3575b50602090601f831160011461107157600092611066575b50508160011b916000199060031b1c19161760038201555b60808201518051906001600160401b038211610eb9578190610c5260048501546142f5565b601f8111611013575b50602090601f8311600114610fa157600092610f96575b50508160011b916000199060031b1c19161760048201555b60a08201518051906001600160401b038211610eb957610cad60058401546142f5565b601f8111610f4f575b50602090601f8311600114610eda57918060e09492600794600092610ecf575b50508160011b916000199060031b1c19161760058201555b610d0d60c08501511515600683019060ff801983541691151516179055565b019101518051906001600160401b038211610eb957610d2c83546142f5565b601f8111610e71575b5091849391602096938790601f8311600114610dde579282610dc893610dba96937f1c462283a518a0ba4dbf2312538fd7b17e615d805d7fa17dc439e8d6aec9134d9896600092610dd3575b50508160011b916000199060031b1c19161790555b60405193849360e4358552610104358a860152608060408601526080850190614275565b908382036060850152614275565b0390a2604051908152f35b015190508b80610d81565b90601f1983169184600052896000209260005b818110610e57575093610dba96937f1c462283a518a0ba4dbf2312538fd7b17e615d805d7fa17dc439e8d6aec9134d98969360019383610dc89810610e3e575b505050811b019055610d96565b015160001960f88460031b161c191690558b8080610e31565b8284015185558a9950600190940193928b01928b01610df1565b836000526020600020601f840160051c81019160208510610eaf575b601f0160051c01905b818110610ea35750610d35565b60008155600101610e96565b9091508190610e8d565b634e487b7160e01b600052604160045260246000fd5b015190508980610cd6565b906005840160005260206000209160005b601f1985168110610f3757509260e0949260019260079583601f19811610610f1e575b505050811b016005820155610cee565b015160001960f88460031b161c19169055898080610f0e565b91926020600181928685015181550194019201610eeb565b600584016000526020600020601f840160051c810160208510610f8f575b601f830160051c82018110610f83575050610cb6565b60008155600101610f6d565b5080610f6d565b015190508780610c72565b9250600484016000526020600020906000935b601f1984168510610ff8576001945083601f19811610610fdf575b505050811b016004820155610c8a565b015160001960f88460031b161c19169055878080610fcf565b81810151835560209485019460019093019290910190610fb4565b909150600484016000526020600020601f840160051c81016020851061105f575b90849392915b601f830160051c82018110611050575050610c5b565b6000815585945060010161103a565b5080611034565b015190508780610c15565b9250600384016000526020600020906000935b601f19841685106110c8576001945083601f198116106110af575b505050811b016003820155610c2d565b015160001960f88460031b161c1916905587808061109f565b81810151835560209485019460019093019290910190611084565b909150600384016000526020600020601f840160051c81016020851061112f575b90849392915b601f830160051c82018110611120575050610bfe565b6000815585945060010161110a565b5080611104565b015190508780610bb8565b9250600284016000526020600020906000935b601f1984168510611198576001945083601f1981161061117f575b505050811b016002820155610bd0565b015160001960f88460031b161c1916905587808061116f565b81810151835560209485019460019093019290910190611154565b909150600284016000526020600020601f840160051c8101602085106111ff575b90849392915b601f830160051c820181106111f0575050610ba1565b600081558594506001016111da565b50806111d4565b015190508f80610a21565b906006850160005260206000209160005b601f198516811061126f575092600894926001926101009583601f19811610611256575b505050811b016006850155610a39565b015160001960f88460031b161c191690558f8080611246565b91926020600181928685015181550194019201611222565b600685016000526020600020601f840160051c8101602085106112c7575b601f830160051c820181106112bb575050610a00565b600081556001016112a5565b50806112a5565b015190508d806109bc565b9250600585016000526020600020906000935b601f1984168510611330576001945083601f19811610611317575b505050811b0160058301556109d4565b015160001960f88460031b161c191690558d8080611307565b818101518355602094850194600190930192909101906112ec565b909150600585016000526020600020601f840160051c810160208510611397575b90849392915b601f830160051c820181106113885750506109a5565b60008155859450600101611372565b508061136c565b015190508d8061094b565b9250600285016000526020600020906000935b601f1984168510611400576001945083601f198116106113e7575b505050811b016002830155610963565b015160001960f88460031b161c191690558d80806113d7565b818101518355602094850194600190930192909101906113bc565b909150600285016000526020600020601f840160051c810160208510611467575b90849392915b601f830160051c82018110611458575050610934565b60008155859450600101611442565b508061143c565b015190508d806108ee565b9250600185016000526020600020906000935b601f19841685106114d0576001945083601f198116106114b7575b505050811b016001830155610906565b015160001960f88460031b161c191690558d80806114a7565b8181015183556020948501946001909301929091019061148c565b909150600185016000526020600020601f840160051c810160208510611537575b90849392915b601f830160051c820181106115285750506108d7565b60008155859450600101611512565b508061150c565b015190508d80610894565b9250846000526020600020906000935b601f198416851061159a576001945083601f19811610611581575b505050811b0182556108a9565b015160001960f88460031b161c191690558d8080611574565b81810151835560209485019460019093019290910190611559565b909150846000526020600020601f840160051c8101602085106115fe575b90849392915b601f830160051c820181106115ef57505061087d565b600081558594506001016115d9565b50806115d3565b60405163d33f19e760e01b81526001600160a01b0386166004820152602490fd5b506001600160a01b0385166000908152600e602052604090205460ff166107f2565b90611658604492602435906149be565b906040519163adc3cee560e01b835260048301526024820152fd5b60405162461bcd60e51b815260206004820152601a60248201527f417373657420747970652063616e6e6f7420626520656d7074790000000000006044820152606490fd5b60405162461bcd60e51b815260206004820152602960248201527f4170707261697365642076616c7565206d7573742062652067726561746572206044820152687468616e207a65726f60b81b6064820152608490fd5b60405162461bcd60e51b815260206004820152601f60248201527f5265656e7472616e637947756172643a207265656e7472616e742063616c6c006044820152606490fd5b60405162461bcd60e51b8152602060048201526014602482015273466f726d2063616e6e6f7420626520656d70747960601b6044820152606490fd5b606460405162461bcd60e51b815260206004820152602060248201527f576569676874206d7573742062652067726561746572207468616e207a65726f6044820152fd5b60405162461bcd60e51b815260206004820152602560248201527f507572697479206d757374206265206265747765656e2035302520616e642039604482015264392e39392560d81b6064820152608490fd5b5061270f60e4351115610748565b346103845760003660031901126103845760206040517f65d7a28e3265b37a6474929f336521b332c1681b933f6cb9f3376673440d862a8152f35b3461038457602036600319011261038457600435801515809103610384576118966143c5565b60ff801960105416911617601055600080f35b34610384576040366003190112610384576118c2614226565b6118ca61423c565b9060018060a01b038091166000526001602052604060002091166000526020526020604060002054604051908152f35b3461038457600036600319011261038457602060ff601054166040519015158152f35b34610384576000366003190112610384576020601254604051908152f35b34610384576020366003190112610384576001600160a01b0361195c614226565b16600052600e602052602060ff604060002054166040519015158152f35b34610384576040366003190112610384576119b960043561199961423c565b9080600052600a6020526119b460016040600020015461483d565b614948565b005b346103845760003660031901126103845760206040517f9f2df0fed2c77648de5860a4cc508cd0818c85b8b8a1ab4ceeef8d981c8956a68152f35b346103845760e036600319011261038457611a0f614226565b611a1761423c565b6044359060843560643560ff8216820361038457804211611b545760018060a01b0390818616928360005260076020526040600020908154916001830190556040519260208401927f6e71edae12b1b97f4d1f60370fef10105fa2faae0126114a169c64845d6126c98452866040860152858816606086015288608086015260a085015260c084015260c0835260e08301918383106001600160401b03841117610eb957611b0093611af893604052519020611ad1614f23565b906040519161190160f01b83526002830152602282015260c43591604260a4359220614e94565b919091614d7a565b1603611b0f576119b992614b46565b60405162461bcd60e51b815260206004820152601e60248201527f45524332305065726d69743a20696e76616c6964207369676e617475726500006044820152606490fd5b60405162461bcd60e51b815260206004820152601d60248201527f45524332305065726d69743a206578706972656420646561646c696e650000006044820152606490fd5b3461038457604036600319011261038457611bb2614226565b7ff1bf4fdc75f29b6c8f35b7808597b7e9c104efd356c3f8ee86e76023da1417e06020611bdd6142e6565b92611be66143c5565b6001600160a01b03166000818152600e835260409020805460ff191660ff86151516179055926040519015158152a2005b3461038457602036600319011261038457600435600052600c602052611ce9604060002060405190611c5482611c4d818461432f565b03836141a3565b604051611c68816102a6816001860161432f565b611d2b6006611d1d604051611c84816102a68160028a0161432f565b600386015460048701546040519192611d0590611caf84611ca88160058e0161432f565b03856141a3565b611cc38a6102f7604051809a81930161432f565b611cf7600860ff60078d0154169b0154996040519d8e9d8e610120908181520190614275565b8d810360208f015290614275565b908b820360408d0152614275565b9260608a0152608089015287820360a0890152614275565b9085820360c0870152614275565b91151560e08401526101008301520390f35b34610384576020806003193601126103845760043560405191611d5f83614151565b6060918284528282850152826040850152600083850152600060808501528260a08501528260c0850152600060e085015260006101008095015280600052600c825260086040600020015415611f3d57600052600c815260406000209060405192611dc984614151565b60405180611dd7818661432f565b03611de290826141a3565b84526040519485611df6816001870161432f565b03611e0190876141a3565b8483019586526040519586611e19816002880161432f565b03611e2490886141a3565b60408681019788526003860154848801908152600487015460808901908152915180611e538160058b0161432f565b03611e5e90826141a3565b60a089019081526040519283611e778160068c0161432f565b03611e8290856141a3565b60c08a01938452600789015460ff169860e08b019915158a526008015496868b019788526040519b8c9b8a8d52518c6101209b8c9101526101408d01611ec791614275565b9651601f198d8903810160408f015297611ee091614275565b905191878d830301908d0152611ef591614275565b925160808b01525160a08a01525190838982030160c08a0152611f1791614275565b9051918782030160e0880152611f2c91614275565b935115159085015251908301520390f35b602490604051906343ce9af560e01b82526004820152fd5b346103845760208060031936011261038457604051600435611f7682614135565b60008252828201600090526060828160408195015281808201528160808201528160a082015260c081016000905260e0015280600052600c83526040600020600801541515611fc4906155d1565b60005260138252604060002060405191611fdd83614135565b8154835260018201549084840191825260405192838060028301906120019161432f565b0361200c90856141a3565b6040858101948552519384612024816003850161432f565b0361202f90866141a3565b85830194855260405180612046816004860161432f565b0361205190826141a3565b60808701908152604051918261206a816005870161432f565b0361207590846141a3565b60a08801928352600684015460ff169560c089019615158752604051806007819701906120a19161432f565b036120ac90866141a3565b60e08901948552604051998a99818b5251908a015251604089015251610100809589015261012088016120de91614275565b9551601f1996878982030160808a01526120f791614275565b905190868882030160a089015261210d91614275565b905190858782030160c088015261212391614275565b9251151560e08601525192848303019084015261038091614275565b346103845760403660031901126103845760043580600052600c60205261216f60086040600020015415156155d1565b600052601360205260406000206040519061218982614135565b805482526007612222600183015492602085019384526040516121b3816102a6816002860161432f565b60408601526040516121cc816102a6816003860161432f565b60608601526040516121e5816102a6816004860161432f565b60808601526040516121fe816102a6816005860161432f565b60a086015260ff600682015416151560c08601526102a6604051809481930161432f565b60e083015251906103e890818302928084048314901517156105ba5760209261271061225961225f935161797f6024359404614c48565b04614c48565b04604051908152f35b346103845761010036600319011261038457612282614226565b6044356001600160401b038111610384576122a19036906004016141df565b906064356001600160401b038111610384576122c19036906004016141df565b906084356001600160401b038111610384576122e19036906004016141df565b9160c4356001600160401b038111610384576123019036906004016141df565b60e4356001600160401b038111610384576123209036906004016141df565b906123296146f8565b6002600b541461170f576002600b556123406152a9565b6123546001600160a01b0385161515615203565b612361602435151561524f565b60a435156116b8578551156116735760025461237f602435826149be565b9060125480921161164857505060ff6010541680612acc575b612aab57601154946123a98661529a565b601155604051936123b985614151565b8785526020850152604084015260a435606084015242608084015260a083015260c0820152600060e08201524261010082015282600052600c60205260406000209080518051906001600160401b038211610eb957819061241a85546142f5565b601f8111612a5b575b50602090601f83116001146129f5576000926129ea575b50508160011b916000199060031b1c19161782555b60208101518051906001600160401b038211610eb957819061247460018601546142f5565b601f8111612997575b50602090601f83116001146129255760009261291a575b50508160011b916000199060031b1c19161760018301555b60408101518051906001600160401b038211610eb95781906124d160028601546142f5565b601f81116128c7575b50602090601f83116001146128555760009261284a575b50508160011b916000199060031b1c19161760028301555b606081015160038301556080810151600483015560a08101518051906001600160401b038211610eb957819061254260058601546142f5565b601f81116127f7575b50602090601f83116001146127855760009261277a575b50508160011b916000199060031b1c19161760058301555b60c08101518051906001600160401b038211610eb95761259d60068501546142f5565b601f8111612733575b50602090601f83116001146126bd57918060089492610100946000926126b2575b50508160011b916000199060031b1c19161760068501555b6125fe60e08201511515600786019060ff801983541691151516179055565b01519101556001600160a01b0381166000908152600d6020526040902080549390600160401b851015610eb95761268e849261266784610abd897ff7e1a46c126ab69342d6c64d69054268e5521a7b4128ea9a7ef358e83e00b61196600160209c0181556142ce565b612673602435866152ed565b60405191829160243583526060898401526060830190614275565b60a43560408301526001600160a01b03909516940390a36001600b55604051908152f35b0151905089806125c7565b906006850160005260206000209160005b601f198516811061271b575092600894926001926101009583601f19811610612702575b505050811b0160068501556125df565b015160001960f88460031b161c191690558980806126f2565b919260206001819286850151815501940192016126ce565b600685016000526020600020601f840160051c810160208510612773575b601f830160051c820181106127675750506125a6565b60008155600101612751565b5080612751565b015190508780612562565b9250600585016000526020600020906000935b601f19841685106127dc576001945083601f198116106127c3575b505050811b01600583015561257a565b015160001960f88460031b161c191690558780806127b3565b81810151835560209485019460019093019290910190612798565b909150600585016000526020600020601f840160051c810160208510612843575b90849392915b601f830160051c8201811061283457505061254b565b6000815585945060010161281e565b5080612818565b0151905087806124f1565b9250600285016000526020600020906000935b601f19841685106128ac576001945083601f19811610612893575b505050811b016002830155612509565b015160001960f88460031b161c19169055878080612883565b81810151835560209485019460019093019290910190612868565b909150600285016000526020600020601f840160051c810160208510612913575b90849392915b601f830160051c820181106129045750506124da565b600081558594506001016128ee565b50806128e8565b015190508780612494565b9250600185016000526020600020906000935b601f198416851061297c576001945083601f19811610612963575b505050811b0160018301556124ac565b015160001960f88460031b161c19169055878080612953565b81810151835560209485019460019093019290910190612938565b909150600185016000526020600020601f840160051c8101602085106129e3575b90849392915b601f830160051c820181106129d457505061247d565b600081558594506001016129be565b50806129b8565b01519050878061243a565b6000868152602081209350601f198516905b818110612a435750908460019594939210612a2a575b505050811b01825561244f565b015160001960f88460031b161c19169055878080612a1d565b92936020600181928786015181550195019301612a07565b909150846000526020600020601f840160051c810160208510612aa4575b90849392915b601f830160051c82018110612a95575050612423565b60008155859450600101612a7f565b5080612a79565b60405163d33f19e760e01b81526001600160a01b0385166004820152602490fd5b506001600160a01b0384166000908152600e602052604090205460ff16612398565b3461038457604036600319011261038457612b14612b0a614226565b60243590336149cb565b602060405160018152f35b3461038457604036600319011261038457612b38614226565b60243590336000526001602052604060002060018060a01b03821660005260205260406000205491808310612b7357612b1492039033614b46565b60405162461bcd60e51b815260206004820152602560248201527f45524332303a2064656372656173656420616c6c6f77616e63652062656c6f77604482015264207a65726f60d81b6064820152608490fd5b3461038457600036600319011261038457602060405160008152f35b34610384576000366003190112610384576040516000600454612c04816142f5565b80845290600190818116908115612c9d5750600114612c42575b61038084612c2e818603826141a3565b604051918291602083526020830190614275565b6004600090815292507f8a35acfbc15ff81a39ae7d344fd709f28e8600b4aa8c65c6b64bfe7fe36bd19b5b828410612c85575050508101602001612c2e82612c1e565b80546020858701810191909152909301928101612c6d565b60ff191660208087019190915292151560051b85019092019250612c2e9150839050612c1e565b34610384576000366003190112610384576020601154604051908152f35b34610384576040366003190112610384576119b9612cfe614226565b612d066142e6565b90612d0f6143c5565b60018060a01b0316600052600f60205260406000209060ff801983541691151516179055565b3461038457604036600319011261038457612d4e61423c565b600435600052600a60205260406000209060018060a01b0316600052602052602060ff604060002054166040519015158152f35b3461038457600036600319011261038457612dbc7f000000000000000000000000000000000000000000000000000000000000000061504d565b612de57f0000000000000000000000000000000000000000000000000000000000000000615149565b906040519160208301928084106001600160401b03851117610eb957612e3f61038092612e319560405260008352604051958695600f60f81b875260e0602088015260e0870190614275565b908582036040870152614275565b90466060850152306080850152600060a085015283820360c085015261429a565b3461038457600036600319011261038457612e796145b3565b612e816152a9565b600160ff1960095416176009557f62e78cea01bee320cd4e420270b5ea74000d11b0c9f74754ebdbfc544b05a2586020604051338152a1005b34610384576020366003190112610384576001600160a01b03612edb614226565b1660005260076020526020604060002054604051908152f35b3461038457604036600319011261038457612f0d614226565b6001600160a01b038116602435811561304757612f2b81151561524f565b81600052602092600184526040600020336000528452604060002054906000198203613005575b612f5c91506153f2565b8160005260008352604060002054818110612fb55792817fddf252ad1be2c89b69c2b068fc378daa952ba7f163c4a11628f55a4df523b3ef926000958587528684520360408620558060025403600255604051908152a3005b60405162461bcd60e51b815260048101859052602260248201527f45524332303a206275726e20616d6f756e7420657863656564732062616c616e604482015261636560f01b6064820152608490fd5b828210613029578282039182116105ba57613024612f5c923383614b46565b612f52565b604483836040519163054365bb60e31b835260048301526024820152fd5b60405162461bcd60e51b815260206004820152601d60248201527f43616e6e6f74206275726e2066726f6d207a65726f20616464726573730000006044820152606490fd5b34610384576020366003190112610384576001600160a01b036130ad614226565b1660005260006020526020604060002054604051908152f35b3461038457600036600319011261038457602060ff600954166040519015158152f35b34610384576020366003190112610384576004356131056143c5565b80600052600c60205260086040600020015415611f3d5780600052600c6020526007604060002001600160ff1982541617905560008051602061561583398151915260c06040516040815260086040820152671d995c9a599a595960c21b60608201526080602082015260046080820152637472756560e01b60a0820152a2005b346103845760403660031901126103845761319f614226565b6001600160a01b03166000908152600d6020526040902080546024359190821015610384576020916131d0916142ce565b90546040519160031b1c8152f35b34610384576040366003190112610384576131f7614226565b6024356132026146f8565b6001600160a01b03821691613218831515615203565b61322382151561524f565b60025461323083826149be565b9060125480921161328857505060ff6010541680613270575b613257576119b992506152ed565b60405163d33f19e760e01b815260048101849052602490fd5b5082600052600e60205260ff60406000205416613249565b90611658846044936149be565b34610384576000366003190112610384576132ae6145b3565b60095460ff8116156132ed5760ff19166009557f5db9ee0a495bf2e6ff9c91a7834c1ba4fdd244a5e8aa4e537bd38aeae4b073aa6020604051338152a1005b60405162461bcd60e51b815260206004820152601460248201527314185d5cd8589b194e881b9bdd081c185d5cd95960621b6044820152606490fd5b346103845760603660031901126103845760043560246001600160401b0381358181116103845761335e9036906004016141df565b91604435828111610384576133779036906004016141df565b906133806143c5565b84600052600c92602093808552600860406000200154156139fd5785517f1596dc38e2ac5a6ddc5e019af4adcc1e017a04f510d57e69d6879d5d2996bb8e8688019182206a3232b9b1b934b83a34b7b760a91b886040516133e08161416d565b600b81520152036135675750866000528452600180604060002001928451928311613553575061341083546142f5565b601f811161350a575b5084601f831160011461348e57928280613471979460008051602061561583398151915299979461347e97600093613483575b501b916000199060031b1c19161790555b604051948594604086526040860190614275565b9184830390850152614275565b0390a2005b86015192508c61344c565b601f9291921982169084600052866000209160005b8181106134f557509261347e9592613471989592826000805160206156158339815191529b9996106134dc575b5050811b01905561345d565b85015160001960f88460031b161c191690558a806134d0565b878301518455928501929188019188016134a3565b8360005285600020601f840160051c810191878510613549575b601f0160051c019082905b82811061353d575050613419565b6000815501829061352f565b9091508190613524565b634e487b7160e01b60009081526041600452fd5b7f32418106fd89af94305d9787acb608a501b749f5f1783cfca7b3f864595254ca87518220673637b1b0ba34b7b760c11b886040516135a58161416d565b600881520152036136d95750866000528452600260406000200191835191821161355357506135d482546142f5565b601f8111613693575b5083601f8211600114613631579261347e928261347196936000805160206156158339815191529896600091613626575b508160011b916000199060031b1c191617905561345d565b90508301518a61360e565b601f1982169083600052856000209160005b81811061367c57508360008051602061561583398151915298969361347e96936134719996600194106134dc575050811b01905561345d565b91928760018192868a015181550194019201613643565b8260005284600020601f830160051c8101918684106136cf575b601f0160051c01905b8181106136c357506135dd565b600081556001016136b6565b90915081906136ad565b7f0672e70e771a4a1bc3c4bf3963a75dfb1a00680fb30bde56d2ab3475bbeb191a875182206f61707072616973616c436f6d70616e7960801b8860405161371f8161416d565b6010815201520361384757508660005284526005604060002001918351918211613553575061374e82546142f5565b601f8111613801575b5083601f821160011461379f579261347e92826134719693600080516020615615833981519152989660009161362657508160011b916000199060031b1c191617905561345d565b601f1982169083600052856000209160005b8181106137ea57508360008051602061561583398151915298969361347e96936134719996600194106134dc575050811b01905561345d565b91928760018192868a0151815501940192016137b1565b8260005284600020601f830160051c81019186841061383d575b601f0160051c01905b8181106138315750613757565b60008155600101613824565b909150819061381b565b7fa2337af9c0c983d244fe5901fbd8591e34918612fb5a46d3a9da3a6306987c7090875190206b0c8dec6eadacadce890c2e6d60a31b8760405161388a8161416d565b8581520152146138b5575b5050509161347e613471926000805160206156158339815191529461345d565b866000528452600660406000200191835191821161355357506138d882546142f5565b601f81116139b7575b5083601f821160011461393b579261347e928261347196936000805160206156158339815191529896600091613930575b508160011b916000199060031b1c19161790555b9294819450613895565b90508301518a613912565b601f1982169083600052856000209160005b8181106139a057508360008051602061561583398151915298969361347e9693613471999660019410613987575b5050811b019055613926565b85015160001960f88460031b161c191690558a8061397b565b91928760018192868a01518155019401920161394d565b8260005284600020601f830160051c8101918684106139f3575b601f0160051c01905b8181106139e757506138e1565b600081556001016139da565b90915081906139d1565b6040516343ce9af560e01b8152600481018890528390fd5b3461038457604036600319011261038457612b14613a31614226565b336000526001602052604060002060018060a01b038216600052602052613a5f6024356040600020546149be565b9033614b46565b3461038457604036600319011261038457613a7f61423c565b336001600160a01b03821603613a9b576119b990600435614948565b60405162461bcd60e51b815260206004820152602f60248201527f416363657373436f6e74726f6c3a2063616e206f6e6c792072656e6f756e636560448201526e103937b632b9903337b91039b2b63360891b6064820152608490fd5b34610384576000366003190112610384576020613b13614f23565b604051908152f35b3461038457600036600319011261038457602060405160128152f35b3461038457604036600319011261038457600435613b5361423c565b81600052600a602052613b6d60016040600020015461483d565b81600052600a60205260406000209060018060a01b0316908160005260205260ff6040600020541615613b9c57005b81600052600a6020526040600020816000526020526040600020600160ff1982541617905533917f2f8788117e7eff1d82e926ec794901d17c78024a50270940304540a733656f0d600080a4005b3461038457602080600319360112610384576001600160a01b03613c0c614226565b16600052600d8152604060002090604051808383829554938481520190600052836000209260005b85828210613c5f57505050613c4b925003836141a3565b61038060405192828493845283019061429a565b8554845260019586019588955093019201613c34565b3461038457602036600319011261038457600435600052600a6020526020600160406000200154604051908152f35b3461038457606036600319011261038457613cbd614226565b613cc561423c565b6044359060018060a01b0383166000526001602052604060002033600052602052604060002054926000198403613d01575b612b1493506149cb565b828410613d1d57613d1883612b1495033383614b46565b613cf7565b60405162461bcd60e51b815260206004820152601d60248201527f45524332303a20696e73756666696369656e7420616c6c6f77616e63650000006044820152606490fd5b34610384576000366003190112610384576020600254604051908152f35b3461038457604036600319011261038457612b14613d9c614226565b6024359033614b46565b34610384576000366003190112610384576040516000600354613dc8816142f5565b80845290600190818116908115612c9d5750600114613df15761038084612c2e818603826141a3565b6003600090815292507fc2575a0e9e593c00f959f8c92f12db2869c3395a3b0502d05e2516446f71f85b5b828410613e34575050508101602001612c2e82612c1e565b80546020858701810191909152909301928101613e1c565b34610384576020366003190112610384576001600160a01b03613e6d614226565b16600052600f602052602060ff604060002054166040519015158152f35b346103845760003660031901126103845760206040517f442a94f1a1fac79af32856af2a64f63648cfa2ef3b98610a5bb7cbec4cee69858152f35b34610384576060366003190112610384576004356001600160401b0360243560443582811161038457613efd9036906004016141df565b613f056143c5565b83600052602092600c8452600860406000200154156140c95782156140b05784600052600c84526005604060002084600382015542600482015501918051918211610eb957613f5483546142f5565b601f811161406a575b508490601f8311600114613fea579360008051602061561583398151915295938361347e94613faa94608098600092613fdf575b50508160011b916000199060031b1c1916179055615511565b60405193849360408552600e60408601526d61707072616973656456616c756560901b60608601528401526080830190614275565b015190508a80613f91565b90601f1983169184600052866000209260005b818110614053575084613faa94608098946000805160206156158339815191529a989461347e986001951061403a575b505050811b019055615511565b015160001960f88460031b161c191690558a808061402d565b929388600181928786015181550195019301613ffd565b8360005285600020601f840160051c8101918785106140a6575b601f0160051c01905b81811061409a5750613f5d565b6000815560010161408d565b9091508190614084565b6040516306dd0df760e11b815260048101849052602490fd5b6040516343ce9af560e01b815260048101869052602490fd5b34610384576020366003190112610384576004359063ffffffff60e01b821680920361038457602091637965db0b60e01b8114908115614124575b5015158152f35b6301ffc9a760e01b1490508361411d565b61010081019081106001600160401b03821117610eb957604052565b61012081019081106001600160401b03821117610eb957604052565b604081019081106001600160401b03821117610eb957604052565b608081019081106001600160401b03821117610eb957604052565b90601f801991011681019081106001600160401b03821117610eb957604052565b6001600160401b038111610eb957601f01601f191660200190565b81601f82011215610384578035906141f6826141c4565b9261420460405194856141a3565b8284526020838301011161038457816000926020809301838601378301015290565b600435906001600160a01b038216820361038457565b602435906001600160a01b038216820361038457565b60005b8381106142655750506000910152565b8181015183820152602001614255565b9060209161428e81518092818552858086019101614252565b601f01601f1916010190565b90815180825260208080930193019160005b8281106142ba575050505090565b8351855293810193928101926001016142ac565b80548210156105d05760005260206000200190600090565b60243590811515820361038457565b90600182811c92168015614325575b602083101461430f57565b634e487b7160e01b600052602260045260246000fd5b91607f1691614304565b9060009291805491614340836142f5565b9182825260019384811690816000146143a25750600114614362575b50505050565b90919394506000526020928360002092846000945b83861061438e57505050500101903880808061435c565b805485870183015294019385908201614377565b9294505050602093945060ff191683830152151560051b0101903880808061435c565b3360009081527f81aa20521b1f8377105c149ab3e891a614f1dc1af7e3227dafa44b3aa3f87adc602090815260408083205490927f442a94f1a1fac79af32856af2a64f63648cfa2ef3b98610a5bb7cbec4cee69859160ff16156144295750505050565b61443233614c6c565b9184519061443f82614188565b6042825284820192606036853782511561459f576030845382519060019182101561459f5790607860218501536041915b818311614531575050506144ef57604861052f9386936144d3936144c4985198899376020b1b1b2b9b9a1b7b73a3937b61d1030b1b1b7bab73a1604d1b8a8601526104d6815180928c603789019101614252565b010360288101875201856141a3565b5192839262461bcd60e51b845260048401526024830190614275565b60648486519062461bcd60e51b825280600483015260248201527f537472696e67733a20686578206c656e67746820696e73756666696369656e746044820152fd5b909192600f8116601081101561458b576f181899199a1a9b1b9c1cb0b131b232b360811b901a6145618587614c5b565b5360041c92801561457757600019019190614470565b634e487b7160e01b82526011600452602482fd5b634e487b7160e01b83526032600452602483fd5b634e487b7160e01b81526032600452602490fd5b3360009081527f6c4ab3a3cc4fea3ac566afdaa38e0e471d1bdfd1aa59eb20affdabfa5e893fed602090815260408083205490927f65d7a28e3265b37a6474929f336521b332c1681b933f6cb9f3376673440d862a9160ff16156146175750505050565b61462033614c6c565b9184519061462d82614188565b6042825284820192606036853782511561459f576030845382519060019182101561459f5790607860218501536041915b8183116146b2575050506144ef57604861052f9386936144d3936144c4985198899376020b1b1b2b9b9a1b7b73a3937b61d1030b1b1b7bab73a1604d1b8a8601526104d6815180928c603789019101614252565b909192600f8116601081101561458b576f181899199a1a9b1b9c1cb0b131b232b360811b901a6146e28587614c5b565b5360041c9280156145775760001901919061465e565b3360009081527faa1d7351356c4ddc11907b1ee0660f579cfdf507235af2ae01ecd22a4b7ceaae602090815260408083205490927f9f2df0fed2c77648de5860a4cc508cd0818c85b8b8a1ab4ceeef8d981c8956a69160ff161561475c5750505050565b61476533614c6c565b9184519061477282614188565b6042825284820192606036853782511561459f576030845382519060019182101561459f5790607860218501536041915b8183116147f7575050506144ef57604861052f9386936144d3936144c4985198899376020b1b1b2b9b9a1b7b73a3937b61d1030b1b1b7bab73a1604d1b8a8601526104d6815180928c603789019101614252565b909192600f8116601081101561458b576f181899199a1a9b1b9c1cb0b131b232b360811b901a6148278587614c5b565b5360041c928015614577576000190191906147a3565b600090808252602090600a8252604092838120338252835260ff8482205416156148675750505050565b61487033614c6c565b9184519061487d82614188565b6042825284820192606036853782511561459f576030845382519060019182101561459f5790607860218501536041915b818311614902575050506144ef57604861052f9386936144d3936144c4985198899376020b1b1b2b9b9a1b7b73a3937b61d1030b1b1b7bab73a1604d1b8a8601526104d6815180928c603789019101614252565b909192600f8116601081101561458b576f181899199a1a9b1b9c1cb0b131b232b360811b901a6149328587614c5b565b5360041c928015614577576000190191906148ae565b90600091808352600a602052604083209160018060a01b03169182845260205260ff60408420541661497957505050565b808352600a602052604083208284526020526040832060ff1981541690557ff6391f5c32d9c69d2a47ea670b442974b53935d1edc7fd64eb21e047a839171b339380a4565b919082018092116105ba57565b90916001600160a01b0380831692908315614af3578416938415614aa2576149f29161547a565b600082815280602052604081205491808310614a4e57604082827fddf252ad1be2c89b69c2b068fc378daa952ba7f163c4a11628f55a4df523b3ef958760209652828652038282205586815220818154019055604051908152a3565b60405162461bcd60e51b815260206004820152602660248201527f45524332303a207472616e7366657220616d6f756e7420657863656564732062604482015265616c616e636560d01b6064820152608490fd5b60405162461bcd60e51b815260206004820152602360248201527f45524332303a207472616e7366657220746f20746865207a65726f206164647260448201526265737360e81b6064820152608490fd5b60405162461bcd60e51b815260206004820152602560248201527f45524332303a207472616e736665722066726f6d20746865207a65726f206164604482015264647265737360d81b6064820152608490fd5b6001600160a01b03908116918215614bf75716918215614ba75760207f8c5be1e5ebec7d5bd14f71427d1e84f3dd0314c0f7b2291e5b200ac8c7c3b925918360005260018252604060002085600052825280604060002055604051908152a3565b60405162461bcd60e51b815260206004820152602260248201527f45524332303a20617070726f766520746f20746865207a65726f206164647265604482015261737360f01b6064820152608490fd5b60405162461bcd60e51b8152602060048201526024808201527f45524332303a20617070726f76652066726f6d20746865207a65726f206164646044820152637265737360e01b6064820152608490fd5b818102929181159184041417156105ba57565b9081518110156105d0570160200190565b60405190606082018281106001600160401b03821117610eb957604052602a82526020820160403682378251156105d0576030905381516001908110156105d057607860218401536029905b808211614d0c575050614cc85790565b606460405162461bcd60e51b815260206004820152602060248201527f537472696e67733a20686578206c656e67746820696e73756666696369656e746044820152fd5b9091600f81166010811015614d65576f181899199a1a9b1b9c1cb0b131b232b360811b901a614d3b8486614c5b565b5360041c918015614d50576000190190614cb8565b60246000634e487b7160e01b81526011600452fd5b60246000634e487b7160e01b81526032600452fd5b6005811015614e7e5780614d8b5750565b60018103614dd85760405162461bcd60e51b815260206004820152601860248201527f45434453413a20696e76616c6964207369676e617475726500000000000000006044820152606490fd5b60028103614e255760405162461bcd60e51b815260206004820152601f60248201527f45434453413a20696e76616c6964207369676e6174757265206c656e677468006044820152606490fd5b600314614e2e57565b60405162461bcd60e51b815260206004820152602260248201527f45434453413a20696e76616c6964207369676e6174757265202773272076616c604482015261756560f01b6064820152608490fd5b634e487b7160e01b600052602160045260246000fd5b9291907f7fffffffffffffffffffffffffffffff5d576e7357a4501ddfe92f46681b20a08311614f175791608094939160ff602094604051948552168484015260408301526060820152600093849182805260015afa15614f0a5781516001600160a01b03811615614f04579190565b50600190565b50604051903d90823e3d90fd5b50505050600090600390565b307f00000000000000000000000000000000000000000000000000000000000000006001600160a01b03161480615024575b15614f7e577f000000000000000000000000000000000000000000000000000000000000000090565b60405160208101907f8b73c3c69bb8fe3d512ecc4cf759cc79239f7b179b0ffacaa9a75d522b39400f82527f000000000000000000000000000000000000000000000000000000000000000060408201527f000000000000000000000000000000000000000000000000000000000000000060608201524660808201523060a082015260a0815260c081018181106001600160401b03821117610eb95760405251902090565b507f00000000000000000000000000000000000000000000000000000000000000004614614f55565b60ff811461508b5760ff811690601f8211615079576040519161506f8361416d565b8252602082015290565b604051632cd44ac360e21b8152600490fd5b5060405160055481600061509e836142f5565b8083529260019081811690811561512757506001146150c8575b506150c5925003826141a3565b90565b6005600090815291507f036b6384b5eca791c62761152d0c79bb0604c104a5fb6f4eb0703f3154bb3db05b84831061510c57506150c59350508101602001386150b8565b819350908160209254838589010152019101909184926150f3565b9050602092506150c594915060ff191682840152151560051b820101386150b8565b60ff811461516b5760ff811690601f8211615079576040519161506f8361416d565b5060405160065481600061517e836142f5565b8083529260019081811690811561512757506001146151a457506150c5925003826141a3565b6006600090815291507ff652222313e28459528d920b65115c16c04f3efc82aaedc97be59f3f377c0d3f5b8483106151e857506150c59350508101602001386150b8565b819350908160209254838589010152019101909184926151cf565b1561520a57565b60405162461bcd60e51b815260206004820152601b60248201527f43616e6e6f74206d696e7420746f207a65726f206164647265737300000000006044820152606490fd5b1561525657565b606460405162461bcd60e51b815260206004820152602060248201527f416d6f756e74206d7573742062652067726561746572207468616e207a65726f6044820152fd5b60001981146105ba5760010190565b60ff600954166152b557565b60405162461bcd60e51b815260206004820152601060248201526f14185d5cd8589b194e881c185d5cd95960821b6044820152606490fd5b6001600160a01b03169081156153ad5760ff60095416615355577fddf252ad1be2c89b69c2b068fc378daa952ba7f163c4a11628f55a4df523b3ef6020826153396000946002546149be565b60025584845283825260408420818154019055604051908152a3565b60405162461bcd60e51b815260206004820152602a60248201527f45524332305061757361626c653a20746f6b656e207472616e736665722077686044820152691a5b19481c185d5cd95960b21b6064820152608490fd5b60405162461bcd60e51b815260206004820152601f60248201527f45524332303a206d696e7420746f20746865207a65726f2061646472657373006044820152606490fd5b60ff60095416615355576001600160a01b031680158015615472575b61546f5760ff6010541661541f5750565b6000818152600e60205260ff604082205416801561545e575b615440575050565b6044925060405191637617407560e11b835260048301526024820152fd5b5080805260ff604082205416615438565b50565b50600161540e565b60ff60095416615355576001600160a01b039081169182158015615507575b6155025760ff601054166154ac57505050565b82600052600e60205260ff6040600020541680156154ed575b6154ce57505050565b6044935060405192637617407560e11b84526004840152166024820152fd5b5081811660005260ff604060002054166154c5565b505050565b5081811615615499565b80156155b35780816000925b61559d575061552b826141c4565b9161553960405193846141a3565b80835281601f19615549836141c4565b013660208601375b61555a57505090565b60001981019081116105ba578091600a91603083830681018091116105ba5760f81b6001600160f81b03191660001a906155949086614c5b565b53049081615551565b90916155aa600a9161529a565b9291048061551d565b506040516155c08161416d565b60018152600360fc1b602082015290565b156155d857565b60405162461bcd60e51b8152602060048201526014602482015273105cdcd95d08191bd95cc81b9bdd08195e1a5cdd60621b6044820152606490fdfe589f5f1b831c2b1bb6368f38c84e2a21507d083cfa73f4d227d7f3d4895df766a2646970667358221220cfc6b77a1b7f8ed432feea322a5bc481a5cbbe942d35ad3ff3d6c84ec5b0683a64736f6c634300081400332f8788117e7eff1d82e926ec794901d17c78024a50270940304540a733656f0d",
  "linkReferences": {},
  "deployedLinkReferences": {}
}