{
  "_format": "hh-sol-artifact-1",
  "contractName": "PledgeEscrow",
  "sourceName": "contracts/PledgeEscrow.sol",
  "abi": [
    {
      "inputs": [
        {
          "internalType": "address",
          "name": "_pledgeNFT",
          "type": "address"
        }
      ],
      "stateMutability": "nonpayable",
      "type": "constructor"
    },
    {
      "anonymous": false,
      "inputs": [
        {
          "indexed": false,
          "internalType": "address",
          "name": "account",
          "type": "address"
        }
      ],
      "name": "Paused",
      "type": "event"
    },
    {
      "anonymous": false,
      "inputs": [
        {
          "indexed": true,
          "internalType": "uint256",
          "name": "pledgeId",
          "type": "uint256"
        },
        {
          "indexed": true,
          "internalType": "address",
          "name": "approver",
          "type": "address"
        },
        {
          "indexed": false,
          "internalType": "uint256",
          "name": "tokenAmount",
          "type": "uint256"
        }
      ],
      "name": "PledgeApproved",
      "type": "event"
    },
    {
      "anonymous": false,
      "inputs": [
        {
          "indexed": true,
          "internalType": "uint256",
          "name": "pledgeId",
          "type": "uint256"
        },
        {
          "indexed": true,
          "internalType": "address",
          "name": "borrower",
          "type": "address"
        },
        {
          "indexed": true,
          "internalType": "enum IPledgeEscrow.AssetType",
          "name": "assetType",
          "type": "uint8"
        },
        {
          "indexed": false,
          "internalType": "uint256",
          "name": "appraisedValue",
          "type": "uint256"
        },
        {
          "indexed": false,
          "internalType": "uint256",
          "name": "nftTokenId",
          "type": "uint256"
        }
      ],
      "name": "PledgeCreated",
      "type": "event"
    },
    {
      "anonymous": false,
      "inputs": [
        {
          "indexed": true,
          "internalType": "uint256",
          "name": "pledgeId",
          "type": "uint256"
        },
        {
          "indexed": true,
          "internalType": "address",
          "name": "borrower",
          "type": "address"
        },
        {
          "indexed": false,
          "internalType": "uint256",
          "name": "tokensOutstanding",
          "type": "uint256"
        }
      ],
      "name": "PledgeDefaulted",
      "type": "event"
    },
    {
      "anonymous": false,
      "inputs": [
        {
          "indexed": true,
          "internalType": "uint256",
          "name": "pledgeId",
          "type": "uint256"
        },
        {
          "indexed": true,
          "internalType": "address",
          "name": "borrower",
          "type": "address"
        },
        {
          "indexed": false,
          "internalType": "uint256",
          "name": "tokensBurned",
          "type": "uint256"
        }
      ],
      "name": "PledgeRedeemed",
      "type": "event"
    },
    {
      "anonymous": false,
      "inputs": [
        {
          "indexed": true,
          "internalType": "uint256",
          "name": "pledgeId",
          "type": "uint256"
        },
        {
          "indexed": true,
          "internalType": "address",
          "name": "rejector",
          "type": "address"
        },
        {
          "indexed": false,
          "internalType": "string",
          "name": "reason",
          "type": "string"
        }
      ],
      "name": "PledgeRejected",
      "type": "event"
    },
    {
      "anonymous": false,
      "inputs": [
        {
          "indexed": true,
          "internalType": "bytes32",
          "name": "role",
          "type": "bytes32"
        },
        {
          "indexed": true,
          "internalType": "bytes32",
          "name": "previousAdminRole",
          "type": "bytes32"
        },
        {
          "indexed": true,
          "internalType": "bytes32",
          "name": "newAdminRole",
          "type": "bytes32"
        }
      ],
      "name": "RoleAdminChanged",
      "type": "event"
    },
    {
      "anonymous": false,
      "inputs": [
        {
          "indexed": true,
          "internalType": "bytes32",
          "name": "role",
          "type": "bytes32"
        },
        {
          "indexed": true,
          "internalType": "address",
          "name": "account",
          "type": "address"
        },
        {
          "indexed": true,
          "internalType": "address",
          "name": "sender",
          "type": "address"
        }
      ],
      "name": "RoleGranted",
      "type": "event"
    },
    {
      "anonymous": false,
      "inputs": [
        {
          "indexed": true,
          "internalType": "bytes32",
          "name": "role",
          "type": "bytes32"
        },
        {
          "indexed": true,
          "internalType": "address",
          "name": "account",
          "type": "address"
        },
        {
          "indexed": true,
          "internalType": "address",
          "name": "sender",
          "type": "address"
        }
      ],
      "name": "RoleRevoked",
      "type": "event"
    },
    {
      "anonymous": false,
      "inputs": [
        {
          "indexed": true,
          "internalType": "uint256",
          "name": "pledgeId",
          "type": "uint256"
        },
        {
          "indexed": true,
          "internalType": "address",
          "name": "borrower",
          "type": "address"
        },
        {
          "indexed": false,
          "internalType": "address",
          "name": "tokenContract",
          "type": "address"
        },
        {
          "indexed": false,
          "internalType": "uint256",
          "name": "amount",
          "type": "uint256"
        }
      ],
      "name": "TokensMinted",
      "type": "event"
    },
    {
      "anonymous": false,
      "inputs": [
        {
          "indexed": false,
          "internalType": "address",
          "name": "account",
          "type": "address"
        }
      ],
      "name": "Unpaused",
      "type": "event"
    },
    {
      "inputs": [],
      "name": "ADMIN_ROLE",
      "outputs": [
        {
          "internalType": "bytes32",
          "name": "",
          "type": "bytes32"
        }
      ],
      "stateMutability": "view",
      "type": "function"
    },
    {
      "inputs": [],
      "name": "APPROVER_ROLE",
      "outputs": [
        {
          "internalType": "bytes32",
          "name": "",
          "type": "bytes32"
        }
      ],
      "stateMutability": "view",
      "type": "function"
    },
    {
      "inputs": [],
      "name": "DEFAULT_ADMIN_ROLE",
      "outputs": [
        {
          "internalType": "bytes32",
          "name": "",
          "type": "bytes32"
        }
      ],
      "stateMutability": "view",
      "type": "function"
    },
    {
      "inputs": [],
      "name": "MINTER_ROLE",
      "outputs": [
        {
          "internalType": "bytes32",
          "name": "",
          "type": "bytes32"
        }
      ],
      "stateMutability": "view",
      "type": "function"
    },
    {
      "inputs": [
        {
          "internalType": "uint256",
          "name": "",
          "type": "uint256"
        }
      ],
      "name": "allPledges",
      "outputs": [
        {
          "internalType": "uint256",
          "name": "",
          "type": "uint256"
        }
      ],
      "stateMutability": "view",
      "type": "function"
    },
    {
      "inputs": [
        {
          "internalType": "uint256",
          "name": "pledgeId",
          "type": "uint256"
        },
        {
          "internalType": "uint256",
          "name": "tokenAmount",
          "type": "uint256"
        }
      ],
      "name": "approvePledge",
      "outputs": [],
      "stateMutability": "nonpayable",
      "type": "function"
    },
    {
      "inputs": [
        {
          "internalType": "enum IPledgeEscrow.AssetType",
          "name": "",
          "type": "uint8"
        }
      ],
      "name": "assetTokenContracts",
      "outputs": [
        {
          "internalType": "address",
          "name": "",
          "type": "address"
        }
      ],
      "stateMutability": "view",
      "type": "function"
    },
    {
      "inputs": [
        {
          "internalType": "enum IPledgeEscrow.AssetType",
          "name": "assetType",
          "type": "uint8"
        },
        {
          "internalType": "uint256",
          "name": "appraisedValue",
          "type": "uint256"
        },
        {
          "components": [
            {
              "internalType": "string",
              "name": "name",
              "type": "string"
            },
            {
              "internalType": "string",
              "name": "description",
              "type": "string"
            },
            {
              "internalType": "string",
              "name": "location",
              "type": "string"
            },
            {
              "internalType": "uint256",
              "name": "appraisedValue",
              "type": "uint256"
            },
            {
              "internalType": "string",
              "name": "appraisalDocument",
              "type": "string"
            },
            {
              "internalType": "string[]",
              "name": "additionalDocuments",
              "type": "string[]"
            },
            {
              "internalType": "bytes32",
              "name": "documentHash",
              "type": "bytes32"
            }
          ],
          "internalType": "struct IPledgeEscrow.AssetMetadata",
          "name": "metadata",
          "type": "tuple"
        }
      ],
      "name": "createPledge",
      "outputs": [
        {
          "internalType": "uint256",
          "name": "pledgeId",
          "type": "uint256"
        }
      ],
      "stateMutability": "nonpayable",
      "type": "function"
    },
    {
      "inputs": [
        {
          "internalType": "uint256",
          "name": "pledgeId",
          "type": "uint256"
        }
      ],
      "name": "defaultPledge",
      "outputs": [],
      "stateMutability": "nonpayable",
      "type": "function"
    },
    {
      "inputs": [],
      "name": "defaultThreshold",
      "outputs": [
        {
          "internalType": "uint256",
          "name": "",
          "type": "uint256"
        }
      ],
      "stateMutability": "view",
      "type": "function"
    },
    {
      "inputs": [
        {
          "internalType": "enum IPledgeEscrow.AssetType",
          "name": "assetType",
          "type": "uint8"
        }
      ],
      "name": "getAssetTokenContract",
      "outputs": [
        {
          "internalType": "address",
          "name": "",
          "type": "address"
        }
      ],
      "stateMutability": "view",
      "type": "function"
    },
    {
      "inputs": [],
      "name": "getPendingPledges",
      "outputs": [
        {
          "internalType": "uint256[]",
          "name": "",
          "type": "uint256[]"
        }
      ],
      "stateMutability": "view",
      "type": "function"
    },
    {
      "inputs": [
        {
          "internalType": "uint256",
          "name": "pledgeId",
          "type": "uint256"
        }
      ],
      "name": "getPledgeInfo",
      "outputs": [
        {
          "components": [
            {
              "internalType": "uint256",
              "name": "pledgeId",
              "type": "uint256"
            },
            {
              "internalType": "address",
              "name": "borrower",
              "type": "address"
            },
            {
              "internalType": "enum IPledgeEscrow.AssetType",
              "name": "assetType",
              "type": "uint8"
            },
            {
              "internalType": "uint256",
              "name": "appraisedValue",
              "type": "uint256"
            },
            {
              "internalType": "uint256",
              "name": "tokenAmount",
              "type": "uint256"
            },
            {
              "internalType": "uint256",
              "name": "nftTokenId",
              "type": "uint256"
            },
            {
              "internalType": "enum IPledgeEscrow.PledgeStatus",
              "name": "status",
              "type": "uint8"
            },
            {
              "internalType": "uint256",
              "name": "createdAt",
              "type": "uint256"
            },
            {
              "internalType": "uint256",
              "name": "approvedAt",
              "type": "uint256"
            },
            {
              "internalType": "address",
              "name": "approvedBy",
              "type": "address"
            },
            {
              "internalType": "string",
              "name": "metadataURI",
              "type": "string"
            },
            {
              "internalType": "bytes32",
              "name": "documentHash",
              "type": "bytes32"
            }
          ],
          "internalType": "struct IPledgeEscrow.PledgeInfo",
          "name": "",
          "type": "tuple"
        }
      ],
      "stateMutability": "view",
      "type": "function"
    },
    {
      "inputs": [
        {
          "internalType": "bytes32",
          "name": "role",
          "type": "bytes32"
        }
      ],
      "name": "getRoleAdmin",
      "outputs": [
        {
          "internalType": "bytes32",
          "name": "",
          "type": "bytes32"
        }
      ],
      "stateMutability": "view",
      "type": "function"
    },
    {
      "inputs": [],
      "name": "getTotalPledges",
      "outputs": [
        {
          "internalType": "uint256",
          "name": "",
          "type": "uint256"
        }
      ],
      "stateMutability": "view",
      "type": "function"
    },
    {
      "inputs": [
        {
          "internalType": "address",
          "name": "user",
          "type": "address"
        }
      ],
      "name": "getUserPledges",
      "outputs": [
        {
          "internalType": "uint256[]",
          "name": "",
          "type": "uint256[]"
        }
      ],
      "stateMutability": "view",
      "type": "function"
    },
    {
      "inputs": [
        {
          "internalType": "bytes32",
          "name": "role",
          "type": "bytes32"
        },
        {
          "internalType": "address",
          "name": "account",
          "type": "address"
        }
      ],
      "name": "grantRole",
      "outputs": [],
      "stateMutability": "nonpayable",
      "type": "function"
    },
    {
      "inputs": [
        {
          "internalType": "bytes32",
          "name": "role",
          "type": "bytes32"
        },
        {
          "internalType": "address",
          "name": "account",
          "type": "address"
        }
      ],
      "name": "hasRole",
      "outputs": [
        {
          "internalType": "bool",
          "name": "",
          "type": "bool"
        }
      ],
      "stateMutability": "view",
      "type": "function"
    },
    {
      "inputs": [],
      "name": "maxLTV",
      "outputs": [
        {
          "internalType": "uint256",
          "name": "",
          "type": "uint256"
        }
      ],
      "stateMutability": "view",
      "type": "function"
    },
    {
      "inputs": [],
      "name": "minAppraisalValue",
      "outputs": [
        {
          "internalType": "uint256",
          "name": "",
          "type": "uint256"
        }
      ],
      "stateMutability": "view",
      "type": "function"
    },
    {
      "inputs": [
        {
          "internalType": "uint256",
          "name": "pledgeId",
          "type": "uint256"
        }
      ],
      "name": "mintTokens",
      "outputs": [
        {
          "internalType": "address",
          "name": "tokenContract",
          "type": "address"
        },
        {
          "internalType": "uint256",
          "name": "amount",
          "type": "uint256"
        }
      ],
      "stateMutability": "nonpayable",
      "type": "function"
    },
    {
      "inputs": [
        {
          "internalType": "uint256",
          "name": "",
          "type": "uint256"
        }
      ],
      "name": "nftToPledge",
      "outputs": [
        {
          "internalType": "uint256",
          "name": "",
          "type": "uint256"
        }
      ],
      "stateMutability": "view",
      "type": "function"
    },
    {
      "inputs": [
        {
          "internalType": "address",
          "name": "",
          "type": "address"
        },
        {
          "internalType": "address",
          "name": "",
          "type": "address"
        },
        {
          "internalType": "uint256",
          "name": "",
          "type": "uint256"
        },
        {
          "internalType": "bytes",
          "name": "",
          "type": "bytes"
        }
      ],
      "name": "onERC721Received",
      "outputs": [
        {
          "internalType": "bytes4",
          "name": "",
          "type": "bytes4"
        }
      ],
      "stateMutability": "pure",
      "type": "function"
    },
    {
      "inputs": [],
      "name": "pause",
      "outputs": [],
      "stateMutability": "nonpayable",
      "type": "function"
    },
    {
      "inputs": [],
      "name": "paused",
      "outputs": [
        {
          "internalType": "bool",
          "name": "",
          "type": "bool"
        }
      ],
      "stateMutability": "view",
      "type": "function"
    },
    {
      "inputs": [
        {
          "internalType": "uint256",
          "name": "",
          "type": "uint256"
        }
      ],
      "name": "pendingPledges",
      "outputs": [
        {
          "internalType": "uint256",
          "name": "",
          "type": "uint256"
        }
      ],
      "stateMutability": "view",
      "type": "function"
    },
    {
      "inputs": [],
      "name": "pledgeNFT",
      "outputs": [
        {
          "internalType": "contract PledgeNFT",
          "name": "",
          "type": "address"
        }
      ],
      "stateMutability": "view",
      "type": "function"
    },
    {
      "inputs": [
        {
          "internalType": "uint256",
          "name": "",
          "type": "uint256"
        }
      ],
      "name": "pledgeToNFT",
      "outputs": [
        {
          "internalType": "uint256",
          "name": "",
          "type": "uint256"
        }
      ],
      "stateMutability": "view",
      "type": "function"
    },
    {
      "inputs": [
        {
          "internalType": "uint256",
          "name": "",
          "type": "uint256"
        }
      ],
      "name": "pledges",
      "outputs": [
        {
          "internalType": "uint256",
          "name": "pledgeId",
          "type": "uint256"
        },
        {
          "internalType": "address",
          "name": "borrower",
          "type": "address"
        },
        {
          "internalType": "enum IPledgeEscrow.AssetType",
          "name": "assetType",
          "type": "uint8"
        },
        {
          "internalType": "uint256",
          "name": "appraisedValue",
          "type": "uint256"
        },
        {
          "internalType": "uint256",
          "name": "tokenAmount",
          "type": "uint256"
        },
        {
          "internalType": "uint256",
          "name": "nftTokenId",
          "type": "uint256"
        },
        {
          "internalType": "enum IPledgeEscrow.PledgeStatus",
          "name": "status",
          "type": "uint8"
        },
        {
          "internalType": "uint256",
          "name": "createdAt",
          "type": "uint256"
        },
        {
          "internalType": "uint256",
          "name": "approvedAt",
          "type": "uint256"
        },
        {
          "internalType": "address",
          "name": "approvedBy",
          "type": "address"
        },
        {
          "internalType": "string",
          "name": "metadataURI",
          "type": "string"
        },
        {
          "internalType": "bytes32",
          "name": "documentHash",
          "type": "bytes32"
        }
      ],
      "stateMutability": "view",
      "type": "function"
    },
    {
      "inputs": [
        {
          "internalType": "uint256",
          "name": "pledgeId",
          "type": "uint256"
        },
        {
          "internalType": "uint256",
          "name": "tokenAmount",
          "type": "uint256"
        }
      ],
      "name": "redeemPledge",
      "outputs": [],
      "stateMutability": "nonpayable",
      "type": "function"
    },
    {
      "inputs": [
        {
          "internalType": "uint256",
          "name": "pledgeId",
          "type": "uint256"
        },
        {
          "internalType": "string",
          "name": "reason",
          "type": "string"
        }
      ],
      "name": "rejectPledge",
      "outputs": [],
      "stateMutability": "nonpayable",
      "type": "function"
    },
    {
      "inputs": [
        {
          "internalType": "bytes32",
          "name": "role",
          "type": "bytes32"
        },
        {
          "internalType": "address",
          "name": "account",
          "type": "address"
        }
      ],
      "name": "renounceRole",
      "outputs": [],
      "stateMutability": "nonpayable",
      "type": "function"
    },
    {
      "inputs": [
        {
          "internalType": "bytes32",
          "name": "role",
          "type": "bytes32"
        },
        {
          "internalType": "address",
          "name": "account",
          "type": "address"
        }
      ],
      "name": "revokeRole",
      "outputs": [],
      "stateMutability": "nonpayable",
      "type": "function"
    },
    {
      "inputs": [
        {
          "internalType": "enum IPledgeEscrow.AssetType",
          "name": "assetType",
          "type": "uint8"
        },
        {
          "internalType": "address",
          "name": "tokenContract",
          "type": "address"
        }
      ],
      "name": "setAssetTokenContract",
      "outputs": [],
      "stateMutability": "nonpayable",
      "type": "function"
    },
    {
      "inputs": [
        {
          "internalType": "bytes4",
          "name": "interfaceId",
          "type": "bytes4"
        }
      ],
      "name": "supportsInterface",
      "outputs": [
        {
          "internalType": "bool",
          "name": "",
          "type": "bool"
        }
      ],
      "stateMutability": "view",
      "type": "function"
    },
    {
      "inputs": [],
      "name": "unpause",
      "outputs": [],
      "stateMutability": "nonpayable",
      "type": "function"
    },
    {
      "inputs": [
        {
          "internalType": "uint256",
          "name": "_minAppraisalValue",
          "type": "uint256"
        },
        {
          "internalType": "uint256",
          "name": "_maxLTV",
          "type": "uint256"
        },
        {
          "internalType": "uint256",
          "name": "_defaultThreshold",
          "type": "uint256"
        }
      ],
      "name": "updateConfiguration",
      "outputs": [],
      "stateMutability": "nonpayable",
      "type": "function"
    },
    {
      "inputs": [
        {
          "internalType": "address",
          "name": "",
          "type": "address"
        },
        {
          "internalType": "uint256",
          "name": "",
          "type": "uint256"
        }
      ],
      "name": "userPledges",
      "outputs": [
        {
          "internalType": "uint256",
          "name": "",
          "type": "uint256"
        }
      ],
      "stateMutability": "view",
      "type": "function"
    }
  ],
  "bytecode": "0x608034620002b257601f62002d2c38819003918201601f1916830192916001600160401b03841183851017620002b75780839260409586528339602092839181010312620002b257516001600160a01b03811690819003620002b25760ff1960019181835416835582600255683635c9adc5dea00000600c55611b58600d556276a700600e558015620002645760018060a01b0319600454161760045581600355600091828052828452848320338452845260ff8584205416156200022f575b7fa49807205ce4d355092ef5a8a18f56e8913cf4a201fbe287825b095693c21775808452838552858420338552855260ff868520541615620001f8575b507f408a36151f841709116a4e8aca4e0202874f7f54687dcb863b1ea4672dc9d8cf808452838552858420338552855260ff868520541615620001c1575b507f9f2df0fed2c77648de5860a4cc508cd0818c85b8b8a1ab4ceeef8d981c8956a693848452838152858420338552815260ff86852054161562000188575b8551612a3e9081620002ce8239f35b848452838152858420903385525284832091825416179055339160008051602062002d0c833981519152339280a4388080808062000179565b808452838552858420338552855285842082848254161790553390339060008051602062002d0c8339815191528680a4386200013a565b808452838552858420338552855285842082848254161790553390339060008051602062002d0c8339815191528680a438620000fc565b8280528284528483203384528452848320818382541617905533338460008051602062002d0c8339815191528180a4620000bf565b845162461bcd60e51b815260048101859052602160248201527f506c65646765457363726f773a20696e76616c6964204e4654206164647265736044820152607360f81b6064820152608490fd5b600080fd5b634e487b7160e01b600052604160045260246000fdfe608080604052600436101561001357600080fd5b600090813560e01c90816301ffc9a714611cd557508063109d548114611cb7578063150b7a0214611c6057806318ea71cf14611bed578063248a9ca314611bc15780632f2ff15d14611b1357806336568abe14611a805780633f4ba83a146119eb5780634245962b146119b057806353f10a4b1461199257806359e4ab72146119425780635c975abb1461191f5780636ad53c4f146118f557806375b238fc146118ba57806378bdce7c146116d95780638456cb591461167f5780638556d1f2146115fd578063876f4e1c146102fb5780638df73793146115d257806391d148541461158a57806394391d80146114ab578063960782fd1461127857806397304ced14610f6c5780639acd542914610ecc578063a217fddf14610eb0578063aa159d0f14610d88578063ac12408114610ca6578063b1749f0e14610a58578063be1e9ddd14610a2e578063c30037e5146103b9578063c501651a1461033c578063cb51ee91146102fb578063d5391393146102c0578063d547741f14610280578063e0d99f691461022a578063e9bd539b1461020c578063f384bd05146101ee5763faa9342e146101c357600080fd5b346101eb57806003193601126101eb576004546040516001600160a01b039091168152602090f35b80fd5b50346101eb57806003193601126101eb576020600d54604051908152f35b50346101eb57806003193601126101eb576020600c54604051908152f35b50346101eb5760403660031901126101eb57610244611d2a565b6001600160a01b03168152600660205260408120805460243592908310156101eb5760206102728484611dfa565b90546040519160031b1c8152f35b50346101eb5760403660031901126101eb576102bd6004356102a0611d45565b90808452836020526102b86001604086200154612352565b61245c565b80f35b50346101eb57806003193601126101eb5760206040517f9f2df0fed2c77648de5860a4cc508cd0818c85b8b8a1ab4ceeef8d981c8956a68152f35b50346101eb5760203660031901126101eb576004356006811015610338576020906001600160a01b039061032e90611e8a565b5416604051908152f35b5080fd5b50346101eb5760603660031901126101eb5760243561035961201f565b612710811161037457600435600c55600d55604435600e5580f35b60405162461bcd60e51b815260206004820152601960248201527f506c65646765457363726f773a20696e76616c6964204c5456000000000000006044820152606490fd5b50346101eb5760603660031901126101eb57600660043510156101eb57604435906001600160401b0382116101eb5760e060031983360301126101eb576103fe6126a1565b61040661265d565b600c54602435106109e95761042160248301836004016125ef565b9050156109a45760c4820135156109535760035461043e81612621565b60035560018060a01b03600454169160208161045b6004356128d7565b946104a661046f60248901896004016125ef565b9390976104c0604051998a968795869463f9abc1af60e01b86523360048701528c602487015260c0604487015260c4860190611e65565b602435606486015284810360031901608486015291612630565b60c48b013560a483015203925af192831561094657819361090e575b506104ed60248501856004016125ef565b9490604051956104fc87611ef3565b84875233602088015261051460043560408901612651565b60243560608801528360808801528560a08801528360c08801524260e088015283610100880152836101208801526001600160401b0381116107dc5760405191610568601f8301601f191660200184611f58565b818352368282011161090a57602082849387938360c498970137830101526101408701520135610160850152818152600560205260408120845181556001810160018060a01b03602087015116815490604088015160068110156108f65760ff60a01b9060a01b16916affffffffffffffffffffff60a81b1617179055606085015160028201556080850151600382015560a085015160048201556005810160c086015160058110156108e25760ff8019835416911617905560e0850151600682015561010085015160078201556008810160018060a01b03610120870151166bffffffffffffffffffffffff60a01b8254161790556101408501519485516001600160401b0381116108ce576106826009840154611eb9565b601f8111610889575b506020601f821160011461081357918161016092600a94604098999a8892610808575b50508160011b916000199060031b1c19161760098501555b01519101558281526008602052838282205583815260096020528282822055338152600660205220918254926801000000000000000093848110156107dc57610719816107329360018794018155611dfa565b90919082549060031b91821b91600019901b1916179055565b600a54838110156107dc576001810180600a558110156107f2578290600a6000527fc65a7bb8d6351c1cf70c95a316cc6a92839c986682d98bc35f958f4883f9d2a80155600b54928310156107dc576107978261071985600160209701600b55611dc3565b6040519060243582528382015260043590827f82346044e813ab412ceeeb363f42380d14f83ec0f4a1342e44c01c6d2828f92a60403393a46001600255604051908152f35b634e487b7160e01b600052604160045260246000fd5b634e487b7160e01b600052603260045260246000fd5b0151905038806106ae565b6009840185526020852097855b601f19841681106108715750826040979899600a959360019361016096601f19811610610858575b505050811b0160098501556106c6565b015160001960f88460031b161c19169055388080610848565b828201518a5560019099019860209283019201610820565b60098401855260208520601f830160051c8101602084106108c7575b601f830160051c820181106108bb57505061068b565b600081556001016108a5565b50806108a5565b634e487b7160e01b84526041600452602484fd5b634e487b7160e01b84526021600452602484fd5b634e487b7160e01b86526021600452602486fd5b8480fd5b9092506020813d60201161093e575b8161092a60209383611f58565b8101031261093a575191386104dc565b8280fd5b3d915061091d565b50604051903d90823e3d90fd5b60405162461bcd60e51b815260206004820152602360248201527f506c65646765457363726f773a20696e76616c696420646f63756d656e7420686044820152620c2e6d60eb1b6064820152608490fd5b60405162461bcd60e51b815260206004820152601e60248201527f506c65646765457363726f773a20696e76616c6964206d6574616461746100006044820152606490fd5b60405162461bcd60e51b815260206004820152601b60248201527f506c65646765457363726f773a2076616c756520746f6f206c6f7700000000006044820152606490fd5b50346101eb5760203660031901126101eb5760406020916004358152600983522054604051908152f35b50346101eb57610a6736611ea3565b9080835260206005815260018060a01b03806001604087200154163303610c615782855260058252610a9e604086205415156126f5565b610aa66126a1565b828552600582526040852090600582019060ff8254166005811015610c4d576001610ad1911461278d565b60038301548603610c085790818392610af460ff60018b97015460a01c16611e8a565b5416610b018115156127d9565b803b1561090a5760405163079cc67960e41b8152336004820152602481018990529085908290604490829084905af1908115610bfd578591610be9575b5050600491600360ff19825416179055815416910154813b1561093a5782916064839260405194859384926323b872dd60e01b845230600485015233602485015260448401525af18015610bde57610bc6575b50507fc873af539f437a686909770aa53dd12d403cb89ece565f4896ad97ed59a17dc7906040519384523393a3600160025580f35b610bcf90611f0f565b610bda578338610b91565b8380fd5b6040513d84823e3d90fd5b610bf290611f0f565b610bda578338610b3e565b6040513d87823e3d90fd5b60405162461bcd60e51b815260048101859052601e60248201527f506c65646765457363726f773a20696e636f727265637420616d6f756e7400006044820152606490fd5b634e487b7160e01b88526021600452602488fd5b60405162461bcd60e51b815260048101839052601e60248201527f506c65646765457363726f773a206e6f7420706c65646765206f776e657200006044820152606490fd5b50346101eb5760203660031901126101eb576004358152600560205260409020805460018201546002830154926003810154936004820154600583015460ff16600684015490600785015492600160a01b6001900398896008880154169560098801610d1190611f79565b97600a0154986040519b8c9b8c52811660208c015260408b019060a01c60ff1690610d3b91611e12565b60608a0152608089015260a088015260c08701610d5791611e35565b60e0860152610100850152610120840152610180806101408501528301610d7d91611e65565b906101608301520390f35b50346101eb5760203660031901126101eb57600435610da561201f565b8082526005602052610dbc604083205415156126f5565b610dc46126a1565b8082526005602052604082209060058201805460ff811660058110156108f6576001610df0911461278d565b6007840154600e548101809111610e9a574210610e555760049060ff19161790557f7ace077080fe789aebbed2e8ef24412b9715ba705d02d5eca8e5f66e39f8e8f36020600360018060a01b03600186015416940154604051908152a3600160025580f35b60405162461bcd60e51b815260206004820152601c60248201527f506c65646765457363726f773a206e6f7420696e2064656661756c74000000006044820152606490fd5b634e487b7160e01b600052601160045260246000fd5b50346101eb57806003193601126101eb57602090604051908152f35b50346101eb5760403660031901126101eb57600435600681101561033857610ef2611d45565b610efa61201f565b6001600160a01b0316908115610f2757610f1390611e8a565b80546001600160a01b031916909117905580f35b60405162461bcd60e51b815260206004820152601e60248201527f506c65646765457363726f773a20696e76616c696420636f6e747261637400006044820152606490fd5b50346101eb5760208060031936011261033857600435907f9f2df0fed2c77648de5860a4cc508cd0818c85b8b8a1ab4ceeef8d981c8956a68060005260008252604060002033600052825260ff60406000205416156110fe5750600590828452818152610fde604085205415156126f5565b610fe66126a1565b82845252604082209060ff60058301541660058110156108e257600161100c911461278d565b600182018054936001600160a01b03919060038361103060a089901c60ff16611e8a565b54169561103e8715156127d9565b015495853b15610338576040516340c10f1960e01b81529084166001600160a01b03166004820152602481018790528181604481838a5af18015610bde576110ea575b505054604080516001600160a01b0386168152602081018790529290911692917f6561fc08ce5909ed17199a00bde41aafcbc56c1121de676484f7166d52000e529190a36001600255604080516001600160a01b039290921682526020820192909252f35b0390f35b6110f48291611f0f565b6101eb5780611081565b90611108336124e1565b9160405161111581611f3d565b604281528281019160603684378151156107f2576030835381516001908110156107f257607860218401536041905b8082116112345750506111f1576111bd936111cc9260489260405196879376020b1b1b2b9b9a1b7b73a3937b61d1030b1b1b7bab73a1604d1b88860152611194815180928a603789019101611e42565b8401917001034b99036b4b9b9b4b733903937b6329607d1b603784015251809386840190611e42565b01036028810185520183611f58565b6111ed60405192839262461bcd60e51b845260048401526024830190611e65565b0390fd5b6064836040519062461bcd60e51b825280600483015260248201527f537472696e67733a20686578206c656e67746820696e73756666696369656e746044820152fd5b9091600f811660108110156107f2576f181899199a1a9b1b9c1cb0b131b232b360811b901a61126384866124d0565b5360041c918015610e9a576000190190611144565b50346101eb5761128736611ea3565b9061129061220d565b80835260056020526112a7604084205415156126f5565b6112af6126a1565b808352600560205260408320600581019081549160ff83166005811015611497576112da9015612741565b841561144757612710850261270f1986820401611433576002830154801561141f57600d549104116113da576001869360ff191617905583600382015542600782015560088101336bffffffffffffffffffffffff60a01b82541617905561134183612831565b60048054910154906001600160a01b0316803b1561093a5760448392604051948593849263fc9e66df60e01b845260048401523060248401525af180156113cf576113bc575b506040519182527fef94743f0f60dd16c933bd7af4daf092f897dfe314268d41e7dea2dff36f42d860203393a3600160025580f35b6113c890939193611f0f565b9138611387565b6040513d86823e3d90fd5b60405162461bcd60e51b815260206004820152601a60248201527f506c65646765457363726f773a204c545620746f6f20686967680000000000006044820152606490fd5b634e487b7160e01b88526012600452602488fd5b634e487b7160e01b87526011600452602487fd5b60405162461bcd60e51b815260206004820152602260248201527f506c65646765457363726f773a20696e76616c696420746f6b656e20616d6f756044820152611b9d60f21b6064820152608490fd5b634e487b7160e01b87526021600452602487fd5b50346101eb5760403660031901126101eb576004356024356001600160401b03811161093a576114df903690600401611d5b565b91906114e961220d565b8184526005602052611500604085205415156126f5565b6115086126a1565b818452600560205260056040852001805460ff81166005811015611497579160027fc304327f8a408a58c7b370a40256a7777ee9494a9577291235bc9af262dad8ed949261155961157f9515612741565b60ff191617905561156984612831565b6040519182916020835233966020840191612630565b0390a3600160025580f35b50346101eb5760403660031901126101eb5760ff60406020926115ab611d45565b60043582528185528282206001600160a01b03909116825284522054604051911615158152f35b50346101eb5760203660031901126101eb5760043590600b548210156101eb57602061027283611dc3565b50346101eb57806003193601126101eb57604051600b80548083529083526020808301937f0175b7a638427703f0dbe7bb9bbf987a2551717b34e79f33b5b1008d1fa01db992915b828210611668576110e68561165c81890382611f58565b60405191829182611d88565b835486529485019460019384019390910190611645565b50346101eb57806003193601126101eb5761169861201f565b6116a061265d565b600160ff19815416176001557f62e78cea01bee320cd4e420270b5ea74000d11b0c9f74754ebdbfc544b05a2586020604051338152a180f35b50346101eb5760203660031901126101eb57806101606040516116fb81611ef3565b8281528260208201528260408201528260608201528260808201528260a08201528260c08201528260e082015282610100820152826101208201526060610140820152015260043581526005602052604081206040519061175b82611ef3565b8054825260018101546001600160a01b03811660208401526117869060a01c60ff1660408401612651565b6002810154606083015260038101546080830152600481015460a083015260ff60058201541660058110156108e25760c0830152600681015460e0830152600781015461010083015260088101546001600160a01b0316610120830152600a906117f260098201611f79565b61014084015201546101608201526040518091602082528051602083015260018060a01b03602082015116604083015261183460408201516060840190611e12565b60608101516080830152608081015160a083015260a081015160c083015261186460c082015160e0840190611e35565b60e081015161010083015261010081015161012083015260018060a01b03610120820151166101408301526101408101516101606118af6101809283838701526101a0860190611e65565b920151908301520390f35b50346101eb57806003193601126101eb5760206040517fa49807205ce4d355092ef5a8a18f56e8913cf4a201fbe287825b095693c217758152f35b50346101eb5760203660031901126101eb5760406020916004358152600883522054604051908152f35b50346101eb57806003193601126101eb57602060ff600154166040519015158152f35b50346101eb5760203660031901126101eb57600435600a5481101561033857600a602092527fc65a7bb8d6351c1cf70c95a316cc6a92839c986682d98bc35f958f4883f9d2a80154604051908152f35b50346101eb57806003193601126101eb576020600e54604051908152f35b50346101eb57806003193601126101eb5760206040517f408a36151f841709116a4e8aca4e0202874f7f54687dcb863b1ea4672dc9d8cf8152f35b50346101eb57806003193601126101eb57611a0461201f565b60015460ff811615611a445760ff19166001557f5db9ee0a495bf2e6ff9c91a7834c1ba4fdd244a5e8aa4e537bd38aeae4b073aa6020604051338152a180f35b60405162461bcd60e51b815260206004820152601460248201527314185d5cd8589b194e881b9bdd081c185d5cd95960621b6044820152606490fd5b50346101eb5760403660031901126101eb57611a9a611d45565b336001600160a01b03821603611ab6576102bd9060043561245c565b60405162461bcd60e51b815260206004820152602f60248201527f416363657373436f6e74726f6c3a2063616e206f6e6c792072656e6f756e636560448201526e103937b632b9903337b91039b2b63360891b6064820152608490fd5b50346101eb5760403660031901126101eb57600435611b30611d45565b81835282602052611b476001604085200154612352565b818352602083815260408085206001600160a01b039093168086529290915283205460ff1615611b75578280f35b818352826020526040832081845260205260408320600160ff1982541617905533917f2f8788117e7eff1d82e926ec794901d17c78024a50270940304540a733656f0d8480a438808280f35b50346101eb5760203660031901126101eb57600160406020926004358152808452200154604051908152f35b50346101eb57602080600319360112610338576001600160a01b03611c10611d2a565b1682526006815260408220916040518092808554928381520194835280832092905b828210611c49576110e68561165c81890382611f58565b835486529485019460019384019390910190611c32565b50346101eb5760803660031901126101eb57611c7a611d2a565b50611c83611d45565b506064356001600160401b03811161033857611ca3903690600401611d5b565b5050604051630a85bd0160e11b8152602090f35b50346101eb57806003193601126101eb576020600a54604051908152f35b9050346103385760203660031901126103385760043563ffffffff60e01b811680910361093a5760209250637965db0b60e01b8114908115611d19575b5015158152f35b6301ffc9a760e01b14905038611d12565b600435906001600160a01b0382168203611d4057565b600080fd5b602435906001600160a01b0382168203611d4057565b9181601f84011215611d40578235916001600160401b038311611d405760208381860195010111611d4057565b6020908160408183019282815285518094520193019160005b828110611daf575050505090565b835185529381019392810192600101611da1565b600b548110156107f257600b6000527f0175b7a638427703f0dbe7bb9bbf987a2551717b34e79f33b5b1008d1fa01db90190600090565b80548210156107f25760005260206000200190600090565b906006821015611e1f5752565b634e487b7160e01b600052602160045260246000fd5b906005821015611e1f5752565b60005b838110611e555750506000910152565b8181015183820152602001611e45565b90602091611e7e81518092818552858086019101611e42565b601f01601f1916010190565b6006811015611e1f576000526007602052604060002090565b6040906003190112611d40576004359060243590565b90600182811c92168015611ee9575b6020831014611ed357565b634e487b7160e01b600052602260045260246000fd5b91607f1691611ec8565b61018081019081106001600160401b038211176107dc57604052565b6001600160401b0381116107dc57604052565b604081019081106001600160401b038211176107dc57604052565b608081019081106001600160401b038211176107dc57604052565b90601f801991011681019081106001600160401b038211176107dc57604052565b9060405191826000825492611f8d84611eb9565b908184526001948581169081600014611ffc5750600114611fb9575b5050611fb792500383611f58565b565b9093915060005260209081600020936000915b818310611fe4575050611fb793508201013880611fa9565b85548884018501529485019487945091830191611fcc565b915050611fb794506020925060ff191682840152151560051b8201013880611fa9565b3360009081527f7d7ffb7a348e1c6a02869081a26547b49160dd3df72d1d75a570eb9b698292ec602090815260408083205490927fa49807205ce4d355092ef5a8a18f56e8913cf4a201fbe287825b095693c217759160ff16156120835750505050565b61208c336124e1565b9184519061209982611f3d565b604282528482019260603685378251156121f957603084538251906001918210156121f95790607860218501536041915b81831161218b575050506121495760486111ed93869361212d9361211e985198899376020b1b1b2b9b9a1b7b73a3937b61d1030b1b1b7bab73a1604d1b8a860152611194815180928c603789019101611e42565b01036028810187520185611f58565b5192839262461bcd60e51b845260048401526024830190611e65565b60648486519062461bcd60e51b825280600483015260248201527f537472696e67733a20686578206c656e67746820696e73756666696369656e746044820152fd5b909192600f811660108110156121e5576f181899199a1a9b1b9c1cb0b131b232b360811b901a6121bb85876124d0565b5360041c9280156121d1576000190191906120ca565b634e487b7160e01b82526011600452602482fd5b634e487b7160e01b83526032600452602483fd5b634e487b7160e01b81526032600452602490fd5b3360009081527f388301e6ac71f158ac8b29c21de3d490adc31828b570ec3663983f6bee199fa0602090815260408083205490927f408a36151f841709116a4e8aca4e0202874f7f54687dcb863b1ea4672dc9d8cf9160ff16156122715750505050565b61227a336124e1565b9184519061228782611f3d565b604282528482019260603685378251156121f957603084538251906001918210156121f95790607860218501536041915b81831161230c575050506121495760486111ed93869361212d9361211e985198899376020b1b1b2b9b9a1b7b73a3937b61d1030b1b1b7bab73a1604d1b8a860152611194815180928c603789019101611e42565b909192600f811660108110156121e5576f181899199a1a9b1b9c1cb0b131b232b360811b901a61233c85876124d0565b5360041c9280156121d1576000190191906122b8565b600090808252602090828252604092838120338252835260ff84822054161561237b5750505050565b612384336124e1565b9184519061239182611f3d565b604282528482019260603685378251156121f957603084538251906001918210156121f95790607860218501536041915b818311612416575050506121495760486111ed93869361212d9361211e985198899376020b1b1b2b9b9a1b7b73a3937b61d1030b1b1b7bab73a1604d1b8a860152611194815180928c603789019101611e42565b909192600f811660108110156121e5576f181899199a1a9b1b9c1cb0b131b232b360811b901a61244685876124d0565b5360041c9280156121d1576000190191906123c2565b9060009180835282602052604083209160018060a01b03169182845260205260ff60408420541661248c57505050565b80835282602052604083208284526020526040832060ff1981541690557ff6391f5c32d9c69d2a47ea670b442974b53935d1edc7fd64eb21e047a839171b339380a4565b9081518110156107f2570160200190565b60405190606082018281106001600160401b038211176107dc57604052602a82526020820160403682378251156107f2576030905381516001908110156107f257607860218401536029905b80821161258157505061253d5790565b606460405162461bcd60e51b815260206004820152602060248201527f537472696e67733a20686578206c656e67746820696e73756666696369656e746044820152fd5b9091600f811660108110156125da576f181899199a1a9b1b9c1cb0b131b232b360811b901a6125b084866124d0565b5360041c9180156125c557600019019061252d565b60246000634e487b7160e01b81526011600452fd5b60246000634e487b7160e01b81526032600452fd5b903590601e1981360301821215611d4057018035906001600160401b038211611d4057602001918136038313611d4057565b6000198114610e9a5760010190565b908060209392818452848401376000828201840152601f01601f1916010190565b6006821015611e1f5752565b60ff6001541661266957565b60405162461bcd60e51b815260206004820152601060248201526f14185d5cd8589b194e881c185d5cd95960821b6044820152606490fd5b60028054146126b05760028055565b60405162461bcd60e51b815260206004820152601f60248201527f5265656e7472616e637947756172643a207265656e7472616e742063616c6c006044820152606490fd5b156126fc57565b60405162461bcd60e51b815260206004820152601c60248201527f506c65646765457363726f773a20696e76616c696420706c65646765000000006044820152606490fd5b1561274857565b60405162461bcd60e51b815260206004820152601960248201527f506c65646765457363726f773a206e6f742070656e64696e67000000000000006044820152606490fd5b1561279457565b60405162461bcd60e51b815260206004820152601a60248201527f506c65646765457363726f773a206e6f7420617070726f7665640000000000006044820152606490fd5b156127e057565b60405162461bcd60e51b8152602060048201526024808201527f506c65646765457363726f773a20746f6b656e20636f6e7472616374206e6f74604482015263081cd95d60e21b6064820152608490fd5b60005b600b90815491828210156128d157839261284d83611dc3565b959054600396871b1c1461286d575050612868919250612621565b612834565b90925060001991828201918211610e9a5761071961288d61289993611dc3565b905490871b1c91611dc3565b815480156128bb578101926128ad84611dc3565b81939154921b1b1916905555565b634e487b7160e01b600052603160045260246000fd5b50505050565b6006811015611e1f5780156129e057600181146129bf576002811461299b576003811461297b5760048114612955576005146129305760405161291981611f22565b60078152662ab735b737bbb760c91b602082015290565b60405161293c81611f22565b6009815268436f6d6d6f6469747960b81b602082015290565b5060405161296281611f22565b6009815268115c5d5a5c1b595b9d60ba1b602082015290565b5060405161298881611f22565b6003815262105c9d60ea1b602082015290565b506040516129a881611f22565b600781526656656869636c6560c81b602082015290565b506040516129cc81611f22565b600481526311dbdb1960e21b602082015290565b506040516129ed81611f22565b600b81526a5265616c2045737461746560a81b60208201529056fea26469706673582212206e46114b0b4e1dba8d177942bbb8dae0bee7d050fb9f3cf7d82dbc37d9d03ad564736f6c634300081400332f8788117e7eff1d82e926ec794901d17c78024a50270940304540a733656f0d",
  "linkReferences": {},
  "deployedLinkReferences": {}
}