{
  "_format": "hh-sol-artifact-1",
  "contractName": "VehicleToken",
  "sourceName": "contracts/VehicleToken.sol",
  "abi": [
    {
      "inputs": [
        {
          "internalType": "address",
          "name": "admin",
          "type": "address"
        }
      ],
      "stateMutability": "nonpayable",
      "type": "constructor"
    },
    {
      "inputs": [
        {
          "internalType": "uint256",
          "name": "assetId",
          "type": "uint256"
        }
      ],
      "name": "AssetNotExists",
      "type": "error"
    },
    {
      "inputs": [
        {
          "internalType": "address",
          "name": "account",
          "type": "address"
        }
      ],
      "name": "BlacklistedAddress",
      "type": "error"
    },
    {
      "inputs": [
        {
          "internalType": "uint256",
          "name": "requested",
          "type": "uint256"
        },
        {
          "internalType": "uint256",
          "name": "maxSupply",
          "type": "uint256"
        }
      ],
      "name": "ExceedsMaxSupply",
      "type": "error"
    },
    {
      "inputs": [
        {
          "internalType": "uint256",
          "name": "requested",
          "type": "uint256"
        },
        {
          "internalType": "uint256",
          "name": "available",
          "type": "uint256"
        }
      ],
      "name": "InsufficientAllowance",
      "type": "error"
    },
    {
      "inputs": [
        {
          "internalType": "uint256",
          "name": "value",
          "type": "uint256"
        }
      ],
      "name": "InvalidAppraisalValue",
      "type": "error"
    },
    {
      "inputs": [],
      "name": "InvalidShortString",
      "type": "error"
    },
    {
      "inputs": [
        {
          "internalType": "string",
          "name": "str",
          "type": "string"
        }
      ],
      "name": "StringTooLong",
      "type": "error"
    },
    {
      "inputs": [
        {
          "internalType": "address",
          "name": "from",
          "type": "address"
        },
        {
          "internalType": "address",
          "name": "to",
          "type": "address"
        }
      ],
      "name": "UnauthorizedTransfer",
      "type": "error"
    },
    {
      "anonymous": false,
      "inputs": [
        {
          "indexed": true,
          "internalType": "address",
          "name": "owner",
          "type": "address"
        },
        {
          "indexed": true,
          "internalType": "address",
          "name": "spender",
          "type": "address"
        },
        {
          "indexed": false,
          "internalType": "uint256",
          "name": "value",
          "type": "uint256"
        }
      ],
      "name": "Approval",
      "type": "event"
    },
    {
      "anonymous": false,
      "inputs": [
        {
          "indexed": true,
          "internalType": "uint256",
          "name": "assetId",
          "type": "uint256"
        },
        {
          "indexed": false,
          "internalType": "string",
          "name": "field",
          "type": "string"
        },
        {
          "indexed": false,
          "internalType": "string",
          "name": "newValue",
          "type": "string"
        }
      ],
      "name": "AssetMetadataUpdated",
      "type": "event"
    },
    {
      "anonymous": false,
      "inputs": [
        {
          "indexed": true,
          "internalType": "uint256",
          "name": "assetId",
          "type": "uint256"
        },
        {
          "indexed": true,
          "internalType": "address",
          "name": "owner",
          "type": "address"
        },
        {
          "indexed": false,
          "internalType": "uint256",
          "name": "amount",
          "type": "uint256"
        },
        {
          "indexed": false,
          "internalType": "string",
          "name": "assetType",
          "type": "string"
        },
        {
          "indexed": false,
          "internalType": "uint256",
          "name": "appraisedValue",
          "type": "uint256"
        }
      ],
      "name": "AssetTokenized",
      "type": "event"
    },
    {
      "anonymous": false,
      "inputs": [
        {
          "indexed": true,
          "internalType": "address",
          "name": "account",
          "type": "address"
        },
        {
          "indexed": false,
          "internalType": "bool",
          "name": "blacklisted",
          "type": "bool"
        }
      ],
      "name": "ComplianceStatusChanged",
      "type": "event"
    },
    {
      "anonymous": false,
      "inputs": [],
      "name": "EIP712DomainChanged",
      "type": "event"
    },
    {
      "anonymous": false,
      "inputs": [
        {
          "indexed": false,
          "internalType": "address",
          "name": "account",
          "type": "address"
        }
      ],
      "name": "Paused",
      "type": "event"
    },
    {
      "anonymous": false,
      "inputs": [
        {
          "indexed": true,
          "internalType": "bytes32",
          "name": "role",
          "type": "bytes32"
        },
        {
          "indexed": true,
          "internalType": "bytes32",
          "name": "previousAdminRole",
          "type": "bytes32"
        },
        {
          "indexed": true,
          "internalType": "bytes32",
          "name": "newAdminRole",
          "type": "bytes32"
        }
      ],
      "name": "RoleAdminChanged",
      "type": "event"
    },
    {
      "anonymous": false,
      "inputs": [
        {
          "indexed": true,
          "internalType": "bytes32",
          "name": "role",
          "type": "bytes32"
        },
        {
          "indexed": true,
          "internalType": "address",
          "name": "account",
          "type": "address"
        },
        {
          "indexed": true,
          "internalType": "address",
          "name": "sender",
          "type": "address"
        }
      ],
      "name": "RoleGranted",
      "type": "event"
    },
    {
      "anonymous": false,
      "inputs": [
        {
          "indexed": true,
          "internalType": "bytes32",
          "name": "role",
          "type": "bytes32"
        },
        {
          "indexed": true,
          "internalType": "address",
          "name": "account",
          "type": "address"
        },
        {
          "indexed": true,
          "internalType": "address",
          "name": "sender",
          "type": "address"
        }
      ],
      "name": "RoleRevoked",
      "type": "event"
    },
    {
      "anonymous": false,
      "inputs": [
        {
          "indexed": false,
          "internalType": "uint256",
          "name": "oldCap",
          "type": "uint256"
        },
        {
          "indexed": false,
          "internalType": "uint256",
          "name": "newCap",
          "type": "uint256"
        }
      ],
      "name": "SupplyCapUpdated",
      "type": "event"
    },
    {
      "anonymous": false,
      "inputs": [
        {
          "indexed": true,
          "internalType": "address",
          "name": "from",
          "type": "address"
        },
        {
          "indexed": true,
          "internalType": "address",
          "name": "to",
          "type": "address"
        },
        {
          "indexed": false,
          "internalType": "uint256",
          "name": "value",
          "type": "uint256"
        }
      ],
      "name": "Transfer",
      "type": "event"
    },
    {
      "anonymous": false,
      "inputs": [
        {
          "indexed": false,
          "internalType": "address",
          "name": "account",
          "type": "address"
        }
      ],
      "name": "Unpaused",
      "type": "event"
    },
    {
      "anonymous": false,
      "inputs": [
        {
          "indexed": true,
          "internalType": "uint256",
          "name": "assetId",
          "type": "uint256"
        },
        {
          "indexed": false,
          "internalType": "string",
          "name": "make",
          "type": "string"
        },
        {
          "indexed": false,
          "internalType": "string",
          "name": "model",
          "type": "string"
        },
        {
          "indexed": false,
          "internalType": "uint256",
          "name": "year",
          "type": "uint256"
        },
        {
          "indexed": false,
          "internalType": "string",
          "name": "vin",
          "type": "string"
        }
      ],
      "name": "VehicleTokenized",
      "type": "event"
    },
    {
      "inputs": [],
      "name": "COMPLIANCE_ROLE",
      "outputs": [
        {
          "internalType": "bytes32",
          "name": "",
          "type": "bytes32"
        }
      ],
      "stateMutability": "view",
      "type": "function"
    },
    {
      "inputs": [],
      "name": "DEFAULT_ADMIN_ROLE",
      "outputs": [
        {
          "internalType": "bytes32",
          "name": "",
          "type": "bytes32"
        }
      ],
      "stateMutability": "view",
      "type": "function"
    },
    {
      "inputs": [],
      "name": "DOMAIN_SEPARATOR",
      "outputs": [
        {
          "internalType": "bytes32",
          "name": "",
          "type": "bytes32"
        }
      ],
      "stateMutability": "view",
      "type": "function"
    },
    {
      "inputs": [],
      "name": "MINTER_ROLE",
      "outputs": [
        {
          "internalType": "bytes32",
          "name": "",
          "type": "bytes32"
        }
      ],
      "stateMutability": "view",
      "type": "function"
    },
    {
      "inputs": [],
      "name": "PAUSER_ROLE",
      "outputs": [
        {
          "internalType": "bytes32",
          "name": "",
          "type": "bytes32"
        }
      ],
      "stateMutability": "view",
      "type": "function"
    },
    {
      "inputs": [
        {
          "internalType": "address",
          "name": "owner",
          "type": "address"
        },
        {
          "internalType": "address",
          "name": "spender",
          "type": "address"
        }
      ],
      "name": "allowance",
      "outputs": [
        {
          "internalType": "uint256",
          "name": "",
          "type": "uint256"
        }
      ],
      "stateMutability": "view",
      "type": "function"
    },
    {
      "inputs": [
        {
          "internalType": "address",
          "name": "spender",
          "type": "address"
        },
        {
          "internalType": "uint256",
          "name": "amount",
          "type": "uint256"
        }
      ],
      "name": "approve",
      "outputs": [
        {
          "internalType": "bool",
          "name": "",
          "type": "bool"
        }
      ],
      "stateMutability": "nonpayable",
      "type": "function"
    },
    {
      "inputs": [
        {
          "internalType": "uint256",
          "name": "",
          "type": "uint256"
        }
      ],
      "name": "assets",
      "outputs": [
        {
          "internalType": "string",
          "name": "assetType",
          "type": "string"
        },
        {
          "internalType": "string",
          "name": "description",
          "type": "string"
        },
        {
          "internalType": "string",
          "name": "location",
          "type": "string"
        },
        {
          "internalType": "uint256",
          "name": "appraisedValue",
          "type": "uint256"
        },
        {
          "internalType": "uint256",
          "name": "appraisalDate",
          "type": "uint256"
        },
        {
          "internalType": "string",
          "name": "appraisalCompany",
          "type": "string"
        },
        {
          "internalType": "string",
          "name": "documentHash",
          "type": "string"
        },
        {
          "internalType": "bool",
          "name": "isVerified",
          "type": "bool"
        },
        {
          "internalType": "uint256",
          "name": "createdAt",
          "type": "uint256"
        }
      ],
      "stateMutability": "view",
      "type": "function"
    },
    {
      "inputs": [
        {
          "internalType": "address",
          "name": "account",
          "type": "address"
        }
      ],
      "name": "balanceOf",
      "outputs": [
        {
          "internalType": "uint256",
          "name": "",
          "type": "uint256"
        }
      ],
      "stateMutability": "view",
      "type": "function"
    },
    {
      "inputs": [
        {
          "internalType": "address",
          "name": "",
          "type": "address"
        }
      ],
      "name": "blacklistedAddresses",
      "outputs": [
        {
          "internalType": "bool",
          "name": "",
          "type": "bool"
        }
      ],
      "stateMutability": "view",
      "type": "function"
    },
    {
      "inputs": [
        {
          "internalType": "address",
          "name": "from",
          "type": "address"
        },
        {
          "internalType": "uint256",
          "name": "amount",
          "type": "uint256"
        }
      ],
      "name": "burnFrom",
      "outputs": [],
      "stateMutability": "nonpayable",
      "type": "function"
    },
    {
      "inputs": [],
      "name": "complianceEnabled",
      "outputs": [
        {
          "internalType": "bool",
          "name": "",
          "type": "bool"
        }
      ],
      "stateMutability": "view",
      "type": "function"
    },
    {
      "inputs": [],
      "name": "decimals",
      "outputs": [
        {
          "internalType": "uint8",
          "name": "",
          "type": "uint8"
        }
      ],
      "stateMutability": "view",
      "type": "function"
    },
    {
      "inputs": [
        {
          "internalType": "address",
          "name": "spender",
          "type": "address"
        },
        {
          "internalType": "uint256",
          "name": "subtractedValue",
          "type": "uint256"
        }
      ],
      "name": "decreaseAllowance",
      "outputs": [
        {
          "internalType": "bool",
          "name": "",
          "type": "bool"
        }
      ],
      "stateMutability": "nonpayable",
      "type": "function"
    },
    {
      "inputs": [],
      "name": "eip712Domain",
      "outputs": [
        {
          "internalType": "bytes1",
          "name": "fields",
          "type": "bytes1"
        },
        {
          "internalType": "string",
          "name": "name",
          "type": "string"
        },
        {
          "internalType": "string",
          "name": "version",
          "type": "string"
        },
        {
          "internalType": "uint256",
          "name": "chainId",
          "type": "uint256"
        },
        {
          "internalType": "address",
          "name": "verifyingContract",
          "type": "address"
        },
        {
          "internalType": "bytes32",
          "name": "salt",
          "type": "bytes32"
        },
        {
          "internalType": "uint256[]",
          "name": "extensions",
          "type": "uint256[]"
        }
      ],
      "stateMutability": "view",
      "type": "function"
    },
    {
      "inputs": [
        {
          "internalType": "uint256",
          "name": "assetId",
          "type": "uint256"
        }
      ],
      "name": "getAssetMetadata",
      "outputs": [
        {
          "components": [
            {
              "internalType": "string",
              "name": "assetType",
              "type": "string"
            },
            {
              "internalType": "string",
              "name": "description",
              "type": "string"
            },
            {
              "internalType": "string",
              "name": "location",
              "type": "string"
            },
            {
              "internalType": "uint256",
              "name": "appraisedValue",
              "type": "uint256"
            },
            {
              "internalType": "uint256",
              "name": "appraisalDate",
              "type": "uint256"
            },
            {
              "internalType": "string",
              "name": "appraisalCompany",
              "type": "string"
            },
            {
              "internalType": "string",
              "name": "documentHash",
              "type": "string"
            },
            {
              "internalType": "bool",
              "name": "isVerified",
              "type": "bool"
            },
            {
              "internalType": "uint256",
              "name": "createdAt",
              "type": "uint256"
            }
          ],
          "internalType": "struct IAssetMetadata.AssetMetadata",
          "name": "",
          "type": "tuple"
        }
      ],
      "stateMutability": "view",
      "type": "function"
    },
    {
      "inputs": [],
      "name": "getCurrentAssetId",
      "outputs": [
        {
          "internalType": "uint256",
          "name": "",
          "type": "uint256"
        }
      ],
      "stateMutability": "view",
      "type": "function"
    },
    {
      "inputs": [
        {
          "internalType": "address",
          "name": "owner",
          "type": "address"
        }
      ],
      "name": "getOwnerAssets",
      "outputs": [
        {
          "internalType": "uint256[]",
          "name": "",
          "type": "uint256[]"
        }
      ],
      "stateMutability": "view",
      "type": "function"
    },
    {
      "inputs": [
        {
          "internalType": "bytes32",
          "name": "role",
          "type": "bytes32"
        }
      ],
      "name": "getRoleAdmin",
      "outputs": [
        {
          "internalType": "bytes32",
          "name": "",
          "type": "bytes32"
        }
      ],
      "stateMutability": "view",
      "type": "function"
    },
    {
      "inputs": [
        {
          "internalType": "uint256",
          "name": "assetId",
          "type": "uint256"
        }
      ],
      "name": "getVehicleData",
      "outputs": [
        {
          "components": [
            {
              "internalType": "string",
              "name": "make",
              "type": "string"
            },
            {
              "internalType": "string",
              "name": "model",
              "type": "string"
            },
            {
              "internalType": "uint256",
              "name": "year",
              "type": "uint256"
            },
            {
              "internalType": "string",
              "name": "vin",
              "type": "string"
            },
            {
              "internalType": "uint256",
              "name": "mileage",
              "type": "uint256"
            },
            {
              "internalType": "string",
              "name": "condition",
              "type": "string"
            },
            {
              "internalType": "string",
              "name": "fuelType",
              "type": "string"
            },
            {
              "internalType": "string",
              "name": "transmission",
              "type": "string"
            },
            {
              "internalType": "string",
              "name": "color",
              "type": "string"
            },
            {
              "internalType": "bool",
              "name": "hasAccidents",
              "type": "bool"
            },
            {
              "internalType": "uint256",
              "name": "numberOfOwners",
              "type": "uint256"
            },
            {
              "internalType": "string",
              "name": "titleStatus",
              "type": "string"
            }
          ],
          "internalType": "struct VehicleToken.VehicleData",
          "name": "",
          "type": "tuple"
        }
      ],
      "stateMutability": "view",
      "type": "function"
    },
    {
      "inputs": [
        {
          "internalType": "bytes32",
          "name": "role",
          "type": "bytes32"
        },
        {
          "internalType": "address",
          "name": "account",
          "type": "address"
        }
      ],
      "name": "grantRole",
      "outputs": [],
      "stateMutability": "nonpayable",
      "type": "function"
    },
    {
      "inputs": [
        {
          "internalType": "bytes32",
          "name": "role",
          "type": "bytes32"
        },
        {
          "internalType": "address",
          "name": "account",
          "type": "address"
        }
      ],
      "name": "hasRole",
      "outputs": [
        {
          "internalType": "bool",
          "name": "",
          "type": "bool"
        }
      ],
      "stateMutability": "view",
      "type": "function"
    },
    {
      "inputs": [
        {
          "internalType": "address",
          "name": "spender",
          "type": "address"
        },
        {
          "internalType": "uint256",
          "name": "addedValue",
          "type": "uint256"
        }
      ],
      "name": "increaseAllowance",
      "outputs": [
        {
          "internalType": "bool",
          "name": "",
          "type": "bool"
        }
      ],
      "stateMutability": "nonpayable",
      "type": "function"
    },
    {
      "inputs": [],
      "name": "maxSupply",
      "outputs": [
        {
          "internalType": "uint256",
          "name": "",
          "type": "uint256"
        }
      ],
      "stateMutability": "view",
      "type": "function"
    },
    {
      "inputs": [
        {
          "internalType": "address",
          "name": "to",
          "type": "address"
        },
        {
          "internalType": "uint256",
          "name": "amount",
          "type": "uint256"
        }
      ],
      "name": "mint",
      "outputs": [],
      "stateMutability": "nonpayable",
      "type": "function"
    },
    {
      "inputs": [
        {
          "internalType": "address",
          "name": "to",
          "type": "address"
        },
        {
          "internalType": "uint256",
          "name": "amount",
          "type": "uint256"
        },
        {
          "internalType": "string",
          "name": "assetType",
          "type": "string"
        },
        {
          "internalType": "string",
          "name": "description",
          "type": "string"
        },
        {
          "internalType": "string",
          "name": "location",
          "type": "string"
        },
        {
          "internalType": "uint256",
          "name": "appraisedValue",
          "type": "uint256"
        },
        {
          "internalType": "string",
          "name": "appraisalCompany",
          "type": "string"
        },
        {
          "internalType": "string",
          "name": "documentHash",
          "type": "string"
        }
      ],
      "name": "mintAsset",
      "outputs": [
        {
          "internalType": "uint256",
          "name": "",
          "type": "uint256"
        }
      ],
      "stateMutability": "nonpayable",
      "type": "function"
    },
    {
      "inputs": [
        {
          "internalType": "address",
          "name": "to",
          "type": "address"
        },
        {
          "internalType": "uint256",
          "name": "amount",
          "type": "uint256"
        },
        {
          "internalType": "string",
          "name": "description",
          "type": "string"
        },
        {
          "internalType": "string",
          "name": "location",
          "type": "string"
        },
        {
          "internalType": "uint256",
          "name": "appraisedValue",
          "type": "uint256"
        },
        {
          "internalType": "string",
          "name": "appraisalCompany",
          "type": "string"
        },
        {
          "internalType": "string",
          "name": "documentHash",
          "type": "string"
        },
        {
          "internalType": "string",
          "name": "make",
          "type": "string"
        },
        {
          "internalType": "string",
          "name": "model",
          "type": "string"
        },
        {
          "internalType": "uint256",
          "name": "year",
          "type": "uint256"
        },
        {
          "internalType": "string",
          "name": "vin",
          "type": "string"
        },
        {
          "internalType": "uint256",
          "name": "mileage",
          "type": "uint256"
        },
        {
          "internalType": "string",
          "name": "condition",
          "type": "string"
        },
        {
          "internalType": "string",
          "name": "fuelType",
          "type": "string"
        },
        {
          "internalType": "string",
          "name": "transmission",
          "type": "string"
        },
        {
          "internalType": "string",
          "name": "color",
          "type": "string"
        },
        {
          "internalType": "bool",
          "name": "hasAccidents",
          "type": "bool"
        },
        {
          "internalType": "uint256",
          "name": "numberOfOwners",
          "type": "uint256"
        },
        {
          "internalType": "string",
          "name": "titleStatus",
          "type": "string"
        }
      ],
      "name": "mintVehicle",
      "outputs": [
        {
          "internalType": "uint256",
          "name": "",
          "type": "uint256"
        }
      ],
      "stateMutability": "nonpayable",
      "type": "function"
    },
    {
      "inputs": [],
      "name": "name",
      "outputs": [
        {
          "internalType": "string",
          "name": "",
          "type": "string"
        }
      ],
      "stateMutability": "view",
      "type": "function"
    },
    {
      "inputs": [
        {
          "internalType": "address",
          "name": "owner",
          "type": "address"
        }
      ],
      "name": "nonces",
      "outputs": [
        {
          "internalType": "uint256",
          "name": "",
          "type": "uint256"
        }
      ],
      "stateMutability": "view",
      "type": "function"
    },
    {
      "inputs": [
        {
          "internalType": "address",
          "name": "",
          "type": "address"
        },
        {
          "internalType": "uint256",
          "name": "",
          "type": "uint256"
        }
      ],
      "name": "ownerAssets",
      "outputs": [
        {
          "internalType": "uint256",
          "name": "",
          "type": "uint256"
        }
      ],
      "stateMutability": "view",
      "type": "function"
    },
    {
      "inputs": [],
      "name": "pause",
      "outputs": [],
      "stateMutability": "nonpayable",
      "type": "function"
    },
    {
      "inputs": [],
      "name": "paused",
      "outputs": [
        {
          "internalType": "bool",
          "name": "",
          "type": "bool"
        }
      ],
      "stateMutability": "view",
      "type": "function"
    },
    {
      "inputs": [
        {
          "internalType": "address",
          "name": "owner",
          "type": "address"
        },
        {
          "internalType": "address",
          "name": "spender",
          "type": "address"
        },
        {
          "internalType": "uint256",
          "name": "value",
          "type": "uint256"
        },
        {
          "internalType": "uint256",
          "name": "deadline",
          "type": "uint256"
        },
        {
          "internalType": "uint8",
          "name": "v",
          "type": "uint8"
        },
        {
          "internalType": "bytes32",
          "name": "r",
          "type": "bytes32"
        },
        {
          "internalType": "bytes32",
          "name": "s",
          "type": "bytes32"
        }
      ],
      "name": "permit",
      "outputs": [],
      "stateMutability": "nonpayable",
      "type": "function"
    },
    {
      "inputs": [
        {
          "internalType": "bytes32",
          "name": "role",
          "type": "bytes32"
        },
        {
          "internalType": "address",
          "name": "account",
          "type": "address"
        }
      ],
      "name": "renounceRole",
      "outputs": [],
      "stateMutability": "nonpayable",
      "type": "function"
    },
    {
      "inputs": [
        {
          "internalType": "bytes32",
          "name": "role",
          "type": "bytes32"
        },
        {
          "internalType": "address",
          "name": "account",
          "type": "address"
        }
      ],
      "name": "revokeRole",
      "outputs": [],
      "stateMutability": "nonpayable",
      "type": "function"
    },
    {
      "inputs": [
        {
          "internalType": "address",
          "name": "account",
          "type": "address"
        },
        {
          "internalType": "bool",
          "name": "blacklisted",
          "type": "bool"
        }
      ],
      "name": "setBlacklisted",
      "outputs": [],
      "stateMutability": "nonpayable",
      "type": "function"
    },
    {
      "inputs": [
        {
          "internalType": "bool",
          "name": "enabled",
          "type": "bool"
        }
      ],
      "name": "setComplianceEnabled",
      "outputs": [],
      "stateMutability": "nonpayable",
      "type": "function"
    },
    {
      "inputs": [
        {
          "internalType": "address",
          "name": "account",
          "type": "address"
        },
        {
          "internalType": "bool",
          "name": "whitelisted",
          "type": "bool"
        }
      ],
      "name": "setWhitelisted",
      "outputs": [],
      "stateMutability": "nonpayable",
      "type": "function"
    },
    {
      "inputs": [
        {
          "internalType": "bytes4",
          "name": "interfaceId",
          "type": "bytes4"
        }
      ],
      "name": "supportsInterface",
      "outputs": [
        {
          "internalType": "bool",
          "name": "",
          "type": "bool"
        }
      ],
      "stateMutability": "view",
      "type": "function"
    },
    {
      "inputs": [],
      "name": "symbol",
      "outputs": [
        {
          "internalType": "string",
          "name": "",
          "type": "string"
        }
      ],
      "stateMutability": "view",
      "type": "function"
    },
    {
      "inputs": [],
      "name": "totalSupply",
      "outputs": [
        {
          "internalType": "uint256",
          "name": "",
          "type": "uint256"
        }
      ],
      "stateMutability": "view",
      "type": "function"
    },
    {
      "inputs": [
        {
          "internalType": "address",
          "name": "to",
          "type": "address"
        },
        {
          "internalType": "uint256",
          "name": "amount",
          "type": "uint256"
        }
      ],
      "name": "transfer",
      "outputs": [
        {
          "internalType": "bool",
          "name": "",
          "type": "bool"
        }
      ],
      "stateMutability": "nonpayable",
      "type": "function"
    },
    {
      "inputs": [
        {
          "internalType": "address",
          "name": "from",
          "type": "address"
        },
        {
          "internalType": "address",
          "name": "to",
          "type": "address"
        },
        {
          "internalType": "uint256",
          "name": "amount",
          "type": "uint256"
        }
      ],
      "name": "transferFrom",
      "outputs": [
        {
          "internalType": "bool",
          "name": "",
          "type": "bool"
        }
      ],
      "stateMutability": "nonpayable",
      "type": "function"
    },
    {
      "inputs": [],
      "name": "unpause",
      "outputs": [],
      "stateMutability": "nonpayable",
      "type": "function"
    },
    {
      "inputs": [
        {
          "internalType": "uint256",
          "name": "assetId",
          "type": "uint256"
        },
        {
          "internalType": "uint256",
          "name": "newValue",
          "type": "uint256"
        },
        {
          "internalType": "string",
          "name": "newAppraisalCompany",
          "type": "string"
        }
      ],
      "name": "updateAppraisedValue",
      "outputs": [],
      "stateMutability": "nonpayable",
      "type": "function"
    },
    {
      "inputs": [
        {
          "internalType": "uint256",
          "name": "assetId",
          "type": "uint256"
        },
        {
          "internalType": "string",
          "name": "field",
          "type": "string"
        },
        {
          "internalType": "string",
          "name": "newValue",
          "type": "string"
        }
      ],
      "name": "updateAssetMetadata",
      "outputs": [],
      "stateMutability": "nonpayable",
      "type": "function"
    },
    {
      "inputs": [
        {
          "internalType": "uint256",
          "name": "assetId",
          "type": "uint256"
        },
        {
          "internalType": "string",
          "name": "newCondition",
          "type": "string"
        }
      ],
      "name": "updateCondition",
      "outputs": [],
      "stateMutability": "nonpayable",
      "type": "function"
    },
    {
      "inputs": [
        {
          "internalType": "uint256",
          "name": "newMaxSupply",
          "type": "uint256"
        }
      ],
      "name": "updateMaxSupply",
      "outputs": [],
      "stateMutability": "nonpayable",
      "type": "function"
    },
    {
      "inputs": [
        {
          "internalType": "uint256",
          "name": "assetId",
          "type": "uint256"
        },
        {
          "internalType": "uint256",
          "name": "newMileage",
          "type": "uint256"
        }
      ],
      "name": "updateMileage",
      "outputs": [],
      "stateMutability": "nonpayable",
      "type": "function"
    },
    {
      "inputs": [
        {
          "internalType": "uint256",
          "name": "",
          "type": "uint256"
        }
      ],
      "name": "vehicleData",
      "outputs": [
        {
          "internalType": "string",
          "name": "make",
          "type": "string"
        },
        {
          "internalType": "string",
          "name": "model",
          "type": "string"
        },
        {
          "internalType": "uint256",
          "name": "year",
          "type": "uint256"
        },
        {
          "internalType": "string",
          "name": "vin",
          "type": "string"
        },
        {
          "internalType": "uint256",
          "name": "mileage",
          "type": "uint256"
        },
        {
          "internalType": "string",
          "name": "condition",
          "type": "string"
        },
        {
          "internalType": "string",
          "name": "fuelType",
          "type": "string"
        },
        {
          "internalType": "string",
          "name": "transmission",
          "type": "string"
        },
        {
          "internalType": "string",
          "name": "color",
          "type": "string"
        },
        {
          "internalType": "bool",
          "name": "hasAccidents",
          "type": "bool"
        },
        {
          "internalType": "uint256",
          "name": "numberOfOwners",
          "type": "uint256"
        },
        {
          "internalType": "string",
          "name": "titleStatus",
          "type": "string"
        }
      ],
      "stateMutability": "view",
      "type": "function"
    },
    {
      "inputs": [
        {
          "internalType": "uint256",
          "name": "assetId",
          "type": "uint256"
        }
      ],
      "name": "verifyAsset",
      "outputs": [],
      "stateMutability": "nonpayable",
      "type": "function"
    },
    {
      "inputs": [
        {
          "internalType": "string",
          "name": "",
          "type": "string"
        }
      ],
      "name": "vinExists",
      "outputs": [
        {
          "internalType": "bool",
          "name": "",
          "type": "bool"
        }
      ],
      "stateMutability": "view",
      "type": "function"
    },
    {
      "inputs": [
        {
          "internalType": "address",
          "name": "",
          "type": "address"
        }
      ],
      "name": "whitelistedAddresses",
      "outputs": [
        {
          "internalType": "bool",
          "name": "",
          "type": "bool"
        }
      ],
      "stateMutability": "view",
      "type": "function"
    }
  ],
  "bytecode": "0x610160346200077c57601f6200686438819003918201601f19168301916001600160401b038311848410176200055c578084926020946040528339810103126200077c57516001600160a01b03811681036200077c57604051620000638162000781565b600d81526c2b32b434b1b632902a37b5b2b760991b6020820152604051916200008c8362000781565b600383526215915560ea1b602084015260405191620000ab8362000781565b60018352603160f81b602084015280516001600160401b0381116200055c57600354600181811c9116801562000771575b60208210146200065157601f811162000707575b50806020601f82116001146200067e5760009162000672575b508160011b916000199060031b1c1916176003555b83516001600160401b0381116200055c57600454600181811c9116801562000667575b60208210146200065157601f8111620005eb575b50602094601f82116001146200057e5794819293949560009262000572575b50508160011b916000199060031b1c1916176004555b62000195816200079d565b91610120928352620001a78462000961565b9161014092835260208151910120938460e05260208151910120610100948186524660a0526040519160208301917f8b73c3c69bb8fe3d512ecc4cf759cc79239f7b179b0ffacaa9a75d522b39400f8352604084015260608301524660808301523060a083015260a0825260c082019082821060018060401b038311176200055c5781604052825190206080523060c05260ff199182600954166009556001600b55600183601054161760105560018060a01b03841615620005185750506001600160a01b03821660009081527f13da86008ba1c6922daee3e07db95305ef49ebced9f5467a0b8613fcc6b343e36020526040902054600a919060ff1615620004d4575b7f9f2df0fed2c77648de5860a4cc508cd0818c85b8b8a1ab4ceeef8d981c8956a66000818152602084815260408083206001600160a01b038816845290915290205460ff16156200048d575b507f65d7a28e3265b37a6474929f336521b332c1681b933f6cb9f3376673440d862a6000818152602084815260408083206001600160a01b038816845290915290205460ff161562000446575b507f442a94f1a1fac79af32856af2a64f63648cfa2ef3b98610a5bb7cbec4cee6985918260005280602052604060002060018060a01b03851660005260205260ff6040600020541615620003f4575b505050506969e10de76676d0800000601255600160115560405191615d2a938462000b1a85396080518461561c015260a051846156e7015260c051846155e6015260e0518461566b0152518361569101525182611ca101525181611cca0152f35b82600052602052604060002060018060a01b0384166000526020526001604060002091825416179055339160018060a01b03169060008051602062006844833981519152600080a43880808062000393565b6000818152602084815260408083206001600160a01b0388168085529252822080548516600117905533929091600080516020620068448339815191529080a43862000344565b6000818152602084815260408083206001600160a01b0388168085529252822080548516600117905533929091600080516020620068448339815191529080a438620002f7565b6000808052602083815260408083206001600160a01b038716808552925282208054841660011790553391600080516020620068448339815191528180a4620002ab565b62461bcd60e51b8252602060c4820152601560e48201527f496e76616c69642061646d696e2061646472657373000000000000000000000061010490910152606490fd5b634e487b7160e01b600052604160045260246000fd5b01519050388062000174565b601f19821695600460005260206000209160005b888110620005d257508360019596979810620005b8575b505050811b016004556200018a565b015160001960f88460031b161c19169055388080620005a9565b9192602060018192868501518155019401920162000592565b60046000527f8a35acfbc15ff81a39ae7d344fd709f28e8600b4aa8c65c6b64bfe7fe36bd19b601f830160051c81016020841062000649575b601f830160051c820181106200063c57505062000155565b6000815560010162000624565b508062000624565b634e487b7160e01b600052602260045260246000fd5b90607f169062000141565b90508201513862000109565b600360009081527fc2575a0e9e593c00f959f8c92f12db2869c3395a3b0502d05e2516446f71f85b9250601f198416905b818110620006ee57509083600194939210620006d4575b5050811b016003556200011e565b84015160001960f88460031b161c191690553880620006c6565b91926020600181928689015181550194019201620006af565b60036000527fc2575a0e9e593c00f959f8c92f12db2869c3395a3b0502d05e2516446f71f85b601f830160051c8101916020841062000766575b601f0160051c01905b818110620007595750620000f0565b600081556001016200074a565b909150819062000741565b90607f1690620000dc565b600080fd5b604081019081106001600160401b038211176200055c57604052565b805160209190828110156200083c575090601f825111620007db5780825192015190808310620007cc57501790565b82600019910360031b1b161790565b90604051809263305a27a960e01b82528060048301528251908160248401526000935b82851062000822575050604492506000838284010152601f80199101168101030190fd5b8481018201518686016044015293810193859350620007fe565b6001600160401b0381116200055c576005928354926001938481811c9116801562000956575b838210146200065157601f81116200091f575b5081601f8411600114620008b55750928293918392600094620008a9575b50501b916000199060031b1c191617905560ff90565b01519250388062000893565b919083601f1981168760005284600020946000905b88838310620009045750505010620008ea575b505050811b01905560ff90565b015160001960f88460031b161c19169055388080620008dd565b858701518855909601959485019487935090810190620008ca565b8560005284601f846000209201871c820191601f8601881c015b8281106200094957505062000875565b6000815501859062000939565b90607f169062000862565b805160209081811015620009ef5750601f8251116200098e5780825192015190808310620007cc57501790565b90604051809263305a27a960e01b82528060048301528251908160248401526000935b828510620009d5575050604492506000838284010152601f80199101168101030190fd5b8481018201518686016044015293810193859350620009b1565b906001600160401b0382116200055c57600654926001938481811c9116801562000b0e575b838210146200065157601f811162000ad4575b5081601f841160011462000a68575092829391839260009462000a5c575b50501b916000199060031b1c19161760065560ff90565b01519250388062000a45565b919083601f198116600660005284600020946000905b8883831062000ab9575050501062000a9f575b505050811b0160065560ff90565b015160001960f88460031b161c1916905538808062000a91565b85870151885590960195948501948793509081019062000a7e565b600660005284601f84600020920160051c820191601f860160051c015b82811062000b0157505062000a27565b6000815501859062000af1565b90607f169062000a1456fe608080604052600436101561001357600080fd5b60003560e01c90816301ffc9a7146147a5575080630409d1121461465b578063041199e11461443f578063062d3bd71461440457806306c933d8146143c557806306fdde031461431f578063095ea7b3146142f957806318160ddd146142db5780631a91bd6b14612c6b57806323b872dd14612bad578063248a9ca314612b7e5780632d38f89b14612af35780632f2ff15d14612a40578063313ce56714612a245780633644e51514612a0157806336568abe1461296f578063395093511461291e5780633c2fd950146122325780633f4ba83a1461219e57806340c10f19146120e7578063455bd9511461208f57806359fd285c14611ff25780635c975abb14611fcf57806370a0823114611f9557806379cc679014611dfd5780637ecebe0014611dc35780638456cb5914611d6957806384b0196e14611c8b57806391d1485414611c3e5780639281aa0b14611beb57806394c5b2fc14611bcd57806395d89b4114611aeb578063a217fddf14611acf578063a457c2d714611a28578063a9059cbb146119f7578063aabae7a31461104c578063bb3c510d14610ee0578063c8920eb114610c86578063c983154114610bd8578063cf2acf8414610a0e578063cf35bdd014610921578063d01dd6d2146108a3578063d505accf146106ea578063d5391393146106af578063d547741f1461066e578063d5749d421461062f578063d5abeb0114610611578063d83c8270146105ee578063dd62ed3e1461059d578063dfda7c341461053c578063e04e77f714610503578063e63ab1e9146104c85763f103b4331461026657600080fd5b346104c3576020806003193601126104c35760043560008052600a8252604060002033600052825260ff604060002054161561031b5760025481106102dd577fb4d96b3a6638191d0f6aefa0fdc4d99af3592f4c97480e31feeb977723c63b539160409160125491816012558351928352820152a1005b60405162461bcd60e51b81526004810183905260166024820152754e6577206d617820737570706c7920746f6f206c6f7760501b6044820152606490fd5b506103253361532c565b90600060405161033481614885565b604281528281019160603684378151156104ad576030835381516001908110156104ad57607860218401536041905b808211610453575050610410576103dc936103eb9260489260405196879376020b1b1b2b9b9a1b7b73a3937b61d1030b1b1b7bab73a1604d1b888601526103b3815180928a603789019101614967565b8401917001034b99036b4b9b9b4b733903937b6329607d1b603784015251809386840190614967565b010360288101855201836148a0565b61040c60405192839262461bcd60e51b84526004840152602483019061498a565b0390fd5b6064836040519062461bcd60e51b825280600483015260248201527f537472696e67733a20686578206c656e67746820696e73756666696369656e746044820152fd5b9091600f811660108110156104ad576f181899199a1a9b1b9c1cb0b131b232b360811b901a610482848661531b565b5360041c918015610497576000190190610363565b634e487b7160e01b600052601160045260246000fd5b634e487b7160e01b600052603260045260246000fd5b600080fd5b346104c35760003660031901126104c35760206040517f65d7a28e3265b37a6474929f336521b332c1681b933f6cb9f3376673440d862a8152f35b346104c35760203660031901126104c3576004358015158091036104c357610529614a98565b60ff801960105416911617601055600080f35b346104c35760203660031901126104c3576004356001600160401b0381116104c35760ff6105876020610574819436906004016149ca565b8160405193828580945193849201614967565b8101601481520301902054166040519015158152f35b346104c35760403660031901126104c3576105b6614a11565b6105be614a27565b9060018060a01b038091166000526001602052604060002091166000526020526020604060002054604051908152f35b346104c35760003660031901126104c357602060ff601054166040519015158152f35b346104c35760003660031901126104c3576020601254604051908152f35b346104c35760203660031901126104c3576001600160a01b03610650614a11565b16600052600e602052602060ff604060002054166040519015158152f35b346104c35760403660031901126104c3576106ad60043561068d614a27565b9080600052600a6020526106a8600160406000200154614f10565b61501b565b005b346104c35760003660031901126104c35760206040517f9f2df0fed2c77648de5860a4cc508cd0818c85b8b8a1ab4ceeef8d981c8956a68152f35b346104c35760e03660031901126104c357610703614a11565b61070b614a27565b6044359060843560643560ff821682036104c35780421161085e5760018060a01b0390818616928360005260076020526040600020908154916001830190556040519260208401927f6e71edae12b1b97f4d1f60370fef10105fa2faae0126114a169c64845d6126c98452866040860152858816606086015288608086015260a085015260c084015260c0835260e08301918383106001600160401b03841117610848576107f4936107ec936040525190206107c56155e3565b906040519161190160f01b83526002830152602282015260c43591604260a4359220615554565b91909161543a565b1603610803576106ad92615219565b60405162461bcd60e51b815260206004820152601e60248201527f45524332305065726d69743a20696e76616c6964207369676e617475726500006044820152606490fd5b634e487b7160e01b600052604160045260246000fd5b60405162461bcd60e51b815260206004820152601d60248201527f45524332305065726d69743a206578706972656420646561646c696e650000006044820152606490fd5b346104c35760403660031901126104c3576108bc614a11565b7ff1bf4fdc75f29b6c8f35b7808597b7e9c104efd356c3f8ee86e76023da1417e060206108e7614a3d565b926108f0614a98565b6001600160a01b03166000818152600e835260409020805460ff191660ff86151516179055926040519015158152a2005b346104c35760203660031901126104c357600435600052600c6020526109ba604060002061094e816148c1565b9061095b600182016148c1565b6109fc61096a600284016148c1565b6109ee60038501546004860154610983600588016148c1565b906109d661099360068a016148c1565b956109c8600860ff60078d0154169b0154996040519d8e9d8e61012090818152019061498a565b8d810360208f01529061498a565b908b820360408d015261498a565b9260608a0152608089015287820360a089015261498a565b9085820360c087015261498a565b91151560e08401526101008301520390f35b346104c3576020806003193601126104c35760043560405191610a308361484e565b6060918284528282850152826040850152600083850152600060808501528260a08501528260c0850152600060e085015260006101008095015280600052600c825260086040600020015415610bc057600052600c815260406000209060405192610a9a8461484e565b610aa3836148c1565b8452610ab1600184016148c1565b84830190815294610ac4600285016148c1565b956040860196875260038501548387019081526004860154906080880191825260058701610af1906148c1565b60a08901908152610b04600689016148c1565b9260c08a01938452600789015460ff169860e08b019915158a526008015496868b019788526040519b8c9b8a8d52518c6101209b8c9101526101408d01610b4a9161498a565b9651601f198d8903810160408f015297610b639161498a565b905191878d830301908d0152610b789161498a565b925160808b01525160a08a01525190838982030160c08a0152610b9a9161498a565b9051918782030160e0880152610baf9161498a565b935115159085015251908301520390f35b602490604051906343ce9af560e01b82526004820152fd5b346104c35760403660031901126104c357602435600435610bf7614a98565b80600052600c602052610c136008604060002001541515615c91565b8060005260136020526004604060002001548210610c41576000526013602052600460406000200155600080f35b60405162461bcd60e51b815260206004820152601760248201527f4d696c656167652063616e6e6f742064656372656173650000000000000000006044820152606490fd5b346104c35760203660031901126104c3576004356060610160604051610cab81614832565b828152826020820152600060408201528280820152600060808201528260a08201528260c08201528260e08201528261010082015260006101208201526000610140820152015280600052600c602052610d0e6008604060002001541515615c91565b6000526013602052610edc6040600020610dd7600b60405192610d3084614832565b610d39816148c1565b8452610d47600182016148c1565b602085015260028101546040850152610d62600382016148c1565b606085015260048101546080850152610d7d600582016148c1565b60a0850152610d8e600682016148c1565b60c0850152610d9f600782016148c1565b60e0850152610db0600882016148c1565b61010085015260ff6009820154161515610120850152600a810154610140850152016148c1565b61016082015260405191829160208352610160610eaf610e97610e80610e6a610e4a610e2a610e14885161018060208d01526101a08c019061498a565b60208901518b8203601f190160408d015261498a565b604088015160608b01526060880151601f198b83030160808c015261498a565b608087015160a08a015260a0870151601f198a83030160c08b015261498a565b60c0860151888203601f190160e08a015261498a565b60e0850151878203601f190161010089015261498a565b610100840151868203601f190161012088015261498a565b916101208101511515610140860152610140810151828601520151601f198483030161018085015261498a565b0390f35b346104c35760403660031901126104c3576001600160401b036004356024358281116104c357610f149036906004016149ca565b91610f1d614a98565b81600052602091600c8352610f3b6008604060002001541515615c91565b60005260138252600560406000200191835191821161084857610f5e83546147f8565b601f8111611006575b5080601f8311600114610fa35750819293600092610f98575b5050600019600383901b1c191660019190911b179055005b015190508380610f80565b90601f198316948460005282600020926000905b878210610fee575050836001959610610fd5575b505050811b019055005b015160001960f88460031b161c19169055838080610fcb565b80600185968294968601518155019501930190610fb7565b8360005281600020601f840160051c810191838510611042575b601f0160051c01905b8181106110365750610f67565b60008155600101611029565b9091508190611020565b346104c3576101003660031901126104c357611066614a11565b6044356001600160401b0381116104c3576110859036906004016149ca565b906064356001600160401b0381116104c3576110a59036906004016149ca565b906084356001600160401b0381116104c3576110c59036906004016149ca565b9160c4356001600160401b0381116104c3576110e59036906004016149ca565b60e4356001600160401b0381116104c3576111049036906004016149ca565b9061110d614c86565b6002600b54146119b2576002600b55611124615969565b6111386001600160a01b03851615156158c3565b611145602435151561590f565b60a4351561195b578551156119165760025461116360243582615091565b906012548092116118eb57505060ff60105416806118c9575b6118a8576011549461118d8661595a565b6011556040519361119d8561484e565b8785526020850152604084015260a435606084015242608084015260a083015260c0820152600060e08201524261010082015282600052600c60205260406000209080518051906001600160401b0382116108485781906111fe85546147f8565b601f8111611858575b50602090601f83116001146117f2576000926117e7575b50508160011b916000199060031b1c19161782555b60208101518051906001600160401b03821161084857819061125860018601546147f8565b601f8111611794575b50602090601f831160011461172257600092611717575b50508160011b916000199060031b1c19161760018301555b60408101518051906001600160401b0382116108485781906112b560028601546147f8565b601f81116116c4575b50602090601f831160011461165257600092611647575b50508160011b916000199060031b1c19161760028301555b606081015160038301556080810151600483015560a08101518051906001600160401b03821161084857819061132660058601546147f8565b601f81116115f4575b50602090601f831160011461158257600092611577575b50508160011b916000199060031b1c19161760058301555b60c08101518051906001600160401b0382116108485761138160068501546147f8565b601f8111611530575b50602090601f83116001146114ba57918060089492610100946000926114af575b50508160011b916000199060031b1c19161760068501555b6113e260e08201511515600786019060ff801983541691151516179055565b01519101556001600160a01b0381166000908152600d6020526040902080549390600160401b8510156108485761148b84926114648461144b897ff7e1a46c126ab69342d6c64d69054268e5521a7b4128ea9a7ef358e83e00b61196600160209c018155614a80565b90919082549060031b91821b91600019901b1916179055565b611470602435866159ad565b6040519182916024358352606089840152606083019061498a565b60a43560408301526001600160a01b03909516940390a36001600b55604051908152f35b0151905089806113ab565b906006850160005260206000209160005b601f1985168110611518575092600894926001926101009583601f198116106114ff575b505050811b0160068501556113c3565b015160001960f88460031b161c191690558980806114ef565b919260206001819286850151815501940192016114cb565b600685016000526020600020601f840160051c810160208510611570575b601f830160051c8201811061156457505061138a565b6000815560010161154e565b508061154e565b015190508780611346565b9250600585016000526020600020906000935b601f19841685106115d9576001945083601f198116106115c0575b505050811b01600583015561135e565b015160001960f88460031b161c191690558780806115b0565b81810151835560209485019460019093019290910190611595565b909150600585016000526020600020601f840160051c810160208510611640575b90849392915b601f830160051c8201811061163157505061132f565b6000815585945060010161161b565b5080611615565b0151905087806112d5565b9250600285016000526020600020906000935b601f19841685106116a9576001945083601f19811610611690575b505050811b0160028301556112ed565b015160001960f88460031b161c19169055878080611680565b81810151835560209485019460019093019290910190611665565b909150600285016000526020600020601f840160051c810160208510611710575b90849392915b601f830160051c820181106117015750506112be565b600081558594506001016116eb565b50806116e5565b015190508780611278565b9250600185016000526020600020906000935b601f1984168510611779576001945083601f19811610611760575b505050811b016001830155611290565b015160001960f88460031b161c19169055878080611750565b81810151835560209485019460019093019290910190611735565b909150600185016000526020600020601f840160051c8101602085106117e0575b90849392915b601f830160051c820181106117d1575050611261565b600081558594506001016117bb565b50806117b5565b01519050878061121e565b6000868152602081209350601f198516905b8181106118405750908460019594939210611827575b505050811b018255611233565b015160001960f88460031b161c1916905587808061181a565b92936020600181928786015181550195019301611804565b909150846000526020600020601f840160051c8101602085106118a1575b90849392915b601f830160051c82018110611892575050611207565b6000815585945060010161187c565b5080611876565b60405163d33f19e760e01b81526001600160a01b0385166004820152602490fd5b506001600160a01b0384166000908152600e602052604090205460ff1661117c565b906118fb60449260243590615091565b906040519163adc3cee560e01b835260048301526024820152fd5b60405162461bcd60e51b815260206004820152601a60248201527f417373657420747970652063616e6e6f7420626520656d7074790000000000006044820152606490fd5b60405162461bcd60e51b815260206004820152602960248201527f4170707261697365642076616c7565206d7573742062652067726561746572206044820152687468616e207a65726f60b81b6064820152608490fd5b60405162461bcd60e51b815260206004820152601f60248201527f5265656e7472616e637947756172643a207265656e7472616e742063616c6c006044820152606490fd5b346104c35760403660031901126104c357611a1d611a13614a11565b602435903361509e565b602060405160018152f35b346104c35760403660031901126104c357611a41614a11565b60243590336000526001602052604060002060018060a01b03821660005260205260406000205491808310611a7c57611a1d92039033615219565b60405162461bcd60e51b815260206004820152602560248201527f45524332303a2064656372656173656420616c6c6f77616e63652062656c6f77604482015264207a65726f60d81b6064820152608490fd5b346104c35760003660031901126104c357602060405160008152f35b346104c35760003660031901126104c3576040516000600454611b0d816147f8565b80845290600190818116908115611ba65750600114611b4b575b610edc84611b37818603826148a0565b60405191829160208352602083019061498a565b6004600090815292507f8a35acfbc15ff81a39ae7d344fd709f28e8600b4aa8c65c6b64bfe7fe36bd19b5b828410611b8e575050508101602001611b3782611b27565b80546020858701810191909152909301928101611b76565b60ff191660208087019190915292151560051b85019092019250611b379150839050611b27565b346104c35760003660031901126104c3576020601154604051908152f35b346104c35760403660031901126104c3576106ad611c07614a11565b611c0f614a3d565b90611c18614a98565b60018060a01b0316600052600f60205260406000209060ff801983541691151516179055565b346104c35760403660031901126104c357611c57614a27565b600435600052600a60205260406000209060018060a01b0316600052602052602060ff604060002054166040519015158152f35b346104c35760003660031901126104c357611cc57f000000000000000000000000000000000000000000000000000000000000000061570d565b611cee7f0000000000000000000000000000000000000000000000000000000000000000615809565b906040519160208301928084106001600160401b0385111761084857611d48610edc92611d3a9560405260008352604051958695600f60f81b875260e0602088015260e087019061498a565b90858203604087015261498a565b90466060850152306080850152600060a085015283820360c0850152614a4c565b346104c35760003660031901126104c357611d82614dcb565b611d8a615969565b600160ff1960095416176009557f62e78cea01bee320cd4e420270b5ea74000d11b0c9f74754ebdbfc544b05a2586020604051338152a1005b346104c35760203660031901126104c3576001600160a01b03611de4614a11565b1660005260076020526020604060002054604051908152f35b346104c35760403660031901126104c357611e16614a11565b6001600160a01b0381166024358115611f5057611e3481151561590f565b81600052602092600184526040600020336000528452604060002054906000198203611f0e575b611e659150615ab2565b8160005260008352604060002054818110611ebe5792817fddf252ad1be2c89b69c2b068fc378daa952ba7f163c4a11628f55a4df523b3ef926000958587528684520360408620558060025403600255604051908152a3005b60405162461bcd60e51b815260048101859052602260248201527f45524332303a206275726e20616d6f756e7420657863656564732062616c616e604482015261636560f01b6064820152608490fd5b828210611f325782820391821161049757611f2d611e65923383615219565b611e5b565b604483836040519163054365bb60e31b835260048301526024820152fd5b60405162461bcd60e51b815260206004820152601d60248201527f43616e6e6f74206275726e2066726f6d207a65726f20616464726573730000006044820152606490fd5b346104c35760203660031901126104c3576001600160a01b03611fb6614a11565b1660005260006020526020604060002054604051908152f35b346104c35760003660031901126104c357602060ff600954166040519015158152f35b346104c35760203660031901126104c35760043561200e614a98565b80600052600c60205260086040600020015415610bc05780600052600c6020526007604060002001600160ff19825416179055600080516020615cd583398151915260c06040516040815260086040820152671d995c9a599a595960c21b60608201526080602082015260046080820152637472756560e01b60a0820152a2005b346104c35760403660031901126104c3576120a8614a11565b6001600160a01b03166000908152600d60205260409020805460243591908210156104c3576020916120d991614a80565b90546040519160031b1c8152f35b346104c35760403660031901126104c357612100614a11565b60243561210b614c86565b6001600160a01b038216916121218315156158c3565b61212c82151561590f565b6002546121398382615091565b9060125480921161219157505060ff6010541680612179575b612160576106ad92506159ad565b60405163d33f19e760e01b815260048101849052602490fd5b5082600052600e60205260ff60406000205416612152565b906118fb84604493615091565b346104c35760003660031901126104c3576121b7614dcb565b60095460ff8116156121f65760ff19166009557f5db9ee0a495bf2e6ff9c91a7834c1ba4fdd244a5e8aa4e537bd38aeae4b073aa6020604051338152a1005b60405162461bcd60e51b815260206004820152601460248201527314185d5cd8589b194e881b9bdd081c185d5cd95960621b6044820152606490fd5b346104c35760603660031901126104c35760043560246001600160401b0381358181116104c3576122679036906004016149ca565b916044358281116104c3576122809036906004016149ca565b90612289614a98565b84600052600c92602093808552600860406000200154156129065785517f1596dc38e2ac5a6ddc5e019af4adcc1e017a04f510d57e69d6879d5d2996bb8e8688019182206a3232b9b1b934b83a34b7b760a91b886040516122e98161486a565b600b8152015203612470575086600052845260018060406000200192845192831161245c575061231983546147f8565b601f8111612413575b5084601f83116001146123975792828061237a9794600080516020615cd58339815191529997946123879760009361238c575b501b916000199060031b1c19161790555b60405194859460408652604086019061498a565b918483039085015261498a565b0390a2005b86015192508c612355565b601f9291921982169084600052866000209160005b8181106123fe575092612387959261237a98959282600080516020615cd58339815191529b9996106123e5575b5050811b019055612366565b85015160001960f88460031b161c191690558a806123d9565b878301518455928501929188019188016123ac565b8360005285600020601f840160051c810191878510612452575b601f0160051c019082905b828110612446575050612322565b60008155018290612438565b909150819061242d565b634e487b7160e01b60009081526041600452fd5b7f32418106fd89af94305d9787acb608a501b749f5f1783cfca7b3f864595254ca87518220673637b1b0ba34b7b760c11b886040516124ae8161486a565b600881520152036125e25750866000528452600260406000200191835191821161245c57506124dd82546147f8565b601f811161259c575b5083601f821160011461253a5792612387928261237a9693600080516020615cd5833981519152989660009161252f575b508160011b916000199060031b1c1916179055612366565b90508301518a612517565b601f1982169083600052856000209160005b818110612585575083600080516020615cd5833981519152989693612387969361237a9996600194106123e5575050811b019055612366565b91928760018192868a01518155019401920161254c565b8260005284600020601f830160051c8101918684106125d8575b601f0160051c01905b8181106125cc57506124e6565b600081556001016125bf565b90915081906125b6565b7f0672e70e771a4a1bc3c4bf3963a75dfb1a00680fb30bde56d2ab3475bbeb191a875182206f61707072616973616c436f6d70616e7960801b886040516126288161486a565b601081520152036127505750866000528452600560406000200191835191821161245c575061265782546147f8565b601f811161270a575b5083601f82116001146126a85792612387928261237a9693600080516020615cd5833981519152989660009161252f57508160011b916000199060031b1c1916179055612366565b601f1982169083600052856000209160005b8181106126f3575083600080516020615cd5833981519152989693612387969361237a9996600194106123e5575050811b019055612366565b91928760018192868a0151815501940192016126ba565b8260005284600020601f830160051c810191868410612746575b601f0160051c01905b81811061273a5750612660565b6000815560010161272d565b9091508190612724565b7fa2337af9c0c983d244fe5901fbd8591e34918612fb5a46d3a9da3a6306987c7090875190206b0c8dec6eadacadce890c2e6d60a31b876040516127938161486a565b8581520152146127be575b5050509161238761237a92600080516020615cd583398151915294612366565b866000528452600660406000200191835191821161245c57506127e182546147f8565b601f81116128c0575b5083601f82116001146128445792612387928261237a9693600080516020615cd58339815191529896600091612839575b508160011b916000199060031b1c19161790555b929481945061279e565b90508301518a61281b565b601f1982169083600052856000209160005b8181106128a9575083600080516020615cd5833981519152989693612387969361237a999660019410612890575b5050811b01905561282f565b85015160001960f88460031b161c191690558a80612884565b91928760018192868a015181550194019201612856565b8260005284600020601f830160051c8101918684106128fc575b601f0160051c01905b8181106128f057506127ea565b600081556001016128e3565b90915081906128da565b6040516343ce9af560e01b8152600481018890528390fd5b346104c35760403660031901126104c357611a1d61293a614a11565b336000526001602052604060002060018060a01b038216600052602052612968602435604060002054615091565b9033615219565b346104c35760403660031901126104c357612988614a27565b336001600160a01b038216036129a4576106ad9060043561501b565b60405162461bcd60e51b815260206004820152602f60248201527f416363657373436f6e74726f6c3a2063616e206f6e6c792072656e6f756e636560448201526e103937b632b9903337b91039b2b63360891b6064820152608490fd5b346104c35760003660031901126104c3576020612a1c6155e3565b604051908152f35b346104c35760003660031901126104c357602060405160128152f35b346104c35760403660031901126104c357600435612a5c614a27565b81600052600a602052612a76600160406000200154614f10565b81600052600a60205260406000209060018060a01b0316908160005260205260ff6040600020541615612aa557005b81600052600a6020526040600020816000526020526040600020600160ff1982541617905533917f2f8788117e7eff1d82e926ec794901d17c78024a50270940304540a733656f0d600080a4005b346104c3576020806003193601126104c3576001600160a01b03612b15614a11565b16600052600d8152604060002090604051808383829554938481520190600052836000209260005b85828210612b6857505050612b54925003836148a0565b610edc604051928284938452830190614a4c565b8554845260019586019588955093019201612b3d565b346104c35760203660031901126104c357600435600052600a6020526020600160406000200154604051908152f35b346104c35760603660031901126104c357612bc6614a11565b612bce614a27565b6044359060018060a01b0383166000526001602052604060002033600052602052604060002054926000198403612c0a575b611a1d935061509e565b828410612c2657612c2183611a1d95033383615219565b612c00565b60405162461bcd60e51b815260206004820152601d60248201527f45524332303a20696e73756666696369656e7420616c6c6f77616e63650000006044820152606490fd5b346104c3576102603660031901126104c357612c85614a11565b6044356001600160401b0381116104c357612ca49036906004016149ca565b906064356001600160401b0381116104c357612cc49036906004016149ca565b9160a4356001600160401b0381116104c357612ce49036906004016149ca565b9060c4356001600160401b0381116104c357612d049036906004016149ca565b9260e4356001600160401b0381116104c357612d249036906004016149ca565b93610104356001600160401b0381116104c357612d459036906004016149ca565b92610144356001600160401b0381116104c357612d669036906004016149ca565b94610184356001600160401b0381116104c357612d879036906004016149ca565b936101a4356001600160401b0381116104c357612da89036906004016149ca565b6001600160401b036101c435116104c357612dc9366101c4356004016149ca565b916101e4356001600160401b0381116104c357612dea9036906004016149ca565b93610204359586151587036104c357610244356001600160401b0381116104c357612e199036906004016149ca565b97612e22614c86565b8c511561429f578a51156142625761075d61012435101580614237575b156142035760118c51036141be5760ff612e6860208e8160405193828580945193849201614967565b81016014815203019020541661418457610224351561412c5760405192612e8e8461486a565b600784526676656869636c6560c81b6020850152612eaa614c86565b6002600b54146119b2576002600b55612ec1615969565b612ed56001600160a01b03861615156158c3565b612ee2602435151561590f565b6084351561195b5783511561191657600254612f0060243582615091565b906012548092116118eb57505060ff601054168061410a575b6140e9576011549d9e612f2b8f61595a565b60115560405193612f3b8561484e565b85855260208501526040840152608435606084015242608084015260a083015260c0820152600060e0820152426101008201528b600052600c60205260406000209080518051906001600160401b038211610848578190612f9c85546147f8565b601f8111614099575b50602090601f831160011461402d57600092614022575b50508160011b916000199060031b1c19161782555b60208101518051906001600160401b038211610848578190612ff660018601546147f8565b601f8111613fcf575b50602090601f8311600114613f5d57600092613f52575b50508160011b916000199060031b1c19161760018301555b60408101518051906001600160401b03821161084857819061305360028601546147f8565b601f8111613eff575b50602090601f8311600114613e8d57600092613e82575b50508160011b916000199060031b1c19161760028301555b606081015160038301556080810151600483015560a08101518051906001600160401b0382116108485781906130c460058601546147f8565b601f8111613e2f575b50602090601f8311600114613dbd57600092613db2575b50508160011b916000199060031b1c19161760058301555b60c08101518051906001600160401b0382116108485761311f60068501546147f8565b601f8111613d6b575b50602090601f8311600114613cf55791806008949261010094600092613cea575b50508160011b916000199060031b1c19161760068501555b61318060e08201511515600786019060ff801983541691151516179055565b01519101556001600160a01b0382166000908152600d602052604090208054600160401b811015610848578c926131e58461144b847ff7e1a46c126ab69342d6c64d69054268e5521a7b4128ea9a7ef358e83e00b61196600161320d97018155614a80565b6131f1602435866159ad565b604051918291602435835260606020840152606083019061498a565b60843560408301526001600160a01b03909516940390a36001600b556040519561323687614832565b8a875287602088015261012435604088015288606088015261016435608088015260a087015260c086015260e085015261010084015215156101208301526102243561014083015261016082015283600052601360205260406000209080518051906001600160401b0382116108485781906132b285546147f8565b601f8111613c9a575b50602090601f8311600114613c2e57600092613c23575b50508160011b916000199060031b1c19161782555b60208101518051906001600160401b03821161084857819061330c60018601546147f8565b601f8111613bd0575b50602090601f8311600114613b5e57600092613b53575b50508160011b916000199060031b1c19161760018301555b6040810151600283015560608101518051906001600160401b03821161084857819061337360038601546147f8565b601f8111613b00575b50602090601f8311600114613a8e57600092613a83575b50508160011b916000199060031b1c19161760038301555b6080810151600483015560a08101518051906001600160401b0382116108485781906133da60058601546147f8565b601f8111613a30575b50602090601f83116001146139be576000926139b3575b50508160011b916000199060031b1c19161760058301555b60c08101518051906001600160401b03821161084857819061343760068601546147f8565b601f8111613960575b50602090601f83116001146138ee576000926138e3575b50508160011b916000199060031b1c19161760068301555b60e08101518051906001600160401b03821161084857819061349460078601546147f8565b601f8111613890575b50602090601f831160011461381e57600092613813575b50508160011b916000199060031b1c19161760078301555b6101008101518051906001600160401b038211610848576134f060088501546147f8565b601f81116137cc575b50602090601f8311600114613758576101609392916000918361374d575b50508160011b916000199060031b1c19161760088401555b61354f6101208201511515600985019060ff801983541691151516179055565b610140810151600a84015501518051906001600160401b0382116108485761357a600b8401546147f8565b601f8111613702575b509160209693918695938890601f8311600114613663579361364d93600b846136299895613636957fcb1d98db82b9bd6501126e98cc9a6f7223bb1ac55c897c98ba5c3025e6ec42c89b99600092613658575b50508160011b916000199060031b1c1916179101555b6040518a8185516136008183858a01614967565b81016014815203019020600160ff1982541617905560405195869560808752608087019061498a565b908582038b87015261498a565b90610124356040850152838203606085015261498a565b0390a2604051908152f35b015190508e806135d6565b90600b8401600052896000209160005b601f19851681106136e8575093600b600185613636957fcb1d98db82b9bd6501126e98cc9a6f7223bb1ac55c897c98ba5c3025e6ec42c89b999561364d996136299c99601f198116106136cf575b505050811b019101556135ec565b015160001960f88460031b161c191690558e80806136c1565b8183015184558a9950600190930192918b01918b01613673565b600b84016000526020600020601f840160051c81019160208510613743575b601f0160051c01905b8181106137375750613583565b6000815560010161372a565b9091508190613721565b015190508980613517565b906008850160005260206000209160005b601f19851681106137b457509183916001936101609695601f1981161061379b575b505050811b01600884015561352f565b015160001960f88460031b161c1916905589808061378b565b91926020600181928685015181550194019201613769565b600885016000526020600020601f840160051c81016020851061380c575b601f830160051c820181106138005750506134f9565b600081556001016137ea565b50806137ea565b0151905088806134b4565b9250600785016000526020600020906000935b601f1984168510613875576001945083601f1981161061385c575b505050811b0160078301556134cc565b015160001960f88460031b161c1916905588808061384c565b81810151835560209485019460019093019290910190613831565b909150600785016000526020600020601f840160051c8101602085106138dc575b90849392915b601f830160051c820181106138cd57505061349d565b600081558594506001016138b7565b50806138b1565b015190508880613457565b9250600685016000526020600020906000935b601f1984168510613945576001945083601f1981161061392c575b505050811b01600683015561346f565b015160001960f88460031b161c1916905588808061391c565b81810151835560209485019460019093019290910190613901565b909150600685016000526020600020601f840160051c8101602085106139ac575b90849392915b601f830160051c8201811061399d575050613440565b60008155859450600101613987565b5080613981565b0151905088806133fa565b9250600585016000526020600020906000935b601f1984168510613a15576001945083601f198116106139fc575b505050811b016005830155613412565b015160001960f88460031b161c191690558880806139ec565b818101518355602094850194600190930192909101906139d1565b909150600585016000526020600020601f840160051c810160208510613a7c575b90849392915b601f830160051c82018110613a6d5750506133e3565b60008155859450600101613a57565b5080613a51565b015190508880613393565b9250600385016000526020600020906000935b601f1984168510613ae5576001945083601f19811610613acc575b505050811b0160038301556133ab565b015160001960f88460031b161c19169055888080613abc565b81810151835560209485019460019093019290910190613aa1565b909150600385016000526020600020601f840160051c810160208510613b4c575b90849392915b601f830160051c82018110613b3d57505061337c565b60008155859450600101613b27565b5080613b21565b01519050888061332c565b9250600185016000526020600020906000935b601f1984168510613bb5576001945083601f19811610613b9c575b505050811b016001830155613344565b015160001960f88460031b161c19169055888080613b8c565b81810151835560209485019460019093019290910190613b71565b909150600185016000526020600020601f840160051c810160208510613c1c575b90849392915b601f830160051c82018110613c0d575050613315565b60008155859450600101613bf7565b5080613bf1565b0151905088806132d2565b9250846000526020600020906000935b601f1984168510613c7f576001945083601f19811610613c66575b505050811b0182556132e7565b015160001960f88460031b161c19169055888080613c59565b81810151835560209485019460019093019290910190613c3e565b909150846000526020600020601f840160051c810160208510613ce3575b90849392915b601f830160051c82018110613cd45750506132bb565b60008155859450600101613cbe565b5080613cb8565b015190503880613149565b906006850160005260206000209160005b601f1985168110613d53575092600894926001926101009583601f19811610613d3a575b505050811b016006850155613161565b015160001960f88460031b161c19169055388080613d2a565b91926020600181928685015181550194019201613d06565b600685016000526020600020601f840160051c810160208510613dab575b601f830160051c82018110613d9f575050613128565b60008155600101613d89565b5080613d89565b0151905038806130e4565b9250600585016000526020600020906000935b601f1984168510613e14576001945083601f19811610613dfb575b505050811b0160058301556130fc565b015160001960f88460031b161c19169055388080613deb565b81810151835560209485019460019093019290910190613dd0565b909150600585016000526020600020601f840160051c810160208510613e7b575b90849392915b601f830160051c82018110613e6c5750506130cd565b60008155859450600101613e56565b5080613e50565b015190503880613073565b9250600285016000526020600020906000935b601f1984168510613ee4576001945083601f19811610613ecb575b505050811b01600283015561308b565b015160001960f88460031b161c19169055388080613ebb565b81810151835560209485019460019093019290910190613ea0565b909150600285016000526020600020601f840160051c810160208510613f4b575b90849392915b601f830160051c82018110613f3c57505061305c565b60008155859450600101613f26565b5080613f20565b015190503880613016565b9250600185016000526020600020906000935b601f1984168510613fb4576001945083601f19811610613f9b575b505050811b01600183015561302e565b015160001960f88460031b161c19169055388080613f8b565b81810151835560209485019460019093019290910190613f70565b909150600185016000526020600020601f840160051c81016020851061401b575b90849392915b601f830160051c8201811061400c575050612fff565b60008155859450600101613ff6565b5080613ff0565b015190503880612fbc565b9250846000526020600020906000935b601f198416851061407e576001945083601f19811610614065575b505050811b018255612fd1565b015160001960f88460031b161c19169055388080614058565b8181015183556020948501946001909301929091019061403d565b909150846000526020600020601f840160051c8101602085106140e2575b90849392915b601f830160051c820181106140d3575050612fa5565b600081558594506001016140bd565b50806140b7565b60405163d33f19e760e01b81526001600160a01b0386166004820152602490fd5b506001600160a01b0385166000908152600e602052604090205460ff16612f19565b60405162461bcd60e51b815260206004820152602a60248201527f4e756d626572206f66206f776e657273206d7573742062652067726561746572604482015269207468616e207a65726f60b01b6064820152608490fd5b60405162461bcd60e51b815260206004820152601260248201527156494e20616c72656164792065786973747360701b6044820152606490fd5b60405162461bcd60e51b815260206004820152601960248201527f56494e206d7573742062652031372063686172616374657273000000000000006044820152606490fd5b60405162461bcd60e51b815260206004820152600c60248201526b24b73b30b634b2103cb2b0b960a11b6044820152606490fd5b506301e1338042046107b2810190818111610497576107b30180911161049757610124351115612e3f565b60405162461bcd60e51b81526020600482015260156024820152744d6f64656c2063616e6e6f7420626520656d70747960581b6044820152606490fd5b60405162461bcd60e51b81526020600482015260146024820152734d616b652063616e6e6f7420626520656d70747960601b6044820152606490fd5b346104c35760003660031901126104c3576020600254604051908152f35b346104c35760403660031901126104c357611a1d614315614a11565b6024359033615219565b346104c35760003660031901126104c3576040516000600354614341816147f8565b80845290600190818116908115611ba6575060011461436a57610edc84611b37818603826148a0565b6003600090815292507fc2575a0e9e593c00f959f8c92f12db2869c3395a3b0502d05e2516446f71f85b5b8284106143ad575050508101602001611b3782611b27565b80546020858701810191909152909301928101614395565b346104c35760203660031901126104c3576001600160a01b036143e6614a11565b16600052600f602052602060ff604060002054166040519015158152f35b346104c35760003660031901126104c35760206040517f442a94f1a1fac79af32856af2a64f63648cfa2ef3b98610a5bb7cbec4cee69858152f35b346104c35760603660031901126104c3576004356001600160401b036024356044358281116104c3576144769036906004016149ca565b61447e614a98565b83600052602092600c8452600860406000200154156146425782156146295784600052600c84526005604060002084600382015542600482015501918051918211610848576144cd83546147f8565b601f81116145e3575b508490601f83116001146145635793600080516020615cd58339815191529593836123879461452394608098600092614558575b50508160011b916000199060031b1c1916179055615bd1565b60405193849360408552600e60408601526d61707072616973656456616c756560901b6060860152840152608083019061498a565b015190508a8061450a565b90601f1983169184600052866000209260005b8181106145cc5750846145239460809894600080516020615cd58339815191529a989461238798600195106145b3575b505050811b019055615bd1565b015160001960f88460031b161c191690558a80806145a6565b929388600181928786015181550195019301614576565b8360005285600020601f840160051c81019187851061461f575b601f0160051c01905b81811061461357506144d6565b60008155600101614606565b90915081906145fd565b6040516306dd0df760e11b815260048101849052602490fd5b6040516343ce9af560e01b815260048101869052602490fd5b346104c35760203660031901126104c35760043560005260136020526040600020614685816148c1565b614691600183016148c1565b600283015490926146a4600382016148c1565b906004810154600582016146b7906148c1565b6146c3600684016148c1565b6146cf600785016148c1565b916146dc600886016148c1565b93600986015460ff1696600a87015496600b016146f8906148c1565b986040519b8c9b8c6101808091528d016147119161498a565b8c810360208e01526147229161498a565b9060408c01528a810360608c01526147399161498a565b9060808a015288810360a08a01526147509161498a565b87810360c08901526147619161498a565b86810360e08801526147729161498a565b8581036101008701526147849161498a565b911515610120850152610140840152828103610160840152610edc9161498a565b346104c35760203660031901126104c3576004359063ffffffff60e01b82168092036104c357602091637965db0b60e01b81149081156147e7575b5015158152f35b6301ffc9a760e01b149050836147e0565b90600182811c92168015614828575b602083101461481257565b634e487b7160e01b600052602260045260246000fd5b91607f1691614807565b61018081019081106001600160401b0382111761084857604052565b61012081019081106001600160401b0382111761084857604052565b604081019081106001600160401b0382111761084857604052565b608081019081106001600160401b0382111761084857604052565b90601f801991011681019081106001600160401b0382111761084857604052565b90604051918260008254926148d5846147f8565b9081845260019485811690816000146149445750600114614901575b50506148ff925003836148a0565b565b9093915060005260209081600020936000915b81831061492c5750506148ff935082010138806148f1565b85548884018501529485019487945091830191614914565b9150506148ff94506020925060ff191682840152151560051b82010138806148f1565b60005b83811061497a5750506000910152565b818101518382015260200161496a565b906020916149a381518092818552858086019101614967565b601f01601f1916010190565b6001600160401b03811161084857601f01601f191660200190565b81601f820112156104c3578035906149e1826149af565b926149ef60405194856148a0565b828452602083830101116104c357816000926020809301838601378301015290565b600435906001600160a01b03821682036104c357565b602435906001600160a01b03821682036104c357565b6024359081151582036104c357565b90815180825260208080930193019160005b828110614a6c575050505090565b835185529381019392810192600101614a5e565b80548210156104ad5760005260206000200190600090565b3360009081527f81aa20521b1f8377105c149ab3e891a614f1dc1af7e3227dafa44b3aa3f87adc602090815260408083205490927f442a94f1a1fac79af32856af2a64f63648cfa2ef3b98610a5bb7cbec4cee69859160ff1615614afc5750505050565b614b053361532c565b91845190614b1282614885565b60428252848201926060368537825115614c725760308453825190600191821015614c725790607860218501536041915b818311614c0457505050614bc257604861040c938693614ba693614b97985198899376020b1b1b2b9b9a1b7b73a3937b61d1030b1b1b7bab73a1604d1b8a8601526103b3815180928c603789019101614967565b010360288101875201856148a0565b5192839262461bcd60e51b84526004840152602483019061498a565b60648486519062461bcd60e51b825280600483015260248201527f537472696e67733a20686578206c656e67746820696e73756666696369656e746044820152fd5b909192600f81166010811015614c5e576f181899199a1a9b1b9c1cb0b131b232b360811b901a614c34858761531b565b5360041c928015614c4a57600019019190614b43565b634e487b7160e01b82526011600452602482fd5b634e487b7160e01b83526032600452602483fd5b634e487b7160e01b81526032600452602490fd5b3360009081527faa1d7351356c4ddc11907b1ee0660f579cfdf507235af2ae01ecd22a4b7ceaae602090815260408083205490927f9f2df0fed2c77648de5860a4cc508cd0818c85b8b8a1ab4ceeef8d981c8956a69160ff1615614cea5750505050565b614cf33361532c565b91845190614d0082614885565b60428252848201926060368537825115614c725760308453825190600191821015614c725790607860218501536041915b818311614d8557505050614bc257604861040c938693614ba693614b97985198899376020b1b1b2b9b9a1b7b73a3937b61d1030b1b1b7bab73a1604d1b8a8601526103b3815180928c603789019101614967565b909192600f81166010811015614c5e576f181899199a1a9b1b9c1cb0b131b232b360811b901a614db5858761531b565b5360041c928015614c4a57600019019190614d31565b3360009081527f6c4ab3a3cc4fea3ac566afdaa38e0e471d1bdfd1aa59eb20affdabfa5e893fed602090815260408083205490927f65d7a28e3265b37a6474929f336521b332c1681b933f6cb9f3376673440d862a9160ff1615614e2f5750505050565b614e383361532c565b91845190614e4582614885565b60428252848201926060368537825115614c725760308453825190600191821015614c725790607860218501536041915b818311614eca57505050614bc257604861040c938693614ba693614b97985198899376020b1b1b2b9b9a1b7b73a3937b61d1030b1b1b7bab73a1604d1b8a8601526103b3815180928c603789019101614967565b909192600f81166010811015614c5e576f181899199a1a9b1b9c1cb0b131b232b360811b901a614efa858761531b565b5360041c928015614c4a57600019019190614e76565b600090808252602090600a8252604092838120338252835260ff848220541615614f3a5750505050565b614f433361532c565b91845190614f5082614885565b60428252848201926060368537825115614c725760308453825190600191821015614c725790607860218501536041915b818311614fd557505050614bc257604861040c938693614ba693614b97985198899376020b1b1b2b9b9a1b7b73a3937b61d1030b1b1b7bab73a1604d1b8a8601526103b3815180928c603789019101614967565b909192600f81166010811015614c5e576f181899199a1a9b1b9c1cb0b131b232b360811b901a615005858761531b565b5360041c928015614c4a57600019019190614f81565b90600091808352600a602052604083209160018060a01b03169182845260205260ff60408420541661504c57505050565b808352600a602052604083208284526020526040832060ff1981541690557ff6391f5c32d9c69d2a47ea670b442974b53935d1edc7fd64eb21e047a839171b339380a4565b9190820180921161049757565b90916001600160a01b03808316929083156151c6578416938415615175576150c591615b3a565b60008281528060205260408120549180831061512157604082827fddf252ad1be2c89b69c2b068fc378daa952ba7f163c4a11628f55a4df523b3ef958760209652828652038282205586815220818154019055604051908152a3565b60405162461bcd60e51b815260206004820152602660248201527f45524332303a207472616e7366657220616d6f756e7420657863656564732062604482015265616c616e636560d01b6064820152608490fd5b60405162461bcd60e51b815260206004820152602360248201527f45524332303a207472616e7366657220746f20746865207a65726f206164647260448201526265737360e81b6064820152608490fd5b60405162461bcd60e51b815260206004820152602560248201527f45524332303a207472616e736665722066726f6d20746865207a65726f206164604482015264647265737360d81b6064820152608490fd5b6001600160a01b039081169182156152ca571691821561527a5760207f8c5be1e5ebec7d5bd14f71427d1e84f3dd0314c0f7b2291e5b200ac8c7c3b925918360005260018252604060002085600052825280604060002055604051908152a3565b60405162461bcd60e51b815260206004820152602260248201527f45524332303a20617070726f766520746f20746865207a65726f206164647265604482015261737360f01b6064820152608490fd5b60405162461bcd60e51b8152602060048201526024808201527f45524332303a20617070726f76652066726f6d20746865207a65726f206164646044820152637265737360e01b6064820152608490fd5b9081518110156104ad570160200190565b60405190606082018281106001600160401b0382111761084857604052602a82526020820160403682378251156104ad576030905381516001908110156104ad57607860218401536029905b8082116153cc5750506153885790565b606460405162461bcd60e51b815260206004820152602060248201527f537472696e67733a20686578206c656e67746820696e73756666696369656e746044820152fd5b9091600f81166010811015615425576f181899199a1a9b1b9c1cb0b131b232b360811b901a6153fb848661531b565b5360041c918015615410576000190190615378565b60246000634e487b7160e01b81526011600452fd5b60246000634e487b7160e01b81526032600452fd5b600581101561553e578061544b5750565b600181036154985760405162461bcd60e51b815260206004820152601860248201527f45434453413a20696e76616c6964207369676e617475726500000000000000006044820152606490fd5b600281036154e55760405162461bcd60e51b815260206004820152601f60248201527f45434453413a20696e76616c6964207369676e6174757265206c656e677468006044820152606490fd5b6003146154ee57565b60405162461bcd60e51b815260206004820152602260248201527f45434453413a20696e76616c6964207369676e6174757265202773272076616c604482015261756560f01b6064820152608490fd5b634e487b7160e01b600052602160045260246000fd5b9291907f7fffffffffffffffffffffffffffffff5d576e7357a4501ddfe92f46681b20a083116155d75791608094939160ff602094604051948552168484015260408301526060820152600093849182805260015afa156155ca5781516001600160a01b038116156155c4579190565b50600190565b50604051903d90823e3d90fd5b50505050600090600390565b307f00000000000000000000000000000000000000000000000000000000000000006001600160a01b031614806156e4575b1561563e577f000000000000000000000000000000000000000000000000000000000000000090565b60405160208101907f8b73c3c69bb8fe3d512ecc4cf759cc79239f7b179b0ffacaa9a75d522b39400f82527f000000000000000000000000000000000000000000000000000000000000000060408201527f000000000000000000000000000000000000000000000000000000000000000060608201524660808201523060a082015260a0815260c081018181106001600160401b038211176108485760405251902090565b507f00000000000000000000000000000000000000000000000000000000000000004614615615565b60ff811461574b5760ff811690601f8211615739576040519161572f8361486a565b8252602082015290565b604051632cd44ac360e21b8152600490fd5b5060405160055481600061575e836147f8565b808352926001908181169081156157e75750600114615788575b50615785925003826148a0565b90565b6005600090815291507f036b6384b5eca791c62761152d0c79bb0604c104a5fb6f4eb0703f3154bb3db05b8483106157cc5750615785935050810160200138615778565b819350908160209254838589010152019101909184926157b3565b90506020925061578594915060ff191682840152151560051b82010138615778565b60ff811461582b5760ff811690601f8211615739576040519161572f8361486a565b5060405160065481600061583e836147f8565b808352926001908181169081156157e757506001146158645750615785925003826148a0565b6006600090815291507ff652222313e28459528d920b65115c16c04f3efc82aaedc97be59f3f377c0d3f5b8483106158a85750615785935050810160200138615778565b8193509081602092548385890101520191019091849261588f565b156158ca57565b60405162461bcd60e51b815260206004820152601b60248201527f43616e6e6f74206d696e7420746f207a65726f206164647265737300000000006044820152606490fd5b1561591657565b606460405162461bcd60e51b815260206004820152602060248201527f416d6f756e74206d7573742062652067726561746572207468616e207a65726f6044820152fd5b60001981146104975760010190565b60ff6009541661597557565b60405162461bcd60e51b815260206004820152601060248201526f14185d5cd8589b194e881c185d5cd95960821b6044820152606490fd5b6001600160a01b0316908115615a6d5760ff60095416615a15577fddf252ad1be2c89b69c2b068fc378daa952ba7f163c4a11628f55a4df523b3ef6020826159f9600094600254615091565b60025584845283825260408420818154019055604051908152a3565b60405162461bcd60e51b815260206004820152602a60248201527f45524332305061757361626c653a20746f6b656e207472616e736665722077686044820152691a5b19481c185d5cd95960b21b6064820152608490fd5b60405162461bcd60e51b815260206004820152601f60248201527f45524332303a206d696e7420746f20746865207a65726f2061646472657373006044820152606490fd5b60ff60095416615a15576001600160a01b031680158015615b32575b615b2f5760ff60105416615adf5750565b6000818152600e60205260ff6040822054168015615b1e575b615b00575050565b6044925060405191637617407560e11b835260048301526024820152fd5b5080805260ff604082205416615af8565b50565b506001615ace565b60ff60095416615a15576001600160a01b039081169182158015615bc7575b615bc25760ff60105416615b6c57505050565b82600052600e60205260ff604060002054168015615bad575b615b8e57505050565b6044935060405192637617407560e11b84526004840152166024820152fd5b5081811660005260ff60406000205416615b85565b505050565b5081811615615b59565b8015615c735780816000925b615c5d5750615beb826149af565b91615bf960405193846148a0565b80835281601f19615c09836149af565b013660208601375b615c1a57505090565b6000198101908111610497578091600a91603083830681018091116104975760f81b6001600160f81b03191660001a90615c54908661531b565b53049081615c11565b9091615c6a600a9161595a565b92910480615bdd565b50604051615c808161486a565b60018152600360fc1b602082015290565b15615c9857565b60405162461bcd60e51b8152602060048201526014602482015273105cdcd95d08191bd95cc81b9bdd08195e1a5cdd60621b6044820152606490fdfe589f5f1b831c2b1bb6368f38c84e2a21507d083cfa73f4d227d7f3d4895df766a264697066735822122096c763488bef522840bd2fedf0c9be285ae5d43b3435afd02a71025cbf23db4764736f6c634300081400332f8788117e7eff1d82e926ec794901d17c78024a50270940304540a733656f0d",
  "linkReferences": {},
  "deployedLinkReferences": {}
}