{
  "_format": "hh-sol-artifact-1",
  "contractName": "ArtToken",
  "sourceName": "contracts/ArtToken.sol",
  "abi": [
    {
      "inputs": [
        {
          "internalType": "address",
          "name": "admin",
          "type": "address"
        }
      ],
      "stateMutability": "nonpayable",
      "type": "constructor"
    },
    {
      "inputs": [
        {
          "internalType": "uint256",
          "name": "assetId",
          "type": "uint256"
        }
      ],
      "name": "AssetNotExists",
      "type": "error"
    },
    {
      "inputs": [
        {
          "internalType": "address",
          "name": "account",
          "type": "address"
        }
      ],
      "name": "BlacklistedAddress",
      "type": "error"
    },
    {
      "inputs": [
        {
          "internalType": "uint256",
          "name": "requested",
          "type": "uint256"
        },
        {
          "internalType": "uint256",
          "name": "maxSupply",
          "type": "uint256"
        }
      ],
      "name": "ExceedsMaxSupply",
      "type": "error"
    },
    {
      "inputs": [
        {
          "internalType": "uint256",
          "name": "requested",
          "type": "uint256"
        },
        {
          "internalType": "uint256",
          "name": "available",
          "type": "uint256"
        }
      ],
      "name": "InsufficientAllowance",
      "type": "error"
    },
    {
      "inputs": [
        {
          "internalType": "uint256",
          "name": "value",
          "type": "uint256"
        }
      ],
      "name": "InvalidAppraisalValue",
      "type": "error"
    },
    {
      "inputs": [],
      "name": "InvalidShortString",
      "type": "error"
    },
    {
      "inputs": [
        {
          "internalType": "string",
          "name": "str",
          "type": "string"
        }
      ],
      "name": "StringTooLong",
      "type": "error"
    },
    {
      "inputs": [
        {
          "internalType": "address",
          "name": "from",
          "type": "address"
        },
        {
          "internalType": "address",
          "name": "to",
          "type": "address"
        }
      ],
      "name": "UnauthorizedTransfer",
      "type": "error"
    },
    {
      "anonymous": false,
      "inputs": [
        {
          "indexed": true,
          "internalType": "address",
          "name": "owner",
          "type": "address"
        },
        {
          "indexed": true,
          "internalType": "address",
          "name": "spender",
          "type": "address"
        },
        {
          "indexed": false,
          "internalType": "uint256",
          "name": "value",
          "type": "uint256"
        }
      ],
      "name": "Approval",
      "type": "event"
    },
    {
      "anonymous": false,
      "inputs": [
        {
          "indexed": true,
          "internalType": "uint256",
          "name": "assetId",
          "type": "uint256"
        },
        {
          "indexed": false,
          "internalType": "string",
          "name": "artist",
          "type": "string"
        },
        {
          "indexed": false,
          "internalType": "string",
          "name": "title",
          "type": "string"
        },
        {
          "indexed": false,
          "internalType": "uint256",
          "name": "yearCreated",
          "type": "uint256"
        },
        {
          "indexed": false,
          "internalType": "string",
          "name": "medium",
          "type": "string"
        }
      ],
      "name": "ArtTokenized",
      "type": "event"
    },
    {
      "anonymous": false,
      "inputs": [
        {
          "indexed": true,
          "internalType": "uint256",
          "name": "assetId",
          "type": "uint256"
        },
        {
          "indexed": false,
          "internalType": "string",
          "name": "field",
          "type": "string"
        },
        {
          "indexed": false,
          "internalType": "string",
          "name": "newValue",
          "type": "string"
        }
      ],
      "name": "AssetMetadataUpdated",
      "type": "event"
    },
    {
      "anonymous": false,
      "inputs": [
        {
          "indexed": true,
          "internalType": "uint256",
          "name": "assetId",
          "type": "uint256"
        },
        {
          "indexed": true,
          "internalType": "address",
          "name": "owner",
          "type": "address"
        },
        {
          "indexed": false,
          "internalType": "uint256",
          "name": "amount",
          "type": "uint256"
        },
        {
          "indexed": false,
          "internalType": "string",
          "name": "assetType",
          "type": "string"
        },
        {
          "indexed": false,
          "internalType": "uint256",
          "name": "appraisedValue",
          "type": "uint256"
        }
      ],
      "name": "AssetTokenized",
      "type": "event"
    },
    {
      "anonymous": false,
      "inputs": [
        {
          "indexed": true,
          "internalType": "address",
          "name": "account",
          "type": "address"
        },
        {
          "indexed": false,
          "internalType": "bool",
          "name": "blacklisted",
          "type": "bool"
        }
      ],
      "name": "ComplianceStatusChanged",
      "type": "event"
    },
    {
      "anonymous": false,
      "inputs": [],
      "name": "EIP712DomainChanged",
      "type": "event"
    },
    {
      "anonymous": false,
      "inputs": [
        {
          "indexed": false,
          "internalType": "address",
          "name": "account",
          "type": "address"
        }
      ],
      "name": "Paused",
      "type": "event"
    },
    {
      "anonymous": false,
      "inputs": [
        {
          "indexed": true,
          "internalType": "bytes32",
          "name": "role",
          "type": "bytes32"
        },
        {
          "indexed": true,
          "internalType": "bytes32",
          "name": "previousAdminRole",
          "type": "bytes32"
        },
        {
          "indexed": true,
          "internalType": "bytes32",
          "name": "newAdminRole",
          "type": "bytes32"
        }
      ],
      "name": "RoleAdminChanged",
      "type": "event"
    },
    {
      "anonymous": false,
      "inputs": [
        {
          "indexed": true,
          "internalType": "bytes32",
          "name": "role",
          "type": "bytes32"
        },
        {
          "indexed": true,
          "internalType": "address",
          "name": "account",
          "type": "address"
        },
        {
          "indexed": true,
          "internalType": "address",
          "name": "sender",
          "type": "address"
        }
      ],
      "name": "RoleGranted",
      "type": "event"
    },
    {
      "anonymous": false,
      "inputs": [
        {
          "indexed": true,
          "internalType": "bytes32",
          "name": "role",
          "type": "bytes32"
        },
        {
          "indexed": true,
          "internalType": "address",
          "name": "account",
          "type": "address"
        },
        {
          "indexed": true,
          "internalType": "address",
          "name": "sender",
          "type": "address"
        }
      ],
      "name": "RoleRevoked",
      "type": "event"
    },
    {
      "anonymous": false,
      "inputs": [
        {
          "indexed": false,
          "internalType": "uint256",
          "name": "oldCap",
          "type": "uint256"
        },
        {
          "indexed": false,
          "internalType": "uint256",
          "name": "newCap",
          "type": "uint256"
        }
      ],
      "name": "SupplyCapUpdated",
      "type": "event"
    },
    {
      "anonymous": false,
      "inputs": [
        {
          "indexed": true,
          "internalType": "address",
          "name": "from",
          "type": "address"
        },
        {
          "indexed": true,
          "internalType": "address",
          "name": "to",
          "type": "address"
        },
        {
          "indexed": false,
          "internalType": "uint256",
          "name": "value",
          "type": "uint256"
        }
      ],
      "name": "Transfer",
      "type": "event"
    },
    {
      "anonymous": false,
      "inputs": [
        {
          "indexed": false,
          "internalType": "address",
          "name": "account",
          "type": "address"
        }
      ],
      "name": "Unpaused",
      "type": "event"
    },
    {
      "inputs": [],
      "name": "COMPLIANCE_ROLE",
      "outputs": [
        {
          "internalType": "bytes32",
          "name": "",
          "type": "bytes32"
        }
      ],
      "stateMutability": "view",
      "type": "function"
    },
    {
      "inputs": [],
      "name": "DEFAULT_ADMIN_ROLE",
      "outputs": [
        {
          "internalType": "bytes32",
          "name": "",
          "type": "bytes32"
        }
      ],
      "stateMutability": "view",
      "type": "function"
    },
    {
      "inputs": [],
      "name": "DOMAIN_SEPARATOR",
      "outputs": [
        {
          "internalType": "bytes32",
          "name": "",
          "type": "bytes32"
        }
      ],
      "stateMutability": "view",
      "type": "function"
    },
    {
      "inputs": [],
      "name": "MINTER_ROLE",
      "outputs": [
        {
          "internalType": "bytes32",
          "name": "",
          "type": "bytes32"
        }
      ],
      "stateMutability": "view",
      "type": "function"
    },
    {
      "inputs": [],
      "name": "PAUSER_ROLE",
      "outputs": [
        {
          "internalType": "bytes32",
          "name": "",
          "type": "bytes32"
        }
      ],
      "stateMutability": "view",
      "type": "function"
    },
    {
      "inputs": [
        {
          "internalType": "uint256",
          "name": "assetId",
          "type": "uint256"
        },
        {
          "internalType": "string",
          "name": "exhibitionInfo",
          "type": "string"
        }
      ],
      "name": "addExhibition",
      "outputs": [],
      "stateMutability": "nonpayable",
      "type": "function"
    },
    {
      "inputs": [
        {
          "internalType": "address",
          "name": "owner",
          "type": "address"
        },
        {
          "internalType": "address",
          "name": "spender",
          "type": "address"
        }
      ],
      "name": "allowance",
      "outputs": [
        {
          "internalType": "uint256",
          "name": "",
          "type": "uint256"
        }
      ],
      "stateMutability": "view",
      "type": "function"
    },
    {
      "inputs": [
        {
          "internalType": "address",
          "name": "spender",
          "type": "address"
        },
        {
          "internalType": "uint256",
          "name": "amount",
          "type": "uint256"
        }
      ],
      "name": "approve",
      "outputs": [
        {
          "internalType": "bool",
          "name": "",
          "type": "bool"
        }
      ],
      "stateMutability": "nonpayable",
      "type": "function"
    },
    {
      "inputs": [
        {
          "internalType": "uint256",
          "name": "",
          "type": "uint256"
        }
      ],
      "name": "artData",
      "outputs": [
        {
          "internalType": "string",
          "name": "artist",
          "type": "string"
        },
        {
          "internalType": "string",
          "name": "title",
          "type": "string"
        },
        {
          "internalType": "uint256",
          "name": "yearCreated",
          "type": "uint256"
        },
        {
          "internalType": "string",
          "name": "medium",
          "type": "string"
        },
        {
          "internalType": "string",
          "name": "dimensions",
          "type": "string"
        },
        {
          "internalType": "string",
          "name": "style",
          "type": "string"
        },
        {
          "internalType": "string",
          "name": "provenance",
          "type": "string"
        },
        {
          "internalType": "bool",
          "name": "isAuthenticated",
          "type": "bool"
        },
        {
          "internalType": "string",
          "name": "certificationBody",
          "type": "string"
        },
        {
          "internalType": "string",
          "name": "exhibitions",
          "type": "string"
        },
        {
          "internalType": "bool",
          "name": "isLimitedEdition",
          "type": "bool"
        },
        {
          "internalType": "uint256",
          "name": "editionNumber",
          "type": "uint256"
        },
        {
          "internalType": "uint256",
          "name": "totalEditions",
          "type": "uint256"
        }
      ],
      "stateMutability": "view",
      "type": "function"
    },
    {
      "inputs": [
        {
          "internalType": "uint256",
          "name": "",
          "type": "uint256"
        }
      ],
      "name": "assets",
      "outputs": [
        {
          "internalType": "string",
          "name": "assetType",
          "type": "string"
        },
        {
          "internalType": "string",
          "name": "description",
          "type": "string"
        },
        {
          "internalType": "string",
          "name": "location",
          "type": "string"
        },
        {
          "internalType": "uint256",
          "name": "appraisedValue",
          "type": "uint256"
        },
        {
          "internalType": "uint256",
          "name": "appraisalDate",
          "type": "uint256"
        },
        {
          "internalType": "string",
          "name": "appraisalCompany",
          "type": "string"
        },
        {
          "internalType": "string",
          "name": "documentHash",
          "type": "string"
        },
        {
          "internalType": "bool",
          "name": "isVerified",
          "type": "bool"
        },
        {
          "internalType": "uint256",
          "name": "createdAt",
          "type": "uint256"
        }
      ],
      "stateMutability": "view",
      "type": "function"
    },
    {
      "inputs": [
        {
          "internalType": "uint256",
          "name": "assetId",
          "type": "uint256"
        },
        {
          "internalType": "string",
          "name": "certificationBody",
          "type": "string"
        }
      ],
      "name": "authenticateArtwork",
      "outputs": [],
      "stateMutability": "nonpayable",
      "type": "function"
    },
    {
      "inputs": [
        {
          "internalType": "address",
          "name": "account",
          "type": "address"
        }
      ],
      "name": "balanceOf",
      "outputs": [
        {
          "internalType": "uint256",
          "name": "",
          "type": "uint256"
        }
      ],
      "stateMutability": "view",
      "type": "function"
    },
    {
      "inputs": [
        {
          "internalType": "address",
          "name": "",
          "type": "address"
        }
      ],
      "name": "blacklistedAddresses",
      "outputs": [
        {
          "internalType": "bool",
          "name": "",
          "type": "bool"
        }
      ],
      "stateMutability": "view",
      "type": "function"
    },
    {
      "inputs": [
        {
          "internalType": "address",
          "name": "from",
          "type": "address"
        },
        {
          "internalType": "uint256",
          "name": "amount",
          "type": "uint256"
        }
      ],
      "name": "burnFrom",
      "outputs": [],
      "stateMutability": "nonpayable",
      "type": "function"
    },
    {
      "inputs": [],
      "name": "complianceEnabled",
      "outputs": [
        {
          "internalType": "bool",
          "name": "",
          "type": "bool"
        }
      ],
      "stateMutability": "view",
      "type": "function"
    },
    {
      "inputs": [],
      "name": "decimals",
      "outputs": [
        {
          "internalType": "uint8",
          "name": "",
          "type": "uint8"
        }
      ],
      "stateMutability": "view",
      "type": "function"
    },
    {
      "inputs": [
        {
          "internalType": "address",
          "name": "spender",
          "type": "address"
        },
        {
          "internalType": "uint256",
          "name": "subtractedValue",
          "type": "uint256"
        }
      ],
      "name": "decreaseAllowance",
      "outputs": [
        {
          "internalType": "bool",
          "name": "",
          "type": "bool"
        }
      ],
      "stateMutability": "nonpayable",
      "type": "function"
    },
    {
      "inputs": [],
      "name": "eip712Domain",
      "outputs": [
        {
          "internalType": "bytes1",
          "name": "fields",
          "type": "bytes1"
        },
        {
          "internalType": "string",
          "name": "name",
          "type": "string"
        },
        {
          "internalType": "string",
          "name": "version",
          "type": "string"
        },
        {
          "internalType": "uint256",
          "name": "chainId",
          "type": "uint256"
        },
        {
          "internalType": "address",
          "name": "verifyingContract",
          "type": "address"
        },
        {
          "internalType": "bytes32",
          "name": "salt",
          "type": "bytes32"
        },
        {
          "internalType": "uint256[]",
          "name": "extensions",
          "type": "uint256[]"
        }
      ],
      "stateMutability": "view",
      "type": "function"
    },
    {
      "inputs": [
        {
          "internalType": "uint256",
          "name": "assetId",
          "type": "uint256"
        }
      ],
      "name": "getArtData",
      "outputs": [
        {
          "components": [
            {
              "internalType": "string",
              "name": "artist",
              "type": "string"
            },
            {
              "internalType": "string",
              "name": "title",
              "type": "string"
            },
            {
              "internalType": "uint256",
              "name": "yearCreated",
              "type": "uint256"
            },
            {
              "internalType": "string",
              "name": "medium",
              "type": "string"
            },
            {
              "internalType": "string",
              "name": "dimensions",
              "type": "string"
            },
            {
              "internalType": "string",
              "name": "style",
              "type": "string"
            },
            {
              "internalType": "string",
              "name": "provenance",
              "type": "string"
            },
            {
              "internalType": "bool",
              "name": "isAuthenticated",
              "type": "bool"
            },
            {
              "internalType": "string",
              "name": "certificationBody",
              "type": "string"
            },
            {
              "internalType": "string",
              "name": "exhibitions",
              "type": "string"
            },
            {
              "internalType": "bool",
              "name": "isLimitedEdition",
              "type": "bool"
            },
            {
              "internalType": "uint256",
              "name": "editionNumber",
              "type": "uint256"
            },
            {
              "internalType": "uint256",
              "name": "totalEditions",
              "type": "uint256"
            }
          ],
          "internalType": "struct ArtToken.ArtData",
          "name": "",
          "type": "tuple"
        }
      ],
      "stateMutability": "view",
      "type": "function"
    },
    {
      "inputs": [
        {
          "internalType": "uint256",
          "name": "assetId",
          "type": "uint256"
        }
      ],
      "name": "getAssetMetadata",
      "outputs": [
        {
          "components": [
            {
              "internalType": "string",
              "name": "assetType",
              "type": "string"
            },
            {
              "internalType": "string",
              "name": "description",
              "type": "string"
            },
            {
              "internalType": "string",
              "name": "location",
              "type": "string"
            },
            {
              "internalType": "uint256",
              "name": "appraisedValue",
              "type": "uint256"
            },
            {
              "internalType": "uint256",
              "name": "appraisalDate",
              "type": "uint256"
            },
            {
              "internalType": "string",
              "name": "appraisalCompany",
              "type": "string"
            },
            {
              "internalType": "string",
              "name": "documentHash",
              "type": "string"
            },
            {
              "internalType": "bool",
              "name": "isVerified",
              "type": "bool"
            },
            {
              "internalType": "uint256",
              "name": "createdAt",
              "type": "uint256"
            }
          ],
          "internalType": "struct IAssetMetadata.AssetMetadata",
          "name": "",
          "type": "tuple"
        }
      ],
      "stateMutability": "view",
      "type": "function"
    },
    {
      "inputs": [],
      "name": "getCurrentAssetId",
      "outputs": [
        {
          "internalType": "uint256",
          "name": "",
          "type": "uint256"
        }
      ],
      "stateMutability": "view",
      "type": "function"
    },
    {
      "inputs": [
        {
          "internalType": "address",
          "name": "owner",
          "type": "address"
        }
      ],
      "name": "getOwnerAssets",
      "outputs": [
        {
          "internalType": "uint256[]",
          "name": "",
          "type": "uint256[]"
        }
      ],
      "stateMutability": "view",
      "type": "function"
    },
    {
      "inputs": [
        {
          "internalType": "bytes32",
          "name": "role",
          "type": "bytes32"
        }
      ],
      "name": "getRoleAdmin",
      "outputs": [
        {
          "internalType": "bytes32",
          "name": "",
          "type": "bytes32"
        }
      ],
      "stateMutability": "view",
      "type": "function"
    },
    {
      "inputs": [
        {
          "internalType": "bytes32",
          "name": "role",
          "type": "bytes32"
        },
        {
          "internalType": "address",
          "name": "account",
          "type": "address"
        }
      ],
      "name": "grantRole",
      "outputs": [],
      "stateMutability": "nonpayable",
      "type": "function"
    },
    {
      "inputs": [
        {
          "internalType": "bytes32",
          "name": "role",
          "type": "bytes32"
        },
        {
          "internalType": "address",
          "name": "account",
          "type": "address"
        }
      ],
      "name": "hasRole",
      "outputs": [
        {
          "internalType": "bool",
          "name": "",
          "type": "bool"
        }
      ],
      "stateMutability": "view",
      "type": "function"
    },
    {
      "inputs": [
        {
          "internalType": "address",
          "name": "spender",
          "type": "address"
        },
        {
          "internalType": "uint256",
          "name": "addedValue",
          "type": "uint256"
        }
      ],
      "name": "increaseAllowance",
      "outputs": [
        {
          "internalType": "bool",
          "name": "",
          "type": "bool"
        }
      ],
      "stateMutability": "nonpayable",
      "type": "function"
    },
    {
      "inputs": [],
      "name": "maxSupply",
      "outputs": [
        {
          "internalType": "uint256",
          "name": "",
          "type": "uint256"
        }
      ],
      "stateMutability": "view",
      "type": "function"
    },
    {
      "inputs": [
        {
          "internalType": "address",
          "name": "to",
          "type": "address"
        },
        {
          "internalType": "uint256",
          "name": "amount",
          "type": "uint256"
        }
      ],
      "name": "mint",
      "outputs": [],
      "stateMutability": "nonpayable",
      "type": "function"
    },
    {
      "inputs": [
        {
          "internalType": "address",
          "name": "to",
          "type": "address"
        },
        {
          "internalType": "uint256",
          "name": "amount",
          "type": "uint256"
        },
        {
          "internalType": "string",
          "name": "description",
          "type": "string"
        },
        {
          "internalType": "string",
          "name": "location",
          "type": "string"
        },
        {
          "internalType": "uint256",
          "name": "appraisedValue",
          "type": "uint256"
        },
        {
          "internalType": "string",
          "name": "appraisalCompany",
          "type": "string"
        },
        {
          "internalType": "string",
          "name": "documentHash",
          "type": "string"
        },
        {
          "internalType": "string",
          "name": "artist",
          "type": "string"
        },
        {
          "internalType": "string",
          "name": "title",
          "type": "string"
        },
        {
          "internalType": "uint256",
          "name": "yearCreated",
          "type": "uint256"
        },
        {
          "internalType": "string",
          "name": "medium",
          "type": "string"
        },
        {
          "internalType": "string",
          "name": "dimensions",
          "type": "string"
        },
        {
          "internalType": "string",
          "name": "style",
          "type": "string"
        },
        {
          "internalType": "string",
          "name": "provenance",
          "type": "string"
        },
        {
          "internalType": "bool",
          "name": "isAuthenticated",
          "type": "bool"
        },
        {
          "internalType": "string",
          "name": "certificationBody",
          "type": "string"
        },
        {
          "internalType": "string",
          "name": "exhibitions",
          "type": "string"
        },
        {
          "internalType": "bool",
          "name": "isLimitedEdition",
          "type": "bool"
        },
        {
          "internalType": "uint256",
          "name": "editionNumber",
          "type": "uint256"
        },
        {
          "internalType": "uint256",
          "name": "totalEditions",
          "type": "uint256"
        }
      ],
      "name": "mintArt",
      "outputs": [
        {
          "internalType": "uint256",
          "name": "",
          "type": "uint256"
        }
      ],
      "stateMutability": "nonpayable",
      "type": "function"
    },
    {
      "inputs": [
        {
          "internalType": "address",
          "name": "to",
          "type": "address"
        },
        {
          "internalType": "uint256",
          "name": "amount",
          "type": "uint256"
        },
        {
          "internalType": "string",
          "name": "assetType",
          "type": "string"
        },
        {
          "internalType": "string",
          "name": "description",
          "type": "string"
        },
        {
          "internalType": "string",
          "name": "location",
          "type": "string"
        },
        {
          "internalType": "uint256",
          "name": "appraisedValue",
          "type": "uint256"
        },
        {
          "internalType": "string",
          "name": "appraisalCompany",
          "type": "string"
        },
        {
          "internalType": "string",
          "name": "documentHash",
          "type": "string"
        }
      ],
      "name": "mintAsset",
      "outputs": [
        {
          "internalType": "uint256",
          "name": "",
          "type": "uint256"
        }
      ],
      "stateMutability": "nonpayable",
      "type": "function"
    },
    {
      "inputs": [],
      "name": "name",
      "outputs": [
        {
          "internalType": "string",
          "name": "",
          "type": "string"
        }
      ],
      "stateMutability": "view",
      "type": "function"
    },
    {
      "inputs": [
        {
          "internalType": "address",
          "name": "owner",
          "type": "address"
        }
      ],
      "name": "nonces",
      "outputs": [
        {
          "internalType": "uint256",
          "name": "",
          "type": "uint256"
        }
      ],
      "stateMutability": "view",
      "type": "function"
    },
    {
      "inputs": [
        {
          "internalType": "address",
          "name": "",
          "type": "address"
        },
        {
          "internalType": "uint256",
          "name": "",
          "type": "uint256"
        }
      ],
      "name": "ownerAssets",
      "outputs": [
        {
          "internalType": "uint256",
          "name": "",
          "type": "uint256"
        }
      ],
      "stateMutability": "view",
      "type": "function"
    },
    {
      "inputs": [],
      "name": "pause",
      "outputs": [],
      "stateMutability": "nonpayable",
      "type": "function"
    },
    {
      "inputs": [],
      "name": "paused",
      "outputs": [
        {
          "internalType": "bool",
          "name": "",
          "type": "bool"
        }
      ],
      "stateMutability": "view",
      "type": "function"
    },
    {
      "inputs": [
        {
          "internalType": "address",
          "name": "owner",
          "type": "address"
        },
        {
          "internalType": "address",
          "name": "spender",
          "type": "address"
        },
        {
          "internalType": "uint256",
          "name": "value",
          "type": "uint256"
        },
        {
          "internalType": "uint256",
          "name": "deadline",
          "type": "uint256"
        },
        {
          "internalType": "uint8",
          "name": "v",
          "type": "uint8"
        },
        {
          "internalType": "bytes32",
          "name": "r",
          "type": "bytes32"
        },
        {
          "internalType": "bytes32",
          "name": "s",
          "type": "bytes32"
        }
      ],
      "name": "permit",
      "outputs": [],
      "stateMutability": "nonpayable",
      "type": "function"
    },
    {
      "inputs": [
        {
          "internalType": "bytes32",
          "name": "role",
          "type": "bytes32"
        },
        {
          "internalType": "address",
          "name": "account",
          "type": "address"
        }
      ],
      "name": "renounceRole",
      "outputs": [],
      "stateMutability": "nonpayable",
      "type": "function"
    },
    {
      "inputs": [
        {
          "internalType": "bytes32",
          "name": "role",
          "type": "bytes32"
        },
        {
          "internalType": "address",
          "name": "account",
          "type": "address"
        }
      ],
      "name": "revokeRole",
      "outputs": [],
      "stateMutability": "nonpayable",
      "type": "function"
    },
    {
      "inputs": [
        {
          "internalType": "address",
          "name": "account",
          "type": "address"
        },
        {
          "internalType": "bool",
          "name": "blacklisted",
          "type": "bool"
        }
      ],
      "name": "setBlacklisted",
      "outputs": [],
      "stateMutability": "nonpayable",
      "type": "function"
    },
    {
      "inputs": [
        {
          "internalType": "bool",
          "name": "enabled",
          "type": "bool"
        }
      ],
      "name": "setComplianceEnabled",
      "outputs": [],
      "stateMutability": "nonpayable",
      "type": "function"
    },
    {
      "inputs": [
        {
          "internalType": "address",
          "name": "account",
          "type": "address"
        },
        {
          "internalType": "bool",
          "name": "whitelisted",
          "type": "bool"
        }
      ],
      "name": "setWhitelisted",
      "outputs": [],
      "stateMutability": "nonpayable",
      "type": "function"
    },
    {
      "inputs": [
        {
          "internalType": "bytes4",
          "name": "interfaceId",
          "type": "bytes4"
        }
      ],
      "name": "supportsInterface",
      "outputs": [
        {
          "internalType": "bool",
          "name": "",
          "type": "bool"
        }
      ],
      "stateMutability": "view",
      "type": "function"
    },
    {
      "inputs": [],
      "name": "symbol",
      "outputs": [
        {
          "internalType": "string",
          "name": "",
          "type": "string"
        }
      ],
      "stateMutability": "view",
      "type": "function"
    },
    {
      "inputs": [],
      "name": "totalSupply",
      "outputs": [
        {
          "internalType": "uint256",
          "name": "",
          "type": "uint256"
        }
      ],
      "stateMutability": "view",
      "type": "function"
    },
    {
      "inputs": [
        {
          "internalType": "address",
          "name": "to",
          "type": "address"
        },
        {
          "internalType": "uint256",
          "name": "amount",
          "type": "uint256"
        }
      ],
      "name": "transfer",
      "outputs": [
        {
          "internalType": "bool",
          "name": "",
          "type": "bool"
        }
      ],
      "stateMutability": "nonpayable",
      "type": "function"
    },
    {
      "inputs": [
        {
          "internalType": "address",
          "name": "from",
          "type": "address"
        },
        {
          "internalType": "address",
          "name": "to",
          "type": "address"
        },
        {
          "internalType": "uint256",
          "name": "amount",
          "type": "uint256"
        }
      ],
      "name": "transferFrom",
      "outputs": [
        {
          "internalType": "bool",
          "name": "",
          "type": "bool"
        }
      ],
      "stateMutability": "nonpayable",
      "type": "function"
    },
    {
      "inputs": [],
      "name": "unpause",
      "outputs": [],
      "stateMutability": "nonpayable",
      "type": "function"
    },
    {
      "inputs": [
        {
          "internalType": "uint256",
          "name": "assetId",
          "type": "uint256"
        },
        {
          "internalType": "uint256",
          "name": "newValue",
          "type": "uint256"
        },
        {
          "internalType": "string",
          "name": "newAppraisalCompany",
          "type": "string"
        }
      ],
      "name": "updateAppraisedValue",
      "outputs": [],
      "stateMutability": "nonpayable",
      "type": "function"
    },
    {
      "inputs": [
        {
          "internalType": "uint256",
          "name": "assetId",
          "type": "uint256"
        },
        {
          "internalType": "string",
          "name": "field",
          "type": "string"
        },
        {
          "internalType": "string",
          "name": "newValue",
          "type": "string"
        }
      ],
      "name": "updateAssetMetadata",
      "outputs": [],
      "stateMutability": "nonpayable",
      "type": "function"
    },
    {
      "inputs": [
        {
          "internalType": "uint256",
          "name": "newMaxSupply",
          "type": "uint256"
        }
      ],
      "name": "updateMaxSupply",
      "outputs": [],
      "stateMutability": "nonpayable",
      "type": "function"
    },
    {
      "inputs": [
        {
          "internalType": "uint256",
          "name": "assetId",
          "type": "uint256"
        },
        {
          "internalType": "string",
          "name": "newProvenance",
          "type": "string"
        }
      ],
      "name": "updateProvenance",
      "outputs": [],
      "stateMutability": "nonpayable",
      "type": "function"
    },
    {
      "inputs": [
        {
          "internalType": "uint256",
          "name": "assetId",
          "type": "uint256"
        }
      ],
      "name": "verifyAsset",
      "outputs": [],
      "stateMutability": "nonpayable",
      "type": "function"
    },
    {
      "inputs": [
        {
          "internalType": "address",
          "name": "",
          "type": "address"
        }
      ],
      "name": "whitelistedAddresses",
      "outputs": [
        {
          "internalType": "bool",
          "name": "",
          "type": "bool"
        }
      ],
      "stateMutability": "view",
      "type": "function"
    }
  ],
  "bytecode": "0x610160346200077857601f62006c8638819003918201601f19168301916001600160401b0383118484101762000558578084926020946040528339810103126200077857516001600160a01b0381168103620007785760405162000063816200077d565b600981526820b93a102a37b5b2b760b91b60208201526040519162000088836200077d565b600383526210549560ea1b602084015260405191620000a7836200077d565b60018352603160f81b602084015280516001600160401b0381116200055857600354600181811c911680156200076d575b60208210146200064d57601f811162000703575b50806020601f82116001146200067a576000916200066e575b508160011b916000199060031b1c1916176003555b83516001600160401b0381116200055857600454600181811c9116801562000663575b60208210146200064d57601f8111620005e7575b50602094601f82116001146200057a579481929394956000926200056e575b50508160011b916000199060031b1c1916176004555b620001918162000799565b91610120928352620001a3846200095d565b9161014092835260208151910120938460e05260208151910120610100948186524660a0526040519160208301917f8b73c3c69bb8fe3d512ecc4cf759cc79239f7b179b0ffacaa9a75d522b39400f8352604084015260608301524660808301523060a083015260a0825260c082019082821060018060401b03831117620005585781604052825190206080523060c05260ff199182600954166009556001600b55600183601054161760105560018060a01b03841615620005145750506001600160a01b03821660009081527f13da86008ba1c6922daee3e07db95305ef49ebced9f5467a0b8613fcc6b343e36020526040902054600a919060ff1615620004d0575b7f9f2df0fed2c77648de5860a4cc508cd0818c85b8b8a1ab4ceeef8d981c8956a66000818152602084815260408083206001600160a01b038816845290915290205460ff161562000489575b507f65d7a28e3265b37a6474929f336521b332c1681b933f6cb9f3376673440d862a6000818152602084815260408083206001600160a01b038816845290915290205460ff161562000442575b507f442a94f1a1fac79af32856af2a64f63648cfa2ef3b98610a5bb7cbec4cee6985918260005280602052604060002060018060a01b03851660005260205260ff6040600020541615620003f0575b505050506934f086f3b33b68400000601255600160115560405191616150938462000b16853960805184615a45015260a05184615b10015260c05184615a0f015260e05184615a9401525183615aba01525182611cf601525181611d1f0152f35b82600052602052604060002060018060a01b0384166000526020526001604060002091825416179055339160018060a01b03169060008051602062006c66833981519152600080a4388080806200038f565b6000818152602084815260408083206001600160a01b038816808552925282208054851660011790553392909160008051602062006c668339815191529080a43862000340565b6000818152602084815260408083206001600160a01b038816808552925282208054851660011790553392909160008051602062006c668339815191529080a438620002f3565b6000808052602083815260408083206001600160a01b03871680855292528220805484166001179055339160008051602062006c668339815191528180a4620002a7565b62461bcd60e51b8252602060c4820152601560e48201527f496e76616c69642061646d696e2061646472657373000000000000000000000061010490910152606490fd5b634e487b7160e01b600052604160045260246000fd5b01519050388062000170565b601f19821695600460005260206000209160005b888110620005ce57508360019596979810620005b4575b505050811b0160045562000186565b015160001960f88460031b161c19169055388080620005a5565b919260206001819286850151815501940192016200058e565b60046000527f8a35acfbc15ff81a39ae7d344fd709f28e8600b4aa8c65c6b64bfe7fe36bd19b601f830160051c81016020841062000645575b601f830160051c820181106200063857505062000151565b6000815560010162000620565b508062000620565b634e487b7160e01b600052602260045260246000fd5b90607f16906200013d565b90508201513862000105565b600360009081527fc2575a0e9e593c00f959f8c92f12db2869c3395a3b0502d05e2516446f71f85b9250601f198416905b818110620006ea57509083600194939210620006d0575b5050811b016003556200011a565b84015160001960f88460031b161c191690553880620006c2565b91926020600181928689015181550194019201620006ab565b60036000527fc2575a0e9e593c00f959f8c92f12db2869c3395a3b0502d05e2516446f71f85b601f830160051c8101916020841062000762575b601f0160051c01905b818110620007555750620000ec565b6000815560010162000746565b90915081906200073d565b90607f1690620000d8565b600080fd5b604081019081106001600160401b038211176200055857604052565b8051602091908281101562000838575090601f825111620007d75780825192015190808310620007c857501790565b82600019910360031b1b161790565b90604051809263305a27a960e01b82528060048301528251908160248401526000935b8285106200081e575050604492506000838284010152601f80199101168101030190fd5b8481018201518686016044015293810193859350620007fa565b6001600160401b03811162000558576005928354926001938481811c9116801562000952575b838210146200064d57601f81116200091b575b5081601f8411600114620008b15750928293918392600094620008a5575b50501b916000199060031b1c191617905560ff90565b0151925038806200088f565b919083601f1981168760005284600020946000905b88838310620009005750505010620008e6575b505050811b01905560ff90565b015160001960f88460031b161c19169055388080620008d9565b858701518855909601959485019487935090810190620008c6565b8560005284601f846000209201871c820191601f8601881c015b8281106200094557505062000871565b6000815501859062000935565b90607f16906200085e565b805160209081811015620009eb5750601f8251116200098a5780825192015190808310620007c857501790565b90604051809263305a27a960e01b82528060048301528251908160248401526000935b828510620009d1575050604492506000838284010152601f80199101168101030190fd5b8481018201518686016044015293810193859350620009ad565b906001600160401b0382116200055857600654926001938481811c9116801562000b0a575b838210146200064d57601f811162000ad0575b5081601f841160011462000a64575092829391839260009462000a58575b50501b916000199060031b1c19161760065560ff90565b01519250388062000a41565b919083601f198116600660005284600020946000905b8883831062000ab5575050501062000a9b575b505050811b0160065560ff90565b015160001960f88460031b161c1916905538808062000a8d565b85870151885590960195948501948793509081019062000a7a565b600660005284601f84600020920160051c820191601f860160051c015b82811062000afd57505062000a23565b6000815501859062000aed565b90607f169062000a1056fe608080604052600436101561001357600080fd5b60003560e01c90816301ffc9a714614bac57508063041199e114614990578063062d3bd71461495557806306c933d81461491657806306fdde0314614870578063095ea7b31461484a5780630bdf507b1461472257806318160ddd1461470457806318f5012c146145ba57806322ea6ee514612f8257806323b872dd14612ec4578063248a9ca314612e955780632d38f89b14612e0a5780632f2ff15d14612d57578063313ce56714612d3b5780633644e51514612d1857806336568abe14612c865780633950935114612c355780633c2fd950146125495780633d22a2a9146122875780633f4ba83a146121f357806340c10f191461213c578063455bd951146120e457806359fd285c146120475780635c975abb1461202457806370a0823114611fea57806379cc679014611e525780637ecebe0014611e185780638456cb5914611dbe57806384b0196e14611ce057806391d1485414611c935780639281aa0b14611c4057806394c5b2fc14611c2257806395d89b4114611b3c578063a217fddf14611b20578063a457c2d714611a79578063a9059cbb14611a48578063aabae7a31461109d578063cf2acf8414610e85578063cf35bdd014610d58578063d01dd6d214610cda578063d505accf14610b37578063d539139314610afc578063d547741f14610abd578063d5749d4214610a7e578063d5abeb0114610a60578063d83c827014610a3d578063dba4d8dc1461076b578063dd62ed3e1461071a578063e04e77f7146106e1578063e63ab1e9146106a6578063e8038454146104c85763f103b4331461026657600080fd5b346104c3576020806003193601126104c35760043560008052600a8252604060002033600052825260ff604060002054161561031b5760025481106102dd577fb4d96b3a6638191d0f6aefa0fdc4d99af3592f4c97480e31feeb977723c63b539160409160125491816012558351928352820152a1005b60405162461bcd60e51b81526004810183905260166024820152754e6577206d617820737570706c7920746f6f206c6f7760501b6044820152606490fd5b5061032533615755565b90600060405161033481614c52565b604281528281019160603684378151156104ad576030835381516001908110156104ad57607860218401536041905b808211610453575050610410576103dc936103eb9260489260405196879376020b1b1b2b9b9a1b7b73a3937b61d1030b1b1b7bab73a1604d1b888601526103b3815180928a603789019101614d1c565b8401917001034b99036b4b9b9b4b733903937b6329607d1b603784015251809386840190614d1c565b01036028810185520183614c6d565b61040c60405192839262461bcd60e51b845260048401526024830190614d3f565b0390fd5b6064836040519062461bcd60e51b825280600483015260248201527f537472696e67733a20686578206c656e67746820696e73756666696369656e746044820152fd5b9091600f811660108110156104ad576f181899199a1a9b1b9c1cb0b131b232b360811b901a6104828486615744565b5360041c918015610497576000190190610363565b634e487b7160e01b600052601160045260246000fd5b634e487b7160e01b600052603260045260246000fd5b600080fd5b346104c35760203660031901126104c35760043560005260136020526040600020604051806104f78184614e2b565b036105029082614c6d565b60405191826105148160018401614e2b565b0361051f9084614c6d565b600281015460405191826105368160038401614e2b565b036105419084614c6d565b604051806105528160048501614e2b565b0361055d9082614c6d565b6040518061056e8160058601614e2b565b036105799082614c6d565b6040518061058a8160068701614e2b565b036105959082614c6d565b600784015460ff169060405192838060088801906105b291614e2b565b036105bd9085614c6d565b60405194856105cf8160098a01614e2b565b036105da9087614c6d565b600a87015460ff1698600b88015497600c0154986040519c8d9c8d6101a0908181520161060691614d3f565b8d810360208f015261061791614d3f565b9060408d01528b810360608d015261062e91614d3f565b8a810360808c015261063f91614d3f565b89810360a08b015261065091614d3f565b88810360c08a015261066191614d3f565b90151560e088015286810361010088015261067b91614d3f565b85810361012087015261068d91614d3f565b9215156101408501526101608401526101808301520390f35b346104c35760003660031901126104c35760206040517f65d7a28e3265b37a6474929f336521b332c1681b933f6cb9f3376673440d862a8152f35b346104c35760203660031901126104c3576004358015158091036104c357610707614ec1565b60ff801960105416911617601055600080f35b346104c35760403660031901126104c357610733614cf0565b61073b614d06565b9060018060a01b038091166000526001602052604060002091166000526020526020604060002054604051908152f35b346104c35761077936614d64565b90610782614ec1565b80600052602090600c82526107a06008604060002001541515615ce9565b80600052601382526107c26107c9600960406000200160405192838092614e2b565b0382614c6d565b80511561094957602261081b9160405195816107ee8893518092898087019101614d1c565b82016101d960f51b8782015261080c82518093898785019101614d1c565b01036002810186520184614c6d565b600052601381526009604060002001908251906001600160401b038211610933576108468354614df1565b601f81116108ed575b5080601f831160011461088a575081929360009261087f575b50508160011b916000199060031b1c19161790555b005b015190508380610868565b90601f198316948460005282600020926000905b8782106108d55750508360019596106108bc575b505050811b019055005b015160001960f88460031b161c191690558380806108b2565b8060018596829496860151815501950193019061089e565b8360005281600020601f840160051c810191838510610929575b601f0160051c01905b81811061091d575061084f565b60008155600101610910565b9091508190610907565b634e487b7160e01b600052604160045260246000fd5b50600052601381526009604060002001908251906001600160401b038211610933576109758354614df1565b601f81116109f7575b5080601f83116001146109ae575081929360009261087f575050600019600383901b1c191660019190911b179055005b90601f198316948460005282600020926000905b8782106109df5750508360019596106108bc57505050811b019055005b806001859682949686015181550195019301906109c2565b8360005281600020601f840160051c810191838510610a33575b601f0160051c01905b818110610a27575061097e565b60008155600101610a1a565b9091508190610a11565b346104c35760003660031901126104c357602060ff601054166040519015158152f35b346104c35760003660031901126104c3576020601254604051908152f35b346104c35760203660031901126104c3576001600160a01b03610a9f614cf0565b16600052600e602052602060ff604060002054166040519015158152f35b346104c35760403660031901126104c35761087d600435610adc614d06565b9080600052600a602052610af7600160406000200154615339565b615444565b346104c35760003660031901126104c35760206040517f9f2df0fed2c77648de5860a4cc508cd0818c85b8b8a1ab4ceeef8d981c8956a68152f35b346104c35760e03660031901126104c357610b50614cf0565b610b58614d06565b6044359060843560643560ff821682036104c357804211610c955760018060a01b0390818616928360005260076020526040600020908154916001830190556040519260208401927f6e71edae12b1b97f4d1f60370fef10105fa2faae0126114a169c64845d6126c98452866040860152858816606086015288608086015260a085015260c084015260c0835260e08301918383106001600160401b0384111761093357610c4193610c3993604052519020610c12615a0c565b906040519161190160f01b83526002830152602282015260c43591604260a435922061597d565b919091615863565b1603610c505761087d92615642565b60405162461bcd60e51b815260206004820152601e60248201527f45524332305065726d69743a20696e76616c6964207369676e617475726500006044820152606490fd5b60405162461bcd60e51b815260206004820152601d60248201527f45524332305065726d69743a206578706972656420646561646c696e650000006044820152606490fd5b346104c35760403660031901126104c357610cf3614cf0565b7ff1bf4fdc75f29b6c8f35b7808597b7e9c104efd356c3f8ee86e76023da1417e06020610d1e614d96565b92610d27614ec1565b6001600160a01b03166000818152600e835260409020805460ff191660ff86151516179055926040519015158152a2005b346104c35760203660031901126104c357600435600052600c602052610e31604060002060405190610d9582610d8e8184614e2b565b0383614c6d565b604051610da9816107c28160018601614e2b565b610e736006610e65604051610dc5816107c28160028a01614e2b565b600386015460048701546040519192610e4d90610df084610de98160058e01614e2b565b0385614c6d565b610e0b8a610e04604051809a819301614e2b565b0388614c6d565b610e3f600860ff60078d0154169b0154996040519d8e9d8e610120908181520190614d3f565b8d810360208f015290614d3f565b908b820360408d0152614d3f565b9260608a0152608089015287820360a0890152614d3f565b9085820360c0870152614d3f565b91151560e08401526101008301520390f35b346104c3576020806003193601126104c35760043560405191610ea783614c1b565b6060918284528282850152826040850152600083850152600060808501528260a08501528260c0850152600060e085015260006101008095015280600052600c82526008604060002001541561108557600052600c815260406000209060405192610f1184614c1b565b60405180610f1f8186614e2b565b03610f2a9082614c6d565b84526040519485610f3e8160018701614e2b565b03610f499087614c6d565b8483019586526040519586610f618160028801614e2b565b03610f6c9088614c6d565b60408681019788526003860154848801908152600487015460808901908152915180610f9b8160058b01614e2b565b03610fa69082614c6d565b60a089019081526040519283610fbf8160068c01614e2b565b03610fca9085614c6d565b60c08a01938452600789015460ff169860e08b019915158a526008015496868b019788526040519b8c9b8a8d52518c6101209b8c9101526101408d0161100f91614d3f565b9651601f198d8903810160408f01529761102891614d3f565b905191878d830301908d015261103d91614d3f565b925160808b01525160a08a01525190838982030160c08a015261105f91614d3f565b9051918782030160e088015261107491614d3f565b935115159085015251908301520390f35b602490604051906343ce9af560e01b82526004820152fd5b346104c3576101003660031901126104c3576110b7614cf0565b6044356001600160401b0381116104c3576110d6903690600401614ca9565b906064356001600160401b0381116104c3576110f6903690600401614ca9565b906084356001600160401b0381116104c357611116903690600401614ca9565b9160c4356001600160401b0381116104c357611136903690600401614ca9565b60e4356001600160401b0381116104c357611155903690600401614ca9565b9061115e6150af565b6002600b5414611a03576002600b55611175615dd2565b6111896001600160a01b0385161515615d2c565b6111966024351515615d78565b60a435156119ac57855115611967576002546111b4602435826154ba565b9060125480921161193c57505060ff601054168061191a575b6118f957601154946111de86615dc3565b601155604051936111ee85614c1b565b8785526020850152604084015260a435606084015242608084015260a083015260c0820152600060e08201524261010082015282600052600c60205260406000209080518051906001600160401b03821161093357819061124f8554614df1565b601f81116118a9575b50602090601f831160011461184357600092611838575b50508160011b916000199060031b1c19161782555b60208101518051906001600160401b0382116109335781906112a96001860154614df1565b601f81116117e5575b50602090601f831160011461177357600092611768575b50508160011b916000199060031b1c19161760018301555b60408101518051906001600160401b0382116109335781906113066002860154614df1565b601f8111611715575b50602090601f83116001146116a357600092611698575b50508160011b916000199060031b1c19161760028301555b606081015160038301556080810151600483015560a08101518051906001600160401b0382116109335781906113776005860154614df1565b601f8111611645575b50602090601f83116001146115d3576000926115c8575b50508160011b916000199060031b1c19161760058301555b60c08101518051906001600160401b038211610933576113d26006850154614df1565b601f8111611581575b50602090601f831160011461150b5791806008949261010094600092611500575b50508160011b916000199060031b1c19161760068501555b61143360e08201511515600786019060ff801983541691151516179055565b01519101556001600160a01b0381166000908152600d6020526040902080549390600160401b851015610933576114dc84926114b58461149c897ff7e1a46c126ab69342d6c64d69054268e5521a7b4128ea9a7ef358e83e00b61196600160209c018155614dd9565b90919082549060031b91821b91600019901b1916179055565b6114c160243586615e16565b60405191829160243583526060898401526060830190614d3f565b60a43560408301526001600160a01b03909516940390a36001600b55604051908152f35b0151905089806113fc565b906006850160005260206000209160005b601f1985168110611569575092600894926001926101009583601f19811610611550575b505050811b016006850155611414565b015160001960f88460031b161c19169055898080611540565b9192602060018192868501518155019401920161151c565b600685016000526020600020601f840160051c8101602085106115c1575b601f830160051c820181106115b55750506113db565b6000815560010161159f565b508061159f565b015190508780611397565b9250600585016000526020600020906000935b601f198416851061162a576001945083601f19811610611611575b505050811b0160058301556113af565b015160001960f88460031b161c19169055878080611601565b818101518355602094850194600190930192909101906115e6565b909150600585016000526020600020601f840160051c810160208510611691575b90849392915b601f830160051c82018110611682575050611380565b6000815585945060010161166c565b5080611666565b015190508780611326565b9250600285016000526020600020906000935b601f19841685106116fa576001945083601f198116106116e1575b505050811b01600283015561133e565b015160001960f88460031b161c191690558780806116d1565b818101518355602094850194600190930192909101906116b6565b909150600285016000526020600020601f840160051c810160208510611761575b90849392915b601f830160051c8201811061175257505061130f565b6000815585945060010161173c565b5080611736565b0151905087806112c9565b9250600185016000526020600020906000935b601f19841685106117ca576001945083601f198116106117b1575b505050811b0160018301556112e1565b015160001960f88460031b161c191690558780806117a1565b81810151835560209485019460019093019290910190611786565b909150600185016000526020600020601f840160051c810160208510611831575b90849392915b601f830160051c820181106118225750506112b2565b6000815585945060010161180c565b5080611806565b01519050878061126f565b6000868152602081209350601f198516905b8181106118915750908460019594939210611878575b505050811b018255611284565b015160001960f88460031b161c1916905587808061186b565b92936020600181928786015181550195019301611855565b909150846000526020600020601f840160051c8101602085106118f2575b90849392915b601f830160051c820181106118e3575050611258565b600081558594506001016118cd565b50806118c7565b60405163d33f19e760e01b81526001600160a01b0385166004820152602490fd5b506001600160a01b0384166000908152600e602052604090205460ff166111cd565b9061194c604492602435906154ba565b906040519163adc3cee560e01b835260048301526024820152fd5b60405162461bcd60e51b815260206004820152601a60248201527f417373657420747970652063616e6e6f7420626520656d7074790000000000006044820152606490fd5b60405162461bcd60e51b815260206004820152602960248201527f4170707261697365642076616c7565206d7573742062652067726561746572206044820152687468616e207a65726f60b81b6064820152608490fd5b60405162461bcd60e51b815260206004820152601f60248201527f5265656e7472616e637947756172643a207265656e7472616e742063616c6c006044820152606490fd5b346104c35760403660031901126104c357611a6e611a64614cf0565b60243590336154c7565b602060405160018152f35b346104c35760403660031901126104c357611a92614cf0565b60243590336000526001602052604060002060018060a01b03821660005260205260406000205491808310611acd57611a6e92039033615642565b60405162461bcd60e51b815260206004820152602560248201527f45524332303a2064656372656173656420616c6c6f77616e63652062656c6f77604482015264207a65726f60d81b6064820152608490fd5b346104c35760003660031901126104c357602060405160008152f35b346104c35760003660031901126104c3576040516000600454611b5e81614df1565b80845290600190818116908115611bfb5750600114611ba0575b611b9c84611b8881860382614c6d565b604051918291602083526020830190614d3f565b0390f35b6004600090815292507f8a35acfbc15ff81a39ae7d344fd709f28e8600b4aa8c65c6b64bfe7fe36bd19b5b828410611be3575050508101602001611b8882611b78565b80546020858701810191909152909301928101611bcb565b60ff191660208087019190915292151560051b85019092019250611b889150839050611b78565b346104c35760003660031901126104c3576020601154604051908152f35b346104c35760403660031901126104c35761087d611c5c614cf0565b611c64614d96565b90611c6d614ec1565b60018060a01b0316600052600f60205260406000209060ff801983541691151516179055565b346104c35760403660031901126104c357611cac614d06565b600435600052600a60205260406000209060018060a01b0316600052602052602060ff604060002054166040519015158152f35b346104c35760003660031901126104c357611d1a7f0000000000000000000000000000000000000000000000000000000000000000615b36565b611d437f0000000000000000000000000000000000000000000000000000000000000000615c2f565b906040519160208301928084106001600160401b0385111761093357611d9d611b9c92611d8f9560405260008352604051958695600f60f81b875260e0602088015260e0870190614d3f565b908582036040870152614d3f565b90466060850152306080850152600060a085015283820360c0850152614da5565b346104c35760003660031901126104c357611dd76151f4565b611ddf615dd2565b600160ff1960095416176009557f62e78cea01bee320cd4e420270b5ea74000d11b0c9f74754ebdbfc544b05a2586020604051338152a1005b346104c35760203660031901126104c3576001600160a01b03611e39614cf0565b1660005260076020526020604060002054604051908152f35b346104c35760403660031901126104c357611e6b614cf0565b6001600160a01b0381166024358115611fa557611e89811515615d78565b81600052602092600184526040600020336000528452604060002054906000198203611f63575b611eba9150615f1b565b8160005260008352604060002054818110611f135792817fddf252ad1be2c89b69c2b068fc378daa952ba7f163c4a11628f55a4df523b3ef926000958587528684520360408620558060025403600255604051908152a3005b60405162461bcd60e51b815260048101859052602260248201527f45524332303a206275726e20616d6f756e7420657863656564732062616c616e604482015261636560f01b6064820152608490fd5b828210611f875782820391821161049757611f82611eba923383615642565b611eb0565b604483836040519163054365bb60e31b835260048301526024820152fd5b60405162461bcd60e51b815260206004820152601d60248201527f43616e6e6f74206275726e2066726f6d207a65726f20616464726573730000006044820152606490fd5b346104c35760203660031901126104c3576001600160a01b0361200b614cf0565b1660005260006020526020604060002054604051908152f35b346104c35760003660031901126104c357602060ff600954166040519015158152f35b346104c35760203660031901126104c357600435612063614ec1565b80600052600c602052600860406000200154156110855780600052600c6020526007604060002001600160ff198254161790556000805160206160fb83398151915260c06040516040815260086040820152671d995c9a599a595960c21b60608201526080602082015260046080820152637472756560e01b60a0820152a2005b346104c35760403660031901126104c3576120fd614cf0565b6001600160a01b03166000908152600d60205260409020805460243591908210156104c35760209161212e91614dd9565b90546040519160031b1c8152f35b346104c35760403660031901126104c357612155614cf0565b6024356121606150af565b6001600160a01b03821691612176831515615d2c565b612181821515615d78565b60025461218e83826154ba565b906012548092116121e657505060ff60105416806121ce575b6121b55761087d9250615e16565b60405163d33f19e760e01b815260048101849052602490fd5b5082600052600e60205260ff604060002054166121a7565b9061194c846044936154ba565b346104c35760003660031901126104c35761220c6151f4565b60095460ff81161561224b5760ff19166009557f5db9ee0a495bf2e6ff9c91a7834c1ba4fdd244a5e8aa4e537bd38aeae4b073aa6020604051338152a1005b60405162461bcd60e51b815260206004820152601460248201527314185d5cd8589b194e881b9bdd081c185d5cd95960621b6044820152606490fd5b346104c35760203660031901126104c35760043560006101806040516122ac81614bff565b606081526060602082015282604082015260608082015260606080820152606060a0820152606060c08201528260e0820152606061010082015260606101208201528261014082015282610160820152015280600052600c60205261231a6008604060002001541515615ce9565b60005260136020526040600020600c6040519161233683614bff565b604051612347816107c28185614e2b565b835260405161235d816107c28160018601614e2b565b602084015260028101546040840152604051612380816107c28160038601614e2b565b6060840152604051612399816107c28160048601614e2b565b60808401526040516123b2816107c28160058601614e2b565b60a08401526040516123cb816107c28160068601614e2b565b60c084015260ff600782015416151560e08401526040516123f3816107c28160088601614e2b565b61010084015260405161240d816107c28160098601614e2b565b61012084015260ff600a820154161515610140840152600b810154610160840152015461018082015260405180916020825261018061252461250c6124e76124d16124bb6124a561248561246f89516101a060208d01526101c08c0190614d3f565b60208a01518b8203601f190160408d0152614d3f565b604089015160608b01526060890151601f198b83030160808c0152614d3f565b6080880151898203601f190160a08b0152614d3f565b60a0870151888203601f190160c08a0152614d3f565b60c0860151878203601f190160e0890152614d3f565b60e08501511515610100870152610100850151601f1987830301610120880152614d3f565b610120840151858203601f1901610140870152614d3f565b9161014081015115156101608501526101608101518285015201516101a08301520390f35b346104c35760603660031901126104c35760043560246001600160401b0381358181116104c35761257e903690600401614ca9565b916044358281116104c357612597903690600401614ca9565b906125a0614ec1565b84600052600c9260209380855260086040600020015415612c1d5785517f1596dc38e2ac5a6ddc5e019af4adcc1e017a04f510d57e69d6879d5d2996bb8e8688019182206a3232b9b1b934b83a34b7b760a91b8860405161260081614c37565b600b8152015203612787575086600052845260018060406000200192845192831161277357506126308354614df1565b601f811161272a575b5084601f83116001146126ae5792828061269197946000805160206160fb83398151915299979461269e976000936126a3575b501b916000199060031b1c19161790555b604051948594604086526040860190614d3f565b9184830390850152614d3f565b0390a2005b86015192508c61266c565b601f9291921982169084600052866000209160005b81811061271557509261269e9592612691989592826000805160206160fb8339815191529b9996106126fc575b5050811b01905561267d565b85015160001960f88460031b161c191690558a806126f0565b878301518455928501929188019188016126c3565b8360005285600020601f840160051c810191878510612769575b601f0160051c019082905b82811061275d575050612639565b6000815501829061274f565b9091508190612744565b634e487b7160e01b60009081526041600452fd5b7f32418106fd89af94305d9787acb608a501b749f5f1783cfca7b3f864595254ca87518220673637b1b0ba34b7b760c11b886040516127c581614c37565b600881520152036128f95750866000528452600260406000200191835191821161277357506127f48254614df1565b601f81116128b3575b5083601f8211600114612851579261269e928261269196936000805160206160fb8339815191529896600091612846575b508160011b916000199060031b1c191617905561267d565b90508301518a61282e565b601f1982169083600052856000209160005b81811061289c5750836000805160206160fb83398151915298969361269e96936126919996600194106126fc575050811b01905561267d565b91928760018192868a015181550194019201612863565b8260005284600020601f830160051c8101918684106128ef575b601f0160051c01905b8181106128e357506127fd565b600081556001016128d6565b90915081906128cd565b7f0672e70e771a4a1bc3c4bf3963a75dfb1a00680fb30bde56d2ab3475bbeb191a875182206f61707072616973616c436f6d70616e7960801b8860405161293f81614c37565b60108152015203612a6757508660005284526005604060002001918351918211612773575061296e8254614df1565b601f8111612a21575b5083601f82116001146129bf579261269e928261269196936000805160206160fb833981519152989660009161284657508160011b916000199060031b1c191617905561267d565b601f1982169083600052856000209160005b818110612a0a5750836000805160206160fb83398151915298969361269e96936126919996600194106126fc575050811b01905561267d565b91928760018192868a0151815501940192016129d1565b8260005284600020601f830160051c810191868410612a5d575b601f0160051c01905b818110612a515750612977565b60008155600101612a44565b9091508190612a3b565b7fa2337af9c0c983d244fe5901fbd8591e34918612fb5a46d3a9da3a6306987c7090875190206b0c8dec6eadacadce890c2e6d60a31b87604051612aaa81614c37565b858152015214612ad5575b5050509161269e612691926000805160206160fb8339815191529461267d565b86600052845260066040600020019183519182116127735750612af88254614df1565b601f8111612bd7575b5083601f8211600114612b5b579261269e928261269196936000805160206160fb8339815191529896600091612b50575b508160011b916000199060031b1c19161790555b9294819450612ab5565b90508301518a612b32565b601f1982169083600052856000209160005b818110612bc05750836000805160206160fb83398151915298969361269e9693612691999660019410612ba7575b5050811b019055612b46565b85015160001960f88460031b161c191690558a80612b9b565b91928760018192868a015181550194019201612b6d565b8260005284600020601f830160051c810191868410612c13575b601f0160051c01905b818110612c075750612b01565b60008155600101612bfa565b9091508190612bf1565b6040516343ce9af560e01b8152600481018890528390fd5b346104c35760403660031901126104c357611a6e612c51614cf0565b336000526001602052604060002060018060a01b038216600052602052612c7f6024356040600020546154ba565b9033615642565b346104c35760403660031901126104c357612c9f614d06565b336001600160a01b03821603612cbb5761087d90600435615444565b60405162461bcd60e51b815260206004820152602f60248201527f416363657373436f6e74726f6c3a2063616e206f6e6c792072656e6f756e636560448201526e103937b632b9903337b91039b2b63360891b6064820152608490fd5b346104c35760003660031901126104c3576020612d33615a0c565b604051908152f35b346104c35760003660031901126104c357602060405160128152f35b346104c35760403660031901126104c357600435612d73614d06565b81600052600a602052612d8d600160406000200154615339565b81600052600a60205260406000209060018060a01b0316908160005260205260ff6040600020541615612dbc57005b81600052600a6020526040600020816000526020526040600020600160ff1982541617905533917f2f8788117e7eff1d82e926ec794901d17c78024a50270940304540a733656f0d600080a4005b346104c3576020806003193601126104c3576001600160a01b03612e2c614cf0565b16600052600d8152604060002090604051808383829554938481520190600052836000209260005b85828210612e7f57505050612e6b92500383614c6d565b611b9c604051928284938452830190614da5565b8554845260019586019588955093019201612e54565b346104c35760203660031901126104c357600435600052600a6020526020600160406000200154604051908152f35b346104c35760603660031901126104c357612edd614cf0565b612ee5614d06565b6044359060018060a01b0383166000526001602052604060002033600052602052604060002054926000198403612f21575b611a6e93506154c7565b828410612f3d57612f3883611a6e95033383615642565b612f17565b60405162461bcd60e51b815260206004820152601d60248201527f45524332303a20696e73756666696369656e7420616c6c6f77616e63650000006044820152606490fd5b346104c3576102803660031901126104c357612f9c614cf0565b6044356001600160401b0381116104c357612fbb903690600401614ca9565b906064356001600160401b0381116104c357612fdb903690600401614ca9565b9160a4356001600160401b0381116104c357612ffb903690600401614ca9565b9060c4356001600160401b0381116104c35761301b903690600401614ca9565b9060e4356001600160401b0381116104c35761303b903690600401614ca9565b91610104356001600160401b0381116104c35761305c903690600401614ca9565b91610144356001600160401b0381116104c35761307d903690600401614ca9565b94610164356001600160401b0381116104c35761309e903690600401614ca9565b96610184356001600160401b0381116104c3576130bf903690600401614ca9565b6101a4356001600160401b0381116104c3576130df903690600401614ca9565b916101c4359384151585036104c3576001600160401b036101e435116104c35761310f366101e435600401614ca9565b95610204356001600160401b0381116104c357613130903690600401614ca9565b9761022435151561022435036104c3576131486150af565b8a511561457c5789511561453f576301e1338042046107b2810110610497576107b26301e1338042040161012435116144ee5761022435614430575b6040519261319184614c37565b6003845262185c9d60ea1b60208501526131a96150af565b6002600b5414611a03576002600b556131c0615dd2565b6131d46001600160a01b0386161515615d2c565b6131e16024351515615d78565b608435156119ac57835115611967576002546131ff602435826154ba565b9060125480921161193c57505060ff601054168061440e575b6143ed5761322c9c9d9e6011549d8e615dc3565b6011556040519361323c85614c1b565b85855260208501526040840152608435606084015242608084015260a083015260c0820152600060e0820152426101008201528a600052600c60205260406000209080518051906001600160401b03821161093357819061329d8554614df1565b601f811161439d575b50602090601f831160011461433157600092614326575b50508160011b916000199060031b1c19161782555b60208101518051906001600160401b0382116109335781906132f76001860154614df1565b601f81116142d3575b50602090601f831160011461426157600092614256575b50508160011b916000199060031b1c19161760018301555b60408101518051906001600160401b0382116109335781906133546002860154614df1565b601f8111614203575b50602090601f831160011461419157600092614186575b50508160011b916000199060031b1c19161760028301555b606081015160038301556080810151600483015560a08101518051906001600160401b0382116109335781906133c56005860154614df1565b601f8111614133575b50602090601f83116001146140c1576000926140b6575b50508160011b916000199060031b1c19161760058301555b60c08101518051906001600160401b038211610933576134206006850154614df1565b601f811161406f575b50602090601f8311600114613ff95791806008949261010094600092613fee575b50508160011b916000199060031b1c19161760068501555b61348160e08201511515600786019060ff801983541691151516179055565b01519101556001600160a01b0382166000908152600d602052604090208054600160401b811015610933578b926134e68461149c847ff7e1a46c126ab69342d6c64d69054268e5521a7b4128ea9a7ef358e83e00b61196600161350e97018155614dd9565b6134f260243586615e16565b6040519182916024358352606060208401526060830190614d3f565b60843560408301526001600160a01b03909516940390a36001600b55604051996135378b614bff565b878b528660208c01526101243560408c01528960608c015260808b015260a08a015260c0890152151560e08801526101008701526101208601526102243515156101408601526102443561016086015261026435610180860152826000526013602052604060002085518051906001600160401b0382116109335781906135be8454614df1565b601f8111613f9e575b50602090601f8311600114613f3257600092613f27575b50508160011b916000199060031b1c19161781555b60208601518051906001600160401b0382116109335781906136186001850154614df1565b601f8111613ed4575b50602090601f8311600114613e6257600092613e57575b50508160011b916000199060031b1c19161760018201555b6040860151600282015560608601518051906001600160401b03821161093357819061367f6003850154614df1565b601f8111613e04575b50602090601f8311600114613d9257600092613d87575b50508160011b916000199060031b1c19161760038201555b60808601518051906001600160401b0382116109335781906136dc6004850154614df1565b601f8111613d34575b50602090601f8311600114613cc257600092613cb7575b50508160011b916000199060031b1c19161760048201555b60a08601518051906001600160401b0382116109335781906137396005850154614df1565b601f8111613c64575b50602090601f8311600114613bf257600092613be7575b50508160011b916000199060031b1c19161760058201555b60c08601518051906001600160401b0382116109335781906137966006850154614df1565b601f8111613b94575b50602090601f8311600114613b2257600092613b17575b50508160011b916000199060031b1c19161760068201555b6137ed60e08701511515600783019060ff801983541691151516179055565b6101008601518051906001600160401b0382116109335781906138136008850154614df1565b601f8111613ac4575b50602090601f8311600114613a5757600092613a4c575b50508160011b916000199060031b1c19161760088201555b6101208601519586516001600160401b0381116109335761386f6009840154614df1565b97601f8911613a05575b602098508890601f831160011461396157947f4a1ad7af051356d340c5abba23551c1a808c20524d4477b392b93df5e995669e9694600c61018061394b96868c9d97613934976139279c600092613956575b50508160011b916000199060031b1c19161760098501555b6139036101408201511515600a86019060ff801983541691151516179055565b610160810151600b8501550151910155604051958695608087526080870190614d3f565b908582038b870152614d3f565b906101243560408501528382036060850152614d3f565b0390a2604051908152f35b0151905038806138cb565b9060098501600052896000209160005b601f19851681106139ee575094600c61018061394b96600187613934978e9f99977f4a1ad7af051356d340c5abba23551c1a808c20524d4477b392b93df5e995669e9e9c6139279e99601f198116106139d5575b505050811b0160098501556138e3565b015160001960f88460031b161c191690553880806139c5565b91928b600181928685015181550194019201613971565b600984016000526020600020601f830160051c810160208410613a45575b601f8b0160051c82018110613a39575050613879565b60008155600101613a23565b5080613a23565b015190508880613833565b600885016000908152602081209350601f198516905b818110613aac5750908460019594939210613a93575b505050811b01600882015561384b565b015160001960f88460031b161c19169055888080613a83565b92936020600181928786015181550195019301613a6d565b909150600884016000526020600020601f840160051c810160208510613b10575b90849392915b601f830160051c82018110613b0157505061381c565b60008155859450600101613aeb565b5080613ae5565b0151905088806137b6565b9250600684016000526020600020906000935b601f1984168510613b79576001945083601f19811610613b60575b505050811b0160068201556137ce565b015160001960f88460031b161c19169055888080613b50565b81810151835560209485019460019093019290910190613b35565b909150600684016000526020600020601f840160051c810160208510613be0575b90849392915b601f830160051c82018110613bd157505061379f565b60008155859450600101613bbb565b5080613bb5565b015190508880613759565b9250600584016000526020600020906000935b601f1984168510613c49576001945083601f19811610613c30575b505050811b016005820155613771565b015160001960f88460031b161c19169055888080613c20565b81810151835560209485019460019093019290910190613c05565b909150600584016000526020600020601f840160051c810160208510613cb0575b90849392915b601f830160051c82018110613ca1575050613742565b60008155859450600101613c8b565b5080613c85565b0151905088806136fc565b9250600484016000526020600020906000935b601f1984168510613d19576001945083601f19811610613d00575b505050811b016004820155613714565b015160001960f88460031b161c19169055888080613cf0565b81810151835560209485019460019093019290910190613cd5565b909150600484016000526020600020601f840160051c810160208510613d80575b90849392915b601f830160051c82018110613d715750506136e5565b60008155859450600101613d5b565b5080613d55565b01519050888061369f565b9250600384016000526020600020906000935b601f1984168510613de9576001945083601f19811610613dd0575b505050811b0160038201556136b7565b015160001960f88460031b161c19169055888080613dc0565b81810151835560209485019460019093019290910190613da5565b909150600384016000526020600020601f840160051c810160208510613e50575b90849392915b601f830160051c82018110613e41575050613688565b60008155859450600101613e2b565b5080613e25565b015190508880613638565b9250600184016000526020600020906000935b601f1984168510613eb9576001945083601f19811610613ea0575b505050811b016001820155613650565b015160001960f88460031b161c19169055888080613e90565b81810151835560209485019460019093019290910190613e75565b909150600184016000526020600020601f840160051c810160208510613f20575b90849392915b601f830160051c82018110613f11575050613621565b60008155859450600101613efb565b5080613ef5565b0151905088806135de565b9250836000526020600020906000935b601f1984168510613f83576001945083601f19811610613f6a575b505050811b0181556135f3565b015160001960f88460031b161c19169055888080613f5d565b81810151835560209485019460019093019290910190613f42565b909150836000526020600020601f840160051c810160208510613fe7575b90849392915b601f830160051c82018110613fd85750506135c7565b60008155859450600101613fc2565b5080613fbc565b01519050388061344a565b906006850160005260206000209160005b601f1985168110614057575092600894926001926101009583601f1981161061403e575b505050811b016006850155613462565b015160001960f88460031b161c1916905538808061402e565b9192602060018192868501518155019401920161400a565b600685016000526020600020601f840160051c8101602085106140af575b601f830160051c820181106140a3575050613429565b6000815560010161408d565b508061408d565b0151905038806133e5565b9250600585016000526020600020906000935b601f1984168510614118576001945083601f198116106140ff575b505050811b0160058301556133fd565b015160001960f88460031b161c191690553880806140ef565b818101518355602094850194600190930192909101906140d4565b909150600585016000526020600020601f840160051c81016020851061417f575b90849392915b601f830160051c820181106141705750506133ce565b6000815585945060010161415a565b5080614154565b015190503880613374565b9250600285016000526020600020906000935b601f19841685106141e8576001945083601f198116106141cf575b505050811b01600283015561338c565b015160001960f88460031b161c191690553880806141bf565b818101518355602094850194600190930192909101906141a4565b909150600285016000526020600020601f840160051c81016020851061424f575b90849392915b601f830160051c8201811061424057505061335d565b6000815585945060010161422a565b5080614224565b015190503880613317565b9250600185016000526020600020906000935b601f19841685106142b8576001945083601f1981161061429f575b505050811b01600183015561332f565b015160001960f88460031b161c1916905538808061428f565b81810151835560209485019460019093019290910190614274565b909150600185016000526020600020601f840160051c81016020851061431f575b90849392915b601f830160051c82018110614310575050613300565b600081558594506001016142fa565b50806142f4565b0151905038806132bd565b9250846000526020600020906000935b601f1984168510614382576001945083601f19811610614369575b505050811b0182556132d2565b015160001960f88460031b161c1916905538808061435c565b81810151835560209485019460019093019290910190614341565b909150846000526020600020601f840160051c8101602085106143e6575b90849392915b601f830160051c820181106143d75750506132a6565b600081558594506001016143c1565b50806143bb565b60405163d33f19e760e01b81526001600160a01b0386166004820152602490fd5b506001600160a01b0385166000908152600e602052604090205460ff16613218565b6102443580151590816144e0575b50156144a257610264356131845760405162461bcd60e51b815260206004820152602860248201527f546f74616c2065646974696f6e73206d7573742062652067726561746572207460448201526768616e207a65726f60c01b6064820152608490fd5b60405162461bcd60e51b815260206004820152601660248201527524b73b30b634b21032b234ba34b7b710373ab6b132b960511b6044820152606490fd5b90506102643510158f61443e565b60405162461bcd60e51b8152602060048201526024808201527f5965617220637265617465642063616e6e6f7420626520696e207468652066756044820152637475726560e01b6064820152608490fd5b60405162461bcd60e51b81526020600482015260156024820152745469746c652063616e6e6f7420626520656d70747960581b6044820152606490fd5b60405162461bcd60e51b81526020600482015260166024820152754172746973742063616e6e6f7420626520656d70747960501b6044820152606490fd5b346104c3576145c836614d64565b6145d0614ec1565b81600052602091600c83526145ee6008604060002001541515615ce9565b60005260138252604060002090600860078301926001938460ff1982541617905501928151916001600160401b0383116109335761462c8554614df1565b601f81116146bb575b5081601f84116001146146725750928293918392600094614667575b50501b916000199060031b1c1916179055600080f35b015192508580614651565b919083601f1981168760005284600020946000905b888383106146a157505050106108bc57505050811b019055005b858701518855909601959485019487935090810190614687565b8560005282600020601f850160051c8101918486106146fa575b601f0160051c019085905b8281106146ee575050614635565b600081550185906146e0565b90915081906146d5565b346104c35760003660031901126104c3576020600254604051908152f35b346104c35761473036614d64565b90614739614ec1565b80600052602090600c82526147576008604060002001541515615ce9565b600052601381526006604060002001908251906001600160401b038211610933576147828354614df1565b601f8111614804575b5080601f83116001146147bb575081929360009261087f575050600019600383901b1c191660019190911b179055005b90601f198316948460005282600020926000905b8782106147ec5750508360019596106108bc57505050811b019055005b806001859682949686015181550195019301906147cf565b8360005281600020601f840160051c810191838510614840575b601f0160051c01905b818110614834575061478b565b60008155600101614827565b909150819061481e565b346104c35760403660031901126104c357611a6e614866614cf0565b6024359033615642565b346104c35760003660031901126104c357604051600060035461489281614df1565b80845290600190818116908115611bfb57506001146148bb57611b9c84611b8881860382614c6d565b6003600090815292507fc2575a0e9e593c00f959f8c92f12db2869c3395a3b0502d05e2516446f71f85b5b8284106148fe575050508101602001611b8882611b78565b805460208587018101919091529093019281016148e6565b346104c35760203660031901126104c3576001600160a01b03614937614cf0565b16600052600f602052602060ff604060002054166040519015158152f35b346104c35760003660031901126104c35760206040517f442a94f1a1fac79af32856af2a64f63648cfa2ef3b98610a5bb7cbec4cee69858152f35b346104c35760603660031901126104c3576004356001600160401b036024356044358281116104c3576149c7903690600401614ca9565b6149cf614ec1565b83600052602092600c845260086040600020015415614b93578215614b7a5784600052600c8452600560406000208460038201554260048201550191805191821161093357614a1e8354614df1565b601f8111614b34575b508490601f8311600114614ab457936000805160206160fb83398151915295938361269e94614a7494608098600092614aa9575b50508160011b916000199060031b1c191617905561603a565b60405193849360408552600e60408601526d61707072616973656456616c756560901b60608601528401526080830190614d3f565b015190508a80614a5b565b90601f1983169184600052866000209260005b818110614b1d575084614a7494608098946000805160206160fb8339815191529a989461269e9860019510614b04575b505050811b01905561603a565b015160001960f88460031b161c191690558a8080614af7565b929388600181928786015181550195019301614ac7565b8360005285600020601f840160051c810191878510614b70575b601f0160051c01905b818110614b645750614a27565b60008155600101614b57565b9091508190614b4e565b6040516306dd0df760e11b815260048101849052602490fd5b6040516343ce9af560e01b815260048101869052602490fd5b346104c35760203660031901126104c3576004359063ffffffff60e01b82168092036104c357602091637965db0b60e01b8114908115614bee575b5015158152f35b6301ffc9a760e01b14905083614be7565b6101a081019081106001600160401b0382111761093357604052565b61012081019081106001600160401b0382111761093357604052565b604081019081106001600160401b0382111761093357604052565b608081019081106001600160401b0382111761093357604052565b90601f801991011681019081106001600160401b0382111761093357604052565b6001600160401b03811161093357601f01601f191660200190565b81601f820112156104c357803590614cc082614c8e565b92614cce6040519485614c6d565b828452602083830101116104c357816000926020809301838601378301015290565b600435906001600160a01b03821682036104c357565b602435906001600160a01b03821682036104c357565b60005b838110614d2f5750506000910152565b8181015183820152602001614d1f565b90602091614d5881518092818552858086019101614d1c565b601f01601f1916010190565b9060406003198301126104c35760043591602435906001600160401b0382116104c357614d9391600401614ca9565b90565b6024359081151582036104c357565b90815180825260208080930193019160005b828110614dc5575050505090565b835185529381019392810192600101614db7565b80548210156104ad5760005260206000200190600090565b90600182811c92168015614e21575b6020831014614e0b57565b634e487b7160e01b600052602260045260246000fd5b91607f1691614e00565b9060009291805491614e3c83614df1565b918282526001938481169081600014614e9e5750600114614e5e575b50505050565b90919394506000526020928360002092846000945b838610614e8a575050505001019038808080614e58565b805485870183015294019385908201614e73565b9294505050602093945060ff191683830152151560051b01019038808080614e58565b3360009081527f81aa20521b1f8377105c149ab3e891a614f1dc1af7e3227dafa44b3aa3f87adc602090815260408083205490927f442a94f1a1fac79af32856af2a64f63648cfa2ef3b98610a5bb7cbec4cee69859160ff1615614f255750505050565b614f2e33615755565b91845190614f3b82614c52565b6042825284820192606036853782511561509b576030845382519060019182101561509b5790607860218501536041915b81831161502d57505050614feb57604861040c938693614fcf93614fc0985198899376020b1b1b2b9b9a1b7b73a3937b61d1030b1b1b7bab73a1604d1b8a8601526103b3815180928c603789019101614d1c565b01036028810187520185614c6d565b5192839262461bcd60e51b845260048401526024830190614d3f565b60648486519062461bcd60e51b825280600483015260248201527f537472696e67733a20686578206c656e67746820696e73756666696369656e746044820152fd5b909192600f81166010811015615087576f181899199a1a9b1b9c1cb0b131b232b360811b901a61505d8587615744565b5360041c92801561507357600019019190614f6c565b634e487b7160e01b82526011600452602482fd5b634e487b7160e01b83526032600452602483fd5b634e487b7160e01b81526032600452602490fd5b3360009081527faa1d7351356c4ddc11907b1ee0660f579cfdf507235af2ae01ecd22a4b7ceaae602090815260408083205490927f9f2df0fed2c77648de5860a4cc508cd0818c85b8b8a1ab4ceeef8d981c8956a69160ff16156151135750505050565b61511c33615755565b9184519061512982614c52565b6042825284820192606036853782511561509b576030845382519060019182101561509b5790607860218501536041915b8183116151ae57505050614feb57604861040c938693614fcf93614fc0985198899376020b1b1b2b9b9a1b7b73a3937b61d1030b1b1b7bab73a1604d1b8a8601526103b3815180928c603789019101614d1c565b909192600f81166010811015615087576f181899199a1a9b1b9c1cb0b131b232b360811b901a6151de8587615744565b5360041c9280156150735760001901919061515a565b3360009081527f6c4ab3a3cc4fea3ac566afdaa38e0e471d1bdfd1aa59eb20affdabfa5e893fed602090815260408083205490927f65d7a28e3265b37a6474929f336521b332c1681b933f6cb9f3376673440d862a9160ff16156152585750505050565b61526133615755565b9184519061526e82614c52565b6042825284820192606036853782511561509b576030845382519060019182101561509b5790607860218501536041915b8183116152f357505050614feb57604861040c938693614fcf93614fc0985198899376020b1b1b2b9b9a1b7b73a3937b61d1030b1b1b7bab73a1604d1b8a8601526103b3815180928c603789019101614d1c565b909192600f81166010811015615087576f181899199a1a9b1b9c1cb0b131b232b360811b901a6153238587615744565b5360041c9280156150735760001901919061529f565b600090808252602090600a8252604092838120338252835260ff8482205416156153635750505050565b61536c33615755565b9184519061537982614c52565b6042825284820192606036853782511561509b576030845382519060019182101561509b5790607860218501536041915b8183116153fe57505050614feb57604861040c938693614fcf93614fc0985198899376020b1b1b2b9b9a1b7b73a3937b61d1030b1b1b7bab73a1604d1b8a8601526103b3815180928c603789019101614d1c565b909192600f81166010811015615087576f181899199a1a9b1b9c1cb0b131b232b360811b901a61542e8587615744565b5360041c928015615073576000190191906153aa565b90600091808352600a602052604083209160018060a01b03169182845260205260ff60408420541661547557505050565b808352600a602052604083208284526020526040832060ff1981541690557ff6391f5c32d9c69d2a47ea670b442974b53935d1edc7fd64eb21e047a839171b339380a4565b9190820180921161049757565b90916001600160a01b03808316929083156155ef57841693841561559e576154ee91615fa3565b60008281528060205260408120549180831061554a57604082827fddf252ad1be2c89b69c2b068fc378daa952ba7f163c4a11628f55a4df523b3ef958760209652828652038282205586815220818154019055604051908152a3565b60405162461bcd60e51b815260206004820152602660248201527f45524332303a207472616e7366657220616d6f756e7420657863656564732062604482015265616c616e636560d01b6064820152608490fd5b60405162461bcd60e51b815260206004820152602360248201527f45524332303a207472616e7366657220746f20746865207a65726f206164647260448201526265737360e81b6064820152608490fd5b60405162461bcd60e51b815260206004820152602560248201527f45524332303a207472616e736665722066726f6d20746865207a65726f206164604482015264647265737360d81b6064820152608490fd5b6001600160a01b039081169182156156f357169182156156a35760207f8c5be1e5ebec7d5bd14f71427d1e84f3dd0314c0f7b2291e5b200ac8c7c3b925918360005260018252604060002085600052825280604060002055604051908152a3565b60405162461bcd60e51b815260206004820152602260248201527f45524332303a20617070726f766520746f20746865207a65726f206164647265604482015261737360f01b6064820152608490fd5b60405162461bcd60e51b8152602060048201526024808201527f45524332303a20617070726f76652066726f6d20746865207a65726f206164646044820152637265737360e01b6064820152608490fd5b9081518110156104ad570160200190565b60405190606082018281106001600160401b0382111761093357604052602a82526020820160403682378251156104ad576030905381516001908110156104ad57607860218401536029905b8082116157f55750506157b15790565b606460405162461bcd60e51b815260206004820152602060248201527f537472696e67733a20686578206c656e67746820696e73756666696369656e746044820152fd5b9091600f8116601081101561584e576f181899199a1a9b1b9c1cb0b131b232b360811b901a6158248486615744565b5360041c9180156158395760001901906157a1565b60246000634e487b7160e01b81526011600452fd5b60246000634e487b7160e01b81526032600452fd5b600581101561596757806158745750565b600181036158c15760405162461bcd60e51b815260206004820152601860248201527f45434453413a20696e76616c6964207369676e617475726500000000000000006044820152606490fd5b6002810361590e5760405162461bcd60e51b815260206004820152601f60248201527f45434453413a20696e76616c6964207369676e6174757265206c656e677468006044820152606490fd5b60031461591757565b60405162461bcd60e51b815260206004820152602260248201527f45434453413a20696e76616c6964207369676e6174757265202773272076616c604482015261756560f01b6064820152608490fd5b634e487b7160e01b600052602160045260246000fd5b9291907f7fffffffffffffffffffffffffffffff5d576e7357a4501ddfe92f46681b20a08311615a005791608094939160ff602094604051948552168484015260408301526060820152600093849182805260015afa156159f35781516001600160a01b038116156159ed579190565b50600190565b50604051903d90823e3d90fd5b50505050600090600390565b307f00000000000000000000000000000000000000000000000000000000000000006001600160a01b03161480615b0d575b15615a67577f000000000000000000000000000000000000000000000000000000000000000090565b60405160208101907f8b73c3c69bb8fe3d512ecc4cf759cc79239f7b179b0ffacaa9a75d522b39400f82527f000000000000000000000000000000000000000000000000000000000000000060408201527f000000000000000000000000000000000000000000000000000000000000000060608201524660808201523060a082015260a0815260c081018181106001600160401b038211176109335760405251902090565b507f00000000000000000000000000000000000000000000000000000000000000004614615a3e565b60ff8114615b745760ff811690601f8211615b625760405191615b5883614c37565b8252602082015290565b604051632cd44ac360e21b8152600490fd5b50604051600554816000615b8783614df1565b80835292600190818116908115615c0d5750600114615bae575b50614d9392500382614c6d565b6005600090815291507f036b6384b5eca791c62761152d0c79bb0604c104a5fb6f4eb0703f3154bb3db05b848310615bf25750614d93935050810160200138615ba1565b81935090816020925483858901015201910190918492615bd9565b905060209250614d9394915060ff191682840152151560051b82010138615ba1565b60ff8114615c515760ff811690601f8211615b625760405191615b5883614c37565b50604051600654816000615c6483614df1565b80835292600190818116908115615c0d5750600114615c8a5750614d9392500382614c6d565b6006600090815291507ff652222313e28459528d920b65115c16c04f3efc82aaedc97be59f3f377c0d3f5b848310615cce5750614d93935050810160200138615ba1565b81935090816020925483858901015201910190918492615cb5565b15615cf057565b60405162461bcd60e51b8152602060048201526014602482015273105cdcd95d08191bd95cc81b9bdd08195e1a5cdd60621b6044820152606490fd5b15615d3357565b60405162461bcd60e51b815260206004820152601b60248201527f43616e6e6f74206d696e7420746f207a65726f206164647265737300000000006044820152606490fd5b15615d7f57565b606460405162461bcd60e51b815260206004820152602060248201527f416d6f756e74206d7573742062652067726561746572207468616e207a65726f6044820152fd5b60001981146104975760010190565b60ff60095416615dde57565b60405162461bcd60e51b815260206004820152601060248201526f14185d5cd8589b194e881c185d5cd95960821b6044820152606490fd5b6001600160a01b0316908115615ed65760ff60095416615e7e577fddf252ad1be2c89b69c2b068fc378daa952ba7f163c4a11628f55a4df523b3ef602082615e626000946002546154ba565b60025584845283825260408420818154019055604051908152a3565b60405162461bcd60e51b815260206004820152602a60248201527f45524332305061757361626c653a20746f6b656e207472616e736665722077686044820152691a5b19481c185d5cd95960b21b6064820152608490fd5b60405162461bcd60e51b815260206004820152601f60248201527f45524332303a206d696e7420746f20746865207a65726f2061646472657373006044820152606490fd5b60ff60095416615e7e576001600160a01b031680158015615f9b575b615f985760ff60105416615f485750565b6000818152600e60205260ff6040822054168015615f87575b615f69575050565b6044925060405191637617407560e11b835260048301526024820152fd5b5080805260ff604082205416615f61565b50565b506001615f37565b60ff60095416615e7e576001600160a01b039081169182158015616030575b61602b5760ff60105416615fd557505050565b82600052600e60205260ff604060002054168015616016575b615ff757505050565b6044935060405192637617407560e11b84526004840152166024820152fd5b5081811660005260ff60406000205416615fee565b505050565b5081811615615fc2565b80156160dc5780816000925b6160c6575061605482614c8e565b916160626040519384614c6d565b80835281601f1961607283614c8e565b013660208601375b61608357505090565b6000198101908111610497578091600a91603083830681018091116104975760f81b6001600160f81b03191660001a906160bd9086615744565b5304908161607a565b90916160d3600a91615dc3565b92910480616046565b506040516160e981614c37565b60018152600360fc1b60208201529056fe589f5f1b831c2b1bb6368f38c84e2a21507d083cfa73f4d227d7f3d4895df766a2646970667358221220711fcc738deeb9baa509e93bee0e7cf190715abebe05a62c206a69484187dbb664736f6c634300081400332f8788117e7eff1d82e926ec794901d17c78024a50270940304540a733656f0d",
  "linkReferences": {},
  "deployedLinkReferences": {}
}