{
  "_format": "hh-sol-artifact-1",
  "contractName": "EquipmentToken",
  "sourceName": "contracts/EquipmentToken.sol",
  "abi": [
    {
      "inputs": [
        {
          "internalType": "address",
          "name": "admin",
          "type": "address"
        }
      ],
      "stateMutability": "nonpayable",
      "type": "constructor"
    },
    {
      "inputs": [
        {
          "internalType": "uint256",
          "name": "assetId",
          "type": "uint256"
        }
      ],
      "name": "AssetNotExists",
      "type": "error"
    },
    {
      "inputs": [
        {
          "internalType": "address",
          "name": "account",
          "type": "address"
        }
      ],
      "name": "BlacklistedAddress",
      "type": "error"
    },
    {
      "inputs": [
        {
          "internalType": "uint256",
          "name": "requested",
          "type": "uint256"
        },
        {
          "internalType": "uint256",
          "name": "maxSupply",
          "type": "uint256"
        }
      ],
      "name": "ExceedsMaxSupply",
      "type": "error"
    },
    {
      "inputs": [
        {
          "internalType": "uint256",
          "name": "requested",
          "type": "uint256"
        },
        {
          "internalType": "uint256",
          "name": "available",
          "type": "uint256"
        }
      ],
      "name": "InsufficientAllowance",
      "type": "error"
    },
    {
      "inputs": [
        {
          "internalType": "uint256",
          "name": "value",
          "type": "uint256"
        }
      ],
      "name": "InvalidAppraisalValue",
      "type": "error"
    },
    {
      "inputs": [],
      "name": "InvalidShortString",
      "type": "error"
    },
    {
      "inputs": [
        {
          "internalType": "string",
          "name": "str",
          "type": "string"
        }
      ],
      "name": "StringTooLong",
      "type": "error"
    },
    {
      "inputs": [
        {
          "internalType": "address",
          "name": "from",
          "type": "address"
        },
        {
          "internalType": "address",
          "name": "to",
          "type": "address"
        }
      ],
      "name": "UnauthorizedTransfer",
      "type": "error"
    },
    {
      "anonymous": false,
      "inputs": [
        {
          "indexed": true,
          "internalType": "address",
          "name": "owner",
          "type": "address"
        },
        {
          "indexed": true,
          "internalType": "address",
          "name": "spender",
          "type": "address"
        },
        {
          "indexed": false,
          "internalType": "uint256",
          "name": "value",
          "type": "uint256"
        }
      ],
      "name": "Approval",
      "type": "event"
    },
    {
      "anonymous": false,
      "inputs": [
        {
          "indexed": true,
          "internalType": "uint256",
          "name": "assetId",
          "type": "uint256"
        },
        {
          "indexed": false,
          "internalType": "string",
          "name": "field",
          "type": "string"
        },
        {
          "indexed": false,
          "internalType": "string",
          "name": "newValue",
          "type": "string"
        }
      ],
      "name": "AssetMetadataUpdated",
      "type": "event"
    },
    {
      "anonymous": false,
      "inputs": [
        {
          "indexed": true,
          "internalType": "uint256",
          "name": "assetId",
          "type": "uint256"
        },
        {
          "indexed": true,
          "internalType": "address",
          "name": "owner",
          "type": "address"
        },
        {
          "indexed": false,
          "internalType": "uint256",
          "name": "amount",
          "type": "uint256"
        },
        {
          "indexed": false,
          "internalType": "string",
          "name": "assetType",
          "type": "string"
        },
        {
          "indexed": false,
          "internalType": "uint256",
          "name": "appraisedValue",
          "type": "uint256"
        }
      ],
      "name": "AssetTokenized",
      "type": "event"
    },
    {
      "anonymous": false,
      "inputs": [
        {
          "indexed": true,
          "internalType": "address",
          "name": "account",
          "type": "address"
        },
        {
          "indexed": false,
          "internalType": "bool",
          "name": "blacklisted",
          "type": "bool"
        }
      ],
      "name": "ComplianceStatusChanged",
      "type": "event"
    },
    {
      "anonymous": false,
      "inputs": [],
      "name": "EIP712DomainChanged",
      "type": "event"
    },
    {
      "anonymous": false,
      "inputs": [
        {
          "indexed": true,
          "internalType": "uint256",
          "name": "assetId",
          "type": "uint256"
        },
        {
          "indexed": false,
          "internalType": "string",
          "name": "manufacturer",
          "type": "string"
        },
        {
          "indexed": false,
          "internalType": "string",
          "name": "model",
          "type": "string"
        },
        {
          "indexed": false,
          "internalType": "uint256",
          "name": "yearManufactured",
          "type": "uint256"
        },
        {
          "indexed": false,
          "internalType": "string",
          "name": "equipmentType",
          "type": "string"
        }
      ],
      "name": "EquipmentTokenized",
      "type": "event"
    },
    {
      "anonymous": false,
      "inputs": [
        {
          "indexed": false,
          "internalType": "address",
          "name": "account",
          "type": "address"
        }
      ],
      "name": "Paused",
      "type": "event"
    },
    {
      "anonymous": false,
      "inputs": [
        {
          "indexed": true,
          "internalType": "bytes32",
          "name": "role",
          "type": "bytes32"
        },
        {
          "indexed": true,
          "internalType": "bytes32",
          "name": "previousAdminRole",
          "type": "bytes32"
        },
        {
          "indexed": true,
          "internalType": "bytes32",
          "name": "newAdminRole",
          "type": "bytes32"
        }
      ],
      "name": "RoleAdminChanged",
      "type": "event"
    },
    {
      "anonymous": false,
      "inputs": [
        {
          "indexed": true,
          "internalType": "bytes32",
          "name": "role",
          "type": "bytes32"
        },
        {
          "indexed": true,
          "internalType": "address",
          "name": "account",
          "type": "address"
        },
        {
          "indexed": true,
          "internalType": "address",
          "name": "sender",
          "type": "address"
        }
      ],
      "name": "RoleGranted",
      "type": "event"
    },
    {
      "anonymous": false,
      "inputs": [
        {
          "indexed": true,
          "internalType": "bytes32",
          "name": "role",
          "type": "bytes32"
        },
        {
          "indexed": true,
          "internalType": "address",
          "name": "account",
          "type": "address"
        },
        {
          "indexed": true,
          "internalType": "address",
          "name": "sender",
          "type": "address"
        }
      ],
      "name": "RoleRevoked",
      "type": "event"
    },
    {
      "anonymous": false,
      "inputs": [
        {
          "indexed": false,
          "internalType": "uint256",
          "name": "oldCap",
          "type": "uint256"
        },
        {
          "indexed": false,
          "internalType": "uint256",
          "name": "newCap",
          "type": "uint256"
        }
      ],
      "name": "SupplyCapUpdated",
      "type": "event"
    },
    {
      "anonymous": false,
      "inputs": [
        {
          "indexed": true,
          "internalType": "address",
          "name": "from",
          "type": "address"
        },
        {
          "indexed": true,
          "internalType": "address",
          "name": "to",
          "type": "address"
        },
        {
          "indexed": false,
          "internalType": "uint256",
          "name": "value",
          "type": "uint256"
        }
      ],
      "name": "Transfer",
      "type": "event"
    },
    {
      "anonymous": false,
      "inputs": [
        {
          "indexed": false,
          "internalType": "address",
          "name": "account",
          "type": "address"
        }
      ],
      "name": "Unpaused",
      "type": "event"
    },
    {
      "inputs": [],
      "name": "COMPLIANCE_ROLE",
      "outputs": [
        {
          "internalType": "bytes32",
          "name": "",
          "type": "bytes32"
        }
      ],
      "stateMutability": "view",
      "type": "function"
    },
    {
      "inputs": [],
      "name": "DEFAULT_ADMIN_ROLE",
      "outputs": [
        {
          "internalType": "bytes32",
          "name": "",
          "type": "bytes32"
        }
      ],
      "stateMutability": "view",
      "type": "function"
    },
    {
      "inputs": [],
      "name": "DOMAIN_SEPARATOR",
      "outputs": [
        {
          "internalType": "bytes32",
          "name": "",
          "type": "bytes32"
        }
      ],
      "stateMutability": "view",
      "type": "function"
    },
    {
      "inputs": [],
      "name": "MINTER_ROLE",
      "outputs": [
        {
          "internalType": "bytes32",
          "name": "",
          "type": "bytes32"
        }
      ],
      "stateMutability": "view",
      "type": "function"
    },
    {
      "inputs": [],
      "name": "PAUSER_ROLE",
      "outputs": [
        {
          "internalType": "bytes32",
          "name": "",
          "type": "bytes32"
        }
      ],
      "stateMutability": "view",
      "type": "function"
    },
    {
      "inputs": [
        {
          "internalType": "uint256",
          "name": "assetId",
          "type": "uint256"
        },
        {
          "internalType": "string",
          "name": "maintenanceRecord",
          "type": "string"
        }
      ],
      "name": "addMaintenanceRecord",
      "outputs": [],
      "stateMutability": "nonpayable",
      "type": "function"
    },
    {
      "inputs": [
        {
          "internalType": "address",
          "name": "owner",
          "type": "address"
        },
        {
          "internalType": "address",
          "name": "spender",
          "type": "address"
        }
      ],
      "name": "allowance",
      "outputs": [
        {
          "internalType": "uint256",
          "name": "",
          "type": "uint256"
        }
      ],
      "stateMutability": "view",
      "type": "function"
    },
    {
      "inputs": [
        {
          "internalType": "address",
          "name": "spender",
          "type": "address"
        },
        {
          "internalType": "uint256",
          "name": "amount",
          "type": "uint256"
        }
      ],
      "name": "approve",
      "outputs": [
        {
          "internalType": "bool",
          "name": "",
          "type": "bool"
        }
      ],
      "stateMutability": "nonpayable",
      "type": "function"
    },
    {
      "inputs": [
        {
          "internalType": "uint256",
          "name": "",
          "type": "uint256"
        }
      ],
      "name": "assets",
      "outputs": [
        {
          "internalType": "string",
          "name": "assetType",
          "type": "string"
        },
        {
          "internalType": "string",
          "name": "description",
          "type": "string"
        },
        {
          "internalType": "string",
          "name": "location",
          "type": "string"
        },
        {
          "internalType": "uint256",
          "name": "appraisedValue",
          "type": "uint256"
        },
        {
          "internalType": "uint256",
          "name": "appraisalDate",
          "type": "uint256"
        },
        {
          "internalType": "string",
          "name": "appraisalCompany",
          "type": "string"
        },
        {
          "internalType": "string",
          "name": "documentHash",
          "type": "string"
        },
        {
          "internalType": "bool",
          "name": "isVerified",
          "type": "bool"
        },
        {
          "internalType": "uint256",
          "name": "createdAt",
          "type": "uint256"
        }
      ],
      "stateMutability": "view",
      "type": "function"
    },
    {
      "inputs": [
        {
          "internalType": "address",
          "name": "account",
          "type": "address"
        }
      ],
      "name": "balanceOf",
      "outputs": [
        {
          "internalType": "uint256",
          "name": "",
          "type": "uint256"
        }
      ],
      "stateMutability": "view",
      "type": "function"
    },
    {
      "inputs": [
        {
          "internalType": "address",
          "name": "",
          "type": "address"
        }
      ],
      "name": "blacklistedAddresses",
      "outputs": [
        {
          "internalType": "bool",
          "name": "",
          "type": "bool"
        }
      ],
      "stateMutability": "view",
      "type": "function"
    },
    {
      "inputs": [
        {
          "internalType": "address",
          "name": "from",
          "type": "address"
        },
        {
          "internalType": "uint256",
          "name": "amount",
          "type": "uint256"
        }
      ],
      "name": "burnFrom",
      "outputs": [],
      "stateMutability": "nonpayable",
      "type": "function"
    },
    {
      "inputs": [],
      "name": "complianceEnabled",
      "outputs": [
        {
          "internalType": "bool",
          "name": "",
          "type": "bool"
        }
      ],
      "stateMutability": "view",
      "type": "function"
    },
    {
      "inputs": [],
      "name": "decimals",
      "outputs": [
        {
          "internalType": "uint8",
          "name": "",
          "type": "uint8"
        }
      ],
      "stateMutability": "view",
      "type": "function"
    },
    {
      "inputs": [
        {
          "internalType": "address",
          "name": "spender",
          "type": "address"
        },
        {
          "internalType": "uint256",
          "name": "subtractedValue",
          "type": "uint256"
        }
      ],
      "name": "decreaseAllowance",
      "outputs": [
        {
          "internalType": "bool",
          "name": "",
          "type": "bool"
        }
      ],
      "stateMutability": "nonpayable",
      "type": "function"
    },
    {
      "inputs": [],
      "name": "eip712Domain",
      "outputs": [
        {
          "internalType": "bytes1",
          "name": "fields",
          "type": "bytes1"
        },
        {
          "internalType": "string",
          "name": "name",
          "type": "string"
        },
        {
          "internalType": "string",
          "name": "version",
          "type": "string"
        },
        {
          "internalType": "uint256",
          "name": "chainId",
          "type": "uint256"
        },
        {
          "internalType": "address",
          "name": "verifyingContract",
          "type": "address"
        },
        {
          "internalType": "bytes32",
          "name": "salt",
          "type": "bytes32"
        },
        {
          "internalType": "uint256[]",
          "name": "extensions",
          "type": "uint256[]"
        }
      ],
      "stateMutability": "view",
      "type": "function"
    },
    {
      "inputs": [
        {
          "internalType": "uint256",
          "name": "",
          "type": "uint256"
        }
      ],
      "name": "equipmentData",
      "outputs": [
        {
          "internalType": "string",
          "name": "manufacturer",
          "type": "string"
        },
        {
          "internalType": "string",
          "name": "model",
          "type": "string"
        },
        {
          "internalType": "string",
          "name": "serialNumber",
          "type": "string"
        },
        {
          "internalType": "uint256",
          "name": "yearManufactured",
          "type": "uint256"
        },
        {
          "internalType": "string",
          "name": "equipmentType",
          "type": "string"
        },
        {
          "internalType": "string",
          "name": "condition",
          "type": "string"
        },
        {
          "internalType": "uint256",
          "name": "operatingHours",
          "type": "uint256"
        },
        {
          "internalType": "string",
          "name": "maintenanceHistory",
          "type": "string"
        },
        {
          "internalType": "bool",
          "name": "isOperational",
          "type": "bool"
        },
        {
          "internalType": "string",
          "name": "specifications",
          "type": "string"
        },
        {
          "internalType": "uint256",
          "name": "warrantyExpiry",
          "type": "uint256"
        },
        {
          "internalType": "string",
          "name": "certifications",
          "type": "string"
        }
      ],
      "stateMutability": "view",
      "type": "function"
    },
    {
      "inputs": [
        {
          "internalType": "uint256",
          "name": "assetId",
          "type": "uint256"
        }
      ],
      "name": "getAssetMetadata",
      "outputs": [
        {
          "components": [
            {
              "internalType": "string",
              "name": "assetType",
              "type": "string"
            },
            {
              "internalType": "string",
              "name": "description",
              "type": "string"
            },
            {
              "internalType": "string",
              "name": "location",
              "type": "string"
            },
            {
              "internalType": "uint256",
              "name": "appraisedValue",
              "type": "uint256"
            },
            {
              "internalType": "uint256",
              "name": "appraisalDate",
              "type": "uint256"
            },
            {
              "internalType": "string",
              "name": "appraisalCompany",
              "type": "string"
            },
            {
              "internalType": "string",
              "name": "documentHash",
              "type": "string"
            },
            {
              "internalType": "bool",
              "name": "isVerified",
              "type": "bool"
            },
            {
              "internalType": "uint256",
              "name": "createdAt",
              "type": "uint256"
            }
          ],
          "internalType": "struct IAssetMetadata.AssetMetadata",
          "name": "",
          "type": "tuple"
        }
      ],
      "stateMutability": "view",
      "type": "function"
    },
    {
      "inputs": [],
      "name": "getCurrentAssetId",
      "outputs": [
        {
          "internalType": "uint256",
          "name": "",
          "type": "uint256"
        }
      ],
      "stateMutability": "view",
      "type": "function"
    },
    {
      "inputs": [
        {
          "internalType": "uint256",
          "name": "assetId",
          "type": "uint256"
        }
      ],
      "name": "getEquipmentData",
      "outputs": [
        {
          "components": [
            {
              "internalType": "string",
              "name": "manufacturer",
              "type": "string"
            },
            {
              "internalType": "string",
              "name": "model",
              "type": "string"
            },
            {
              "internalType": "string",
              "name": "serialNumber",
              "type": "string"
            },
            {
              "internalType": "uint256",
              "name": "yearManufactured",
              "type": "uint256"
            },
            {
              "internalType": "string",
              "name": "equipmentType",
              "type": "string"
            },
            {
              "internalType": "string",
              "name": "condition",
              "type": "string"
            },
            {
              "internalType": "uint256",
              "name": "operatingHours",
              "type": "uint256"
            },
            {
              "internalType": "string",
              "name": "maintenanceHistory",
              "type": "string"
            },
            {
              "internalType": "bool",
              "name": "isOperational",
              "type": "bool"
            },
            {
              "internalType": "string",
              "name": "specifications",
              "type": "string"
            },
            {
              "internalType": "uint256",
              "name": "warrantyExpiry",
              "type": "uint256"
            },
            {
              "internalType": "string",
              "name": "certifications",
              "type": "string"
            }
          ],
          "internalType": "struct EquipmentToken.EquipmentData",
          "name": "",
          "type": "tuple"
        }
      ],
      "stateMutability": "view",
      "type": "function"
    },
    {
      "inputs": [
        {
          "internalType": "address",
          "name": "owner",
          "type": "address"
        }
      ],
      "name": "getOwnerAssets",
      "outputs": [
        {
          "internalType": "uint256[]",
          "name": "",
          "type": "uint256[]"
        }
      ],
      "stateMutability": "view",
      "type": "function"
    },
    {
      "inputs": [
        {
          "internalType": "bytes32",
          "name": "role",
          "type": "bytes32"
        }
      ],
      "name": "getRoleAdmin",
      "outputs": [
        {
          "internalType": "bytes32",
          "name": "",
          "type": "bytes32"
        }
      ],
      "stateMutability": "view",
      "type": "function"
    },
    {
      "inputs": [
        {
          "internalType": "bytes32",
          "name": "role",
          "type": "bytes32"
        },
        {
          "internalType": "address",
          "name": "account",
          "type": "address"
        }
      ],
      "name": "grantRole",
      "outputs": [],
      "stateMutability": "nonpayable",
      "type": "function"
    },
    {
      "inputs": [
        {
          "internalType": "bytes32",
          "name": "role",
          "type": "bytes32"
        },
        {
          "internalType": "address",
          "name": "account",
          "type": "address"
        }
      ],
      "name": "hasRole",
      "outputs": [
        {
          "internalType": "bool",
          "name": "",
          "type": "bool"
        }
      ],
      "stateMutability": "view",
      "type": "function"
    },
    {
      "inputs": [
        {
          "internalType": "address",
          "name": "spender",
          "type": "address"
        },
        {
          "internalType": "uint256",
          "name": "addedValue",
          "type": "uint256"
        }
      ],
      "name": "increaseAllowance",
      "outputs": [
        {
          "internalType": "bool",
          "name": "",
          "type": "bool"
        }
      ],
      "stateMutability": "nonpayable",
      "type": "function"
    },
    {
      "inputs": [],
      "name": "maxSupply",
      "outputs": [
        {
          "internalType": "uint256",
          "name": "",
          "type": "uint256"
        }
      ],
      "stateMutability": "view",
      "type": "function"
    },
    {
      "inputs": [
        {
          "internalType": "address",
          "name": "to",
          "type": "address"
        },
        {
          "internalType": "uint256",
          "name": "amount",
          "type": "uint256"
        }
      ],
      "name": "mint",
      "outputs": [],
      "stateMutability": "nonpayable",
      "type": "function"
    },
    {
      "inputs": [
        {
          "internalType": "address",
          "name": "to",
          "type": "address"
        },
        {
          "internalType": "uint256",
          "name": "amount",
          "type": "uint256"
        },
        {
          "internalType": "string",
          "name": "assetType",
          "type": "string"
        },
        {
          "internalType": "string",
          "name": "description",
          "type": "string"
        },
        {
          "internalType": "string",
          "name": "location",
          "type": "string"
        },
        {
          "internalType": "uint256",
          "name": "appraisedValue",
          "type": "uint256"
        },
        {
          "internalType": "string",
          "name": "appraisalCompany",
          "type": "string"
        },
        {
          "internalType": "string",
          "name": "documentHash",
          "type": "string"
        }
      ],
      "name": "mintAsset",
      "outputs": [
        {
          "internalType": "uint256",
          "name": "",
          "type": "uint256"
        }
      ],
      "stateMutability": "nonpayable",
      "type": "function"
    },
    {
      "inputs": [
        {
          "internalType": "address",
          "name": "to",
          "type": "address"
        },
        {
          "internalType": "uint256",
          "name": "amount",
          "type": "uint256"
        },
        {
          "internalType": "string",
          "name": "description",
          "type": "string"
        },
        {
          "internalType": "string",
          "name": "location",
          "type": "string"
        },
        {
          "internalType": "uint256",
          "name": "appraisedValue",
          "type": "uint256"
        },
        {
          "internalType": "string",
          "name": "appraisalCompany",
          "type": "string"
        },
        {
          "internalType": "string",
          "name": "documentHash",
          "type": "string"
        },
        {
          "internalType": "string",
          "name": "manufacturer",
          "type": "string"
        },
        {
          "internalType": "string",
          "name": "model",
          "type": "string"
        },
        {
          "internalType": "string",
          "name": "serialNumber",
          "type": "string"
        },
        {
          "internalType": "uint256",
          "name": "yearManufactured",
          "type": "uint256"
        },
        {
          "internalType": "string",
          "name": "equipmentType",
          "type": "string"
        },
        {
          "internalType": "string",
          "name": "condition",
          "type": "string"
        },
        {
          "internalType": "uint256",
          "name": "operatingHours",
          "type": "uint256"
        },
        {
          "internalType": "string",
          "name": "maintenanceHistory",
          "type": "string"
        },
        {
          "internalType": "bool",
          "name": "isOperational",
          "type": "bool"
        },
        {
          "internalType": "string",
          "name": "specifications",
          "type": "string"
        },
        {
          "internalType": "uint256",
          "name": "warrantyExpiry",
          "type": "uint256"
        },
        {
          "internalType": "string",
          "name": "certifications",
          "type": "string"
        }
      ],
      "name": "mintEquipment",
      "outputs": [
        {
          "internalType": "uint256",
          "name": "",
          "type": "uint256"
        }
      ],
      "stateMutability": "nonpayable",
      "type": "function"
    },
    {
      "inputs": [],
      "name": "name",
      "outputs": [
        {
          "internalType": "string",
          "name": "",
          "type": "string"
        }
      ],
      "stateMutability": "view",
      "type": "function"
    },
    {
      "inputs": [
        {
          "internalType": "address",
          "name": "owner",
          "type": "address"
        }
      ],
      "name": "nonces",
      "outputs": [
        {
          "internalType": "uint256",
          "name": "",
          "type": "uint256"
        }
      ],
      "stateMutability": "view",
      "type": "function"
    },
    {
      "inputs": [
        {
          "internalType": "address",
          "name": "",
          "type": "address"
        },
        {
          "internalType": "uint256",
          "name": "",
          "type": "uint256"
        }
      ],
      "name": "ownerAssets",
      "outputs": [
        {
          "internalType": "uint256",
          "name": "",
          "type": "uint256"
        }
      ],
      "stateMutability": "view",
      "type": "function"
    },
    {
      "inputs": [],
      "name": "pause",
      "outputs": [],
      "stateMutability": "nonpayable",
      "type": "function"
    },
    {
      "inputs": [],
      "name": "paused",
      "outputs": [
        {
          "internalType": "bool",
          "name": "",
          "type": "bool"
        }
      ],
      "stateMutability": "view",
      "type": "function"
    },
    {
      "inputs": [
        {
          "internalType": "address",
          "name": "owner",
          "type": "address"
        },
        {
          "internalType": "address",
          "name": "spender",
          "type": "address"
        },
        {
          "internalType": "uint256",
          "name": "value",
          "type": "uint256"
        },
        {
          "internalType": "uint256",
          "name": "deadline",
          "type": "uint256"
        },
        {
          "internalType": "uint8",
          "name": "v",
          "type": "uint8"
        },
        {
          "internalType": "bytes32",
          "name": "r",
          "type": "bytes32"
        },
        {
          "internalType": "bytes32",
          "name": "s",
          "type": "bytes32"
        }
      ],
      "name": "permit",
      "outputs": [],
      "stateMutability": "nonpayable",
      "type": "function"
    },
    {
      "inputs": [
        {
          "internalType": "bytes32",
          "name": "role",
          "type": "bytes32"
        },
        {
          "internalType": "address",
          "name": "account",
          "type": "address"
        }
      ],
      "name": "renounceRole",
      "outputs": [],
      "stateMutability": "nonpayable",
      "type": "function"
    },
    {
      "inputs": [
        {
          "internalType": "bytes32",
          "name": "role",
          "type": "bytes32"
        },
        {
          "internalType": "address",
          "name": "account",
          "type": "address"
        }
      ],
      "name": "revokeRole",
      "outputs": [],
      "stateMutability": "nonpayable",
      "type": "function"
    },
    {
      "inputs": [
        {
          "internalType": "string",
          "name": "",
          "type": "string"
        }
      ],
      "name": "serialNumberExists",
      "outputs": [
        {
          "internalType": "bool",
          "name": "",
          "type": "bool"
        }
      ],
      "stateMutability": "view",
      "type": "function"
    },
    {
      "inputs": [
        {
          "internalType": "address",
          "name": "account",
          "type": "address"
        },
        {
          "internalType": "bool",
          "name": "blacklisted",
          "type": "bool"
        }
      ],
      "name": "setBlacklisted",
      "outputs": [],
      "stateMutability": "nonpayable",
      "type": "function"
    },
    {
      "inputs": [
        {
          "internalType": "bool",
          "name": "enabled",
          "type": "bool"
        }
      ],
      "name": "setComplianceEnabled",
      "outputs": [],
      "stateMutability": "nonpayable",
      "type": "function"
    },
    {
      "inputs": [
        {
          "internalType": "address",
          "name": "account",
          "type": "address"
        },
        {
          "internalType": "bool",
          "name": "whitelisted",
          "type": "bool"
        }
      ],
      "name": "setWhitelisted",
      "outputs": [],
      "stateMutability": "nonpayable",
      "type": "function"
    },
    {
      "inputs": [
        {
          "internalType": "bytes4",
          "name": "interfaceId",
          "type": "bytes4"
        }
      ],
      "name": "supportsInterface",
      "outputs": [
        {
          "internalType": "bool",
          "name": "",
          "type": "bool"
        }
      ],
      "stateMutability": "view",
      "type": "function"
    },
    {
      "inputs": [],
      "name": "symbol",
      "outputs": [
        {
          "internalType": "string",
          "name": "",
          "type": "string"
        }
      ],
      "stateMutability": "view",
      "type": "function"
    },
    {
      "inputs": [],
      "name": "totalSupply",
      "outputs": [
        {
          "internalType": "uint256",
          "name": "",
          "type": "uint256"
        }
      ],
      "stateMutability": "view",
      "type": "function"
    },
    {
      "inputs": [
        {
          "internalType": "address",
          "name": "to",
          "type": "address"
        },
        {
          "internalType": "uint256",
          "name": "amount",
          "type": "uint256"
        }
      ],
      "name": "transfer",
      "outputs": [
        {
          "internalType": "bool",
          "name": "",
          "type": "bool"
        }
      ],
      "stateMutability": "nonpayable",
      "type": "function"
    },
    {
      "inputs": [
        {
          "internalType": "address",
          "name": "from",
          "type": "address"
        },
        {
          "internalType": "address",
          "name": "to",
          "type": "address"
        },
        {
          "internalType": "uint256",
          "name": "amount",
          "type": "uint256"
        }
      ],
      "name": "transferFrom",
      "outputs": [
        {
          "internalType": "bool",
          "name": "",
          "type": "bool"
        }
      ],
      "stateMutability": "nonpayable",
      "type": "function"
    },
    {
      "inputs": [],
      "name": "unpause",
      "outputs": [],
      "stateMutability": "nonpayable",
      "type": "function"
    },
    {
      "inputs": [
        {
          "internalType": "uint256",
          "name": "assetId",
          "type": "uint256"
        },
        {
          "internalType": "uint256",
          "name": "newValue",
          "type": "uint256"
        },
        {
          "internalType": "string",
          "name": "newAppraisalCompany",
          "type": "string"
        }
      ],
      "name": "updateAppraisedValue",
      "outputs": [],
      "stateMutability": "nonpayable",
      "type": "function"
    },
    {
      "inputs": [
        {
          "internalType": "uint256",
          "name": "assetId",
          "type": "uint256"
        },
        {
          "internalType": "string",
          "name": "field",
          "type": "string"
        },
        {
          "internalType": "string",
          "name": "newValue",
          "type": "string"
        }
      ],
      "name": "updateAssetMetadata",
      "outputs": [],
      "stateMutability": "nonpayable",
      "type": "function"
    },
    {
      "inputs": [
        {
          "internalType": "uint256",
          "name": "assetId",
          "type": "uint256"
        },
        {
          "internalType": "string",
          "name": "newCondition",
          "type": "string"
        }
      ],
      "name": "updateCondition",
      "outputs": [],
      "stateMutability": "nonpayable",
      "type": "function"
    },
    {
      "inputs": [
        {
          "internalType": "uint256",
          "name": "newMaxSupply",
          "type": "uint256"
        }
      ],
      "name": "updateMaxSupply",
      "outputs": [],
      "stateMutability": "nonpayable",
      "type": "function"
    },
    {
      "inputs": [
        {
          "internalType": "uint256",
          "name": "assetId",
          "type": "uint256"
        },
        {
          "internalType": "uint256",
          "name": "newHours",
          "type": "uint256"
        }
      ],
      "name": "updateOperatingHours",
      "outputs": [],
      "stateMutability": "nonpayable",
      "type": "function"
    },
    {
      "inputs": [
        {
          "internalType": "uint256",
          "name": "assetId",
          "type": "uint256"
        },
        {
          "internalType": "bool",
          "name": "isOperational",
          "type": "bool"
        }
      ],
      "name": "updateOperationalStatus",
      "outputs": [],
      "stateMutability": "nonpayable",
      "type": "function"
    },
    {
      "inputs": [
        {
          "internalType": "uint256",
          "name": "assetId",
          "type": "uint256"
        }
      ],
      "name": "verifyAsset",
      "outputs": [],
      "stateMutability": "nonpayable",
      "type": "function"
    },
    {
      "inputs": [
        {
          "internalType": "address",
          "name": "",
          "type": "address"
        }
      ],
      "name": "whitelistedAddresses",
      "outputs": [
        {
          "internalType": "bool",
          "name": "",
          "type": "bool"
        }
      ],
      "stateMutability": "view",
      "type": "function"
    }
  ],
  "bytecode": "0x610160346200077e57601f62006ce838819003918201601f19168301916001600160401b038311848410176200055e578084926020946040528339810103126200077e57516001600160a01b03811681036200077e57604051620000638162000783565b600f81526e22b8bab4b836b2b73a102a37b5b2b760891b6020820152604051916200008e8362000783565b600383526211545560ea1b602084015260405191620000ad8362000783565b60018352603160f81b602084015280516001600160401b0381116200055e57600354600181811c9116801562000773575b60208210146200065357601f811162000709575b50806020601f8211600114620006805760009162000674575b508160011b916000199060031b1c1916176003555b83516001600160401b0381116200055e57600454600181811c9116801562000669575b60208210146200065357601f8111620005ed575b50602094601f8211600114620005805794819293949560009262000574575b50508160011b916000199060031b1c1916176004555b62000197816200079f565b91610120928352620001a98462000963565b9161014092835260208151910120938460e05260208151910120610100948186524660a0526040519160208301917f8b73c3c69bb8fe3d512ecc4cf759cc79239f7b179b0ffacaa9a75d522b39400f8352604084015260608301524660808301523060a083015260a0825260c082019082821060018060401b038311176200055e5781604052825190206080523060c05260ff199182600954166009556001600b55600183601054161760105560018060a01b038416156200051a5750506001600160a01b03821660009081527f13da86008ba1c6922daee3e07db95305ef49ebced9f5467a0b8613fcc6b343e36020526040902054600a919060ff1615620004d6575b7f9f2df0fed2c77648de5860a4cc508cd0818c85b8b8a1ab4ceeef8d981c8956a66000818152602084815260408083206001600160a01b038816845290915290205460ff16156200048f575b507f65d7a28e3265b37a6474929f336521b332c1681b933f6cb9f3376673440d862a6000818152602084815260408083206001600160a01b038816845290915290205460ff161562000448575b507f442a94f1a1fac79af32856af2a64f63648cfa2ef3b98610a5bb7cbec4cee6985918260005280602052604060002060018060a01b03851660005260205260ff6040600020541615620003f6575b50505050699ed194db19b238c000006012556001601155604051916161ac938462000b1c853960805184615aa1015260a05184615b6c015260c05184615a6b015260e05184615af001525183615b16015251826134c5015251816134ee0152f35b82600052602052604060002060018060a01b0384166000526020526001604060002091825416179055339160018060a01b03169060008051602062006cc8833981519152600080a43880808062000395565b6000818152602084815260408083206001600160a01b038816808552925282208054851660011790553392909160008051602062006cc88339815191529080a43862000346565b6000818152602084815260408083206001600160a01b038816808552925282208054851660011790553392909160008051602062006cc88339815191529080a438620002f9565b6000808052602083815260408083206001600160a01b03871680855292528220805484166001179055339160008051602062006cc88339815191528180a4620002ad565b62461bcd60e51b8252602060c4820152601560e48201527f496e76616c69642061646d696e2061646472657373000000000000000000000061010490910152606490fd5b634e487b7160e01b600052604160045260246000fd5b01519050388062000176565b601f19821695600460005260206000209160005b888110620005d457508360019596979810620005ba575b505050811b016004556200018c565b015160001960f88460031b161c19169055388080620005ab565b9192602060018192868501518155019401920162000594565b60046000527f8a35acfbc15ff81a39ae7d344fd709f28e8600b4aa8c65c6b64bfe7fe36bd19b601f830160051c8101602084106200064b575b601f830160051c820181106200063e57505062000157565b6000815560010162000626565b508062000626565b634e487b7160e01b600052602260045260246000fd5b90607f169062000143565b9050820151386200010b565b600360009081527fc2575a0e9e593c00f959f8c92f12db2869c3395a3b0502d05e2516446f71f85b9250601f198416905b818110620006f057509083600194939210620006d6575b5050811b0160035562000120565b84015160001960f88460031b161c191690553880620006c8565b91926020600181928689015181550194019201620006b1565b60036000527fc2575a0e9e593c00f959f8c92f12db2869c3395a3b0502d05e2516446f71f85b601f830160051c8101916020841062000768575b601f0160051c01905b8181106200075b5750620000f2565b600081556001016200074c565b909150819062000743565b90607f1690620000de565b600080fd5b604081019081106001600160401b038211176200055e57604052565b805160209190828110156200083e575090601f825111620007dd5780825192015190808310620007ce57501790565b82600019910360031b1b161790565b90604051809263305a27a960e01b82528060048301528251908160248401526000935b82851062000824575050604492506000838284010152601f80199101168101030190fd5b848101820151868601604401529381019385935062000800565b6001600160401b0381116200055e576005928354926001938481811c9116801562000958575b838210146200065357601f811162000921575b5081601f8411600114620008b75750928293918392600094620008ab575b50501b916000199060031b1c191617905560ff90565b01519250388062000895565b919083601f1981168760005284600020946000905b88838310620009065750505010620008ec575b505050811b01905560ff90565b015160001960f88460031b161c19169055388080620008df565b858701518855909601959485019487935090810190620008cc565b8560005284601f846000209201871c820191601f8601881c015b8281106200094b57505062000877565b600081550185906200093b565b90607f169062000864565b805160209081811015620009f15750601f825111620009905780825192015190808310620007ce57501790565b90604051809263305a27a960e01b82528060048301528251908160248401526000935b828510620009d7575050604492506000838284010152601f80199101168101030190fd5b8481018201518686016044015293810193859350620009b3565b906001600160401b0382116200055e57600654926001938481811c9116801562000b10575b838210146200065357601f811162000ad6575b5081601f841160011462000a6a575092829391839260009462000a5e575b50501b916000199060031b1c19161760065560ff90565b01519250388062000a47565b919083601f198116600660005284600020946000905b8883831062000abb575050501062000aa1575b505050811b0160065560ff90565b015160001960f88460031b161c1916905538808062000a93565b85870151885590960195948501948793509081019062000a80565b600660005284601f84600020920160051c820191601f860160051c015b82811062000b0357505062000a29565b6000815501859062000af3565b90607f169062000a1656fe608080604052600436101561001357600080fd5b60003560e01c90816301ffc9a714614c0857508063041199e1146149ec578063062d3bd7146149b157806306c933d81461497257806306fdde03146148cc578063095ea7b3146148a657806318160ddd1461488857806323b872dd146147ca578063248a9ca31461479b5780632777a046146145035780632d38f89b146144785780632f2ff15d146143c5578063313ce567146143a95780633644e5151461438657806336568abe146142f457806339509351146142a3578063399a5132146141f55780633c2fd95014613b095780633f4ba83a14613a7557806340c10f19146139be578063455bd95114613966578063598f83711461391857806359fd285c1461387b5780635c975abb1461385857806370a082311461381e57806379cc6790146136865780637eaca956146136215780637ecebe00146135e75780638456cb591461358d57806384b0196e146134af57806391d14854146134625780639281aa0b1461340f57806394c5b2fc146133f157806395d89b411461330f578063a217fddf146132f3578063a457c2d71461324c578063a9059cbb1461321b578063aabae7a314612995578063bb3c510d14612849578063c6452e131461267a578063cf2acf8414612462578063cf35bdd014612335578063d01dd6d2146122b7578063d505accf14612114578063d5391393146120d9578063d547741f1461209a578063d5749d421461205b578063d5abeb011461203d578063d83c82701461201a578063dd62ed3e14611fc9578063e04e77f714611f90578063e63ab1e914611f55578063e8fe6b1f146107b0578063f103b433146105535763f37f44161461027c57600080fd5b3461054e5761028a36614e1b565b90610293614f1d565b80600052602090600c82526102b16008604060002001541515616113565b80600052601382526102d36102da600760406000200160405192838092614e87565b0382614cc9565b80511561045a57602261032c9160405195816102ff8893518092898087019101614d78565b82016101d960f51b8782015261031d82518093898785019101614d78565b01036002810186520184614cc9565b600052601381526007604060002001908251906001600160401b038211610444576103578354614e4d565b601f81116103fe575b5080601f831160011461039b5750819293600092610390575b50508160011b916000199060031b1c19161790555b005b015190503880610379565b90601f198316948460005282600020926000905b8782106103e65750508360019596106103cd575b505050811b019055005b015160001960f88460031b161c191690553880806103c3565b806001859682949686015181550195019301906103af565b8360005281600020601f840160051c81019183851061043a575b601f0160051c01905b81811061042e5750610360565b60008155600101610421565b9091508190610418565b634e487b7160e01b600052604160045260246000fd5b50600052601381526007604060002001908251906001600160401b038211610444576104868354614e4d565b601f8111610508575b5080601f83116001146104bf5750819293600092610390575050600019600383901b1c191660019190911b179055005b90601f198316948460005282600020926000905b8782106104f05750508360019596106103cd57505050811b019055005b806001859682949686015181550195019301906104d3565b8360005281600020601f840160051c810191838510610544575b601f0160051c01905b818110610538575061048f565b6000815560010161052b565b9091508190610522565b600080fd5b3461054e5760208060031936011261054e5760043560008052600a8252604060002033600052825260ff60406000205416156106085760025481106105ca577fb4d96b3a6638191d0f6aefa0fdc4d99af3592f4c97480e31feeb977723c63b539160409160125491816012558351928352820152a1005b60405162461bcd60e51b81526004810183905260166024820152754e6577206d617820737570706c7920746f6f206c6f7760501b6044820152606490fd5b50610612336157b1565b90600060405161062181614cae565b6042815282810191606036843781511561079a5760308353815160019081101561079a57607860218401536041905b8082116107405750506106fd576106c9936106d89260489260405196879376020b1b1b2b9b9a1b7b73a3937b61d1030b1b1b7bab73a1604d1b888601526106a0815180928a603789019101614d78565b8401917001034b99036b4b9b9b4b733903937b6329607d1b603784015251809386840190614d78565b01036028810185520183614cc9565b6106f960405192839262461bcd60e51b845260048401526024830190614d9b565b0390fd5b6064836040519062461bcd60e51b825280600483015260248201527f537472696e67733a20686578206c656e67746820696e73756666696369656e746044820152fd5b9091600f8116601081101561079a576f181899199a1a9b1b9c1cb0b131b232b360811b901a61076f84866157a0565b5360041c918015610784576000190190610650565b634e487b7160e01b600052601160045260246000fd5b634e487b7160e01b600052603260045260246000fd5b3461054e5761026036600319011261054e576107ca614d4c565b6044356001600160401b03811161054e576107e9903690600401614d05565b906064356001600160401b03811161054e57610809903690600401614d05565b9160a4356001600160401b03811161054e57610829903690600401614d05565b9060c4356001600160401b03811161054e57610849903690600401614d05565b9060e4356001600160401b03811161054e57610869903690600401614d05565b93610104356001600160401b03811161054e5761088a903690600401614d05565b92610124356001600160401b03811161054e576108ab903690600401614d05565b92610164356001600160401b03811161054e576108cc903690600401614d05565b95610184356001600160401b03811161054e576108ed903690600401614d05565b936101c4356001600160401b03811161054e5761090e903690600401614d05565b906101e43592831515840361054e57610204356001600160401b03811161054e5761093d903690600401614d05565b946001600160401b03610244351161054e5761095f3661024435600401614d05565b96610968615250565b8c5115611f10578a5115611ed357895115611e8e5760ff61099860208c8160405193828580945193849201614d78565b810160148152030190205416611e495761070861014435101580611e27575b15611de2578b5115611d9d57604051926109d084614c93565b6009845268195c5d5a5c1b595b9d60ba1b60208501526109ee615250565b6002600b5414611d58576002600b55610a05615deb565b610a196001600160a01b0386161515615d45565b610a266024351515615d91565b60843515611d0157835115611cbc57600254610a4460243582615516565b90601254809211611c9157505060ff6010541680611c6f575b611c4e576011549d9e610a6f8f615ddc565b60115560405193610a7f85614c77565b85855260208501526040840152608435606084015242608084015260a083015260c0820152600060e0820152426101008201528b600052600c60205260406000209080518051906001600160401b038211610444578190610ae08554614e4d565b601f8111611bfe575b50602090601f8311600114611b9257600092611b87575b50508160011b916000199060031b1c19161782555b60208101518051906001600160401b038211610444578190610b3a6001860154614e4d565b601f8111611b34575b50602090601f8311600114611ac257600092611ab7575b50508160011b916000199060031b1c19161760018301555b60408101518051906001600160401b038211610444578190610b976002860154614e4d565b601f8111611a64575b50602090601f83116001146119f2576000926119e7575b50508160011b916000199060031b1c19161760028301555b606081015160038301556080810151600483015560a08101518051906001600160401b038211610444578190610c086005860154614e4d565b601f8111611994575b50602090601f831160011461192257600092611917575b50508160011b916000199060031b1c19161760058301555b60c08101518051906001600160401b03821161044457610c636006850154614e4d565b601f81116118d0575b50602090601f831160011461185a579180600894926101009460009261184f575b50508160011b916000199060031b1c19161760068501555b610cc460e08201511515600786019060ff801983541691151516179055565b01519101556001600160a01b0382166000908152600d602052604090208054600160401b811015610444578c92610d4284610d29847ff7e1a46c126ab69342d6c64d69054268e5521a7b4128ea9a7ef358e83e00b611966001610d6a97018155614df4565b90919082549060031b91821b91600019901b1916179055565b610d4e60243586615e2f565b6040519182916024358352606060208401526060830190614d9b565b60843560408301526001600160a01b03909516940390a36001600b5560405194610d9386614c5b565b8a865287602087015286604087015261014435606087015288608087015260a08601526101a43560c086015260e085015215156101008401526101208301526102243561014083015261016082015284600052601360205260406000209080518051906001600160401b038211610444578190610e108554614e4d565b601f81116117ff575b50602090601f831160011461179357600092611788575b50508160011b916000199060031b1c19161782555b60208101518051906001600160401b038211610444578190610e6a6001860154614e4d565b601f8111611735575b50602090601f83116001146116c3576000926116b8575b50508160011b916000199060031b1c19161760018301555b60408101518051906001600160401b038211610444578190610ec76002860154614e4d565b601f8111611665575b50602090601f83116001146115f3576000926115e8575b50508160011b916000199060031b1c19161760028301555b6060810151600383015560808101518051906001600160401b038211610444578190610f2e6004860154614e4d565b601f8111611595575b50602090601f831160011461152357600092611518575b50508160011b916000199060031b1c19161760048301555b60a08101518051906001600160401b038211610444578190610f8b6005860154614e4d565b601f81116114c5575b50602090601f831160011461145357600092611448575b50508160011b916000199060031b1c19161760058301555b60c0810151600683015560e08101518051906001600160401b038211610444578190610ff26007860154614e4d565b601f81116113f5575b50602090601f831160011461138357600092611378575b50508160011b916000199060031b1c19161760078301555b61104a6101008201511515600884019060ff801983541691151516179055565b6101208101518051906001600160401b0382116104445761106e6009850154614e4d565b601f8111611331575b50602090601f83116001146112bd57610160939291600091836112b2575b50508160011b916000199060031b1c19161760098401555b610140810151600a84015501518051906001600160401b038211610444576110d8600b840154614e4d565b601f811161126b575b50918695939160209895938990601f83116001146111c6578a6111b09561118c9895600b86611199977fafcd8ba7a231152e5e944a6bf81200b58cb18a554d0b563019c35157bbde200b9d9b97611163976000926111bb575b50508160011b916000199060031b1c1916179101555b8160405193828580945193849201614d78565b81016014815203019020600160ff19825416179055604051958695608087526080870190614d9b565b908582038b870152614d9b565b906101443560408501528382036060850152614d9b565b0390a2604051908152f35b01519050388061113a565b90600b84016000528a6000209160005b601f198516811061125157506111b09561118c9895600b60018f94977fafcd8ba7a231152e5e944a6bf81200b58cb18a554d0b563019c35157bbde200b9d9b97611163976111999a83601f19811610611238575b505050811b01910155611150565b015160001960f88460031b161c1916905538808061122a565b8183015184558b9a50600190930192918c01918c016111d6565b600b84016000526020600020601f840160051c8101602085106112ab575b601f830160051c8201811061129f5750506110e1565b60008155600101611289565b5080611289565b015190508a80611095565b906009850160005260206000209160005b601f198516811061131957509183916001936101609695601f19811610611300575b505050811b0160098401556110ad565b015160001960f88460031b161c191690558a80806112f0565b919260206001819286850151815501940192016112ce565b600985016000526020600020601f840160051c810160208510611371575b601f830160051c82018110611365575050611077565b6000815560010161134f565b508061134f565b015190508980611012565b9250600785016000526020600020906000935b601f19841685106113da576001945083601f198116106113c1575b505050811b01600783015561102a565b015160001960f88460031b161c191690558980806113b1565b81810151835560209485019460019093019290910190611396565b909150600785016000526020600020601f840160051c810160208510611441575b90849392915b601f830160051c82018110611432575050610ffb565b6000815585945060010161141c565b5080611416565b015190508980610fab565b9250600585016000526020600020906000935b601f19841685106114aa576001945083601f19811610611491575b505050811b016005830155610fc3565b015160001960f88460031b161c19169055898080611481565b81810151835560209485019460019093019290910190611466565b909150600585016000526020600020601f840160051c810160208510611511575b90849392915b601f830160051c82018110611502575050610f94565b600081558594506001016114ec565b50806114e6565b015190508980610f4e565b9250600485016000526020600020906000935b601f198416851061157a576001945083601f19811610611561575b505050811b016004830155610f66565b015160001960f88460031b161c19169055898080611551565b81810151835560209485019460019093019290910190611536565b909150600485016000526020600020601f840160051c8101602085106115e1575b90849392915b601f830160051c820181106115d2575050610f37565b600081558594506001016115bc565b50806115b6565b015190508980610ee7565b9250600285016000526020600020906000935b601f198416851061164a576001945083601f19811610611631575b505050811b016002830155610eff565b015160001960f88460031b161c19169055898080611621565b81810151835560209485019460019093019290910190611606565b909150600285016000526020600020601f840160051c8101602085106116b1575b90849392915b601f830160051c820181106116a2575050610ed0565b6000815585945060010161168c565b5080611686565b015190508980610e8a565b9250600185016000526020600020906000935b601f198416851061171a576001945083601f19811610611701575b505050811b016001830155610ea2565b015160001960f88460031b161c191690558980806116f1565b818101518355602094850194600190930192909101906116d6565b909150600185016000526020600020601f840160051c810160208510611781575b90849392915b601f830160051c82018110611772575050610e73565b6000815585945060010161175c565b5080611756565b015190508980610e30565b9250846000526020600020906000935b601f19841685106117e4576001945083601f198116106117cb575b505050811b018255610e45565b015160001960f88460031b161c191690558980806117be565b818101518355602094850194600190930192909101906117a3565b909150846000526020600020601f840160051c810160208510611848575b90849392915b601f830160051c82018110611839575050610e19565b60008155859450600101611823565b508061181d565b015190503880610c8d565b906006850160005260206000209160005b601f19851681106118b8575092600894926001926101009583601f1981161061189f575b505050811b016006850155610ca5565b015160001960f88460031b161c1916905538808061188f565b9192602060018192868501518155019401920161186b565b600685016000526020600020601f840160051c810160208510611910575b601f830160051c82018110611904575050610c6c565b600081556001016118ee565b50806118ee565b015190503880610c28565b9250600585016000526020600020906000935b601f1984168510611979576001945083601f19811610611960575b505050811b016005830155610c40565b015160001960f88460031b161c19169055388080611950565b81810151835560209485019460019093019290910190611935565b909150600585016000526020600020601f840160051c8101602085106119e0575b90849392915b601f830160051c820181106119d1575050610c11565b600081558594506001016119bb565b50806119b5565b015190503880610bb7565b9250600285016000526020600020906000935b601f1984168510611a49576001945083601f19811610611a30575b505050811b016002830155610bcf565b015160001960f88460031b161c19169055388080611a20565b81810151835560209485019460019093019290910190611a05565b909150600285016000526020600020601f840160051c810160208510611ab0575b90849392915b601f830160051c82018110611aa1575050610ba0565b60008155859450600101611a8b565b5080611a85565b015190503880610b5a565b9250600185016000526020600020906000935b601f1984168510611b19576001945083601f19811610611b00575b505050811b016001830155610b72565b015160001960f88460031b161c19169055388080611af0565b81810151835560209485019460019093019290910190611ad5565b909150600185016000526020600020601f840160051c810160208510611b80575b90849392915b601f830160051c82018110611b71575050610b43565b60008155859450600101611b5b565b5080611b55565b015190503880610b00565b9250846000526020600020906000935b601f1984168510611be3576001945083601f19811610611bca575b505050811b018255610b15565b015160001960f88460031b161c19169055388080611bbd565b81810151835560209485019460019093019290910190611ba2565b909150846000526020600020601f840160051c810160208510611c47575b90849392915b601f830160051c82018110611c38575050610ae9565b60008155859450600101611c22565b5080611c1c565b60405163d33f19e760e01b81526001600160a01b0386166004820152602490fd5b506001600160a01b0385166000908152600e602052604090205460ff16610a5d565b90611ca160449260243590615516565b906040519163adc3cee560e01b835260048301526024820152fd5b60405162461bcd60e51b815260206004820152601a60248201527f417373657420747970652063616e6e6f7420626520656d7074790000000000006044820152606490fd5b60405162461bcd60e51b815260206004820152602960248201527f4170707261697365642076616c7565206d7573742062652067726561746572206044820152687468616e207a65726f60b81b6064820152608490fd5b60405162461bcd60e51b815260206004820152601f60248201527f5265656e7472616e637947756172643a207265656e7472616e742063616c6c006044820152606490fd5b60405162461bcd60e51b815260206004820152601e60248201527f45717569706d656e7420747970652063616e6e6f7420626520656d70747900006044820152606490fd5b60405162461bcd60e51b815260206004820152601960248201527f496e76616c69642079656172206d616e756661637475726564000000000000006044820152606490fd5b506301e1338042046107b281018111610784576107b2016101443511156109b7565b60405162461bcd60e51b815260206004820152601c60248201527f53657269616c206e756d62657220616c726561647920657869737473000000006044820152606490fd5b60405162461bcd60e51b815260206004820152601d60248201527f53657269616c206e756d6265722063616e6e6f7420626520656d7074790000006044820152606490fd5b60405162461bcd60e51b81526020600482015260156024820152744d6f64656c2063616e6e6f7420626520656d70747960581b6044820152606490fd5b60405162461bcd60e51b815260206004820152601c60248201527f4d616e7566616374757265722063616e6e6f7420626520656d707479000000006044820152606490fd5b3461054e57600036600319011261054e5760206040517f65d7a28e3265b37a6474929f336521b332c1681b933f6cb9f3376673440d862a8152f35b3461054e57602036600319011261054e5760043580151580910361054e57611fb6614f1d565b60ff801960105416911617601055600080f35b3461054e57604036600319011261054e57611fe2614d4c565b611fea614d62565b9060018060a01b038091166000526001602052604060002091166000526020526020604060002054604051908152f35b3461054e57600036600319011261054e57602060ff601054166040519015158152f35b3461054e57600036600319011261054e576020601254604051908152f35b3461054e57602036600319011261054e576001600160a01b0361207c614d4c565b16600052600e602052602060ff604060002054166040519015158152f35b3461054e57604036600319011261054e5761038e6004356120b9614d62565b9080600052600a6020526120d4600160406000200154615395565b6154a0565b3461054e57600036600319011261054e5760206040517f9f2df0fed2c77648de5860a4cc508cd0818c85b8b8a1ab4ceeef8d981c8956a68152f35b3461054e5760e036600319011261054e5761212d614d4c565b612135614d62565b6044359060843560643560ff8216820361054e578042116122725760018060a01b0390818616928360005260076020526040600020908154916001830190556040519260208401927f6e71edae12b1b97f4d1f60370fef10105fa2faae0126114a169c64845d6126c98452866040860152858816606086015288608086015260a085015260c084015260c0835260e08301918383106001600160401b038411176104445761221e93612216936040525190206121ef615a68565b906040519161190160f01b83526002830152602282015260c43591604260a43592206159d9565b9190916158bf565b160361222d5761038e9261569e565b60405162461bcd60e51b815260206004820152601e60248201527f45524332305065726d69743a20696e76616c6964207369676e617475726500006044820152606490fd5b60405162461bcd60e51b815260206004820152601d60248201527f45524332305065726d69743a206578706972656420646561646c696e650000006044820152606490fd5b3461054e57604036600319011261054e576122d0614d4c565b7ff1bf4fdc75f29b6c8f35b7808597b7e9c104efd356c3f8ee86e76023da1417e060206122fb614e0c565b92612304614f1d565b6001600160a01b03166000818152600e835260409020805460ff191660ff86151516179055926040519015158152a2005b3461054e57602036600319011261054e57600435600052600c60205261240e6040600020604051906123728261236b8184614e87565b0383614cc9565b604051612386816102d38160018601614e87565b61245060066124426040516123a2816102d38160028a01614e87565b60038601546004870154604051919261242a906123cd846123c68160058e01614e87565b0385614cc9565b6123e88a6123e1604051809a819301614e87565b0388614cc9565b61241c600860ff60078d0154169b0154996040519d8e9d8e610120908181520190614d9b565b8d810360208f015290614d9b565b908b820360408d0152614d9b565b9260608a0152608089015287820360a0890152614d9b565b9085820360c0870152614d9b565b91151560e08401526101008301520390f35b3461054e5760208060031936011261054e576004356040519161248483614c77565b6060918284528282850152826040850152600083850152600060808501528260a08501528260c0850152600060e085015260006101008095015280600052600c82526008604060002001541561266257600052600c8152604060002090604051926124ee84614c77565b604051806124fc8186614e87565b036125079082614cc9565b8452604051948561251b8160018701614e87565b036125269087614cc9565b848301958652604051958661253e8160028801614e87565b036125499088614cc9565b604086810197885260038601548488019081526004870154608089019081529151806125788160058b01614e87565b036125839082614cc9565b60a08901908152604051928361259c8160068c01614e87565b036125a79085614cc9565b60c08a01938452600789015460ff169860e08b019915158a526008015496868b019788526040519b8c9b8a8d52518c6101209b8c9101526101408d016125ec91614d9b565b9651601f198d8903810160408f01529761260591614d9b565b905191878d830301908d015261261a91614d9b565b925160808b01525160a08a01525190838982030160c08a015261263c91614d9b565b9051918782030160e088015261265191614d9b565b935115159085015251908301520390f35b602490604051906343ce9af560e01b82526004820152fd5b3461054e57602036600319011261054e5760043560005260136020526040600020604051806126a98184614e87565b036126b49082614cc9565b60405191826126c68160018401614e87565b036126d19084614cc9565b604051806126e28160028501614e87565b036126ed9082614cc9565b6003820154604051806127038160048701614e87565b0361270e9082614cc9565b6040518061271f8160058801614e87565b0361272a9082614cc9565b600685015460405191826127418160078a01614e87565b0361274c9084614cc9565b600887015460ff169360405195868060098b019061276991614e87565b036127749088614cc9565b600a8901549760405180600b819c019061278d91614e87565b03612798908b614cc9565b6040519b8c9b8c6101808091528d016127b091614d9b565b8c810360208e01526127c191614d9b565b8b810360408d01526127d291614d9b565b9060608b015289810360808b01526127e991614d9b565b88810360a08a01526127fa91614d9b565b9060c088015286810360e088015261281191614d9b565b90151561010086015284810361012086015261282c91614d9b565b9061014084015282810361016084015261284591614d9b565b0390f35b3461054e5761285736614e1b565b90612860614f1d565b80600052602090600c825261287e6008604060002001541515616113565b600052601381526005604060002001908251906001600160401b038211610444576128a98354614e4d565b601f811161294f575b5080601f83116001146128ed57508192936000926128e2575050600019600383901b1c191660019190911b179055005b015190508380610379565b90601f198316948460005282600020926000905b87821061293757505083600195961061291e57505050811b019055005b015160001960f88460031b161c191690558380806103c3565b80600185968294968601518155019501930190612901565b8360005281600020601f840160051c81019183851061298b575b601f0160051c01905b81811061297f57506128b2565b60008155600101612972565b9091508190612969565b3461054e5761010036600319011261054e576129af614d4c565b6044356001600160401b03811161054e576129ce903690600401614d05565b906064356001600160401b03811161054e576129ee903690600401614d05565b906084356001600160401b03811161054e57612a0e903690600401614d05565b9160c4356001600160401b03811161054e57612a2e903690600401614d05565b60e4356001600160401b03811161054e57612a4d903690600401614d05565b90612a56615250565b6002600b5414611d58576002600b55612a6d615deb565b612a816001600160a01b0385161515615d45565b612a8e6024351515615d91565b60a43515611d0157855115611cbc57600254612aac60243582615516565b90601254809211611c9157505060ff60105416806131f9575b6131d85760115494612ad686615ddc565b60115560405193612ae685614c77565b8785526020850152604084015260a435606084015242608084015260a083015260c0820152600060e08201524261010082015282600052600c60205260406000209080518051906001600160401b038211610444578190612b478554614e4d565b601f8111613188575b50602090601f831160011461312257600092613117575b50508160011b916000199060031b1c19161782555b60208101518051906001600160401b038211610444578190612ba16001860154614e4d565b601f81116130c4575b50602090601f831160011461305257600092613047575b50508160011b916000199060031b1c19161760018301555b60408101518051906001600160401b038211610444578190612bfe6002860154614e4d565b601f8111612ff4575b50602090601f8311600114612f8257600092612f77575b50508160011b916000199060031b1c19161760028301555b606081015160038301556080810151600483015560a08101518051906001600160401b038211610444578190612c6f6005860154614e4d565b601f8111612f24575b50602090601f8311600114612eb257600092612ea7575b50508160011b916000199060031b1c19161760058301555b60c08101518051906001600160401b03821161044457612cca6006850154614e4d565b601f8111612e60575b50602090601f8311600114612dea5791806008949261010094600092612ddf575b50508160011b916000199060031b1c19161760068501555b612d2b60e08201511515600786019060ff801983541691151516179055565b01519101556001600160a01b0381166000908152600d6020526040902080549390600160401b85101561044457612dbb8492612d9484610d29897ff7e1a46c126ab69342d6c64d69054268e5521a7b4128ea9a7ef358e83e00b61196600160209c018155614df4565b612da060243586615e2f565b60405191829160243583526060898401526060830190614d9b565b60a43560408301526001600160a01b03909516940390a36001600b55604051908152f35b015190508980612cf4565b906006850160005260206000209160005b601f1985168110612e48575092600894926001926101009583601f19811610612e2f575b505050811b016006850155612d0c565b015160001960f88460031b161c19169055898080612e1f565b91926020600181928685015181550194019201612dfb565b600685016000526020600020601f840160051c810160208510612ea0575b601f830160051c82018110612e94575050612cd3565b60008155600101612e7e565b5080612e7e565b015190508780612c8f565b9250600585016000526020600020906000935b601f1984168510612f09576001945083601f19811610612ef0575b505050811b016005830155612ca7565b015160001960f88460031b161c19169055878080612ee0565b81810151835560209485019460019093019290910190612ec5565b909150600585016000526020600020601f840160051c810160208510612f70575b90849392915b601f830160051c82018110612f61575050612c78565b60008155859450600101612f4b565b5080612f45565b015190508780612c1e565b9250600285016000526020600020906000935b601f1984168510612fd9576001945083601f19811610612fc0575b505050811b016002830155612c36565b015160001960f88460031b161c19169055878080612fb0565b81810151835560209485019460019093019290910190612f95565b909150600285016000526020600020601f840160051c810160208510613040575b90849392915b601f830160051c82018110613031575050612c07565b6000815585945060010161301b565b5080613015565b015190508780612bc1565b9250600185016000526020600020906000935b601f19841685106130a9576001945083601f19811610613090575b505050811b016001830155612bd9565b015160001960f88460031b161c19169055878080613080565b81810151835560209485019460019093019290910190613065565b909150600185016000526020600020601f840160051c810160208510613110575b90849392915b601f830160051c82018110613101575050612baa565b600081558594506001016130eb565b50806130e5565b015190508780612b67565b6000868152602081209350601f198516905b8181106131705750908460019594939210613157575b505050811b018255612b7c565b015160001960f88460031b161c1916905587808061314a565b92936020600181928786015181550195019301613134565b909150846000526020600020601f840160051c8101602085106131d1575b90849392915b601f830160051c820181106131c2575050612b50565b600081558594506001016131ac565b50806131a6565b60405163d33f19e760e01b81526001600160a01b0385166004820152602490fd5b506001600160a01b0384166000908152600e602052604090205460ff16612ac5565b3461054e57604036600319011261054e57613241613237614d4c565b6024359033615523565b602060405160018152f35b3461054e57604036600319011261054e57613265614d4c565b60243590336000526001602052604060002060018060a01b038216600052602052604060002054918083106132a0576132419203903361569e565b60405162461bcd60e51b815260206004820152602560248201527f45524332303a2064656372656173656420616c6c6f77616e63652062656c6f77604482015264207a65726f60d81b6064820152608490fd5b3461054e57600036600319011261054e57602060405160008152f35b3461054e57600036600319011261054e57604051600060045461333181614e4d565b808452906001908181169081156133ca575060011461336f575b6128458461335b81860382614cc9565b604051918291602083526020830190614d9b565b6004600090815292507f8a35acfbc15ff81a39ae7d344fd709f28e8600b4aa8c65c6b64bfe7fe36bd19b5b8284106133b257505050810160200161335b8261334b565b8054602085870181019190915290930192810161339a565b60ff191660208087019190915292151560051b8501909201925061335b915083905061334b565b3461054e57600036600319011261054e576020601154604051908152f35b3461054e57604036600319011261054e5761038e61342b614d4c565b613433614e0c565b9061343c614f1d565b60018060a01b0316600052600f60205260406000209060ff801983541691151516179055565b3461054e57604036600319011261054e5761347b614d62565b600435600052600a60205260406000209060018060a01b0316600052602052602060ff604060002054166040519015158152f35b3461054e57600036600319011261054e576134e97f0000000000000000000000000000000000000000000000000000000000000000615b92565b6135127f0000000000000000000000000000000000000000000000000000000000000000615c8b565b906040519160208301928084106001600160401b038511176104445761356c6128459261355e9560405260008352604051958695600f60f81b875260e0602088015260e0870190614d9b565b908582036040870152614d9b565b90466060850152306080850152600060a085015283820360c0850152614dc0565b3461054e57600036600319011261054e576135a661510b565b6135ae615deb565b600160ff1960095416176009557f62e78cea01bee320cd4e420270b5ea74000d11b0c9f74754ebdbfc544b05a2586020604051338152a1005b3461054e57602036600319011261054e576001600160a01b03613608614d4c565b1660005260076020526020604060002054604051908152f35b3461054e57604036600319011261054e5761038e600435613640614e0c565b90613649614f1d565b80600052600c6020526136656008604060002001541515616113565b600052601360205260086040600020019060ff801983541691151516179055565b3461054e57604036600319011261054e5761369f614d4c565b6001600160a01b03811660243581156137d9576136bd811515615d91565b81600052602092600184526040600020336000528452604060002054906000198203613797575b6136ee9150615f34565b81600052600083526040600020548181106137475792817fddf252ad1be2c89b69c2b068fc378daa952ba7f163c4a11628f55a4df523b3ef926000958587528684520360408620558060025403600255604051908152a3005b60405162461bcd60e51b815260048101859052602260248201527f45524332303a206275726e20616d6f756e7420657863656564732062616c616e604482015261636560f01b6064820152608490fd5b8282106137bb57828203918211610784576137b66136ee92338361569e565b6136e4565b604483836040519163054365bb60e31b835260048301526024820152fd5b60405162461bcd60e51b815260206004820152601d60248201527f43616e6e6f74206275726e2066726f6d207a65726f20616464726573730000006044820152606490fd5b3461054e57602036600319011261054e576001600160a01b0361383f614d4c565b1660005260006020526020604060002054604051908152f35b3461054e57600036600319011261054e57602060ff600954166040519015158152f35b3461054e57602036600319011261054e57600435613897614f1d565b80600052600c602052600860406000200154156126625780600052600c6020526007604060002001600160ff1982541617905560008051602061615783398151915260c06040516040815260086040820152671d995c9a599a595960c21b60608201526080602082015260046080820152637472756560e01b60a0820152a2005b3461054e57602036600319011261054e576004356001600160401b03811161054e5760ff613950602061115081943690600401614d05565b8101601481520301902054166040519015158152f35b3461054e57604036600319011261054e5761397f614d4c565b6001600160a01b03166000908152600d602052604090208054602435919082101561054e576020916139b091614df4565b90546040519160031b1c8152f35b3461054e57604036600319011261054e576139d7614d4c565b6024356139e2615250565b6001600160a01b038216916139f8831515615d45565b613a03821515615d91565b600254613a108382615516565b90601254809211613a6857505060ff6010541680613a50575b613a375761038e9250615e2f565b60405163d33f19e760e01b815260048101849052602490fd5b5082600052600e60205260ff60406000205416613a29565b90611ca184604493615516565b3461054e57600036600319011261054e57613a8e61510b565b60095460ff811615613acd5760ff19166009557f5db9ee0a495bf2e6ff9c91a7834c1ba4fdd244a5e8aa4e537bd38aeae4b073aa6020604051338152a1005b60405162461bcd60e51b815260206004820152601460248201527314185d5cd8589b194e881b9bdd081c185d5cd95960621b6044820152606490fd5b3461054e57606036600319011261054e5760043560246001600160401b03813581811161054e57613b3e903690600401614d05565b9160443582811161054e57613b57903690600401614d05565b90613b60614f1d565b84600052600c92602093808552600860406000200154156141dd5785517f1596dc38e2ac5a6ddc5e019af4adcc1e017a04f510d57e69d6879d5d2996bb8e8688019182206a3232b9b1b934b83a34b7b760a91b88604051613bc081614c93565b600b8152015203613d475750866000528452600180604060002001928451928311613d335750613bf08354614e4d565b601f8111613cea575b5084601f8311600114613c6e57928280613c519794600080516020616157833981519152999794613c5e97600093613c63575b501b916000199060031b1c19161790555b604051948594604086526040860190614d9b565b9184830390850152614d9b565b0390a2005b86015192508c613c2c565b601f9291921982169084600052866000209160005b818110613cd5575092613c5e9592613c51989592826000805160206161578339815191529b999610613cbc575b5050811b019055613c3d565b85015160001960f88460031b161c191690558a80613cb0565b87830151845592850192918801918801613c83565b8360005285600020601f840160051c810191878510613d29575b601f0160051c019082905b828110613d1d575050613bf9565b60008155018290613d0f565b9091508190613d04565b634e487b7160e01b60009081526041600452fd5b7f32418106fd89af94305d9787acb608a501b749f5f1783cfca7b3f864595254ca87518220673637b1b0ba34b7b760c11b88604051613d8581614c93565b60088152015203613eb957508660005284526002604060002001918351918211613d335750613db48254614e4d565b601f8111613e73575b5083601f8211600114613e115792613c5e9282613c5196936000805160206161578339815191529896600091613e06575b508160011b916000199060031b1c1916179055613c3d565b90508301518a613dee565b601f1982169083600052856000209160005b818110613e5c575083600080516020616157833981519152989693613c5e9693613c51999660019410613cbc575050811b019055613c3d565b91928760018192868a015181550194019201613e23565b8260005284600020601f830160051c810191868410613eaf575b601f0160051c01905b818110613ea35750613dbd565b60008155600101613e96565b9091508190613e8d565b7f0672e70e771a4a1bc3c4bf3963a75dfb1a00680fb30bde56d2ab3475bbeb191a875182206f61707072616973616c436f6d70616e7960801b88604051613eff81614c93565b6010815201520361402757508660005284526005604060002001918351918211613d335750613f2e8254614e4d565b601f8111613fe1575b5083601f8211600114613f7f5792613c5e9282613c5196936000805160206161578339815191529896600091613e0657508160011b916000199060031b1c1916179055613c3d565b601f1982169083600052856000209160005b818110613fca575083600080516020616157833981519152989693613c5e9693613c51999660019410613cbc575050811b019055613c3d565b91928760018192868a015181550194019201613f91565b8260005284600020601f830160051c81019186841061401d575b601f0160051c01905b8181106140115750613f37565b60008155600101614004565b9091508190613ffb565b7fa2337af9c0c983d244fe5901fbd8591e34918612fb5a46d3a9da3a6306987c7090875190206b0c8dec6eadacadce890c2e6d60a31b8760405161406a81614c93565b858152015214614095575b50505091613c5e613c519260008051602061615783398151915294613c3d565b8660005284526006604060002001918351918211613d3357506140b88254614e4d565b601f8111614197575b5083601f821160011461411b5792613c5e9282613c5196936000805160206161578339815191529896600091614110575b508160011b916000199060031b1c19161790555b9294819450614075565b90508301518a6140f2565b601f1982169083600052856000209160005b818110614180575083600080516020616157833981519152989693613c5e9693613c51999660019410614167575b5050811b019055614106565b85015160001960f88460031b161c191690558a8061415b565b91928760018192868a01518155019401920161412d565b8260005284600020601f830160051c8101918684106141d3575b601f0160051c01905b8181106141c757506140c1565b600081556001016141ba565b90915081906141b1565b6040516343ce9af560e01b8152600481018890528390fd5b3461054e57604036600319011261054e57602435600435614214614f1d565b80600052600c6020526142306008604060002001541515616113565b806000526013602052600660406000200154821061425e576000526013602052600660406000200155600080f35b60405162461bcd60e51b815260206004820152601f60248201527f4f7065726174696e6720686f7572732063616e6e6f74206465637265617365006044820152606490fd5b3461054e57604036600319011261054e576132416142bf614d4c565b336000526001602052604060002060018060a01b0382166000526020526142ed602435604060002054615516565b903361569e565b3461054e57604036600319011261054e5761430d614d62565b336001600160a01b038216036143295761038e906004356154a0565b60405162461bcd60e51b815260206004820152602f60248201527f416363657373436f6e74726f6c3a2063616e206f6e6c792072656e6f756e636560448201526e103937b632b9903337b91039b2b63360891b6064820152608490fd5b3461054e57600036600319011261054e5760206143a1615a68565b604051908152f35b3461054e57600036600319011261054e57602060405160128152f35b3461054e57604036600319011261054e576004356143e1614d62565b81600052600a6020526143fb600160406000200154615395565b81600052600a60205260406000209060018060a01b0316908160005260205260ff604060002054161561442a57005b81600052600a6020526040600020816000526020526040600020600160ff1982541617905533917f2f8788117e7eff1d82e926ec794901d17c78024a50270940304540a733656f0d600080a4005b3461054e5760208060031936011261054e576001600160a01b0361449a614d4c565b16600052600d8152604060002090604051808383829554938481520190600052836000209260005b858282106144ed575050506144d992500383614cc9565b612845604051928284938452830190614dc0565b85548452600195860195889550930192016144c2565b3461054e57602036600319011261054e57600435606061016060405161452881614c5b565b8281528260208201528260408201526000838201528260808201528260a0820152600060c08201528260e08201526000610100820152826101208201526000610140820152015280600052600c60205261458b6008604060002001541515616113565b60005260136020526128456040600020600b614696604051926145ad84614c5b565b6040516145be816102d38185614e87565b84526040516145d4816102d38160018601614e87565b60208501526040516145ed816102d38160028601614e87565b604085015260038101546060850152604051614610816102d38160048601614e87565b6080850152604051614629816102d38160058601614e87565b60a0850152600681015460c085015260405161464c816102d38160078601614e87565b60e085015260ff6008820154161515610100850152604051614675816102d38160098601614e87565b610120850152600a8101546101408501526102d36040518094819301614e87565b6101608201526040519182916020835261016061477c61475661473561471f6146ff6146e96146d3885161018060208d01526101a08c0190614d9b565b60208901518b8203601f190160408d0152614d9b565b60408801518a8203601f190160608c0152614d9b565b606087015160808a01526080870151601f198a83030160a08b0152614d9b565b60a0860151888203601f190160c08a0152614d9b565b60c085015160e088015260e0850151601f1988830301610100890152614d9b565b6101008401511515610120870152610120840151601f1987830301610140880152614d9b565b61014083015185830152910151838203601f1901610180850152614d9b565b3461054e57602036600319011261054e57600435600052600a6020526020600160406000200154604051908152f35b3461054e57606036600319011261054e576147e3614d4c565b6147eb614d62565b6044359060018060a01b0383166000526001602052604060002033600052602052604060002054926000198403614827575b6132419350615523565b8284106148435761483e836132419503338361569e565b61481d565b60405162461bcd60e51b815260206004820152601d60248201527f45524332303a20696e73756666696369656e7420616c6c6f77616e63650000006044820152606490fd5b3461054e57600036600319011261054e576020600254604051908152f35b3461054e57604036600319011261054e576132416148c2614d4c565b602435903361569e565b3461054e57600036600319011261054e5760405160006003546148ee81614e4d565b808452906001908181169081156133ca5750600114614917576128458461335b81860382614cc9565b6003600090815292507fc2575a0e9e593c00f959f8c92f12db2869c3395a3b0502d05e2516446f71f85b5b82841061495a57505050810160200161335b8261334b565b80546020858701810191909152909301928101614942565b3461054e57602036600319011261054e576001600160a01b03614993614d4c565b16600052600f602052602060ff604060002054166040519015158152f35b3461054e57600036600319011261054e5760206040517f442a94f1a1fac79af32856af2a64f63648cfa2ef3b98610a5bb7cbec4cee69858152f35b3461054e57606036600319011261054e576004356001600160401b0360243560443582811161054e57614a23903690600401614d05565b614a2b614f1d565b83600052602092600c845260086040600020015415614bef578215614bd65784600052600c8452600560406000208460038201554260048201550191805191821161044457614a7a8354614e4d565b601f8111614b90575b508490601f8311600114614b105793600080516020616157833981519152959383613c5e94614ad094608098600092614b05575b50508160011b916000199060031b1c1916179055616053565b60405193849360408552600e60408601526d61707072616973656456616c756560901b60608601528401526080830190614d9b565b015190508a80614ab7565b90601f1983169184600052866000209260005b818110614b79575084614ad094608098946000805160206161578339815191529a9894613c5e9860019510614b60575b505050811b019055616053565b015160001960f88460031b161c191690558a8080614b53565b929388600181928786015181550195019301614b23565b8360005285600020601f840160051c810191878510614bcc575b601f0160051c01905b818110614bc05750614a83565b60008155600101614bb3565b9091508190614baa565b6040516306dd0df760e11b815260048101849052602490fd5b6040516343ce9af560e01b815260048101869052602490fd5b3461054e57602036600319011261054e576004359063ffffffff60e01b821680920361054e57602091637965db0b60e01b8114908115614c4a575b5015158152f35b6301ffc9a760e01b14905083614c43565b61018081019081106001600160401b0382111761044457604052565b61012081019081106001600160401b0382111761044457604052565b604081019081106001600160401b0382111761044457604052565b608081019081106001600160401b0382111761044457604052565b90601f801991011681019081106001600160401b0382111761044457604052565b6001600160401b03811161044457601f01601f191660200190565b81601f8201121561054e57803590614d1c82614cea565b92614d2a6040519485614cc9565b8284526020838301011161054e57816000926020809301838601378301015290565b600435906001600160a01b038216820361054e57565b602435906001600160a01b038216820361054e57565b60005b838110614d8b5750506000910152565b8181015183820152602001614d7b565b90602091614db481518092818552858086019101614d78565b601f01601f1916010190565b90815180825260208080930193019160005b828110614de0575050505090565b835185529381019392810192600101614dd2565b805482101561079a5760005260206000200190600090565b60243590811515820361054e57565b90604060031983011261054e5760043591602435906001600160401b03821161054e57614e4a91600401614d05565b90565b90600182811c92168015614e7d575b6020831014614e6757565b634e487b7160e01b600052602260045260246000fd5b91607f1691614e5c565b9060009291805491614e9883614e4d565b918282526001938481169081600014614efa5750600114614eba575b50505050565b90919394506000526020928360002092846000945b838610614ee6575050505001019038808080614eb4565b805485870183015294019385908201614ecf565b9294505050602093945060ff191683830152151560051b01019038808080614eb4565b3360009081527f81aa20521b1f8377105c149ab3e891a614f1dc1af7e3227dafa44b3aa3f87adc602090815260408083205490927f442a94f1a1fac79af32856af2a64f63648cfa2ef3b98610a5bb7cbec4cee69859160ff1615614f815750505050565b614f8a336157b1565b91845190614f9782614cae565b604282528482019260603685378251156150f757603084538251906001918210156150f75790607860218501536041915b818311615089575050506150475760486106f993869361502b9361501c985198899376020b1b1b2b9b9a1b7b73a3937b61d1030b1b1b7bab73a1604d1b8a8601526106a0815180928c603789019101614d78565b01036028810187520185614cc9565b5192839262461bcd60e51b845260048401526024830190614d9b565b60648486519062461bcd60e51b825280600483015260248201527f537472696e67733a20686578206c656e67746820696e73756666696369656e746044820152fd5b909192600f811660108110156150e3576f181899199a1a9b1b9c1cb0b131b232b360811b901a6150b985876157a0565b5360041c9280156150cf57600019019190614fc8565b634e487b7160e01b82526011600452602482fd5b634e487b7160e01b83526032600452602483fd5b634e487b7160e01b81526032600452602490fd5b3360009081527f6c4ab3a3cc4fea3ac566afdaa38e0e471d1bdfd1aa59eb20affdabfa5e893fed602090815260408083205490927f65d7a28e3265b37a6474929f336521b332c1681b933f6cb9f3376673440d862a9160ff161561516f5750505050565b615178336157b1565b9184519061518582614cae565b604282528482019260603685378251156150f757603084538251906001918210156150f75790607860218501536041915b81831161520a575050506150475760486106f993869361502b9361501c985198899376020b1b1b2b9b9a1b7b73a3937b61d1030b1b1b7bab73a1604d1b8a8601526106a0815180928c603789019101614d78565b909192600f811660108110156150e3576f181899199a1a9b1b9c1cb0b131b232b360811b901a61523a85876157a0565b5360041c9280156150cf576000190191906151b6565b3360009081527faa1d7351356c4ddc11907b1ee0660f579cfdf507235af2ae01ecd22a4b7ceaae602090815260408083205490927f9f2df0fed2c77648de5860a4cc508cd0818c85b8b8a1ab4ceeef8d981c8956a69160ff16156152b45750505050565b6152bd336157b1565b918451906152ca82614cae565b604282528482019260603685378251156150f757603084538251906001918210156150f75790607860218501536041915b81831161534f575050506150475760486106f993869361502b9361501c985198899376020b1b1b2b9b9a1b7b73a3937b61d1030b1b1b7bab73a1604d1b8a8601526106a0815180928c603789019101614d78565b909192600f811660108110156150e3576f181899199a1a9b1b9c1cb0b131b232b360811b901a61537f85876157a0565b5360041c9280156150cf576000190191906152fb565b600090808252602090600a8252604092838120338252835260ff8482205416156153bf5750505050565b6153c8336157b1565b918451906153d582614cae565b604282528482019260603685378251156150f757603084538251906001918210156150f75790607860218501536041915b81831161545a575050506150475760486106f993869361502b9361501c985198899376020b1b1b2b9b9a1b7b73a3937b61d1030b1b1b7bab73a1604d1b8a8601526106a0815180928c603789019101614d78565b909192600f811660108110156150e3576f181899199a1a9b1b9c1cb0b131b232b360811b901a61548a85876157a0565b5360041c9280156150cf57600019019190615406565b90600091808352600a602052604083209160018060a01b03169182845260205260ff6040842054166154d157505050565b808352600a602052604083208284526020526040832060ff1981541690557ff6391f5c32d9c69d2a47ea670b442974b53935d1edc7fd64eb21e047a839171b339380a4565b9190820180921161078457565b90916001600160a01b038083169290831561564b5784169384156155fa5761554a91615fbc565b6000828152806020526040812054918083106155a657604082827fddf252ad1be2c89b69c2b068fc378daa952ba7f163c4a11628f55a4df523b3ef958760209652828652038282205586815220818154019055604051908152a3565b60405162461bcd60e51b815260206004820152602660248201527f45524332303a207472616e7366657220616d6f756e7420657863656564732062604482015265616c616e636560d01b6064820152608490fd5b60405162461bcd60e51b815260206004820152602360248201527f45524332303a207472616e7366657220746f20746865207a65726f206164647260448201526265737360e81b6064820152608490fd5b60405162461bcd60e51b815260206004820152602560248201527f45524332303a207472616e736665722066726f6d20746865207a65726f206164604482015264647265737360d81b6064820152608490fd5b6001600160a01b0390811691821561574f57169182156156ff5760207f8c5be1e5ebec7d5bd14f71427d1e84f3dd0314c0f7b2291e5b200ac8c7c3b925918360005260018252604060002085600052825280604060002055604051908152a3565b60405162461bcd60e51b815260206004820152602260248201527f45524332303a20617070726f766520746f20746865207a65726f206164647265604482015261737360f01b6064820152608490fd5b60405162461bcd60e51b8152602060048201526024808201527f45524332303a20617070726f76652066726f6d20746865207a65726f206164646044820152637265737360e01b6064820152608490fd5b90815181101561079a570160200190565b60405190606082018281106001600160401b0382111761044457604052602a825260208201604036823782511561079a5760309053815160019081101561079a57607860218401536029905b80821161585157505061580d5790565b606460405162461bcd60e51b815260206004820152602060248201527f537472696e67733a20686578206c656e67746820696e73756666696369656e746044820152fd5b9091600f811660108110156158aa576f181899199a1a9b1b9c1cb0b131b232b360811b901a61588084866157a0565b5360041c9180156158955760001901906157fd565b60246000634e487b7160e01b81526011600452fd5b60246000634e487b7160e01b81526032600452fd5b60058110156159c357806158d05750565b6001810361591d5760405162461bcd60e51b815260206004820152601860248201527f45434453413a20696e76616c6964207369676e617475726500000000000000006044820152606490fd5b6002810361596a5760405162461bcd60e51b815260206004820152601f60248201527f45434453413a20696e76616c6964207369676e6174757265206c656e677468006044820152606490fd5b60031461597357565b60405162461bcd60e51b815260206004820152602260248201527f45434453413a20696e76616c6964207369676e6174757265202773272076616c604482015261756560f01b6064820152608490fd5b634e487b7160e01b600052602160045260246000fd5b9291907f7fffffffffffffffffffffffffffffff5d576e7357a4501ddfe92f46681b20a08311615a5c5791608094939160ff602094604051948552168484015260408301526060820152600093849182805260015afa15615a4f5781516001600160a01b03811615615a49579190565b50600190565b50604051903d90823e3d90fd5b50505050600090600390565b307f00000000000000000000000000000000000000000000000000000000000000006001600160a01b03161480615b69575b15615ac3577f000000000000000000000000000000000000000000000000000000000000000090565b60405160208101907f8b73c3c69bb8fe3d512ecc4cf759cc79239f7b179b0ffacaa9a75d522b39400f82527f000000000000000000000000000000000000000000000000000000000000000060408201527f000000000000000000000000000000000000000000000000000000000000000060608201524660808201523060a082015260a0815260c081018181106001600160401b038211176104445760405251902090565b507f00000000000000000000000000000000000000000000000000000000000000004614615a9a565b60ff8114615bd05760ff811690601f8211615bbe5760405191615bb483614c93565b8252602082015290565b604051632cd44ac360e21b8152600490fd5b50604051600554816000615be383614e4d565b80835292600190818116908115615c695750600114615c0a575b50614e4a92500382614cc9565b6005600090815291507f036b6384b5eca791c62761152d0c79bb0604c104a5fb6f4eb0703f3154bb3db05b848310615c4e5750614e4a935050810160200138615bfd565b81935090816020925483858901015201910190918492615c35565b905060209250614e4a94915060ff191682840152151560051b82010138615bfd565b60ff8114615cad5760ff811690601f8211615bbe5760405191615bb483614c93565b50604051600654816000615cc083614e4d565b80835292600190818116908115615c695750600114615ce65750614e4a92500382614cc9565b6006600090815291507ff652222313e28459528d920b65115c16c04f3efc82aaedc97be59f3f377c0d3f5b848310615d2a5750614e4a935050810160200138615bfd565b81935090816020925483858901015201910190918492615d11565b15615d4c57565b60405162461bcd60e51b815260206004820152601b60248201527f43616e6e6f74206d696e7420746f207a65726f206164647265737300000000006044820152606490fd5b15615d9857565b606460405162461bcd60e51b815260206004820152602060248201527f416d6f756e74206d7573742062652067726561746572207468616e207a65726f6044820152fd5b60001981146107845760010190565b60ff60095416615df757565b60405162461bcd60e51b815260206004820152601060248201526f14185d5cd8589b194e881c185d5cd95960821b6044820152606490fd5b6001600160a01b0316908115615eef5760ff60095416615e97577fddf252ad1be2c89b69c2b068fc378daa952ba7f163c4a11628f55a4df523b3ef602082615e7b600094600254615516565b60025584845283825260408420818154019055604051908152a3565b60405162461bcd60e51b815260206004820152602a60248201527f45524332305061757361626c653a20746f6b656e207472616e736665722077686044820152691a5b19481c185d5cd95960b21b6064820152608490fd5b60405162461bcd60e51b815260206004820152601f60248201527f45524332303a206d696e7420746f20746865207a65726f2061646472657373006044820152606490fd5b60ff60095416615e97576001600160a01b031680158015615fb4575b615fb15760ff60105416615f615750565b6000818152600e60205260ff6040822054168015615fa0575b615f82575050565b6044925060405191637617407560e11b835260048301526024820152fd5b5080805260ff604082205416615f7a565b50565b506001615f50565b60ff60095416615e97576001600160a01b039081169182158015616049575b6160445760ff60105416615fee57505050565b82600052600e60205260ff60406000205416801561602f575b61601057505050565b6044935060405192637617407560e11b84526004840152166024820152fd5b5081811660005260ff60406000205416616007565b505050565b5081811615615fdb565b80156160f55780816000925b6160df575061606d82614cea565b9161607b6040519384614cc9565b80835281601f1961608b83614cea565b013660208601375b61609c57505090565b6000198101908111610784578091600a91603083830681018091116107845760f81b6001600160f81b03191660001a906160d690866157a0565b53049081616093565b90916160ec600a91615ddc565b9291048061605f565b5060405161610281614c93565b60018152600360fc1b602082015290565b1561611a57565b60405162461bcd60e51b8152602060048201526014602482015273105cdcd95d08191bd95cc81b9bdd08195e1a5cdd60621b6044820152606490fdfe589f5f1b831c2b1bb6368f38c84e2a21507d083cfa73f4d227d7f3d4895df766a264697066735822122012f12f923e9ddd0c4012817e3c05e1b91197ef1426d27e895c677ed918ce6bf664736f6c634300081400332f8788117e7eff1d82e926ec794901d17c78024a50270940304540a733656f0d",
  "linkReferences": {},
  "deployedLinkReferences": {}
}