{
  "_format": "hh-sol-artifact-1",
  "contractName": "LPToken",
  "sourceName": "contracts/LPToken.sol",
  "abi": [
    {
      "inputs": [
        {
          "internalType": "string",
          "name": "name",
          "type": "string"
        },
        {
          "internalType": "string",
          "name": "symbol",
          "type": "string"
        },
        {
          "internalType": "address",
          "name": "_pool",
          "type": "address"
        }
      ],
      "stateMutability": "nonpayable",
      "type": "constructor"
    },
    {
      "anonymous": false,
      "inputs": [
        {
          "indexed": true,
          "internalType": "address",
          "name": "owner",
          "type": "address"
        },
        {
          "indexed": true,
          "internalType": "address",
          "name": "spender",
          "type": "address"
        },
        {
          "indexed": false,
          "internalType": "uint256",
          "name": "value",
          "type": "uint256"
        }
      ],
      "name": "Approval",
      "type": "event"
    },
    {
      "anonymous": false,
      "inputs": [
        {
          "indexed": true,
          "internalType": "address",
          "name": "previousOwner",
          "type": "address"
        },
        {
          "indexed": true,
          "internalType": "address",
          "name": "newOwner",
          "type": "address"
        }
      ],
      "name": "OwnershipTransferred",
      "type": "event"
    },
    {
      "anonymous": false,
      "inputs": [
        {
          "indexed": true,
          "internalType": "address",
          "name": "from",
          "type": "address"
        },
        {
          "indexed": true,
          "internalType": "address",
          "name": "to",
          "type": "address"
        },
        {
          "indexed": false,
          "internalType": "uint256",
          "name": "value",
          "type": "uint256"
        }
      ],
      "name": "Transfer",
      "type": "event"
    },
    {
      "inputs": [
        {
          "internalType": "address",
          "name": "owner",
          "type": "address"
        },
        {
          "internalType": "address",
          "name": "spender",
          "type": "address"
        }
      ],
      "name": "allowance",
      "outputs": [
        {
          "internalType": "uint256",
          "name": "",
          "type": "uint256"
        }
      ],
      "stateMutability": "view",
      "type": "function"
    },
    {
      "inputs": [
        {
          "internalType": "address",
          "name": "spender",
          "type": "address"
        },
        {
          "internalType": "uint256",
          "name": "amount",
          "type": "uint256"
        }
      ],
      "name": "approve",
      "outputs": [
        {
          "internalType": "bool",
          "name": "",
          "type": "bool"
        }
      ],
      "stateMutability": "nonpayable",
      "type": "function"
    },
    {
      "inputs": [
        {
          "internalType": "address",
          "name": "account",
          "type": "address"
        }
      ],
      "name": "balanceOf",
      "outputs": [
        {
          "internalType": "uint256",
          "name": "",
          "type": "uint256"
        }
      ],
      "stateMutability": "view",
      "type": "function"
    },
    {
      "inputs": [
        {
          "internalType": "address",
          "name": "from",
          "type": "address"
        },
        {
          "internalType": "uint256",
          "name": "amount",
          "type": "uint256"
        }
      ],
      "name": "burn",
      "outputs": [],
      "stateMutability": "nonpayable",
      "type": "function"
    },
    {
      "inputs": [],
      "name": "decimals",
      "outputs": [
        {
          "internalType": "uint8",
          "name": "",
          "type": "uint8"
        }
      ],
      "stateMutability": "view",
      "type": "function"
    },
    {
      "inputs": [
        {
          "internalType": "address",
          "name": "spender",
          "type": "address"
        },
        {
          "internalType": "uint256",
          "name": "subtractedValue",
          "type": "uint256"
        }
      ],
      "name": "decreaseAllowance",
      "outputs": [
        {
          "internalType": "bool",
          "name": "",
          "type": "bool"
        }
      ],
      "stateMutability": "nonpayable",
      "type": "function"
    },
    {
      "inputs": [
        {
          "internalType": "address",
          "name": "spender",
          "type": "address"
        },
        {
          "internalType": "uint256",
          "name": "addedValue",
          "type": "uint256"
        }
      ],
      "name": "increaseAllowance",
      "outputs": [
        {
          "internalType": "bool",
          "name": "",
          "type": "bool"
        }
      ],
      "stateMutability": "nonpayable",
      "type": "function"
    },
    {
      "inputs": [
        {
          "internalType": "address",
          "name": "to",
          "type": "address"
        },
        {
          "internalType": "uint256",
          "name": "amount",
          "type": "uint256"
        }
      ],
      "name": "mint",
      "outputs": [],
      "stateMutability": "nonpayable",
      "type": "function"
    },
    {
      "inputs": [],
      "name": "name",
      "outputs": [
        {
          "internalType": "string",
          "name": "",
          "type": "string"
        }
      ],
      "stateMutability": "view",
      "type": "function"
    },
    {
      "inputs": [],
      "name": "owner",
      "outputs": [
        {
          "internalType": "address",
          "name": "",
          "type": "address"
        }
      ],
      "stateMutability": "view",
      "type": "function"
    },
    {
      "inputs": [],
      "name": "pool",
      "outputs": [
        {
          "internalType": "address",
          "name": "",
          "type": "address"
        }
      ],
      "stateMutability": "view",
      "type": "function"
    },
    {
      "inputs": [],
      "name": "renounceOwnership",
      "outputs": [],
      "stateMutability": "nonpayable",
      "type": "function"
    },
    {
      "inputs": [
        {
          "internalType": "address",
          "name": "_pool",
          "type": "address"
        }
      ],
      "name": "setPool",
      "outputs": [],
      "stateMutability": "nonpayable",
      "type": "function"
    },
    {
      "inputs": [],
      "name": "symbol",
      "outputs": [
        {
          "internalType": "string",
          "name": "",
          "type": "string"
        }
      ],
      "stateMutability": "view",
      "type": "function"
    },
    {
      "inputs": [],
      "name": "totalSupply",
      "outputs": [
        {
          "internalType": "uint256",
          "name": "",
          "type": "uint256"
        }
      ],
      "stateMutability": "view",
      "type": "function"
    },
    {
      "inputs": [
        {
          "internalType": "address",
          "name": "to",
          "type": "address"
        },
        {
          "internalType": "uint256",
          "name": "amount",
          "type": "uint256"
        }
      ],
      "name": "transfer",
      "outputs": [
        {
          "internalType": "bool",
          "name": "",
          "type": "bool"
        }
      ],
      "stateMutability": "nonpayable",
      "type": "function"
    },
    {
      "inputs": [
        {
          "internalType": "address",
          "name": "from",
          "type": "address"
        },
        {
          "internalType": "address",
          "name": "to",
          "type": "address"
        },
        {
          "internalType": "uint256",
          "name": "amount",
          "type": "uint256"
        }
      ],
      "name": "transferFrom",
      "outputs": [
        {
          "internalType": "bool",
          "name": "",
          "type": "bool"
        }
      ],
      "stateMutability": "nonpayable",
      "type": "function"
    },
    {
      "inputs": [
        {
          "internalType": "address",
          "name": "newOwner",
          "type": "address"
        }
      ],
      "name": "transferOwnership",
      "outputs": [],
      "stateMutability": "nonpayable",
      "type": "function"
    }
  ],
  "bytecode": "0x60806040523462000364576200121b803803806200001d8162000369565b9283398101606082820312620003645781516001600160401b0391908281116200036457816200004f9185016200038f565b906020908185015184811162000364576040916200006f9187016200038f565b940151926001600160a01b03841692838503620003645780519082821162000264576003918254906001928383811c9316801562000359575b8784101462000343578190601f93848111620002ed575b50879084831160011462000286576000926200027a575b505060001982861b1c191690831b1783555b8751938411620002645760049485548381811c9116801562000259575b828210146200024457828111620001f9575b508091851160011462000189575083929183916200016d996000956200017d575b50501b92600019911b1c19161790555b620001533362000401565b600680546001600160a01b03191691909117905562000401565b604051610dd090816200044b8239f35b01519350388062000138565b91939290601f198416988660005283600020936000905b8b8210620001e1575050846200016d9a10620001c6575b50505050811b01905562000148565b01519060f884600019921b161c1916905538808080620001b7565b808885978294968601518155019601930190620001a0565b86600052816000208380880160051c8201928489106200023a575b0160051c019084905b8281106200022d57505062000117565b600081550184906200021d565b9250819262000214565b602287634e487b7160e01b6000525260246000fd5b90607f169062000105565b634e487b7160e01b600052604160045260246000fd5b015190503880620000d6565b90859350601f1983169187600052896000209260005b8b828210620002d65750508411620002bd575b505050811b018355620000e8565b015160001983881b60f8161c19169055388080620002af565b83850151865589979095019493840193016200029c565b90915085600052876000208480850160051c8201928a861062000339575b918791869594930160051c01915b82811062000329575050620000bf565b6000815585945087910162000319565b925081926200030b565b634e487b7160e01b600052602260045260246000fd5b92607f1692620000a8565b600080fd5b6040519190601f01601f191682016001600160401b038111838210176200026457604052565b919080601f84011215620003645782516001600160401b0381116200026457602090620003c5601f8201601f1916830162000369565b92818452828287010111620003645760005b818110620003ed57508260009394955001015290565b8581018301518482018401528201620003d7565b600580546001600160a01b039283166001600160a01b0319821681179092559091167f8be0079c531659141344cd1fd0a4f28419497f9722a3daafe3b4186f6b6457e0600080a356fe6080604081815260048036101561001557600080fd5b600092833560e01c90816306fdde03146108f457508063095ea7b3146108ca57806316f0115b146108a157806318160ddd1461088257806323b872dd146107b8578063313ce5671461079c578063395093511461074c57806340c10f191461067d5780634437152a146105eb57806370a08231146105b4578063715018a6146105575780638da5cb5b1461052e57806395d89b411461040e5780639dc29fac146102dc578063a457c2d714610235578063a9059cbb14610204578063dd62ed3e146101b75763f2fde38b146100e957600080fd5b346101b35760203660031901126101b357610102610a32565b9061010b610a63565b6001600160a01b03918216928315610161575050600554826bffffffffffffffffffffffff60a01b821617600555167f8be0079c531659141344cd1fd0a4f28419497f9722a3daafe3b4186f6b6457e08380a380f35b906020608492519162461bcd60e51b8352820152602660248201527f4f776e61626c653a206e6577206f776e657220697320746865207a65726f206160448201526564647265737360d01b6064820152fd5b8280fd5b505034610200578060031936011261020057806020926101d5610a32565b6101dd610a4d565b6001600160a01b0391821683526001865283832091168252845220549051908152f35b5080fd5b50503461020057806003193601126102005760209061022e610224610a32565b6024359033610ade565b5160018152f35b5082346102d957826003193601126102d95761024f610a32565b918360243592338152600160205281812060018060a01b03861682526020522054908282106102885760208561022e8585038733610c4c565b608490602086519162461bcd60e51b8352820152602560248201527f45524332303a2064656372656173656420616c6c6f77616e63652062656c6f77604482015264207a65726f60d81b6064820152fd5b80fd5b508290346102005782600319360112610200576102f7610a32565b600654602435916001600160a01b03916103149083163314610d4e565b169182156103c15782845283602052848420549082821061037357508184957fddf252ad1be2c89b69c2b068fc378daa952ba7f163c4a11628f55a4df523b3ef936020938688528785520381872055816002540360025551908152a380f35b608490602087519162461bcd60e51b8352820152602260248201527f45524332303a206275726e20616d6f756e7420657863656564732062616c616e604482015261636560f01b6064820152fd5b608490602086519162461bcd60e51b8352820152602160248201527f45524332303a206275726e2066726f6d20746865207a65726f206164647265736044820152607360f81b6064820152fd5b50919034610200578160031936011261020057805190828454600181811c90808316928315610524575b6020938484108114610511578388529081156104f557506001146104a0575b505050829003601f01601f191682019267ffffffffffffffff84118385101761048d57508291826104899252826109e9565b0390f35b634e487b7160e01b815260418552602490fd5b8787529192508591837f8a35acfbc15ff81a39ae7d344fd709f28e8600b4aa8c65c6b64bfe7fe36bd19b5b8385106104e15750505050830101388080610457565b8054888601830152930192849082016104cb565b60ff1916878501525050151560051b8401019050388080610457565b634e487b7160e01b895260228a52602489fd5b91607f1691610438565b50503461020057816003193601126102005760055490516001600160a01b039091168152602090f35b83346102d957806003193601126102d957610570610a63565b600580546001600160a01b0319811690915581906001600160a01b03167f8be0079c531659141344cd1fd0a4f28419497f9722a3daafe3b4186f6b6457e08280a380f35b5050346102005760203660031901126102005760209181906001600160a01b036105dc610a32565b16815280845220549051908152f35b50346101b35760203660031901126101b357610605610a32565b61060d610a63565b6001600160a01b031691821561063a5750506bffffffffffffffffffffffff60a01b600654161760065580f35b906020606492519162461bcd60e51b8352820152601d60248201527f4c50546f6b656e3a20696e76616c696420706f6f6c20616464726573730000006044820152fd5b5090346101b357806003193601126101b357610697610a32565b60065460243592916001600160a01b03916106b59083163314610d4e565b1692831561070a57506020827fddf252ad1be2c89b69c2b068fc378daa952ba7f163c4a11628f55a4df523b3ef926106f08795600254610abb565b60025585855284835280852082815401905551908152a380f35b6020606492519162461bcd60e51b8352820152601f60248201527f45524332303a206d696e7420746f20746865207a65726f2061646472657373006044820152fd5b50503461020057806003193601126102005761022e60209261079561076f610a32565b338352600186528483206001600160a01b03821684528652918490205460243590610abb565b9033610c4c565b5050346102005781600319360112610200576020905160128152f35b50829034610200576060366003190112610200576107d4610a32565b6107dc610a4d565b91846044359460018060a01b038416815260016020528181203382526020522054906000198203610816575b60208661022e878787610ade565b84821061083f57509183916108346020969561022e95033383610c4c565b919394819350610808565b606490602087519162461bcd60e51b8352820152601d60248201527f45524332303a20696e73756666696369656e7420616c6c6f77616e63650000006044820152fd5b5050346102005781600319360112610200576020906002549051908152f35b50503461020057816003193601126102005760065490516001600160a01b039091168152602090f35b50503461020057806003193601126102005760209061022e6108ea610a32565b6024359033610c4c565b84915083346101b357826003193601126101b35782600354600181811c908083169283156109df575b6020938484108114610511578388529081156109c3575060011461096d57505050829003601f01601f191682019267ffffffffffffffff84118385101761048d57508291826104899252826109e9565b600387529192508591837fc2575a0e9e593c00f959f8c92f12db2869c3395a3b0502d05e2516446f71f85b5b8385106109af5750505050830101858080610457565b805488860183015293019284908201610999565b60ff1916878501525050151560051b8401019050858080610457565b91607f169161091d565b6020808252825181830181905290939260005b828110610a1e57505060409293506000838284010152601f8019910116010190565b8181018601518482016040015285016109fc565b600435906001600160a01b0382168203610a4857565b600080fd5b602435906001600160a01b0382168203610a4857565b6005546001600160a01b03163303610a7757565b606460405162461bcd60e51b815260206004820152602060248201527f4f776e61626c653a2063616c6c6572206973206e6f7420746865206f776e65726044820152fd5b91908201809211610ac857565b634e487b7160e01b600052601160045260246000fd5b6001600160a01b03908116918215610bf95716918215610ba857600082815280602052604081205491808310610b5457604082827fddf252ad1be2c89b69c2b068fc378daa952ba7f163c4a11628f55a4df523b3ef958760209652828652038282205586815220818154019055604051908152a3565b60405162461bcd60e51b815260206004820152602660248201527f45524332303a207472616e7366657220616d6f756e7420657863656564732062604482015265616c616e636560d01b6064820152608490fd5b60405162461bcd60e51b815260206004820152602360248201527f45524332303a207472616e7366657220746f20746865207a65726f206164647260448201526265737360e81b6064820152608490fd5b60405162461bcd60e51b815260206004820152602560248201527f45524332303a207472616e736665722066726f6d20746865207a65726f206164604482015264647265737360d81b6064820152608490fd5b6001600160a01b03908116918215610cfd5716918215610cad5760207f8c5be1e5ebec7d5bd14f71427d1e84f3dd0314c0f7b2291e5b200ac8c7c3b925918360005260018252604060002085600052825280604060002055604051908152a3565b60405162461bcd60e51b815260206004820152602260248201527f45524332303a20617070726f766520746f20746865207a65726f206164647265604482015261737360f01b6064820152608490fd5b60405162461bcd60e51b8152602060048201526024808201527f45524332303a20617070726f76652066726f6d20746865207a65726f206164646044820152637265737360e01b6064820152608490fd5b15610d5557565b60405162461bcd60e51b815260206004820152601f60248201527f4c50546f6b656e3a2063616c6c6572206973206e6f742074686520706f6f6c006044820152606490fdfea264697066735822122026c5ad39f8335fbe62e2ad935e84650a3fe20333497825eb2bacadf94a36451f64736f6c63430008140033",
  "linkReferences": {},
  "deployedLinkReferences": {}
}