{
  "_format": "hh-sol-artifact-1",
  "contractName": "PledgeNFT",
  "sourceName": "contracts/PledgeNFT.sol",
  "abi": [
    {
      "inputs": [
        {
          "internalType": "string",
          "name": "name",
          "type": "string"
        },
        {
          "internalType": "string",
          "name": "symbol",
          "type": "string"
        }
      ],
      "stateMutability": "nonpayable",
      "type": "constructor"
    },
    {
      "anonymous": false,
      "inputs": [
        {
          "indexed": true,
          "internalType": "address",
          "name": "owner",
          "type": "address"
        },
        {
          "indexed": true,
          "internalType": "address",
          "name": "approved",
          "type": "address"
        },
        {
          "indexed": true,
          "internalType": "uint256",
          "name": "tokenId",
          "type": "uint256"
        }
      ],
      "name": "Approval",
      "type": "event"
    },
    {
      "anonymous": false,
      "inputs": [
        {
          "indexed": true,
          "internalType": "address",
          "name": "owner",
          "type": "address"
        },
        {
          "indexed": true,
          "internalType": "address",
          "name": "operator",
          "type": "address"
        },
        {
          "indexed": false,
          "internalType": "bool",
          "name": "approved",
          "type": "bool"
        }
      ],
      "name": "ApprovalForAll",
      "type": "event"
    },
    {
      "anonymous": false,
      "inputs": [
        {
          "indexed": true,
          "internalType": "uint256",
          "name": "tokenId",
          "type": "uint256"
        },
        {
          "indexed": true,
          "internalType": "uint256",
          "name": "pledgeId",
          "type": "uint256"
        },
        {
          "indexed": true,
          "internalType": "address",
          "name": "owner",
          "type": "address"
        },
        {
          "indexed": false,
          "internalType": "string",
          "name": "assetType",
          "type": "string"
        },
        {
          "indexed": false,
          "internalType": "uint256",
          "name": "appraisedValue",
          "type": "uint256"
        }
      ],
      "name": "AssetPledged",
      "type": "event"
    },
    {
      "anonymous": false,
      "inputs": [
        {
          "indexed": false,
          "internalType": "uint256",
          "name": "_fromTokenId",
          "type": "uint256"
        },
        {
          "indexed": false,
          "internalType": "uint256",
          "name": "_toTokenId",
          "type": "uint256"
        }
      ],
      "name": "BatchMetadataUpdate",
      "type": "event"
    },
    {
      "anonymous": false,
      "inputs": [
        {
          "indexed": true,
          "internalType": "uint256",
          "name": "tokenId",
          "type": "uint256"
        },
        {
          "indexed": false,
          "internalType": "bytes32",
          "name": "oldHash",
          "type": "bytes32"
        },
        {
          "indexed": false,
          "internalType": "bytes32",
          "name": "newHash",
          "type": "bytes32"
        }
      ],
      "name": "DocumentUpdated",
      "type": "event"
    },
    {
      "anonymous": false,
      "inputs": [
        {
          "indexed": false,
          "internalType": "uint256",
          "name": "_tokenId",
          "type": "uint256"
        }
      ],
      "name": "MetadataUpdate",
      "type": "event"
    },
    {
      "anonymous": false,
      "inputs": [
        {
          "indexed": false,
          "internalType": "address",
          "name": "account",
          "type": "address"
        }
      ],
      "name": "Paused",
      "type": "event"
    },
    {
      "anonymous": false,
      "inputs": [
        {
          "indexed": true,
          "internalType": "bytes32",
          "name": "role",
          "type": "bytes32"
        },
        {
          "indexed": true,
          "internalType": "bytes32",
          "name": "previousAdminRole",
          "type": "bytes32"
        },
        {
          "indexed": true,
          "internalType": "bytes32",
          "name": "newAdminRole",
          "type": "bytes32"
        }
      ],
      "name": "RoleAdminChanged",
      "type": "event"
    },
    {
      "anonymous": false,
      "inputs": [
        {
          "indexed": true,
          "internalType": "bytes32",
          "name": "role",
          "type": "bytes32"
        },
        {
          "indexed": true,
          "internalType": "address",
          "name": "account",
          "type": "address"
        },
        {
          "indexed": true,
          "internalType": "address",
          "name": "sender",
          "type": "address"
        }
      ],
      "name": "RoleGranted",
      "type": "event"
    },
    {
      "anonymous": false,
      "inputs": [
        {
          "indexed": true,
          "internalType": "bytes32",
          "name": "role",
          "type": "bytes32"
        },
        {
          "indexed": true,
          "internalType": "address",
          "name": "account",
          "type": "address"
        },
        {
          "indexed": true,
          "internalType": "address",
          "name": "sender",
          "type": "address"
        }
      ],
      "name": "RoleRevoked",
      "type": "event"
    },
    {
      "anonymous": false,
      "inputs": [
        {
          "indexed": true,
          "internalType": "address",
          "name": "from",
          "type": "address"
        },
        {
          "indexed": true,
          "internalType": "address",
          "name": "to",
          "type": "address"
        },
        {
          "indexed": true,
          "internalType": "uint256",
          "name": "tokenId",
          "type": "uint256"
        }
      ],
      "name": "Transfer",
      "type": "event"
    },
    {
      "anonymous": false,
      "inputs": [
        {
          "indexed": false,
          "internalType": "address",
          "name": "account",
          "type": "address"
        }
      ],
      "name": "Unpaused",
      "type": "event"
    },
    {
      "inputs": [],
      "name": "ADMIN_ROLE",
      "outputs": [
        {
          "internalType": "bytes32",
          "name": "",
          "type": "bytes32"
        }
      ],
      "stateMutability": "view",
      "type": "function"
    },
    {
      "inputs": [],
      "name": "DEFAULT_ADMIN_ROLE",
      "outputs": [
        {
          "internalType": "bytes32",
          "name": "",
          "type": "bytes32"
        }
      ],
      "stateMutability": "view",
      "type": "function"
    },
    {
      "inputs": [],
      "name": "ESCROW_ROLE",
      "outputs": [
        {
          "internalType": "bytes32",
          "name": "",
          "type": "bytes32"
        }
      ],
      "stateMutability": "view",
      "type": "function"
    },
    {
      "inputs": [],
      "name": "MINTER_ROLE",
      "outputs": [
        {
          "internalType": "bytes32",
          "name": "",
          "type": "bytes32"
        }
      ],
      "stateMutability": "view",
      "type": "function"
    },
    {
      "inputs": [
        {
          "internalType": "uint256",
          "name": "",
          "type": "uint256"
        }
      ],
      "name": "appraisedValues",
      "outputs": [
        {
          "internalType": "uint256",
          "name": "",
          "type": "uint256"
        }
      ],
      "stateMutability": "view",
      "type": "function"
    },
    {
      "inputs": [
        {
          "internalType": "address",
          "name": "to",
          "type": "address"
        },
        {
          "internalType": "uint256",
          "name": "tokenId",
          "type": "uint256"
        }
      ],
      "name": "approve",
      "outputs": [],
      "stateMutability": "nonpayable",
      "type": "function"
    },
    {
      "inputs": [
        {
          "internalType": "uint256",
          "name": "",
          "type": "uint256"
        }
      ],
      "name": "assetTypes",
      "outputs": [
        {
          "internalType": "string",
          "name": "",
          "type": "string"
        }
      ],
      "stateMutability": "view",
      "type": "function"
    },
    {
      "inputs": [
        {
          "internalType": "address",
          "name": "owner",
          "type": "address"
        }
      ],
      "name": "balanceOf",
      "outputs": [
        {
          "internalType": "uint256",
          "name": "",
          "type": "uint256"
        }
      ],
      "stateMutability": "view",
      "type": "function"
    },
    {
      "inputs": [
        {
          "internalType": "uint256",
          "name": "tokenId",
          "type": "uint256"
        }
      ],
      "name": "burn",
      "outputs": [],
      "stateMutability": "nonpayable",
      "type": "function"
    },
    {
      "inputs": [
        {
          "internalType": "uint256",
          "name": "",
          "type": "uint256"
        }
      ],
      "name": "documentHashes",
      "outputs": [
        {
          "internalType": "bytes32",
          "name": "",
          "type": "bytes32"
        }
      ],
      "stateMutability": "view",
      "type": "function"
    },
    {
      "inputs": [
        {
          "internalType": "uint256",
          "name": "tokenId",
          "type": "uint256"
        }
      ],
      "name": "getApproved",
      "outputs": [
        {
          "internalType": "address",
          "name": "",
          "type": "address"
        }
      ],
      "stateMutability": "view",
      "type": "function"
    },
    {
      "inputs": [
        {
          "internalType": "uint256",
          "name": "tokenId",
          "type": "uint256"
        }
      ],
      "name": "getAssetInfo",
      "outputs": [
        {
          "internalType": "uint256",
          "name": "pledgeId",
          "type": "uint256"
        },
        {
          "internalType": "string",
          "name": "assetType",
          "type": "string"
        },
        {
          "internalType": "uint256",
          "name": "appraisedValue",
          "type": "uint256"
        },
        {
          "internalType": "bytes32",
          "name": "documentHash",
          "type": "bytes32"
        },
        {
          "internalType": "address",
          "name": "owner",
          "type": "address"
        }
      ],
      "stateMutability": "view",
      "type": "function"
    },
    {
      "inputs": [
        {
          "internalType": "bytes32",
          "name": "role",
          "type": "bytes32"
        }
      ],
      "name": "getRoleAdmin",
      "outputs": [
        {
          "internalType": "bytes32",
          "name": "",
          "type": "bytes32"
        }
      ],
      "stateMutability": "view",
      "type": "function"
    },
    {
      "inputs": [
        {
          "internalType": "address",
          "name": "owner",
          "type": "address"
        }
      ],
      "name": "getTokensByOwner",
      "outputs": [
        {
          "internalType": "uint256[]",
          "name": "",
          "type": "uint256[]"
        }
      ],
      "stateMutability": "view",
      "type": "function"
    },
    {
      "inputs": [
        {
          "internalType": "bytes32",
          "name": "role",
          "type": "bytes32"
        },
        {
          "internalType": "address",
          "name": "account",
          "type": "address"
        }
      ],
      "name": "grantRole",
      "outputs": [],
      "stateMutability": "nonpayable",
      "type": "function"
    },
    {
      "inputs": [
        {
          "internalType": "bytes32",
          "name": "role",
          "type": "bytes32"
        },
        {
          "internalType": "address",
          "name": "account",
          "type": "address"
        }
      ],
      "name": "hasRole",
      "outputs": [
        {
          "internalType": "bool",
          "name": "",
          "type": "bool"
        }
      ],
      "stateMutability": "view",
      "type": "function"
    },
    {
      "inputs": [
        {
          "internalType": "address",
          "name": "owner",
          "type": "address"
        },
        {
          "internalType": "address",
          "name": "operator",
          "type": "address"
        }
      ],
      "name": "isApprovedForAll",
      "outputs": [
        {
          "internalType": "bool",
          "name": "",
          "type": "bool"
        }
      ],
      "stateMutability": "view",
      "type": "function"
    },
    {
      "inputs": [
        {
          "internalType": "address",
          "name": "to",
          "type": "address"
        },
        {
          "internalType": "uint256",
          "name": "pledgeId",
          "type": "uint256"
        },
        {
          "internalType": "string",
          "name": "assetType",
          "type": "string"
        },
        {
          "internalType": "uint256",
          "name": "appraisedValue",
          "type": "uint256"
        },
        {
          "internalType": "string",
          "name": "metadataURI",
          "type": "string"
        },
        {
          "internalType": "bytes32",
          "name": "documentHash",
          "type": "bytes32"
        }
      ],
      "name": "mintPledgeNFT",
      "outputs": [
        {
          "internalType": "uint256",
          "name": "",
          "type": "uint256"
        }
      ],
      "stateMutability": "nonpayable",
      "type": "function"
    },
    {
      "inputs": [],
      "name": "name",
      "outputs": [
        {
          "internalType": "string",
          "name": "",
          "type": "string"
        }
      ],
      "stateMutability": "view",
      "type": "function"
    },
    {
      "inputs": [
        {
          "internalType": "uint256",
          "name": "tokenId",
          "type": "uint256"
        }
      ],
      "name": "ownerOf",
      "outputs": [
        {
          "internalType": "address",
          "name": "",
          "type": "address"
        }
      ],
      "stateMutability": "view",
      "type": "function"
    },
    {
      "inputs": [],
      "name": "pause",
      "outputs": [],
      "stateMutability": "nonpayable",
      "type": "function"
    },
    {
      "inputs": [],
      "name": "paused",
      "outputs": [
        {
          "internalType": "bool",
          "name": "",
          "type": "bool"
        }
      ],
      "stateMutability": "view",
      "type": "function"
    },
    {
      "inputs": [
        {
          "internalType": "uint256",
          "name": "",
          "type": "uint256"
        }
      ],
      "name": "pledgeIds",
      "outputs": [
        {
          "internalType": "uint256",
          "name": "",
          "type": "uint256"
        }
      ],
      "stateMutability": "view",
      "type": "function"
    },
    {
      "inputs": [
        {
          "internalType": "bytes32",
          "name": "role",
          "type": "bytes32"
        },
        {
          "internalType": "address",
          "name": "account",
          "type": "address"
        }
      ],
      "name": "renounceRole",
      "outputs": [],
      "stateMutability": "nonpayable",
      "type": "function"
    },
    {
      "inputs": [
        {
          "internalType": "bytes32",
          "name": "role",
          "type": "bytes32"
        },
        {
          "internalType": "address",
          "name": "account",
          "type": "address"
        }
      ],
      "name": "revokeRole",
      "outputs": [],
      "stateMutability": "nonpayable",
      "type": "function"
    },
    {
      "inputs": [
        {
          "internalType": "address",
          "name": "from",
          "type": "address"
        },
        {
          "internalType": "address",
          "name": "to",
          "type": "address"
        },
        {
          "internalType": "uint256",
          "name": "tokenId",
          "type": "uint256"
        }
      ],
      "name": "safeTransferFrom",
      "outputs": [],
      "stateMutability": "nonpayable",
      "type": "function"
    },
    {
      "inputs": [
        {
          "internalType": "address",
          "name": "from",
          "type": "address"
        },
        {
          "internalType": "address",
          "name": "to",
          "type": "address"
        },
        {
          "internalType": "uint256",
          "name": "tokenId",
          "type": "uint256"
        },
        {
          "internalType": "bytes",
          "name": "data",
          "type": "bytes"
        }
      ],
      "name": "safeTransferFrom",
      "outputs": [],
      "stateMutability": "nonpayable",
      "type": "function"
    },
    {
      "inputs": [
        {
          "internalType": "address",
          "name": "operator",
          "type": "address"
        },
        {
          "internalType": "bool",
          "name": "approved",
          "type": "bool"
        }
      ],
      "name": "setApprovalForAll",
      "outputs": [],
      "stateMutability": "nonpayable",
      "type": "function"
    },
    {
      "inputs": [
        {
          "internalType": "address",
          "name": "escrowContract",
          "type": "address"
        }
      ],
      "name": "setEscrowContract",
      "outputs": [],
      "stateMutability": "nonpayable",
      "type": "function"
    },
    {
      "inputs": [
        {
          "internalType": "bytes4",
          "name": "interfaceId",
          "type": "bytes4"
        }
      ],
      "name": "supportsInterface",
      "outputs": [
        {
          "internalType": "bool",
          "name": "",
          "type": "bool"
        }
      ],
      "stateMutability": "view",
      "type": "function"
    },
    {
      "inputs": [],
      "name": "symbol",
      "outputs": [
        {
          "internalType": "string",
          "name": "",
          "type": "string"
        }
      ],
      "stateMutability": "view",
      "type": "function"
    },
    {
      "inputs": [
        {
          "internalType": "uint256",
          "name": "tokenId",
          "type": "uint256"
        }
      ],
      "name": "tokenURI",
      "outputs": [
        {
          "internalType": "string",
          "name": "",
          "type": "string"
        }
      ],
      "stateMutability": "view",
      "type": "function"
    },
    {
      "inputs": [],
      "name": "totalSupply",
      "outputs": [
        {
          "internalType": "uint256",
          "name": "",
          "type": "uint256"
        }
      ],
      "stateMutability": "view",
      "type": "function"
    },
    {
      "inputs": [
        {
          "internalType": "address",
          "name": "from",
          "type": "address"
        },
        {
          "internalType": "address",
          "name": "to",
          "type": "address"
        },
        {
          "internalType": "uint256",
          "name": "tokenId",
          "type": "uint256"
        }
      ],
      "name": "transferFrom",
      "outputs": [],
      "stateMutability": "nonpayable",
      "type": "function"
    },
    {
      "inputs": [
        {
          "internalType": "uint256",
          "name": "tokenId",
          "type": "uint256"
        },
        {
          "internalType": "address",
          "name": "escrowContract",
          "type": "address"
        }
      ],
      "name": "transferToEscrow",
      "outputs": [],
      "stateMutability": "nonpayable",
      "type": "function"
    },
    {
      "inputs": [],
      "name": "unpause",
      "outputs": [],
      "stateMutability": "nonpayable",
      "type": "function"
    },
    {
      "inputs": [
        {
          "internalType": "uint256",
          "name": "tokenId",
          "type": "uint256"
        },
        {
          "internalType": "uint256",
          "name": "newAppraisedValue",
          "type": "uint256"
        }
      ],
      "name": "updateAppraisedValue",
      "outputs": [],
      "stateMutability": "nonpayable",
      "type": "function"
    },
    {
      "inputs": [
        {
          "internalType": "uint256",
          "name": "tokenId",
          "type": "uint256"
        },
        {
          "internalType": "bytes32",
          "name": "newDocumentHash",
          "type": "bytes32"
        }
      ],
      "name": "updateDocumentHash",
      "outputs": [],
      "stateMutability": "nonpayable",
      "type": "function"
    },
    {
      "inputs": [
        {
          "internalType": "uint256",
          "name": "tokenId",
          "type": "uint256"
        },
        {
          "internalType": "string",
          "name": "newURI",
          "type": "string"
        }
      ],
      "name": "updateTokenURI",
      "outputs": [],
      "stateMutability": "nonpayable",
      "type": "function"
    }
  ],
  "bytecode": "0x604060808152346200047c5762002fe4803803806200001e8162000481565b928339810182828203126200047c5781516001600160401b03908181116200047c57826200004e918501620004a7565b92602092838201518381116200047c576200006a9201620004a7565b90835181811162000466576000928354916001968784811c941680156200045b575b8785101462000447578190601f94858111620003f4575b5087908583116001146200039057879262000384575b5050600019600383901b1c191690871b1784555b8051928311620003705785548681811c9116801562000365575b86821014620003515790818385949311620002fc575b5085918311600114620002985784926200028c575b5050600019600383901b1c191690841b1783555b60ff19806008541660085583600955818052600792838152858320338452815260ff86842054161562000257575b7fa49807205ce4d355092ef5a8a18f56e8913cf4a201fbe287825b095693c21775808452848252868420338552825260ff87852054161562000220575b507f9f2df0fed2c77648de5860a4cc508cd0818c85b8b8a1ab4ceeef8d981c8956a693848452808252868420338552825260ff878520541615620001e7575b8686600a5401600a5551612aaa90816200051a8239f35b848452815285832090338452528385832091825416179055339160008051602062002fc4833981519152339280a43880808080620001d0565b808452848252868420338552825286842086848254161790553390339060008051602062002fc48339815191528680a43862000191565b8280528381528583203384528152858320858382541617905533338460008051602062002fc48339815191528180a462000154565b01519050388062000112565b8685528585208794509190601f198416865b88828210620002e55750508411620002cb575b505050811b01835562000126565b015160001960f88460031b161c19169055388080620002bd565b8385015186558a97909501949384019301620002aa565b909192508685528585208380860160051c82019288871062000347575b9186958a929594930160051c01915b82811062000338575050620000fd565b87815586955089910162000328565b9250819262000319565b634e487b7160e01b85526022600452602485fd5b90607f1690620000e7565b634e487b7160e01b84526041600452602484fd5b015190503880620000b9565b8780528888208a94509190601f198416895b8b828210620003dd5750508411620003c3575b505050811b018455620000cd565b015160001960f88460031b161c19169055388080620003b5565b8385015186558d97909501949384019301620003a2565b9091508680528787208580850160051c8201928a86106200043d575b918b91869594930160051c01915b8281106200042e575050620000a3565b8981558594508b91016200041e565b9250819262000410565b634e487b7160e01b86526022600452602486fd5b93607f16936200008c565b634e487b7160e01b600052604160045260246000fd5b600080fd5b6040519190601f01601f191682016001600160401b038111838210176200046657604052565b919080601f840112156200047c5782516001600160401b0381116200046657602090620004dd601f8201601f1916830162000481565b928184528282870101116200047c5760005b8181106200050557508260009394955001015290565b8581018301518482018401528201620004ef56fe6080806040526004908136101561001557600080fd5b60003560e01c90816301ffc9a7146118fc5750806306fdde0314611859578063081812fc1461183b578063095ea7b3146116bc57806318160ddd1461167a57806318e97fd114611613578063202f40f5146115e857806323b872dd146115c9578063248a9ca31461159b5780632f2ff15d1461153757806336568abe146114a75780633f4ba83a1461141157806340398d67146112d557806342842e0e146112a257806342966c68146111835780635c975abb146111605780636352211e146111305780636ce76f30146110f557806370a08231146110ca57806375b238fc1461108f5780638456cb59146110355780638e383c6b1461100a57806391d1485414610fbd57806395d89b4114610ef2578063972d852914610eb3578063a217fddf14610e97578063a22cb46514610dc4578063a9bd7afe14610d99578063b88d4fde14610d18578063c87b56dd14610ca3578063d539139314610c68578063d547741f14610c29578063e985e9c514610bd3578063ef9e544214610b73578063f42375b514610a95578063f637d950146109e5578063f9abc1af146104e6578063fc9e66df146102665763fef50deb146101ce57600080fd5b3461026157604036600319011261026157357f8fd2496ed733ed48a03cffbc9bb26370028796c3ec4ce22456b8779cc1e81166604060243561020e611c04565b600084815260026020526040902054610236906001600160a01b0316151561292c565b61292c565b610241811515612660565b83600052600b6020528160002090808254925582519182526020820152a2005b600080fd5b50346102615760403660031901126102615780356102826119f8565b3360009081527f2a5d121539c48ff39f0a553a5a1d73646761bbbb6afabff42598210ffa2683fb60209081526040909120549093907f2fdac322ee704ce09f0773f7f3f92eb98d5e7c836ee9c056cccd5f61041e5e3f9060ff161561032c5761032a848461030861023183600052600260205260018060a01b0360406000205416151590565b61031c6001600160a01b0382161515612978565b61032582612024565b612222565b005b8492506103383361250c565b9060405161034581611a40565b604281528481019160603684378151156104d1576030835381516001908110156104bc57607860218401536041905b80821161044f57505061041f57604861041b936103f0936103ff9360405195869376020b1b1b2b9b9a1b7b73a3937b61d1030b1b1b7bab73a1604d1b8b8601526103c7815180928d60378901910161199a565b8401917001034b99036b4b9b9b4b733903937b6329607d1b60378401525180938684019061199a565b01036028810184520182611a5c565b60405193849362461bcd60e51b855284015260248301906119bd565b0390fd5b60648486806040519262461bcd60e51b84528301526024820152600080516020612a558339815191526044820152fd5b9091600f811660108110156104a7576f181899199a1a9b1b9c1cb0b131b232b360811b901a61047e84866124e5565b53861c918015610492576000190190610374565b601187634e487b7160e01b6000525260246000fd5b603288634e487b7160e01b6000525260246000fd5b603286634e487b7160e01b6000525260246000fd5b603285634e487b7160e01b6000525260246000fd5b50346102615760c0366003190112610261576105006119e2565b67ffffffffffffffff90604435828111610261576105219036908501611ad1565b90608435838111610261576105399036908601611ad1565b3360009081527fa4bfd7afe708e2e87e7f0e2ad9b4d545417e0f795f57b5c5ab5d799c565a04f460205260409020547f9f2df0fed2c77648de5860a4cc508cd0818c85b8b8a1ab4ceeef8d981c8956a69060ff1615610895575061059b6126c2565b6001600160a01b03821615610851576105b76064351515612609565b6105c460a4351515612660565b600a549360018501600a5584600052600e602052602435604060002055600d602052604060002090845190811161083c57602096506106038254611b24565b601f8111610801575b5086601f821160011461079757908061073194939260009161078c575b508160011b916000199060031b1c19161790555b84600052600c8652606435604060002055600b865260a43560406000205561072b61072660405161066d81611a0e565b600080825288815260026020526040902054610695906001600160a01b031615155b15612706565b61069d6126c2565b6000888152600260205260409020546106c0906001600160a01b0316151561068f565b6001600160a01b038616600081815260038b526040808220805460010190558a825260028c52812080546001600160a01b031916831790558991907fddf252ad1be2c89b69c2b068fc378daa952ba7f163c4a11628f55a4df523b3ef8180a48786612340565b61213a565b84612752565b827f5c252ff7b1b95320fdc54aeddb08fa13a5dce2bfba7dc607edcd5a8cac612168610768604051946040865260408601906119bd565b606435858801526001600160a01b03909316936024359381900390a4604051908152f35b905086015138610629565b82600052876000209060005b601f19841681106107ea57509160019161073195949382601f198116106107d1575b5050811b01905561063d565b88015160001960f88460031b161c1916905538806107c5565b90918960018192858b0151815501930191016107a3565b61082c908360005288600020601f840160051c8101918a8510610832575b601f0160051c01906126ab565b3861060c565b909150819061081f565b604187634e487b7160e01b6000525260246000fd5b60405162461bcd60e51b8152602081870152601c60248201527f506c656467654e46543a20696e76616c696420726563697069656e74000000006044820152606490fd5b8561089f3361250c565b916040516108ac81611a40565b60428152602081019160603684378151156109d0576030835381516001908110156104d157607860218401536041905b808211610963575050610931576103ff604860209561041b946103f09460405195869376020b1b1b2b9b9a1b7b73a3937b61d1030b1b1b7bab73a1604d1b8b8601526103c7815180928d60378901910161199a565b60405162461bcd60e51b815260208185018190526024820152600080516020612a558339815191526044820152606490fd5b9091600f811660108110156109bb576f181899199a1a9b1b9c1cb0b131b232b360811b901a61099284866124e5565b53851c9180156109a65760001901906108dc565b601186634e487b7160e01b6000525260246000fd5b603287634e487b7160e01b6000525260246000fd5b603284634e487b7160e01b6000525260246000fd5b503461026157602090816003193601126102615735600081815260026020526040902054610a1d906001600160a01b0316151561292c565b80600052600e825260406000205490600d83526040600020600c845260406000205491600b8552610a76610a5f610a5960406000205493612024565b93611b5e565b60a0604051978897885287015260a08601906119bd565b604085019390935260608401526001600160a01b031660808301520390f35b3461026157602036600319011261026157610aae6119e2565b610ab6611c04565b6001600160a01b0316610aca811515612978565b60008181527f2a5d121539c48ff39f0a553a5a1d73646761bbbb6afabff42598210ffa2683fb60205260409020547f2fdac322ee704ce09f0773f7f3f92eb98d5e7c836ee9c056cccd5f61041e5e3f919060ff1615610b2557005b8160005260076020526040600020816000526020526040600020600160ff1982541617905533917f2f8788117e7eff1d82e926ec794901d17c78024a50270940304540a733656f0d600080a4005b5034610261576040366003190112610261573560243590610b92611c04565b600081815260026020526040902054610bb5906001600160a01b0316151561292c565b610bc0821515612609565b600052600c602052604060002055600080f35b3461026157604036600319011261026157610bec6119e2565b610bf46119f8565b9060018060a01b03809116600052600560205260406000209116600052602052602060ff604060002054166040519015158152f35b50346102615760403660031901126102615761032a9035610c486119f8565b90806000526007602052610c63600160406000200154611de0565b611eeb565b346102615760003660031901126102615760206040517f9f2df0fed2c77648de5860a4cc508cd0818c85b8b8a1ab4ceeef8d981c8956a68152f35b50346102615760203660031901126102615735600081815260026020526040902054610cd9906001600160a01b03161515611fd8565b6000526006602052610d14610cf16040600020611b5e565b6000604051610cff81611a0e565b526040519182916020835260208301906119bd565b0390f35b503461026157608036600319011261026157610d326119e2565b90610d3b6119f8565b916044356064359367ffffffffffffffff8511610261573660238601121561026157610d766107269486602461032a98369301359101611a9a565b92610d89610d84843361215a565b612085565b610d94838383612222565b61245e565b50346102615760203660031901126102615735600052600c6020526020604060002054604051908152f35b503461026157604036600319011261026157610dde6119e2565b60243590811515809203610261576001600160a01b031691338314610e535750336000526005602052604060002082600052602052604060002060ff1981541660ff83161790556040519081527f17307eab39ab6107e8899845ad3d59bd9653f200f220920489ca2b5937696c3160203392a3005b60649060206040519162461bcd60e51b8352820152601960248201527f4552433732313a20617070726f766520746f2063616c6c6572000000000000006044820152fd5b3461026157600036600319011261026157602060405160008152f35b50346102615760203660031901126102615735600052600d602052610d14610ede6040600020611b5e565b6040519182916020835260208301906119bd565b346102615760003660031901126102615760405160006001805490610f1682611b24565b80855291818116908115610f965750600114610f3d575b610d1484610ede81860382611a5c565b600081815292507fb10e2d527612073b26eecdfd717e6a320cf44b4afac2b0732d9fcbe2b7fa0cf65b828410610f7e575050508101602001610ede82610f2d565b80546020858701810191909152909301928101610f66565b60ff191660208087019190915292151560051b85019092019250610ede9150839050610f2d565b503461026157604036600319011261026157610fd76119f8565b9035600052600760205260406000209060018060a01b0316600052602052602060ff604060002054166040519015158152f35b50346102615760203660031901126102615735600052600b6020526020604060002054604051908152f35b346102615760003660031901126102615761104e611c04565b6110566126c2565b600160ff1960085416176008557f62e78cea01bee320cd4e420270b5ea74000d11b0c9f74754ebdbfc544b05a2586020604051338152a1005b346102615760003660031901126102615760206040517fa49807205ce4d355092ef5a8a18f56e8913cf4a201fbe287825b095693c217758152f35b346102615760203660031901126102615760206110ed6110e86119e2565b611f61565b604051908152f35b346102615760003660031901126102615760206040517f2fdac322ee704ce09f0773f7f3f92eb98d5e7c836ee9c056cccd5f61041e5e3f8152f35b50346102615760203660031901126102615761114e60209135612024565b6040516001600160a01b039091168152f35b3461026157600036600319011261026157602060ff600854166040519015158152f35b50346102615760208060031936011261026157600082600b93359182916111ad610d84843361215a565b6111b683612024565b506111bf6126c2565b6111c883612024565b838352908552604080832080546001600160a01b03199081169091556001600160a01b0390921680845260038752818420805485190190558484526002875290832080549092169091557fddf252ad1be2c89b69c2b068fc378daa952ba7f163c4a11628f55a4df523b3ef8280a460068252611248604060002054611b24565b611288575b80600052600e825260006040812055600d825261126d6040600020612a0b565b600052600c8152600060408120555260006040812055600080f35b806000526006825261129d6040600020612a0b565b61124d565b346102615761032a6107266112b636611aef565b90604051926112c484611a0e565b60008452610d89610d84843361215a565b503461026157602080600319360112610261576112f06119e2565b916112fa83611f61565b9161131d611307846129ce565b936113156040519586611a5c565b8085526129ce565b8382019490601f1901368637600a54600193600092855b83811061137857505050505060405192818401908285525180915260408401949160005b8281106113655785870386f35b8351875295810195928101928401611358565b6000818152600260205260409020549698959795966001600160a01b03161515806113f4575b6113b7575b6113ac906129e6565b979597969496611334565b9385518110156113df576113d781868a6113ac9460051b8a0101526129e6565b9490506113a3565b603283634e487b7160e01b6000525260246000fd5b506113fe81612024565b6001600160a01b0383811691161461139e565b50346102615760003660031901126102615761142b611c04565b6008549060ff82161561146c575060ff19166008557f5db9ee0a495bf2e6ff9c91a7834c1ba4fdd244a5e8aa4e537bd38aeae4b073aa6020604051338152a1005b60649060206040519162461bcd60e51b8352820152601460248201527314185d5cd8589b194e881b9bdd081c185d5cd95960621b6044820152fd5b5034610261576040366003190112610261576114c16119f8565b336001600160a01b038216036114db5761032a9135611eeb565b60405162461bcd60e51b8152602081840152602f60248201527f416363657373436f6e74726f6c3a2063616e206f6e6c792072656e6f756e636560448201526e103937b632b9903337b91039b2b63360891b6064820152608490fd5b503461026157604036600319011261026157356115526119f8565b81600052600760205261156c600160406000200154611de0565b81600052600760205260406000209060018060a01b0316908160005260205260ff6040600020541615610b2557005b5034610261576020366003190112610261573560005260076020526020600160406000200154604051908152f35b346102615761032a6115da36611aef565b91610325610d84843361215a565b50346102615760203660031901126102615735600052600e6020526020604060002054604051908152f35b503461026157604036600319011261026157803560243567ffffffffffffffff81116102615761032a9261164991369101611ad1565b90611652611c04565b600081815260026020526040902054611675906001600160a01b0316151561292c565b612752565b503461026157600036600319011261026157600a546000198101919082116116a757602082604051908152f35b601190634e487b7160e01b6000525260246000fd5b5034610261576040366003190112610261576116d66119e2565b602435916001600160a01b039081806116ee86612024565b169316928084146117ed578033149081156117c8575b501561175e57836000526020526040600020826bffffffffffffffffffffffff60a01b82541617905561173683612024565b167f8c5be1e5ebec7d5bd14f71427d1e84f3dd0314c0f7b2291e5b200ac8c7c3b925600080a4005b60849060206040519162461bcd60e51b8352820152603d60248201527f4552433732313a20617070726f76652063616c6c6572206973206e6f7420746f60448201527f6b656e206f776e6572206f7220617070726f76656420666f7220616c6c0000006064820152fd5b9050600052600560205260406000203360005260205260ff6040600020541638611704565b60405162461bcd60e51b8152602081840152602160248201527f4552433732313a20617070726f76616c20746f2063757272656e74206f776e656044820152603960f91b6064820152608490fd5b50346102615760203660031901126102615761114e60209135612047565b34610261576000366003190112610261576040516000805461187a81611b24565b80845290600190818116908115610f9657506001146118a357610d1484610ede81860382611a5c565b600080805292507f290decd9548b62a8d60345a988386fc84ba6bc95484008f6362f93160ef3e5635b8284106118e4575050508101602001610ede82610f2d565b805460208587018101919091529093019281016118cc565b823461026157602036600319011261026157359063ffffffff60e01b821680920361026157602091637965db0b60e01b811490811561193d575b5015158152f35b632483248360e11b811491508115611957575b5083611936565b6380ac58cd60e01b811491508115611989575b8115611978575b5083611950565b6301ffc9a760e01b14905083611971565b635b5e139f60e01b8114915061196a565b60005b8381106119ad5750506000910152565b818101518382015260200161199d565b906020916119d68151809281855285808601910161199a565b601f01601f1916010190565b600435906001600160a01b038216820361026157565b602435906001600160a01b038216820361026157565b6020810190811067ffffffffffffffff821117611a2a57604052565b634e487b7160e01b600052604160045260246000fd5b6080810190811067ffffffffffffffff821117611a2a57604052565b90601f8019910116810190811067ffffffffffffffff821117611a2a57604052565b67ffffffffffffffff8111611a2a57601f01601f191660200190565b929192611aa682611a7e565b91611ab46040519384611a5c565b829481845281830111610261578281602093846000960137010152565b9080601f8301121561026157816020611aec93359101611a9a565b90565b6060906003190112610261576001600160a01b0390600435828116810361026157916024359081168103610261579060443590565b90600182811c92168015611b54575b6020831014611b3e57565b634e487b7160e01b600052602260045260246000fd5b91607f1691611b33565b9060405191826000825492611b7284611b24565b908184526001948581169081600014611be15750600114611b9e575b5050611b9c92500383611a5c565b565b9093915060005260209081600020936000915b818310611bc9575050611b9c93508201013880611b8e565b85548884018501529485019487945091830191611bb1565b915050611b9c94506020925060ff191682840152151560051b8201013880611b8e565b3360009081527fa70365933f78520ef41d6645ba61e509916296603327302d41466c063e8e2608602090815260408083205490927fa49807205ce4d355092ef5a8a18f56e8913cf4a201fbe287825b095693c217759160ff1615611c685750505050565b611c713361250c565b91845190611c7e82611a40565b60428252848201926060368537825115611dcc5760308453825190600191821015611dcc5790607860218501536041915b818311611d5e57505050611d2e57604861041b938693611d1293611d03985198899376020b1b1b2b9b9a1b7b73a3937b61d1030b1b1b7bab73a1604d1b8a8601526103c7815180928c60378901910161199a565b01036028810187520185611a5c565b5192839262461bcd60e51b8452600484015260248301906119bd565b60648486519062461bcd60e51b82528060048301526024820152600080516020612a558339815191526044820152fd5b909192600f81166010811015611db8576f181899199a1a9b1b9c1cb0b131b232b360811b901a611d8e85876124e5565b5360041c928015611da457600019019190611caf565b634e487b7160e01b82526011600452602482fd5b634e487b7160e01b83526032600452602483fd5b634e487b7160e01b81526032600452602490fd5b60009080825260209060078252604092838120338252835260ff848220541615611e0a5750505050565b611e133361250c565b91845190611e2082611a40565b60428252848201926060368537825115611dcc5760308453825190600191821015611dcc5790607860218501536041915b818311611ea557505050611d2e57604861041b938693611d1293611d03985198899376020b1b1b2b9b9a1b7b73a3937b61d1030b1b1b7bab73a1604d1b8a8601526103c7815180928c60378901910161199a565b909192600f81166010811015611db8576f181899199a1a9b1b9c1cb0b131b232b360811b901a611ed585876124e5565b5360041c928015611da457600019019190611e51565b906000918083526007602052604083209160018060a01b03169182845260205260ff604084205416611f1c57505050565b8083526007602052604083208284526020526040832060ff1981541690557ff6391f5c32d9c69d2a47ea670b442974b53935d1edc7fd64eb21e047a839171b339380a4565b6001600160a01b03168015611f8157600052600360205260406000205490565b60405162461bcd60e51b815260206004820152602960248201527f4552433732313a2061646472657373207a65726f206973206e6f7420612076616044820152683634b21037bbb732b960b91b6064820152608490fd5b15611fdf57565b60405162461bcd60e51b815260206004820152601860248201527f4552433732313a20696e76616c696420746f6b656e20494400000000000000006044820152606490fd5b6000908152600260205260409020546001600160a01b0316611aec811515611fd8565b60008181526002602052604090205461206a906001600160a01b03161515611fd8565b6000908152600460205260409020546001600160a01b031690565b1561208c57565b60405162461bcd60e51b815260206004820152602d60248201527f4552433732313a2063616c6c6572206973206e6f7420746f6b656e206f776e6560448201526c1c881bdc88185c1c1c9bdd9959609a1b6064820152608490fd5b60809060208152603260208201527f4552433732313a207472616e7366657220746f206e6f6e20455243373231526560408201527131b2b4bb32b91034b6b83632b6b2b73a32b960711b60608201520190565b1561214157565b60405162461bcd60e51b81528061041b600482016120e7565b906001600160a01b03808061216e84612024565b169316918383149384156121a1575b50831561218b575b50505090565b61219791929350612047565b1614388080612185565b909350600052600560205260406000208260005260205260ff60406000205416923861217d565b156121cf57565b60405162461bcd60e51b815260206004820152602560248201527f4552433732313a207472616e736665722066726f6d20696e636f72726563742060448201526437bbb732b960d91b6064820152608490fd5b9061224a9161223084612024565b6001600160a01b03939184169284929091831684146121c8565b169182156122ef578161226f9161225f6126c2565b61226886612024565b16146121c8565b7fddf252ad1be2c89b69c2b068fc378daa952ba7f163c4a11628f55a4df523b3ef60008481526004602052604081206bffffffffffffffffffffffff60a01b9081815416905583825260036020526040822060001981540190558482526040822060018154019055858252600260205284604083209182541617905580a4565b60405162461bcd60e51b8152602060048201526024808201527f4552433732313a207472616e7366657220746f20746865207a65726f206164646044820152637265737360e01b6064820152608490fd5b91929091803b156124555761238d936040519081630a85bd0160e11b9384825233600483015260009687602484015260448301526080606483015281878160209a8b9660848301906119bd565b03926001600160a01b03165af1849181612411575b50612400575050503d6000146123f8573d6123bc81611a7e565b906123ca6040519283611a5c565b81528091833d92013e5b805191826123f55760405162461bcd60e51b81528061041b600482016120e7565b01fd5b5060606123d4565b6001600160e01b0319161492509050565b9091508581813d831161244e575b6124298183611a5c565b8101031261244a57516001600160e01b03198116810361244a5790386123a2565b8480fd5b503d61241f565b50915050600190565b92939190803b156124db576124b0946040518092630a85bd0160e11b9485835233600484015260018060a01b03809816602484015260448301526080606483015281806020998a9560848301906119bd565b03916000988991165af18491816124115750612400575050503d6000146123f8573d6123bc81611a7e565b5050915050600190565b9081518110156124f6570160200190565b634e487b7160e01b600052603260045260246000fd5b604051906060820182811067ffffffffffffffff821117611a2a57604052602a82526020820160403682378251156124f6576030905381516001908110156124f657607860218401536029905b80821161259b5750506125695790565b606460405162461bcd60e51b81526020600482015260206024820152600080516020612a558339815191526044820152fd5b9091600f811660108110156125f4576f181899199a1a9b1b9c1cb0b131b232b360811b901a6125ca84866124e5565b5360041c9180156125df576000190190612559565b60246000634e487b7160e01b81526011600452fd5b60246000634e487b7160e01b81526032600452fd5b1561261057565b60405162461bcd60e51b815260206004820152602260248201527f506c656467654e46543a20696e76616c6964206170707261697365642076616c604482015261756560f01b6064820152608490fd5b1561266757565b606460405162461bcd60e51b815260206004820152602060248201527f506c656467654e46543a20696e76616c696420646f63756d656e7420686173686044820152fd5b8181106126b6575050565b600081556001016126ab565b60ff600854166126ce57565b60405162461bcd60e51b815260206004820152601060248201526f14185d5cd8589b194e881c185d5cd95960821b6044820152606490fd5b1561270d57565b60405162461bcd60e51b815260206004820152601c60248201527f4552433732313a20746f6b656e20616c7265616479206d696e746564000000006044820152606490fd5b6000818152600260205260409020549192916001600160a01b0316156128d05760009080825260209160068352604081209085519067ffffffffffffffff82116128bc576127a08354611b24565b601f811161288e575b508490601f831160011461280a57907ff8e1a15aba9398e019f0b49df1a4fde98ee17ae345cb5f6b5e2c27f5033e8ce79697836127ff575b50508160011b916000199060031b1c19161790555b604051908152a1565b0151905038806127e1565b9196601f198816848452868420935b81811061287757509160019391897ff8e1a15aba9398e019f0b49df1a4fde98ee17ae345cb5f6b5e2c27f5033e8ce7999a941061285e575b505050811b0190556127f6565b015160001960f88460031b161c19169055388080612851565b929387600181928786015181550195019301612819565b6128b690848352868320601f850160051c81019188861061083257601f0160051c01906126ab565b386127a9565b634e487b7160e01b81526041600452602490fd5b60405162461bcd60e51b815260206004820152602e60248201527f45524337323155524953746f726167653a2055524920736574206f66206e6f6e60448201526d32bc34b9ba32b73a103a37b5b2b760911b6064820152608490fd5b1561293357565b60405162461bcd60e51b815260206004820152601c60248201527f506c656467654e46543a206e6f6e6578697374656e7420746f6b656e000000006044820152606490fd5b1561297f57565b60405162461bcd60e51b815260206004820152602160248201527f506c656467654e46543a20696e76616c696420657363726f77206164647265736044820152607360f81b6064820152608490fd5b67ffffffffffffffff8111611a2a5760051b60200190565b60001981146129f55760010190565b634e487b7160e01b600052601160045260246000fd5b612a158154611b24565b9081612a1f575050565b81601f60009311600114612a31575055565b908083918252612a50601f60208420940160051c8401600185016126ab565b555556fe537472696e67733a20686578206c656e67746820696e73756666696369656e74a2646970667358221220f67c5b5598a165a1c74c1d78cf524b2770593d9661161526680046014d23e11c64736f6c634300081400332f8788117e7eff1d82e926ec794901d17c78024a50270940304540a733656f0d",
  "linkReferences": {},
  "deployedLinkReferences": {}
}