{
  "_format": "hh-sol-artifact-1",
  "contractName": "RealEstateToken",
  "sourceName": "contracts/RealEstateToken.sol",
  "abi": [
    {
      "inputs": [
        {
          "internalType": "address",
          "name": "admin",
          "type": "address"
        }
      ],
      "stateMutability": "nonpayable",
      "type": "constructor"
    },
    {
      "inputs": [
        {
          "internalType": "uint256",
          "name": "assetId",
          "type": "uint256"
        }
      ],
      "name": "AssetNotExists",
      "type": "error"
    },
    {
      "inputs": [
        {
          "internalType": "address",
          "name": "account",
          "type": "address"
        }
      ],
      "name": "BlacklistedAddress",
      "type": "error"
    },
    {
      "inputs": [
        {
          "internalType": "uint256",
          "name": "requested",
          "type": "uint256"
        },
        {
          "internalType": "uint256",
          "name": "maxSupply",
          "type": "uint256"
        }
      ],
      "name": "ExceedsMaxSupply",
      "type": "error"
    },
    {
      "inputs": [
        {
          "internalType": "uint256",
          "name": "requested",
          "type": "uint256"
        },
        {
          "internalType": "uint256",
          "name": "available",
          "type": "uint256"
        }
      ],
      "name": "InsufficientAllowance",
      "type": "error"
    },
    {
      "inputs": [
        {
          "internalType": "uint256",
          "name": "value",
          "type": "uint256"
        }
      ],
      "name": "InvalidAppraisalValue",
      "type": "error"
    },
    {
      "inputs": [],
      "name": "InvalidShortString",
      "type": "error"
    },
    {
      "inputs": [
        {
          "internalType": "string",
          "name": "str",
          "type": "string"
        }
      ],
      "name": "StringTooLong",
      "type": "error"
    },
    {
      "inputs": [
        {
          "internalType": "address",
          "name": "from",
          "type": "address"
        },
        {
          "internalType": "address",
          "name": "to",
          "type": "address"
        }
      ],
      "name": "UnauthorizedTransfer",
      "type": "error"
    },
    {
      "anonymous": false,
      "inputs": [
        {
          "indexed": true,
          "internalType": "address",
          "name": "owner",
          "type": "address"
        },
        {
          "indexed": true,
          "internalType": "address",
          "name": "spender",
          "type": "address"
        },
        {
          "indexed": false,
          "internalType": "uint256",
          "name": "value",
          "type": "uint256"
        }
      ],
      "name": "Approval",
      "type": "event"
    },
    {
      "anonymous": false,
      "inputs": [
        {
          "indexed": true,
          "internalType": "uint256",
          "name": "assetId",
          "type": "uint256"
        },
        {
          "indexed": false,
          "internalType": "string",
          "name": "field",
          "type": "string"
        },
        {
          "indexed": false,
          "internalType": "string",
          "name": "newValue",
          "type": "string"
        }
      ],
      "name": "AssetMetadataUpdated",
      "type": "event"
    },
    {
      "anonymous": false,
      "inputs": [
        {
          "indexed": true,
          "internalType": "uint256",
          "name": "assetId",
          "type": "uint256"
        },
        {
          "indexed": true,
          "internalType": "address",
          "name": "owner",
          "type": "address"
        },
        {
          "indexed": false,
          "internalType": "uint256",
          "name": "amount",
          "type": "uint256"
        },
        {
          "indexed": false,
          "internalType": "string",
          "name": "assetType",
          "type": "string"
        },
        {
          "indexed": false,
          "internalType": "uint256",
          "name": "appraisedValue",
          "type": "uint256"
        }
      ],
      "name": "AssetTokenized",
      "type": "event"
    },
    {
      "anonymous": false,
      "inputs": [
        {
          "indexed": true,
          "internalType": "address",
          "name": "account",
          "type": "address"
        },
        {
          "indexed": false,
          "internalType": "bool",
          "name": "blacklisted",
          "type": "bool"
        }
      ],
      "name": "ComplianceStatusChanged",
      "type": "event"
    },
    {
      "anonymous": false,
      "inputs": [],
      "name": "EIP712DomainChanged",
      "type": "event"
    },
    {
      "anonymous": false,
      "inputs": [
        {
          "indexed": false,
          "internalType": "address",
          "name": "account",
          "type": "address"
        }
      ],
      "name": "Paused",
      "type": "event"
    },
    {
      "anonymous": false,
      "inputs": [
        {
          "indexed": true,
          "internalType": "uint256",
          "name": "assetId",
          "type": "uint256"
        },
        {
          "indexed": false,
          "internalType": "string",
          "name": "propertyType",
          "type": "string"
        },
        {
          "indexed": false,
          "internalType": "uint256",
          "name": "squareFootage",
          "type": "uint256"
        },
        {
          "indexed": false,
          "internalType": "uint256",
          "name": "yearBuilt",
          "type": "uint256"
        }
      ],
      "name": "RealEstateTokenized",
      "type": "event"
    },
    {
      "anonymous": false,
      "inputs": [
        {
          "indexed": true,
          "internalType": "bytes32",
          "name": "role",
          "type": "bytes32"
        },
        {
          "indexed": true,
          "internalType": "bytes32",
          "name": "previousAdminRole",
          "type": "bytes32"
        },
        {
          "indexed": true,
          "internalType": "bytes32",
          "name": "newAdminRole",
          "type": "bytes32"
        }
      ],
      "name": "RoleAdminChanged",
      "type": "event"
    },
    {
      "anonymous": false,
      "inputs": [
        {
          "indexed": true,
          "internalType": "bytes32",
          "name": "role",
          "type": "bytes32"
        },
        {
          "indexed": true,
          "internalType": "address",
          "name": "account",
          "type": "address"
        },
        {
          "indexed": true,
          "internalType": "address",
          "name": "sender",
          "type": "address"
        }
      ],
      "name": "RoleGranted",
      "type": "event"
    },
    {
      "anonymous": false,
      "inputs": [
        {
          "indexed": true,
          "internalType": "bytes32",
          "name": "role",
          "type": "bytes32"
        },
        {
          "indexed": true,
          "internalType": "address",
          "name": "account",
          "type": "address"
        },
        {
          "indexed": true,
          "internalType": "address",
          "name": "sender",
          "type": "address"
        }
      ],
      "name": "RoleRevoked",
      "type": "event"
    },
    {
      "anonymous": false,
      "inputs": [
        {
          "indexed": false,
          "internalType": "uint256",
          "name": "oldCap",
          "type": "uint256"
        },
        {
          "indexed": false,
          "internalType": "uint256",
          "name": "newCap",
          "type": "uint256"
        }
      ],
      "name": "SupplyCapUpdated",
      "type": "event"
    },
    {
      "anonymous": false,
      "inputs": [
        {
          "indexed": true,
          "internalType": "address",
          "name": "from",
          "type": "address"
        },
        {
          "indexed": true,
          "internalType": "address",
          "name": "to",
          "type": "address"
        },
        {
          "indexed": false,
          "internalType": "uint256",
          "name": "value",
          "type": "uint256"
        }
      ],
      "name": "Transfer",
      "type": "event"
    },
    {
      "anonymous": false,
      "inputs": [
        {
          "indexed": false,
          "internalType": "address",
          "name": "account",
          "type": "address"
        }
      ],
      "name": "Unpaused",
      "type": "event"
    },
    {
      "inputs": [],
      "name": "COMPLIANCE_ROLE",
      "outputs": [
        {
          "internalType": "bytes32",
          "name": "",
          "type": "bytes32"
        }
      ],
      "stateMutability": "view",
      "type": "function"
    },
    {
      "inputs": [],
      "name": "DEFAULT_ADMIN_ROLE",
      "outputs": [
        {
          "internalType": "bytes32",
          "name": "",
          "type": "bytes32"
        }
      ],
      "stateMutability": "view",
      "type": "function"
    },
    {
      "inputs": [],
      "name": "DOMAIN_SEPARATOR",
      "outputs": [
        {
          "internalType": "bytes32",
          "name": "",
          "type": "bytes32"
        }
      ],
      "stateMutability": "view",
      "type": "function"
    },
    {
      "inputs": [],
      "name": "MINTER_ROLE",
      "outputs": [
        {
          "internalType": "bytes32",
          "name": "",
          "type": "bytes32"
        }
      ],
      "stateMutability": "view",
      "type": "function"
    },
    {
      "inputs": [],
      "name": "PAUSER_ROLE",
      "outputs": [
        {
          "internalType": "bytes32",
          "name": "",
          "type": "bytes32"
        }
      ],
      "stateMutability": "view",
      "type": "function"
    },
    {
      "inputs": [
        {
          "internalType": "address",
          "name": "owner",
          "type": "address"
        },
        {
          "internalType": "address",
          "name": "spender",
          "type": "address"
        }
      ],
      "name": "allowance",
      "outputs": [
        {
          "internalType": "uint256",
          "name": "",
          "type": "uint256"
        }
      ],
      "stateMutability": "view",
      "type": "function"
    },
    {
      "inputs": [
        {
          "internalType": "address",
          "name": "spender",
          "type": "address"
        },
        {
          "internalType": "uint256",
          "name": "amount",
          "type": "uint256"
        }
      ],
      "name": "approve",
      "outputs": [
        {
          "internalType": "bool",
          "name": "",
          "type": "bool"
        }
      ],
      "stateMutability": "nonpayable",
      "type": "function"
    },
    {
      "inputs": [
        {
          "internalType": "uint256",
          "name": "",
          "type": "uint256"
        }
      ],
      "name": "assets",
      "outputs": [
        {
          "internalType": "string",
          "name": "assetType",
          "type": "string"
        },
        {
          "internalType": "string",
          "name": "description",
          "type": "string"
        },
        {
          "internalType": "string",
          "name": "location",
          "type": "string"
        },
        {
          "internalType": "uint256",
          "name": "appraisedValue",
          "type": "uint256"
        },
        {
          "internalType": "uint256",
          "name": "appraisalDate",
          "type": "uint256"
        },
        {
          "internalType": "string",
          "name": "appraisalCompany",
          "type": "string"
        },
        {
          "internalType": "string",
          "name": "documentHash",
          "type": "string"
        },
        {
          "internalType": "bool",
          "name": "isVerified",
          "type": "bool"
        },
        {
          "internalType": "uint256",
          "name": "createdAt",
          "type": "uint256"
        }
      ],
      "stateMutability": "view",
      "type": "function"
    },
    {
      "inputs": [
        {
          "internalType": "address",
          "name": "account",
          "type": "address"
        }
      ],
      "name": "balanceOf",
      "outputs": [
        {
          "internalType": "uint256",
          "name": "",
          "type": "uint256"
        }
      ],
      "stateMutability": "view",
      "type": "function"
    },
    {
      "inputs": [
        {
          "internalType": "address",
          "name": "",
          "type": "address"
        }
      ],
      "name": "blacklistedAddresses",
      "outputs": [
        {
          "internalType": "bool",
          "name": "",
          "type": "bool"
        }
      ],
      "stateMutability": "view",
      "type": "function"
    },
    {
      "inputs": [
        {
          "internalType": "address",
          "name": "from",
          "type": "address"
        },
        {
          "internalType": "uint256",
          "name": "amount",
          "type": "uint256"
        }
      ],
      "name": "burnFrom",
      "outputs": [],
      "stateMutability": "nonpayable",
      "type": "function"
    },
    {
      "inputs": [],
      "name": "complianceEnabled",
      "outputs": [
        {
          "internalType": "bool",
          "name": "",
          "type": "bool"
        }
      ],
      "stateMutability": "view",
      "type": "function"
    },
    {
      "inputs": [],
      "name": "decimals",
      "outputs": [
        {
          "internalType": "uint8",
          "name": "",
          "type": "uint8"
        }
      ],
      "stateMutability": "view",
      "type": "function"
    },
    {
      "inputs": [
        {
          "internalType": "address",
          "name": "spender",
          "type": "address"
        },
        {
          "internalType": "uint256",
          "name": "subtractedValue",
          "type": "uint256"
        }
      ],
      "name": "decreaseAllowance",
      "outputs": [
        {
          "internalType": "bool",
          "name": "",
          "type": "bool"
        }
      ],
      "stateMutability": "nonpayable",
      "type": "function"
    },
    {
      "inputs": [],
      "name": "eip712Domain",
      "outputs": [
        {
          "internalType": "bytes1",
          "name": "fields",
          "type": "bytes1"
        },
        {
          "internalType": "string",
          "name": "name",
          "type": "string"
        },
        {
          "internalType": "string",
          "name": "version",
          "type": "string"
        },
        {
          "internalType": "uint256",
          "name": "chainId",
          "type": "uint256"
        },
        {
          "internalType": "address",
          "name": "verifyingContract",
          "type": "address"
        },
        {
          "internalType": "bytes32",
          "name": "salt",
          "type": "bytes32"
        },
        {
          "internalType": "uint256[]",
          "name": "extensions",
          "type": "uint256[]"
        }
      ],
      "stateMutability": "view",
      "type": "function"
    },
    {
      "inputs": [
        {
          "internalType": "uint256",
          "name": "assetId",
          "type": "uint256"
        }
      ],
      "name": "getAssetMetadata",
      "outputs": [
        {
          "components": [
            {
              "internalType": "string",
              "name": "assetType",
              "type": "string"
            },
            {
              "internalType": "string",
              "name": "description",
              "type": "string"
            },
            {
              "internalType": "string",
              "name": "location",
              "type": "string"
            },
            {
              "internalType": "uint256",
              "name": "appraisedValue",
              "type": "uint256"
            },
            {
              "internalType": "uint256",
              "name": "appraisalDate",
              "type": "uint256"
            },
            {
              "internalType": "string",
              "name": "appraisalCompany",
              "type": "string"
            },
            {
              "internalType": "string",
              "name": "documentHash",
              "type": "string"
            },
            {
              "internalType": "bool",
              "name": "isVerified",
              "type": "bool"
            },
            {
              "internalType": "uint256",
              "name": "createdAt",
              "type": "uint256"
            }
          ],
          "internalType": "struct IAssetMetadata.AssetMetadata",
          "name": "",
          "type": "tuple"
        }
      ],
      "stateMutability": "view",
      "type": "function"
    },
    {
      "inputs": [],
      "name": "getCurrentAssetId",
      "outputs": [
        {
          "internalType": "uint256",
          "name": "",
          "type": "uint256"
        }
      ],
      "stateMutability": "view",
      "type": "function"
    },
    {
      "inputs": [
        {
          "internalType": "address",
          "name": "owner",
          "type": "address"
        }
      ],
      "name": "getOwnerAssets",
      "outputs": [
        {
          "internalType": "uint256[]",
          "name": "",
          "type": "uint256[]"
        }
      ],
      "stateMutability": "view",
      "type": "function"
    },
    {
      "inputs": [
        {
          "internalType": "uint256",
          "name": "assetId",
          "type": "uint256"
        }
      ],
      "name": "getRealEstateData",
      "outputs": [
        {
          "components": [
            {
              "internalType": "string",
              "name": "propertyType",
              "type": "string"
            },
            {
              "internalType": "uint256",
              "name": "squareFootage",
              "type": "uint256"
            },
            {
              "internalType": "uint256",
              "name": "yearBuilt",
              "type": "uint256"
            },
            {
              "internalType": "string",
              "name": "zoning",
              "type": "string"
            },
            {
              "internalType": "bool",
              "name": "hasRentalIncome",
              "type": "bool"
            },
            {
              "internalType": "uint256",
              "name": "monthlyRent",
              "type": "uint256"
            },
            {
              "internalType": "string",
              "name": "legalDescription",
              "type": "string"
            }
          ],
          "internalType": "struct RealEstateToken.RealEstateData",
          "name": "",
          "type": "tuple"
        }
      ],
      "stateMutability": "view",
      "type": "function"
    },
    {
      "inputs": [
        {
          "internalType": "bytes32",
          "name": "role",
          "type": "bytes32"
        }
      ],
      "name": "getRoleAdmin",
      "outputs": [
        {
          "internalType": "bytes32",
          "name": "",
          "type": "bytes32"
        }
      ],
      "stateMutability": "view",
      "type": "function"
    },
    {
      "inputs": [
        {
          "internalType": "bytes32",
          "name": "role",
          "type": "bytes32"
        },
        {
          "internalType": "address",
          "name": "account",
          "type": "address"
        }
      ],
      "name": "grantRole",
      "outputs": [],
      "stateMutability": "nonpayable",
      "type": "function"
    },
    {
      "inputs": [
        {
          "internalType": "bytes32",
          "name": "role",
          "type": "bytes32"
        },
        {
          "internalType": "address",
          "name": "account",
          "type": "address"
        }
      ],
      "name": "hasRole",
      "outputs": [
        {
          "internalType": "bool",
          "name": "",
          "type": "bool"
        }
      ],
      "stateMutability": "view",
      "type": "function"
    },
    {
      "inputs": [
        {
          "internalType": "address",
          "name": "spender",
          "type": "address"
        },
        {
          "internalType": "uint256",
          "name": "addedValue",
          "type": "uint256"
        }
      ],
      "name": "increaseAllowance",
      "outputs": [
        {
          "internalType": "bool",
          "name": "",
          "type": "bool"
        }
      ],
      "stateMutability": "nonpayable",
      "type": "function"
    },
    {
      "inputs": [],
      "name": "maxSupply",
      "outputs": [
        {
          "internalType": "uint256",
          "name": "",
          "type": "uint256"
        }
      ],
      "stateMutability": "view",
      "type": "function"
    },
    {
      "inputs": [
        {
          "internalType": "address",
          "name": "to",
          "type": "address"
        },
        {
          "internalType": "uint256",
          "name": "amount",
          "type": "uint256"
        }
      ],
      "name": "mint",
      "outputs": [],
      "stateMutability": "nonpayable",
      "type": "function"
    },
    {
      "inputs": [
        {
          "internalType": "address",
          "name": "to",
          "type": "address"
        },
        {
          "internalType": "uint256",
          "name": "amount",
          "type": "uint256"
        },
        {
          "internalType": "string",
          "name": "assetType",
          "type": "string"
        },
        {
          "internalType": "string",
          "name": "description",
          "type": "string"
        },
        {
          "internalType": "string",
          "name": "location",
          "type": "string"
        },
        {
          "internalType": "uint256",
          "name": "appraisedValue",
          "type": "uint256"
        },
        {
          "internalType": "string",
          "name": "appraisalCompany",
          "type": "string"
        },
        {
          "internalType": "string",
          "name": "documentHash",
          "type": "string"
        }
      ],
      "name": "mintAsset",
      "outputs": [
        {
          "internalType": "uint256",
          "name": "",
          "type": "uint256"
        }
      ],
      "stateMutability": "nonpayable",
      "type": "function"
    },
    {
      "inputs": [
        {
          "internalType": "address",
          "name": "to",
          "type": "address"
        },
        {
          "internalType": "uint256",
          "name": "amount",
          "type": "uint256"
        },
        {
          "internalType": "string",
          "name": "description",
          "type": "string"
        },
        {
          "internalType": "string",
          "name": "location",
          "type": "string"
        },
        {
          "internalType": "uint256",
          "name": "appraisedValue",
          "type": "uint256"
        },
        {
          "internalType": "string",
          "name": "appraisalCompany",
          "type": "string"
        },
        {
          "internalType": "string",
          "name": "documentHash",
          "type": "string"
        },
        {
          "internalType": "string",
          "name": "propertyType",
          "type": "string"
        },
        {
          "internalType": "uint256",
          "name": "squareFootage",
          "type": "uint256"
        },
        {
          "internalType": "uint256",
          "name": "yearBuilt",
          "type": "uint256"
        },
        {
          "internalType": "string",
          "name": "zoning",
          "type": "string"
        },
        {
          "internalType": "bool",
          "name": "hasRentalIncome",
          "type": "bool"
        },
        {
          "internalType": "uint256",
          "name": "monthlyRent",
          "type": "uint256"
        },
        {
          "internalType": "string",
          "name": "legalDescription",
          "type": "string"
        }
      ],
      "name": "mintRealEstate",
      "outputs": [
        {
          "internalType": "uint256",
          "name": "",
          "type": "uint256"
        }
      ],
      "stateMutability": "nonpayable",
      "type": "function"
    },
    {
      "inputs": [],
      "name": "name",
      "outputs": [
        {
          "internalType": "string",
          "name": "",
          "type": "string"
        }
      ],
      "stateMutability": "view",
      "type": "function"
    },
    {
      "inputs": [
        {
          "internalType": "address",
          "name": "owner",
          "type": "address"
        }
      ],
      "name": "nonces",
      "outputs": [
        {
          "internalType": "uint256",
          "name": "",
          "type": "uint256"
        }
      ],
      "stateMutability": "view",
      "type": "function"
    },
    {
      "inputs": [
        {
          "internalType": "address",
          "name": "",
          "type": "address"
        },
        {
          "internalType": "uint256",
          "name": "",
          "type": "uint256"
        }
      ],
      "name": "ownerAssets",
      "outputs": [
        {
          "internalType": "uint256",
          "name": "",
          "type": "uint256"
        }
      ],
      "stateMutability": "view",
      "type": "function"
    },
    {
      "inputs": [],
      "name": "pause",
      "outputs": [],
      "stateMutability": "nonpayable",
      "type": "function"
    },
    {
      "inputs": [],
      "name": "paused",
      "outputs": [
        {
          "internalType": "bool",
          "name": "",
          "type": "bool"
        }
      ],
      "stateMutability": "view",
      "type": "function"
    },
    {
      "inputs": [
        {
          "internalType": "address",
          "name": "owner",
          "type": "address"
        },
        {
          "internalType": "address",
          "name": "spender",
          "type": "address"
        },
        {
          "internalType": "uint256",
          "name": "value",
          "type": "uint256"
        },
        {
          "internalType": "uint256",
          "name": "deadline",
          "type": "uint256"
        },
        {
          "internalType": "uint8",
          "name": "v",
          "type": "uint8"
        },
        {
          "internalType": "bytes32",
          "name": "r",
          "type": "bytes32"
        },
        {
          "internalType": "bytes32",
          "name": "s",
          "type": "bytes32"
        }
      ],
      "name": "permit",
      "outputs": [],
      "stateMutability": "nonpayable",
      "type": "function"
    },
    {
      "inputs": [
        {
          "internalType": "uint256",
          "name": "",
          "type": "uint256"
        }
      ],
      "name": "realEstateData",
      "outputs": [
        {
          "internalType": "string",
          "name": "propertyType",
          "type": "string"
        },
        {
          "internalType": "uint256",
          "name": "squareFootage",
          "type": "uint256"
        },
        {
          "internalType": "uint256",
          "name": "yearBuilt",
          "type": "uint256"
        },
        {
          "internalType": "string",
          "name": "zoning",
          "type": "string"
        },
        {
          "internalType": "bool",
          "name": "hasRentalIncome",
          "type": "bool"
        },
        {
          "internalType": "uint256",
          "name": "monthlyRent",
          "type": "uint256"
        },
        {
          "internalType": "string",
          "name": "legalDescription",
          "type": "string"
        }
      ],
      "stateMutability": "view",
      "type": "function"
    },
    {
      "inputs": [
        {
          "internalType": "bytes32",
          "name": "role",
          "type": "bytes32"
        },
        {
          "internalType": "address",
          "name": "account",
          "type": "address"
        }
      ],
      "name": "renounceRole",
      "outputs": [],
      "stateMutability": "nonpayable",
      "type": "function"
    },
    {
      "inputs": [
        {
          "internalType": "bytes32",
          "name": "role",
          "type": "bytes32"
        },
        {
          "internalType": "address",
          "name": "account",
          "type": "address"
        }
      ],
      "name": "revokeRole",
      "outputs": [],
      "stateMutability": "nonpayable",
      "type": "function"
    },
    {
      "inputs": [
        {
          "internalType": "address",
          "name": "account",
          "type": "address"
        },
        {
          "internalType": "bool",
          "name": "blacklisted",
          "type": "bool"
        }
      ],
      "name": "setBlacklisted",
      "outputs": [],
      "stateMutability": "nonpayable",
      "type": "function"
    },
    {
      "inputs": [
        {
          "internalType": "bool",
          "name": "enabled",
          "type": "bool"
        }
      ],
      "name": "setComplianceEnabled",
      "outputs": [],
      "stateMutability": "nonpayable",
      "type": "function"
    },
    {
      "inputs": [
        {
          "internalType": "address",
          "name": "account",
          "type": "address"
        },
        {
          "internalType": "bool",
          "name": "whitelisted",
          "type": "bool"
        }
      ],
      "name": "setWhitelisted",
      "outputs": [],
      "stateMutability": "nonpayable",
      "type": "function"
    },
    {
      "inputs": [
        {
          "internalType": "bytes4",
          "name": "interfaceId",
          "type": "bytes4"
        }
      ],
      "name": "supportsInterface",
      "outputs": [
        {
          "internalType": "bool",
          "name": "",
          "type": "bool"
        }
      ],
      "stateMutability": "view",
      "type": "function"
    },
    {
      "inputs": [],
      "name": "symbol",
      "outputs": [
        {
          "internalType": "string",
          "name": "",
          "type": "string"
        }
      ],
      "stateMutability": "view",
      "type": "function"
    },
    {
      "inputs": [],
      "name": "totalSupply",
      "outputs": [
        {
          "internalType": "uint256",
          "name": "",
          "type": "uint256"
        }
      ],
      "stateMutability": "view",
      "type": "function"
    },
    {
      "inputs": [
        {
          "internalType": "address",
          "name": "to",
          "type": "address"
        },
        {
          "internalType": "uint256",
          "name": "amount",
          "type": "uint256"
        }
      ],
      "name": "transfer",
      "outputs": [
        {
          "internalType": "bool",
          "name": "",
          "type": "bool"
        }
      ],
      "stateMutability": "nonpayable",
      "type": "function"
    },
    {
      "inputs": [
        {
          "internalType": "address",
          "name": "from",
          "type": "address"
        },
        {
          "internalType": "address",
          "name": "to",
          "type": "address"
        },
        {
          "internalType": "uint256",
          "name": "amount",
          "type": "uint256"
        }
      ],
      "name": "transferFrom",
      "outputs": [
        {
          "internalType": "bool",
          "name": "",
          "type": "bool"
        }
      ],
      "stateMutability": "nonpayable",
      "type": "function"
    },
    {
      "inputs": [],
      "name": "unpause",
      "outputs": [],
      "stateMutability": "nonpayable",
      "type": "function"
    },
    {
      "inputs": [
        {
          "internalType": "uint256",
          "name": "assetId",
          "type": "uint256"
        },
        {
          "internalType": "uint256",
          "name": "newValue",
          "type": "uint256"
        },
        {
          "internalType": "string",
          "name": "newAppraisalCompany",
          "type": "string"
        }
      ],
      "name": "updateAppraisedValue",
      "outputs": [],
      "stateMutability": "nonpayable",
      "type": "function"
    },
    {
      "inputs": [
        {
          "internalType": "uint256",
          "name": "assetId",
          "type": "uint256"
        },
        {
          "internalType": "string",
          "name": "field",
          "type": "string"
        },
        {
          "internalType": "string",
          "name": "newValue",
          "type": "string"
        }
      ],
      "name": "updateAssetMetadata",
      "outputs": [],
      "stateMutability": "nonpayable",
      "type": "function"
    },
    {
      "inputs": [
        {
          "internalType": "uint256",
          "name": "newMaxSupply",
          "type": "uint256"
        }
      ],
      "name": "updateMaxSupply",
      "outputs": [],
      "stateMutability": "nonpayable",
      "type": "function"
    },
    {
      "inputs": [
        {
          "internalType": "uint256",
          "name": "assetId",
          "type": "uint256"
        },
        {
          "internalType": "bool",
          "name": "hasRentalIncome",
          "type": "bool"
        },
        {
          "internalType": "uint256",
          "name": "monthlyRent",
          "type": "uint256"
        }
      ],
      "name": "updateRentalIncome",
      "outputs": [],
      "stateMutability": "nonpayable",
      "type": "function"
    },
    {
      "inputs": [
        {
          "internalType": "uint256",
          "name": "assetId",
          "type": "uint256"
        }
      ],
      "name": "verifyAsset",
      "outputs": [],
      "stateMutability": "nonpayable",
      "type": "function"
    },
    {
      "inputs": [
        {
          "internalType": "address",
          "name": "",
          "type": "address"
        }
      ],
      "name": "whitelistedAddresses",
      "outputs": [
        {
          "internalType": "bool",
          "name": "",
          "type": "bool"
        }
      ],
      "stateMutability": "view",
      "type": "function"
    }
  ],
  "bytecode": "0x610160346200078057601f62005d1538819003918201601f19168301916001600160401b0383118484101762000560578084926020946040528339810103126200078057516001600160a01b03811681036200078057604051620000638162000785565b60118152702932b0b61022b9ba30ba32902a37b5b2b760791b602082015260405191620000908362000785565b600383526214915560ea1b602084015260405191620000af8362000785565b60018352603160f81b602084015280516001600160401b0381116200056057600354600181811c9116801562000775575b60208210146200065557601f81116200070b575b50806020601f8211600114620006825760009162000676575b508160011b916000199060031b1c1916176003555b83516001600160401b0381116200056057600454600181811c911680156200066b575b60208210146200065557601f8111620005ef575b50602094601f8211600114620005825794819293949560009262000576575b50508160011b916000199060031b1c1916176004555b6200019981620007a1565b91610120928352620001ab8462000965565b9161014092835260208151910120938460e05260208151910120610100948186524660a0526040519160208301917f8b73c3c69bb8fe3d512ecc4cf759cc79239f7b179b0ffacaa9a75d522b39400f8352604084015260608301524660808301523060a083015260a0825260c082019082821060018060401b03831117620005605781604052825190206080523060c05260ff199182600954166009556001600b55600183601054161760105560018060a01b038416156200051c5750506001600160a01b03821660009081527f13da86008ba1c6922daee3e07db95305ef49ebced9f5467a0b8613fcc6b343e36020526040902054600a919060ff1615620004d8575b7f9f2df0fed2c77648de5860a4cc508cd0818c85b8b8a1ab4ceeef8d981c8956a66000818152602084815260408083206001600160a01b038816845290915290205460ff161562000491575b507f65d7a28e3265b37a6474929f336521b332c1681b933f6cb9f3376673440d862a6000818152602084815260408083206001600160a01b038816845290915290205460ff16156200044a575b507f442a94f1a1fac79af32856af2a64f63648cfa2ef3b98610a5bb7cbec4cee6985918260005280602052604060002060018060a01b03851660005260205260ff6040600020541615620003f8575b5050505069d3c21bcecceda10000006012556001601155604051916151d7938462000b1e853960805184614ac9015260a05184614b94015260c05184614a93015260e05184614b1801525183614b3e015251826127b0015251816127d90152f35b82600052602052604060002060018060a01b0384166000526020526001604060002091825416179055339160018060a01b03169060008051602062005cf5833981519152600080a43880808062000397565b6000818152602084815260408083206001600160a01b038816808552925282208054851660011790553392909160008051602062005cf58339815191529080a43862000348565b6000818152602084815260408083206001600160a01b038816808552925282208054851660011790553392909160008051602062005cf58339815191529080a438620002fb565b6000808052602083815260408083206001600160a01b03871680855292528220805484166001179055339160008051602062005cf58339815191528180a4620002af565b62461bcd60e51b8252602060c4820152601560e48201527f496e76616c69642061646d696e2061646472657373000000000000000000000061010490910152606490fd5b634e487b7160e01b600052604160045260246000fd5b01519050388062000178565b601f19821695600460005260206000209160005b888110620005d657508360019596979810620005bc575b505050811b016004556200018e565b015160001960f88460031b161c19169055388080620005ad565b9192602060018192868501518155019401920162000596565b60046000527f8a35acfbc15ff81a39ae7d344fd709f28e8600b4aa8c65c6b64bfe7fe36bd19b601f830160051c8101602084106200064d575b601f830160051c820181106200064057505062000159565b6000815560010162000628565b508062000628565b634e487b7160e01b600052602260045260246000fd5b90607f169062000145565b9050820151386200010d565b600360009081527fc2575a0e9e593c00f959f8c92f12db2869c3395a3b0502d05e2516446f71f85b9250601f198416905b818110620006f257509083600194939210620006d8575b5050811b0160035562000122565b84015160001960f88460031b161c191690553880620006ca565b91926020600181928689015181550194019201620006b3565b60036000527fc2575a0e9e593c00f959f8c92f12db2869c3395a3b0502d05e2516446f71f85b601f830160051c810191602084106200076a575b601f0160051c01905b8181106200075d5750620000f4565b600081556001016200074e565b909150819062000745565b90607f1690620000e0565b600080fd5b604081019081106001600160401b038211176200056057604052565b8051602091908281101562000840575090601f825111620007df5780825192015190808310620007d057501790565b82600019910360031b1b161790565b90604051809263305a27a960e01b82528060048301528251908160248401526000935b82851062000826575050604492506000838284010152601f80199101168101030190fd5b848101820151868601604401529381019385935062000802565b6001600160401b03811162000560576005928354926001938481811c911680156200095a575b838210146200065557601f811162000923575b5081601f8411600114620008b95750928293918392600094620008ad575b50501b916000199060031b1c191617905560ff90565b01519250388062000897565b919083601f1981168760005284600020946000905b88838310620009085750505010620008ee575b505050811b01905560ff90565b015160001960f88460031b161c19169055388080620008e1565b858701518855909601959485019487935090810190620008ce565b8560005284601f846000209201871c820191601f8601881c015b8281106200094d57505062000879565b600081550185906200093d565b90607f169062000866565b805160209081811015620009f35750601f825111620009925780825192015190808310620007d057501790565b90604051809263305a27a960e01b82528060048301528251908160248401526000935b828510620009d9575050604492506000838284010152601f80199101168101030190fd5b8481018201518686016044015293810193859350620009b5565b906001600160401b0382116200056057600654926001938481811c9116801562000b12575b838210146200065557601f811162000ad8575b5081601f841160011462000a6c575092829391839260009462000a60575b50501b916000199060031b1c19161760065560ff90565b01519250388062000a49565b919083601f198116600660005284600020946000905b8883831062000abd575050501062000aa3575b505050811b0160065560ff90565b015160001960f88460031b161c1916905538808062000a95565b85870151885590960195948501948793509081019062000a82565b600660005284601f84600020920160051c820191601f860160051c015b82811062000b0557505062000a2b565b6000815501859062000af5565b90607f169062000a1856fe608080604052600436101561001357600080fd5b60003560e01c90816301ffc9a714613c6357508063041199e114613a47578063062d3bd714613a0c57806306c933d8146139cd57806306fdde0314613927578063095ea7b31461390157806318160ddd146138e357806323b872dd14613825578063248a9ca3146137f65780632d38f89b1461376b5780632f2ff15d146136b8578063313ce5671461369c5780633644e5151461367957806336568abe146135e757806339509351146135965780633c2fd95014612eaa5780633f4ba83a14612e1657806340c10f1914612d5f578063455bd95114612d075780634e994b6014612b9e57806359fd285c14612b015780635c975abb14612ade57806370a0823114612aa457806379cc67901461290c5780637ecebe00146128d25780638456cb591461287857806384b0196e1461279a57806391d148541461274d5780639281aa0b146126fa57806394c5b2fc146126dc57806395d89b41146125fa578063a217fddf146125de578063a457c2d714612537578063a9059cbb14612506578063a94ff030146116da578063aabae7a314610d19578063ce3169ca14610ca5578063cf2acf8414610a8d578063cf35bdd014610960578063d01dd6d2146108e2578063d505accf14610752578063d539139314610717578063d547741f146106d6578063d5749d4214610697578063d5abeb0114610679578063d83c827014610656578063dd62ed3e14610605578063e04e77f7146105cc578063e63ab1e914610591578063f103b433146103345763f3b262481461025057600080fd5b3461032f57602036600319011261032f5760043560005260136020526102f9604060002061032b60405191610290836102898184613eaf565b0384613d23565b60066001820154916103116002820154936040516102bc816102b58160038801613eaf565b0382613d23565b60ff600485015416956102e56005860154956102de6040518099819301613eaf565b0387613d23565b604051998a9960e08b5260e08b0190613df5565b9260208a015260408901528782036060890152613df5565b921515608086015260a085015283820360c0850152613df5565b0390f35b600080fd5b3461032f5760208060031936011261032f5760043560008052600a8252604060002033600052825260ff60406000205416156103e95760025481106103ab577fb4d96b3a6638191d0f6aefa0fdc4d99af3592f4c97480e31feeb977723c63b539160409160125491816012558351928352820152a1005b60405162461bcd60e51b81526004810183905260166024820152754e6577206d617820737570706c7920746f6f206c6f7760501b6044820152606490fd5b506103f3336147d9565b90600060405161040281613d08565b6042815282810191606036843781511561057b5760308353815160019081101561057b57607860218401536041905b8082116105215750506104de576104aa936104b99260489260405196879376020b1b1b2b9b9a1b7b73a3937b61d1030b1b1b7bab73a1604d1b88860152610481815180928a603789019101613dd2565b8401917001034b99036b4b9b9b4b733903937b6329607d1b603784015251809386840190613dd2565b01036028810185520183613d23565b6104da60405192839262461bcd60e51b845260048401526024830190613df5565b0390fd5b6064836040519062461bcd60e51b825280600483015260248201527f537472696e67733a20686578206c656e67746820696e73756666696369656e746044820152fd5b9091600f8116601081101561057b576f181899199a1a9b1b9c1cb0b131b232b360811b901a61055084866147c8565b5360041c918015610565576000190190610431565b634e487b7160e01b600052601160045260246000fd5b634e487b7160e01b600052603260045260246000fd5b3461032f57600036600319011261032f5760206040517f65d7a28e3265b37a6474929f336521b332c1681b933f6cb9f3376673440d862a8152f35b3461032f57602036600319011261032f5760043580151580910361032f576105f2613f45565b60ff801960105416911617601055600080f35b3461032f57604036600319011261032f5761061e613da6565b610626613dbc565b9060018060a01b038091166000526001602052604060002091166000526020526020604060002054604051908152f35b3461032f57600036600319011261032f57602060ff601054166040519015158152f35b3461032f57600036600319011261032f576020601254604051908152f35b3461032f57602036600319011261032f576001600160a01b036106b8613da6565b16600052600e602052602060ff604060002054166040519015158152f35b3461032f57604036600319011261032f576107156004356106f5613dbc565b9080600052600a6020526107106001604060002001546143bd565b6144c8565b005b3461032f57600036600319011261032f5760206040517f9f2df0fed2c77648de5860a4cc508cd0818c85b8b8a1ab4ceeef8d981c8956a68152f35b3461032f5760e036600319011261032f5761076b613da6565b610773613dbc565b6044359060643560843560ff8116810361032f5781421161089d5761084961084160018060a01b0392838816948560005260076020526040600020908154916001830190556040519060208201927f6e71edae12b1b97f4d1f60370fef10105fa2faae0126114a169c64845d6126c98452886040840152878a1660608401528a608084015260a083015260c082015260c0815261080f81613cb6565b51902061081a614a90565b906040519161190160f01b83526002830152602282015260c43591604260a4359220614a01565b9190916148e7565b160361085857610715926146c6565b60405162461bcd60e51b815260206004820152601e60248201527f45524332305065726d69743a20696e76616c6964207369676e617475726500006044820152606490fd5b60405162461bcd60e51b815260206004820152601d60248201527f45524332305065726d69743a206578706972656420646561646c696e650000006044820152606490fd5b3461032f57604036600319011261032f576108fb613da6565b7ff1bf4fdc75f29b6c8f35b7808597b7e9c104efd356c3f8ee86e76023da1417e06020610926613e66565b9261092f613f45565b6001600160a01b03166000818152600e835260409020805460ff191660ff86151516179055926040519015158152a2005b3461032f57602036600319011261032f57600435600052600c602052610a3960406000206040519061099d826109968184613eaf565b0383613d23565b6040516109b1816102b58160018601613eaf565b610a7b6006610a6d6040516109cd816102b58160028a01613eaf565b600386015460048701546040519192610a55906109f8846109f18160058e01613eaf565b0385613d23565b610a138a610a0c604051809a819301613eaf565b0388613d23565b610a47600860ff60078d0154169b0154996040519d8e9d8e610120908181520190613df5565b8d810360208f015290613df5565b908b820360408d0152613df5565b9260608a0152608089015287820360a0890152613df5565b9085820360c0870152613df5565b91151560e08401526101008301520390f35b3461032f5760208060031936011261032f5760043560405191610aaf83613cd1565b6060918284528282850152826040850152600083850152600060808501528260a08501528260c0850152600060e085015260006101008095015280600052600c825260086040600020015415610c8d57600052600c815260406000209060405192610b1984613cd1565b60405180610b278186613eaf565b03610b329082613d23565b84526040519485610b468160018701613eaf565b03610b519087613d23565b8483019586526040519586610b698160028801613eaf565b03610b749088613d23565b60408681019788526003860154848801908152600487015460808901908152915180610ba38160058b01613eaf565b03610bae9082613d23565b60a089019081526040519283610bc78160068c01613eaf565b03610bd29085613d23565b60c08a01938452600789015460ff169860e08b019915158a526008015496868b019788526040519b8c9b8a8d52518c6101209b8c9101526101408d01610c1791613df5565b9651601f198d8903810160408f015297610c3091613df5565b905191878d830301908d0152610c4591613df5565b925160808b01525160a08a01525190838982030160c08a0152610c6791613df5565b9051918782030160e0880152610c7c91613df5565b935115159085015251908301520390f35b602490604051906343ce9af560e01b82526004820152fd5b3461032f57606036600319011261032f57600435610cc1613e66565b90610cca613f45565b80600052600c602052610ce6600860406000200154151561513e565b6000526013602052610d0c604060002091600483019060ff801983541691151516179055565b6005604435910155600080f35b3461032f5761010036600319011261032f57610d33613da6565b6044356001600160401b03811161032f57610d52903690600401613d5f565b906064356001600160401b03811161032f57610d72903690600401613d5f565b906084356001600160401b03811161032f57610d92903690600401613d5f565b9160c4356001600160401b03811161032f57610db2903690600401613d5f565b60e4356001600160401b03811161032f57610dd1903690600401613d5f565b90610dda614278565b6002600b5414611695576002600b55610df1614e16565b610e056001600160a01b0385161515614d70565b610e126024351515614dbc565b60a4351561163e578551156115f957600254610e306024358261453e565b906012548092116115ce57505060ff60105416806115ac575b61158b5760115494610e5a86614e07565b60115560405193610e6a85613cd1565b8785526020850152604084015260a435606084015242608084015260a083015260c0820152600060e08201524261010082015282600052600c60205260406000209080518051906001600160401b03821161117c578190610ecb8554613e75565b601f811161153b575b50602090601f83116001146114d5576000926114ca575b50508160011b916000199060031b1c19161782555b60208101518051906001600160401b03821161117c578190610f256001860154613e75565b601f8111611477575b50602090601f8311600114611405576000926113fa575b50508160011b916000199060031b1c19161760018301555b60408101518051906001600160401b03821161117c578190610f826002860154613e75565b601f81116113a7575b50602090601f83116001146113355760009261132a575b50508160011b916000199060031b1c19161760028301555b606081015160038301556080810151600483015560a08101518051906001600160401b03821161117c578190610ff36005860154613e75565b601f81116112d7575b50602090601f83116001146112655760009261125a575b50508160011b916000199060031b1c19161760058301555b60c08101518051906001600160401b03821161117c5761104e6006850154613e75565b601f8111611213575b50602090601f831160011461119d5791806008949261010094600092611192575b50508160011b916000199060031b1c19161760068501555b6110af60e08201511515600786019060ff801983541691151516179055565b01519101556001600160a01b0381166000908152600d6020526040902080549390600160401b85101561117c57611158849261113184611118897ff7e1a46c126ab69342d6c64d69054268e5521a7b4128ea9a7ef358e83e00b61196600160209c018155613e4e565b90919082549060031b91821b91600019901b1916179055565b61113d60243586614e5a565b60405191829160243583526060898401526060830190613df5565b60a43560408301526001600160a01b03909516940390a36001600b55604051908152f35b634e487b7160e01b600052604160045260246000fd5b015190508980611078565b906006850160005260206000209160005b601f19851681106111fb575092600894926001926101009583601f198116106111e2575b505050811b016006850155611090565b015160001960f88460031b161c191690558980806111d2565b919260206001819286850151815501940192016111ae565b600685016000526020600020601f840160051c810160208510611253575b601f830160051c82018110611247575050611057565b60008155600101611231565b5080611231565b015190508780611013565b9250600585016000526020600020906000935b601f19841685106112bc576001945083601f198116106112a3575b505050811b01600583015561102b565b015160001960f88460031b161c19169055878080611293565b81810151835560209485019460019093019290910190611278565b909150600585016000526020600020601f840160051c810160208510611323575b90849392915b601f830160051c82018110611314575050610ffc565b600081558594506001016112fe565b50806112f8565b015190508780610fa2565b9250600285016000526020600020906000935b601f198416851061138c576001945083601f19811610611373575b505050811b016002830155610fba565b015160001960f88460031b161c19169055878080611363565b81810151835560209485019460019093019290910190611348565b909150600285016000526020600020601f840160051c8101602085106113f3575b90849392915b601f830160051c820181106113e4575050610f8b565b600081558594506001016113ce565b50806113c8565b015190508780610f45565b9250600185016000526020600020906000935b601f198416851061145c576001945083601f19811610611443575b505050811b016001830155610f5d565b015160001960f88460031b161c19169055878080611433565b81810151835560209485019460019093019290910190611418565b909150600185016000526020600020601f840160051c8101602085106114c3575b90849392915b601f830160051c820181106114b4575050610f2e565b6000815585945060010161149e565b5080611498565b015190508780610eeb565b6000868152602081209350601f198516905b818110611523575090846001959493921061150a575b505050811b018255610f00565b015160001960f88460031b161c191690558780806114fd565b929360206001819287860151815501950193016114e7565b909150846000526020600020601f840160051c810160208510611584575b90849392915b601f830160051c82018110611575575050610ed4565b6000815585945060010161155f565b5080611559565b60405163d33f19e760e01b81526001600160a01b0385166004820152602490fd5b506001600160a01b0384166000908152600e602052604090205460ff16610e49565b906115de6044926024359061453e565b906040519163adc3cee560e01b835260048301526024820152fd5b60405162461bcd60e51b815260206004820152601a60248201527f417373657420747970652063616e6e6f7420626520656d7074790000000000006044820152606490fd5b60405162461bcd60e51b815260206004820152602960248201527f4170707261697365642076616c7565206d7573742062652067726561746572206044820152687468616e207a65726f60b81b6064820152608490fd5b60405162461bcd60e51b815260206004820152601f60248201527f5265656e7472616e637947756172643a207265656e7472616e742063616c6c006044820152606490fd5b3461032f576101c036600319011261032f576116f4613da6565b6044356001600160401b03811161032f57611713903690600401613d5f565b6064356001600160401b03811161032f57611732903690600401613d5f565b9060a4356001600160401b03811161032f57611752903690600401613d5f565b9060c4356001600160401b03811161032f57611772903690600401613d5f565b9060e4356001600160401b03811161032f57611792903690600401613d5f565b94610144356001600160401b03811161032f576117b3903690600401613d5f565b936101643592831515840361032f576101a4356001600160401b03811161032f576117e2903690600401613d5f565b946117eb614278565b61010435156124b057610708610124351180612491575b15612457576040519261181484613ced565b600b84526a7265616c5f65737461746560a81b6020850152611834614278565b6002600b5414611695576002600b5561184b614e16565b61185f6001600160a01b0386161515614d70565b61186c6024351515614dbc565b6084351561163e578351156115f95760025461188a6024358261453e565b906012548092116115ce57505060ff6010541680612435575b61241457601154986118b48a614e07565b601155604051936118c485613cd1565b85855260208501526040840152608435606084015242608084015260a083015260c0820152600060e08201524261010082015286600052600c60205260406000209080518051906001600160401b03821161117c5781906119258554613e75565b601f81116123c4575b50602090601f83116001146123585760009261234d575b50508160011b916000199060031b1c19161782555b60208101518051906001600160401b03821161117c57819061197f6001860154613e75565b601f81116122fa575b50602090601f83116001146122885760009261227d575b50508160011b916000199060031b1c19161760018301555b60408101518051906001600160401b03821161117c5781906119dc6002860154613e75565b601f811161222a575b50602090601f83116001146121b8576000926121ad575b50508160011b916000199060031b1c19161760028301555b606081015160038301556080810151600483015560a08101518051906001600160401b03821161117c578190611a4d6005860154613e75565b601f811161215a575b50602090601f83116001146120e8576000926120dd575b50508160011b916000199060031b1c19161760058301555b60c08101518051906001600160401b03821161117c57611aa86006850154613e75565b601f8111612096575b50602090601f83116001146120205791806008949261010094600092612015575b50508160011b916000199060031b1c19161760068501555b611b0960e08201511515600786019060ff801983541691151516179055565b01519101556001600160a01b0382166000908152600d602052604090208054600160401b81101561117c578792611b6e84611118847ff7e1a46c126ab69342d6c64d69054268e5521a7b4128ea9a7ef358e83e00b611966001611b9697018155613e4e565b611b7a60243586614e5a565b6040519182916024358352606060208401526060830190613df5565b60843560408301526001600160a01b03909516940390a36001600b5560405192611bbf84613cb6565b8584526101043560208501526101243560408501526060840152151560808301526101843560a083015260c0820152816000526013602052604060002081518051906001600160401b03821161117c578190611c1b8454613e75565b601f8111611fc5575b50602090601f8311600114611f5957600092611f4e575b50508160011b916000199060031b1c19161781555b602082015160018201556040820151600282015560608201518051906001600160401b03821161117c57611c876003840154613e75565b601f8111611f07575b50602090601f8311600114611e9257918060c09492600694600092611e87575b50508160011b916000199060031b1c19161760038201555b611ce760808501511515600483019060ff801983541691151516179055565b60a08401516005820155019101518051906001600160401b03821161117c57611d108354613e75565b601f8111611e3f575b50916020949184938690601f8311600114611db0579180611d8994927f7de1543305416a0e737a8cab834cb631dab57df2e2d48e6676ff7026cd5551f39694600092611da5575b50508160011b916000199060031b1c19161790555b604051918291606083526060830190613df5565b61010435878301526101243560408301520390a2604051908152f35b015190508980611d60565b90601f1983169184600052886000209260005b818110611e2557509260019285927f7de1543305416a0e737a8cab834cb631dab57df2e2d48e6676ff7026cd5551f39896611d89989610611e0c575b505050811b019055611d75565b015160001960f88460031b161c19169055898080611dff565b828401518555899850600190940193928a01928a01611dc3565b836000526020600020601f840160051c81019160208510611e7d575b601f0160051c01905b818110611e715750611d19565b60008155600101611e64565b9091508190611e5b565b015190508880611cb0565b906003840160005260206000209160005b601f1985168110611eef57509260c0949260019260069583601f19811610611ed6575b505050811b016003820155611cc8565b015160001960f88460031b161c19169055888080611ec6565b91926020600181928685015181550194019201611ea3565b600384016000526020600020601f840160051c810160208510611f47575b601f830160051c82018110611f3b575050611c90565b60008155600101611f25565b5080611f25565b015190508680611c3b565b9250836000526020600020906000935b601f1984168510611faa576001945083601f19811610611f91575b505050811b018155611c50565b015160001960f88460031b161c19169055868080611f84565b81810151835560209485019460019093019290910190611f69565b909150836000526020600020601f840160051c81016020851061200e575b90849392915b601f830160051c82018110611fff575050611c24565b60008155859450600101611fe9565b5080611fe3565b015190508d80611ad2565b906006850160005260206000209160005b601f198516811061207e575092600894926001926101009583601f19811610612065575b505050811b016006850155611aea565b015160001960f88460031b161c191690558d8080612055565b91926020600181928685015181550194019201612031565b600685016000526020600020601f840160051c8101602085106120d6575b601f830160051c820181106120ca575050611ab1565b600081556001016120b4565b50806120b4565b015190508b80611a6d565b9250600585016000526020600020906000935b601f198416851061213f576001945083601f19811610612126575b505050811b016005830155611a85565b015160001960f88460031b161c191690558b8080612116565b818101518355602094850194600190930192909101906120fb565b909150600585016000526020600020601f840160051c8101602085106121a6575b90849392915b601f830160051c82018110612197575050611a56565b60008155859450600101612181565b508061217b565b015190508b806119fc565b9250600285016000526020600020906000935b601f198416851061220f576001945083601f198116106121f6575b505050811b016002830155611a14565b015160001960f88460031b161c191690558b80806121e6565b818101518355602094850194600190930192909101906121cb565b909150600285016000526020600020601f840160051c810160208510612276575b90849392915b601f830160051c820181106122675750506119e5565b60008155859450600101612251565b508061224b565b015190508b8061199f565b9250600185016000526020600020906000935b601f19841685106122df576001945083601f198116106122c6575b505050811b0160018301556119b7565b015160001960f88460031b161c191690558b80806122b6565b8181015183556020948501946001909301929091019061229b565b909150600185016000526020600020601f840160051c810160208510612346575b90849392915b601f830160051c82018110612337575050611988565b60008155859450600101612321565b508061231b565b015190508b80611945565b9250846000526020600020906000935b601f19841685106123a9576001945083601f19811610612390575b505050811b01825561195a565b015160001960f88460031b161c191690558b8080612383565b81810151835560209485019460019093019290910190612368565b909150846000526020600020601f840160051c81016020851061240d575b90849392915b601f830160051c820181106123fe57505061192e565b600081558594506001016123e8565b50806123e2565b60405163d33f19e760e01b81526001600160a01b0386166004820152602490fd5b506001600160a01b0385166000908152600e602052604090205460ff166118a3565b60405162461bcd60e51b8152602060048201526012602482015271125b9d985b1a59081e59585c88189d5a5b1d60721b6044820152606490fd5b506301e1338042046107b2810180911161056557610124351115611802565b60405162461bcd60e51b815260206004820152602860248201527f53717561726520666f6f74616765206d7573742062652067726561746572207460448201526768616e207a65726f60c01b6064820152608490fd5b3461032f57604036600319011261032f5761252c612522613da6565b602435903361454b565b602060405160018152f35b3461032f57604036600319011261032f57612550613da6565b60243590336000526001602052604060002060018060a01b0382166000526020526040600020549180831061258b5761252c920390336146c6565b60405162461bcd60e51b815260206004820152602560248201527f45524332303a2064656372656173656420616c6c6f77616e63652062656c6f77604482015264207a65726f60d81b6064820152608490fd5b3461032f57600036600319011261032f57602060405160008152f35b3461032f57600036600319011261032f57604051600060045461261c81613e75565b808452906001908181169081156126b5575060011461265a575b61032b8461264681860382613d23565b604051918291602083526020830190613df5565b6004600090815292507f8a35acfbc15ff81a39ae7d344fd709f28e8600b4aa8c65c6b64bfe7fe36bd19b5b82841061269d57505050810160200161264682612636565b80546020858701810191909152909301928101612685565b60ff191660208087019190915292151560051b850190920192506126469150839050612636565b3461032f57600036600319011261032f576020601154604051908152f35b3461032f57604036600319011261032f57610715612716613da6565b61271e613e66565b90612727613f45565b60018060a01b0316600052600f60205260406000209060ff801983541691151516179055565b3461032f57604036600319011261032f57612766613dbc565b600435600052600a60205260406000209060018060a01b0316600052602052602060ff604060002054166040519015158152f35b3461032f57600036600319011261032f576127d47f0000000000000000000000000000000000000000000000000000000000000000614bba565b6127fd7f0000000000000000000000000000000000000000000000000000000000000000614cb6565b906040519160208301928084106001600160401b0385111761117c5761285761032b926128499560405260008352604051958695600f60f81b875260e0602088015260e0870190613df5565b908582036040870152613df5565b90466060850152306080850152600060a085015283820360c0850152613e1a565b3461032f57600036600319011261032f57612891614133565b612899614e16565b600160ff1960095416176009557f62e78cea01bee320cd4e420270b5ea74000d11b0c9f74754ebdbfc544b05a2586020604051338152a1005b3461032f57602036600319011261032f576001600160a01b036128f3613da6565b1660005260076020526020604060002054604051908152f35b3461032f57604036600319011261032f57612925613da6565b6001600160a01b0381166024358115612a5f57612943811515614dbc565b81600052602092600184526040600020336000528452604060002054906000198203612a1d575b6129749150614f5f565b81600052600083526040600020548181106129cd5792817fddf252ad1be2c89b69c2b068fc378daa952ba7f163c4a11628f55a4df523b3ef926000958587528684520360408620558060025403600255604051908152a3005b60405162461bcd60e51b815260048101859052602260248201527f45524332303a206275726e20616d6f756e7420657863656564732062616c616e604482015261636560f01b6064820152608490fd5b828210612a415782820391821161056557612a3c6129749233836146c6565b61296a565b604483836040519163054365bb60e31b835260048301526024820152fd5b60405162461bcd60e51b815260206004820152601d60248201527f43616e6e6f74206275726e2066726f6d207a65726f20616464726573730000006044820152606490fd5b3461032f57602036600319011261032f576001600160a01b03612ac5613da6565b1660005260006020526020604060002054604051908152f35b3461032f57600036600319011261032f57602060ff600954166040519015158152f35b3461032f57602036600319011261032f57600435612b1d613f45565b80600052600c60205260086040600020015415610c8d5780600052600c6020526007604060002001600160ff1982541617905560008051602061518283398151915260c06040516040815260086040820152671d995c9a599a595960c21b60608201526080602082015260046080820152637472756560e01b60a0820152a2005b3461032f5760208060031936011261032f5760c090600435604051612bc281613cb6565b606093818580935260008582015260006040820152828082015260006080820152600060a0820152015280600052600c8252612c07600860406000200154151561513e565b6000526013815261032b60406000209260405193612c2485613cb6565b604051612c35816102b58185613eaf565b85526006600182015491858701928352612ce86002820154946040890195865260405190612c6a826109968160038801613eaf565b808a0191825260ff6004850154169660808b019715158852612ca260058601549560a08d019687526102de6040518099819301613eaf565b60c08b01958652612cc78a60e06040519d8e9d8e5251918d01526101008c0190613df5565b965160408b015251908901525193601f1994858983030160808a0152613df5565b9351151560a08701525160c086015251908483030160e0850152613df5565b3461032f57604036600319011261032f57612d20613da6565b6001600160a01b03166000908152600d602052604090208054602435919082101561032f57602091612d5191613e4e565b90546040519160031b1c8152f35b3461032f57604036600319011261032f57612d78613da6565b602435612d83614278565b6001600160a01b03821691612d99831515614d70565b612da4821515614dbc565b600254612db1838261453e565b90601254809211612e0957505060ff6010541680612df1575b612dd8576107159250614e5a565b60405163d33f19e760e01b815260048101849052602490fd5b5082600052600e60205260ff60406000205416612dca565b906115de8460449361453e565b3461032f57600036600319011261032f57612e2f614133565b60095460ff811615612e6e5760ff19166009557f5db9ee0a495bf2e6ff9c91a7834c1ba4fdd244a5e8aa4e537bd38aeae4b073aa6020604051338152a1005b60405162461bcd60e51b815260206004820152601460248201527314185d5cd8589b194e881b9bdd081c185d5cd95960621b6044820152606490fd5b3461032f57606036600319011261032f5760043560246001600160401b03813581811161032f57612edf903690600401613d5f565b9160443582811161032f57612ef8903690600401613d5f565b90612f01613f45565b84600052600c926020938085526008604060002001541561357e5785517f1596dc38e2ac5a6ddc5e019af4adcc1e017a04f510d57e69d6879d5d2996bb8e8688019182206a3232b9b1b934b83a34b7b760a91b88604051612f6181613ced565b600b81520152036130e857508660005284526001806040600020019284519283116130d45750612f918354613e75565b601f811161308b575b5084601f831160011461300f57928280612ff29794600080516020615182833981519152999794612fff97600093613004575b501b916000199060031b1c19161790555b604051948594604086526040860190613df5565b9184830390850152613df5565b0390a2005b86015192508c612fcd565b601f9291921982169084600052866000209160005b818110613076575092612fff9592612ff2989592826000805160206151828339815191529b99961061305d575b5050811b019055612fde565b85015160001960f88460031b161c191690558a80613051565b87830151845592850192918801918801613024565b8360005285600020601f840160051c8101918785106130ca575b601f0160051c019082905b8281106130be575050612f9a565b600081550182906130b0565b90915081906130a5565b634e487b7160e01b60009081526041600452fd5b7f32418106fd89af94305d9787acb608a501b749f5f1783cfca7b3f864595254ca87518220673637b1b0ba34b7b760c11b8860405161312681613ced565b6008815201520361325a575086600052845260026040600020019183519182116130d457506131558254613e75565b601f8111613214575b5083601f82116001146131b25792612fff9282612ff2969360008051602061518283398151915298966000916131a7575b508160011b916000199060031b1c1916179055612fde565b90508301518a61318f565b601f1982169083600052856000209160005b8181106131fd575083600080516020615182833981519152989693612fff9693612ff299966001941061305d575050811b019055612fde565b91928760018192868a0151815501940192016131c4565b8260005284600020601f830160051c810191868410613250575b601f0160051c01905b818110613244575061315e565b60008155600101613237565b909150819061322e565b7f0672e70e771a4a1bc3c4bf3963a75dfb1a00680fb30bde56d2ab3475bbeb191a875182206f61707072616973616c436f6d70616e7960801b886040516132a081613ced565b601081520152036133c8575086600052845260056040600020019183519182116130d457506132cf8254613e75565b601f8111613382575b5083601f82116001146133205792612fff9282612ff2969360008051602061518283398151915298966000916131a757508160011b916000199060031b1c1916179055612fde565b601f1982169083600052856000209160005b81811061336b575083600080516020615182833981519152989693612fff9693612ff299966001941061305d575050811b019055612fde565b91928760018192868a015181550194019201613332565b8260005284600020601f830160051c8101918684106133be575b601f0160051c01905b8181106133b257506132d8565b600081556001016133a5565b909150819061339c565b7fa2337af9c0c983d244fe5901fbd8591e34918612fb5a46d3a9da3a6306987c7090875190206b0c8dec6eadacadce890c2e6d60a31b8760405161340b81613ced565b858152015214613436575b50505091612fff612ff29260008051602061518283398151915294612fde565b86600052845260066040600020019183519182116130d457506134598254613e75565b601f8111613538575b5083601f82116001146134bc5792612fff9282612ff2969360008051602061518283398151915298966000916134b1575b508160011b916000199060031b1c19161790555b9294819450613416565b90508301518a613493565b601f1982169083600052856000209160005b818110613521575083600080516020615182833981519152989693612fff9693612ff2999660019410613508575b5050811b0190556134a7565b85015160001960f88460031b161c191690558a806134fc565b91928760018192868a0151815501940192016134ce565b8260005284600020601f830160051c810191868410613574575b601f0160051c01905b8181106135685750613462565b6000815560010161355b565b9091508190613552565b6040516343ce9af560e01b8152600481018890528390fd5b3461032f57604036600319011261032f5761252c6135b2613da6565b336000526001602052604060002060018060a01b0382166000526020526135e060243560406000205461453e565b90336146c6565b3461032f57604036600319011261032f57613600613dbc565b336001600160a01b0382160361361c57610715906004356144c8565b60405162461bcd60e51b815260206004820152602f60248201527f416363657373436f6e74726f6c3a2063616e206f6e6c792072656e6f756e636560448201526e103937b632b9903337b91039b2b63360891b6064820152608490fd5b3461032f57600036600319011261032f576020613694614a90565b604051908152f35b3461032f57600036600319011261032f57602060405160128152f35b3461032f57604036600319011261032f576004356136d4613dbc565b81600052600a6020526136ee6001604060002001546143bd565b81600052600a60205260406000209060018060a01b0316908160005260205260ff604060002054161561371d57005b81600052600a6020526040600020816000526020526040600020600160ff1982541617905533917f2f8788117e7eff1d82e926ec794901d17c78024a50270940304540a733656f0d600080a4005b3461032f5760208060031936011261032f576001600160a01b0361378d613da6565b16600052600d8152604060002090604051808383829554938481520190600052836000209260005b858282106137e0575050506137cc92500383613d23565b61032b604051928284938452830190613e1a565b85548452600195860195889550930192016137b5565b3461032f57602036600319011261032f57600435600052600a6020526020600160406000200154604051908152f35b3461032f57606036600319011261032f5761383e613da6565b613846613dbc565b6044359060018060a01b0383166000526001602052604060002033600052602052604060002054926000198403613882575b61252c935061454b565b82841061389e576138998361252c950333836146c6565b613878565b60405162461bcd60e51b815260206004820152601d60248201527f45524332303a20696e73756666696369656e7420616c6c6f77616e63650000006044820152606490fd5b3461032f57600036600319011261032f576020600254604051908152f35b3461032f57604036600319011261032f5761252c61391d613da6565b60243590336146c6565b3461032f57600036600319011261032f57604051600060035461394981613e75565b808452906001908181169081156126b557506001146139725761032b8461264681860382613d23565b6003600090815292507fc2575a0e9e593c00f959f8c92f12db2869c3395a3b0502d05e2516446f71f85b5b8284106139b557505050810160200161264682612636565b8054602085870181019190915290930192810161399d565b3461032f57602036600319011261032f576001600160a01b036139ee613da6565b16600052600f602052602060ff604060002054166040519015158152f35b3461032f57600036600319011261032f5760206040517f442a94f1a1fac79af32856af2a64f63648cfa2ef3b98610a5bb7cbec4cee69858152f35b3461032f57606036600319011261032f576004356001600160401b0360243560443582811161032f57613a7e903690600401613d5f565b613a86613f45565b83600052602092600c845260086040600020015415613c4a578215613c315784600052600c8452600560406000208460038201554260048201550191805191821161117c57613ad58354613e75565b601f8111613beb575b508490601f8311600114613b6b5793600080516020615182833981519152959383612fff94613b2b94608098600092613b60575b50508160011b916000199060031b1c191617905561507e565b60405193849360408552600e60408601526d61707072616973656456616c756560901b60608601528401526080830190613df5565b015190508a80613b12565b90601f1983169184600052866000209260005b818110613bd4575084613b2b94608098946000805160206151828339815191529a9894612fff9860019510613bbb575b505050811b01905561507e565b015160001960f88460031b161c191690558a8080613bae565b929388600181928786015181550195019301613b7e565b8360005285600020601f840160051c810191878510613c27575b601f0160051c01905b818110613c1b5750613ade565b60008155600101613c0e565b9091508190613c05565b6040516306dd0df760e11b815260048101849052602490fd5b6040516343ce9af560e01b815260048101869052602490fd5b3461032f57602036600319011261032f576004359063ffffffff60e01b821680920361032f57602091637965db0b60e01b8114908115613ca5575b5015158152f35b6301ffc9a760e01b14905083613c9e565b60e081019081106001600160401b0382111761117c57604052565b61012081019081106001600160401b0382111761117c57604052565b604081019081106001600160401b0382111761117c57604052565b608081019081106001600160401b0382111761117c57604052565b90601f801991011681019081106001600160401b0382111761117c57604052565b6001600160401b03811161117c57601f01601f191660200190565b81601f8201121561032f57803590613d7682613d44565b92613d846040519485613d23565b8284526020838301011161032f57816000926020809301838601378301015290565b600435906001600160a01b038216820361032f57565b602435906001600160a01b038216820361032f57565b60005b838110613de55750506000910152565b8181015183820152602001613dd5565b90602091613e0e81518092818552858086019101613dd2565b601f01601f1916010190565b90815180825260208080930193019160005b828110613e3a575050505090565b835185529381019392810192600101613e2c565b805482101561057b5760005260206000200190600090565b60243590811515820361032f57565b90600182811c92168015613ea5575b6020831014613e8f57565b634e487b7160e01b600052602260045260246000fd5b91607f1691613e84565b9060009291805491613ec083613e75565b918282526001938481169081600014613f225750600114613ee2575b50505050565b90919394506000526020928360002092846000945b838610613f0e575050505001019038808080613edc565b805485870183015294019385908201613ef7565b9294505050602093945060ff191683830152151560051b01019038808080613edc565b3360009081527f81aa20521b1f8377105c149ab3e891a614f1dc1af7e3227dafa44b3aa3f87adc602090815260408083205490927f442a94f1a1fac79af32856af2a64f63648cfa2ef3b98610a5bb7cbec4cee69859160ff1615613fa95750505050565b613fb2336147d9565b91845190613fbf82613d08565b6042825284820192606036853782511561411f576030845382519060019182101561411f5790607860218501536041915b8183116140b15750505061406f5760486104da93869361405393614044985198899376020b1b1b2b9b9a1b7b73a3937b61d1030b1b1b7bab73a1604d1b8a860152610481815180928c603789019101613dd2565b01036028810187520185613d23565b5192839262461bcd60e51b845260048401526024830190613df5565b60648486519062461bcd60e51b825280600483015260248201527f537472696e67733a20686578206c656e67746820696e73756666696369656e746044820152fd5b909192600f8116601081101561410b576f181899199a1a9b1b9c1cb0b131b232b360811b901a6140e185876147c8565b5360041c9280156140f757600019019190613ff0565b634e487b7160e01b82526011600452602482fd5b634e487b7160e01b83526032600452602483fd5b634e487b7160e01b81526032600452602490fd5b3360009081527f6c4ab3a3cc4fea3ac566afdaa38e0e471d1bdfd1aa59eb20affdabfa5e893fed602090815260408083205490927f65d7a28e3265b37a6474929f336521b332c1681b933f6cb9f3376673440d862a9160ff16156141975750505050565b6141a0336147d9565b918451906141ad82613d08565b6042825284820192606036853782511561411f576030845382519060019182101561411f5790607860218501536041915b8183116142325750505061406f5760486104da93869361405393614044985198899376020b1b1b2b9b9a1b7b73a3937b61d1030b1b1b7bab73a1604d1b8a860152610481815180928c603789019101613dd2565b909192600f8116601081101561410b576f181899199a1a9b1b9c1cb0b131b232b360811b901a61426285876147c8565b5360041c9280156140f7576000190191906141de565b3360009081527faa1d7351356c4ddc11907b1ee0660f579cfdf507235af2ae01ecd22a4b7ceaae602090815260408083205490927f9f2df0fed2c77648de5860a4cc508cd0818c85b8b8a1ab4ceeef8d981c8956a69160ff16156142dc5750505050565b6142e5336147d9565b918451906142f282613d08565b6042825284820192606036853782511561411f576030845382519060019182101561411f5790607860218501536041915b8183116143775750505061406f5760486104da93869361405393614044985198899376020b1b1b2b9b9a1b7b73a3937b61d1030b1b1b7bab73a1604d1b8a860152610481815180928c603789019101613dd2565b909192600f8116601081101561410b576f181899199a1a9b1b9c1cb0b131b232b360811b901a6143a785876147c8565b5360041c9280156140f757600019019190614323565b600090808252602090600a8252604092838120338252835260ff8482205416156143e75750505050565b6143f0336147d9565b918451906143fd82613d08565b6042825284820192606036853782511561411f576030845382519060019182101561411f5790607860218501536041915b8183116144825750505061406f5760486104da93869361405393614044985198899376020b1b1b2b9b9a1b7b73a3937b61d1030b1b1b7bab73a1604d1b8a860152610481815180928c603789019101613dd2565b909192600f8116601081101561410b576f181899199a1a9b1b9c1cb0b131b232b360811b901a6144b285876147c8565b5360041c9280156140f75760001901919061442e565b90600091808352600a602052604083209160018060a01b03169182845260205260ff6040842054166144f957505050565b808352600a602052604083208284526020526040832060ff1981541690557ff6391f5c32d9c69d2a47ea670b442974b53935d1edc7fd64eb21e047a839171b339380a4565b9190820180921161056557565b90916001600160a01b03808316929083156146735784169384156146225761457291614fe7565b6000828152806020526040812054918083106145ce57604082827fddf252ad1be2c89b69c2b068fc378daa952ba7f163c4a11628f55a4df523b3ef958760209652828652038282205586815220818154019055604051908152a3565b60405162461bcd60e51b815260206004820152602660248201527f45524332303a207472616e7366657220616d6f756e7420657863656564732062604482015265616c616e636560d01b6064820152608490fd5b60405162461bcd60e51b815260206004820152602360248201527f45524332303a207472616e7366657220746f20746865207a65726f206164647260448201526265737360e81b6064820152608490fd5b60405162461bcd60e51b815260206004820152602560248201527f45524332303a207472616e736665722066726f6d20746865207a65726f206164604482015264647265737360d81b6064820152608490fd5b6001600160a01b0390811691821561477757169182156147275760207f8c5be1e5ebec7d5bd14f71427d1e84f3dd0314c0f7b2291e5b200ac8c7c3b925918360005260018252604060002085600052825280604060002055604051908152a3565b60405162461bcd60e51b815260206004820152602260248201527f45524332303a20617070726f766520746f20746865207a65726f206164647265604482015261737360f01b6064820152608490fd5b60405162461bcd60e51b8152602060048201526024808201527f45524332303a20617070726f76652066726f6d20746865207a65726f206164646044820152637265737360e01b6064820152608490fd5b90815181101561057b570160200190565b60405190606082018281106001600160401b0382111761117c57604052602a825260208201604036823782511561057b5760309053815160019081101561057b57607860218401536029905b8082116148795750506148355790565b606460405162461bcd60e51b815260206004820152602060248201527f537472696e67733a20686578206c656e67746820696e73756666696369656e746044820152fd5b9091600f811660108110156148d2576f181899199a1a9b1b9c1cb0b131b232b360811b901a6148a884866147c8565b5360041c9180156148bd576000190190614825565b60246000634e487b7160e01b81526011600452fd5b60246000634e487b7160e01b81526032600452fd5b60058110156149eb57806148f85750565b600181036149455760405162461bcd60e51b815260206004820152601860248201527f45434453413a20696e76616c6964207369676e617475726500000000000000006044820152606490fd5b600281036149925760405162461bcd60e51b815260206004820152601f60248201527f45434453413a20696e76616c6964207369676e6174757265206c656e677468006044820152606490fd5b60031461499b57565b60405162461bcd60e51b815260206004820152602260248201527f45434453413a20696e76616c6964207369676e6174757265202773272076616c604482015261756560f01b6064820152608490fd5b634e487b7160e01b600052602160045260246000fd5b9291907f7fffffffffffffffffffffffffffffff5d576e7357a4501ddfe92f46681b20a08311614a845791608094939160ff602094604051948552168484015260408301526060820152600093849182805260015afa15614a775781516001600160a01b03811615614a71579190565b50600190565b50604051903d90823e3d90fd5b50505050600090600390565b307f00000000000000000000000000000000000000000000000000000000000000006001600160a01b03161480614b91575b15614aeb577f000000000000000000000000000000000000000000000000000000000000000090565b60405160208101907f8b73c3c69bb8fe3d512ecc4cf759cc79239f7b179b0ffacaa9a75d522b39400f82527f000000000000000000000000000000000000000000000000000000000000000060408201527f000000000000000000000000000000000000000000000000000000000000000060608201524660808201523060a082015260a0815260c081018181106001600160401b0382111761117c5760405251902090565b507f00000000000000000000000000000000000000000000000000000000000000004614614ac2565b60ff8114614bf85760ff811690601f8211614be65760405191614bdc83613ced565b8252602082015290565b604051632cd44ac360e21b8152600490fd5b50604051600554816000614c0b83613e75565b80835292600190818116908115614c945750600114614c35575b50614c3292500382613d23565b90565b6005600090815291507f036b6384b5eca791c62761152d0c79bb0604c104a5fb6f4eb0703f3154bb3db05b848310614c795750614c32935050810160200138614c25565b81935090816020925483858901015201910190918492614c60565b905060209250614c3294915060ff191682840152151560051b82010138614c25565b60ff8114614cd85760ff811690601f8211614be65760405191614bdc83613ced565b50604051600654816000614ceb83613e75565b80835292600190818116908115614c945750600114614d115750614c3292500382613d23565b6006600090815291507ff652222313e28459528d920b65115c16c04f3efc82aaedc97be59f3f377c0d3f5b848310614d555750614c32935050810160200138614c25565b81935090816020925483858901015201910190918492614d3c565b15614d7757565b60405162461bcd60e51b815260206004820152601b60248201527f43616e6e6f74206d696e7420746f207a65726f206164647265737300000000006044820152606490fd5b15614dc357565b606460405162461bcd60e51b815260206004820152602060248201527f416d6f756e74206d7573742062652067726561746572207468616e207a65726f6044820152fd5b60001981146105655760010190565b60ff60095416614e2257565b60405162461bcd60e51b815260206004820152601060248201526f14185d5cd8589b194e881c185d5cd95960821b6044820152606490fd5b6001600160a01b0316908115614f1a5760ff60095416614ec2577fddf252ad1be2c89b69c2b068fc378daa952ba7f163c4a11628f55a4df523b3ef602082614ea660009460025461453e565b60025584845283825260408420818154019055604051908152a3565b60405162461bcd60e51b815260206004820152602a60248201527f45524332305061757361626c653a20746f6b656e207472616e736665722077686044820152691a5b19481c185d5cd95960b21b6064820152608490fd5b60405162461bcd60e51b815260206004820152601f60248201527f45524332303a206d696e7420746f20746865207a65726f2061646472657373006044820152606490fd5b60ff60095416614ec2576001600160a01b031680158015614fdf575b614fdc5760ff60105416614f8c5750565b6000818152600e60205260ff6040822054168015614fcb575b614fad575050565b6044925060405191637617407560e11b835260048301526024820152fd5b5080805260ff604082205416614fa5565b50565b506001614f7b565b60ff60095416614ec2576001600160a01b039081169182158015615074575b61506f5760ff6010541661501957505050565b82600052600e60205260ff60406000205416801561505a575b61503b57505050565b6044935060405192637617407560e11b84526004840152166024820152fd5b5081811660005260ff60406000205416615032565b505050565b5081811615615006565b80156151205780816000925b61510a575061509882613d44565b916150a66040519384613d23565b80835281601f196150b683613d44565b013660208601375b6150c757505090565b6000198101908111610565578091600a91603083830681018091116105655760f81b6001600160f81b03191660001a9061510190866147c8565b530490816150be565b9091615117600a91614e07565b9291048061508a565b5060405161512d81613ced565b60018152600360fc1b602082015290565b1561514557565b60405162461bcd60e51b8152602060048201526014602482015273105cdcd95d08191bd95cc81b9bdd08195e1a5cdd60621b6044820152606490fdfe589f5f1b831c2b1bb6368f38c84e2a21507d083cfa73f4d227d7f3d4895df766a264697066735822122048746a17e1d06c5d5185e20b95e6bf8ec16ab98de192f03ba4f6bf91d557162c64736f6c634300081400332f8788117e7eff1d82e926ec794901d17c78024a50270940304540a733656f0d",
  "linkReferences": {},
  "deployedLinkReferences": {}
}