{
  "_format": "hh-sol-artifact-1",
  "contractName": "CommodityToken",
  "sourceName": "contracts/CommodityToken.sol",
  "abi": [
    {
      "inputs": [
        {
          "internalType": "address",
          "name": "admin",
          "type": "address"
        }
      ],
      "stateMutability": "nonpayable",
      "type": "constructor"
    },
    {
      "inputs": [
        {
          "internalType": "uint256",
          "name": "assetId",
          "type": "uint256"
        }
      ],
      "name": "AssetNotExists",
      "type": "error"
    },
    {
      "inputs": [
        {
          "internalType": "address",
          "name": "account",
          "type": "address"
        }
      ],
      "name": "BlacklistedAddress",
      "type": "error"
    },
    {
      "inputs": [
        {
          "internalType": "uint256",
          "name": "requested",
          "type": "uint256"
        },
        {
          "internalType": "uint256",
          "name": "maxSupply",
          "type": "uint256"
        }
      ],
      "name": "ExceedsMaxSupply",
      "type": "error"
    },
    {
      "inputs": [
        {
          "internalType": "uint256",
          "name": "requested",
          "type": "uint256"
        },
        {
          "internalType": "uint256",
          "name": "available",
          "type": "uint256"
        }
      ],
      "name": "InsufficientAllowance",
      "type": "error"
    },
    {
      "inputs": [
        {
          "internalType": "uint256",
          "name": "value",
          "type": "uint256"
        }
      ],
      "name": "InvalidAppraisalValue",
      "type": "error"
    },
    {
      "inputs": [],
      "name": "InvalidShortString",
      "type": "error"
    },
    {
      "inputs": [
        {
          "internalType": "string",
          "name": "str",
          "type": "string"
        }
      ],
      "name": "StringTooLong",
      "type": "error"
    },
    {
      "inputs": [
        {
          "internalType": "address",
          "name": "from",
          "type": "address"
        },
        {
          "internalType": "address",
          "name": "to",
          "type": "address"
        }
      ],
      "name": "UnauthorizedTransfer",
      "type": "error"
    },
    {
      "anonymous": false,
      "inputs": [
        {
          "indexed": true,
          "internalType": "address",
          "name": "owner",
          "type": "address"
        },
        {
          "indexed": true,
          "internalType": "address",
          "name": "spender",
          "type": "address"
        },
        {
          "indexed": false,
          "internalType": "uint256",
          "name": "value",
          "type": "uint256"
        }
      ],
      "name": "Approval",
      "type": "event"
    },
    {
      "anonymous": false,
      "inputs": [
        {
          "indexed": true,
          "internalType": "uint256",
          "name": "assetId",
          "type": "uint256"
        },
        {
          "indexed": false,
          "internalType": "string",
          "name": "field",
          "type": "string"
        },
        {
          "indexed": false,
          "internalType": "string",
          "name": "newValue",
          "type": "string"
        }
      ],
      "name": "AssetMetadataUpdated",
      "type": "event"
    },
    {
      "anonymous": false,
      "inputs": [
        {
          "indexed": true,
          "internalType": "uint256",
          "name": "assetId",
          "type": "uint256"
        },
        {
          "indexed": true,
          "internalType": "address",
          "name": "owner",
          "type": "address"
        },
        {
          "indexed": false,
          "internalType": "uint256",
          "name": "amount",
          "type": "uint256"
        },
        {
          "indexed": false,
          "internalType": "string",
          "name": "assetType",
          "type": "string"
        },
        {
          "indexed": false,
          "internalType": "uint256",
          "name": "appraisedValue",
          "type": "uint256"
        }
      ],
      "name": "AssetTokenized",
      "type": "event"
    },
    {
      "anonymous": false,
      "inputs": [
        {
          "indexed": true,
          "internalType": "uint256",
          "name": "assetId",
          "type": "uint256"
        },
        {
          "indexed": false,
          "internalType": "string",
          "name": "commodityType",
          "type": "string"
        },
        {
          "indexed": false,
          "internalType": "uint256",
          "name": "quantity",
          "type": "uint256"
        },
        {
          "indexed": false,
          "internalType": "string",
          "name": "unit",
          "type": "string"
        },
        {
          "indexed": false,
          "internalType": "string",
          "name": "origin",
          "type": "string"
        }
      ],
      "name": "CommodityTokenized",
      "type": "event"
    },
    {
      "anonymous": false,
      "inputs": [
        {
          "indexed": true,
          "internalType": "address",
          "name": "account",
          "type": "address"
        },
        {
          "indexed": false,
          "internalType": "bool",
          "name": "blacklisted",
          "type": "bool"
        }
      ],
      "name": "ComplianceStatusChanged",
      "type": "event"
    },
    {
      "anonymous": false,
      "inputs": [],
      "name": "EIP712DomainChanged",
      "type": "event"
    },
    {
      "anonymous": false,
      "inputs": [
        {
          "indexed": false,
          "internalType": "address",
          "name": "account",
          "type": "address"
        }
      ],
      "name": "Paused",
      "type": "event"
    },
    {
      "anonymous": false,
      "inputs": [
        {
          "indexed": false,
          "internalType": "string",
          "name": "commodityType",
          "type": "string"
        },
        {
          "indexed": false,
          "internalType": "uint256",
          "name": "newPrice",
          "type": "uint256"
        },
        {
          "indexed": false,
          "internalType": "uint256",
          "name": "timestamp",
          "type": "uint256"
        }
      ],
      "name": "PriceUpdated",
      "type": "event"
    },
    {
      "anonymous": false,
      "inputs": [
        {
          "indexed": true,
          "internalType": "bytes32",
          "name": "role",
          "type": "bytes32"
        },
        {
          "indexed": true,
          "internalType": "bytes32",
          "name": "previousAdminRole",
          "type": "bytes32"
        },
        {
          "indexed": true,
          "internalType": "bytes32",
          "name": "newAdminRole",
          "type": "bytes32"
        }
      ],
      "name": "RoleAdminChanged",
      "type": "event"
    },
    {
      "anonymous": false,
      "inputs": [
        {
          "indexed": true,
          "internalType": "bytes32",
          "name": "role",
          "type": "bytes32"
        },
        {
          "indexed": true,
          "internalType": "address",
          "name": "account",
          "type": "address"
        },
        {
          "indexed": true,
          "internalType": "address",
          "name": "sender",
          "type": "address"
        }
      ],
      "name": "RoleGranted",
      "type": "event"
    },
    {
      "anonymous": false,
      "inputs": [
        {
          "indexed": true,
          "internalType": "bytes32",
          "name": "role",
          "type": "bytes32"
        },
        {
          "indexed": true,
          "internalType": "address",
          "name": "account",
          "type": "address"
        },
        {
          "indexed": true,
          "internalType": "address",
          "name": "sender",
          "type": "address"
        }
      ],
      "name": "RoleRevoked",
      "type": "event"
    },
    {
      "anonymous": false,
      "inputs": [
        {
          "indexed": false,
          "internalType": "uint256",
          "name": "oldCap",
          "type": "uint256"
        },
        {
          "indexed": false,
          "internalType": "uint256",
          "name": "newCap",
          "type": "uint256"
        }
      ],
      "name": "SupplyCapUpdated",
      "type": "event"
    },
    {
      "anonymous": false,
      "inputs": [
        {
          "indexed": true,
          "internalType": "address",
          "name": "from",
          "type": "address"
        },
        {
          "indexed": true,
          "internalType": "address",
          "name": "to",
          "type": "address"
        },
        {
          "indexed": false,
          "internalType": "uint256",
          "name": "value",
          "type": "uint256"
        }
      ],
      "name": "Transfer",
      "type": "event"
    },
    {
      "anonymous": false,
      "inputs": [
        {
          "indexed": false,
          "internalType": "address",
          "name": "account",
          "type": "address"
        }
      ],
      "name": "Unpaused",
      "type": "event"
    },
    {
      "inputs": [],
      "name": "COMPLIANCE_ROLE",
      "outputs": [
        {
          "internalType": "bytes32",
          "name": "",
          "type": "bytes32"
        }
      ],
      "stateMutability": "view",
      "type": "function"
    },
    {
      "inputs": [],
      "name": "DEFAULT_ADMIN_ROLE",
      "outputs": [
        {
          "internalType": "bytes32",
          "name": "",
          "type": "bytes32"
        }
      ],
      "stateMutability": "view",
      "type": "function"
    },
    {
      "inputs": [],
      "name": "DOMAIN_SEPARATOR",
      "outputs": [
        {
          "internalType": "bytes32",
          "name": "",
          "type": "bytes32"
        }
      ],
      "stateMutability": "view",
      "type": "function"
    },
    {
      "inputs": [],
      "name": "MINTER_ROLE",
      "outputs": [
        {
          "internalType": "bytes32",
          "name": "",
          "type": "bytes32"
        }
      ],
      "stateMutability": "view",
      "type": "function"
    },
    {
      "inputs": [],
      "name": "PAUSER_ROLE",
      "outputs": [
        {
          "internalType": "bytes32",
          "name": "",
          "type": "bytes32"
        }
      ],
      "stateMutability": "view",
      "type": "function"
    },
    {
      "inputs": [
        {
          "internalType": "uint256",
          "name": "assetId",
          "type": "uint256"
        },
        {
          "internalType": "string",
          "name": "qualityReport",
          "type": "string"
        }
      ],
      "name": "addQualityReport",
      "outputs": [],
      "stateMutability": "nonpayable",
      "type": "function"
    },
    {
      "inputs": [
        {
          "internalType": "address",
          "name": "owner",
          "type": "address"
        },
        {
          "internalType": "address",
          "name": "spender",
          "type": "address"
        }
      ],
      "name": "allowance",
      "outputs": [
        {
          "internalType": "uint256",
          "name": "",
          "type": "uint256"
        }
      ],
      "stateMutability": "view",
      "type": "function"
    },
    {
      "inputs": [
        {
          "internalType": "address",
          "name": "spender",
          "type": "address"
        },
        {
          "internalType": "uint256",
          "name": "amount",
          "type": "uint256"
        }
      ],
      "name": "approve",
      "outputs": [
        {
          "internalType": "bool",
          "name": "",
          "type": "bool"
        }
      ],
      "stateMutability": "nonpayable",
      "type": "function"
    },
    {
      "inputs": [
        {
          "internalType": "uint256",
          "name": "",
          "type": "uint256"
        }
      ],
      "name": "assets",
      "outputs": [
        {
          "internalType": "string",
          "name": "assetType",
          "type": "string"
        },
        {
          "internalType": "string",
          "name": "description",
          "type": "string"
        },
        {
          "internalType": "string",
          "name": "location",
          "type": "string"
        },
        {
          "internalType": "uint256",
          "name": "appraisedValue",
          "type": "uint256"
        },
        {
          "internalType": "uint256",
          "name": "appraisalDate",
          "type": "uint256"
        },
        {
          "internalType": "string",
          "name": "appraisalCompany",
          "type": "string"
        },
        {
          "internalType": "string",
          "name": "documentHash",
          "type": "string"
        },
        {
          "internalType": "bool",
          "name": "isVerified",
          "type": "bool"
        },
        {
          "internalType": "uint256",
          "name": "createdAt",
          "type": "uint256"
        }
      ],
      "stateMutability": "view",
      "type": "function"
    },
    {
      "inputs": [
        {
          "internalType": "address",
          "name": "account",
          "type": "address"
        }
      ],
      "name": "balanceOf",
      "outputs": [
        {
          "internalType": "uint256",
          "name": "",
          "type": "uint256"
        }
      ],
      "stateMutability": "view",
      "type": "function"
    },
    {
      "inputs": [
        {
          "internalType": "address",
          "name": "",
          "type": "address"
        }
      ],
      "name": "blacklistedAddresses",
      "outputs": [
        {
          "internalType": "bool",
          "name": "",
          "type": "bool"
        }
      ],
      "stateMutability": "view",
      "type": "function"
    },
    {
      "inputs": [
        {
          "internalType": "address",
          "name": "from",
          "type": "address"
        },
        {
          "internalType": "uint256",
          "name": "amount",
          "type": "uint256"
        }
      ],
      "name": "burnFrom",
      "outputs": [],
      "stateMutability": "nonpayable",
      "type": "function"
    },
    {
      "inputs": [
        {
          "internalType": "uint256",
          "name": "assetId",
          "type": "uint256"
        }
      ],
      "name": "calculateMarketValue",
      "outputs": [
        {
          "internalType": "uint256",
          "name": "",
          "type": "uint256"
        }
      ],
      "stateMutability": "view",
      "type": "function"
    },
    {
      "inputs": [
        {
          "internalType": "uint256",
          "name": "",
          "type": "uint256"
        }
      ],
      "name": "commodityData",
      "outputs": [
        {
          "internalType": "string",
          "name": "commodityType",
          "type": "string"
        },
        {
          "internalType": "string",
          "name": "grade",
          "type": "string"
        },
        {
          "internalType": "uint256",
          "name": "quantity",
          "type": "uint256"
        },
        {
          "internalType": "string",
          "name": "unit",
          "type": "string"
        },
        {
          "internalType": "string",
          "name": "origin",
          "type": "string"
        },
        {
          "internalType": "uint256",
          "name": "harvestDate",
          "type": "uint256"
        },
        {
          "internalType": "uint256",
          "name": "expiryDate",
          "type": "uint256"
        },
        {
          "internalType": "string",
          "name": "storageLocation",
          "type": "string"
        },
        {
          "internalType": "string",
          "name": "storageConditions",
          "type": "string"
        },
        {
          "internalType": "bool",
          "name": "isOrganic",
          "type": "bool"
        },
        {
          "internalType": "string",
          "name": "certifications",
          "type": "string"
        },
        {
          "internalType": "string",
          "name": "qualityReports",
          "type": "string"
        }
      ],
      "stateMutability": "view",
      "type": "function"
    },
    {
      "inputs": [],
      "name": "complianceEnabled",
      "outputs": [
        {
          "internalType": "bool",
          "name": "",
          "type": "bool"
        }
      ],
      "stateMutability": "view",
      "type": "function"
    },
    {
      "inputs": [],
      "name": "decimals",
      "outputs": [
        {
          "internalType": "uint8",
          "name": "",
          "type": "uint8"
        }
      ],
      "stateMutability": "view",
      "type": "function"
    },
    {
      "inputs": [
        {
          "internalType": "address",
          "name": "spender",
          "type": "address"
        },
        {
          "internalType": "uint256",
          "name": "subtractedValue",
          "type": "uint256"
        }
      ],
      "name": "decreaseAllowance",
      "outputs": [
        {
          "internalType": "bool",
          "name": "",
          "type": "bool"
        }
      ],
      "stateMutability": "nonpayable",
      "type": "function"
    },
    {
      "inputs": [],
      "name": "eip712Domain",
      "outputs": [
        {
          "internalType": "bytes1",
          "name": "fields",
          "type": "bytes1"
        },
        {
          "internalType": "string",
          "name": "name",
          "type": "string"
        },
        {
          "internalType": "string",
          "name": "version",
          "type": "string"
        },
        {
          "internalType": "uint256",
          "name": "chainId",
          "type": "uint256"
        },
        {
          "internalType": "address",
          "name": "verifyingContract",
          "type": "address"
        },
        {
          "internalType": "bytes32",
          "name": "salt",
          "type": "bytes32"
        },
        {
          "internalType": "uint256[]",
          "name": "extensions",
          "type": "uint256[]"
        }
      ],
      "stateMutability": "view",
      "type": "function"
    },
    {
      "inputs": [
        {
          "internalType": "uint256",
          "name": "assetId",
          "type": "uint256"
        }
      ],
      "name": "getAssetMetadata",
      "outputs": [
        {
          "components": [
            {
              "internalType": "string",
              "name": "assetType",
              "type": "string"
            },
            {
              "internalType": "string",
              "name": "description",
              "type": "string"
            },
            {
              "internalType": "string",
              "name": "location",
              "type": "string"
            },
            {
              "internalType": "uint256",
              "name": "appraisedValue",
              "type": "uint256"
            },
            {
              "internalType": "uint256",
              "name": "appraisalDate",
              "type": "uint256"
            },
            {
              "internalType": "string",
              "name": "appraisalCompany",
              "type": "string"
            },
            {
              "internalType": "string",
              "name": "documentHash",
              "type": "string"
            },
            {
              "internalType": "bool",
              "name": "isVerified",
              "type": "bool"
            },
            {
              "internalType": "uint256",
              "name": "createdAt",
              "type": "uint256"
            }
          ],
          "internalType": "struct IAssetMetadata.AssetMetadata",
          "name": "",
          "type": "tuple"
        }
      ],
      "stateMutability": "view",
      "type": "function"
    },
    {
      "inputs": [
        {
          "internalType": "string",
          "name": "commodityType",
          "type": "string"
        }
      ],
      "name": "getCommoditiesByType",
      "outputs": [
        {
          "internalType": "uint256[]",
          "name": "",
          "type": "uint256[]"
        }
      ],
      "stateMutability": "view",
      "type": "function"
    },
    {
      "inputs": [
        {
          "internalType": "uint256",
          "name": "assetId",
          "type": "uint256"
        }
      ],
      "name": "getCommodityData",
      "outputs": [
        {
          "components": [
            {
              "internalType": "string",
              "name": "commodityType",
              "type": "string"
            },
            {
              "internalType": "string",
              "name": "grade",
              "type": "string"
            },
            {
              "internalType": "uint256",
              "name": "quantity",
              "type": "uint256"
            },
            {
              "internalType": "string",
              "name": "unit",
              "type": "string"
            },
            {
              "internalType": "string",
              "name": "origin",
              "type": "string"
            },
            {
              "internalType": "uint256",
              "name": "harvestDate",
              "type": "uint256"
            },
            {
              "internalType": "uint256",
              "name": "expiryDate",
              "type": "uint256"
            },
            {
              "internalType": "string",
              "name": "storageLocation",
              "type": "string"
            },
            {
              "internalType": "string",
              "name": "storageConditions",
              "type": "string"
            },
            {
              "internalType": "bool",
              "name": "isOrganic",
              "type": "bool"
            },
            {
              "internalType": "string",
              "name": "certifications",
              "type": "string"
            },
            {
              "internalType": "string",
              "name": "qualityReports",
              "type": "string"
            }
          ],
          "internalType": "struct CommodityToken.CommodityData",
          "name": "",
          "type": "tuple"
        }
      ],
      "stateMutability": "view",
      "type": "function"
    },
    {
      "inputs": [
        {
          "internalType": "string",
          "name": "commodityType",
          "type": "string"
        }
      ],
      "name": "getCommodityPrice",
      "outputs": [
        {
          "internalType": "uint256",
          "name": "price",
          "type": "uint256"
        },
        {
          "internalType": "uint256",
          "name": "updatedAt",
          "type": "uint256"
        }
      ],
      "stateMutability": "view",
      "type": "function"
    },
    {
      "inputs": [],
      "name": "getCurrentAssetId",
      "outputs": [
        {
          "internalType": "uint256",
          "name": "",
          "type": "uint256"
        }
      ],
      "stateMutability": "view",
      "type": "function"
    },
    {
      "inputs": [
        {
          "internalType": "address",
          "name": "owner",
          "type": "address"
        }
      ],
      "name": "getOwnerAssets",
      "outputs": [
        {
          "internalType": "uint256[]",
          "name": "",
          "type": "uint256[]"
        }
      ],
      "stateMutability": "view",
      "type": "function"
    },
    {
      "inputs": [
        {
          "internalType": "bytes32",
          "name": "role",
          "type": "bytes32"
        }
      ],
      "name": "getRoleAdmin",
      "outputs": [
        {
          "internalType": "bytes32",
          "name": "",
          "type": "bytes32"
        }
      ],
      "stateMutability": "view",
      "type": "function"
    },
    {
      "inputs": [
        {
          "internalType": "bytes32",
          "name": "role",
          "type": "bytes32"
        },
        {
          "internalType": "address",
          "name": "account",
          "type": "address"
        }
      ],
      "name": "grantRole",
      "outputs": [],
      "stateMutability": "nonpayable",
      "type": "function"
    },
    {
      "inputs": [
        {
          "internalType": "bytes32",
          "name": "role",
          "type": "bytes32"
        },
        {
          "internalType": "address",
          "name": "account",
          "type": "address"
        }
      ],
      "name": "hasRole",
      "outputs": [
        {
          "internalType": "bool",
          "name": "",
          "type": "bool"
        }
      ],
      "stateMutability": "view",
      "type": "function"
    },
    {
      "inputs": [
        {
          "internalType": "address",
          "name": "spender",
          "type": "address"
        },
        {
          "internalType": "uint256",
          "name": "addedValue",
          "type": "uint256"
        }
      ],
      "name": "increaseAllowance",
      "outputs": [
        {
          "internalType": "bool",
          "name": "",
          "type": "bool"
        }
      ],
      "stateMutability": "nonpayable",
      "type": "function"
    },
    {
      "inputs": [
        {
          "internalType": "uint256",
          "name": "assetId",
          "type": "uint256"
        }
      ],
      "name": "isExpired",
      "outputs": [
        {
          "internalType": "bool",
          "name": "",
          "type": "bool"
        }
      ],
      "stateMutability": "view",
      "type": "function"
    },
    {
      "inputs": [
        {
          "internalType": "string",
          "name": "",
          "type": "string"
        }
      ],
      "name": "lastKnownPrices",
      "outputs": [
        {
          "internalType": "uint256",
          "name": "",
          "type": "uint256"
        }
      ],
      "stateMutability": "view",
      "type": "function"
    },
    {
      "inputs": [],
      "name": "maxSupply",
      "outputs": [
        {
          "internalType": "uint256",
          "name": "",
          "type": "uint256"
        }
      ],
      "stateMutability": "view",
      "type": "function"
    },
    {
      "inputs": [
        {
          "internalType": "address",
          "name": "to",
          "type": "address"
        },
        {
          "internalType": "uint256",
          "name": "amount",
          "type": "uint256"
        }
      ],
      "name": "mint",
      "outputs": [],
      "stateMutability": "nonpayable",
      "type": "function"
    },
    {
      "inputs": [
        {
          "internalType": "address",
          "name": "to",
          "type": "address"
        },
        {
          "internalType": "uint256",
          "name": "amount",
          "type": "uint256"
        },
        {
          "internalType": "string",
          "name": "assetType",
          "type": "string"
        },
        {
          "internalType": "string",
          "name": "description",
          "type": "string"
        },
        {
          "internalType": "string",
          "name": "location",
          "type": "string"
        },
        {
          "internalType": "uint256",
          "name": "appraisedValue",
          "type": "uint256"
        },
        {
          "internalType": "string",
          "name": "appraisalCompany",
          "type": "string"
        },
        {
          "internalType": "string",
          "name": "documentHash",
          "type": "string"
        }
      ],
      "name": "mintAsset",
      "outputs": [
        {
          "internalType": "uint256",
          "name": "",
          "type": "uint256"
        }
      ],
      "stateMutability": "nonpayable",
      "type": "function"
    },
    {
      "inputs": [
        {
          "internalType": "address",
          "name": "to",
          "type": "address"
        },
        {
          "internalType": "uint256",
          "name": "amount",
          "type": "uint256"
        },
        {
          "internalType": "string",
          "name": "description",
          "type": "string"
        },
        {
          "internalType": "string",
          "name": "location",
          "type": "string"
        },
        {
          "internalType": "uint256",
          "name": "appraisedValue",
          "type": "uint256"
        },
        {
          "internalType": "string",
          "name": "appraisalCompany",
          "type": "string"
        },
        {
          "internalType": "string",
          "name": "documentHash",
          "type": "string"
        },
        {
          "internalType": "string",
          "name": "commodityType",
          "type": "string"
        },
        {
          "internalType": "string",
          "name": "grade",
          "type": "string"
        },
        {
          "internalType": "uint256",
          "name": "quantity",
          "type": "uint256"
        },
        {
          "internalType": "string",
          "name": "unit",
          "type": "string"
        },
        {
          "internalType": "string",
          "name": "origin",
          "type": "string"
        },
        {
          "internalType": "uint256",
          "name": "harvestDate",
          "type": "uint256"
        },
        {
          "internalType": "uint256",
          "name": "expiryDate",
          "type": "uint256"
        },
        {
          "internalType": "string",
          "name": "storageLocation",
          "type": "string"
        },
        {
          "internalType": "string",
          "name": "storageConditions",
          "type": "string"
        },
        {
          "internalType": "bool",
          "name": "isOrganic",
          "type": "bool"
        },
        {
          "internalType": "string",
          "name": "certifications",
          "type": "string"
        },
        {
          "internalType": "string",
          "name": "qualityReports",
          "type": "string"
        }
      ],
      "name": "mintCommodity",
      "outputs": [
        {
          "internalType": "uint256",
          "name": "",
          "type": "uint256"
        }
      ],
      "stateMutability": "nonpayable",
      "type": "function"
    },
    {
      "inputs": [],
      "name": "name",
      "outputs": [
        {
          "internalType": "string",
          "name": "",
          "type": "string"
        }
      ],
      "stateMutability": "view",
      "type": "function"
    },
    {
      "inputs": [
        {
          "internalType": "address",
          "name": "owner",
          "type": "address"
        }
      ],
      "name": "nonces",
      "outputs": [
        {
          "internalType": "uint256",
          "name": "",
          "type": "uint256"
        }
      ],
      "stateMutability": "view",
      "type": "function"
    },
    {
      "inputs": [
        {
          "internalType": "address",
          "name": "",
          "type": "address"
        },
        {
          "internalType": "uint256",
          "name": "",
          "type": "uint256"
        }
      ],
      "name": "ownerAssets",
      "outputs": [
        {
          "internalType": "uint256",
          "name": "",
          "type": "uint256"
        }
      ],
      "stateMutability": "view",
      "type": "function"
    },
    {
      "inputs": [],
      "name": "pause",
      "outputs": [],
      "stateMutability": "nonpayable",
      "type": "function"
    },
    {
      "inputs": [],
      "name": "paused",
      "outputs": [
        {
          "internalType": "bool",
          "name": "",
          "type": "bool"
        }
      ],
      "stateMutability": "view",
      "type": "function"
    },
    {
      "inputs": [
        {
          "internalType": "address",
          "name": "owner",
          "type": "address"
        },
        {
          "internalType": "address",
          "name": "spender",
          "type": "address"
        },
        {
          "internalType": "uint256",
          "name": "value",
          "type": "uint256"
        },
        {
          "internalType": "uint256",
          "name": "deadline",
          "type": "uint256"
        },
        {
          "internalType": "uint8",
          "name": "v",
          "type": "uint8"
        },
        {
          "internalType": "bytes32",
          "name": "r",
          "type": "bytes32"
        },
        {
          "internalType": "bytes32",
          "name": "s",
          "type": "bytes32"
        }
      ],
      "name": "permit",
      "outputs": [],
      "stateMutability": "nonpayable",
      "type": "function"
    },
    {
      "inputs": [
        {
          "internalType": "string",
          "name": "",
          "type": "string"
        }
      ],
      "name": "priceUpdatedAt",
      "outputs": [
        {
          "internalType": "uint256",
          "name": "",
          "type": "uint256"
        }
      ],
      "stateMutability": "view",
      "type": "function"
    },
    {
      "inputs": [
        {
          "internalType": "bytes32",
          "name": "role",
          "type": "bytes32"
        },
        {
          "internalType": "address",
          "name": "account",
          "type": "address"
        }
      ],
      "name": "renounceRole",
      "outputs": [],
      "stateMutability": "nonpayable",
      "type": "function"
    },
    {
      "inputs": [
        {
          "internalType": "bytes32",
          "name": "role",
          "type": "bytes32"
        },
        {
          "internalType": "address",
          "name": "account",
          "type": "address"
        }
      ],
      "name": "revokeRole",
      "outputs": [],
      "stateMutability": "nonpayable",
      "type": "function"
    },
    {
      "inputs": [
        {
          "internalType": "address",
          "name": "account",
          "type": "address"
        },
        {
          "internalType": "bool",
          "name": "blacklisted",
          "type": "bool"
        }
      ],
      "name": "setBlacklisted",
      "outputs": [],
      "stateMutability": "nonpayable",
      "type": "function"
    },
    {
      "inputs": [
        {
          "internalType": "bool",
          "name": "enabled",
          "type": "bool"
        }
      ],
      "name": "setComplianceEnabled",
      "outputs": [],
      "stateMutability": "nonpayable",
      "type": "function"
    },
    {
      "inputs": [
        {
          "internalType": "address",
          "name": "account",
          "type": "address"
        },
        {
          "internalType": "bool",
          "name": "whitelisted",
          "type": "bool"
        }
      ],
      "name": "setWhitelisted",
      "outputs": [],
      "stateMutability": "nonpayable",
      "type": "function"
    },
    {
      "inputs": [
        {
          "internalType": "bytes4",
          "name": "interfaceId",
          "type": "bytes4"
        }
      ],
      "name": "supportsInterface",
      "outputs": [
        {
          "internalType": "bool",
          "name": "",
          "type": "bool"
        }
      ],
      "stateMutability": "view",
      "type": "function"
    },
    {
      "inputs": [],
      "name": "symbol",
      "outputs": [
        {
          "internalType": "string",
          "name": "",
          "type": "string"
        }
      ],
      "stateMutability": "view",
      "type": "function"
    },
    {
      "inputs": [],
      "name": "totalSupply",
      "outputs": [
        {
          "internalType": "uint256",
          "name": "",
          "type": "uint256"
        }
      ],
      "stateMutability": "view",
      "type": "function"
    },
    {
      "inputs": [
        {
          "internalType": "address",
          "name": "to",
          "type": "address"
        },
        {
          "internalType": "uint256",
          "name": "amount",
          "type": "uint256"
        }
      ],
      "name": "transfer",
      "outputs": [
        {
          "internalType": "bool",
          "name": "",
          "type": "bool"
        }
      ],
      "stateMutability": "nonpayable",
      "type": "function"
    },
    {
      "inputs": [
        {
          "internalType": "address",
          "name": "from",
          "type": "address"
        },
        {
          "internalType": "address",
          "name": "to",
          "type": "address"
        },
        {
          "internalType": "uint256",
          "name": "amount",
          "type": "uint256"
        }
      ],
      "name": "transferFrom",
      "outputs": [
        {
          "internalType": "bool",
          "name": "",
          "type": "bool"
        }
      ],
      "stateMutability": "nonpayable",
      "type": "function"
    },
    {
      "inputs": [],
      "name": "unpause",
      "outputs": [],
      "stateMutability": "nonpayable",
      "type": "function"
    },
    {
      "inputs": [
        {
          "internalType": "uint256",
          "name": "assetId",
          "type": "uint256"
        },
        {
          "internalType": "uint256",
          "name": "newValue",
          "type": "uint256"
        },
        {
          "internalType": "string",
          "name": "newAppraisalCompany",
          "type": "string"
        }
      ],
      "name": "updateAppraisedValue",
      "outputs": [],
      "stateMutability": "nonpayable",
      "type": "function"
    },
    {
      "inputs": [
        {
          "internalType": "uint256",
          "name": "assetId",
          "type": "uint256"
        },
        {
          "internalType": "string",
          "name": "field",
          "type": "string"
        },
        {
          "internalType": "string",
          "name": "newValue",
          "type": "string"
        }
      ],
      "name": "updateAssetMetadata",
      "outputs": [],
      "stateMutability": "nonpayable",
      "type": "function"
    },
    {
      "inputs": [
        {
          "internalType": "string",
          "name": "commodityType",
          "type": "string"
        },
        {
          "internalType": "uint256",
          "name": "newPrice",
          "type": "uint256"
        }
      ],
      "name": "updateCommodityPrice",
      "outputs": [],
      "stateMutability": "nonpayable",
      "type": "function"
    },
    {
      "inputs": [
        {
          "internalType": "uint256",
          "name": "newMaxSupply",
          "type": "uint256"
        }
      ],
      "name": "updateMaxSupply",
      "outputs": [],
      "stateMutability": "nonpayable",
      "type": "function"
    },
    {
      "inputs": [
        {
          "internalType": "uint256",
          "name": "assetId",
          "type": "uint256"
        },
        {
          "internalType": "string",
          "name": "newLocation",
          "type": "string"
        }
      ],
      "name": "updateStorageLocation",
      "outputs": [],
      "stateMutability": "nonpayable",
      "type": "function"
    },
    {
      "inputs": [
        {
          "internalType": "uint256",
          "name": "assetId",
          "type": "uint256"
        }
      ],
      "name": "verifyAsset",
      "outputs": [],
      "stateMutability": "nonpayable",
      "type": "function"
    },
    {
      "inputs": [
        {
          "internalType": "address",
          "name": "",
          "type": "address"
        }
      ],
      "name": "whitelistedAddresses",
      "outputs": [
        {
          "internalType": "bool",
          "name": "",
          "type": "bool"
        }
      ],
      "stateMutability": "view",
      "type": "function"
    }
  ],
  "bytecode": "0x610160346200077f57601f6200712e38819003918201601f19168301916001600160401b038311848410176200055f578084926020946040528339810103126200077f57516001600160a01b03811681036200077f57604051620000638162000784565b600f81526e21b7b6b6b7b234ba3c902a37b5b2b760891b6020820152604051916200008e8362000784565b6003835262434f4d60e81b602084015260405191620000ad8362000784565b60018352603160f81b602084015280516001600160401b0381116200055f57600354600181811c9116801562000774575b60208210146200065457601f81116200070a575b50806020601f8211600114620006815760009162000675575b508160011b916000199060031b1c1916176003555b83516001600160401b0381116200055f57600454600181811c911680156200066a575b60208210146200065457601f8111620005ee575b50602094601f8211600114620005815794819293949560009262000575575b50508160011b916000199060031b1c1916176004555b6200019781620007a0565b91610120928352620001a98462000964565b9161014092835260208151910120938460e05260208151910120610100948186524660a0526040519160208301917f8b73c3c69bb8fe3d512ecc4cf759cc79239f7b179b0ffacaa9a75d522b39400f8352604084015260608301524660808301523060a083015260a0825260c082019082821060018060401b038311176200055f5781604052825190206080523060c05260ff199182600954166009556001600b55600183601054161760105560018060a01b038416156200051b5750506001600160a01b03821660009081527f13da86008ba1c6922daee3e07db95305ef49ebced9f5467a0b8613fcc6b343e36020526040902054600a919060ff1615620004d7575b7f9f2df0fed2c77648de5860a4cc508cd0818c85b8b8a1ab4ceeef8d981c8956a66000818152602084815260408083206001600160a01b038816845290915290205460ff161562000490575b507f65d7a28e3265b37a6474929f336521b332c1681b933f6cb9f3376673440d862a6000818152602084815260408083206001600160a01b038816845290915290205460ff161562000449575b507f442a94f1a1fac79af32856af2a64f63648cfa2ef3b98610a5bb7cbec4cee6985918260005280602052604060002060018060a01b03851660005260205260ff6040600020541615620003f7575b505050506a01a784379d99db420000006012556001601155604051916165f1938462000b1d853960805184615cb7015260a05184615d82015260c05184615c81015260e05184615d0601525183615d2c01525182611ef501525181611f1e0152f35b82600052602052604060002060018060a01b0384166000526020526001604060002091825416179055339160018060a01b0316906000805160206200710e833981519152600080a43880808062000395565b6000818152602084815260408083206001600160a01b03881680855292528220805485166001179055339290916000805160206200710e8339815191529080a43862000346565b6000818152602084815260408083206001600160a01b03881680855292528220805485166001179055339290916000805160206200710e8339815191529080a438620002f9565b6000808052602083815260408083206001600160a01b0387168085529252822080548416600117905533916000805160206200710e8339815191528180a4620002ad565b62461bcd60e51b8252602060c4820152601560e48201527f496e76616c69642061646d696e2061646472657373000000000000000000000061010490910152606490fd5b634e487b7160e01b600052604160045260246000fd5b01519050388062000176565b601f19821695600460005260206000209160005b888110620005d557508360019596979810620005bb575b505050811b016004556200018c565b015160001960f88460031b161c19169055388080620005ac565b9192602060018192868501518155019401920162000595565b60046000527f8a35acfbc15ff81a39ae7d344fd709f28e8600b4aa8c65c6b64bfe7fe36bd19b601f830160051c8101602084106200064c575b601f830160051c820181106200063f57505062000157565b6000815560010162000627565b508062000627565b634e487b7160e01b600052602260045260246000fd5b90607f169062000143565b9050820151386200010b565b600360009081527fc2575a0e9e593c00f959f8c92f12db2869c3395a3b0502d05e2516446f71f85b9250601f198416905b818110620006f157509083600194939210620006d7575b5050811b0160035562000120565b84015160001960f88460031b161c191690553880620006c9565b91926020600181928689015181550194019201620006b2565b60036000527fc2575a0e9e593c00f959f8c92f12db2869c3395a3b0502d05e2516446f71f85b601f830160051c8101916020841062000769575b601f0160051c01905b8181106200075c5750620000f2565b600081556001016200074d565b909150819062000744565b90607f1690620000de565b600080fd5b604081019081106001600160401b038211176200055f57604052565b805160209190828110156200083f575090601f825111620007de5780825192015190808310620007cf57501790565b82600019910360031b1b161790565b90604051809263305a27a960e01b82528060048301528251908160248401526000935b82851062000825575050604492506000838284010152601f80199101168101030190fd5b848101820151868601604401529381019385935062000801565b6001600160401b0381116200055f576005928354926001938481811c9116801562000959575b838210146200065457601f811162000922575b5081601f8411600114620008b85750928293918392600094620008ac575b50501b916000199060031b1c191617905560ff90565b01519250388062000896565b919083601f1981168760005284600020946000905b88838310620009075750505010620008ed575b505050811b01905560ff90565b015160001960f88460031b161c19169055388080620008e0565b858701518855909601959485019487935090810190620008cd565b8560005284601f846000209201871c820191601f8601881c015b8281106200094c57505062000878565b600081550185906200093c565b90607f169062000865565b805160209081811015620009f25750601f825111620009915780825192015190808310620007cf57501790565b90604051809263305a27a960e01b82528060048301528251908160248401526000935b828510620009d8575050604492506000838284010152601f80199101168101030190fd5b8481018201518686016044015293810193859350620009b4565b906001600160401b0382116200055f57600654926001938481811c9116801562000b11575b838210146200065457601f811162000ad7575b5081601f841160011462000a6b575092829391839260009462000a5f575b50501b916000199060031b1c19161760065560ff90565b01519250388062000a48565b919083601f198116600660005284600020946000905b8883831062000abc575050501062000aa2575b505050811b0160065560ff90565b015160001960f88460031b161c1916905538808062000a94565b85870151885590960195948501948793509081019062000a81565b600660005284601f84600020920160051c820191601f860160051c015b82811062000b0457505062000a2a565b6000815501859062000af4565b90607f169062000a1756fe608080604052600436101561001357600080fd5b60003560e01c90816301ffc9a714614e1e57508063041199e114614c02578063062d3bd714614bc757806306c933d814614b8857806306fdde0314614ae2578063095ea7b314614abc57806309e6c75e146134da578063137755061461324257806316c2c8fd1461322457806318160ddd1461320657806323b872dd14613148578063248a9ca3146131195780632be50f63146130995780632d38f89b1461300e5780632f2ff15d14612f5b578063303190dc14612e02578063313ce56714612de65780633644e51514612dc357806336568abe14612d315780633950935114612ce05780633c2fd950146125f45780633f4ba83a1461256057806340c10f19146124a9578063455bd9511461245157806359fd285c146123b45780635c975abb146123915780636d04c98e1461234857806370a082311461230e57806379cc6790146121765780637ecebe001461213c578063817b0bc4146120175780638456cb5914611fbd57806384b0196e14611edf57806387f2a6f014611d1457806391d1485414611cc75780639281aa0b14611c7457806394c5b2fc14611c5657806395d89b4114611b705780639f530fed14611a24578063a217fddf14611a08578063a457c2d714611961578063a9059cbb14611930578063aabae7a314610f85578063cf2acf8414610d6d578063cf35bdd014610c40578063d01dd6d214610bc2578063d505accf14610a1f578063d5391393146109e4578063d547741f146109a5578063d5749d4214610966578063d5abeb0114610948578063d83c827014610925578063d9548e53146108fd578063dd62ed3e146108ac578063e04e77f714610873578063e589ba2214610817578063e63ab1e9146107dc578063f103b4331461057f5763fe1dc671146102a857600080fd5b3461057a576102b636615101565b906102bf615133565b80600052602090600c82526102dd600860406000200154151561638c565b80600052601382526102ff610306600b6040600020016040519283809261506b565b0382614edf565b80511561048657602261035891604051958161032b8893518092898087019101614f8e565b82016101d960f51b8782015261034982518093898785019101614f8e565b01036002810186520184614edf565b60005260138152600b604060002001908251906001600160401b038211610470576103838354615031565b601f811161042a575b5080601f83116001146103c757508192936000926103bc575b50508160011b916000199060031b1c19161790555b005b0151905038806103a5565b90601f198316948460005282600020926000905b8782106104125750508360019596106103f9575b505050811b019055005b015160001960f88460031b161c191690553880806103ef565b806001859682949686015181550195019301906103db565b8360005281600020601f840160051c810191838510610466575b601f0160051c01905b81811061045a575061038c565b6000815560010161044d565b9091508190610444565b634e487b7160e01b600052604160045260246000fd5b5060005260138152600b604060002001908251906001600160401b038211610470576104b28354615031565b601f8111610534575b5080601f83116001146104eb57508192936000926103bc575050600019600383901b1c191660019190911b179055005b90601f198316948460005282600020926000905b87821061051c5750508360019596106103f957505050811b019055005b806001859682949686015181550195019301906104ff565b8360005281600020601f840160051c810191838510610570575b601f0160051c01905b81811061056457506104bb565b60008155600101610557565b909150819061054e565b600080fd5b3461057a5760208060031936011261057a5760043560008052600a8252604060002033600052825260ff60406000205416156106345760025481106105f6577fb4d96b3a6638191d0f6aefa0fdc4d99af3592f4c97480e31feeb977723c63b539160409160125491816012558351928352820152a1005b60405162461bcd60e51b81526004810183905260166024820152754e6577206d617820737570706c7920746f6f206c6f7760501b6044820152606490fd5b5061063e336159c7565b90600060405161064d81614ec4565b604281528281019160603684378151156107c6576030835381516001908110156107c657607860218401536041905b80821161076c575050610729576106f5936107049260489260405196879376020b1b1b2b9b9a1b7b73a3937b61d1030b1b1b7bab73a1604d1b888601526106cc815180928a603789019101614f8e565b8401917001034b99036b4b9b9b4b733903937b6329607d1b603784015251809386840190614f8e565b01036028810185520183614edf565b61072560405192839262461bcd60e51b845260048401526024830190614fb1565b0390fd5b6064836040519062461bcd60e51b825280600483015260248201527f537472696e67733a20686578206c656e67746820696e73756666696369656e746044820152fd5b9091600f811660108110156107c6576f181899199a1a9b1b9c1cb0b131b232b360811b901a61079b84866159b6565b5360041c9180156107b057600019019061067c565b634e487b7160e01b600052601160045260246000fd5b634e487b7160e01b600052603260045260246000fd5b3461057a57600036600319011261057a5760206040517f65d7a28e3265b37a6474929f336521b332c1681b933f6cb9f3376673440d862a8152f35b3461057a57602036600319011261057a576004356001600160401b03811161057a57610860602061084d81933690600401614f1b565b8160405193828580945193849201614f8e565b8101601581520301902054604051908152f35b3461057a57602036600319011261057a5760043580151580910361057a57610899615133565b60ff801960105416911617601055600080f35b3461057a57604036600319011261057a576108c5614f62565b6108cd614f78565b9060018060a01b038091166000526001602052604060002091166000526020526020604060002054604051908152f35b3461057a57602036600319011261057a57602061091b600435616549565b6040519015158152f35b3461057a57600036600319011261057a57602060ff601054166040519015158152f35b3461057a57600036600319011261057a576020601254604051908152f35b3461057a57602036600319011261057a576001600160a01b03610987614f62565b16600052600e602052602060ff604060002054166040519015158152f35b3461057a57604036600319011261057a576103ba6004356109c4614f78565b9080600052600a6020526109df6001604060002001546155ab565b6156b6565b3461057a57600036600319011261057a5760206040517f9f2df0fed2c77648de5860a4cc508cd0818c85b8b8a1ab4ceeef8d981c8956a68152f35b3461057a5760e036600319011261057a57610a38614f62565b610a40614f78565b6044359060843560643560ff8216820361057a57804211610b7d5760018060a01b0390818616928360005260076020526040600020908154916001830190556040519260208401927f6e71edae12b1b97f4d1f60370fef10105fa2faae0126114a169c64845d6126c98452866040860152858816606086015288608086015260a085015260c084015260c0835260e08301918383106001600160401b0384111761047057610b2993610b2193604052519020610afa615c7e565b906040519161190160f01b83526002830152602282015260c43591604260a4359220615bef565b919091615ad5565b1603610b38576103ba926158b4565b60405162461bcd60e51b815260206004820152601e60248201527f45524332305065726d69743a20696e76616c6964207369676e617475726500006044820152606490fd5b60405162461bcd60e51b815260206004820152601d60248201527f45524332305065726d69743a206578706972656420646561646c696e650000006044820152606490fd5b3461057a57604036600319011261057a57610bdb614f62565b7ff1bf4fdc75f29b6c8f35b7808597b7e9c104efd356c3f8ee86e76023da1417e06020610c06614fd6565b92610c0f615133565b6001600160a01b03166000818152600e835260409020805460ff191660ff86151516179055926040519015158152a2005b3461057a57602036600319011261057a57600435600052600c602052610d19604060002060405190610c7d82610c76818461506b565b0383614edf565b604051610c91816102ff816001860161506b565b610d5b6006610d4d604051610cad816102ff8160028a0161506b565b600386015460048701546040519192610d3590610cd884610cd18160058e0161506b565b0385614edf565b610cf38a610cec604051809a81930161506b565b0388614edf565b610d27600860ff60078d0154169b0154996040519d8e9d8e610120908181520190614fb1565b8d810360208f015290614fb1565b908b820360408d0152614fb1565b9260608a0152608089015287820360a0890152614fb1565b9085820360c0870152614fb1565b91151560e08401526101008301520390f35b3461057a5760208060031936011261057a5760043560405191610d8f83614e8d565b6060918284528282850152826040850152600083850152600060808501528260a08501528260c0850152600060e085015260006101008095015280600052600c825260086040600020015415610f6d57600052600c815260406000209060405192610df984614e8d565b60405180610e07818661506b565b03610e129082614edf565b84526040519485610e26816001870161506b565b03610e319087614edf565b8483019586526040519586610e49816002880161506b565b03610e549088614edf565b60408681019788526003860154848801908152600487015460808901908152915180610e838160058b0161506b565b03610e8e9082614edf565b60a089019081526040519283610ea78160068c0161506b565b03610eb29085614edf565b60c08a01938452600789015460ff169860e08b019915158a526008015496868b019788526040519b8c9b8a8d52518c6101209b8c9101526101408d01610ef791614fb1565b9651601f198d8903810160408f015297610f1091614fb1565b905191878d830301908d0152610f2591614fb1565b925160808b01525160a08a01525190838982030160c08a0152610f4791614fb1565b9051918782030160e0880152610f5c91614fb1565b935115159085015251908301520390f35b602490604051906343ce9af560e01b82526004820152fd5b3461057a5761010036600319011261057a57610f9f614f62565b6044356001600160401b03811161057a57610fbe903690600401614f1b565b906064356001600160401b03811161057a57610fde903690600401614f1b565b906084356001600160401b03811161057a57610ffe903690600401614f1b565b9160c4356001600160401b03811161057a5761101e903690600401614f1b565b60e4356001600160401b03811161057a5761103d903690600401614f1b565b90611046615321565b6002600b54146118eb576002600b5561105d616018565b6110716001600160a01b0385161515615f72565b61107e6024351515615fbe565b60a435156118945785511561184f5760025461109c6024358261572c565b9060125480921161182457505060ff6010541680611802575b6117e157601154946110c686616009565b601155604051936110d685614e8d565b8785526020850152604084015260a435606084015242608084015260a083015260c0820152600060e08201524261010082015282600052600c60205260406000209080518051906001600160401b0382116104705781906111378554615031565b601f8111611791575b50602090601f831160011461172b57600092611720575b50508160011b916000199060031b1c19161782555b60208101518051906001600160401b0382116104705781906111916001860154615031565b601f81116116cd575b50602090601f831160011461165b57600092611650575b50508160011b916000199060031b1c19161760018301555b60408101518051906001600160401b0382116104705781906111ee6002860154615031565b601f81116115fd575b50602090601f831160011461158b57600092611580575b50508160011b916000199060031b1c19161760028301555b606081015160038301556080810151600483015560a08101518051906001600160401b03821161047057819061125f6005860154615031565b601f811161152d575b50602090601f83116001146114bb576000926114b0575b50508160011b916000199060031b1c19161760058301555b60c08101518051906001600160401b038211610470576112ba6006850154615031565b601f8111611469575b50602090601f83116001146113f357918060089492610100946000926113e8575b50508160011b916000199060031b1c19161760068501555b61131b60e08201511515600786019060ff801983541691151516179055565b01519101556001600160a01b0381166000908152600d6020526040902080549390600160401b851015610470576113c4849261139d84611384897ff7e1a46c126ab69342d6c64d69054268e5521a7b4128ea9a7ef358e83e00b61196600160209c018155615019565b90919082549060031b91821b91600019901b1916179055565b6113a96024358661605c565b60405191829160243583526060898401526060830190614fb1565b60a43560408301526001600160a01b03909516940390a36001600b55604051908152f35b0151905089806112e4565b906006850160005260206000209160005b601f1985168110611451575092600894926001926101009583601f19811610611438575b505050811b0160068501556112fc565b015160001960f88460031b161c19169055898080611428565b91926020600181928685015181550194019201611404565b600685016000526020600020601f840160051c8101602085106114a9575b601f830160051c8201811061149d5750506112c3565b60008155600101611487565b5080611487565b01519050878061127f565b9250600585016000526020600020906000935b601f1984168510611512576001945083601f198116106114f9575b505050811b016005830155611297565b015160001960f88460031b161c191690558780806114e9565b818101518355602094850194600190930192909101906114ce565b909150600585016000526020600020601f840160051c810160208510611579575b90849392915b601f830160051c8201811061156a575050611268565b60008155859450600101611554565b508061154e565b01519050878061120e565b9250600285016000526020600020906000935b601f19841685106115e2576001945083601f198116106115c9575b505050811b016002830155611226565b015160001960f88460031b161c191690558780806115b9565b8181015183556020948501946001909301929091019061159e565b909150600285016000526020600020601f840160051c810160208510611649575b90849392915b601f830160051c8201811061163a5750506111f7565b60008155859450600101611624565b508061161e565b0151905087806111b1565b9250600185016000526020600020906000935b601f19841685106116b2576001945083601f19811610611699575b505050811b0160018301556111c9565b015160001960f88460031b161c19169055878080611689565b8181015183556020948501946001909301929091019061166e565b909150600185016000526020600020601f840160051c810160208510611719575b90849392915b601f830160051c8201811061170a57505061119a565b600081558594506001016116f4565b50806116ee565b015190508780611157565b6000868152602081209350601f198516905b8181106117795750908460019594939210611760575b505050811b01825561116c565b015160001960f88460031b161c19169055878080611753565b9293602060018192878601518155019501930161173d565b909150846000526020600020601f840160051c8101602085106117da575b90849392915b601f830160051c820181106117cb575050611140565b600081558594506001016117b5565b50806117af565b60405163d33f19e760e01b81526001600160a01b0385166004820152602490fd5b506001600160a01b0384166000908152600e602052604090205460ff166110b5565b906118346044926024359061572c565b906040519163adc3cee560e01b835260048301526024820152fd5b60405162461bcd60e51b815260206004820152601a60248201527f417373657420747970652063616e6e6f7420626520656d7074790000000000006044820152606490fd5b60405162461bcd60e51b815260206004820152602960248201527f4170707261697365642076616c7565206d7573742062652067726561746572206044820152687468616e207a65726f60b81b6064820152608490fd5b60405162461bcd60e51b815260206004820152601f60248201527f5265656e7472616e637947756172643a207265656e7472616e742063616c6c006044820152606490fd5b3461057a57604036600319011261057a5761195661194c614f62565b6024359033615739565b602060405160018152f35b3461057a57604036600319011261057a5761197a614f62565b60243590336000526001602052604060002060018060a01b038216600052602052604060002054918083106119b557611956920390336158b4565b60405162461bcd60e51b815260206004820152602560248201527f45524332303a2064656372656173656420616c6c6f77616e63652062656c6f77604482015264207a65726f60d81b6064820152608490fd5b3461057a57600036600319011261057a57602060405160008152f35b3461057a57611a3236615101565b90611a3b615133565b80600052602090600c8252611a59600860406000200154151561638c565b600052601381526007604060002001908251906001600160401b03821161047057611a848354615031565b601f8111611b2a575b5080601f8311600114611ac85750819293600092611abd575050600019600383901b1c191660019190911b179055005b0151905083806103a5565b90601f198316948460005282600020926000905b878210611b12575050836001959610611af957505050811b019055005b015160001960f88460031b161c191690558380806103ef565b80600185968294968601518155019501930190611adc565b8360005281600020601f840160051c810191838510611b66575b601f0160051c01905b818110611b5a5750611a8d565b60008155600101611b4d565b9091508190611b44565b3461057a57600036600319011261057a576040516000600454611b9281615031565b80845290600190818116908115611c2f5750600114611bd4575b611bd084611bbc81860382614edf565b604051918291602083526020830190614fb1565b0390f35b6004600090815292507f8a35acfbc15ff81a39ae7d344fd709f28e8600b4aa8c65c6b64bfe7fe36bd19b5b828410611c17575050508101602001611bbc82611bac565b80546020858701810191909152909301928101611bff565b60ff191660208087019190915292151560051b85019092019250611bbc9150839050611bac565b3461057a57600036600319011261057a576020601154604051908152f35b3461057a57604036600319011261057a576103ba611c90614f62565b611c98614fd6565b90611ca1615133565b60018060a01b0316600052600f60205260406000209060ff801983541691151516179055565b3461057a57604036600319011261057a57611ce0614f78565b600435600052600a60205260406000209060018060a01b0316600052602052602060ff604060002054166040519015158152f35b3461057a57602036600319011261057a576004356000526013602052604060002060405180611d43818461506b565b03611d4e9082614edf565b6040519182611d60816001840161506b565b03611d6b9084614edf565b600281015460405180611d81816003860161506b565b03611d8c9082614edf565b60405180611d9d816004870161506b565b03611da89082614edf565b60058401546006850154604051919082611dc58160078a0161506b565b03611dd09084614edf565b6040519384611de28160088b0161506b565b03611ded9086614edf565b600988015460ff1695604051978880600a8c0190611e0a9161506b565b03611e15908a614edf565b60405180600b819c0190611e289161506b565b03611e33908b614edf565b6040519b8c9b8c6101808091528d01611e4b91614fb1565b8c810360208e0152611e5c91614fb1565b9060408c01528a810360608c0152611e7391614fb1565b89810360808b0152611e8491614fb1565b9160a089015260c088015286810360e0880152611ea091614fb1565b858103610100870152611eb291614fb1565b901515610120850152838103610140850152611ecd91614fb1565b828103610160840152611bd091614fb1565b3461057a57600036600319011261057a57611f197f0000000000000000000000000000000000000000000000000000000000000000615dbf565b611f427f0000000000000000000000000000000000000000000000000000000000000000615eb8565b906040519160208301928084106001600160401b0385111761047057611f9c611bd092611f8e9560405260008352604051958695600f60f81b875260e0602088015260e0870190614fb1565b908582036040870152614fb1565b90466060850152306080850152600060a085015283820360c0850152614fe5565b3461057a57600036600319011261057a57611fd6615466565b611fde616018565b600160ff1960095416176009557f62e78cea01bee320cd4e420270b5ea74000d11b0c9f74754ebdbfc544b05a2586020604051338152a1005b3461057a57604036600319011261057a576004356001600160401b03811161057a57612047903690600401614f1b565b602435612052615133565b61205e82511515616340565b80156120f7577f6e838f2a03741f5f2aff5480963b672fb0dd8430a4dc75db9b67ce009733c9fe916120e6916120c160405182845191602081818801946120a6818388614f8e565b81016014815203019020556040519182918551928391614f8e565b8101906015825260208142930301902055604051928392606084526060840190614fb1565b9060208301524260408301520390a1005b60405162461bcd60e51b815260206004820152601f60248201527f5072696365206d7573742062652067726561746572207468616e207a65726f006044820152606490fd5b3461057a57602036600319011261057a576001600160a01b0361215d614f62565b1660005260076020526020604060002054604051908152f35b3461057a57604036600319011261057a5761218f614f62565b6001600160a01b03811660243581156122c9576121ad811515615fbe565b81600052602092600184526040600020336000528452604060002054906000198203612287575b6121de9150616161565b81600052600083526040600020548181106122375792817fddf252ad1be2c89b69c2b068fc378daa952ba7f163c4a11628f55a4df523b3ef926000958587528684520360408620558060025403600255604051908152a3005b60405162461bcd60e51b815260048101859052602260248201527f45524332303a206275726e20616d6f756e7420657863656564732062616c616e604482015261636560f01b6064820152608490fd5b8282106122ab578282039182116107b0576122a66121de9233836158b4565b6121d4565b604483836040519163054365bb60e31b835260048301526024820152fd5b60405162461bcd60e51b815260206004820152601d60248201527f43616e6e6f74206275726e2066726f6d207a65726f20616464726573730000006044820152606490fd5b3461057a57602036600319011261057a576001600160a01b0361232f614f62565b1660005260006020526020604060002054604051908152f35b3461057a57602036600319011261057a576004356001600160401b03811161057a5761237e602061084d81933690600401614f1b565b8101601481520301902054604051908152f35b3461057a57600036600319011261057a57602060ff600954166040519015158152f35b3461057a57602036600319011261057a576004356123d0615133565b80600052600c60205260086040600020015415610f6d5780600052600c6020526007604060002001600160ff1982541617905560008051602061659c83398151915260c06040516040815260086040820152671d995c9a599a595960c21b60608201526080602082015260046080820152637472756560e01b60a0820152a2005b3461057a57604036600319011261057a5761246a614f62565b6001600160a01b03166000908152600d602052604090208054602435919082101561057a5760209161249b91615019565b90546040519160031b1c8152f35b3461057a57604036600319011261057a576124c2614f62565b6024356124cd615321565b6001600160a01b038216916124e3831515615f72565b6124ee821515615fbe565b6002546124fb838261572c565b9060125480921161255357505060ff601054168061253b575b612522576103ba925061605c565b60405163d33f19e760e01b815260048101849052602490fd5b5082600052600e60205260ff60406000205416612514565b906118348460449361572c565b3461057a57600036600319011261057a57612579615466565b60095460ff8116156125b85760ff19166009557f5db9ee0a495bf2e6ff9c91a7834c1ba4fdd244a5e8aa4e537bd38aeae4b073aa6020604051338152a1005b60405162461bcd60e51b815260206004820152601460248201527314185d5cd8589b194e881b9bdd081c185d5cd95960621b6044820152606490fd5b3461057a57606036600319011261057a5760043560246001600160401b03813581811161057a57612629903690600401614f1b565b9160443582811161057a57612642903690600401614f1b565b9061264b615133565b84600052600c9260209380855260086040600020015415612cc85785517f1596dc38e2ac5a6ddc5e019af4adcc1e017a04f510d57e69d6879d5d2996bb8e8688019182206a3232b9b1b934b83a34b7b760a91b886040516126ab81614ea9565b600b8152015203612832575086600052845260018060406000200192845192831161281e57506126db8354615031565b601f81116127d5575b5084601f83116001146127595792828061273c979460008051602061659c8339815191529997946127499760009361274e575b501b916000199060031b1c19161790555b604051948594604086526040860190614fb1565b9184830390850152614fb1565b0390a2005b86015192508c612717565b601f9291921982169084600052866000209160005b8181106127c0575092612749959261273c9895928260008051602061659c8339815191529b9996106127a7575b5050811b019055612728565b85015160001960f88460031b161c191690558a8061279b565b8783015184559285019291880191880161276e565b8360005285600020601f840160051c810191878510612814575b601f0160051c019082905b8281106128085750506126e4565b600081550182906127fa565b90915081906127ef565b634e487b7160e01b60009081526041600452fd5b7f32418106fd89af94305d9787acb608a501b749f5f1783cfca7b3f864595254ca87518220673637b1b0ba34b7b760c11b8860405161287081614ea9565b600881520152036129a45750866000528452600260406000200191835191821161281e575061289f8254615031565b601f811161295e575b5083601f82116001146128fc5792612749928261273c969360008051602061659c83398151915298966000916128f1575b508160011b916000199060031b1c1916179055612728565b90508301518a6128d9565b601f1982169083600052856000209160005b81811061294757508360008051602061659c833981519152989693612749969361273c9996600194106127a7575050811b019055612728565b91928760018192868a01518155019401920161290e565b8260005284600020601f830160051c81019186841061299a575b601f0160051c01905b81811061298e57506128a8565b60008155600101612981565b9091508190612978565b7f0672e70e771a4a1bc3c4bf3963a75dfb1a00680fb30bde56d2ab3475bbeb191a875182206f61707072616973616c436f6d70616e7960801b886040516129ea81614ea9565b60108152015203612b125750866000528452600560406000200191835191821161281e5750612a198254615031565b601f8111612acc575b5083601f8211600114612a6a5792612749928261273c969360008051602061659c83398151915298966000916128f157508160011b916000199060031b1c1916179055612728565b601f1982169083600052856000209160005b818110612ab557508360008051602061659c833981519152989693612749969361273c9996600194106127a7575050811b019055612728565b91928760018192868a015181550194019201612a7c565b8260005284600020601f830160051c810191868410612b08575b601f0160051c01905b818110612afc5750612a22565b60008155600101612aef565b9091508190612ae6565b7fa2337af9c0c983d244fe5901fbd8591e34918612fb5a46d3a9da3a6306987c7090875190206b0c8dec6eadacadce890c2e6d60a31b87604051612b5581614ea9565b858152015214612b80575b5050509161274961273c9260008051602061659c83398151915294612728565b866000528452600660406000200191835191821161281e5750612ba38254615031565b601f8111612c82575b5083601f8211600114612c065792612749928261273c969360008051602061659c8339815191529896600091612bfb575b508160011b916000199060031b1c19161790555b9294819450612b60565b90508301518a612bdd565b601f1982169083600052856000209160005b818110612c6b57508360008051602061659c833981519152989693612749969361273c999660019410612c52575b5050811b019055612bf1565b85015160001960f88460031b161c191690558a80612c46565b91928760018192868a015181550194019201612c18565b8260005284600020601f830160051c810191868410612cbe575b601f0160051c01905b818110612cb25750612bac565b60008155600101612ca5565b9091508190612c9c565b6040516343ce9af560e01b8152600481018890528390fd5b3461057a57604036600319011261057a57611956612cfc614f62565b336000526001602052604060002060018060a01b038216600052602052612d2a60243560406000205461572c565b90336158b4565b3461057a57604036600319011261057a57612d4a614f78565b336001600160a01b03821603612d66576103ba906004356156b6565b60405162461bcd60e51b815260206004820152602f60248201527f416363657373436f6e74726f6c3a2063616e206f6e6c792072656e6f756e636560448201526e103937b632b9903337b91039b2b63360891b6064820152608490fd5b3461057a57600036600319011261057a576020612dde615c7e565b604051908152f35b3461057a57600036600319011261057a57602060405160128152f35b3461057a5760208060031936011261057a576001600160401b0360043581811161057a57612e34903690600401614f1b565b9160405191610ca083019083821090821117610470576040526064808352610c80368385013760115460009160015b828110612ede57505050612e7681615da8565b92612e846040519485614edf565b818452601f19612e9383615da8565b01368486013760005b828110612eba57505050611bd0604051928284938452830190614fe5565b80612ec8612ed99284616587565b51612ed38288616587565b52616009565b612e9c565b80600052600c8552600860406000200154151580612f2d575b612f0a575b612f0590616009565b612e63565b81841015612efc5792612f258185612ed3612f05948a616587565b939050612efc565b50601385526102ff612f4960406000206040519283809261506b565b85815191012087518689012014612ef7565b3461057a57604036600319011261057a57600435612f77614f78565b81600052600a602052612f916001604060002001546155ab565b81600052600a60205260406000209060018060a01b0316908160005260205260ff6040600020541615612fc057005b81600052600a6020526040600020816000526020526040600020600160ff1982541617905533917f2f8788117e7eff1d82e926ec794901d17c78024a50270940304540a733656f0d600080a4005b3461057a5760208060031936011261057a576001600160a01b03613030614f62565b16600052600d8152604060002090604051808383829554938481520190600052836000209260005b858282106130835750505061306f92500383614edf565b611bd0604051928284938452830190614fe5565b8554845260019586019588955093019201613058565b3461057a57602036600319011261057a576004356001600160401b03811161057a576130cb6040913690600401614f1b565b613102602083518351908281818701936130e6818387614f8e565b8101601481520301902054938551938492839251928391614f8e565b810160158152030190205482519182526020820152f35b3461057a57602036600319011261057a57600435600052600a6020526020600160406000200154604051908152f35b3461057a57606036600319011261057a57613161614f62565b613169614f78565b6044359060018060a01b03831660005260016020526040600020336000526020526040600020549260001984036131a5575b6119569350615739565b8284106131c1576131bc83611956950333836158b4565b61319b565b60405162461bcd60e51b815260206004820152601d60248201527f45524332303a20696e73756666696369656e7420616c6c6f77616e63650000006044820152606490fd5b3461057a57600036600319011261057a576020600254604051908152f35b3461057a57602036600319011261057a576020612dde6004356163cf565b3461057a57602036600319011261057a57600435606061016060405161326781614e71565b828152826020820152600060408201528280820152826080820152600060a0820152600060c08201528260e082015282610100820152600061012082015282610140820152015280600052600c6020526132ca600860406000200154151561638c565b6000526013602052611bd06040600020600b6133d5604051926132ec84614e71565b6040516132fd816102ff818561506b565b8452604051613313816102ff816001860161506b565b602085015260028101546040850152604051613336816102ff816003860161506b565b606085015260405161334f816102ff816004860161506b565b6080850152600581015460a0850152600681015460c085015260405161337c816102ff816007860161506b565b60e0850152604051613395816102ff816008860161506b565b61010085015260ff60098201541615156101208501526040516133bf816102ff81600a860161506b565b6101408501526102ff604051809481930161506b565b610160820152604051918291602083526101606134c56134a161348961345e613448613428613412885161018060208d01526101a08c0190614fb1565b60208901518b8203601f190160408d0152614fb1565b604088015160608b01526060880151601f198b83030160808c0152614fb1565b6080870151898203601f190160a08b0152614fb1565b60a086015160c089015260c086015160e089015260e0860151601f19898303016101008a0152614fb1565b610100850151878203601f1901610120890152614fb1565b6101208401511515610140870152610140840151601f198783030184880152614fb1565b910151838203601f1901610180850152614fb1565b3461057a5761026036600319011261057a576134f4614f62565b6044356001600160401b03811161057a57613513903690600401614f1b565b6064356001600160401b03811161057a57613532903690600401614f1b565b9160a4356001600160401b03811161057a57613552903690600401614f1b565b60c4356001600160401b03811161057a57613571903690600401614f1b565b9260e4356001600160401b03811161057a57613591903690600401614f1b565b93610104356001600160401b03811161057a576135b2903690600401614f1b565b91610144356001600160401b03811161057a576135d3903690600401614f1b565b93610164356001600160401b03811161057a576135f4903690600401614f1b565b956101c4356001600160401b03811161057a57613615903690600401614f1b565b6101e4356001600160401b03811161057a57613635903690600401614f1b565b916102043593841515850361057a57610224356001600160401b03811161057a57613664903690600401614f1b565b956001600160401b03610244351161057a576136863661024435600401614f1b565b9761368f615321565b61369b8d511515616340565b6101243515614a6c578a5115614a30578b51156149f2576101a435614999575b6101843561493d575b604051926136d184614ea9565b6009845268636f6d6d6f6469747960b81b60208501526136ef615321565b6002600b54146118eb576002600b55613706616018565b61371a6001600160a01b0386161515615f72565b6137276024351515615fbe565b608435156118945783511561184f576002546137456024358261572c565b9060125480921161182457505060ff601054168061491b575b6148fa576011549d9e6137708f616009565b6011556040519361378085614e8d565b85855260208501526040840152608435606084015242608084015260a083015260c0820152600060e0820152426101008201528b600052600c60205260406000209080518051906001600160401b0382116104705781906137e18554615031565b601f81116148aa575b50602090601f831160011461483e57600092614833575b50508160011b916000199060031b1c19161782555b60208101518051906001600160401b03821161047057819061383b6001860154615031565b601f81116147e0575b50602090601f831160011461476e57600092614763575b50508160011b916000199060031b1c19161760018301555b60408101518051906001600160401b0382116104705781906138986002860154615031565b601f8111614710575b50602090601f831160011461469e57600092614693575b50508160011b916000199060031b1c19161760028301555b606081015160038301556080810151600483015560a08101518051906001600160401b0382116104705781906139096005860154615031565b601f8111614640575b50602090601f83116001146145ce576000926145c3575b50508160011b916000199060031b1c19161760058301555b60c08101518051906001600160401b038211610470576139646006850154615031565b601f811161457c575b50602090601f831160011461450657918060089492610100946000926144fb575b50508160011b916000199060031b1c19161760068501555b6139c560e08201511515600786019060ff801983541691151516179055565b01519101556001600160a01b0382166000908152600d602052604090208054600160401b811015610470578c92613a2a84611384847ff7e1a46c126ab69342d6c64d69054268e5521a7b4128ea9a7ef358e83e00b611966001613a5297018155615019565b613a366024358661605c565b6040519182916024358352606060208401526060830190614fb1565b60843560408301526001600160a01b03909516940390a36001600b5560405195613a7b87614e71565b8a875260208701526101243560408701528660608701528760808701526101843560a08701526101a43560c087015260e08601526101008501521515610120840152610140830152610160820152836000526013602052604060002081518051906001600160401b038211610470578190613af68454615031565b601f81116144ab575b50602090601f831160011461443f57600092614434575b50508160011b916000199060031b1c19161781555b60208201518051906001600160401b038211610470578190613b506001850154615031565b601f81116143e1575b50602090601f831160011461436f57600092614364575b50508160011b916000199060031b1c19161760018201555b6040820151600282015560608201518051906001600160401b038211610470578190613bb76003850154615031565b601f8111614311575b50602090601f831160011461429f57600092614294575b50508160011b916000199060031b1c19161760038201555b60808201518051906001600160401b038211610470578190613c146004850154615031565b601f8111614241575b50602090601f83116001146141cf576000926141c4575b50508160011b916000199060031b1c19161760048201555b60a0820151600582015560c0820151600682015560e08201518051906001600160401b038211610470578190613c856007850154615031565b601f8111614171575b50602090601f83116001146140ff576000926140f4575b50508160011b916000199060031b1c19161760078201555b6101008201518051906001600160401b038211610470578190613ce36008850154615031565b601f81116140a1575b50602090601f831160011461402f57600092614024575b50508160011b916000199060031b1c19161760088201555b613d3b6101208301511515600983019060ff801983541691151516179055565b6101408201518051906001600160401b03821161047057613d5f600a840154615031565b601f8111613fdd575b50602090601f8311600114613f675791806101609492600b94600092613f5c575b50508160011b916000199060031b1c191617600a8201555b019101518051906001600160401b03821161047057613dc08354615031565b601f8111613f14575b509160209693918695938890601f8311600114613e7d5793613e679383613e439794613e59947fc54983a134c35bd1805d334f299ab5d772dae490b4653788d94563f5991832879a98600092613e72575b50508160011b916000199060031b1c19161790555b604051958695608087526080870190614fb1565b90610124358b8701528582036040870152614fb1565b908382036060850152614fb1565b0390a2604051908152f35b015190508d80613e1a565b90601f19831691846000528a6000209260005b818110613efa575084613e59947fc54983a134c35bd1805d334f299ab5d772dae490b4653788d94563f5991832879a9894613e679894613e439b9860019510613ee1575b505050811b019055613e2f565b015160001960f88460031b161c191690558d8080613ed4565b8284015185558b9a50600190940193928c01928c01613e90565b836000526020600020601f840160051c81019160208510613f52575b601f0160051c01905b818110613f465750613dc9565b60008155600101613f39565b9091508190613f30565b015190508a80613d89565b90600a840160005260206000209160005b601f1985168110613fc55750926101609492600192600b9583601f19811610613fac575b505050811b01600a820155613da1565b015160001960f88460031b161c191690558a8080613f9c565b91926020600181928685015181550194019201613f78565b600a84016000526020600020601f840160051c81016020851061401d575b601f830160051c82018110614011575050613d68565b60008155600101613ffb565b5080613ffb565b015190508880613d03565b9250600884016000526020600020906000935b601f1984168510614086576001945083601f1981161061406d575b505050811b016008820155613d1b565b015160001960f88460031b161c1916905588808061405d565b81810151835560209485019460019093019290910190614042565b909150600884016000526020600020601f840160051c8101602085106140ed575b90849392915b601f830160051c820181106140de575050613cec565b600081558594506001016140c8565b50806140c2565b015190508880613ca5565b9250600784016000526020600020906000935b601f1984168510614156576001945083601f1981161061413d575b505050811b016007820155613cbd565b015160001960f88460031b161c1916905588808061412d565b81810151835560209485019460019093019290910190614112565b909150600784016000526020600020601f840160051c8101602085106141bd575b90849392915b601f830160051c820181106141ae575050613c8e565b60008155859450600101614198565b5080614192565b015190508880613c34565b9250600484016000526020600020906000935b601f1984168510614226576001945083601f1981161061420d575b505050811b016004820155613c4c565b015160001960f88460031b161c191690558880806141fd565b818101518355602094850194600190930192909101906141e2565b909150600484016000526020600020601f840160051c81016020851061428d575b90849392915b601f830160051c8201811061427e575050613c1d565b60008155859450600101614268565b5080614262565b015190508880613bd7565b9250600384016000526020600020906000935b601f19841685106142f6576001945083601f198116106142dd575b505050811b016003820155613bef565b015160001960f88460031b161c191690558880806142cd565b818101518355602094850194600190930192909101906142b2565b909150600384016000526020600020601f840160051c81016020851061435d575b90849392915b601f830160051c8201811061434e575050613bc0565b60008155859450600101614338565b5080614332565b015190508880613b70565b9250600184016000526020600020906000935b601f19841685106143c6576001945083601f198116106143ad575b505050811b016001820155613b88565b015160001960f88460031b161c1916905588808061439d565b81810151835560209485019460019093019290910190614382565b909150600184016000526020600020601f840160051c81016020851061442d575b90849392915b601f830160051c8201811061441e575050613b59565b60008155859450600101614408565b5080614402565b015190508880613b16565b9250836000526020600020906000935b601f1984168510614490576001945083601f19811610614477575b505050811b018155613b2b565b015160001960f88460031b161c1916905588808061446a565b8181015183556020948501946001909301929091019061444f565b909150836000526020600020601f840160051c8101602085106144f4575b90849392915b601f830160051c820181106144e5575050613aff565b600081558594506001016144cf565b50806144c9565b01519050388061398e565b906006850160005260206000209160005b601f1985168110614564575092600894926001926101009583601f1981161061454b575b505050811b0160068501556139a6565b015160001960f88460031b161c1916905538808061453b565b91926020600181928685015181550194019201614517565b600685016000526020600020601f840160051c8101602085106145bc575b601f830160051c820181106145b057505061396d565b6000815560010161459a565b508061459a565b015190503880613929565b9250600585016000526020600020906000935b601f1984168510614625576001945083601f1981161061460c575b505050811b016005830155613941565b015160001960f88460031b161c191690553880806145fc565b818101518355602094850194600190930192909101906145e1565b909150600585016000526020600020601f840160051c81016020851061468c575b90849392915b601f830160051c8201811061467d575050613912565b60008155859450600101614667565b5080614661565b0151905038806138b8565b9250600285016000526020600020906000935b601f19841685106146f5576001945083601f198116106146dc575b505050811b0160028301556138d0565b015160001960f88460031b161c191690553880806146cc565b818101518355602094850194600190930192909101906146b1565b909150600285016000526020600020601f840160051c81016020851061475c575b90849392915b601f830160051c8201811061474d5750506138a1565b60008155859450600101614737565b5080614731565b01519050388061385b565b9250600185016000526020600020906000935b601f19841685106147c5576001945083601f198116106147ac575b505050811b016001830155613873565b015160001960f88460031b161c1916905538808061479c565b81810151835560209485019460019093019290910190614781565b909150600185016000526020600020601f840160051c81016020851061482c575b90849392915b601f830160051c8201811061481d575050613844565b60008155859450600101614807565b5080614801565b015190503880613801565b9250846000526020600020906000935b601f198416851061488f576001945083601f19811610614876575b505050811b018255613816565b015160001960f88460031b161c19169055388080614869565b8181015183556020948501946001909301929091019061484e565b909150846000526020600020601f840160051c8101602085106148f3575b90849392915b601f830160051c820181106148e45750506137ea565b600081558594506001016148ce565b50806148c8565b60405163d33f19e760e01b81526001600160a01b0386166004820152602490fd5b506001600160a01b0385166000908152600e602052604090205460ff1661375e565b426101843511156136c45760405162461bcd60e51b8152602060048201526024808201527f4861727665737420646174652063616e6e6f7420626520696e207468652066756044820152637475726560e01b6064820152608490fd5b426101a435116136bb5760405162461bcd60e51b815260206004820152602160248201527f4578706972792064617465206d75737420626520696e207468652066757475726044820152606560f81b6064820152608490fd5b60405162461bcd60e51b81526020600482015260166024820152754f726967696e2063616e6e6f7420626520656d70747960501b6044820152606490fd5b60405162461bcd60e51b8152602060048201526014602482015273556e69742063616e6e6f7420626520656d70747960601b6044820152606490fd5b60405162461bcd60e51b815260206004820152602260248201527f5175616e74697479206d7573742062652067726561746572207468616e207a65604482015261726f60f01b6064820152608490fd5b3461057a57604036600319011261057a57611956614ad8614f62565b60243590336158b4565b3461057a57600036600319011261057a576040516000600354614b0481615031565b80845290600190818116908115611c2f5750600114614b2d57611bd084611bbc81860382614edf565b6003600090815292507fc2575a0e9e593c00f959f8c92f12db2869c3395a3b0502d05e2516446f71f85b5b828410614b70575050508101602001611bbc82611bac565b80546020858701810191909152909301928101614b58565b3461057a57602036600319011261057a576001600160a01b03614ba9614f62565b16600052600f602052602060ff604060002054166040519015158152f35b3461057a57600036600319011261057a5760206040517f442a94f1a1fac79af32856af2a64f63648cfa2ef3b98610a5bb7cbec4cee69858152f35b3461057a57606036600319011261057a576004356001600160401b0360243560443582811161057a57614c39903690600401614f1b565b614c41615133565b83600052602092600c845260086040600020015415614e05578215614dec5784600052600c8452600560406000208460038201554260048201550191805191821161047057614c908354615031565b601f8111614da6575b508490601f8311600114614d26579360008051602061659c83398151915295938361274994614ce694608098600092614d1b575b50508160011b916000199060031b1c1916179055616280565b60405193849360408552600e60408601526d61707072616973656456616c756560901b60608601528401526080830190614fb1565b015190508a80614ccd565b90601f1983169184600052866000209260005b818110614d8f575084614ce6946080989460008051602061659c8339815191529a98946127499860019510614d76575b505050811b019055616280565b015160001960f88460031b161c191690558a8080614d69565b929388600181928786015181550195019301614d39565b8360005285600020601f840160051c810191878510614de2575b601f0160051c01905b818110614dd65750614c99565b60008155600101614dc9565b9091508190614dc0565b6040516306dd0df760e11b815260048101849052602490fd5b6040516343ce9af560e01b815260048101869052602490fd5b3461057a57602036600319011261057a576004359063ffffffff60e01b821680920361057a57602091637965db0b60e01b8114908115614e60575b5015158152f35b6301ffc9a760e01b14905083614e59565b61018081019081106001600160401b0382111761047057604052565b61012081019081106001600160401b0382111761047057604052565b604081019081106001600160401b0382111761047057604052565b608081019081106001600160401b0382111761047057604052565b90601f801991011681019081106001600160401b0382111761047057604052565b6001600160401b03811161047057601f01601f191660200190565b81601f8201121561057a57803590614f3282614f00565b92614f406040519485614edf565b8284526020838301011161057a57816000926020809301838601378301015290565b600435906001600160a01b038216820361057a57565b602435906001600160a01b038216820361057a57565b60005b838110614fa15750506000910152565b8181015183820152602001614f91565b90602091614fca81518092818552858086019101614f8e565b601f01601f1916010190565b60243590811515820361057a57565b90815180825260208080930193019160005b828110615005575050505090565b835185529381019392810192600101614ff7565b80548210156107c65760005260206000200190600090565b90600182811c92168015615061575b602083101461504b57565b634e487b7160e01b600052602260045260246000fd5b91607f1691615040565b906000929180549161507c83615031565b9182825260019384811690816000146150de575060011461509e575b50505050565b90919394506000526020928360002092846000945b8386106150ca575050505001019038808080615098565b8054858701830152940193859082016150b3565b9294505050602093945060ff191683830152151560051b01019038808080615098565b90604060031983011261057a5760043591602435906001600160401b03821161057a5761513091600401614f1b565b90565b3360009081527f81aa20521b1f8377105c149ab3e891a614f1dc1af7e3227dafa44b3aa3f87adc602090815260408083205490927f442a94f1a1fac79af32856af2a64f63648cfa2ef3b98610a5bb7cbec4cee69859160ff16156151975750505050565b6151a0336159c7565b918451906151ad82614ec4565b6042825284820192606036853782511561530d576030845382519060019182101561530d5790607860218501536041915b81831161529f5750505061525d57604861072593869361524193615232985198899376020b1b1b2b9b9a1b7b73a3937b61d1030b1b1b7bab73a1604d1b8a8601526106cc815180928c603789019101614f8e565b01036028810187520185614edf565b5192839262461bcd60e51b845260048401526024830190614fb1565b60648486519062461bcd60e51b825280600483015260248201527f537472696e67733a20686578206c656e67746820696e73756666696369656e746044820152fd5b909192600f811660108110156152f9576f181899199a1a9b1b9c1cb0b131b232b360811b901a6152cf85876159b6565b5360041c9280156152e5576000190191906151de565b634e487b7160e01b82526011600452602482fd5b634e487b7160e01b83526032600452602483fd5b634e487b7160e01b81526032600452602490fd5b3360009081527faa1d7351356c4ddc11907b1ee0660f579cfdf507235af2ae01ecd22a4b7ceaae602090815260408083205490927f9f2df0fed2c77648de5860a4cc508cd0818c85b8b8a1ab4ceeef8d981c8956a69160ff16156153855750505050565b61538e336159c7565b9184519061539b82614ec4565b6042825284820192606036853782511561530d576030845382519060019182101561530d5790607860218501536041915b8183116154205750505061525d57604861072593869361524193615232985198899376020b1b1b2b9b9a1b7b73a3937b61d1030b1b1b7bab73a1604d1b8a8601526106cc815180928c603789019101614f8e565b909192600f811660108110156152f9576f181899199a1a9b1b9c1cb0b131b232b360811b901a61545085876159b6565b5360041c9280156152e5576000190191906153cc565b3360009081527f6c4ab3a3cc4fea3ac566afdaa38e0e471d1bdfd1aa59eb20affdabfa5e893fed602090815260408083205490927f65d7a28e3265b37a6474929f336521b332c1681b933f6cb9f3376673440d862a9160ff16156154ca5750505050565b6154d3336159c7565b918451906154e082614ec4565b6042825284820192606036853782511561530d576030845382519060019182101561530d5790607860218501536041915b8183116155655750505061525d57604861072593869361524193615232985198899376020b1b1b2b9b9a1b7b73a3937b61d1030b1b1b7bab73a1604d1b8a8601526106cc815180928c603789019101614f8e565b909192600f811660108110156152f9576f181899199a1a9b1b9c1cb0b131b232b360811b901a61559585876159b6565b5360041c9280156152e557600019019190615511565b600090808252602090600a8252604092838120338252835260ff8482205416156155d55750505050565b6155de336159c7565b918451906155eb82614ec4565b6042825284820192606036853782511561530d576030845382519060019182101561530d5790607860218501536041915b8183116156705750505061525d57604861072593869361524193615232985198899376020b1b1b2b9b9a1b7b73a3937b61d1030b1b1b7bab73a1604d1b8a8601526106cc815180928c603789019101614f8e565b909192600f811660108110156152f9576f181899199a1a9b1b9c1cb0b131b232b360811b901a6156a085876159b6565b5360041c9280156152e55760001901919061561c565b90600091808352600a602052604083209160018060a01b03169182845260205260ff6040842054166156e757505050565b808352600a602052604083208284526020526040832060ff1981541690557ff6391f5c32d9c69d2a47ea670b442974b53935d1edc7fd64eb21e047a839171b339380a4565b919082018092116107b057565b90916001600160a01b038083169290831561586157841693841561581057615760916161e9565b6000828152806020526040812054918083106157bc57604082827fddf252ad1be2c89b69c2b068fc378daa952ba7f163c4a11628f55a4df523b3ef958760209652828652038282205586815220818154019055604051908152a3565b60405162461bcd60e51b815260206004820152602660248201527f45524332303a207472616e7366657220616d6f756e7420657863656564732062604482015265616c616e636560d01b6064820152608490fd5b60405162461bcd60e51b815260206004820152602360248201527f45524332303a207472616e7366657220746f20746865207a65726f206164647260448201526265737360e81b6064820152608490fd5b60405162461bcd60e51b815260206004820152602560248201527f45524332303a207472616e736665722066726f6d20746865207a65726f206164604482015264647265737360d81b6064820152608490fd5b6001600160a01b0390811691821561596557169182156159155760207f8c5be1e5ebec7d5bd14f71427d1e84f3dd0314c0f7b2291e5b200ac8c7c3b925918360005260018252604060002085600052825280604060002055604051908152a3565b60405162461bcd60e51b815260206004820152602260248201527f45524332303a20617070726f766520746f20746865207a65726f206164647265604482015261737360f01b6064820152608490fd5b60405162461bcd60e51b8152602060048201526024808201527f45524332303a20617070726f76652066726f6d20746865207a65726f206164646044820152637265737360e01b6064820152608490fd5b9081518110156107c6570160200190565b60405190606082018281106001600160401b0382111761047057604052602a82526020820160403682378251156107c6576030905381516001908110156107c657607860218401536029905b808211615a67575050615a235790565b606460405162461bcd60e51b815260206004820152602060248201527f537472696e67733a20686578206c656e67746820696e73756666696369656e746044820152fd5b9091600f81166010811015615ac0576f181899199a1a9b1b9c1cb0b131b232b360811b901a615a9684866159b6565b5360041c918015615aab576000190190615a13565b60246000634e487b7160e01b81526011600452fd5b60246000634e487b7160e01b81526032600452fd5b6005811015615bd95780615ae65750565b60018103615b335760405162461bcd60e51b815260206004820152601860248201527f45434453413a20696e76616c6964207369676e617475726500000000000000006044820152606490fd5b60028103615b805760405162461bcd60e51b815260206004820152601f60248201527f45434453413a20696e76616c6964207369676e6174757265206c656e677468006044820152606490fd5b600314615b8957565b60405162461bcd60e51b815260206004820152602260248201527f45434453413a20696e76616c6964207369676e6174757265202773272076616c604482015261756560f01b6064820152608490fd5b634e487b7160e01b600052602160045260246000fd5b9291907f7fffffffffffffffffffffffffffffff5d576e7357a4501ddfe92f46681b20a08311615c725791608094939160ff602094604051948552168484015260408301526060820152600093849182805260015afa15615c655781516001600160a01b03811615615c5f579190565b50600190565b50604051903d90823e3d90fd5b50505050600090600390565b307f00000000000000000000000000000000000000000000000000000000000000006001600160a01b03161480615d7f575b15615cd9577f000000000000000000000000000000000000000000000000000000000000000090565b60405160208101907f8b73c3c69bb8fe3d512ecc4cf759cc79239f7b179b0ffacaa9a75d522b39400f82527f000000000000000000000000000000000000000000000000000000000000000060408201527f000000000000000000000000000000000000000000000000000000000000000060608201524660808201523060a082015260a0815260c081018181106001600160401b038211176104705760405251902090565b507f00000000000000000000000000000000000000000000000000000000000000004614615cb0565b6001600160401b0381116104705760051b60200190565b60ff8114615dfd5760ff811690601f8211615deb5760405191615de183614ea9565b8252602082015290565b604051632cd44ac360e21b8152600490fd5b50604051600554816000615e1083615031565b80835292600190818116908115615e965750600114615e37575b5061513092500382614edf565b6005600090815291507f036b6384b5eca791c62761152d0c79bb0604c104a5fb6f4eb0703f3154bb3db05b848310615e7b5750615130935050810160200138615e2a565b81935090816020925483858901015201910190918492615e62565b90506020925061513094915060ff191682840152151560051b82010138615e2a565b60ff8114615eda5760ff811690601f8211615deb5760405191615de183614ea9565b50604051600654816000615eed83615031565b80835292600190818116908115615e965750600114615f13575061513092500382614edf565b6006600090815291507ff652222313e28459528d920b65115c16c04f3efc82aaedc97be59f3f377c0d3f5b848310615f575750615130935050810160200138615e2a565b81935090816020925483858901015201910190918492615f3e565b15615f7957565b60405162461bcd60e51b815260206004820152601b60248201527f43616e6e6f74206d696e7420746f207a65726f206164647265737300000000006044820152606490fd5b15615fc557565b606460405162461bcd60e51b815260206004820152602060248201527f416d6f756e74206d7573742062652067726561746572207468616e207a65726f6044820152fd5b60001981146107b05760010190565b60ff6009541661602457565b60405162461bcd60e51b815260206004820152601060248201526f14185d5cd8589b194e881c185d5cd95960821b6044820152606490fd5b6001600160a01b031690811561611c5760ff600954166160c4577fddf252ad1be2c89b69c2b068fc378daa952ba7f163c4a11628f55a4df523b3ef6020826160a860009460025461572c565b60025584845283825260408420818154019055604051908152a3565b60405162461bcd60e51b815260206004820152602a60248201527f45524332305061757361626c653a20746f6b656e207472616e736665722077686044820152691a5b19481c185d5cd95960b21b6064820152608490fd5b60405162461bcd60e51b815260206004820152601f60248201527f45524332303a206d696e7420746f20746865207a65726f2061646472657373006044820152606490fd5b60ff600954166160c4576001600160a01b0316801580156161e1575b6161de5760ff6010541661618e5750565b6000818152600e60205260ff60408220541680156161cd575b6161af575050565b6044925060405191637617407560e11b835260048301526024820152fd5b5080805260ff6040822054166161a7565b50565b50600161617d565b60ff600954166160c4576001600160a01b039081169182158015616276575b6162715760ff6010541661621b57505050565b82600052600e60205260ff60406000205416801561625c575b61623d57505050565b6044935060405192637617407560e11b84526004840152166024820152fd5b5081811660005260ff60406000205416616234565b505050565b5081811615616208565b80156163225780816000925b61630c575061629a82614f00565b916162a86040519384614edf565b80835281601f196162b883614f00565b013660208601375b6162c957505090565b60001981019081116107b0578091600a91603083830681018091116107b05760f81b6001600160f81b03191660001a9061630390866159b6565b530490816162c0565b9091616319600a91616009565b9291048061628c565b5060405161632f81614ea9565b60018152600360fc1b602082015290565b1561634757565b60405162461bcd60e51b815260206004820152601e60248201527f436f6d6d6f6469747920747970652063616e6e6f7420626520656d70747900006044820152606490fd5b1561639357565b60405162461bcd60e51b8152602060048201526014602482015273105cdcd95d08191bd95cc81b9bdd08195e1a5cdd60621b6044820152606490fd5b6000818152600c6020526040916163ed60088484200154151561638c565b8152601360205261650860208383209381815161640981614e71565b8251616419816102ff818b61506b565b8152825161642e816102ff8160018c0161506b565b82820152600b6164f0600289015498858401998a528551616456816102ff816003860161506b565b6060850152855161646e816102ff816004860161506b565b6080850152600581015460a0850152600681015460c0850152855161649a816102ff816007860161506b565b60e085015285516164b2816102ff816008860161506b565b61010085015260ff600982015416151561012085015285516164db816102ff81600a860161506b565b6101408501526102ff8651809481930161506b565b61016082015251915193828580945193849201614f8e565b8101601481520301902054918215616543575182810292818404149015171561652f575090565b634e487b7160e01b81526011600452602490fd5b50905090565b80600052600c602052616565600860406000200154151561638c565b6000526013602052600660406000200154801561658157421190565b50600090565b80518210156107c65760209160051b01019056fe589f5f1b831c2b1bb6368f38c84e2a21507d083cfa73f4d227d7f3d4895df766a2646970667358221220219102daa89f006efe71cf6b5bc85ec01187b46558d61d99573f5a0b8b74a03064736f6c634300081400332f8788117e7eff1d82e926ec794901d17c78024a50270940304540a733656f0d",
  "linkReferences": {},
  "deployedLinkReferences": {}
}