{
  "_format": "hh-sol-artifact-1",
  "contractName": "PledgeFactory",
  "sourceName": "contracts/PledgeFactory.sol",
  "abi": [
    {
      "inputs": [],
      "stateMutability": "nonpayable",
      "type": "constructor"
    },
    {
      "anonymous": false,
      "inputs": [
        {
          "indexed": false,
          "internalType": "address",
          "name": "account",
          "type": "address"
        }
      ],
      "name": "Paused",
      "type": "event"
    },
    {
      "anonymous": false,
      "inputs": [
        {
          "indexed": true,
          "internalType": "address",
          "name": "escrow",
          "type": "address"
        },
        {
          "indexed": true,
          "internalType": "address",
          "name": "nft",
          "type": "address"
        },
        {
          "indexed": true,
          "internalType": "address",
          "name": "deployer",
          "type": "address"
        },
        {
          "indexed": false,
          "internalType": "string",
          "name": "name",
          "type": "string"
        }
      ],
      "name": "PledgeSystemDeployed",
      "type": "event"
    },
    {
      "anonymous": false,
      "inputs": [
        {
          "indexed": true,
          "internalType": "address",
          "name": "escrow",
          "type": "address"
        },
        {
          "indexed": false,
          "internalType": "bool",
          "name": "isActive",
          "type": "bool"
        }
      ],
      "name": "PledgeSystemStatusChanged",
      "type": "event"
    },
    {
      "anonymous": false,
      "inputs": [
        {
          "indexed": true,
          "internalType": "bytes32",
          "name": "role",
          "type": "bytes32"
        },
        {
          "indexed": true,
          "internalType": "bytes32",
          "name": "previousAdminRole",
          "type": "bytes32"
        },
        {
          "indexed": true,
          "internalType": "bytes32",
          "name": "newAdminRole",
          "type": "bytes32"
        }
      ],
      "name": "RoleAdminChanged",
      "type": "event"
    },
    {
      "anonymous": false,
      "inputs": [
        {
          "indexed": true,
          "internalType": "bytes32",
          "name": "role",
          "type": "bytes32"
        },
        {
          "indexed": true,
          "internalType": "address",
          "name": "account",
          "type": "address"
        },
        {
          "indexed": true,
          "internalType": "address",
          "name": "sender",
          "type": "address"
        }
      ],
      "name": "RoleGranted",
      "type": "event"
    },
    {
      "anonymous": false,
      "inputs": [
        {
          "indexed": true,
          "internalType": "bytes32",
          "name": "role",
          "type": "bytes32"
        },
        {
          "indexed": true,
          "internalType": "address",
          "name": "account",
          "type": "address"
        },
        {
          "indexed": true,
          "internalType": "address",
          "name": "sender",
          "type": "address"
        }
      ],
      "name": "RoleRevoked",
      "type": "event"
    },
    {
      "anonymous": false,
      "inputs": [
        {
          "indexed": false,
          "internalType": "address",
          "name": "account",
          "type": "address"
        }
      ],
      "name": "Unpaused",
      "type": "event"
    },
    {
      "inputs": [],
      "name": "ADMIN_ROLE",
      "outputs": [
        {
          "internalType": "bytes32",
          "name": "",
          "type": "bytes32"
        }
      ],
      "stateMutability": "view",
      "type": "function"
    },
    {
      "inputs": [],
      "name": "DEFAULT_ADMIN_ROLE",
      "outputs": [
        {
          "internalType": "bytes32",
          "name": "",
          "type": "bytes32"
        }
      ],
      "stateMutability": "view",
      "type": "function"
    },
    {
      "inputs": [],
      "name": "DEPLOYER_ROLE",
      "outputs": [
        {
          "internalType": "bytes32",
          "name": "",
          "type": "bytes32"
        }
      ],
      "stateMutability": "view",
      "type": "function"
    },
    {
      "inputs": [
        {
          "internalType": "uint256",
          "name": "",
          "type": "uint256"
        }
      ],
      "name": "allPledgeSystems",
      "outputs": [
        {
          "internalType": "address",
          "name": "",
          "type": "address"
        }
      ],
      "stateMutability": "view",
      "type": "function"
    },
    {
      "inputs": [
        {
          "internalType": "address",
          "name": "escrowContract",
          "type": "address"
        },
        {
          "internalType": "address[]",
          "name": "tokenContracts",
          "type": "address[]"
        },
        {
          "internalType": "uint8[]",
          "name": "assetTypes",
          "type": "uint8[]"
        }
      ],
      "name": "configureAssetTokens",
      "outputs": [],
      "stateMutability": "nonpayable",
      "type": "function"
    },
    {
      "inputs": [
        {
          "internalType": "string",
          "name": "name",
          "type": "string"
        },
        {
          "internalType": "string",
          "name": "nftName",
          "type": "string"
        },
        {
          "internalType": "string",
          "name": "nftSymbol",
          "type": "string"
        }
      ],
      "name": "deployPledgeSystem",
      "outputs": [
        {
          "internalType": "address",
          "name": "escrow",
          "type": "address"
        },
        {
          "internalType": "address",
          "name": "nft",
          "type": "address"
        }
      ],
      "stateMutability": "nonpayable",
      "type": "function"
    },
    {
      "inputs": [
        {
          "internalType": "address",
          "name": "escrowContract",
          "type": "address"
        }
      ],
      "name": "emergencyPausePledgeSystem",
      "outputs": [],
      "stateMutability": "nonpayable",
      "type": "function"
    },
    {
      "inputs": [
        {
          "internalType": "address",
          "name": "",
          "type": "address"
        }
      ],
      "name": "escrowToNFT",
      "outputs": [
        {
          "internalType": "address",
          "name": "",
          "type": "address"
        }
      ],
      "stateMutability": "view",
      "type": "function"
    },
    {
      "inputs": [],
      "name": "getActivePledgeSystems",
      "outputs": [
        {
          "internalType": "address[]",
          "name": "activeSystems",
          "type": "address[]"
        }
      ],
      "stateMutability": "view",
      "type": "function"
    },
    {
      "inputs": [],
      "name": "getAllPledgeSystems",
      "outputs": [
        {
          "internalType": "address[]",
          "name": "",
          "type": "address[]"
        }
      ],
      "stateMutability": "view",
      "type": "function"
    },
    {
      "inputs": [
        {
          "internalType": "address",
          "name": "escrowContract",
          "type": "address"
        }
      ],
      "name": "getNFTContract",
      "outputs": [
        {
          "internalType": "address",
          "name": "",
          "type": "address"
        }
      ],
      "stateMutability": "view",
      "type": "function"
    },
    {
      "inputs": [
        {
          "internalType": "address",
          "name": "escrowContract",
          "type": "address"
        }
      ],
      "name": "getPledgeSystemInfo",
      "outputs": [
        {
          "components": [
            {
              "internalType": "address",
              "name": "escrowContract",
              "type": "address"
            },
            {
              "internalType": "address",
              "name": "nftContract",
              "type": "address"
            },
            {
              "internalType": "string",
              "name": "name",
              "type": "string"
            },
            {
              "internalType": "bool",
              "name": "isActive",
              "type": "bool"
            },
            {
              "internalType": "uint256",
              "name": "deployedAt",
              "type": "uint256"
            },
            {
              "internalType": "address",
              "name": "deployer",
              "type": "address"
            }
          ],
          "internalType": "struct PledgeFactory.PledgeSystemInfo",
          "name": "",
          "type": "tuple"
        }
      ],
      "stateMutability": "view",
      "type": "function"
    },
    {
      "inputs": [
        {
          "internalType": "bytes32",
          "name": "role",
          "type": "bytes32"
        }
      ],
      "name": "getRoleAdmin",
      "outputs": [
        {
          "internalType": "bytes32",
          "name": "",
          "type": "bytes32"
        }
      ],
      "stateMutability": "view",
      "type": "function"
    },
    {
      "inputs": [
        {
          "internalType": "bytes32",
          "name": "role",
          "type": "bytes32"
        },
        {
          "internalType": "address",
          "name": "account",
          "type": "address"
        }
      ],
      "name": "grantFactoryRole",
      "outputs": [],
      "stateMutability": "nonpayable",
      "type": "function"
    },
    {
      "inputs": [
        {
          "internalType": "bytes32",
          "name": "role",
          "type": "bytes32"
        },
        {
          "internalType": "address",
          "name": "account",
          "type": "address"
        }
      ],
      "name": "grantRole",
      "outputs": [],
      "stateMutability": "nonpayable",
      "type": "function"
    },
    {
      "inputs": [
        {
          "internalType": "bytes32",
          "name": "role",
          "type": "bytes32"
        },
        {
          "internalType": "address",
          "name": "account",
          "type": "address"
        }
      ],
      "name": "hasRole",
      "outputs": [
        {
          "internalType": "bool",
          "name": "",
          "type": "bool"
        }
      ],
      "stateMutability": "view",
      "type": "function"
    },
    {
      "inputs": [
        {
          "internalType": "address",
          "name": "",
          "type": "address"
        }
      ],
      "name": "isValidPledgeSystem",
      "outputs": [
        {
          "internalType": "bool",
          "name": "",
          "type": "bool"
        }
      ],
      "stateMutability": "view",
      "type": "function"
    },
    {
      "inputs": [],
      "name": "pause",
      "outputs": [],
      "stateMutability": "nonpayable",
      "type": "function"
    },
    {
      "inputs": [],
      "name": "paused",
      "outputs": [
        {
          "internalType": "bool",
          "name": "",
          "type": "bool"
        }
      ],
      "stateMutability": "view",
      "type": "function"
    },
    {
      "inputs": [
        {
          "internalType": "address",
          "name": "",
          "type": "address"
        }
      ],
      "name": "pledgeSystemStatus",
      "outputs": [
        {
          "internalType": "bool",
          "name": "",
          "type": "bool"
        }
      ],
      "stateMutability": "view",
      "type": "function"
    },
    {
      "inputs": [
        {
          "internalType": "bytes32",
          "name": "role",
          "type": "bytes32"
        },
        {
          "internalType": "address",
          "name": "account",
          "type": "address"
        }
      ],
      "name": "renounceRole",
      "outputs": [],
      "stateMutability": "nonpayable",
      "type": "function"
    },
    {
      "inputs": [
        {
          "internalType": "bytes32",
          "name": "role",
          "type": "bytes32"
        },
        {
          "internalType": "address",
          "name": "account",
          "type": "address"
        }
      ],
      "name": "revokeFactoryRole",
      "outputs": [],
      "stateMutability": "nonpayable",
      "type": "function"
    },
    {
      "inputs": [
        {
          "internalType": "bytes32",
          "name": "role",
          "type": "bytes32"
        },
        {
          "internalType": "address",
          "name": "account",
          "type": "address"
        }
      ],
      "name": "revokeRole",
      "outputs": [],
      "stateMutability": "nonpayable",
      "type": "function"
    },
    {
      "inputs": [
        {
          "internalType": "address",
          "name": "escrowContract",
          "type": "address"
        },
        {
          "internalType": "bool",
          "name": "isActive",
          "type": "bool"
        }
      ],
      "name": "setPledgeSystemStatus",
      "outputs": [],
      "stateMutability": "nonpayable",
      "type": "function"
    },
    {
      "inputs": [
        {
          "internalType": "bytes4",
          "name": "interfaceId",
          "type": "bytes4"
        }
      ],
      "name": "supportsInterface",
      "outputs": [
        {
          "internalType": "bool",
          "name": "",
          "type": "bool"
        }
      ],
      "stateMutability": "view",
      "type": "function"
    },
    {
      "inputs": [
        {
          "internalType": "address",
          "name": "",
          "type": "address"
        }
      ],
      "name": "systemNames",
      "outputs": [
        {
          "internalType": "string",
          "name": "",
          "type": "string"
        }
      ],
      "stateMutability": "view",
      "type": "function"
    },
    {
      "inputs": [],
      "name": "totalPledgeSystems",
      "outputs": [
        {
          "internalType": "uint256",
          "name": "",
          "type": "uint256"
        }
      ],
      "stateMutability": "view",
      "type": "function"
    },
    {
      "inputs": [],
      "name": "unpause",
      "outputs": [],
      "stateMutability": "nonpayable",
      "type": "function"
    }
  ],
  "bytecode": "0x60806040818152346200016a5760ff1980600154166001556000908180526020828152838320338452815260ff84842054161562000134575b7fa49807205ce4d355092ef5a8a18f56e8913cf4a201fbe287825b095693c21775808452838252848420338552825260ff858520541615620000fc575b507ffc425f2263d0df187444b70e47283d622c70181c5baebb1306a01edba1ce184c93848452838252808420338552825260ff818520541615620000c1575b617e948681620001708239f35b6001918585528481528185209033865252832091825416179055339160008051602062008004833981519152339280a43880808080620000b4565b808452838252848420338552825284842060018482541617905533903390600080516020620080048339815191528680a43862000075565b8280528281528383203384528152838320600183825416179055333384600080516020620080048339815191528180a462000038565b600080fdfe60806040818152600491823610156200001757600080fd5b600092833560e01c91826301ffc9a714620018165750816312f6d3bc14620011c4578163248a9ca314620017ea57816325d9544714620015665781632f2ff15d146200152d57816332c85a5f14620013cc57816336568abe146200133357816339615812146200129e5781633f4ba83a14620012035781634771864214620011c4578163561a1392146200118f5781635c975abb14620011695781636739de8e146200112857816375b238fc14620010eb5781637d8c60651462000f065781638456cb591462000ea65781638be8506e1462000d7d57816391d148541462000d3357816396566aee1462000c1a57816399f5dd0b1462000bd4578163a159d6d41462000b32578163a217fddf1462000b15578163a4a91d751462000abb578163ae91c0d71462000a9a578163d048731d1462000a58578163d547741f1462000a12578163e2c816aa14620001b5575063ecd00261146200017657600080fd5b34620001b15781600319360112620001b157602090517ffc425f2263d0df187444b70e47283d622c70181c5baebb1306a01edba1ce184c8152f35b5080fd5b9050823462000a0f57606036600319011262000a0f5767ffffffffffffffff8235818111620006f157620001ed903690850162001b2c565b6024938435838111620006a85762000209903690830162001b2c565b9260443581811162000a0b5762000224903690840162001b2c565b7ffc425f2263d0df187444b70e47283d622c70181c5baebb1306a01edba1ce184c94858752602095878752898820338952875260ff8a89205416156200083257506200026f62002048565b845115620007f057805115620007ae578151156200076257885191612fe4918284019284841086851117620007505791620002be859492620002cc9462004e7b87398d84528d84019062001940565b918981840391015262001940565b039086f0908115620007465787516001600160a01b039283169690612d2c80820190848211838310176200073457889183916200214f83398a815203019082f08015620007285783169789516306ce76f360e41b8152878187818c5afa9081156200063f578391620006f5575b50883b15620006f1578a51632f2ff15d60e01b8082528782019283526001600160a01b038c166020840152918490829081900360400181838e5af180156200068257620006df575b508a51631d6c8e3f60e21b80825290898189818e5afa9081156200069e578591620006ac575b508a3b15620006a8578c51838152888101918252336020830152908590829081900360400181838f5af180156200069e5791888e8c938f96956200068c575b50518095819382525afa918215620006825784926200064d575b508a3b1562000649578b51908152868101918252336020830152908390829081900360400181838e5af180156200063f576200062d575b5060025493680100000000000000008510156200061b576200046160019586810160025562001967565b819291549060031b918c831b921b19161790558882526003875289822060ff19908582825416179055858852848b84209182541617905560058752898220886bffffffffffffffffffffffff60a01b825416179055600687528982209486519384116200060a575050620004d68454620019b5565b601f8111620005bf575b508590601f83116001146200055d57919283918262000551575b501b916000199060031b1c19161790555b82847ff1749e10b476fe124bb6cca7ec4d998d7ed610a8ec76372b473318bf95b13f878751858152806200054433968883019062001940565b0390a48351928352820152f35b86015192508a620004fa565b9082601f198116868452888420935b8987838310620005a757505050106200058d575b5050811b0190556200050b565b85015160001960f88460031b161c19169055888062000580565b858b015187559095019493840193869350016200056c565b848252868220601f840160051c810191888510620005ff575b601f0160051c019084905b828110620005f3575050620004e0565b838155018490620005e3565b9091508190620005d8565b634e487b7160e01b83526041905281fd5b50634e487b7160e01b82526041855290fd5b6200063890620019f2565b8a62000437565b8b513d85823e3d90fd5b8380fd5b9091508881813d83116200067a575b62000668818362001a57565b81010312620006495751908c62000400565b503d6200065c565b8c513d86823e3d90fd5b6200069790620019f2565b38620003e6565b8d513d87823e3d90fd5b8480fd5b90508981813d8311620006d7575b620006c6818362001a57565b81010312620006a857518d620003a7565b503d620006ba565b620006ea90620019f2565b8b62000381565b8280fd5b90508781813d831162000720575b6200070f818362001a57565b81010312620006f157518b62000339565b503d62000703565b508851903d90823e3d90fd5b634e487b7160e01b8452604187528a84fd5b87513d87823e3d90fd5b634e487b7160e01b8a52604187528a8afd5b885162461bcd60e51b81528085018790526021818a01527f506c65646765466163746f72793a20696e76616c6964204e46542073796d626f6044820152601b60fa1b6064820152608490fd5b885162461bcd60e51b8152808501879052601f818a01527f506c65646765466163746f72793a20696e76616c6964204e4654206e616d65006044820152606490fd5b885162461bcd60e51b8152808501879052601b818a01527f506c65646765466163746f72793a20696e76616c6964206e616d6500000000006044820152606490fd5b84898b89938b620008433362001f2f565b91835190620008528262001a3a565b60428252878201926060368537825115620009f95760308453825190600191821015620009e75790607860218501536041915b81831162000979575050506200093957604862000935959385936200091c936200090c975197889376020b1b1b2b9b9a1b7b73a3937b61d1030b1b1b7bab73a1604d1b8d860152620008e28d82519283916037890191016200191b565b8401917001034b99036b4b9b9b4b733903937b6329607d1b6037840152518093868401906200191b565b0103602881018652018462001a57565b5194859462461bcd60e51b865285015283019062001940565b0390fd5b60648688878188519362461bcd60e51b85528401528201527f537472696e67733a20686578206c656e67746820696e73756666696369656e746044820152fd5b909192600f81166010811015620009d5576f181899199a1a9b1b9c1cb0b131b232b360811b901a620009ac858762001f1d565b53891c928015620009c35760001901919062000885565b634e487b7160e01b825260118a528882fd5b634e487b7160e01b835260328b528983fd5b634e487b7160e01b8152603289528790fd5b634e487b7160e01b8152603288528690fd5b8580fd5b80fd5b91905034620006f15780600319360112620006f15762000a55913562000a4f600162000a3d6200188a565b93838752866020528620015462001d8b565b62001ea8565b80f35b505034620001b1576020366003190112620001b15760209160ff9082906001600160a01b0362000a876200186e565b1681526003855220541690519015158152f35b505034620001b15781600319360112620001b1576020906002549051908152f35b505034620001b1576020366003190112620001b15762000b119162000afd9082906001600160a01b0362000aee6200186e565b16815260066020522062001a7a565b905191829160208352602083019062001940565b0390f35b505034620001b15781600319360112620001b15751908152602090f35b905034620006f15781600319360112620006f157359062000b526200188a565b9062000b5d62001b88565b82845260208481528185206001600160a01b039093168086529290528084205460ff161562000b8a578380f35b828452836020528084208285526020528320600160ff1982541617905533917f2f8788117e7eff1d82e926ec794901d17c78024a50270940304540a733656f0d8480a43880808380f35b905034620006f1576020366003190112620006f157359160025483101562000a0f575062000c0460209262001967565b905491519160018060a01b039160031b1c168152f35b905034620006f15760208060031936011262000649579262000d199362000c406200186e565b918060a0865162000c518162001a1d565b8281528285820152606088820152826060820152826080820152015260018060a01b039586809416958683526003845262000c9260ff82852054166200208d565b8683526005845262000cd160ff8287818720541695600688528181209988522054169682519862000cc38a62001a1d565b895285890194855262001a7a565b9080880191825260608801961515875285608089019442865260a08a019633885283519b8c9b828d525116908b01525116908801525160c0606088015260e087019062001940565b9351151560808601525160a0850152511660c08301520390f35b905034620006f15781600319360112620006f1578160209360ff9262000d586200188a565b903582528186528282206001600160a01b039091168252855220549151911615158152f35b91905034620006f1576020366003190112620006f15762000d9d6200186e565b9162000da862001b88565b6001600160a01b039283168085526003602052828520549093859162000dd19060ff166200208d565b843b15620001b1578351638456cb5960e01b808252919083818681838b5af1801562000e9c5762000e8a575b5085835260056020528483205416803b15620006f1578383928651948593849283525af1801562000e8057917f3573d2643918f62c64a87b263f1de46843a79cf8674282a348a21c8b139e1d24939160209362000e6e575b508486528252808520805460ff1916905551848152a280f35b62000e7990620019f2565b3862000e55565b83513d87823e3d90fd5b62000e9590620019f2565b3862000dfd565b86513d86823e3d90fd5b505034620001b15781600319360112620001b15760207f62e78cea01bee320cd4e420270b5ea74000d11b0c9f74754ebdbfc544b05a2589162000ee862001b88565b62000ef262002048565b600160ff198154161760015551338152a180f35b905034620006f15781600319360112620006f15762000f246200186e565b91836024359283151593848103620006f15762000f4062001b88565b6001600160a01b0395861680845260036020528484205490969062000f689060ff166200208d565b8684528260205284842060ff1981541660ff881617905560056020528484205416906000146200104a57853b15620006f1578351631fa5d41d60e11b808252929084818381838c5af1801562001040576200102e575b50813b15620006495783928551948593849283525af180156200102457917f3573d2643918f62c64a87b263f1de46843a79cf8674282a348a21c8b139e1d24939160209362001012575b505b51908152a280f35b6200101d90620019f2565b3862001008565b82513d87823e3d90fd5b6200103990620019f2565b3862000fbe565b86513d87823e3d90fd5b853b15620006f1578351638456cb5960e01b808252929084818381838c5af180156200104057620010d9575b50813b15620006495783928551948593849283525af180156200102457917f3573d2643918f62c64a87b263f1de46843a79cf8674282a348a21c8b139e1d249391602093620010c7575b506200100a565b620010d290620019f2565b38620010c0565b620010e490620019f2565b3862001076565b505034620001b15781600319360112620001b157602090517fa49807205ce4d355092ef5a8a18f56e8913cf4a201fbe287825b095693c217758152f35b905034620006f1576020366003190112620006f15760209260ff918391906001600160a01b03620011586200186e565b168252855220541690519015158152f35b505034620001b15781600319360112620001b15760209060ff6001541690519015158152f35b91905034620006f157366003190112620001b15762000a5590620011b26200188a565b90620011bd62001b88565b3562001ea8565b505034620001b1576020366003190112620001b1576020916001600160a01b0390829082620011f26200186e565b168152600585522054169051908152f35b905034620006f15782600319360112620006f1576200122162001b88565b6001549060ff82161562001264575060ff1916600155513381527f5db9ee0a495bf2e6ff9c91a7834c1ba4fdd244a5e8aa4e537bd38aeae4b073aa90602090a180f35b606490602084519162461bcd60e51b8352820152601460248201527314185d5cd8589b194e881b9bdd081c185d5cd95960621b6044820152fd5b82843462000a0f578060031936011262000a0f578151918291600254808552602080950194600283527f405787fa12a823e0f2b7631cc41b3ba8828b3321ca811111fa75cd3aa3bb5ace92905b828210620013125762000b11868662001307828b038362001a57565b5191829182620018d5565b83546001600160a01b031687529586019560019384019390910190620012eb565b83915034620001b15782600319360112620001b157620013526200188a565b90336001600160a01b0383160362001371579062000a55913562001ea8565b608490602085519162461bcd60e51b8352820152602f60248201527f416363657373436f6e74726f6c3a2063616e206f6e6c792072656e6f756e636560448201526e103937b632b9903337b91039b2b63360891b6064820152fd5b838334620001b15781600319360112620001b15760025482805b828110620014d25750620013fa8462002135565b93620014098451958662001a57565b8085526200141a601f199162002135565b019060209136838701378091815b8481106200143f5785518062000b118982620018d5565b6200144a8162001967565b60018060a01b03809254600392831b1c16855289845260ff888620541662001480575b50506200147a90620020da565b62001428565b6200148d83969362001967565b9054911b1c168751821015620014bf5781620014b691846200147a9460051b8b010152620020da565b9390896200146d565b634e487b7160e01b845260328952602484fd5b620014dd8162001967565b905460039190911b1c6001600160a01b0316825260208690528382205460ff1662001514575b6200150e90620020da565b620013e6565b93620015246200150e91620020da565b94905062001503565b905034620006f15781600319360112620006f15735906200154d6200188a565b908284528360205262000b5d6001828620015462001d8b565b838334620001b1576060366003190112620001b157620015856200186e565b9060249081359467ffffffffffffffff9586811162000a0b57620015ad9036908301620018a1565b9690916044918235908111620017e657620015cc9036908301620018a1565b620015d997919762001b88565b8560018060a01b0380931691828b5260209960038b52620016028c60ff9485912054166200208d565b818d03620017a4578b5b8d811062001618578c80f35b85620016318f836200162b918d62002100565b62002111565b16156200175357600584620016526200164c84878762002100565b62002126565b16116200170657836200166b6200164c83868662002100565b166006811015620016f457620016888f836200162b918d62002100565b863b15620016f0578b51639acd542960e01b81528981019290925287168c8201528d818a81838a5af18015620016e45790620016cc9291620016d2575b50620020da565b6200160c565b620016dd90620019f2565b8f620016c5565b8e8c51903d90823e3d90fd5b8e80fd5b634e487b7160e01b8e52602188528b8efd5b5050875162461bcd60e51b81528086018b90526021818b01527f506c65646765466163746f72793a20696e76616c69642061737365742074797081880152606560f81b6064820152608490fd5b5050875162461bcd60e51b81528086018b90526025818b01527f506c65646765466163746f72793a20696e76616c696420746f6b656e20636f6e81880152641d1c9858dd60da1b6064820152608490fd5b50875162461bcd60e51b81528086018b9052601e818b01527f506c65646765466163746f72793a206c656e677468206d69736d61746368000081880152606490fd5b8780fd5b905034620006f1576020366003190112620006f157816020936001923581528085522001549051908152f35b849134620006f1576020366003190112620006f1573563ffffffff60e01b8116809103620006f15760209250637965db0b60e01b81149081156200185c575b5015158152f35b6301ffc9a760e01b1490508362001855565b600435906001600160a01b03821682036200188557565b600080fd5b602435906001600160a01b03821682036200188557565b9181601f84011215620018855782359167ffffffffffffffff831162001885576020808501948460051b0101116200188557565b6020908160408183019282815285518094520193019160005b828110620018fd575050505090565b83516001600160a01b031685529381019392810192600101620018ee565b60005b8381106200192f5750506000910152565b81810151838201526020016200191e565b906020916200195b815180928185528580860191016200191b565b601f01601f1916010190565b6002548110156200199f5760026000527f405787fa12a823e0f2b7631cc41b3ba8828b3321ca811111fa75cd3aa3bb5ace0190600090565b634e487b7160e01b600052603260045260246000fd5b90600182811c92168015620019e7575b6020831014620019d157565b634e487b7160e01b600052602260045260246000fd5b91607f1691620019c5565b67ffffffffffffffff811162001a0757604052565b634e487b7160e01b600052604160045260246000fd5b60c0810190811067ffffffffffffffff82111762001a0757604052565b6080810190811067ffffffffffffffff82111762001a0757604052565b90601f8019910116810190811067ffffffffffffffff82111762001a0757604052565b906040519182600082549262001a9084620019b5565b90818452600194858116908160001462001b07575060011462001ac0575b505062001abe9250038362001a57565b565b9093915060005260209081600020936000915b81831062001aee57505062001abe9350820101388062001aae565b8554888401850152948501948794509183019162001ad3565b91505062001abe94506020925060ff191682840152151560051b820101388062001aae565b81601f82011215620018855780359067ffffffffffffffff821162001a07576040519262001b65601f8401601f19166020018562001a57565b828452602083830101116200188557816000926020809301838601378301015290565b3360009081527f7d7ffb7a348e1c6a02869081a26547b49160dd3df72d1d75a570eb9b698292ec602090815260408083205490927fa49807205ce4d355092ef5a8a18f56e8913cf4a201fbe287825b095693c217759160ff161562001bed5750505050565b62001bf83362001f2f565b9184519062001c078262001a3a565b6042825284820192606036853782511562001d77576030845382519060019182101562001d775790607860218501536041915b81831162001d045750505062001cc25760486200093593869362001ca59362001c95985198899376020b1b1b2b9b9a1b7b73a3937b61d1030b1b1b7bab73a1604d1b8a860152620008e2815180928c6037890191016200191b565b0103602881018752018562001a57565b5192839262461bcd60e51b84526004840152602483019062001940565b60648486519062461bcd60e51b825280600483015260248201527f537472696e67733a20686578206c656e67746820696e73756666696369656e746044820152fd5b909192600f8116601081101562001d63576f181899199a1a9b1b9c1cb0b131b232b360811b901a62001d37858762001f1d565b5360041c92801562001d4f5760001901919062001c3a565b634e487b7160e01b82526011600452602482fd5b634e487b7160e01b83526032600452602483fd5b634e487b7160e01b81526032600452602490fd5b600090808252602090828252604092838120338252835260ff84822054161562001db55750505050565b62001dc03362001f2f565b9184519062001dcf8262001a3a565b6042825284820192606036853782511562001d77576030845382519060019182101562001d775790607860218501536041915b81831162001e5d5750505062001cc25760486200093593869362001ca59362001c95985198899376020b1b1b2b9b9a1b7b73a3937b61d1030b1b1b7bab73a1604d1b8a860152620008e2815180928c6037890191016200191b565b909192600f8116601081101562001d63576f181899199a1a9b1b9c1cb0b131b232b360811b901a62001e90858762001f1d565b5360041c92801562001d4f5760001901919062001e02565b9060009180835282602052604083209160018060a01b03169182845260205260ff60408420541662001ed957505050565b80835282602052604083208284526020526040832060ff1981541690557ff6391f5c32d9c69d2a47ea670b442974b53935d1edc7fd64eb21e047a839171b339380a4565b9081518110156200199f570160200190565b604051906060820182811067ffffffffffffffff82111762001a0757604052602a82526020820160403682378251156200199f576030905381516001908110156200199f57607860218401536029905b80821162001fd557505062001f915790565b606460405162461bcd60e51b815260206004820152602060248201527f537472696e67733a20686578206c656e67746820696e73756666696369656e746044820152fd5b9091600f8116601081101562002033576f181899199a1a9b1b9c1cb0b131b232b360811b901a62002007848662001f1d565b5360041c9180156200201e57600019019062001f7f565b60246000634e487b7160e01b81526011600452fd5b60246000634e487b7160e01b81526032600452fd5b60ff600154166200205557565b60405162461bcd60e51b815260206004820152601060248201526f14185d5cd8589b194e881c185d5cd95960821b6044820152606490fd5b156200209557565b60405162461bcd60e51b815260206004820152601d60248201527f506c65646765466163746f72793a20696e76616c696420657363726f770000006044820152606490fd5b6000198114620020ea5760010190565b634e487b7160e01b600052601160045260246000fd5b91908110156200199f5760051b0190565b356001600160a01b0381168103620018855790565b3560ff81168103620018855790565b67ffffffffffffffff811162001a075760051b6020019056fe608034620002b257601f62002d2c38819003918201601f1916830192916001600160401b03841183851017620002b75780839260409586528339602092839181010312620002b257516001600160a01b03811690819003620002b25760ff1960019181835416835582600255683635c9adc5dea00000600c55611b58600d556276a700600e558015620002645760018060a01b0319600454161760045581600355600091828052828452848320338452845260ff8584205416156200022f575b7fa49807205ce4d355092ef5a8a18f56e8913cf4a201fbe287825b095693c21775808452838552858420338552855260ff868520541615620001f8575b507f408a36151f841709116a4e8aca4e0202874f7f54687dcb863b1ea4672dc9d8cf808452838552858420338552855260ff868520541615620001c1575b507f9f2df0fed2c77648de5860a4cc508cd0818c85b8b8a1ab4ceeef8d981c8956a693848452838152858420338552815260ff86852054161562000188575b8551612a3e9081620002ce8239f35b848452838152858420903385525284832091825416179055339160008051602062002d0c833981519152339280a4388080808062000179565b808452838552858420338552855285842082848254161790553390339060008051602062002d0c8339815191528680a4386200013a565b808452838552858420338552855285842082848254161790553390339060008051602062002d0c8339815191528680a438620000fc565b8280528284528483203384528452848320818382541617905533338460008051602062002d0c8339815191528180a4620000bf565b845162461bcd60e51b815260048101859052602160248201527f506c65646765457363726f773a20696e76616c6964204e4654206164647265736044820152607360f81b6064820152608490fd5b600080fd5b634e487b7160e01b600052604160045260246000fdfe608080604052600436101561001357600080fd5b600090813560e01c90816301ffc9a714611cd557508063109d548114611cb7578063150b7a0214611c6057806318ea71cf14611bed578063248a9ca314611bc15780632f2ff15d14611b1357806336568abe14611a805780633f4ba83a146119eb5780634245962b146119b057806353f10a4b1461199257806359e4ab72146119425780635c975abb1461191f5780636ad53c4f146118f557806375b238fc146118ba57806378bdce7c146116d95780638456cb591461167f5780638556d1f2146115fd578063876f4e1c146102fb5780638df73793146115d257806391d148541461158a57806394391d80146114ab578063960782fd1461127857806397304ced14610f6c5780639acd542914610ecc578063a217fddf14610eb0578063aa159d0f14610d88578063ac12408114610ca6578063b1749f0e14610a58578063be1e9ddd14610a2e578063c30037e5146103b9578063c501651a1461033c578063cb51ee91146102fb578063d5391393146102c0578063d547741f14610280578063e0d99f691461022a578063e9bd539b1461020c578063f384bd05146101ee5763faa9342e146101c357600080fd5b346101eb57806003193601126101eb576004546040516001600160a01b039091168152602090f35b80fd5b50346101eb57806003193601126101eb576020600d54604051908152f35b50346101eb57806003193601126101eb576020600c54604051908152f35b50346101eb5760403660031901126101eb57610244611d2a565b6001600160a01b03168152600660205260408120805460243592908310156101eb5760206102728484611dfa565b90546040519160031b1c8152f35b50346101eb5760403660031901126101eb576102bd6004356102a0611d45565b90808452836020526102b86001604086200154612352565b61245c565b80f35b50346101eb57806003193601126101eb5760206040517f9f2df0fed2c77648de5860a4cc508cd0818c85b8b8a1ab4ceeef8d981c8956a68152f35b50346101eb5760203660031901126101eb576004356006811015610338576020906001600160a01b039061032e90611e8a565b5416604051908152f35b5080fd5b50346101eb5760603660031901126101eb5760243561035961201f565b612710811161037457600435600c55600d55604435600e5580f35b60405162461bcd60e51b815260206004820152601960248201527f506c65646765457363726f773a20696e76616c6964204c5456000000000000006044820152606490fd5b50346101eb5760603660031901126101eb57600660043510156101eb57604435906001600160401b0382116101eb5760e060031983360301126101eb576103fe6126a1565b61040661265d565b600c54602435106109e95761042160248301836004016125ef565b9050156109a45760c4820135156109535760035461043e81612621565b60035560018060a01b03600454169160208161045b6004356128d7565b946104a661046f60248901896004016125ef565b9390976104c0604051998a968795869463f9abc1af60e01b86523360048701528c602487015260c0604487015260c4860190611e65565b602435606486015284810360031901608486015291612630565b60c48b013560a483015203925af192831561094657819361090e575b506104ed60248501856004016125ef565b9490604051956104fc87611ef3565b84875233602088015261051460043560408901612651565b60243560608801528360808801528560a08801528360c08801524260e088015283610100880152836101208801526001600160401b0381116107dc5760405191610568601f8301601f191660200184611f58565b818352368282011161090a57602082849387938360c498970137830101526101408701520135610160850152818152600560205260408120845181556001810160018060a01b03602087015116815490604088015160068110156108f65760ff60a01b9060a01b16916affffffffffffffffffffff60a81b1617179055606085015160028201556080850151600382015560a085015160048201556005810160c086015160058110156108e25760ff8019835416911617905560e0850151600682015561010085015160078201556008810160018060a01b03610120870151166bffffffffffffffffffffffff60a01b8254161790556101408501519485516001600160401b0381116108ce576106826009840154611eb9565b601f8111610889575b506020601f821160011461081357918161016092600a94604098999a8892610808575b50508160011b916000199060031b1c19161760098501555b01519101558281526008602052838282205583815260096020528282822055338152600660205220918254926801000000000000000093848110156107dc57610719816107329360018794018155611dfa565b90919082549060031b91821b91600019901b1916179055565b600a54838110156107dc576001810180600a558110156107f2578290600a6000527fc65a7bb8d6351c1cf70c95a316cc6a92839c986682d98bc35f958f4883f9d2a80155600b54928310156107dc576107978261071985600160209701600b55611dc3565b6040519060243582528382015260043590827f82346044e813ab412ceeeb363f42380d14f83ec0f4a1342e44c01c6d2828f92a60403393a46001600255604051908152f35b634e487b7160e01b600052604160045260246000fd5b634e487b7160e01b600052603260045260246000fd5b0151905038806106ae565b6009840185526020852097855b601f19841681106108715750826040979899600a959360019361016096601f19811610610858575b505050811b0160098501556106c6565b015160001960f88460031b161c19169055388080610848565b828201518a5560019099019860209283019201610820565b60098401855260208520601f830160051c8101602084106108c7575b601f830160051c820181106108bb57505061068b565b600081556001016108a5565b50806108a5565b634e487b7160e01b84526041600452602484fd5b634e487b7160e01b84526021600452602484fd5b634e487b7160e01b86526021600452602486fd5b8480fd5b9092506020813d60201161093e575b8161092a60209383611f58565b8101031261093a575191386104dc565b8280fd5b3d915061091d565b50604051903d90823e3d90fd5b60405162461bcd60e51b815260206004820152602360248201527f506c65646765457363726f773a20696e76616c696420646f63756d656e7420686044820152620c2e6d60eb1b6064820152608490fd5b60405162461bcd60e51b815260206004820152601e60248201527f506c65646765457363726f773a20696e76616c6964206d6574616461746100006044820152606490fd5b60405162461bcd60e51b815260206004820152601b60248201527f506c65646765457363726f773a2076616c756520746f6f206c6f7700000000006044820152606490fd5b50346101eb5760203660031901126101eb5760406020916004358152600983522054604051908152f35b50346101eb57610a6736611ea3565b9080835260206005815260018060a01b03806001604087200154163303610c615782855260058252610a9e604086205415156126f5565b610aa66126a1565b828552600582526040852090600582019060ff8254166005811015610c4d576001610ad1911461278d565b60038301548603610c085790818392610af460ff60018b97015460a01c16611e8a565b5416610b018115156127d9565b803b1561090a5760405163079cc67960e41b8152336004820152602481018990529085908290604490829084905af1908115610bfd578591610be9575b5050600491600360ff19825416179055815416910154813b1561093a5782916064839260405194859384926323b872dd60e01b845230600485015233602485015260448401525af18015610bde57610bc6575b50507fc873af539f437a686909770aa53dd12d403cb89ece565f4896ad97ed59a17dc7906040519384523393a3600160025580f35b610bcf90611f0f565b610bda578338610b91565b8380fd5b6040513d84823e3d90fd5b610bf290611f0f565b610bda578338610b3e565b6040513d87823e3d90fd5b60405162461bcd60e51b815260048101859052601e60248201527f506c65646765457363726f773a20696e636f727265637420616d6f756e7400006044820152606490fd5b634e487b7160e01b88526021600452602488fd5b60405162461bcd60e51b815260048101839052601e60248201527f506c65646765457363726f773a206e6f7420706c65646765206f776e657200006044820152606490fd5b50346101eb5760203660031901126101eb576004358152600560205260409020805460018201546002830154926003810154936004820154600583015460ff16600684015490600785015492600160a01b6001900398896008880154169560098801610d1190611f79565b97600a0154986040519b8c9b8c52811660208c015260408b019060a01c60ff1690610d3b91611e12565b60608a0152608089015260a088015260c08701610d5791611e35565b60e0860152610100850152610120840152610180806101408501528301610d7d91611e65565b906101608301520390f35b50346101eb5760203660031901126101eb57600435610da561201f565b8082526005602052610dbc604083205415156126f5565b610dc46126a1565b8082526005602052604082209060058201805460ff811660058110156108f6576001610df0911461278d565b6007840154600e548101809111610e9a574210610e555760049060ff19161790557f7ace077080fe789aebbed2e8ef24412b9715ba705d02d5eca8e5f66e39f8e8f36020600360018060a01b03600186015416940154604051908152a3600160025580f35b60405162461bcd60e51b815260206004820152601c60248201527f506c65646765457363726f773a206e6f7420696e2064656661756c74000000006044820152606490fd5b634e487b7160e01b600052601160045260246000fd5b50346101eb57806003193601126101eb57602090604051908152f35b50346101eb5760403660031901126101eb57600435600681101561033857610ef2611d45565b610efa61201f565b6001600160a01b0316908115610f2757610f1390611e8a565b80546001600160a01b031916909117905580f35b60405162461bcd60e51b815260206004820152601e60248201527f506c65646765457363726f773a20696e76616c696420636f6e747261637400006044820152606490fd5b50346101eb5760208060031936011261033857600435907f9f2df0fed2c77648de5860a4cc508cd0818c85b8b8a1ab4ceeef8d981c8956a68060005260008252604060002033600052825260ff60406000205416156110fe5750600590828452818152610fde604085205415156126f5565b610fe66126a1565b82845252604082209060ff60058301541660058110156108e257600161100c911461278d565b600182018054936001600160a01b03919060038361103060a089901c60ff16611e8a565b54169561103e8715156127d9565b015495853b15610338576040516340c10f1960e01b81529084166001600160a01b03166004820152602481018790528181604481838a5af18015610bde576110ea575b505054604080516001600160a01b0386168152602081018790529290911692917f6561fc08ce5909ed17199a00bde41aafcbc56c1121de676484f7166d52000e529190a36001600255604080516001600160a01b039290921682526020820192909252f35b0390f35b6110f48291611f0f565b6101eb5780611081565b90611108336124e1565b9160405161111581611f3d565b604281528281019160603684378151156107f2576030835381516001908110156107f257607860218401536041905b8082116112345750506111f1576111bd936111cc9260489260405196879376020b1b1b2b9b9a1b7b73a3937b61d1030b1b1b7bab73a1604d1b88860152611194815180928a603789019101611e42565b8401917001034b99036b4b9b9b4b733903937b6329607d1b603784015251809386840190611e42565b01036028810185520183611f58565b6111ed60405192839262461bcd60e51b845260048401526024830190611e65565b0390fd5b6064836040519062461bcd60e51b825280600483015260248201527f537472696e67733a20686578206c656e67746820696e73756666696369656e746044820152fd5b9091600f811660108110156107f2576f181899199a1a9b1b9c1cb0b131b232b360811b901a61126384866124d0565b5360041c918015610e9a576000190190611144565b50346101eb5761128736611ea3565b9061129061220d565b80835260056020526112a7604084205415156126f5565b6112af6126a1565b808352600560205260408320600581019081549160ff83166005811015611497576112da9015612741565b841561144757612710850261270f1986820401611433576002830154801561141f57600d549104116113da576001869360ff191617905583600382015542600782015560088101336bffffffffffffffffffffffff60a01b82541617905561134183612831565b60048054910154906001600160a01b0316803b1561093a5760448392604051948593849263fc9e66df60e01b845260048401523060248401525af180156113cf576113bc575b506040519182527fef94743f0f60dd16c933bd7af4daf092f897dfe314268d41e7dea2dff36f42d860203393a3600160025580f35b6113c890939193611f0f565b9138611387565b6040513d86823e3d90fd5b60405162461bcd60e51b815260206004820152601a60248201527f506c65646765457363726f773a204c545620746f6f20686967680000000000006044820152606490fd5b634e487b7160e01b88526012600452602488fd5b634e487b7160e01b87526011600452602487fd5b60405162461bcd60e51b815260206004820152602260248201527f506c65646765457363726f773a20696e76616c696420746f6b656e20616d6f756044820152611b9d60f21b6064820152608490fd5b634e487b7160e01b87526021600452602487fd5b50346101eb5760403660031901126101eb576004356024356001600160401b03811161093a576114df903690600401611d5b565b91906114e961220d565b8184526005602052611500604085205415156126f5565b6115086126a1565b818452600560205260056040852001805460ff81166005811015611497579160027fc304327f8a408a58c7b370a40256a7777ee9494a9577291235bc9af262dad8ed949261155961157f9515612741565b60ff191617905561156984612831565b6040519182916020835233966020840191612630565b0390a3600160025580f35b50346101eb5760403660031901126101eb5760ff60406020926115ab611d45565b60043582528185528282206001600160a01b03909116825284522054604051911615158152f35b50346101eb5760203660031901126101eb5760043590600b548210156101eb57602061027283611dc3565b50346101eb57806003193601126101eb57604051600b80548083529083526020808301937f0175b7a638427703f0dbe7bb9bbf987a2551717b34e79f33b5b1008d1fa01db992915b828210611668576110e68561165c81890382611f58565b60405191829182611d88565b835486529485019460019384019390910190611645565b50346101eb57806003193601126101eb5761169861201f565b6116a061265d565b600160ff19815416176001557f62e78cea01bee320cd4e420270b5ea74000d11b0c9f74754ebdbfc544b05a2586020604051338152a180f35b50346101eb5760203660031901126101eb57806101606040516116fb81611ef3565b8281528260208201528260408201528260608201528260808201528260a08201528260c08201528260e082015282610100820152826101208201526060610140820152015260043581526005602052604081206040519061175b82611ef3565b8054825260018101546001600160a01b03811660208401526117869060a01c60ff1660408401612651565b6002810154606083015260038101546080830152600481015460a083015260ff60058201541660058110156108e25760c0830152600681015460e0830152600781015461010083015260088101546001600160a01b0316610120830152600a906117f260098201611f79565b61014084015201546101608201526040518091602082528051602083015260018060a01b03602082015116604083015261183460408201516060840190611e12565b60608101516080830152608081015160a083015260a081015160c083015261186460c082015160e0840190611e35565b60e081015161010083015261010081015161012083015260018060a01b03610120820151166101408301526101408101516101606118af6101809283838701526101a0860190611e65565b920151908301520390f35b50346101eb57806003193601126101eb5760206040517fa49807205ce4d355092ef5a8a18f56e8913cf4a201fbe287825b095693c217758152f35b50346101eb5760203660031901126101eb5760406020916004358152600883522054604051908152f35b50346101eb57806003193601126101eb57602060ff600154166040519015158152f35b50346101eb5760203660031901126101eb57600435600a5481101561033857600a602092527fc65a7bb8d6351c1cf70c95a316cc6a92839c986682d98bc35f958f4883f9d2a80154604051908152f35b50346101eb57806003193601126101eb576020600e54604051908152f35b50346101eb57806003193601126101eb5760206040517f408a36151f841709116a4e8aca4e0202874f7f54687dcb863b1ea4672dc9d8cf8152f35b50346101eb57806003193601126101eb57611a0461201f565b60015460ff811615611a445760ff19166001557f5db9ee0a495bf2e6ff9c91a7834c1ba4fdd244a5e8aa4e537bd38aeae4b073aa6020604051338152a180f35b60405162461bcd60e51b815260206004820152601460248201527314185d5cd8589b194e881b9bdd081c185d5cd95960621b6044820152606490fd5b50346101eb5760403660031901126101eb57611a9a611d45565b336001600160a01b03821603611ab6576102bd9060043561245c565b60405162461bcd60e51b815260206004820152602f60248201527f416363657373436f6e74726f6c3a2063616e206f6e6c792072656e6f756e636560448201526e103937b632b9903337b91039b2b63360891b6064820152608490fd5b50346101eb5760403660031901126101eb57600435611b30611d45565b81835282602052611b476001604085200154612352565b818352602083815260408085206001600160a01b039093168086529290915283205460ff1615611b75578280f35b818352826020526040832081845260205260408320600160ff1982541617905533917f2f8788117e7eff1d82e926ec794901d17c78024a50270940304540a733656f0d8480a438808280f35b50346101eb5760203660031901126101eb57600160406020926004358152808452200154604051908152f35b50346101eb57602080600319360112610338576001600160a01b03611c10611d2a565b1682526006815260408220916040518092808554928381520194835280832092905b828210611c49576110e68561165c81890382611f58565b835486529485019460019384019390910190611c32565b50346101eb5760803660031901126101eb57611c7a611d2a565b50611c83611d45565b506064356001600160401b03811161033857611ca3903690600401611d5b565b5050604051630a85bd0160e11b8152602090f35b50346101eb57806003193601126101eb576020600a54604051908152f35b9050346103385760203660031901126103385760043563ffffffff60e01b811680910361093a5760209250637965db0b60e01b8114908115611d19575b5015158152f35b6301ffc9a760e01b14905038611d12565b600435906001600160a01b0382168203611d4057565b600080fd5b602435906001600160a01b0382168203611d4057565b9181601f84011215611d40578235916001600160401b038311611d405760208381860195010111611d4057565b6020908160408183019282815285518094520193019160005b828110611daf575050505090565b835185529381019392810192600101611da1565b600b548110156107f257600b6000527f0175b7a638427703f0dbe7bb9bbf987a2551717b34e79f33b5b1008d1fa01db90190600090565b80548210156107f25760005260206000200190600090565b906006821015611e1f5752565b634e487b7160e01b600052602160045260246000fd5b906005821015611e1f5752565b60005b838110611e555750506000910152565b8181015183820152602001611e45565b90602091611e7e81518092818552858086019101611e42565b601f01601f1916010190565b6006811015611e1f576000526007602052604060002090565b6040906003190112611d40576004359060243590565b90600182811c92168015611ee9575b6020831014611ed357565b634e487b7160e01b600052602260045260246000fd5b91607f1691611ec8565b61018081019081106001600160401b038211176107dc57604052565b6001600160401b0381116107dc57604052565b604081019081106001600160401b038211176107dc57604052565b608081019081106001600160401b038211176107dc57604052565b90601f801991011681019081106001600160401b038211176107dc57604052565b9060405191826000825492611f8d84611eb9565b908184526001948581169081600014611ffc5750600114611fb9575b5050611fb792500383611f58565b565b9093915060005260209081600020936000915b818310611fe4575050611fb793508201013880611fa9565b85548884018501529485019487945091830191611fcc565b915050611fb794506020925060ff191682840152151560051b8201013880611fa9565b3360009081527f7d7ffb7a348e1c6a02869081a26547b49160dd3df72d1d75a570eb9b698292ec602090815260408083205490927fa49807205ce4d355092ef5a8a18f56e8913cf4a201fbe287825b095693c217759160ff16156120835750505050565b61208c336124e1565b9184519061209982611f3d565b604282528482019260603685378251156121f957603084538251906001918210156121f95790607860218501536041915b81831161218b575050506121495760486111ed93869361212d9361211e985198899376020b1b1b2b9b9a1b7b73a3937b61d1030b1b1b7bab73a1604d1b8a860152611194815180928c603789019101611e42565b01036028810187520185611f58565b5192839262461bcd60e51b845260048401526024830190611e65565b60648486519062461bcd60e51b825280600483015260248201527f537472696e67733a20686578206c656e67746820696e73756666696369656e746044820152fd5b909192600f811660108110156121e5576f181899199a1a9b1b9c1cb0b131b232b360811b901a6121bb85876124d0565b5360041c9280156121d1576000190191906120ca565b634e487b7160e01b82526011600452602482fd5b634e487b7160e01b83526032600452602483fd5b634e487b7160e01b81526032600452602490fd5b3360009081527f388301e6ac71f158ac8b29c21de3d490adc31828b570ec3663983f6bee199fa0602090815260408083205490927f408a36151f841709116a4e8aca4e0202874f7f54687dcb863b1ea4672dc9d8cf9160ff16156122715750505050565b61227a336124e1565b9184519061228782611f3d565b604282528482019260603685378251156121f957603084538251906001918210156121f95790607860218501536041915b81831161230c575050506121495760486111ed93869361212d9361211e985198899376020b1b1b2b9b9a1b7b73a3937b61d1030b1b1b7bab73a1604d1b8a860152611194815180928c603789019101611e42565b909192600f811660108110156121e5576f181899199a1a9b1b9c1cb0b131b232b360811b901a61233c85876124d0565b5360041c9280156121d1576000190191906122b8565b600090808252602090828252604092838120338252835260ff84822054161561237b5750505050565b612384336124e1565b9184519061239182611f3d565b604282528482019260603685378251156121f957603084538251906001918210156121f95790607860218501536041915b818311612416575050506121495760486111ed93869361212d9361211e985198899376020b1b1b2b9b9a1b7b73a3937b61d1030b1b1b7bab73a1604d1b8a860152611194815180928c603789019101611e42565b909192600f811660108110156121e5576f181899199a1a9b1b9c1cb0b131b232b360811b901a61244685876124d0565b5360041c9280156121d1576000190191906123c2565b9060009180835282602052604083209160018060a01b03169182845260205260ff60408420541661248c57505050565b80835282602052604083208284526020526040832060ff1981541690557ff6391f5c32d9c69d2a47ea670b442974b53935d1edc7fd64eb21e047a839171b339380a4565b9081518110156107f2570160200190565b60405190606082018281106001600160401b038211176107dc57604052602a82526020820160403682378251156107f2576030905381516001908110156107f257607860218401536029905b80821161258157505061253d5790565b606460405162461bcd60e51b815260206004820152602060248201527f537472696e67733a20686578206c656e67746820696e73756666696369656e746044820152fd5b9091600f811660108110156125da576f181899199a1a9b1b9c1cb0b131b232b360811b901a6125b084866124d0565b5360041c9180156125c557600019019061252d565b60246000634e487b7160e01b81526011600452fd5b60246000634e487b7160e01b81526032600452fd5b903590601e1981360301821215611d4057018035906001600160401b038211611d4057602001918136038313611d4057565b6000198114610e9a5760010190565b908060209392818452848401376000828201840152601f01601f1916010190565b6006821015611e1f5752565b60ff6001541661266957565b60405162461bcd60e51b815260206004820152601060248201526f14185d5cd8589b194e881c185d5cd95960821b6044820152606490fd5b60028054146126b05760028055565b60405162461bcd60e51b815260206004820152601f60248201527f5265656e7472616e637947756172643a207265656e7472616e742063616c6c006044820152606490fd5b156126fc57565b60405162461bcd60e51b815260206004820152601c60248201527f506c65646765457363726f773a20696e76616c696420706c65646765000000006044820152606490fd5b1561274857565b60405162461bcd60e51b815260206004820152601960248201527f506c65646765457363726f773a206e6f742070656e64696e67000000000000006044820152606490fd5b1561279457565b60405162461bcd60e51b815260206004820152601a60248201527f506c65646765457363726f773a206e6f7420617070726f7665640000000000006044820152606490fd5b156127e057565b60405162461bcd60e51b8152602060048201526024808201527f506c65646765457363726f773a20746f6b656e20636f6e7472616374206e6f74604482015263081cd95d60e21b6064820152608490fd5b60005b600b90815491828210156128d157839261284d83611dc3565b959054600396871b1c1461286d575050612868919250612621565b612834565b90925060001991828201918211610e9a5761071961288d61289993611dc3565b905490871b1c91611dc3565b815480156128bb578101926128ad84611dc3565b81939154921b1b1916905555565b634e487b7160e01b600052603160045260246000fd5b50505050565b6006811015611e1f5780156129e057600181146129bf576002811461299b576003811461297b5760048114612955576005146129305760405161291981611f22565b60078152662ab735b737bbb760c91b602082015290565b60405161293c81611f22565b6009815268436f6d6d6f6469747960b81b602082015290565b5060405161296281611f22565b6009815268115c5d5a5c1b595b9d60ba1b602082015290565b5060405161298881611f22565b6003815262105c9d60ea1b602082015290565b506040516129a881611f22565b600781526656656869636c6560c81b602082015290565b506040516129cc81611f22565b600481526311dbdb1960e21b602082015290565b506040516129ed81611f22565b600b81526a5265616c2045737461746560a81b60208201529056fea26469706673582212206e46114b0b4e1dba8d177942bbb8dae0bee7d050fb9f3cf7d82dbc37d9d03ad564736f6c634300081400332f8788117e7eff1d82e926ec794901d17c78024a50270940304540a733656f0d604060808152346200047c5762002fe4803803806200001e8162000481565b928339810182828203126200047c5781516001600160401b03908181116200047c57826200004e918501620004a7565b92602092838201518381116200047c576200006a9201620004a7565b90835181811162000466576000928354916001968784811c941680156200045b575b8785101462000447578190601f94858111620003f4575b5087908583116001146200039057879262000384575b5050600019600383901b1c191690871b1784555b8051928311620003705785548681811c9116801562000365575b86821014620003515790818385949311620002fc575b5085918311600114620002985784926200028c575b5050600019600383901b1c191690841b1783555b60ff19806008541660085583600955818052600792838152858320338452815260ff86842054161562000257575b7fa49807205ce4d355092ef5a8a18f56e8913cf4a201fbe287825b095693c21775808452848252868420338552825260ff87852054161562000220575b507f9f2df0fed2c77648de5860a4cc508cd0818c85b8b8a1ab4ceeef8d981c8956a693848452808252868420338552825260ff878520541615620001e7575b8686600a5401600a5551612aaa90816200051a8239f35b848452815285832090338452528385832091825416179055339160008051602062002fc4833981519152339280a43880808080620001d0565b808452848252868420338552825286842086848254161790553390339060008051602062002fc48339815191528680a43862000191565b8280528381528583203384528152858320858382541617905533338460008051602062002fc48339815191528180a462000154565b01519050388062000112565b8685528585208794509190601f198416865b88828210620002e55750508411620002cb575b505050811b01835562000126565b015160001960f88460031b161c19169055388080620002bd565b8385015186558a97909501949384019301620002aa565b909192508685528585208380860160051c82019288871062000347575b9186958a929594930160051c01915b82811062000338575050620000fd565b87815586955089910162000328565b9250819262000319565b634e487b7160e01b85526022600452602485fd5b90607f1690620000e7565b634e487b7160e01b84526041600452602484fd5b015190503880620000b9565b8780528888208a94509190601f198416895b8b828210620003dd5750508411620003c3575b505050811b018455620000cd565b015160001960f88460031b161c19169055388080620003b5565b8385015186558d97909501949384019301620003a2565b9091508680528787208580850160051c8201928a86106200043d575b918b91869594930160051c01915b8281106200042e575050620000a3565b8981558594508b91016200041e565b9250819262000410565b634e487b7160e01b86526022600452602486fd5b93607f16936200008c565b634e487b7160e01b600052604160045260246000fd5b600080fd5b6040519190601f01601f191682016001600160401b038111838210176200046657604052565b919080601f840112156200047c5782516001600160401b0381116200046657602090620004dd601f8201601f1916830162000481565b928184528282870101116200047c5760005b8181106200050557508260009394955001015290565b8581018301518482018401528201620004ef56fe6080806040526004908136101561001557600080fd5b60003560e01c90816301ffc9a7146118fc5750806306fdde0314611859578063081812fc1461183b578063095ea7b3146116bc57806318160ddd1461167a57806318e97fd114611613578063202f40f5146115e857806323b872dd146115c9578063248a9ca31461159b5780632f2ff15d1461153757806336568abe146114a75780633f4ba83a1461141157806340398d67146112d557806342842e0e146112a257806342966c68146111835780635c975abb146111605780636352211e146111305780636ce76f30146110f557806370a08231146110ca57806375b238fc1461108f5780638456cb59146110355780638e383c6b1461100a57806391d1485414610fbd57806395d89b4114610ef2578063972d852914610eb3578063a217fddf14610e97578063a22cb46514610dc4578063a9bd7afe14610d99578063b88d4fde14610d18578063c87b56dd14610ca3578063d539139314610c68578063d547741f14610c29578063e985e9c514610bd3578063ef9e544214610b73578063f42375b514610a95578063f637d950146109e5578063f9abc1af146104e6578063fc9e66df146102665763fef50deb146101ce57600080fd5b3461026157604036600319011261026157357f8fd2496ed733ed48a03cffbc9bb26370028796c3ec4ce22456b8779cc1e81166604060243561020e611c04565b600084815260026020526040902054610236906001600160a01b0316151561292c565b61292c565b610241811515612660565b83600052600b6020528160002090808254925582519182526020820152a2005b600080fd5b50346102615760403660031901126102615780356102826119f8565b3360009081527f2a5d121539c48ff39f0a553a5a1d73646761bbbb6afabff42598210ffa2683fb60209081526040909120549093907f2fdac322ee704ce09f0773f7f3f92eb98d5e7c836ee9c056cccd5f61041e5e3f9060ff161561032c5761032a848461030861023183600052600260205260018060a01b0360406000205416151590565b61031c6001600160a01b0382161515612978565b61032582612024565b612222565b005b8492506103383361250c565b9060405161034581611a40565b604281528481019160603684378151156104d1576030835381516001908110156104bc57607860218401536041905b80821161044f57505061041f57604861041b936103f0936103ff9360405195869376020b1b1b2b9b9a1b7b73a3937b61d1030b1b1b7bab73a1604d1b8b8601526103c7815180928d60378901910161199a565b8401917001034b99036b4b9b9b4b733903937b6329607d1b60378401525180938684019061199a565b01036028810184520182611a5c565b60405193849362461bcd60e51b855284015260248301906119bd565b0390fd5b60648486806040519262461bcd60e51b84528301526024820152600080516020612a558339815191526044820152fd5b9091600f811660108110156104a7576f181899199a1a9b1b9c1cb0b131b232b360811b901a61047e84866124e5565b53861c918015610492576000190190610374565b601187634e487b7160e01b6000525260246000fd5b603288634e487b7160e01b6000525260246000fd5b603286634e487b7160e01b6000525260246000fd5b603285634e487b7160e01b6000525260246000fd5b50346102615760c0366003190112610261576105006119e2565b67ffffffffffffffff90604435828111610261576105219036908501611ad1565b90608435838111610261576105399036908601611ad1565b3360009081527fa4bfd7afe708e2e87e7f0e2ad9b4d545417e0f795f57b5c5ab5d799c565a04f460205260409020547f9f2df0fed2c77648de5860a4cc508cd0818c85b8b8a1ab4ceeef8d981c8956a69060ff1615610895575061059b6126c2565b6001600160a01b03821615610851576105b76064351515612609565b6105c460a4351515612660565b600a549360018501600a5584600052600e602052602435604060002055600d602052604060002090845190811161083c57602096506106038254611b24565b601f8111610801575b5086601f821160011461079757908061073194939260009161078c575b508160011b916000199060031b1c19161790555b84600052600c8652606435604060002055600b865260a43560406000205561072b61072660405161066d81611a0e565b600080825288815260026020526040902054610695906001600160a01b031615155b15612706565b61069d6126c2565b6000888152600260205260409020546106c0906001600160a01b0316151561068f565b6001600160a01b038616600081815260038b526040808220805460010190558a825260028c52812080546001600160a01b031916831790558991907fddf252ad1be2c89b69c2b068fc378daa952ba7f163c4a11628f55a4df523b3ef8180a48786612340565b61213a565b84612752565b827f5c252ff7b1b95320fdc54aeddb08fa13a5dce2bfba7dc607edcd5a8cac612168610768604051946040865260408601906119bd565b606435858801526001600160a01b03909316936024359381900390a4604051908152f35b905086015138610629565b82600052876000209060005b601f19841681106107ea57509160019161073195949382601f198116106107d1575b5050811b01905561063d565b88015160001960f88460031b161c1916905538806107c5565b90918960018192858b0151815501930191016107a3565b61082c908360005288600020601f840160051c8101918a8510610832575b601f0160051c01906126ab565b3861060c565b909150819061081f565b604187634e487b7160e01b6000525260246000fd5b60405162461bcd60e51b8152602081870152601c60248201527f506c656467654e46543a20696e76616c696420726563697069656e74000000006044820152606490fd5b8561089f3361250c565b916040516108ac81611a40565b60428152602081019160603684378151156109d0576030835381516001908110156104d157607860218401536041905b808211610963575050610931576103ff604860209561041b946103f09460405195869376020b1b1b2b9b9a1b7b73a3937b61d1030b1b1b7bab73a1604d1b8b8601526103c7815180928d60378901910161199a565b60405162461bcd60e51b815260208185018190526024820152600080516020612a558339815191526044820152606490fd5b9091600f811660108110156109bb576f181899199a1a9b1b9c1cb0b131b232b360811b901a61099284866124e5565b53851c9180156109a65760001901906108dc565b601186634e487b7160e01b6000525260246000fd5b603287634e487b7160e01b6000525260246000fd5b603284634e487b7160e01b6000525260246000fd5b503461026157602090816003193601126102615735600081815260026020526040902054610a1d906001600160a01b0316151561292c565b80600052600e825260406000205490600d83526040600020600c845260406000205491600b8552610a76610a5f610a5960406000205493612024565b93611b5e565b60a0604051978897885287015260a08601906119bd565b604085019390935260608401526001600160a01b031660808301520390f35b3461026157602036600319011261026157610aae6119e2565b610ab6611c04565b6001600160a01b0316610aca811515612978565b60008181527f2a5d121539c48ff39f0a553a5a1d73646761bbbb6afabff42598210ffa2683fb60205260409020547f2fdac322ee704ce09f0773f7f3f92eb98d5e7c836ee9c056cccd5f61041e5e3f919060ff1615610b2557005b8160005260076020526040600020816000526020526040600020600160ff1982541617905533917f2f8788117e7eff1d82e926ec794901d17c78024a50270940304540a733656f0d600080a4005b5034610261576040366003190112610261573560243590610b92611c04565b600081815260026020526040902054610bb5906001600160a01b0316151561292c565b610bc0821515612609565b600052600c602052604060002055600080f35b3461026157604036600319011261026157610bec6119e2565b610bf46119f8565b9060018060a01b03809116600052600560205260406000209116600052602052602060ff604060002054166040519015158152f35b50346102615760403660031901126102615761032a9035610c486119f8565b90806000526007602052610c63600160406000200154611de0565b611eeb565b346102615760003660031901126102615760206040517f9f2df0fed2c77648de5860a4cc508cd0818c85b8b8a1ab4ceeef8d981c8956a68152f35b50346102615760203660031901126102615735600081815260026020526040902054610cd9906001600160a01b03161515611fd8565b6000526006602052610d14610cf16040600020611b5e565b6000604051610cff81611a0e565b526040519182916020835260208301906119bd565b0390f35b503461026157608036600319011261026157610d326119e2565b90610d3b6119f8565b916044356064359367ffffffffffffffff8511610261573660238601121561026157610d766107269486602461032a98369301359101611a9a565b92610d89610d84843361215a565b612085565b610d94838383612222565b61245e565b50346102615760203660031901126102615735600052600c6020526020604060002054604051908152f35b503461026157604036600319011261026157610dde6119e2565b60243590811515809203610261576001600160a01b031691338314610e535750336000526005602052604060002082600052602052604060002060ff1981541660ff83161790556040519081527f17307eab39ab6107e8899845ad3d59bd9653f200f220920489ca2b5937696c3160203392a3005b60649060206040519162461bcd60e51b8352820152601960248201527f4552433732313a20617070726f766520746f2063616c6c6572000000000000006044820152fd5b3461026157600036600319011261026157602060405160008152f35b50346102615760203660031901126102615735600052600d602052610d14610ede6040600020611b5e565b6040519182916020835260208301906119bd565b346102615760003660031901126102615760405160006001805490610f1682611b24565b80855291818116908115610f965750600114610f3d575b610d1484610ede81860382611a5c565b600081815292507fb10e2d527612073b26eecdfd717e6a320cf44b4afac2b0732d9fcbe2b7fa0cf65b828410610f7e575050508101602001610ede82610f2d565b80546020858701810191909152909301928101610f66565b60ff191660208087019190915292151560051b85019092019250610ede9150839050610f2d565b503461026157604036600319011261026157610fd76119f8565b9035600052600760205260406000209060018060a01b0316600052602052602060ff604060002054166040519015158152f35b50346102615760203660031901126102615735600052600b6020526020604060002054604051908152f35b346102615760003660031901126102615761104e611c04565b6110566126c2565b600160ff1960085416176008557f62e78cea01bee320cd4e420270b5ea74000d11b0c9f74754ebdbfc544b05a2586020604051338152a1005b346102615760003660031901126102615760206040517fa49807205ce4d355092ef5a8a18f56e8913cf4a201fbe287825b095693c217758152f35b346102615760203660031901126102615760206110ed6110e86119e2565b611f61565b604051908152f35b346102615760003660031901126102615760206040517f2fdac322ee704ce09f0773f7f3f92eb98d5e7c836ee9c056cccd5f61041e5e3f8152f35b50346102615760203660031901126102615761114e60209135612024565b6040516001600160a01b039091168152f35b3461026157600036600319011261026157602060ff600854166040519015158152f35b50346102615760208060031936011261026157600082600b93359182916111ad610d84843361215a565b6111b683612024565b506111bf6126c2565b6111c883612024565b838352908552604080832080546001600160a01b03199081169091556001600160a01b0390921680845260038752818420805485190190558484526002875290832080549092169091557fddf252ad1be2c89b69c2b068fc378daa952ba7f163c4a11628f55a4df523b3ef8280a460068252611248604060002054611b24565b611288575b80600052600e825260006040812055600d825261126d6040600020612a0b565b600052600c8152600060408120555260006040812055600080f35b806000526006825261129d6040600020612a0b565b61124d565b346102615761032a6107266112b636611aef565b90604051926112c484611a0e565b60008452610d89610d84843361215a565b503461026157602080600319360112610261576112f06119e2565b916112fa83611f61565b9161131d611307846129ce565b936113156040519586611a5c565b8085526129ce565b8382019490601f1901368637600a54600193600092855b83811061137857505050505060405192818401908285525180915260408401949160005b8281106113655785870386f35b8351875295810195928101928401611358565b6000818152600260205260409020549698959795966001600160a01b03161515806113f4575b6113b7575b6113ac906129e6565b979597969496611334565b9385518110156113df576113d781868a6113ac9460051b8a0101526129e6565b9490506113a3565b603283634e487b7160e01b6000525260246000fd5b506113fe81612024565b6001600160a01b0383811691161461139e565b50346102615760003660031901126102615761142b611c04565b6008549060ff82161561146c575060ff19166008557f5db9ee0a495bf2e6ff9c91a7834c1ba4fdd244a5e8aa4e537bd38aeae4b073aa6020604051338152a1005b60649060206040519162461bcd60e51b8352820152601460248201527314185d5cd8589b194e881b9bdd081c185d5cd95960621b6044820152fd5b5034610261576040366003190112610261576114c16119f8565b336001600160a01b038216036114db5761032a9135611eeb565b60405162461bcd60e51b8152602081840152602f60248201527f416363657373436f6e74726f6c3a2063616e206f6e6c792072656e6f756e636560448201526e103937b632b9903337b91039b2b63360891b6064820152608490fd5b503461026157604036600319011261026157356115526119f8565b81600052600760205261156c600160406000200154611de0565b81600052600760205260406000209060018060a01b0316908160005260205260ff6040600020541615610b2557005b5034610261576020366003190112610261573560005260076020526020600160406000200154604051908152f35b346102615761032a6115da36611aef565b91610325610d84843361215a565b50346102615760203660031901126102615735600052600e6020526020604060002054604051908152f35b503461026157604036600319011261026157803560243567ffffffffffffffff81116102615761032a9261164991369101611ad1565b90611652611c04565b600081815260026020526040902054611675906001600160a01b0316151561292c565b612752565b503461026157600036600319011261026157600a546000198101919082116116a757602082604051908152f35b601190634e487b7160e01b6000525260246000fd5b5034610261576040366003190112610261576116d66119e2565b602435916001600160a01b039081806116ee86612024565b169316928084146117ed578033149081156117c8575b501561175e57836000526020526040600020826bffffffffffffffffffffffff60a01b82541617905561173683612024565b167f8c5be1e5ebec7d5bd14f71427d1e84f3dd0314c0f7b2291e5b200ac8c7c3b925600080a4005b60849060206040519162461bcd60e51b8352820152603d60248201527f4552433732313a20617070726f76652063616c6c6572206973206e6f7420746f60448201527f6b656e206f776e6572206f7220617070726f76656420666f7220616c6c0000006064820152fd5b9050600052600560205260406000203360005260205260ff6040600020541638611704565b60405162461bcd60e51b8152602081840152602160248201527f4552433732313a20617070726f76616c20746f2063757272656e74206f776e656044820152603960f91b6064820152608490fd5b50346102615760203660031901126102615761114e60209135612047565b34610261576000366003190112610261576040516000805461187a81611b24565b80845290600190818116908115610f9657506001146118a357610d1484610ede81860382611a5c565b600080805292507f290decd9548b62a8d60345a988386fc84ba6bc95484008f6362f93160ef3e5635b8284106118e4575050508101602001610ede82610f2d565b805460208587018101919091529093019281016118cc565b823461026157602036600319011261026157359063ffffffff60e01b821680920361026157602091637965db0b60e01b811490811561193d575b5015158152f35b632483248360e11b811491508115611957575b5083611936565b6380ac58cd60e01b811491508115611989575b8115611978575b5083611950565b6301ffc9a760e01b14905083611971565b635b5e139f60e01b8114915061196a565b60005b8381106119ad5750506000910152565b818101518382015260200161199d565b906020916119d68151809281855285808601910161199a565b601f01601f1916010190565b600435906001600160a01b038216820361026157565b602435906001600160a01b038216820361026157565b6020810190811067ffffffffffffffff821117611a2a57604052565b634e487b7160e01b600052604160045260246000fd5b6080810190811067ffffffffffffffff821117611a2a57604052565b90601f8019910116810190811067ffffffffffffffff821117611a2a57604052565b67ffffffffffffffff8111611a2a57601f01601f191660200190565b929192611aa682611a7e565b91611ab46040519384611a5c565b829481845281830111610261578281602093846000960137010152565b9080601f8301121561026157816020611aec93359101611a9a565b90565b6060906003190112610261576001600160a01b0390600435828116810361026157916024359081168103610261579060443590565b90600182811c92168015611b54575b6020831014611b3e57565b634e487b7160e01b600052602260045260246000fd5b91607f1691611b33565b9060405191826000825492611b7284611b24565b908184526001948581169081600014611be15750600114611b9e575b5050611b9c92500383611a5c565b565b9093915060005260209081600020936000915b818310611bc9575050611b9c93508201013880611b8e565b85548884018501529485019487945091830191611bb1565b915050611b9c94506020925060ff191682840152151560051b8201013880611b8e565b3360009081527fa70365933f78520ef41d6645ba61e509916296603327302d41466c063e8e2608602090815260408083205490927fa49807205ce4d355092ef5a8a18f56e8913cf4a201fbe287825b095693c217759160ff1615611c685750505050565b611c713361250c565b91845190611c7e82611a40565b60428252848201926060368537825115611dcc5760308453825190600191821015611dcc5790607860218501536041915b818311611d5e57505050611d2e57604861041b938693611d1293611d03985198899376020b1b1b2b9b9a1b7b73a3937b61d1030b1b1b7bab73a1604d1b8a8601526103c7815180928c60378901910161199a565b01036028810187520185611a5c565b5192839262461bcd60e51b8452600484015260248301906119bd565b60648486519062461bcd60e51b82528060048301526024820152600080516020612a558339815191526044820152fd5b909192600f81166010811015611db8576f181899199a1a9b1b9c1cb0b131b232b360811b901a611d8e85876124e5565b5360041c928015611da457600019019190611caf565b634e487b7160e01b82526011600452602482fd5b634e487b7160e01b83526032600452602483fd5b634e487b7160e01b81526032600452602490fd5b60009080825260209060078252604092838120338252835260ff848220541615611e0a5750505050565b611e133361250c565b91845190611e2082611a40565b60428252848201926060368537825115611dcc5760308453825190600191821015611dcc5790607860218501536041915b818311611ea557505050611d2e57604861041b938693611d1293611d03985198899376020b1b1b2b9b9a1b7b73a3937b61d1030b1b1b7bab73a1604d1b8a8601526103c7815180928c60378901910161199a565b909192600f81166010811015611db8576f181899199a1a9b1b9c1cb0b131b232b360811b901a611ed585876124e5565b5360041c928015611da457600019019190611e51565b906000918083526007602052604083209160018060a01b03169182845260205260ff604084205416611f1c57505050565b8083526007602052604083208284526020526040832060ff1981541690557ff6391f5c32d9c69d2a47ea670b442974b53935d1edc7fd64eb21e047a839171b339380a4565b6001600160a01b03168015611f8157600052600360205260406000205490565b60405162461bcd60e51b815260206004820152602960248201527f4552433732313a2061646472657373207a65726f206973206e6f7420612076616044820152683634b21037bbb732b960b91b6064820152608490fd5b15611fdf57565b60405162461bcd60e51b815260206004820152601860248201527f4552433732313a20696e76616c696420746f6b656e20494400000000000000006044820152606490fd5b6000908152600260205260409020546001600160a01b0316611aec811515611fd8565b60008181526002602052604090205461206a906001600160a01b03161515611fd8565b6000908152600460205260409020546001600160a01b031690565b1561208c57565b60405162461bcd60e51b815260206004820152602d60248201527f4552433732313a2063616c6c6572206973206e6f7420746f6b656e206f776e6560448201526c1c881bdc88185c1c1c9bdd9959609a1b6064820152608490fd5b60809060208152603260208201527f4552433732313a207472616e7366657220746f206e6f6e20455243373231526560408201527131b2b4bb32b91034b6b83632b6b2b73a32b960711b60608201520190565b1561214157565b60405162461bcd60e51b81528061041b600482016120e7565b906001600160a01b03808061216e84612024565b169316918383149384156121a1575b50831561218b575b50505090565b61219791929350612047565b1614388080612185565b909350600052600560205260406000208260005260205260ff60406000205416923861217d565b156121cf57565b60405162461bcd60e51b815260206004820152602560248201527f4552433732313a207472616e736665722066726f6d20696e636f72726563742060448201526437bbb732b960d91b6064820152608490fd5b9061224a9161223084612024565b6001600160a01b03939184169284929091831684146121c8565b169182156122ef578161226f9161225f6126c2565b61226886612024565b16146121c8565b7fddf252ad1be2c89b69c2b068fc378daa952ba7f163c4a11628f55a4df523b3ef60008481526004602052604081206bffffffffffffffffffffffff60a01b9081815416905583825260036020526040822060001981540190558482526040822060018154019055858252600260205284604083209182541617905580a4565b60405162461bcd60e51b8152602060048201526024808201527f4552433732313a207472616e7366657220746f20746865207a65726f206164646044820152637265737360e01b6064820152608490fd5b91929091803b156124555761238d936040519081630a85bd0160e11b9384825233600483015260009687602484015260448301526080606483015281878160209a8b9660848301906119bd565b03926001600160a01b03165af1849181612411575b50612400575050503d6000146123f8573d6123bc81611a7e565b906123ca6040519283611a5c565b81528091833d92013e5b805191826123f55760405162461bcd60e51b81528061041b600482016120e7565b01fd5b5060606123d4565b6001600160e01b0319161492509050565b9091508581813d831161244e575b6124298183611a5c565b8101031261244a57516001600160e01b03198116810361244a5790386123a2565b8480fd5b503d61241f565b50915050600190565b92939190803b156124db576124b0946040518092630a85bd0160e11b9485835233600484015260018060a01b03809816602484015260448301526080606483015281806020998a9560848301906119bd565b03916000988991165af18491816124115750612400575050503d6000146123f8573d6123bc81611a7e565b5050915050600190565b9081518110156124f6570160200190565b634e487b7160e01b600052603260045260246000fd5b604051906060820182811067ffffffffffffffff821117611a2a57604052602a82526020820160403682378251156124f6576030905381516001908110156124f657607860218401536029905b80821161259b5750506125695790565b606460405162461bcd60e51b81526020600482015260206024820152600080516020612a558339815191526044820152fd5b9091600f811660108110156125f4576f181899199a1a9b1b9c1cb0b131b232b360811b901a6125ca84866124e5565b5360041c9180156125df576000190190612559565b60246000634e487b7160e01b81526011600452fd5b60246000634e487b7160e01b81526032600452fd5b1561261057565b60405162461bcd60e51b815260206004820152602260248201527f506c656467654e46543a20696e76616c6964206170707261697365642076616c604482015261756560f01b6064820152608490fd5b1561266757565b606460405162461bcd60e51b815260206004820152602060248201527f506c656467654e46543a20696e76616c696420646f63756d656e7420686173686044820152fd5b8181106126b6575050565b600081556001016126ab565b60ff600854166126ce57565b60405162461bcd60e51b815260206004820152601060248201526f14185d5cd8589b194e881c185d5cd95960821b6044820152606490fd5b1561270d57565b60405162461bcd60e51b815260206004820152601c60248201527f4552433732313a20746f6b656e20616c7265616479206d696e746564000000006044820152606490fd5b6000818152600260205260409020549192916001600160a01b0316156128d05760009080825260209160068352604081209085519067ffffffffffffffff82116128bc576127a08354611b24565b601f811161288e575b508490601f831160011461280a57907ff8e1a15aba9398e019f0b49df1a4fde98ee17ae345cb5f6b5e2c27f5033e8ce79697836127ff575b50508160011b916000199060031b1c19161790555b604051908152a1565b0151905038806127e1565b9196601f198816848452868420935b81811061287757509160019391897ff8e1a15aba9398e019f0b49df1a4fde98ee17ae345cb5f6b5e2c27f5033e8ce7999a941061285e575b505050811b0190556127f6565b015160001960f88460031b161c19169055388080612851565b929387600181928786015181550195019301612819565b6128b690848352868320601f850160051c81019188861061083257601f0160051c01906126ab565b386127a9565b634e487b7160e01b81526041600452602490fd5b60405162461bcd60e51b815260206004820152602e60248201527f45524337323155524953746f726167653a2055524920736574206f66206e6f6e60448201526d32bc34b9ba32b73a103a37b5b2b760911b6064820152608490fd5b1561293357565b60405162461bcd60e51b815260206004820152601c60248201527f506c656467654e46543a206e6f6e6578697374656e7420746f6b656e000000006044820152606490fd5b1561297f57565b60405162461bcd60e51b815260206004820152602160248201527f506c656467654e46543a20696e76616c696420657363726f77206164647265736044820152607360f81b6064820152608490fd5b67ffffffffffffffff8111611a2a5760051b60200190565b60001981146129f55760010190565b634e487b7160e01b600052601160045260246000fd5b612a158154611b24565b9081612a1f575050565b81601f60009311600114612a31575055565b908083918252612a50601f60208420940160051c8401600185016126ab565b555556fe537472696e67733a20686578206c656e67746820696e73756666696369656e74a2646970667358221220f67c5b5598a165a1c74c1d78cf524b2770593d9661161526680046014d23e11c64736f6c634300081400332f8788117e7eff1d82e926ec794901d17c78024a50270940304540a733656f0da26469706673582212206179ea12546150894ff98e53c5fbc75a98d7ddc520d7e0c00329a3c608253e8a64736f6c634300081400332f8788117e7eff1d82e926ec794901d17c78024a50270940304540a733656f0d",
  "linkReferences": {},
  "deployedLinkReferences": {}
}