{
  "_format": "hh-sol-artifact-1",
  "contractName": "AssetToken",
  "sourceName": "contracts/AssetToken.sol",
  "abi": [
    {
      "inputs": [
        {
          "internalType": "string",
          "name": "name",
          "type": "string"
        },
        {
          "internalType": "string",
          "name": "symbol",
          "type": "string"
        },
        {
          "internalType": "address",
          "name": "admin",
          "type": "address"
        }
      ],
      "stateMutability": "nonpayable",
      "type": "constructor"
    },
    {
      "inputs": [],
      "name": "InvalidShortString",
      "type": "error"
    },
    {
      "inputs": [
        {
          "internalType": "string",
          "name": "str",
          "type": "string"
        }
      ],
      "name": "StringTooLong",
      "type": "error"
    },
    {
      "anonymous": false,
      "inputs": [
        {
          "indexed": true,
          "internalType": "address",
          "name": "owner",
          "type": "address"
        },
        {
          "indexed": true,
          "internalType": "address",
          "name": "spender",
          "type": "address"
        },
        {
          "indexed": false,
          "internalType": "uint256",
          "name": "value",
          "type": "uint256"
        }
      ],
      "name": "Approval",
      "type": "event"
    },
    {
      "anonymous": false,
      "inputs": [],
      "name": "EIP712DomainChanged",
      "type": "event"
    },
    {
      "anonymous": false,
      "inputs": [
        {
          "indexed": true,
          "internalType": "bytes32",
          "name": "role",
          "type": "bytes32"
        },
        {
          "indexed": true,
          "internalType": "bytes32",
          "name": "previousAdminRole",
          "type": "bytes32"
        },
        {
          "indexed": true,
          "internalType": "bytes32",
          "name": "newAdminRole",
          "type": "bytes32"
        }
      ],
      "name": "RoleAdminChanged",
      "type": "event"
    },
    {
      "anonymous": false,
      "inputs": [
        {
          "indexed": true,
          "internalType": "bytes32",
          "name": "role",
          "type": "bytes32"
        },
        {
          "indexed": true,
          "internalType": "address",
          "name": "account",
          "type": "address"
        },
        {
          "indexed": true,
          "internalType": "address",
          "name": "sender",
          "type": "address"
        }
      ],
      "name": "RoleGranted",
      "type": "event"
    },
    {
      "anonymous": false,
      "inputs": [
        {
          "indexed": true,
          "internalType": "bytes32",
          "name": "role",
          "type": "bytes32"
        },
        {
          "indexed": true,
          "internalType": "address",
          "name": "account",
          "type": "address"
        },
        {
          "indexed": true,
          "internalType": "address",
          "name": "sender",
          "type": "address"
        }
      ],
      "name": "RoleRevoked",
      "type": "event"
    },
    {
      "anonymous": false,
      "inputs": [
        {
          "indexed": true,
          "internalType": "address",
          "name": "to",
          "type": "address"
        },
        {
          "indexed": false,
          "internalType": "uint256",
          "name": "amount",
          "type": "uint256"
        },
        {
          "indexed": false,
          "internalType": "string",
          "name": "assetType",
          "type": "string"
        },
        {
          "indexed": false,
          "internalType": "uint256",
          "name": "appraisedValue",
          "type": "uint256"
        }
      ],
      "name": "TokensMinted",
      "type": "event"
    },
    {
      "anonymous": false,
      "inputs": [
        {
          "indexed": true,
          "internalType": "address",
          "name": "from",
          "type": "address"
        },
        {
          "indexed": true,
          "internalType": "address",
          "name": "to",
          "type": "address"
        },
        {
          "indexed": false,
          "internalType": "uint256",
          "name": "value",
          "type": "uint256"
        }
      ],
      "name": "Transfer",
      "type": "event"
    },
    {
      "inputs": [],
      "name": "DEFAULT_ADMIN_ROLE",
      "outputs": [
        {
          "internalType": "bytes32",
          "name": "",
          "type": "bytes32"
        }
      ],
      "stateMutability": "view",
      "type": "function"
    },
    {
      "inputs": [],
      "name": "DOMAIN_SEPARATOR",
      "outputs": [
        {
          "internalType": "bytes32",
          "name": "",
          "type": "bytes32"
        }
      ],
      "stateMutability": "view",
      "type": "function"
    },
    {
      "inputs": [],
      "name": "MINTER_ROLE",
      "outputs": [
        {
          "internalType": "bytes32",
          "name": "",
          "type": "bytes32"
        }
      ],
      "stateMutability": "view",
      "type": "function"
    },
    {
      "inputs": [
        {
          "internalType": "address",
          "name": "owner",
          "type": "address"
        },
        {
          "internalType": "address",
          "name": "spender",
          "type": "address"
        }
      ],
      "name": "allowance",
      "outputs": [
        {
          "internalType": "uint256",
          "name": "",
          "type": "uint256"
        }
      ],
      "stateMutability": "view",
      "type": "function"
    },
    {
      "inputs": [
        {
          "internalType": "address",
          "name": "spender",
          "type": "address"
        },
        {
          "internalType": "uint256",
          "name": "amount",
          "type": "uint256"
        }
      ],
      "name": "approve",
      "outputs": [
        {
          "internalType": "bool",
          "name": "",
          "type": "bool"
        }
      ],
      "stateMutability": "nonpayable",
      "type": "function"
    },
    {
      "inputs": [
        {
          "internalType": "address",
          "name": "account",
          "type": "address"
        }
      ],
      "name": "balanceOf",
      "outputs": [
        {
          "internalType": "uint256",
          "name": "",
          "type": "uint256"
        }
      ],
      "stateMutability": "view",
      "type": "function"
    },
    {
      "inputs": [
        {
          "internalType": "address[]",
          "name": "recipients",
          "type": "address[]"
        },
        {
          "internalType": "uint256[]",
          "name": "amounts",
          "type": "uint256[]"
        }
      ],
      "name": "batchMint",
      "outputs": [],
      "stateMutability": "nonpayable",
      "type": "function"
    },
    {
      "inputs": [],
      "name": "decimals",
      "outputs": [
        {
          "internalType": "uint8",
          "name": "",
          "type": "uint8"
        }
      ],
      "stateMutability": "view",
      "type": "function"
    },
    {
      "inputs": [
        {
          "internalType": "address",
          "name": "spender",
          "type": "address"
        },
        {
          "internalType": "uint256",
          "name": "subtractedValue",
          "type": "uint256"
        }
      ],
      "name": "decreaseAllowance",
      "outputs": [
        {
          "internalType": "bool",
          "name": "",
          "type": "bool"
        }
      ],
      "stateMutability": "nonpayable",
      "type": "function"
    },
    {
      "inputs": [],
      "name": "eip712Domain",
      "outputs": [
        {
          "internalType": "bytes1",
          "name": "fields",
          "type": "bytes1"
        },
        {
          "internalType": "string",
          "name": "name",
          "type": "string"
        },
        {
          "internalType": "string",
          "name": "version",
          "type": "string"
        },
        {
          "internalType": "uint256",
          "name": "chainId",
          "type": "uint256"
        },
        {
          "internalType": "address",
          "name": "verifyingContract",
          "type": "address"
        },
        {
          "internalType": "bytes32",
          "name": "salt",
          "type": "bytes32"
        },
        {
          "internalType": "uint256[]",
          "name": "extensions",
          "type": "uint256[]"
        }
      ],
      "stateMutability": "view",
      "type": "function"
    },
    {
      "inputs": [
        {
          "internalType": "bytes32",
          "name": "role",
          "type": "bytes32"
        }
      ],
      "name": "getRoleAdmin",
      "outputs": [
        {
          "internalType": "bytes32",
          "name": "",
          "type": "bytes32"
        }
      ],
      "stateMutability": "view",
      "type": "function"
    },
    {
      "inputs": [
        {
          "internalType": "address",
          "name": "minter",
          "type": "address"
        }
      ],
      "name": "grantMinterRole",
      "outputs": [],
      "stateMutability": "nonpayable",
      "type": "function"
    },
    {
      "inputs": [
        {
          "internalType": "bytes32",
          "name": "role",
          "type": "bytes32"
        },
        {
          "internalType": "address",
          "name": "account",
          "type": "address"
        }
      ],
      "name": "grantRole",
      "outputs": [],
      "stateMutability": "nonpayable",
      "type": "function"
    },
    {
      "inputs": [
        {
          "internalType": "bytes32",
          "name": "role",
          "type": "bytes32"
        },
        {
          "internalType": "address",
          "name": "account",
          "type": "address"
        }
      ],
      "name": "hasRole",
      "outputs": [
        {
          "internalType": "bool",
          "name": "",
          "type": "bool"
        }
      ],
      "stateMutability": "view",
      "type": "function"
    },
    {
      "inputs": [
        {
          "internalType": "address",
          "name": "spender",
          "type": "address"
        },
        {
          "internalType": "uint256",
          "name": "addedValue",
          "type": "uint256"
        }
      ],
      "name": "increaseAllowance",
      "outputs": [
        {
          "internalType": "bool",
          "name": "",
          "type": "bool"
        }
      ],
      "stateMutability": "nonpayable",
      "type": "function"
    },
    {
      "inputs": [
        {
          "internalType": "address",
          "name": "account",
          "type": "address"
        }
      ],
      "name": "isMinter",
      "outputs": [
        {
          "internalType": "bool",
          "name": "",
          "type": "bool"
        }
      ],
      "stateMutability": "view",
      "type": "function"
    },
    {
      "inputs": [
        {
          "internalType": "address",
          "name": "to",
          "type": "address"
        },
        {
          "internalType": "uint256",
          "name": "amount",
          "type": "uint256"
        },
        {
          "internalType": "string",
          "name": "assetType",
          "type": "string"
        },
        {
          "internalType": "uint256",
          "name": "appraisedValue",
          "type": "uint256"
        }
      ],
      "name": "mint",
      "outputs": [],
      "stateMutability": "nonpayable",
      "type": "function"
    },
    {
      "inputs": [],
      "name": "name",
      "outputs": [
        {
          "internalType": "string",
          "name": "",
          "type": "string"
        }
      ],
      "stateMutability": "view",
      "type": "function"
    },
    {
      "inputs": [
        {
          "internalType": "address",
          "name": "owner",
          "type": "address"
        }
      ],
      "name": "nonces",
      "outputs": [
        {
          "internalType": "uint256",
          "name": "",
          "type": "uint256"
        }
      ],
      "stateMutability": "view",
      "type": "function"
    },
    {
      "inputs": [
        {
          "internalType": "address",
          "name": "owner",
          "type": "address"
        },
        {
          "internalType": "address",
          "name": "spender",
          "type": "address"
        },
        {
          "internalType": "uint256",
          "name": "value",
          "type": "uint256"
        },
        {
          "internalType": "uint256",
          "name": "deadline",
          "type": "uint256"
        },
        {
          "internalType": "uint8",
          "name": "v",
          "type": "uint8"
        },
        {
          "internalType": "bytes32",
          "name": "r",
          "type": "bytes32"
        },
        {
          "internalType": "bytes32",
          "name": "s",
          "type": "bytes32"
        }
      ],
      "name": "permit",
      "outputs": [],
      "stateMutability": "nonpayable",
      "type": "function"
    },
    {
      "inputs": [
        {
          "internalType": "bytes32",
          "name": "role",
          "type": "bytes32"
        },
        {
          "internalType": "address",
          "name": "account",
          "type": "address"
        }
      ],
      "name": "renounceRole",
      "outputs": [],
      "stateMutability": "nonpayable",
      "type": "function"
    },
    {
      "inputs": [
        {
          "internalType": "address",
          "name": "minter",
          "type": "address"
        }
      ],
      "name": "revokeMinterRole",
      "outputs": [],
      "stateMutability": "nonpayable",
      "type": "function"
    },
    {
      "inputs": [
        {
          "internalType": "bytes32",
          "name": "role",
          "type": "bytes32"
        },
        {
          "internalType": "address",
          "name": "account",
          "type": "address"
        }
      ],
      "name": "revokeRole",
      "outputs": [],
      "stateMutability": "nonpayable",
      "type": "function"
    },
    {
      "inputs": [
        {
          "internalType": "bytes4",
          "name": "interfaceId",
          "type": "bytes4"
        }
      ],
      "name": "supportsInterface",
      "outputs": [
        {
          "internalType": "bool",
          "name": "",
          "type": "bool"
        }
      ],
      "stateMutability": "view",
      "type": "function"
    },
    {
      "inputs": [],
      "name": "symbol",
      "outputs": [
        {
          "internalType": "string",
          "name": "",
          "type": "string"
        }
      ],
      "stateMutability": "view",
      "type": "function"
    },
    {
      "inputs": [],
      "name": "totalSupply",
      "outputs": [
        {
          "internalType": "uint256",
          "name": "",
          "type": "uint256"
        }
      ],
      "stateMutability": "view",
      "type": "function"
    },
    {
      "inputs": [
        {
          "internalType": "address",
          "name": "to",
          "type": "address"
        },
        {
          "internalType": "uint256",
          "name": "amount",
          "type": "uint256"
        }
      ],
      "name": "transfer",
      "outputs": [
        {
          "internalType": "bool",
          "name": "",
          "type": "bool"
        }
      ],
      "stateMutability": "nonpayable",
      "type": "function"
    },
    {
      "inputs": [
        {
          "internalType": "address",
          "name": "from",
          "type": "address"
        },
        {
          "internalType": "address",
          "name": "to",
          "type": "address"
        },
        {
          "internalType": "uint256",
          "name": "amount",
          "type": "uint256"
        }
      ],
      "name": "transferFrom",
      "outputs": [
        {
          "internalType": "bool",
          "name": "",
          "type": "bool"
        }
      ],
      "stateMutability": "nonpayable",
      "type": "function"
    }
  ],
  "bytecode": "0x6101606040818152346200052957620029f080380380916200002282866200052e565b84398201606083820312620005295782516001600160401b0392908381116200052957826200005391860162000577565b9160209081860151858111620005295783916200007291880162000577565b9501516001600160a01b038116908190036200052957825192808401848110878211176200043457815260019081855283850194603160f81b86528651888111620004345760038054918583811c931680156200051e575b888410146200050857601f92838111620004bd575b50808884821160011462000456576000916200044a575b5060001982841b1c191690861b1781555b8a51918a8311620004345760049b8c548781811c9116801562000429575b8a82101462000414579081838695949311620003ba575b5089918411600114620003505760009362000344575b505082861b92600019911b1c19161789555b6200016f87620005d2565b9561012096875262000181826200077a565b97610140988952868151910120918260e05251902061010099818b524660a052835191878301937f8b73c3c69bb8fe3d512ecc4cf759cc79239f7b179b0ffacaa9a75d522b39400f85528584015260608301524660808301523060a083015260a0825260c0820199828b10908b11176200032f57508883525190206080523060c05260008052600584528060002083600052845260ff81600020541615620002f2575b7f9f2df0fed2c77648de5860a4cc508cd0818c85b8b8a1ab4ceeef8d981c8956a69384600052600581528160002084600052815260ff82600020541615620002b2575b50505050506120fe9384620008d2853960805184611c9b015260a05184611d67015260c05184611c65015260e05184611cea01525183611d1001525182610658015251816106820152f35b8460005260058152816000209084600052526000209060ff198254161790553391600080516020620029d0833981519152600080a4388080808062000267565b600080526005845280600020836000528452806000208260ff1982541617905533836000600080516020620029d08339815191528180a462000224565b604190634e487b7160e01b6000525260246000fd5b01519150388062000152565b60008e81528a812089965093929190601f198616905b8c828210620003a3575050851162000388575b50505050811b01895562000164565b01519060f884600019921b161c191690553880808062000379565b8385015187558b9890960195938401930162000366565b90919293508d600052896000208380870160051c8201928c88106200040a575b918a918897969594930160051c01915b828110620003fa5750506200013c565b600081558796508a9101620003ea565b92508192620003da565b60228e634e487b7160e01b6000525260246000fd5b90607f169062000125565b634e487b7160e01b600052604160045260246000fd5b90508a015138620000f6565b60008481528a81208994509190601f198416908c8f5b838310620004a55750505083116200048c575b5050811b01815562000107565b8c015160001983861b60f8161c1916905538806200047f565b84015185558b969094019392830192018c8f6200046c565b82600052886000208480840160051c8201928b8510620004fe575b0160051c019087905b828110620004f1575050620000df565b60008155018790620004e1565b92508192620004d8565b634e487b7160e01b600052602260045260246000fd5b92607f1692620000ca565b600080fd5b601f909101601f19168101906001600160401b038211908210176200043457604052565b60005b838110620005665750506000910152565b818101518382015260200162000555565b81601f82011215620005295780516001600160401b038111620004345760405192620005ae601f8301601f1916602001856200052e565b818452602082840101116200052957620005cf916020808501910162000552565b90565b805160209081811015620006505750601f8251116200060e5780825192015190808310620005ff57501790565b82600019910360031b1b161790565b604490620006429260405193849263305a27a960e01b84528060048501528251928391826024870152868601910162000552565b601f01601f19168101030190fd5b906001600160401b0382116200043457600654926001938481811c911680156200076f575b838210146200050857601f811162000735575b5081601f8411600114620006c95750928293918392600094620006bd575b50501b916000199060031b1c19161760065560ff90565b015192503880620006a6565b919083601f198116600660005284600020946000905b888383106200071a575050501062000700575b505050811b0160065560ff90565b015160001960f88460031b161c19169055388080620006f2565b858701518855909601959485019487935090810190620006df565b600660005284601f84600020920160051c820191601f860160051c015b8281106200076257505062000688565b6000815501859062000752565b90607f169062000675565b805160209081811015620007a75750601f8251116200060e5780825192015190808310620005ff57501790565b906001600160401b0382116200043457600754926001938481811c91168015620008c6575b838210146200050857601f81116200088c575b5081601f841160011462000820575092829391839260009462000814575b50501b916000199060031b1c19161760075560ff90565b015192503880620007fd565b919083601f198116600760005284600020946000905b8883831062000871575050501062000857575b505050811b0160075560ff90565b015160001960f88460031b161c1916905538808062000849565b85870151885590960195948501948793509081019062000836565b600760005284601f84600020920160051c820191601f860160051c015b828110620008b9575050620007df565b60008155018590620008a9565b90607f1690620007cc56fe608060408181526004918236101561001657600080fd5b600092833560e01c91826301ffc9a7146110b45750816306fdde0314610fe157816308a8d7aa14610e11578163095ea7b314610de757816318160ddd14610dc857816323b872dd14610cfe578163248a9ca314610cd35781632f2ff15d14610c71578163313ce56714610c555781633644e51514610c3157816336568abe14610b9f5781633950935114610b4f5781633dd1eb6114610aa6578163685731071461087257816369e2f0fb146107cd57816370a08231146107965781637ecebe001461075e57816384b0196e1461064057816391d14854146105f957816395d89b411461050e578163a217fddf146104f3578163a457c2d71461044b578163a9059cbb1461041a578163aa271e1a146103c6578163d505accf14610210578163d5391393146101e7578163d547741f146101a4575063dd62ed3e1461015957600080fd5b346101a057806003193601126101a0578060209261017561114f565b61017d61116a565b6001600160a01b0391821683526001865283832091168252845220549051908152f35b5080fd5b919050346101e357806003193601126101e3576101e091356101db60016101c961116a565b93838752600560205286200154611535565b611640565b80f35b8280fd5b5050346101a057816003193601126101a057602090516000805160206120a98339815191528152f35b839150346101a05760e03660031901126101a05761022c61114f565b61023461116a565b906044359260643560843560ff811681036103c25781421161037f5760018060a01b0390818516928389526008602052898920908154916001830190558a519060208201927f6e71edae12b1b97f4d1f60370fef10105fa2faae0126114a169c64845d6126c98452868d840152858a1660608401528a608084015260a083015260c082015260c0815260e0810181811067ffffffffffffffff82111761036c578b525190206103179161030f916102e9611c62565b908c519161190160f01b83526002830152602282015260c43591604260a4359220611bd3565b919091611ab9565b160361032957506101e0939450611881565b606490602087519162461bcd60e51b8352820152601e60248201527f45524332305065726d69743a20696e76616c6964207369676e617475726500006044820152fd5b634e487b7160e01b8b526041875260248bfd5b875162461bcd60e51b8152602081850152601d60248201527f45524332305065726d69743a206578706972656420646561646c696e650000006044820152606490fd5b8680fd5b5050346101a05760203660031901126101a05760ff816020936103e761114f565b6000805160206120a98339815191528252600586528282206001600160a01b039091168252855220549151911615158152f35b5050346101a057806003193601126101a05760209061044461043a61114f565b6024359033611713565b5160018152f35b905082346104f057826003193601126104f05761046661114f565b918360243592338152600160205281812060018060a01b038616825260205220549082821061049f576020856104448585038733611881565b608490602086519162461bcd60e51b8352820152602560248201527f45524332303a2064656372656173656420616c6c6f77616e63652062656c6f77604482015264207a65726f60d81b6064820152fd5b80fd5b5050346101a057816003193601126101a05751908152602090f35b919050346101e357826003193601126101e35780519183815490610531826116b6565b808652926001928084169081156105ce5750600114610572575b61056e868661055c828b03836111ce565b5191829160208352602083019061112a565b0390f35b815294507f8a35acfbc15ff81a39ae7d344fd709f28e8600b4aa8c65c6b64bfe7fe36bd19b5b8286106105b65750505061055c82602061056e95820101943861054b565b80546020878701810191909152909501948101610598565b905061056e97508693506020925061055c94915060ff191682840152151560051b820101943861054b565b9050346101e357816003193601126101e3578160209360ff9261061a61116a565b90358252600586528282206001600160a01b039091168252855220549151911615158152f35b919050346101e357826003193601126101e35761067c7f0000000000000000000000000000000000000000000000000000000000000000611d8d565b926106a67f0000000000000000000000000000000000000000000000000000000000000000611e89565b908251926020928385019585871067ffffffffffffffff88111761074b575092806107018388966106f4998b9996528686528151998a99600f60f81b8b5260e0868c015260e08b019061112a565b91898303908a015261112a565b924660608801523060808801528460a088015286840360c088015251928381520193925b82811061073457505050500390f35b835185528695509381019392810192600101610725565b634e487b7160e01b845260419052602483fd5b5050346101a05760203660031901126101a05760209181906001600160a01b0361078661114f565b1681526008845220549051908152f35b5050346101a05760203660031901126101a05760209181906001600160a01b036107be61114f565b16815280845220549051908152f35b5050346101a05760203660031901126101a0576107e861114f565b6107f0611411565b6000805160206120a98339815191529182845260056020528084209160018060a01b03169182855260205260ff818520541661082a578380f35b8284526005602052808420828552602052832060ff19815416905533917ff6391f5c32d9c69d2a47ea670b442974b53935d1edc7fd64eb21e047a839171b8480a43880808380f35b8284346104f057816003193601126104f05782359267ffffffffffffffff8085116101e357366023860112156101e35784820135946108b0866111f0565b946108bd815196876111ce565b8686526020918287016024809960051b83010191368311610a7b578901905b828210610a83575050508635928311610a7f5736602384011215610a7f578284013592610908846111f0565b93610915835195866111ce565b808552888486019160051b83010191368311610a7b5789859101915b838310610a6b5750505050610944611208565b8551835103610a1e578551156109dc575050825b84518110156109d8576109b56001600160a01b036109838161097a858a612094565b51161515611f43565b6109986109908486612094565b511515611f8e565b6109a28388612094565b51166109ae8385612094565b5190611ff1565b60001981146109c657600101610958565b634e487b7160e01b8452601183528584fd5b8380f35b5162461bcd60e51b8152808401919091526018818701527f4173736574546f6b656e3a20656d7074792061727261797300000000000000006044820152606490fd5b5162461bcd60e51b8152808401919091526022818701527f4173736574546f6b656e3a20617272617973206c656e677468206d69736d61746044820152610c6d60f31b6064820152608490fd5b8235815291810191859101610931565b8780fd5b8480fd5b81356001600160a01b0381168103610aa25781529084019084016108dc565b8880fd5b5050346101a05760203660031901126101a057610ac161114f565b610ac9611411565b6000805160206120a98339815191529182845260056020528084209160018060a01b03169182855260205260ff818520541615610b04578380f35b82845260056020528084208285526020528320600160ff1982541617905533917f2f8788117e7eff1d82e926ec794901d17c78024a50270940304540a733656f0d8480a43880808380f35b5050346101a057806003193601126101a057610444602092610b98610b7261114f565b338352600186528483206001600160a01b038216845286529184902054602435906116f0565b9033611881565b839150346101a057826003193601126101a057610bba61116a565b90336001600160a01b03831603610bd657906101e09135611640565b608490602085519162461bcd60e51b8352820152602f60248201527f416363657373436f6e74726f6c3a2063616e206f6e6c792072656e6f756e636560448201526e103937b632b9903337b91039b2b63360891b6064820152fd5b5050346101a057816003193601126101a057602090610c4e611c62565b9051908152f35b5050346101a057816003193601126101a0576020905160128152f35b9050346101e357816003193601126101e3573590610c8d61116a565b908284526005602052610ca560018286200154611535565b828452600560209081528185206001600160a01b039093168086529290528084205460ff1615610b04578380f35b9050346101e35760203660031901126101e35781602093600192358152600585522001549051908152f35b839150346101a05760603660031901126101a057610d1a61114f565b610d2261116a565b91846044359460018060a01b038416815260016020528181203382526020522054906000198203610d5c575b602086610444878787611713565b848210610d855750918391610d7a6020969561044495033383611881565b919394819350610d4e565b606490602087519162461bcd60e51b8352820152601d60248201527f45524332303a20696e73756666696369656e7420616c6c6f77616e63650000006044820152fd5b5050346101a057816003193601126101a0576020906002549051908152f35b5050346101a057806003193601126101a057602090610444610e0761114f565b6024359033611881565b8383346101a05760803660031901126101a057610e2c61114f565b926024918235906044359267ffffffffffffffff968785116103c257366023860112156103c25784820135978811610fcf57825197602095610e77601f8301601f191688018b6111ce565b818a5236888383010111610aa25781899289899301838d01378a01015260643591610ea0611208565b6001600160a01b03821696610eb6881515611f43565b610ec1861515611f8e565b895115610f7e578315610f215750507f04133ee4cb027e1c5fce5e3481289278a93bd16a65a3b65b428a6d239e706bfb959697610f0185610f1793611ff1565b606084519687968752860152606085019061112a565b918301520390a280f35b845162461bcd60e51b81529182018790526032908201527f4173736574546f6b656e3a206170707261697365642076616c7565206d75737460448201527102062652067726561746572207468616e20360741b6064820152608490fd5b845162461bcd60e51b81529182018790526026908201527f4173736574546f6b656e3a20617373657420747970652063616e6e6f7420626560448201526520656d70747960d01b6064820152608490fd5b634e487b7160e01b8752604182528587fd5b5050346101a057816003193601126101a05780519082600354611003816116b6565b8085529160019180831690811561108c575060011461102f575b50505061055c8261056e9403836111ce565b9450600385527fc2575a0e9e593c00f959f8c92f12db2869c3395a3b0502d05e2516446f71f85b5b8286106110745750505061055c82602061056e958201019461101d565b80546020878701810191909152909501948101611057565b61056e97508693506020925061055c94915060ff191682840152151560051b8201019461101d565b8491346101e35760203660031901126101e3573563ffffffff60e01b81168091036101e35760209250637965db0b60e01b81149081156110f6575b5015158152f35b6301ffc9a760e01b149050836110ef565b60005b83811061111a5750506000910152565b818101518382015260200161110a565b9060209161114381518092818552858086019101611107565b601f01601f1916010190565b600435906001600160a01b038216820361116557565b600080fd5b602435906001600160a01b038216820361116557565b6040810190811067ffffffffffffffff82111761119c57604052565b634e487b7160e01b600052604160045260246000fd5b6080810190811067ffffffffffffffff82111761119c57604052565b90601f8019910116810190811067ffffffffffffffff82111761119c57604052565b67ffffffffffffffff811161119c5760051b60200190565b3360009081527f15a28d26fa1bf736cf7edc9922607171ccb09c3c73b808e7772a3013e068a522602090815260408083205490926000805160206120a98339815191529160ff161561125a5750505050565b611263336119aa565b91845190611270826111b2565b604282528482019260603685378251156113fd57603084538251906001918210156113fd5790607860218501536041915b81831161138f5750505061134d57604861134993869361132d9361131e985198899376020b1b1b2b9b9a1b7b73a3937b61d1030b1b1b7bab73a1604d1b8a8601526112f5815180928c603789019101611107565b8401917001034b99036b4b9b9b4b733903937b6329607d1b603784015251809386840190611107565b010360288101875201856111ce565b5192839262461bcd60e51b84526004840152602483019061112a565b0390fd5b60648486519062461bcd60e51b825280600483015260248201527f537472696e67733a20686578206c656e67746820696e73756666696369656e746044820152fd5b909192600f811660108110156113e9576f181899199a1a9b1b9c1cb0b131b232b360811b901a6113bf8587611983565b5360041c9280156113d5576000190191906112a1565b634e487b7160e01b82526011600452602482fd5b634e487b7160e01b83526032600452602483fd5b634e487b7160e01b81526032600452602490fd5b3360009081527f05b8ccbb9d4d8fb16ea74ce3c29a41f1b461fbdaff4714a0d9a8eb05499746bc602090815260408083205490929060ff161561145357505050565b61145c336119aa565b908084519061146a826111b2565b604282528482019260603685378251156113fd57603084538251906001918210156113fd5790607860218501536041915b8183116114ef5750505061134d57604861134993869361132d9361131e985198899376020b1b1b2b9b9a1b7b73a3937b61d1030b1b1b7bab73a1604d1b8a8601526112f5815180928c603789019101611107565b909192600f811660108110156113e9576f181899199a1a9b1b9c1cb0b131b232b360811b901a61151f8587611983565b5360041c9280156113d55760001901919061149b565b60009080825260209060058252604092838120338252835260ff84822054161561155f5750505050565b611568336119aa565b91845190611575826111b2565b604282528482019260603685378251156113fd57603084538251906001918210156113fd5790607860218501536041915b8183116115fa5750505061134d57604861134993869361132d9361131e985198899376020b1b1b2b9b9a1b7b73a3937b61d1030b1b1b7bab73a1604d1b8a8601526112f5815180928c603789019101611107565b909192600f811660108110156113e9576f181899199a1a9b1b9c1cb0b131b232b360811b901a61162a8587611983565b5360041c9280156113d5576000190191906115a6565b906000918083526005602052604083209160018060a01b03169182845260205260ff60408420541661167157505050565b8083526005602052604083208284526020526040832060ff1981541690557ff6391f5c32d9c69d2a47ea670b442974b53935d1edc7fd64eb21e047a839171b339380a4565b90600182811c921680156116e6575b60208310146116d057565b634e487b7160e01b600052602260045260246000fd5b91607f16916116c5565b919082018092116116fd57565b634e487b7160e01b600052601160045260246000fd5b6001600160a01b0390811691821561182e57169182156117dd5760008281528060205260408120549180831061178957604082827fddf252ad1be2c89b69c2b068fc378daa952ba7f163c4a11628f55a4df523b3ef958760209652828652038282205586815220818154019055604051908152a3565b60405162461bcd60e51b815260206004820152602660248201527f45524332303a207472616e7366657220616d6f756e7420657863656564732062604482015265616c616e636560d01b6064820152608490fd5b60405162461bcd60e51b815260206004820152602360248201527f45524332303a207472616e7366657220746f20746865207a65726f206164647260448201526265737360e81b6064820152608490fd5b60405162461bcd60e51b815260206004820152602560248201527f45524332303a207472616e736665722066726f6d20746865207a65726f206164604482015264647265737360d81b6064820152608490fd5b6001600160a01b0390811691821561193257169182156118e25760207f8c5be1e5ebec7d5bd14f71427d1e84f3dd0314c0f7b2291e5b200ac8c7c3b925918360005260018252604060002085600052825280604060002055604051908152a3565b60405162461bcd60e51b815260206004820152602260248201527f45524332303a20617070726f766520746f20746865207a65726f206164647265604482015261737360f01b6064820152608490fd5b60405162461bcd60e51b8152602060048201526024808201527f45524332303a20617070726f76652066726f6d20746865207a65726f206164646044820152637265737360e01b6064820152608490fd5b908151811015611994570160200190565b634e487b7160e01b600052603260045260246000fd5b604051906060820182811067ffffffffffffffff82111761119c57604052602a82526020820160403682378251156119945760309053815160019081101561199457607860218401536029905b808211611a4b575050611a075790565b606460405162461bcd60e51b815260206004820152602060248201527f537472696e67733a20686578206c656e67746820696e73756666696369656e746044820152fd5b9091600f81166010811015611aa4576f181899199a1a9b1b9c1cb0b131b232b360811b901a611a7a8486611983565b5360041c918015611a8f5760001901906119f7565b60246000634e487b7160e01b81526011600452fd5b60246000634e487b7160e01b81526032600452fd5b6005811015611bbd5780611aca5750565b60018103611b175760405162461bcd60e51b815260206004820152601860248201527f45434453413a20696e76616c6964207369676e617475726500000000000000006044820152606490fd5b60028103611b645760405162461bcd60e51b815260206004820152601f60248201527f45434453413a20696e76616c6964207369676e6174757265206c656e677468006044820152606490fd5b600314611b6d57565b60405162461bcd60e51b815260206004820152602260248201527f45434453413a20696e76616c6964207369676e6174757265202773272076616c604482015261756560f01b6064820152608490fd5b634e487b7160e01b600052602160045260246000fd5b9291907f7fffffffffffffffffffffffffffffff5d576e7357a4501ddfe92f46681b20a08311611c565791608094939160ff602094604051948552168484015260408301526060820152600093849182805260015afa15611c495781516001600160a01b03811615611c43579190565b50600190565b50604051903d90823e3d90fd5b50505050600090600390565b307f00000000000000000000000000000000000000000000000000000000000000006001600160a01b03161480611d64575b15611cbd577f000000000000000000000000000000000000000000000000000000000000000090565b60405160208101907f8b73c3c69bb8fe3d512ecc4cf759cc79239f7b179b0ffacaa9a75d522b39400f82527f000000000000000000000000000000000000000000000000000000000000000060408201527f000000000000000000000000000000000000000000000000000000000000000060608201524660808201523060a082015260a0815260c0810181811067ffffffffffffffff82111761119c5760405251902090565b507f00000000000000000000000000000000000000000000000000000000000000004614611c94565b60ff8114611dcb5760ff811690601f8211611db95760405191611daf83611180565b8252602082015290565b604051632cd44ac360e21b8152600490fd5b50604051600654816000611dde836116b6565b80835292600190818116908115611e675750600114611e08575b50611e05925003826111ce565b90565b6006600090815291507ff652222313e28459528d920b65115c16c04f3efc82aaedc97be59f3f377c0d3f5b848310611e4c5750611e05935050810160200138611df8565b81935090816020925483858901015201910190918492611e33565b905060209250611e0594915060ff191682840152151560051b82010138611df8565b60ff8114611eab5760ff811690601f8211611db95760405191611daf83611180565b50604051600754816000611ebe836116b6565b80835292600190818116908115611e675750600114611ee45750611e05925003826111ce565b6007600090815291507fa66cc928b5edb82af9bd49922954155ab7b0942694bea4ce44661d9a8736c6885b848310611f285750611e05935050810160200138611df8565b81935090816020925483858901015201910190918492611f0f565b15611f4a57565b606460405162461bcd60e51b815260206004820152602060248201527f4173736574546f6b656e3a206d696e7420746f207a65726f20616464726573736044820152fd5b15611f9557565b60405162461bcd60e51b815260206004820152602e60248201527f4173736574546f6b656e3a206d696e7420616d6f756e74206d7573742062652060448201526d067726561746572207468616e20360941b6064820152608490fd5b6001600160a01b031690811561204f577fddf252ad1be2c89b69c2b068fc378daa952ba7f163c4a11628f55a4df523b3ef6020826120336000946002546116f0565b60025584845283825260408420818154019055604051908152a3565b60405162461bcd60e51b815260206004820152601f60248201527f45524332303a206d696e7420746f20746865207a65726f2061646472657373006044820152606490fd5b80518210156119945760209160051b01019056fe9f2df0fed2c77648de5860a4cc508cd0818c85b8b8a1ab4ceeef8d981c8956a6a2646970667358221220be087263b60e3b1eb2ec5ccc50c8b8d25bdd78ec32b895d610f6a92ac6b54f7764736f6c634300081400332f8788117e7eff1d82e926ec794901d17c78024a50270940304540a733656f0d",
  "linkReferences": {},
  "deployedLinkReferences": {}
}