{
  "_format": "hh-sol-artifact-1",
  "contractName": "LiquidityPoolFactory",
  "sourceName": "contracts/LiquidityPoolFactory.sol",
  "abi": [
    {
      "inputs": [],
      "stateMutability": "nonpayable",
      "type": "constructor"
    },
    {
      "anonymous": false,
      "inputs": [
        {
          "indexed": false,
          "internalType": "uint256",
          "name": "oldFeeRate",
          "type": "uint256"
        },
        {
          "indexed": false,
          "internalType": "uint256",
          "name": "newFeeRate",
          "type": "uint256"
        }
      ],
      "name": "DefaultFeeRateChanged",
      "type": "event"
    },
    {
      "anonymous": false,
      "inputs": [
        {
          "indexed": false,
          "internalType": "address",
          "name": "account",
          "type": "address"
        }
      ],
      "name": "Paused",
      "type": "event"
    },
    {
      "anonymous": false,
      "inputs": [
        {
          "indexed": true,
          "internalType": "address",
          "name": "tokenA",
          "type": "address"
        },
        {
          "indexed": true,
          "internalType": "address",
          "name": "tokenB",
          "type": "address"
        },
        {
          "indexed": true,
          "internalType": "address",
          "name": "pool",
          "type": "address"
        },
        {
          "indexed": false,
          "internalType": "uint256",
          "name": "feeRate",
          "type": "uint256"
        },
        {
          "indexed": false,
          "internalType": "uint256",
          "name": "poolCount",
          "type": "uint256"
        }
      ],
      "name": "PoolCreated",
      "type": "event"
    },
    {
      "anonymous": false,
      "inputs": [
        {
          "indexed": true,
          "internalType": "address",
          "name": "pool",
          "type": "address"
        },
        {
          "indexed": false,
          "internalType": "bool",
          "name": "isActive",
          "type": "bool"
        }
      ],
      "name": "PoolStatusChanged",
      "type": "event"
    },
    {
      "anonymous": false,
      "inputs": [
        {
          "indexed": true,
          "internalType": "bytes32",
          "name": "role",
          "type": "bytes32"
        },
        {
          "indexed": true,
          "internalType": "bytes32",
          "name": "previousAdminRole",
          "type": "bytes32"
        },
        {
          "indexed": true,
          "internalType": "bytes32",
          "name": "newAdminRole",
          "type": "bytes32"
        }
      ],
      "name": "RoleAdminChanged",
      "type": "event"
    },
    {
      "anonymous": false,
      "inputs": [
        {
          "indexed": true,
          "internalType": "bytes32",
          "name": "role",
          "type": "bytes32"
        },
        {
          "indexed": true,
          "internalType": "address",
          "name": "account",
          "type": "address"
        },
        {
          "indexed": true,
          "internalType": "address",
          "name": "sender",
          "type": "address"
        }
      ],
      "name": "RoleGranted",
      "type": "event"
    },
    {
      "anonymous": false,
      "inputs": [
        {
          "indexed": true,
          "internalType": "bytes32",
          "name": "role",
          "type": "bytes32"
        },
        {
          "indexed": true,
          "internalType": "address",
          "name": "account",
          "type": "address"
        },
        {
          "indexed": true,
          "internalType": "address",
          "name": "sender",
          "type": "address"
        }
      ],
      "name": "RoleRevoked",
      "type": "event"
    },
    {
      "anonymous": false,
      "inputs": [
        {
          "indexed": false,
          "internalType": "address",
          "name": "account",
          "type": "address"
        }
      ],
      "name": "Unpaused",
      "type": "event"
    },
    {
      "inputs": [],
      "name": "ADMIN_ROLE",
      "outputs": [
        {
          "internalType": "bytes32",
          "name": "",
          "type": "bytes32"
        }
      ],
      "stateMutability": "view",
      "type": "function"
    },
    {
      "inputs": [],
      "name": "DEFAULT_ADMIN_ROLE",
      "outputs": [
        {
          "internalType": "bytes32",
          "name": "",
          "type": "bytes32"
        }
      ],
      "stateMutability": "view",
      "type": "function"
    },
    {
      "inputs": [],
      "name": "MAX_FEE_RATE",
      "outputs": [
        {
          "internalType": "uint256",
          "name": "",
          "type": "uint256"
        }
      ],
      "stateMutability": "view",
      "type": "function"
    },
    {
      "inputs": [],
      "name": "OPERATOR_ROLE",
      "outputs": [
        {
          "internalType": "bytes32",
          "name": "",
          "type": "bytes32"
        }
      ],
      "stateMutability": "view",
      "type": "function"
    },
    {
      "inputs": [
        {
          "internalType": "uint256",
          "name": "",
          "type": "uint256"
        }
      ],
      "name": "allPools",
      "outputs": [
        {
          "internalType": "address",
          "name": "",
          "type": "address"
        }
      ],
      "stateMutability": "view",
      "type": "function"
    },
    {
      "inputs": [],
      "name": "allPoolsLength",
      "outputs": [
        {
          "internalType": "uint256",
          "name": "",
          "type": "uint256"
        }
      ],
      "stateMutability": "view",
      "type": "function"
    },
    {
      "inputs": [
        {
          "internalType": "address",
          "name": "tokenA",
          "type": "address"
        },
        {
          "internalType": "address",
          "name": "tokenB",
          "type": "address"
        },
        {
          "internalType": "uint256",
          "name": "feeRate",
          "type": "uint256"
        }
      ],
      "name": "createPool",
      "outputs": [
        {
          "internalType": "address",
          "name": "pool",
          "type": "address"
        }
      ],
      "stateMutability": "nonpayable",
      "type": "function"
    },
    {
      "inputs": [
        {
          "components": [
            {
              "internalType": "address",
              "name": "tokenA",
              "type": "address"
            },
            {
              "internalType": "address",
              "name": "tokenB",
              "type": "address"
            },
            {
              "internalType": "uint256",
              "name": "feeRate",
              "type": "uint256"
            },
            {
              "internalType": "uint256",
              "name": "initialLiquidityA",
              "type": "uint256"
            },
            {
              "internalType": "uint256",
              "name": "initialLiquidityB",
              "type": "uint256"
            }
          ],
          "internalType": "struct LiquidityPoolFactory.PoolParams",
          "name": "params",
          "type": "tuple"
        },
        {
          "internalType": "address",
          "name": "liquidityProvider",
          "type": "address"
        },
        {
          "internalType": "uint256",
          "name": "deadline",
          "type": "uint256"
        }
      ],
      "name": "createPoolWithLiquidity",
      "outputs": [
        {
          "internalType": "address",
          "name": "pool",
          "type": "address"
        },
        {
          "internalType": "uint256",
          "name": "liquidity",
          "type": "uint256"
        }
      ],
      "stateMutability": "nonpayable",
      "type": "function"
    },
    {
      "inputs": [],
      "name": "defaultFeeRate",
      "outputs": [
        {
          "internalType": "uint256",
          "name": "",
          "type": "uint256"
        }
      ],
      "stateMutability": "view",
      "type": "function"
    },
    {
      "inputs": [
        {
          "internalType": "address",
          "name": "pool",
          "type": "address"
        }
      ],
      "name": "emergencyPausePool",
      "outputs": [],
      "stateMutability": "nonpayable",
      "type": "function"
    },
    {
      "inputs": [],
      "name": "getActivePools",
      "outputs": [
        {
          "internalType": "address[]",
          "name": "activePools",
          "type": "address[]"
        }
      ],
      "stateMutability": "view",
      "type": "function"
    },
    {
      "inputs": [
        {
          "internalType": "address",
          "name": "",
          "type": "address"
        },
        {
          "internalType": "address",
          "name": "",
          "type": "address"
        },
        {
          "internalType": "uint256",
          "name": "",
          "type": "uint256"
        }
      ],
      "name": "getPool",
      "outputs": [
        {
          "internalType": "address",
          "name": "",
          "type": "address"
        }
      ],
      "stateMutability": "view",
      "type": "function"
    },
    {
      "inputs": [
        {
          "internalType": "address",
          "name": "pool",
          "type": "address"
        }
      ],
      "name": "getPoolStats",
      "outputs": [
        {
          "internalType": "bool",
          "name": "isActive",
          "type": "bool"
        },
        {
          "internalType": "uint256",
          "name": "totalSupply",
          "type": "uint256"
        },
        {
          "internalType": "uint256",
          "name": "reserveA",
          "type": "uint256"
        },
        {
          "internalType": "uint256",
          "name": "reserveB",
          "type": "uint256"
        },
        {
          "internalType": "address",
          "name": "tokenA",
          "type": "address"
        },
        {
          "internalType": "address",
          "name": "tokenB",
          "type": "address"
        },
        {
          "internalType": "uint256",
          "name": "feeRate",
          "type": "uint256"
        }
      ],
      "stateMutability": "view",
      "type": "function"
    },
    {
      "inputs": [
        {
          "internalType": "address",
          "name": "tokenA",
          "type": "address"
        },
        {
          "internalType": "address",
          "name": "tokenB",
          "type": "address"
        }
      ],
      "name": "getPoolsForPair",
      "outputs": [
        {
          "internalType": "address[]",
          "name": "pools",
          "type": "address[]"
        },
        {
          "internalType": "uint256[]",
          "name": "feeRates",
          "type": "uint256[]"
        }
      ],
      "stateMutability": "view",
      "type": "function"
    },
    {
      "inputs": [
        {
          "internalType": "bytes32",
          "name": "role",
          "type": "bytes32"
        }
      ],
      "name": "getRoleAdmin",
      "outputs": [
        {
          "internalType": "bytes32",
          "name": "",
          "type": "bytes32"
        }
      ],
      "stateMutability": "view",
      "type": "function"
    },
    {
      "inputs": [
        {
          "internalType": "bytes32",
          "name": "role",
          "type": "bytes32"
        },
        {
          "internalType": "address",
          "name": "account",
          "type": "address"
        }
      ],
      "name": "grantRole",
      "outputs": [],
      "stateMutability": "nonpayable",
      "type": "function"
    },
    {
      "inputs": [
        {
          "internalType": "bytes32",
          "name": "role",
          "type": "bytes32"
        },
        {
          "internalType": "address",
          "name": "account",
          "type": "address"
        }
      ],
      "name": "hasRole",
      "outputs": [
        {
          "internalType": "bool",
          "name": "",
          "type": "bool"
        }
      ],
      "stateMutability": "view",
      "type": "function"
    },
    {
      "inputs": [
        {
          "internalType": "address",
          "name": "",
          "type": "address"
        }
      ],
      "name": "isValidPool",
      "outputs": [
        {
          "internalType": "bool",
          "name": "",
          "type": "bool"
        }
      ],
      "stateMutability": "view",
      "type": "function"
    },
    {
      "inputs": [],
      "name": "pause",
      "outputs": [],
      "stateMutability": "nonpayable",
      "type": "function"
    },
    {
      "inputs": [],
      "name": "paused",
      "outputs": [
        {
          "internalType": "bool",
          "name": "",
          "type": "bool"
        }
      ],
      "stateMutability": "view",
      "type": "function"
    },
    {
      "inputs": [
        {
          "internalType": "address",
          "name": "",
          "type": "address"
        }
      ],
      "name": "poolStatus",
      "outputs": [
        {
          "internalType": "bool",
          "name": "",
          "type": "bool"
        }
      ],
      "stateMutability": "view",
      "type": "function"
    },
    {
      "inputs": [
        {
          "internalType": "bytes32",
          "name": "role",
          "type": "bytes32"
        },
        {
          "internalType": "address",
          "name": "account",
          "type": "address"
        }
      ],
      "name": "renounceRole",
      "outputs": [],
      "stateMutability": "nonpayable",
      "type": "function"
    },
    {
      "inputs": [
        {
          "internalType": "bytes32",
          "name": "role",
          "type": "bytes32"
        },
        {
          "internalType": "address",
          "name": "account",
          "type": "address"
        }
      ],
      "name": "revokeRole",
      "outputs": [],
      "stateMutability": "nonpayable",
      "type": "function"
    },
    {
      "inputs": [
        {
          "internalType": "uint256",
          "name": "_feeRate",
          "type": "uint256"
        }
      ],
      "name": "setDefaultFeeRate",
      "outputs": [],
      "stateMutability": "nonpayable",
      "type": "function"
    },
    {
      "inputs": [
        {
          "internalType": "address",
          "name": "pool",
          "type": "address"
        },
        {
          "internalType": "bool",
          "name": "isActive",
          "type": "bool"
        }
      ],
      "name": "setPoolStatus",
      "outputs": [],
      "stateMutability": "nonpayable",
      "type": "function"
    },
    {
      "inputs": [
        {
          "internalType": "bytes4",
          "name": "interfaceId",
          "type": "bytes4"
        }
      ],
      "name": "supportsInterface",
      "outputs": [
        {
          "internalType": "bool",
          "name": "",
          "type": "bool"
        }
      ],
      "stateMutability": "view",
      "type": "function"
    },
    {
      "inputs": [],
      "name": "unpause",
      "outputs": [],
      "stateMutability": "nonpayable",
      "type": "function"
    }
  ],
  "bytecode": "0x6080604081815234620000fe5760ff1980600154166001556001600255601e6007556000908180526020828152838320338452815260ff848420541615620000c8575b7fa49807205ce4d355092ef5a8a18f56e8913cf4a201fbe287825b095693c2177593848452838252808420338552825260ff8185205416156200008d575b615c3c8681620001048239f35b6001918585528481528185209033865252832091825416179055339160008051602062005d40833981519152339280a4388080808062000080565b828052828152838320338452815283832060018382541617905533338460008051602062005d408339815191528180a462000042565b600080fdfe60806040818152600491823610156200001757600080fd5b60009260e08435811c92836301ffc9a71462001a4a5750826307d334551462001a285782630a2bdabb1462001729578263248a9ca314620016fc5782632f2ff15d146200164957826333ad1e01146200150657826336568abe146200146d5782633c38ccbb146200142a5782633f4ba83a146200138e57826341d1de97146200134757826351810fb51462000f3a5782635ab78ee11462000ef85782635c975abb1462000ed15782635f70fdb51462000e6857826375b238fc1462000e2a5782638456cb591462000dc95782638ae975951462000c205782638ec083541462000afe57826391d148541462000ab457826392f6576e1462000a94578263a217fddf1462000a76578263acf6cc1a1462000a2b578263d116f5f31462000740578263d547741f14620006fa578263d5ae325314620001cb5750508063efde4e6414620001ab5763f5b541a6146200016c57600080fd5b34620001a75781600319360112620001a757602090517f97667070c54ef182b0f5858b034beac1b6f3089aa2d3188bb1e8929f4fa9b9298152f35b5080fd5b5034620001a75781600319360112620001a7576020906006549051908152f35b83859134620006f6573660031901908112620006f65760a013620001a7576001600160a01b0360a43581811690819003620006f1576200020a620021b4565b620002146200216f565b80156200069f576064358015158062000693575b156200063357849562000285956200023f62002209565b946200024a62002220565b87516351810fb560e01b81526001600160a01b0397881685820190815297909116602088015260443560408801529788968791606090910190565b0360209687918185305af197881562000629578298620005ea575b5080620002ac62002209565b88516323b872dd60e01b80825233878301908152306020820152604081018990529099939192849284928390036060019183918991165af180156200050357620005ae575b506200033281836200030262002220565b8b519a8b5233888c01908152306020820152608435604082018190529b9485939092169183918991839160600190565b03925af180156200050357908592916200056b575b506200038d81878b8d88886200035c62002209565b16925180968195829463095ea7b360e01b9b8c8552840160209093929193604081019460018060a01b031681520152565b03925af1801562000561578b868b938d936200050d575b509084939291620003e39688620003ba62002220565b1693519788958694859384528d840160209093929193604081019460018060a01b031681520152565b03925af180156200050357620004b9575b50509060c492916060958851978896879563ded998b960e01b875286015260248501528260448501528260648501526084840152833560a484015288165af1938415620004ae5780946200046a575b50506001600255516001600160a01b039190911681526020810191909152604090f35b0390f35b909193506060823d8211620004a5575b81620004896060938362001f4f565b81010312620004a2575082015191620004668462000443565b80fd5b3d91506200047a565b8251903d90823e3d90fd5b818195949392953d8311620004fb575b620004d5818362001f4f565b81010312620001a757606095620004ee60c4956200224c565b50958192939450620003f4565b503d620004c9565b89513d86823e3d90fd5b93505050508181813d831162000559575b6200052a818362001f4f565b810103126200055557888a8c87620003e3966200054887966200224c565b50965090919293620003a4565b8480fd5b503d6200051e565b8a513d87823e3d90fd5b91508082813d8311620005a6575b62000585818362001f4f565b81010312620005a2576200059a85926200224c565b508b62000347565b8380fd5b503d62000579565b8181813d8311620005e2575b620005c6818362001f4f565b81010312620005a257620005da906200224c565b508a620002f1565b503d620005ba565b9097508581813d831162000621575b62000605818362001f4f565b81010312620001a757620006199062002237565b9689620002a0565b503d620005f9565b87513d84823e3d90fd5b835162461bcd60e51b8152602081880152603460248201527f4c6971756964697479506f6f6c466163746f72793a20696e73756666696369656044820152736e7420696e697469616c206c697175696469747960601b6064820152608490fd5b50608435151562000228565b825162461bcd60e51b8152602081870152602660248201527f4c6971756964697479506f6f6c466163746f72793a20696e76616c696420707260448201526537bb34b232b960d11b6064820152608490fd5b600080fd5b8280fd5b84828534620006f65780600319360112620006f6576200073d91356200073760016200072562001aba565b93838752866020528620015462001da6565b62001f72565b80f35b50828434620004a25781600319360112620004a2576200075f62001aa3565b906200076a62001aba565b916001600160a01b0383828282168382161162000a1f575b5050828551620007928162001f14565b600a815261014095602094873687850137885197620007b18962001f14565b600a895236878a013788519160c0830183811067ffffffffffffffff82111762000a0a578a5260059182845287840160a0368237845115620009f55783905283519b60019c8d1015620009e057601e8c860152845160021015620009e05760646060860152845160031015620009e05761012c60808601528451811015620009e057506101f460a0850152989a98888a5b6200090c575b5050505050620008588262002273565b92620008648362002273565b98865b848110620008bf575050505050620008889085519580875286019062001b57565b90848203818601528080875193848152019601925b828110620008ab5785870386f35b83518752958101959281019284016200089d565b8083620008d46200090393859e9c9e620022ab565b5116620008e28289620022ab565b52620008ef8186620022ab565b51620008fc828c620022ab565b52620022c0565b99979962000867565b90849392918a8e8d9f9d978f8d9151851015620009d2578c86168452600382528084208d881660005282528060002062000947868b620022ab565b51855282528c818520541693888515159384620009bd575b5050505062000983575b50506200097690620022c0565b90919293949a9c62000842565b98620009b4916200099a8262000976959c620022ab565b52620009a78a88620022ab565b51620008fc828b620022ab565b97908c62000969565b60ff9450868352522054168f8e888f6200095f565b50505050509b999b62000848565b603290634e487b7160e01b6000525260246000fd5b60328d634e487b7160e01b6000525260246000fd5b60418c634e487b7160e01b6000525260246000fd5b94509150868062000782565b50505034620001a7576020918162000a433662001b1f565b6001600160a01b039283168552600387528385209183166000908152918752908390209084528552912054915191168152f35b50505034620001a75781600319360112620001a75751908152602090f35b50505034620001a75781600319360112620001a757602090516103e88152f35b50905034620006f65781600319360112620006f6578160209362000ad762001aba565b92358152808552209060018060a01b0316600052825260ff81600020541690519015158152f35b838534620004a25780600319360112620004a2576006549181805b84811062000bc5575062000b2d9062002273565b9180805b85811062000b5057835160208082528190620004669082018862001b57565b62000b5b8162001ad1565b60018060a01b03809254600392831b1c168452600560205260ff868520541662000b93575b505062000b8d90620022c0565b62000b31565b9362000bbc91839562000baa62000b8d9562001ad1565b9054911b1c16620008fc8289620022ab565b92908762000b80565b62000bd08162001ad1565b905460039190911b1c6001600160a01b0316845260056020528284205460ff1662000c07575b62000c0190620022c0565b62000b19565b9062000c1762000c0191620022c0565b91905062000bf6565b93915034620001a75760209182600319360112620004a2576001600160a01b03908162000c4c62001aa3565b1680825283855262000c6460ff8784205416620022e6565b8551630c048d9160e31b81529387858281855afa94851562000dbf579083929188949662000cf5575b5050815260058552205460ff16938462000ce6575b608083015190808401519060608501519260a08587511695888801511696015196825198151589528801528601526060850152608084015260a083015260c0820152f35b60c08301511515945062000ca2565b9195509192508781813d811162000db7575b62000d13818362001f4f565b81010312620006f6578651918883019083821067ffffffffffffffff83111762000da257509162000d9260c060ff95938a95865262000d528162002237565b845262000d618a820162002237565b8a8501528581015186850152606081015160608501526080810151608085015260a081015160a0850152016200224c565b60c0820152949091923862000c8d565b604190634e487b7160e01b6000525260246000fd5b503d62000d07565b87513d85823e3d90fd5b50505034620001a75781600319360112620001a75760207f62e78cea01bee320cd4e420270b5ea74000d11b0c9f74754ebdbfc544b05a2589162000e0c62001b96565b62000e166200216f565b600160ff198154161760015551338152a180f35b50505034620001a75781600319360112620001a757602090517fa49807205ce4d355092ef5a8a18f56e8913cf4a201fbe287825b095693c217758152f35b84828534620006f6576020366003190112620006f6577f373a66b56c68a93ce3c7c287a416b7162a8257c5f3c05336060d7d783ee46d64913562000eab62001b96565b62000ebb6103e882111562002112565b600754908060075582519182526020820152a180f35b50505034620001a75781600319360112620001a75760209060ff6001541690519015158152f35b50905034620006f6576020366003190112620006f65760209260ff918391906001600160a01b0362000f2962001aa3565b168252855220541690519015158152f35b50838334620001a75762000f4e3662001b1f565b92919362000f5b620021b4565b62000f656200216f565b6001600160a01b0394938285878116801515806200133b575b15620012ed57888316908181146200129b5762000fa06103e886111562002112565b116200128e575b505085851691828152602096600388528582209481811695866000528952866000208484528952818784205416620012415786516138a88082019082821067ffffffffffffffff8311176200122e579082916200233f8339039084f0801562000dbf57821697883b15620005a25787516305e52ecf60e21b81526001600160a01b03918216818d01908152919092166020820152604081018590528390829081906060010381838c5af1801562000dbf5790839162001216575b50508551631d6c8e3f60e21b815288818b818b5afa90811562000dbf578391620011e3575b50873b15620006f657865190632f2ff15d60e01b82528a8201523060248201528281604481838c5af1801562000dbf57908391620011cb575b50849052600388528582208560005288528560002083835288528582206bffffffffffffffffffffffff60a01b90888282541617905585835260038952868320856000528952866000208484528952878784209182541617905560065468010000000000000000811015620011b857927f7b5c292074d28589558035864cd03ab61b59880d01a5b6228edb5adf73656e13928a8893620011698760018d9b9a990160065562001ad1565b819291549060031b918b831b921b19161790558782528a526001838083209260ff1993838582541617905560058d522091825416179055600654825191825289820152a4600160025551908152f35b634e487b7160e01b835260418a52602483fd5b620011d69062001ee9565b620001a757818a620010bf565b90508881813d83116200120e575b620011fd818362001f4f565b81010312620006f657518a62001086565b503d620011f1565b620012219062001ee9565b620001a757818a62001061565b634e487b7160e01b865260418d52602486fd5b865162461bcd60e51b8152808b018a9052602160248201527f4c6971756964697479506f6f6c466163746f72793a20706f6f6c2065786973746044820152607360f81b6064820152608490fd5b9095509250878062000fa7565b875162461bcd60e51b81526020818d0152602660248201527f4c6971756964697479506f6f6c466163746f72793a206964656e746963616c20604482015265746f6b656e7360d01b6064820152608490fd5b865162461bcd60e51b81526020818c0152602260248201527f4c6971756964697479506f6f6c466163746f72793a207a65726f206164647265604482015261737360f01b6064820152608490fd5b50888316151562000f7e565b50905034620006f6576020366003190112620006f6573591600654831015620004a257506200137860209262001ad1565b905491519160018060a01b039160031b1c168152f35b50905034620006f65782600319360112620006f657620013ad62001b96565b6001549060ff821615620013f0575060ff1916600155513381527f5db9ee0a495bf2e6ff9c91a7834c1ba4fdd244a5e8aa4e537bd38aeae4b073aa90602090a180f35b606490602084519162461bcd60e51b8352820152601460248201527314185d5cd8589b194e881b9bdd081c185d5cd95960621b6044820152fd5b50505034620001a7576020366003190112620001a75760209160ff9082906001600160a01b036200145a62001aa3565b1681526005855220541690519015158152f35b83858334620001a75782600319360112620001a7576200148c62001aba565b90336001600160a01b03831603620014ab57906200073d913562001f72565b608490602085519162461bcd60e51b8352820152602f60248201527f416363657373436f6e74726f6c3a2063616e206f6e6c792072656e6f756e636560448201526e103937b632b9903337b91039b2b63360891b6064820152fd5b84828534620006f65780600319360112620006f6576200152562001aa3565b90836024359384151593848603620006f6576200154162001b96565b60018060a01b031694858352816020526200156260ff8585205416620022e6565b858352600560205283832060ff1981541660ff8716179055600014620015ec57843b15620001a7578183518092631fa5d41d60e11b82528183895af18015620015e257620015ca575b505060008051602062005be7833981519152916020915b51908152a280f35b620015d59062001ee9565b620005a2578385620015ab565b83513d84823e3d90fd5b843b15620001a7578183518092638456cb5960e01b82528183895af18015620015e25762001631575b505060008051602062005be783398151915291602091620015c2565b6200163c9062001ee9565b620005a257838562001615565b50905034620006f65781600319360112620006f65735906200166a62001aba565b9082845283602052620016836001828620015462001da6565b828452836020528084209160018060a01b0316918260005260205260ff81600020541615620016b0578380f35b8284528360205280842082600052602052600020600160ff1982541617905533917f2f8788117e7eff1d82e926ec794901d17c78024a50270940304540a733656f0d8480a43880808380f35b50905034620006f6576020366003190112620006f657816020936001923581528085522001549051908152f35b84828534620006f65760209081600319360112620005a2576200174b62001aa3565b7f97667070c54ef182b0f5858b034beac1b6f3089aa2d3188bb1e8929f4fa9b929808652858452828620338752845260ff8387205416156200183357506001600160a01b031680855283835281852054909390620017ac9060ff16620022e6565b833b1562000555578482518092638456cb5960e01b82528183885af18015620018295762001802575b5082845260058252808420805460ff191690555183815260008051602062005be78339815191529190a280f35b936200182060008051602062005be783398151915293929562001ee9565b939091620017d5565b82513d87823e3d90fd5b9192949050620018433362001ff9565b91835190620018528262001f32565b6042825286820192606036853782511562001a15576030845382519060019182101562001a025790607860218501536041915b818311620019925750505062001951578362001920604888956200194395620019109560449a9951968793620018e68b86019b76020b1b1b2b9b9a1b7b73a3937b61d1030b1b1b7bab73a1604d1b8d52825192839160378901910162001ec4565b8401917001034b99036b4b9b9b4b733903937b6329607d1b60378401525180938684019062001ec4565b0103602881018552018362001f4f565b5195869462461bcd60e51b86528501525180928160248601528585019062001ec4565b601f01601f19168101030190fd5b606485878087519262461bcd60e51b845283015260248201527f537472696e67733a20686578206c656e67746820696e73756666696369656e746044820152fd5b909192600f81166010811015620019ef576f181899199a1a9b1b9c1cb0b131b232b360811b901a620019c5858762001fe7565b53881c928015620019dc5760001901919062001885565b634e487b7160e01b825260118952602482fd5b634e487b7160e01b835260328a52602483fd5b634e487b7160e01b815260328852602490fd5b634e487b7160e01b815260328752602490fd5b50505034620001a75781600319360112620001a7576020906007549051908152f35b85908334620006f6576020366003190112620006f6573563ffffffff60e01b8116809103620006f65760209250637965db0b60e01b811490811562001a91575b5015158152f35b6301ffc9a760e01b1490508362001a8a565b600435906001600160a01b0382168203620006f157565b602435906001600160a01b0382168203620006f157565b60065481101562001b095760066000527ff652222313e28459528d920b65115c16c04f3efc82aaedc97be59f3f377c0d3f0190600090565b634e487b7160e01b600052603260045260246000fd5b6060906003190112620006f1576001600160a01b03906004358281168103620006f157916024359081168103620006f1579060443590565b90815180825260208080930193019160005b82811062001b78575050505090565b83516001600160a01b03168552938101939281019260010162001b69565b3360009081527f7d7ffb7a348e1c6a02869081a26547b49160dd3df72d1d75a570eb9b698292ec6020908152604080832054909291907fa49807205ce4d355092ef5a8a18f56e8913cf4a201fbe287825b095693c217759060ff161562001bfd5750505050565b62001c083362001ff9565b9084519062001c178262001f32565b6042825283820194606036873782511562001d92576030865382519060019182101562001d925790607860218501536041915b81831162001d1f5750505062001cdd578462001cb860486200194393604497985198899162001ca88984019876020b1b1b2b9b9a1b7b73a3937b61d1030b1b1b7bab73a1604d1b8a52620018e6815180928d60378901910162001ec4565b0103602881018952018762001f4f565b5194859362461bcd60e51b855260048501525180928160248601528585019062001ec4565b60648386519062461bcd60e51b825280600483015260248201527f537472696e67733a20686578206c656e67746820696e73756666696369656e746044820152fd5b909192600f8116601081101562001d7e576f181899199a1a9b1b9c1cb0b131b232b360811b901a62001d52858762001fe7565b5360041c92801562001d6a5760001901919062001c4a565b634e487b7160e01b82526011600452602482fd5b634e487b7160e01b83526032600452602483fd5b634e487b7160e01b81526032600452602490fd5b60008181526020818152604092838320338452825260ff84842054161562001dce5750505050565b62001dd93362001ff9565b9084519062001de88262001f32565b6042825283820194606036873782511562001d92576030865382519060019182101562001d925790607860218501536041915b81831162001e795750505062001cdd578462001cb860486200194393604497985198899162001ca88984019876020b1b1b2b9b9a1b7b73a3937b61d1030b1b1b7bab73a1604d1b8a52620018e6815180928d60378901910162001ec4565b909192600f8116601081101562001d7e576f181899199a1a9b1b9c1cb0b131b232b360811b901a62001eac858762001fe7565b5360041c92801562001d6a5760001901919062001e1b565b60005b83811062001ed85750506000910152565b818101518382015260200162001ec7565b67ffffffffffffffff811162001efe57604052565b634e487b7160e01b600052604160045260246000fd5b610160810190811067ffffffffffffffff82111762001efe57604052565b6080810190811067ffffffffffffffff82111762001efe57604052565b90601f8019910116810190811067ffffffffffffffff82111762001efe57604052565b9060009180835282602052604083209160018060a01b03169182845260205260ff60408420541662001fa357505050565b80835282602052604083208284526020526040832060ff1981541690557ff6391f5c32d9c69d2a47ea670b442974b53935d1edc7fd64eb21e047a839171b339380a4565b90815181101562001b09570160200190565b604051906060820182811067ffffffffffffffff82111762001efe57604052602a825260208201604036823782511562001b095760309053815160019081101562001b0957607860218401536029905b8082116200209f5750506200205b5790565b606460405162461bcd60e51b815260206004820152602060248201527f537472696e67733a20686578206c656e67746820696e73756666696369656e746044820152fd5b9091600f81166010811015620020fd576f181899199a1a9b1b9c1cb0b131b232b360811b901a620020d1848662001fe7565b5360041c918015620020e857600019019062002049565b60246000634e487b7160e01b81526011600452fd5b60246000634e487b7160e01b81526032600452fd5b156200211a57565b60405162461bcd60e51b815260206004820152602760248201527f4c6971756964697479506f6f6c466163746f72793a20666565207261746520746044820152660dede40d0d2ced60cb1b6064820152608490fd5b60ff600154166200217c57565b60405162461bcd60e51b815260206004820152601060248201526f14185d5cd8589b194e881c185d5cd95960821b6044820152606490fd5b6002805414620021c45760028055565b60405162461bcd60e51b815260206004820152601f60248201527f5265656e7472616e637947756172643a207265656e7472616e742063616c6c006044820152606490fd5b6004356001600160a01b0381168103620006f15790565b6024356001600160a01b0381168103620006f15790565b51906001600160a01b0382168203620006f157565b51908115158203620006f157565b67ffffffffffffffff811162001efe5760051b60200190565b906200227f826200225a565b6200228e604051918262001f4f565b8281528092620022a1601f19916200225a565b0190602036910137565b805182101562001b095760209160051b010190565b6000198114620022d05760010190565b634e487b7160e01b600052601160045260246000fd5b15620022ee57565b60405162461bcd60e51b815260206004820152602260248201527f4c6971756964697479506f6f6c466163746f72793a20696e76616c696420706f6044820152611bdb60f21b6064820152608490fdfe6080604081815234620000f857600160009080825560ff19908160025416600255828052602093818552808420338552855260ff818520541615620000c3575b7fa49807205ce4d355092ef5a8a18f56e8913cf4a201fbe287825b095693c2177594858552828152818520338652815260ff8286205416156200008a575b61378a8781620000fe8239f35b8585528281528185209033865252832091825416179055339160008051602062003888833981519152339280a43880808080806200007d565b83805281855280842033855285528084208284825416179055333385600080516020620038888339815191528180a46200003f565b600080fdfe60806040818152600491823610156200001757600080fd5b600092833560e01c91826301ffc9a714620015aa575081630902f1ac14620015735781630fc63d101462001544578163158ef93e146200151b5781631794bb3c146200112257816319e36f3b1462001101578163248a9ca314620010d55781632f2ff15d146200102157816336568abe1462000f885781633f4ba83a1462000eed57816345596e2e1462000eb75781635909c0d51462000e965781635a3d54931462000e755781635c975abb1462000e4f5781635f64b55b1462000e245781635fcbd2851462000df957816360246c881462000cb557816375b238fc1462000c78578163839497611462000a585781638456cb5914620009f757816391d1485414620009ac578163978bbdb9146200098b578163a217fddf146200096e578163ad615dec1462000942578163c5700a02146200091b578163d547741f14620008d5578163dc5fa6c514620008b5578163ded998b91462000470578163ed856cdc1462000211578163f140a35a14620001d9575063f5b541a6146200019a57600080fd5b34620001d55781600319360112620001d557602090517f97667070c54ef182b0f5858b034beac1b6f3089aa2d3188bb1e8929f4fa9b9298152f35b5080fd5b8284346200020e57816003193601126200020e575062000207602092620001ff62001602565b9035620023d1565b9051908152f35b80fd5b905082346200020e5760a03660031901126200020e5781356200023362001619565b916200023e62001eb7565b600754916200025360ff8460c01c1662001d64565b6200025d62001e72565b6200026d60843542111562001db1565b6001600160a01b039462000285858716151562001df7565b6200029282151562002142565b86516318160ddd60e01b815295602094851c81169590858884818a5afa978815620004665785986200042c575b50620002eb620002dc89620002d686548862001ac8565b62001e43565b98620002d66005548762001ac8565b96620002fc6024358a10156200219d565b6200030c604435891015620021f6565b803b1562000428578951632770a7eb60e21b815233858201908152602081018790529091879183919082908490829060400103925af180156200041e5791899493918993620003f7575b50926200038a62000391938386620003808960019c9b9a97620003a69a60025460081c166200224f565b600354166200224f565b5462001e64565b6200039f8760055462001e64565b90620022f2565b7f1dc8bb69df2b8e91fbdcbfcf93d951b3f0000f085a95fe3f7946d6161439245d875180620003e93394898b846040919493926060820195825260208201520152565b0390a2558351928352820152f35b879294955062000409919350620019d5565b6200041a5787929187918b62000356565b8480fd5b8a513d88823e3d90fd5b8580fd5b9097508581813d83116200045e575b62000447818362001a07565b810103126200045957519689620002bf565b600080fd5b503d6200043b565b89513d87823e3d90fd5b905034620008b15760c0366003190112620008b157803591608435916001600160a01b039190602435838516808603620008ad57620004e890620004b362001eb7565b620004c660ff60075460c01c1662001d64565b620004d062001e72565b620004e060a43542111562001db1565b151562001df7565b8154801580620008a2575b156200083b575094935b62000514858560025460081c163090339062001f0e565b62000526863033876003541662001f0e565b60075483516318160ddd60e01b8152602091821c8616959190818186818a5afa9081156200074f578a9162000804575b5080620007b457506200056a888862001ac8565b896003821115620007a457508060019080821c828101809111620007915791905b8383106200076c575050505b6103e71981019081116200075957899096803b15620001d557819060448851809481936340c10f1960e01b8352818b8401526103e860248401525af180156200074f5762000739575b505b8515620006e257600754901c16908790823b15620001d55784516340c10f1960e01b81526001600160a01b03909116848201908152602081018790529092839182908490829060400103925af18015620006d857620006c0575b508394956200066562000657620006bc966001945462001af2565b6200039f8960055462001af2565b8251868152602081018890526040810185905233907f64b83944e79c3ce8d4c297411de637c3e102d064677aac0c163976ebdcd6f50e90606090a25551938493846040919493926060820195825260208201520152565b0390f35b620006cc8791620019d5565b6200042857386200063c565b83513d89823e3d90fd5b8360849186519162461bcd60e51b8352820152602c60248201527f4c6971756964697479506f6f6c3a20696e73756666696369656e74206c69717560448201526b1a591a5d1e481b5a5b9d195960a21b6064820152fd5b6200074790999199620019d5565b9738620005e0565b86513d8c823e3d90fd5b634e487b7160e01b8a526011855260248afd5b90919250620007878362000781818462001e43565b62001af2565b821c91906200058b565b634e487b7160e01b8d526011885260248dfd5b9015620005975750600162000597565b909550620007ea620007e0620007d8620007cf848b62001ac8565b87549062001e43565b928a62001ac8565b6005549062001e43565b80821015620007fc57505b94620005e2565b9050620007f5565b90508181813d831162000833575b6200081e818362001a07565b810103126200082f57513862000556565b8980fd5b503d62000812565b90600554916200084d83828a620024b9565b92828411620008715750505062000869606435821015620021f6565b9493620004fd565b826200087f939450620024b9565b958611158062000895575b62000869906200219d565b506044358610156200088a565b5060055415620004f3565b8780fd5b8280fd5b905034620008b15782600319360112620008b15760209250549051908152f35b91905034620008b15780600319360112620008b1576200091891356200091260016200090062001602565b93838752816020528620015462001861565b62001a51565b80f35b505034620001d55781600319360112620001d55760209063ffffffff600754169051908152f35b8284346200020e5760603660031901126200020e575062000207602092604435906024359035620024b9565b505034620001d55781600319360112620001d55751908152602090f35b505034620001d55781600319360112620001d5576020906006549051908152f35b905034620008b15781600319360112620008b1578160209360ff92620009d162001602565b90358252600186528282206001600160a01b039091168252855220549151911615158152f35b505034620001d55781600319360112620001d55760207f62e78cea01bee320cd4e420270b5ea74000d11b0c9f74754ebdbfc544b05a2589162000a3962001630565b62000a4362001e72565b600160ff19600254161760025551338152a180f35b91905034620008b15760a0366003190112620008b1576001600160a01b03926044358481169084359082810362000c745762000a9362001619565b9062000a9e62001eb7565b62000ab160ff60075460c01c1662001d64565b62000abb62001e72565b62000acb60843542111562001db1565b62000ad883151562002294565b8760025460081c16978885149889801562000c66575b62000af99062001c5e565b62000b08828516151562001df7565b891562000c5f57508060035416905b891562000c55578854915b8a1562000c485762000b39600554945b87620023d1565b996024358b1062000bf357508962000b888760209d956200078184899762000b8f9760019f9e9d9c9b868f62000b7562000b7f93871062002142565b3090339062001f0e565b16998a6200224f565b9262001e64565b911562000be2579062000ba291620022f2565b855192835287830152848201528460608201527fcd3829a3813dc3cdd188fd3d01dcf3268c16be2fdd2dd21d0665418816e4606260803392a25551908152f35b62000bed91620022f2565b62000ba2565b60849060208b519162461bcd60e51b8352820152602960248201527f4c6971756964697479506f6f6c3a20696e73756666696369656e74206f7574706044820152681d5d08185b5bdd5b9d60ba1b6064820152fd5b62000b398a549462000b32565b6005549162000b22565b9062000b17565b506003548216861462000aee565b8380fd5b505034620001d55781600319360112620001d557602090517fa49807205ce4d355092ef5a8a18f56e8913cf4a201fbe287825b095693c217758152f35b905034620008b15782600319360112620008b157815162000cd681620019a2565b8381528360c0602092828482015282868201528260608201528260808201528260a082015201526002549160018060a01b03808460081c1694816003541693835490600554938181600754821c168551978880926318160ddd60e01b82525afa95861562000def578a9662000db6575b5060e099506006549660ff60c0865162000d6081620019a2565b8c81528581019384528781019687526060810198895260808101998a5260a081019a8b520199161589528451998a5251169088015251908601525160608501525160808401525160a083015251151560c0820152f35b9095508181813d831162000de7575b62000dd1818362001a07565b810103126200082f5760e0995051943862000d46565b503d62000dc5565b84513d8c823e3d90fd5b505034620001d55781600319360112620001d5576007549051602091821c6001600160a01b03168152f35b505034620001d55781600319360112620001d55760035490516001600160a01b039091168152602090f35b505034620001d55781600319360112620001d55760209060ff6002541690519015158152f35b505034620001d55781600319360112620001d5576020906009549051908152f35b505034620001d55781600319360112620001d5576020906008549051908152f35b839034620001d5576020366003190112620001d5573562000ed762001630565b62000ee76103e882111562001cab565b60065580f35b905034620008b15782600319360112620008b15762000f0b62001630565b6002549060ff82161562000f4e575060ff1916600255513381527f5db9ee0a495bf2e6ff9c91a7834c1ba4fdd244a5e8aa4e537bd38aeae4b073aa90602090a180f35b606490602084519162461bcd60e51b8352820152601460248201527314185d5cd8589b194e881b9bdd081c185d5cd95960621b6044820152fd5b83915034620001d55782600319360112620001d55762000fa762001602565b90336001600160a01b0383160362000fc6579062000918913562001a51565b608490602085519162461bcd60e51b8352820152602f60248201527f416363657373436f6e74726f6c3a2063616e206f6e6c792072656e6f756e636560448201526e103937b632b9903337b91039b2b63360891b6064820152fd5b905034620008b15781600319360112620008b15735906200104162001602565b9082845260016020526200105b6001828620015462001861565b828452600160209081528185206001600160a01b039093168086529290528084205460ff16156200108a578380f35b82845260016020528084208285526020528320600160ff1982541617905533917f2f8788117e7eff1d82e926ec794901d17c78024a50270940304540a733656f0d8480a43880808380f35b905034620008b1576020366003190112620008b157816020936001923581528285522001549051908152f35b505034620001d55781600319360112620001d5576020906005549051908152f35b905034620008b1576060366003190112620008b15780356001600160a01b03818116929083830362000428576200115862001602565b90604435916200116762001630565b60ff60075460c01c16620014cd5785151580620014c1575b6200118a9062001c5e565b16928385146200147e57620011a46103e883111562001cab565b60028054610100600160a81b03191660089290921b610100600160a81b0316919091179055600380546001600160a01b0319168417905560065583516306fdde0360e01b808252909386858481845afa9485156200140a5787956200145e575b50855191825286828481875afa9182156200140a5787926200143e575b5086865191818386816395d89b4160e01b948582525afa9283156200143457829362001414575b508488518097819382525afa9384156200140a578794620013d9575b5060246200131a91875195620012ca83888a516200128b8160209d8e80860191016200197d565b810197602d60f81b98898d820152620012af8d83519384916021850191016200197d565b01620204c560ec1b6021820152038881018a52018862001a07565b88519482620012e387945180928c80880191016200197d565b83019089820152620012ff825180938b6021850191016200197d565b016202d4c560ec1b6021820152038481018452018262001a07565b84519261121b8085019385851067ffffffffffffffff861117620013c65750916200135b62001369928695946200253a873960608552606085019062001a2a565b908382038785015262001a2a565b908530910152039084f0918215620013bd575060078054640100000000600160c81b0319169290911b640100000000600160c01b031691909117600160c01b1763ffffffff19164263ffffffff1617905580f35b513d84823e3d90fd5b634e487b7160e01b895260419052602488fd5b6200131a919450620014016024913d808b833e620013f8818362001a07565b81019062001cf8565b94915062001264565b86513d89823e3d90fd5b6200142c9193503d8084833e620013f8818362001a07565b913862001248565b88513d84823e3d90fd5b620014569192503d8089833e620013f8818362001a07565b903862001221565b620014769195503d8089833e620013f8818362001a07565b933862001204565b855162461bcd60e51b8152602081850152601f60248201527f4c6971756964697479506f6f6c3a206964656e746963616c20746f6b656e73006044820152606490fd5b5080821615156200117f565b865162461bcd60e51b8152602081860152602260248201527f4c6971756964697479506f6f6c3a20616c726561647920696e697469616c697a604482015261195960f21b6064820152608490fd5b505034620001d55781600319360112620001d55760209060ff60075460c01c1690519015158152f35b505034620001d55781600319360112620001d557600254905160089190911c6001600160a01b03168152602090f35b905034620008b15782600319360112620008b1576060925054906005549063ffffffff600754169181519384526020840152820152f35b849134620008b1576020366003190112620008b1573563ffffffff60e01b8116809103620008b15760209250637965db0b60e01b8114908115620015f0575b5015158152f35b6301ffc9a760e01b14905083620015e9565b602435906001600160a01b03821682036200045957565b606435906001600160a01b03821682036200045957565b3360009081527f50efbde2d46c37e9785f1791697f77e94bb7b701e19f1930a668820722d37694602090815260408083205490927fa49807205ce4d355092ef5a8a18f56e8913cf4a201fbe287825b095693c217759160019060ff161562001699575050505050565b620016a43362001b45565b92855191620016b383620019ea565b604283528583019360603686378351156200184d576030855383518210156200184d5790607860218501536041915b818311620017da575050506200179857604862001794938693620017779362001767985198899376020b1b1b2b9b9a1b7b73a3937b61d1030b1b1b7bab73a1604d1b8a8601526200173d815180928c6037890191016200197d565b8401917001034b99036b4b9b9b4b733903937b6329607d1b6037840152518093868401906200197d565b0103602881018752018562001a07565b5192839262461bcd60e51b84526004840152602483019062001a2a565b0390fd5b60648486519062461bcd60e51b825280600483015260248201527f537472696e67733a20686578206c656e67746820696e73756666696369656e746044820152fd5b909192600f8116601081101562001839576f181899199a1a9b1b9c1cb0b131b232b360811b901a6200180d858762001b1d565b5360041c9280156200182557600019019190620016e2565b634e487b7160e01b82526011600452602482fd5b634e487b7160e01b83526032600452602483fd5b634e487b7160e01b81526032600452602490fd5b6000818152600191602091838352604093848220338352845260ff8583205416156200188e575050505050565b620018993362001b45565b92855191620018a883620019ea565b604283528583019360603686378351156200184d576030855383518210156200184d5790607860218501536041915b81831162001932575050506200179857604862001794938693620017779362001767985198899376020b1b1b2b9b9a1b7b73a3937b61d1030b1b1b7bab73a1604d1b8a8601526200173d815180928c6037890191016200197d565b909192600f8116601081101562001839576f181899199a1a9b1b9c1cb0b131b232b360811b901a62001965858762001b1d565b5360041c9280156200182557600019019190620018d7565b60005b838110620019915750506000910152565b818101518382015260200162001980565b60e0810190811067ffffffffffffffff821117620019bf57604052565b634e487b7160e01b600052604160045260246000fd5b67ffffffffffffffff8111620019bf57604052565b6080810190811067ffffffffffffffff821117620019bf57604052565b90601f8019910116810190811067ffffffffffffffff821117620019bf57604052565b9060209162001a45815180928185528580860191016200197d565b601f01601f1916010190565b906000918083526001602052604083209160018060a01b03169182845260205260ff60408420541662001a8357505050565b8083526001602052604083208284526020526040832060ff1981541690557ff6391f5c32d9c69d2a47ea670b442974b53935d1edc7fd64eb21e047a839171b339380a4565b8181029291811591840414171562001adc57565b634e487b7160e01b600052601160045260246000fd5b9190820180921162001adc57565b67ffffffffffffffff8111620019bf57601f01601f191660200190565b90815181101562001b2f570160200190565b634e487b7160e01b600052603260045260246000fd5b604051906060820182811067ffffffffffffffff821117620019bf57604052602a825260208201604036823782511562001b2f5760309053815160019081101562001b2f57607860218401536029905b80821162001beb57505062001ba75790565b606460405162461bcd60e51b815260206004820152602060248201527f537472696e67733a20686578206c656e67746820696e73756666696369656e746044820152fd5b9091600f8116601081101562001c49576f181899199a1a9b1b9c1cb0b131b232b360811b901a62001c1d848662001b1d565b5360041c91801562001c3457600019019062001b95565b60246000634e487b7160e01b81526011600452fd5b60246000634e487b7160e01b81526032600452fd5b1562001c6657565b60405162461bcd60e51b815260206004820152601c60248201527f4c6971756964697479506f6f6c3a20696e76616c696420746f6b656e000000006044820152606490fd5b1562001cb357565b60405162461bcd60e51b815260206004820152601b60248201527f4c6971756964697479506f6f6c3a2066656520746f6f206869676800000000006044820152606490fd5b602081830312620004595780519067ffffffffffffffff821162000459570181601f820112156200045957805162001d308162001b00565b9262001d40604051948562001a07565b81845260208284010111620004595762001d6191602080850191016200197d565b90565b1562001d6c57565b60405162461bcd60e51b815260206004820152601e60248201527f4c6971756964697479506f6f6c3a206e6f7420696e697469616c697a656400006044820152606490fd5b1562001db957565b60405162461bcd60e51b8152602060048201526016602482015275131a5c5d5a591a5d1e541bdbdb0e88195e1c1a5c995960521b6044820152606490fd5b1562001dff57565b606460405162461bcd60e51b815260206004820152602060248201527f4c6971756964697479506f6f6c3a20696e76616c696420726563697069656e746044820152fd5b811562001e4e570490565b634e487b7160e01b600052601260045260246000fd5b9190820391821162001adc57565b60ff6002541662001e7f57565b60405162461bcd60e51b815260206004820152601060248201526f14185d5cd8589b194e881c185d5cd95960821b6044820152606490fd5b60026000541462001ec9576002600055565b60405162461bcd60e51b815260206004820152601f60248201527f5265656e7472616e637947756172643a207265656e7472616e742063616c6c006044820152606490fd5b6040516323b872dd60e01b60208201526001600160a01b03928316602482015292909116604483015260648083019390935291815260a081019181831067ffffffffffffffff841117620019bf5762001f6a9260405262001f6c565b565b60018060a01b031690604051604081019080821067ffffffffffffffff831117620019bf5762002004916040526020938482527f5361666545524332303a206c6f772d6c6576656c2063616c6c206661696c6564858301526000808587829751910182855af13d156200209f573d9162001fe68362001b00565b9262001ff6604051948562001a07565b83523d868885013e620020a3565b80519182159184831562002078575b505050905015620020215750565b6084906040519062461bcd60e51b82526004820152602a60248201527f5361666545524332303a204552433230206f7065726174696f6e20646964206e6044820152691bdd081cdd58d8d9595960b21b6064820152fd5b919381809450010312620001d5578201519081151582036200020e57508038808462002013565b6060915b91929015620021085750815115620020b9575090565b3b15620020c35790565b60405162461bcd60e51b815260206004820152601d60248201527f416464726573733a2063616c6c20746f206e6f6e2d636f6e74726163740000006044820152606490fd5b8251909150156200211c5750805190602001fd5b60405162461bcd60e51b8152602060048201529081906200179490602483019062001a2a565b156200214a57565b60405162461bcd60e51b815260206004820152602560248201527f4c6971756964697479506f6f6c3a20696e73756666696369656e74206c697175604482015264696469747960d81b6064820152608490fd5b15620021a557565b60405162461bcd60e51b8152602060048201526024808201527f4c6971756964697479506f6f6c3a20696e73756666696369656e74204120616d6044820152631bdd5b9d60e21b6064820152608490fd5b15620021fe57565b60405162461bcd60e51b8152602060048201526024808201527f4c6971756964697479506f6f6c3a20696e73756666696369656e74204220616d6044820152631bdd5b9d60e21b6064820152608490fd5b60405163a9059cbb60e01b60208201526001600160a01b0392909216602483015260448083019390935291815262001f6a916200228e60648362001a07565b62001f6c565b156200229c57565b60405162461bcd60e51b815260206004820152602860248201527f4c6971756964697479506f6f6c3a20696e73756666696369656e7420696e70756044820152671d08185b5bdd5b9d60c21b6064820152608490fd5b9063ffffffff908142169260075492808416850381811162001adc571680151580620023c5575b80620023b9575b6200233a575b5060045560055563ffffffff191617600755565b600554600160701b91607082901b82158382048514171562001adc576200237d62002374836200236e600454809562001e43565b62001ac8565b60085462001af2565b6008558060701b93818504149015171562001adc576200236e620023a692620023af9462001e43565b60095462001af2565b6009553862002326565b50600554151562002320565b50600454151562002319565b620023de81151562002294565b6002546001600160a01b0392831660089190911c83168114926200240e9184918215620024aa575b505062001c5e565b8115620024a057600454915b156200249657600554915b80158015806200248c575b6200243b9062002142565b600654926127109384039084821162001adc5762002466916200245e9162001ac8565b948562001ac8565b9280830292830414171562001adc5762001d6192620024859162001af2565b9062001e43565b5083151562002430565b6004549162002425565b600554916200241a565b60035416149050388062002406565b8015620024e95762001d6192620002d69183151580620024df575b6200236e9062002142565b50811515620024d4565b60405162461bcd60e51b815260206004820152602260248201527f4c6971756964697479506f6f6c3a20696e73756666696369656e7420616d6f756044820152611b9d60f21b6064820152608490fdfe60806040523462000364576200121b803803806200001d8162000369565b9283398101606082820312620003645781516001600160401b0391908281116200036457816200004f9185016200038f565b906020908185015184811162000364576040916200006f9187016200038f565b940151926001600160a01b03841692838503620003645780519082821162000264576003918254906001928383811c9316801562000359575b8784101462000343578190601f93848111620002ed575b50879084831160011462000286576000926200027a575b505060001982861b1c191690831b1783555b8751938411620002645760049485548381811c9116801562000259575b828210146200024457828111620001f9575b508091851160011462000189575083929183916200016d996000956200017d575b50501b92600019911b1c19161790555b620001533362000401565b600680546001600160a01b03191691909117905562000401565b604051610dd090816200044b8239f35b01519350388062000138565b91939290601f198416988660005283600020936000905b8b8210620001e1575050846200016d9a10620001c6575b50505050811b01905562000148565b01519060f884600019921b161c1916905538808080620001b7565b808885978294968601518155019601930190620001a0565b86600052816000208380880160051c8201928489106200023a575b0160051c019084905b8281106200022d57505062000117565b600081550184906200021d565b9250819262000214565b602287634e487b7160e01b6000525260246000fd5b90607f169062000105565b634e487b7160e01b600052604160045260246000fd5b015190503880620000d6565b90859350601f1983169187600052896000209260005b8b828210620002d65750508411620002bd575b505050811b018355620000e8565b015160001983881b60f8161c19169055388080620002af565b83850151865589979095019493840193016200029c565b90915085600052876000208480850160051c8201928a861062000339575b918791869594930160051c01915b82811062000329575050620000bf565b6000815585945087910162000319565b925081926200030b565b634e487b7160e01b600052602260045260246000fd5b92607f1692620000a8565b600080fd5b6040519190601f01601f191682016001600160401b038111838210176200026457604052565b919080601f84011215620003645782516001600160401b0381116200026457602090620003c5601f8201601f1916830162000369565b92818452828287010111620003645760005b818110620003ed57508260009394955001015290565b8581018301518482018401528201620003d7565b600580546001600160a01b039283166001600160a01b0319821681179092559091167f8be0079c531659141344cd1fd0a4f28419497f9722a3daafe3b4186f6b6457e0600080a356fe6080604081815260048036101561001557600080fd5b600092833560e01c90816306fdde03146108f457508063095ea7b3146108ca57806316f0115b146108a157806318160ddd1461088257806323b872dd146107b8578063313ce5671461079c578063395093511461074c57806340c10f191461067d5780634437152a146105eb57806370a08231146105b4578063715018a6146105575780638da5cb5b1461052e57806395d89b411461040e5780639dc29fac146102dc578063a457c2d714610235578063a9059cbb14610204578063dd62ed3e146101b75763f2fde38b146100e957600080fd5b346101b35760203660031901126101b357610102610a32565b9061010b610a63565b6001600160a01b03918216928315610161575050600554826bffffffffffffffffffffffff60a01b821617600555167f8be0079c531659141344cd1fd0a4f28419497f9722a3daafe3b4186f6b6457e08380a380f35b906020608492519162461bcd60e51b8352820152602660248201527f4f776e61626c653a206e6577206f776e657220697320746865207a65726f206160448201526564647265737360d01b6064820152fd5b8280fd5b505034610200578060031936011261020057806020926101d5610a32565b6101dd610a4d565b6001600160a01b0391821683526001865283832091168252845220549051908152f35b5080fd5b50503461020057806003193601126102005760209061022e610224610a32565b6024359033610ade565b5160018152f35b5082346102d957826003193601126102d95761024f610a32565b918360243592338152600160205281812060018060a01b03861682526020522054908282106102885760208561022e8585038733610c4c565b608490602086519162461bcd60e51b8352820152602560248201527f45524332303a2064656372656173656420616c6c6f77616e63652062656c6f77604482015264207a65726f60d81b6064820152fd5b80fd5b508290346102005782600319360112610200576102f7610a32565b600654602435916001600160a01b03916103149083163314610d4e565b169182156103c15782845283602052848420549082821061037357508184957fddf252ad1be2c89b69c2b068fc378daa952ba7f163c4a11628f55a4df523b3ef936020938688528785520381872055816002540360025551908152a380f35b608490602087519162461bcd60e51b8352820152602260248201527f45524332303a206275726e20616d6f756e7420657863656564732062616c616e604482015261636560f01b6064820152fd5b608490602086519162461bcd60e51b8352820152602160248201527f45524332303a206275726e2066726f6d20746865207a65726f206164647265736044820152607360f81b6064820152fd5b50919034610200578160031936011261020057805190828454600181811c90808316928315610524575b6020938484108114610511578388529081156104f557506001146104a0575b505050829003601f01601f191682019267ffffffffffffffff84118385101761048d57508291826104899252826109e9565b0390f35b634e487b7160e01b815260418552602490fd5b8787529192508591837f8a35acfbc15ff81a39ae7d344fd709f28e8600b4aa8c65c6b64bfe7fe36bd19b5b8385106104e15750505050830101388080610457565b8054888601830152930192849082016104cb565b60ff1916878501525050151560051b8401019050388080610457565b634e487b7160e01b895260228a52602489fd5b91607f1691610438565b50503461020057816003193601126102005760055490516001600160a01b039091168152602090f35b83346102d957806003193601126102d957610570610a63565b600580546001600160a01b0319811690915581906001600160a01b03167f8be0079c531659141344cd1fd0a4f28419497f9722a3daafe3b4186f6b6457e08280a380f35b5050346102005760203660031901126102005760209181906001600160a01b036105dc610a32565b16815280845220549051908152f35b50346101b35760203660031901126101b357610605610a32565b61060d610a63565b6001600160a01b031691821561063a5750506bffffffffffffffffffffffff60a01b600654161760065580f35b906020606492519162461bcd60e51b8352820152601d60248201527f4c50546f6b656e3a20696e76616c696420706f6f6c20616464726573730000006044820152fd5b5090346101b357806003193601126101b357610697610a32565b60065460243592916001600160a01b03916106b59083163314610d4e565b1692831561070a57506020827fddf252ad1be2c89b69c2b068fc378daa952ba7f163c4a11628f55a4df523b3ef926106f08795600254610abb565b60025585855284835280852082815401905551908152a380f35b6020606492519162461bcd60e51b8352820152601f60248201527f45524332303a206d696e7420746f20746865207a65726f2061646472657373006044820152fd5b50503461020057806003193601126102005761022e60209261079561076f610a32565b338352600186528483206001600160a01b03821684528652918490205460243590610abb565b9033610c4c565b5050346102005781600319360112610200576020905160128152f35b50829034610200576060366003190112610200576107d4610a32565b6107dc610a4d565b91846044359460018060a01b038416815260016020528181203382526020522054906000198203610816575b60208661022e878787610ade565b84821061083f57509183916108346020969561022e95033383610c4c565b919394819350610808565b606490602087519162461bcd60e51b8352820152601d60248201527f45524332303a20696e73756666696369656e7420616c6c6f77616e63650000006044820152fd5b5050346102005781600319360112610200576020906002549051908152f35b50503461020057816003193601126102005760065490516001600160a01b039091168152602090f35b50503461020057806003193601126102005760209061022e6108ea610a32565b6024359033610c4c565b84915083346101b357826003193601126101b35782600354600181811c908083169283156109df575b6020938484108114610511578388529081156109c3575060011461096d57505050829003601f01601f191682019267ffffffffffffffff84118385101761048d57508291826104899252826109e9565b600387529192508591837fc2575a0e9e593c00f959f8c92f12db2869c3395a3b0502d05e2516446f71f85b5b8385106109af5750505050830101858080610457565b805488860183015293019284908201610999565b60ff1916878501525050151560051b8401019050858080610457565b91607f169161091d565b6020808252825181830181905290939260005b828110610a1e57505060409293506000838284010152601f8019910116010190565b8181018601518482016040015285016109fc565b600435906001600160a01b0382168203610a4857565b600080fd5b602435906001600160a01b0382168203610a4857565b6005546001600160a01b03163303610a7757565b606460405162461bcd60e51b815260206004820152602060248201527f4f776e61626c653a2063616c6c6572206973206e6f7420746865206f776e65726044820152fd5b91908201809211610ac857565b634e487b7160e01b600052601160045260246000fd5b6001600160a01b03908116918215610bf95716918215610ba857600082815280602052604081205491808310610b5457604082827fddf252ad1be2c89b69c2b068fc378daa952ba7f163c4a11628f55a4df523b3ef958760209652828652038282205586815220818154019055604051908152a3565b60405162461bcd60e51b815260206004820152602660248201527f45524332303a207472616e7366657220616d6f756e7420657863656564732062604482015265616c616e636560d01b6064820152608490fd5b60405162461bcd60e51b815260206004820152602360248201527f45524332303a207472616e7366657220746f20746865207a65726f206164647260448201526265737360e81b6064820152608490fd5b60405162461bcd60e51b815260206004820152602560248201527f45524332303a207472616e736665722066726f6d20746865207a65726f206164604482015264647265737360d81b6064820152608490fd5b6001600160a01b03908116918215610cfd5716918215610cad5760207f8c5be1e5ebec7d5bd14f71427d1e84f3dd0314c0f7b2291e5b200ac8c7c3b925918360005260018252604060002085600052825280604060002055604051908152a3565b60405162461bcd60e51b815260206004820152602260248201527f45524332303a20617070726f766520746f20746865207a65726f206164647265604482015261737360f01b6064820152608490fd5b60405162461bcd60e51b8152602060048201526024808201527f45524332303a20617070726f76652066726f6d20746865207a65726f206164646044820152637265737360e01b6064820152608490fd5b15610d5557565b60405162461bcd60e51b815260206004820152601f60248201527f4c50546f6b656e3a2063616c6c6572206973206e6f742074686520706f6f6c006044820152606490fdfea264697066735822122026c5ad39f8335fbe62e2ad935e84650a3fe20333497825eb2bacadf94a36451f64736f6c63430008140033a26469706673582212207ed61c17294217357056c3fda8858f34de2ed79f7b6c69fef855da8d69c5407864736f6c634300081400332f8788117e7eff1d82e926ec794901d17c78024a50270940304540a733656f0d200e5013b1e7d404942300da3670a81a06231d29673d2ea5b80ee2015dad9f00a2646970667358221220d17c5f05b8486c70da1757c5a40aeefdd48dd0d5fd8cc879b8ddb8e06bceeeca64736f6c634300081400332f8788117e7eff1d82e926ec794901d17c78024a50270940304540a733656f0d",
  "linkReferences": {},
  "deployedLinkReferences": {}
}